{
	"compilerInput": "{\"language\":\"Solidity\",\"sources\":{\"contracts/ThriftClub.sol\":{\"content\":\"// SPDX-License-Identifier: MIT\\npragma solidity ^0.8.9;\\n\\nimport \\\"@openzeppelin/contracts/token/ERC20/ERC20.sol\\\";\\nimport \\\"@openzeppelin/contracts/token/ERC721/IERC721.sol\\\";\\nimport \\\"@openzeppelin/contracts/token/ERC721/IERC721Receiver.sol\\\";\\nimport \\\"@openzeppelin/contracts/utils/Address.sol\\\";\\nimport \\\"@chainlink/contracts/src/v0.8/interfaces/AggregatorV3Interface.sol\\\";\\nimport \\\"@chainlink/contracts/src/v0.8/interfaces/VRFCoordinatorV2Interface.sol\\\";\\nimport \\\"@chainlink/contracts/src/v0.8/VRFConsumerBaseV2.sol\\\";\\nimport \\\"@chainlink/contracts/src/v0.8/interfaces/LinkTokenInterface.sol\\\";\\n// Imports token price conversioner library\\nimport \\\"./PriceConverter.sol\\\";\\nimport \\\"./DAOContract.sol\\\";\\n// import \\\"./ChainlinkContract.sol\\\";\\nimport \\\"./NFTContract.sol\\\";\\nimport \\\"./IDAOContract.sol\\\";\\n\\nerror __TransferFailed();\\n\\ncontract ThriftClub is IERC721Receiver, VRFConsumerBaseV2 {\\n    enum TANDA_STATE {\\n        OPEN,\\n        CLOSED,\\n        PAYMENT_IN_PROGRESS,\\n        COMPLETED\\n    }\\n    struct ThriftClubData {\\n        address token;\\n        uint256 cycleDuration;\\n        uint256 contributionAmount;\\n        uint256 penalty;\\n        uint256 maxParticipant;\\n        string name;\\n        string description;\\n        IERC721 nftContract;\\n        IDAOContract daoContract;\\n        TANDA_STATE t_state;\\n        uint256 lastUpdateTimestamp;\\n    }\\n\\n    ThriftClubData public s_thriftClub;\\n\\n    uint256 paidParticipants = 0;\\n\\n    VRFCoordinatorV2Interface COORDINATOR;\\n    LinkTokenInterface LINKTOKEN;\\n    // CHANGE THIS TO POLYGON MUMBAI\\n    // Sepolia coordinator. For other networks,\\n    // see https://docs.chain.link/docs/vrf-contracts/#configurations\\n    address vrfCoordinator = 0x7a1BaC17Ccc5b313516C5E16fb24f7659aA5ebed;\\n\\n    // Sepolia LINK token contract. For other networks, see\\n    // https://docs.chain.link/docs/vrf-contracts/#configurations\\n    address link_token_contract = 0x326C977E6efc84E512bB9C30f76E30c160eD06FB;\\n\\n    // The gas lane to use, which specifies the maximum gas price to bump to.\\n    // For a list of available gas lanes on each network,\\n    // see https://docs.chain.link/docs/vrf-contracts/#configurations\\n    bytes32 keyHash =\\n        0x474e34a077df58807dbe9c96d3c009b23b3c6d0cce433e59bbf5b34f823bc56c;\\n\\n    // A reasonable default is 100000, but this value could be different\\n    // on other networks.\\n    uint32 callbackGasLimit = 100000;\\n\\n    // The default is 3, but you can set this higher.\\n    uint16 requestConfirmations = 3;\\n\\n    // For this example, retrieve 1 random value in one request.\\n    // Cannot exceed VRFCoordinatorV2.MAX_NUM_WORDS.\\n    uint32 numWords = 1;\\n\\n    // Storage parameters\\n    uint256[] public s_randomWords;\\n    uint256 public s_requestId;\\n    uint64 private s_subscriptionId;\\n    address s_owner;\\n    // ./PriceConverter gets token price conversions for detrmining max transaction fee\\n    using PriceConverter for uint256;\\n    // Chainlink PriceFeeds - (token / USD)\\n    AggregatorV3Interface private immutable i_priceFeedNative;\\n    AggregatorV3Interface private immutable i_priceFeedUSDC;\\n    AggregatorV3Interface private immutable i_priceFeedUSDT;\\n    AggregatorV3Interface private immutable i_priceFeedDAI;\\n    AggregatorV3Interface private immutable i_priceFeedBTC;\\n    // Token Addresses\\n    address private immutable i_NativeAddress;\\n    address private immutable i_USDCAddress;\\n    address private immutable i_USDTAddress;\\n    address private immutable i_DAIAddress;\\n    address private immutable i_WBTCAddress;\\n    // constants\\n    uint256 public constant MAXIMUM_FEE_USD = 50 * 1e18;\\n\\n    AggregatorV3Interface priceFeed = AggregatorV3Interface(i_priceFeedToken);\\n\\n    address public i_priceFeedToken;\\n\\n    mapping(address => bool) public isParticipant;\\n    address[] public participants;\\n\\n    // Mapping to track users who have paid the penalty fee\\n    mapping(address => bool) public hasPaidPenalty;\\n\\n    // NFT contract\\n    // IERC721 public nftContract;\\n\\n    // DAO contract\\n    IDAOContract public daoContract;\\n\\n    // Chainlink contract\\n    // ChainlinkContract public chainlinkContract;\\n\\n    event ParticipantJoined(address indexed participant);\\n    event CycleStarted(address indexed winner);\\n    event AddressPaid(address recipient, uint256 amount);\\n\\n    constructor(\\n        address _token,\\n        uint256 _cycleDuration,\\n        uint256 _contributionAmount,\\n        uint256 _penalty,\\n        uint256 _maxParticipant,\\n        string memory _name,\\n        string memory _description,\\n        address _nftContract,\\n        address _daoContract\\n    ) VRFConsumerBaseV2(vrfCoordinator) {\\n        COORDINATOR = VRFCoordinatorV2Interface(vrfCoordinator);\\n        LINKTOKEN = LinkTokenInterface(link_token_contract);\\n        // Hard code these for now\\n        i_priceFeedNative = AggregatorV3Interface(\\n            0xd0D5e3DB44DE05E9F294BB0a3bEEaF030DE24Ada\\n        );\\n        i_priceFeedUSDC = AggregatorV3Interface(\\n            0x572dDec9087154dC5dfBB1546Bb62713147e0Ab0\\n        );\\n        i_priceFeedUSDT = AggregatorV3Interface(\\n            0x92C09849638959196E976289418e5973CC96d645\\n        );\\n        i_priceFeedDAI = AggregatorV3Interface(\\n            0x0FCAa9c899EC5A91eBc3D5Dd869De833b06fB046\\n        );\\n        i_priceFeedBTC = AggregatorV3Interface(\\n            0x007A22900a3B98143368Bd5906f8E17e9867581b\\n        );\\n        // AggregatorV3Interface private immutable i_priceFeedNative;\\n\\n        i_NativeAddress = address(0x0000000000000000000000000000000000000000);\\n        i_USDCAddress = address(0x0FA8781a83E46826621b3BC094Ea2A0212e71B23);\\n        i_USDTAddress = address(0xA02f6adc7926efeBBd59Fd43A84f4E0c0c91e832);\\n        i_DAIAddress = address(0x001B3B4d0F3714Ca98ba10F6042DaEbF0B1B7b6F);\\n        i_WBTCAddress = address(0x0d787a4a1548f673ed375445535a6c7A1EE56180);\\n\\n        s_thriftClub.token = _token;\\n        s_thriftClub.cycleDuration = _cycleDuration;\\n        s_thriftClub.contributionAmount = _contributionAmount;\\n        s_thriftClub.penalty = _penalty;\\n        s_thriftClub.maxParticipant = _maxParticipant;\\n        s_thriftClub.name = _name;\\n        s_thriftClub.description = _description;\\n        s_thriftClub.nftContract = IERC721(_nftContract);\\n        s_thriftClub.daoContract = IDAOContract(_daoContract);\\n        s_thriftClub.t_state = TANDA_STATE.OPEN;\\n        s_thriftClub.lastUpdateTimestamp = block.timestamp;\\n        // chainlinkContract = new ChainlinkContract();\\n\\n        NFTContract nftContract = NFTContract(_nftContract);\\n\\n        setPriceFeedToken(_token);\\n    }\\n\\n    // Fee collection\\n    uint256 public ServiceFeePurse;\\n    mapping(address => uint256) public ServiceFeePurseTokenBalances;\\n    uint256 public ThriftPurseBalance;\\n    mapping(address => uint256) public ThriftPurseTokenBalance;\\n    uint256 public ThriftPursePenaltyBalance;\\n    mapping(address => uint256) public ThriftPursePenaltyTokenBalance;\\n\\n    function payPenaltyFee(\\n        address _tokenAddress,\\n        uint256 _tokenAmount\\n    ) public payable {\\n        ThriftClubData memory s_thriftClubData;\\n        require(!hasPaidPenalty[msg.sender], \\\"Penalty fee already paid\\\");\\n        require(isValidToken(_tokenAddress), \\\"Invalid token\\\");\\n        // require(\\n        //     _tokenAddress != address(0) ||\\n        //         msg.value == s_thriftClubData.penalty,\\n        //     \\\"Incorrect penalty fee amount\\\"\\n        // );\\n\\n        if (_tokenAddress == address(0)) {\\n            // Ether payment\\n            require(\\n                msg.value == s_thriftClubData.penalty,\\n                \\\"Incorrect penalty fee amount\\\"\\n            );\\n\\n            // Store the penalty fee in the ThriftPursePenaltyBalance\\n            ThriftPursePenaltyBalance += s_thriftClubData.penalty;\\n\\n            // Transfer the penalty fee to the contract\\n            payable(address(this)).transfer(msg.value);\\n        } else {\\n            // Token payment\\n            require(\\n                _tokenAmount == s_thriftClubData.penalty,\\n                \\\"Incorrect token amount for penalty fee\\\"\\n            );\\n\\n            // Store the penalty fee in the ThriftPursePenaltyTokenBalance\\n            ThriftPursePenaltyTokenBalance[_tokenAddress] += s_thriftClubData\\n                .penalty;\\n\\n            // Transfer the penalty fee to the contract\\n            IERC20(_tokenAddress).transferFrom(\\n                msg.sender,\\n                address(this),\\n                _tokenAmount\\n            );\\n        }\\n\\n        hasPaidPenalty[msg.sender] = true;\\n    }\\n\\n    function joinThriftClub(\\n        address _tokenAddress,\\n        uint256 _tokenAmount\\n    ) public payable {\\n        ThriftClubData memory s_thriftClubData;\\n\\n        require(hasPaidPenalty[msg.sender], \\\"Penalty fee not paid\\\");\\n        require(!isParticipant[msg.sender], \\\"Already a participant\\\");\\n        require(isValidToken(_tokenAddress), \\\"Invalid token\\\");\\n\\n        if (_tokenAddress == address(0)) {\\n            // Ether payment\\n            require(\\n                msg.value ==\\n                    s_thriftClubData.contributionAmount + MAXIMUM_FEE_USD,\\n                \\\"Incorrect amount\\\"\\n            );\\n\\n            // Calculate and handle fee calculations for Ether payment\\n            uint256 serviceFee;\\n            if (msg.value / 200 > MAXIMUM_FEE_USD) {\\n                serviceFee = MAXIMUM_FEE_USD.getConversionRate(\\n                    i_priceFeedNative\\n                );\\n            } else {\\n                serviceFee = msg.value / 200;\\n            }\\n            ServiceFeePurse += serviceFee;\\n            ThriftPurseBalance += s_thriftClubData.contributionAmount;\\n            payable(address(this)).transfer(msg.value);\\n        } else {\\n            // Token payment\\n            require(msg.value == 0, \\\"Invalid Ether value\\\");\\n            require(_tokenAmount > 0, \\\"Invalid token amount\\\");\\n            require(_tokenAddress == s_thriftClubData.token, \\\"Invalid token\\\");\\n\\n            // Calculate and handle fee calculations for token payment\\n            uint256 serviceFee;\\n            if (_tokenAmount / 200 > MAXIMUM_FEE_USD) {\\n                serviceFee = MAXIMUM_FEE_USD.getConversionRate(priceFeed);\\n            } else {\\n                serviceFee = _tokenAmount / 200;\\n            }\\n            ServiceFeePurseTokenBalances[_tokenAddress] += serviceFee;\\n            ThriftPurseTokenBalance[_tokenAddress] += s_thriftClubData\\n                .contributionAmount;\\n            IERC20(_tokenAddress).transferFrom(\\n                msg.sender,\\n                address(this),\\n                _tokenAmount\\n            );\\n        }\\n\\n        participants.push(msg.sender);\\n        isParticipant[msg.sender] = true;\\n\\n        daoContract.addMember(msg.sender);\\n\\n        emit ParticipantJoined(msg.sender);\\n        // Change state when the maxParticipant is reached\\n        if (s_thriftClubData.maxParticipant == participants.length) {\\n            s_thriftClubData.t_state == TANDA_STATE.PAYMENT_IN_PROGRESS;\\n        }\\n    }\\n\\n    // Check if the given token is a valid token for contribution\\n    function isValidToken(address _token) internal returns (bool) {\\n        return (_token == address(s_thriftClub.token)); // Replace with the address of the allowed tokens\\n    }\\n\\n    function setPriceFeedToken(address _token) internal {\\n        if (_token == i_USDCAddress) {\\n            i_priceFeedToken = i_USDCAddress;\\n        } else if (_token == i_USDTAddress) {\\n            i_priceFeedToken = i_USDTAddress;\\n        } else if (_token == i_DAIAddress) {\\n            i_priceFeedToken = i_DAIAddress;\\n        } else if (_token == i_WBTCAddress) {\\n            i_priceFeedToken = i_WBTCAddress;\\n        } else if (_token == i_NativeAddress) {\\n            i_priceFeedToken = i_NativeAddress;\\n        } else {\\n            // Handle the case where the token address is not valid\\n            revert(\\\"Invalid token address\\\");\\n        }\\n    }\\n\\n    // IERC721Receiver implementation\\n    function onERC721Received(\\n        address operator,\\n        address from,\\n        uint256 tokenId,\\n        bytes calldata data\\n    ) external override returns (bytes4) {\\n        return this.onERC721Received.selector;\\n    }\\n\\n    function requestRandomWords() internal {\\n        // Will revert if subscription is not set and funded.\\n        s_requestId = COORDINATOR.requestRandomWords(\\n            keyHash,\\n            s_subscriptionId,\\n            requestConfirmations,\\n            callbackGasLimit,\\n            numWords\\n        );\\n    }\\n\\n    function checkUpkeep(\\n        bytes calldata checkData\\n    ) external returns (bool upkeepNeeded, bytes memory performData) {\\n        // ThriftClubData s_thriftClubData\\n        TANDA_STATE currState = s_thriftClub.t_state;\\n        uint256 lastUpdateTimestamp = s_thriftClub.lastUpdateTimestamp;\\n        uint256 cycleDuration = s_thriftClub.cycleDuration;\\n\\n        if (\\n            currState == TANDA_STATE.PAYMENT_IN_PROGRESS &&\\n            block.timestamp > lastUpdateTimestamp + cycleDuration\\n        ) {\\n            upkeepNeeded = true;\\n        } else {\\n            upkeepNeeded = false;\\n        }\\n\\n        performData = checkData;\\n    }\\n\\n    function performUpkeep(bytes calldata performData) external {\\n        TANDA_STATE currState = s_thriftClub.t_state;\\n        uint256 lastUpdateTimestamp = s_thriftClub.lastUpdateTimestamp;\\n        uint256 cycleDuration = s_thriftClub.cycleDuration;\\n\\n        if (\\n            currState == TANDA_STATE.PAYMENT_IN_PROGRESS &&\\n            block.timestamp > lastUpdateTimestamp + cycleDuration\\n        ) {\\n            // Perform the necessary actions for when the payment period is over\\n            // For example, distribute rewards or proceed to the next cycle\\n            requestRandomWords();\\n        }\\n\\n        // Perform any other necessary upkeep tasks\\n\\n        performData;\\n    }\\n\\n    function fulfillRandomWords(\\n        uint256 /* requestId */,\\n        uint256[] memory randomWords\\n    ) internal override {\\n        s_randomWords = randomWords;\\n        // do other stuff, like call winner function to send to pot to the winner\\n        uint256 winnerIndex = s_randomWords[0] % participants.length;\\n        address winner = participants[winnerIndex];\\n\\n        // Check ThriftPurseBalance and ThriftPurseTokenBalance before transferring the pot balance\\n        require(\\n            ThriftPurseBalance > 0 ||\\n                ThriftPurseTokenBalance[s_thriftClub.token] > 0,\\n            \\\"No balance in the ThriftPurse\\\"\\n        );\\n\\n        if (ThriftPurseBalance > 0) {\\n            // payable(winner).transfer(ThriftPurseBalance);\\n            (bool success, ) = msg.sender.call{value: ThriftPurseBalance}(\\\"\\\");\\n            if (!success) {\\n                revert __TransferFailed();\\n            }\\n            emit AddressPaid(winner, ThriftPurseBalance);\\n            ThriftPurseBalance = 0;\\n        } else if (ThriftPurseTokenBalance[s_thriftClub.token] > 0) {\\n            // Transfer tokens using the appropriate token contract\\n            // address payable tokenAddress = s_thriftClub.token;\\n            address payable tokenAddress = payable(s_thriftClub.token);\\n\\n            bool success = IERC20(s_thriftClub.token).transfer(\\n                msg.sender,\\n                ThriftPurseTokenBalance[s_thriftClub.token]\\n            );\\n            if (!success) {\\n                revert __TransferFailed();\\n            }\\n            emit AddressPaid(\\n                winner,\\n                ThriftPurseTokenBalance[s_thriftClub.token]\\n            );\\n            ThriftPurseTokenBalance[s_thriftClub.token] = 0;\\n        }\\n\\n        // Increment paidParticipants count\\n        paidParticipants++;\\n\\n        // Update the state based on the number of paid participants\\n        if (paidParticipants == s_thriftClub.maxParticipant) {\\n            s_thriftClub.t_state = TANDA_STATE.CLOSED;\\n        } else {\\n            s_thriftClub.t_state = TANDA_STATE.OPEN;\\n        }\\n    }\\n\\n    function getThriftClubData() public view returns (ThriftClubData memory) {\\n        return\\n            ThriftClubData(\\n                s_thriftClub.token,\\n                s_thriftClub.cycleDuration,\\n                s_thriftClub.contributionAmount,\\n                s_thriftClub.penalty,\\n                s_thriftClub.maxParticipant,\\n                s_thriftClub.name,\\n                s_thriftClub.description,\\n                s_thriftClub.nftContract,\\n                s_thriftClub.daoContract,\\n                s_thriftClub.t_state,\\n                s_thriftClub.lastUpdateTimestamp\\n            );\\n    }\\n\\n    function setSubscriptionId(uint64 subscriptionId) internal {\\n        s_subscriptionId = subscriptionId;\\n    }\\n\\n    function getSubscriptionId() public view returns (uint64) {\\n        return s_subscriptionId;\\n    }\\n}\\n\"},\"contracts/IDAOContract.sol\":{\"content\":\"// SPDX-License-Identifier: MIT\\npragma solidity ^0.8.9;\\n\\ninterface IDAOContract {\\n    function addMember(address _member) external;\\n\\n    function removeMember(address _member) external;\\n\\n    function vote(uint _proposalId, bool _support) external;\\n}\\n\"},\"contracts/NFTContract.sol\":{\"content\":\"// SPDX-License-Identifier: MIT\\npragma solidity ^0.8.9;\\n\\nimport \\\"@openzeppelin/contracts/token/ERC721/ERC721.sol\\\";\\n\\ncontract NFTContract is ERC721 {\\n    uint256 private tokenIdCounter;\\n    mapping(address => bool) private isMinted;\\n    uint256 public maxSupply;\\n\\n    constructor(\\n        string memory _name,\\n        string memory _symbol,\\n        uint256 _maxSupply\\n    ) ERC721(_name, _symbol) {\\n        tokenIdCounter = 0;\\n        maxSupply = _maxSupply;\\n    }\\n\\n    function mint(address _account) public {\\n        require(!isMinted[_account], \\\"Already minted NFT for the account\\\");\\n        require(tokenIdCounter < maxSupply, \\\"Maximum supply reached\\\");\\n\\n        _safeMint(_account, tokenIdCounter);\\n        tokenIdCounter++;\\n        isMinted[_account] = true;\\n    }\\n}\\n\"},\"contracts/DAOContract.sol\":{\"content\":\"// SPDX-License-Identifier: MIT\\npragma solidity ^0.8.9;\\n\\n// DAO contract\\n\\ncontract DAOContract {\\n    mapping(address => bool) public members;\\n    mapping(address => bool) public canVote;\\n    address public owner;\\n\\n    modifier onlyOwner() {\\n        require(msg.sender == owner, \\\"Only owner can call this function\\\");\\n        _;\\n    }\\n\\n    constructor() {\\n        owner = msg.sender;\\n    }\\n\\n    function addMember(address _member) external onlyOwner {\\n        require(!members[_member], \\\"Member already exists\\\");\\n\\n        members[_member] = true;\\n        canVote[_member] = true;\\n    }\\n\\n    function removeMember(address _member) external onlyOwner {\\n        require(members[_member], \\\"Member does not exist\\\");\\n\\n        delete members[_member];\\n        delete canVote[_member];\\n    }\\n\\n    function vote(uint _proposalId, bool _support) external {\\n        require(canVote[msg.sender], \\\"Not authorized to vote\\\");\\n\\n        // Vote on a specific proposal\\n    }\\n}\\n\"},\"contracts/PriceConverter.sol\":{\"content\":\"// SPDX-License-Identifier: MIT\\n\\npragma solidity ^0.8.0;\\n\\nimport \\\"@chainlink/contracts/src/v0.8/interfaces/AggregatorV3Interface.sol\\\";\\n\\nlibrary PriceConverter {\\n    function getPrice(\\n        AggregatorV3Interface priceFeed\\n    ) internal view returns (uint256) {\\n        // ABI\\n        // Address passed on from constructor in Paylock.sol\\n\\n        (, int256 price, , , ) = priceFeed.latestRoundData();\\n        //    typecaseting & ETH/USD rate in 18 digit\\n        return uint256(price * 1e10);\\n    }\\n\\n    function getConversionRate(\\n        uint256 tokenAmount,\\n        AggregatorV3Interface priceFeed\\n    ) internal view returns (uint256) {\\n        uint256 tokenPrice = getPrice(priceFeed);\\n        uint256 tokenAmountInUsd = (tokenAmount * tokenPrice) / 1e18;\\n        return tokenAmountInUsd;\\n    }\\n\\n    function getMaxRate(\\n        uint256 MAXIMUM_FEE_USD,\\n        AggregatorV3Interface priceFeed\\n    ) internal view returns (uint256) {\\n        uint256 tokenPrice = getPrice(priceFeed);\\n        uint256 MaxFee = (MAXIMUM_FEE_USD / tokenPrice);\\n        return MaxFee;\\n    }\\n}\\n\"},\"@chainlink/contracts/src/v0.8/interfaces/LinkTokenInterface.sol\":{\"content\":\"// SPDX-License-Identifier: MIT\\npragma solidity ^0.8.0;\\n\\ninterface LinkTokenInterface {\\n  function allowance(address owner, address spender) external view returns (uint256 remaining);\\n\\n  function approve(address spender, uint256 value) external returns (bool success);\\n\\n  function balanceOf(address owner) external view returns (uint256 balance);\\n\\n  function decimals() external view returns (uint8 decimalPlaces);\\n\\n  function decreaseApproval(address spender, uint256 addedValue) external returns (bool success);\\n\\n  function increaseApproval(address spender, uint256 subtractedValue) external;\\n\\n  function name() external view returns (string memory tokenName);\\n\\n  function symbol() external view returns (string memory tokenSymbol);\\n\\n  function totalSupply() external view returns (uint256 totalTokensIssued);\\n\\n  function transfer(address to, uint256 value) external returns (bool success);\\n\\n  function transferAndCall(\\n    address to,\\n    uint256 value,\\n    bytes calldata data\\n  ) external returns (bool success);\\n\\n  function transferFrom(\\n    address from,\\n    address to,\\n    uint256 value\\n  ) external returns (bool success);\\n}\\n\"},\"@chainlink/contracts/src/v0.8/VRFConsumerBaseV2.sol\":{\"content\":\"// SPDX-License-Identifier: MIT\\npragma solidity ^0.8.4;\\n\\n/** ****************************************************************************\\n * @notice Interface for contracts using VRF randomness\\n * *****************************************************************************\\n * @dev PURPOSE\\n *\\n * @dev Reggie the Random Oracle (not his real job) wants to provide randomness\\n * @dev to Vera the verifier in such a way that Vera can be sure he's not\\n * @dev making his output up to suit himself. Reggie provides Vera a public key\\n * @dev to which he knows the secret key. Each time Vera provides a seed to\\n * @dev Reggie, he gives back a value which is computed completely\\n * @dev deterministically from the seed and the secret key.\\n *\\n * @dev Reggie provides a proof by which Vera can verify that the output was\\n * @dev correctly computed once Reggie tells it to her, but without that proof,\\n * @dev the output is indistinguishable to her from a uniform random sample\\n * @dev from the output space.\\n *\\n * @dev The purpose of this contract is to make it easy for unrelated contracts\\n * @dev to talk to Vera the verifier about the work Reggie is doing, to provide\\n * @dev simple access to a verifiable source of randomness. It ensures 2 things:\\n * @dev 1. The fulfillment came from the VRFCoordinator\\n * @dev 2. The consumer contract implements fulfillRandomWords.\\n * *****************************************************************************\\n * @dev USAGE\\n *\\n * @dev Calling contracts must inherit from VRFConsumerBase, and can\\n * @dev initialize VRFConsumerBase's attributes in their constructor as\\n * @dev shown:\\n *\\n * @dev   contract VRFConsumer {\\n * @dev     constructor(<other arguments>, address _vrfCoordinator, address _link)\\n * @dev       VRFConsumerBase(_vrfCoordinator) public {\\n * @dev         <initialization with other arguments goes here>\\n * @dev       }\\n * @dev   }\\n *\\n * @dev The oracle will have given you an ID for the VRF keypair they have\\n * @dev committed to (let's call it keyHash). Create subscription, fund it\\n * @dev and your consumer contract as a consumer of it (see VRFCoordinatorInterface\\n * @dev subscription management functions).\\n * @dev Call requestRandomWords(keyHash, subId, minimumRequestConfirmations,\\n * @dev callbackGasLimit, numWords),\\n * @dev see (VRFCoordinatorInterface for a description of the arguments).\\n *\\n * @dev Once the VRFCoordinator has received and validated the oracle's response\\n * @dev to your request, it will call your contract's fulfillRandomWords method.\\n *\\n * @dev The randomness argument to fulfillRandomWords is a set of random words\\n * @dev generated from your requestId and the blockHash of the request.\\n *\\n * @dev If your contract could have concurrent requests open, you can use the\\n * @dev requestId returned from requestRandomWords to track which response is associated\\n * @dev with which randomness request.\\n * @dev See \\\"SECURITY CONSIDERATIONS\\\" for principles to keep in mind,\\n * @dev if your contract could have multiple requests in flight simultaneously.\\n *\\n * @dev Colliding `requestId`s are cryptographically impossible as long as seeds\\n * @dev differ.\\n *\\n * *****************************************************************************\\n * @dev SECURITY CONSIDERATIONS\\n *\\n * @dev A method with the ability to call your fulfillRandomness method directly\\n * @dev could spoof a VRF response with any random value, so it's critical that\\n * @dev it cannot be directly called by anything other than this base contract\\n * @dev (specifically, by the VRFConsumerBase.rawFulfillRandomness method).\\n *\\n * @dev For your users to trust that your contract's random behavior is free\\n * @dev from malicious interference, it's best if you can write it so that all\\n * @dev behaviors implied by a VRF response are executed *during* your\\n * @dev fulfillRandomness method. If your contract must store the response (or\\n * @dev anything derived from it) and use it later, you must ensure that any\\n * @dev user-significant behavior which depends on that stored value cannot be\\n * @dev manipulated by a subsequent VRF request.\\n *\\n * @dev Similarly, both miners and the VRF oracle itself have some influence\\n * @dev over the order in which VRF responses appear on the blockchain, so if\\n * @dev your contract could have multiple VRF requests in flight simultaneously,\\n * @dev you must ensure that the order in which the VRF responses arrive cannot\\n * @dev be used to manipulate your contract's user-significant behavior.\\n *\\n * @dev Since the block hash of the block which contains the requestRandomness\\n * @dev call is mixed into the input to the VRF *last*, a sufficiently powerful\\n * @dev miner could, in principle, fork the blockchain to evict the block\\n * @dev containing the request, forcing the request to be included in a\\n * @dev different block with a different hash, and therefore a different input\\n * @dev to the VRF. However, such an attack would incur a substantial economic\\n * @dev cost. This cost scales with the number of blocks the VRF oracle waits\\n * @dev until it calls responds to a request. It is for this reason that\\n * @dev that you can signal to an oracle you'd like them to wait longer before\\n * @dev responding to the request (however this is not enforced in the contract\\n * @dev and so remains effective only in the case of unmodified oracle software).\\n */\\nabstract contract VRFConsumerBaseV2 {\\n  error OnlyCoordinatorCanFulfill(address have, address want);\\n  address private immutable vrfCoordinator;\\n\\n  /**\\n   * @param _vrfCoordinator address of VRFCoordinator contract\\n   */\\n  constructor(address _vrfCoordinator) {\\n    vrfCoordinator = _vrfCoordinator;\\n  }\\n\\n  /**\\n   * @notice fulfillRandomness handles the VRF response. Your contract must\\n   * @notice implement it. See \\\"SECURITY CONSIDERATIONS\\\" above for important\\n   * @notice principles to keep in mind when implementing your fulfillRandomness\\n   * @notice method.\\n   *\\n   * @dev VRFConsumerBaseV2 expects its subcontracts to have a method with this\\n   * @dev signature, and will call it once it has verified the proof\\n   * @dev associated with the randomness. (It is triggered via a call to\\n   * @dev rawFulfillRandomness, below.)\\n   *\\n   * @param requestId The Id initially returned by requestRandomness\\n   * @param randomWords the VRF output expanded to the requested number of words\\n   */\\n  function fulfillRandomWords(uint256 requestId, uint256[] memory randomWords) internal virtual;\\n\\n  // rawFulfillRandomness is called by VRFCoordinator when it receives a valid VRF\\n  // proof. rawFulfillRandomness then calls fulfillRandomness, after validating\\n  // the origin of the call\\n  function rawFulfillRandomWords(uint256 requestId, uint256[] memory randomWords) external {\\n    if (msg.sender != vrfCoordinator) {\\n      revert OnlyCoordinatorCanFulfill(msg.sender, vrfCoordinator);\\n    }\\n    fulfillRandomWords(requestId, randomWords);\\n  }\\n}\\n\"},\"@chainlink/contracts/src/v0.8/interfaces/VRFCoordinatorV2Interface.sol\":{\"content\":\"// SPDX-License-Identifier: MIT\\npragma solidity ^0.8.0;\\n\\ninterface VRFCoordinatorV2Interface {\\n  /**\\n   * @notice Get configuration relevant for making requests\\n   * @return minimumRequestConfirmations global min for request confirmations\\n   * @return maxGasLimit global max for request gas limit\\n   * @return s_provingKeyHashes list of registered key hashes\\n   */\\n  function getRequestConfig()\\n    external\\n    view\\n    returns (\\n      uint16,\\n      uint32,\\n      bytes32[] memory\\n    );\\n\\n  /**\\n   * @notice Request a set of random words.\\n   * @param keyHash - Corresponds to a particular oracle job which uses\\n   * that key for generating the VRF proof. Different keyHash's have different gas price\\n   * ceilings, so you can select a specific one to bound your maximum per request cost.\\n   * @param subId  - The ID of the VRF subscription. Must be funded\\n   * with the minimum subscription balance required for the selected keyHash.\\n   * @param minimumRequestConfirmations - How many blocks you'd like the\\n   * oracle to wait before responding to the request. See SECURITY CONSIDERATIONS\\n   * for why you may want to request more. The acceptable range is\\n   * [minimumRequestBlockConfirmations, 200].\\n   * @param callbackGasLimit - How much gas you'd like to receive in your\\n   * fulfillRandomWords callback. Note that gasleft() inside fulfillRandomWords\\n   * may be slightly less than this amount because of gas used calling the function\\n   * (argument decoding etc.), so you may need to request slightly more than you expect\\n   * to have inside fulfillRandomWords. The acceptable range is\\n   * [0, maxGasLimit]\\n   * @param numWords - The number of uint256 random values you'd like to receive\\n   * in your fulfillRandomWords callback. Note these numbers are expanded in a\\n   * secure way by the VRFCoordinator from a single random value supplied by the oracle.\\n   * @return requestId - A unique identifier of the request. Can be used to match\\n   * a request to a response in fulfillRandomWords.\\n   */\\n  function requestRandomWords(\\n    bytes32 keyHash,\\n    uint64 subId,\\n    uint16 minimumRequestConfirmations,\\n    uint32 callbackGasLimit,\\n    uint32 numWords\\n  ) external returns (uint256 requestId);\\n\\n  /**\\n   * @notice Create a VRF subscription.\\n   * @return subId - A unique subscription id.\\n   * @dev You can manage the consumer set dynamically with addConsumer/removeConsumer.\\n   * @dev Note to fund the subscription, use transferAndCall. For example\\n   * @dev  LINKTOKEN.transferAndCall(\\n   * @dev    address(COORDINATOR),\\n   * @dev    amount,\\n   * @dev    abi.encode(subId));\\n   */\\n  function createSubscription() external returns (uint64 subId);\\n\\n  /**\\n   * @notice Get a VRF subscription.\\n   * @param subId - ID of the subscription\\n   * @return balance - LINK balance of the subscription in juels.\\n   * @return reqCount - number of requests for this subscription, determines fee tier.\\n   * @return owner - owner of the subscription.\\n   * @return consumers - list of consumer address which are able to use this subscription.\\n   */\\n  function getSubscription(uint64 subId)\\n    external\\n    view\\n    returns (\\n      uint96 balance,\\n      uint64 reqCount,\\n      address owner,\\n      address[] memory consumers\\n    );\\n\\n  /**\\n   * @notice Request subscription owner transfer.\\n   * @param subId - ID of the subscription\\n   * @param newOwner - proposed new owner of the subscription\\n   */\\n  function requestSubscriptionOwnerTransfer(uint64 subId, address newOwner) external;\\n\\n  /**\\n   * @notice Request subscription owner transfer.\\n   * @param subId - ID of the subscription\\n   * @dev will revert if original owner of subId has\\n   * not requested that msg.sender become the new owner.\\n   */\\n  function acceptSubscriptionOwnerTransfer(uint64 subId) external;\\n\\n  /**\\n   * @notice Add a consumer to a VRF subscription.\\n   * @param subId - ID of the subscription\\n   * @param consumer - New consumer which can use the subscription\\n   */\\n  function addConsumer(uint64 subId, address consumer) external;\\n\\n  /**\\n   * @notice Remove a consumer from a VRF subscription.\\n   * @param subId - ID of the subscription\\n   * @param consumer - Consumer to remove from the subscription\\n   */\\n  function removeConsumer(uint64 subId, address consumer) external;\\n\\n  /**\\n   * @notice Cancel a subscription\\n   * @param subId - ID of the subscription\\n   * @param to - Where to send the remaining LINK to\\n   */\\n  function cancelSubscription(uint64 subId, address to) external;\\n\\n  /*\\n   * @notice Check to see if there exists a request commitment consumers\\n   * for all consumers and keyhashes for a given sub.\\n   * @param subId - ID of the subscription\\n   * @return true if there exists at least one unfulfilled request for the subscription, false\\n   * otherwise.\\n   */\\n  function pendingRequestExists(uint64 subId) external view returns (bool);\\n}\\n\"},\"@chainlink/contracts/src/v0.8/interfaces/AggregatorV3Interface.sol\":{\"content\":\"// SPDX-License-Identifier: MIT\\npragma solidity ^0.8.0;\\n\\ninterface AggregatorV3Interface {\\n  function decimals() external view returns (uint8);\\n\\n  function description() external view returns (string memory);\\n\\n  function version() external view returns (uint256);\\n\\n  function getRoundData(uint80 _roundId)\\n    external\\n    view\\n    returns (\\n      uint80 roundId,\\n      int256 answer,\\n      uint256 startedAt,\\n      uint256 updatedAt,\\n      uint80 answeredInRound\\n    );\\n\\n  function latestRoundData()\\n    external\\n    view\\n    returns (\\n      uint80 roundId,\\n      int256 answer,\\n      uint256 startedAt,\\n      uint256 updatedAt,\\n      uint80 answeredInRound\\n    );\\n}\\n\"},\"@openzeppelin/contracts/utils/Address.sol\":{\"content\":\"// SPDX-License-Identifier: MIT\\n// OpenZeppelin Contracts (last updated v4.9.0) (utils/Address.sol)\\n\\npragma solidity ^0.8.1;\\n\\n/**\\n * @dev Collection of functions related to the address type\\n */\\nlibrary Address {\\n    /**\\n     * @dev Returns true if `account` is a contract.\\n     *\\n     * [IMPORTANT]\\n     * ====\\n     * It is unsafe to assume that an address for which this function returns\\n     * false is an externally-owned account (EOA) and not a contract.\\n     *\\n     * Among others, `isContract` will return false for the following\\n     * types of addresses:\\n     *\\n     *  - an externally-owned account\\n     *  - a contract in construction\\n     *  - an address where a contract will be created\\n     *  - an address where a contract lived, but was destroyed\\n     *\\n     * Furthermore, `isContract` will also return true if the target contract within\\n     * the same transaction is already scheduled for destruction by `SELFDESTRUCT`,\\n     * which only has an effect at the end of a transaction.\\n     * ====\\n     *\\n     * [IMPORTANT]\\n     * ====\\n     * You shouldn't rely on `isContract` to protect against flash loan attacks!\\n     *\\n     * Preventing calls from contracts is highly discouraged. It breaks composability, breaks support for smart wallets\\n     * like Gnosis Safe, and does not provide security since it can be circumvented by calling from a contract\\n     * constructor.\\n     * ====\\n     */\\n    function isContract(address account) internal view returns (bool) {\\n        // This method relies on extcodesize/address.code.length, which returns 0\\n        // for contracts in construction, since the code is only stored at the end\\n        // of the constructor execution.\\n\\n        return account.code.length > 0;\\n    }\\n\\n    /**\\n     * @dev Replacement for Solidity's `transfer`: sends `amount` wei to\\n     * `recipient`, forwarding all available gas and reverting on errors.\\n     *\\n     * https://eips.ethereum.org/EIPS/eip-1884[EIP1884] increases the gas cost\\n     * of certain opcodes, possibly making contracts go over the 2300 gas limit\\n     * imposed by `transfer`, making them unable to receive funds via\\n     * `transfer`. {sendValue} removes this limitation.\\n     *\\n     * https://consensys.net/diligence/blog/2019/09/stop-using-soliditys-transfer-now/[Learn more].\\n     *\\n     * IMPORTANT: because control is transferred to `recipient`, care must be\\n     * taken to not create reentrancy vulnerabilities. Consider using\\n     * {ReentrancyGuard} or the\\n     * https://solidity.readthedocs.io/en/v0.8.0/security-considerations.html#use-the-checks-effects-interactions-pattern[checks-effects-interactions pattern].\\n     */\\n    function sendValue(address payable recipient, uint256 amount) internal {\\n        require(address(this).balance >= amount, \\\"Address: insufficient balance\\\");\\n\\n        (bool success, ) = recipient.call{value: amount}(\\\"\\\");\\n        require(success, \\\"Address: unable to send value, recipient may have reverted\\\");\\n    }\\n\\n    /**\\n     * @dev Performs a Solidity function call using a low level `call`. A\\n     * plain `call` is an unsafe replacement for a function call: use this\\n     * function instead.\\n     *\\n     * If `target` reverts with a revert reason, it is bubbled up by this\\n     * function (like regular Solidity function calls).\\n     *\\n     * Returns the raw returned data. To convert to the expected return value,\\n     * use https://solidity.readthedocs.io/en/latest/units-and-global-variables.html?highlight=abi.decode#abi-encoding-and-decoding-functions[`abi.decode`].\\n     *\\n     * Requirements:\\n     *\\n     * - `target` must be a contract.\\n     * - calling `target` with `data` must not revert.\\n     *\\n     * _Available since v3.1._\\n     */\\n    function functionCall(address target, bytes memory data) internal returns (bytes memory) {\\n        return functionCallWithValue(target, data, 0, \\\"Address: low-level call failed\\\");\\n    }\\n\\n    /**\\n     * @dev Same as {xref-Address-functionCall-address-bytes-}[`functionCall`], but with\\n     * `errorMessage` as a fallback revert reason when `target` reverts.\\n     *\\n     * _Available since v3.1._\\n     */\\n    function functionCall(\\n        address target,\\n        bytes memory data,\\n        string memory errorMessage\\n    ) internal returns (bytes memory) {\\n        return functionCallWithValue(target, data, 0, errorMessage);\\n    }\\n\\n    /**\\n     * @dev Same as {xref-Address-functionCall-address-bytes-}[`functionCall`],\\n     * but also transferring `value` wei to `target`.\\n     *\\n     * Requirements:\\n     *\\n     * - the calling contract must have an ETH balance of at least `value`.\\n     * - the called Solidity function must be `payable`.\\n     *\\n     * _Available since v3.1._\\n     */\\n    function functionCallWithValue(address target, bytes memory data, uint256 value) internal returns (bytes memory) {\\n        return functionCallWithValue(target, data, value, \\\"Address: low-level call with value failed\\\");\\n    }\\n\\n    /**\\n     * @dev Same as {xref-Address-functionCallWithValue-address-bytes-uint256-}[`functionCallWithValue`], but\\n     * with `errorMessage` as a fallback revert reason when `target` reverts.\\n     *\\n     * _Available since v3.1._\\n     */\\n    function functionCallWithValue(\\n        address target,\\n        bytes memory data,\\n        uint256 value,\\n        string memory errorMessage\\n    ) internal returns (bytes memory) {\\n        require(address(this).balance >= value, \\\"Address: insufficient balance for call\\\");\\n        (bool success, bytes memory returndata) = target.call{value: value}(data);\\n        return verifyCallResultFromTarget(target, success, returndata, errorMessage);\\n    }\\n\\n    /**\\n     * @dev Same as {xref-Address-functionCall-address-bytes-}[`functionCall`],\\n     * but performing a static call.\\n     *\\n     * _Available since v3.3._\\n     */\\n    function functionStaticCall(address target, bytes memory data) internal view returns (bytes memory) {\\n        return functionStaticCall(target, data, \\\"Address: low-level static call failed\\\");\\n    }\\n\\n    /**\\n     * @dev Same as {xref-Address-functionCall-address-bytes-string-}[`functionCall`],\\n     * but performing a static call.\\n     *\\n     * _Available since v3.3._\\n     */\\n    function functionStaticCall(\\n        address target,\\n        bytes memory data,\\n        string memory errorMessage\\n    ) internal view returns (bytes memory) {\\n        (bool success, bytes memory returndata) = target.staticcall(data);\\n        return verifyCallResultFromTarget(target, success, returndata, errorMessage);\\n    }\\n\\n    /**\\n     * @dev Same as {xref-Address-functionCall-address-bytes-}[`functionCall`],\\n     * but performing a delegate call.\\n     *\\n     * _Available since v3.4._\\n     */\\n    function functionDelegateCall(address target, bytes memory data) internal returns (bytes memory) {\\n        return functionDelegateCall(target, data, \\\"Address: low-level delegate call failed\\\");\\n    }\\n\\n    /**\\n     * @dev Same as {xref-Address-functionCall-address-bytes-string-}[`functionCall`],\\n     * but performing a delegate call.\\n     *\\n     * _Available since v3.4._\\n     */\\n    function functionDelegateCall(\\n        address target,\\n        bytes memory data,\\n        string memory errorMessage\\n    ) internal returns (bytes memory) {\\n        (bool success, bytes memory returndata) = target.delegatecall(data);\\n        return verifyCallResultFromTarget(target, success, returndata, errorMessage);\\n    }\\n\\n    /**\\n     * @dev Tool to verify that a low level call to smart-contract was successful, and revert (either by bubbling\\n     * the revert reason or using the provided one) in case of unsuccessful call or if target was not a contract.\\n     *\\n     * _Available since v4.8._\\n     */\\n    function verifyCallResultFromTarget(\\n        address target,\\n        bool success,\\n        bytes memory returndata,\\n        string memory errorMessage\\n    ) internal view returns (bytes memory) {\\n        if (success) {\\n            if (returndata.length == 0) {\\n                // only check isContract if the call was successful and the return data is empty\\n                // otherwise we already know that it was a contract\\n                require(isContract(target), \\\"Address: call to non-contract\\\");\\n            }\\n            return returndata;\\n        } else {\\n            _revert(returndata, errorMessage);\\n        }\\n    }\\n\\n    /**\\n     * @dev Tool to verify that a low level call was successful, and revert if it wasn't, either by bubbling the\\n     * revert reason or using the provided one.\\n     *\\n     * _Available since v4.3._\\n     */\\n    function verifyCallResult(\\n        bool success,\\n        bytes memory returndata,\\n        string memory errorMessage\\n    ) internal pure returns (bytes memory) {\\n        if (success) {\\n            return returndata;\\n        } else {\\n            _revert(returndata, errorMessage);\\n        }\\n    }\\n\\n    function _revert(bytes memory returndata, string memory errorMessage) private pure {\\n        // Look for revert reason and bubble it up if present\\n        if (returndata.length > 0) {\\n            // The easiest way to bubble the revert reason is using memory via assembly\\n            /// @solidity memory-safe-assembly\\n            assembly {\\n                let returndata_size := mload(returndata)\\n                revert(add(32, returndata), returndata_size)\\n            }\\n        } else {\\n            revert(errorMessage);\\n        }\\n    }\\n}\\n\"},\"@openzeppelin/contracts/token/ERC721/IERC721Receiver.sol\":{\"content\":\"// SPDX-License-Identifier: MIT\\n// OpenZeppelin Contracts (last updated v4.6.0) (token/ERC721/IERC721Receiver.sol)\\n\\npragma solidity ^0.8.0;\\n\\n/**\\n * @title ERC721 token receiver interface\\n * @dev Interface for any contract that wants to support safeTransfers\\n * from ERC721 asset contracts.\\n */\\ninterface IERC721Receiver {\\n    /**\\n     * @dev Whenever an {IERC721} `tokenId` token is transferred to this contract via {IERC721-safeTransferFrom}\\n     * by `operator` from `from`, this function is called.\\n     *\\n     * It must return its Solidity selector to confirm the token transfer.\\n     * If any other value is returned or the interface is not implemented by the recipient, the transfer will be reverted.\\n     *\\n     * The selector can be obtained in Solidity with `IERC721Receiver.onERC721Received.selector`.\\n     */\\n    function onERC721Received(\\n        address operator,\\n        address from,\\n        uint256 tokenId,\\n        bytes calldata data\\n    ) external returns (bytes4);\\n}\\n\"},\"@openzeppelin/contracts/token/ERC721/IERC721.sol\":{\"content\":\"// SPDX-License-Identifier: MIT\\n// OpenZeppelin Contracts (last updated v4.9.0) (token/ERC721/IERC721.sol)\\n\\npragma solidity ^0.8.0;\\n\\nimport \\\"../../utils/introspection/IERC165.sol\\\";\\n\\n/**\\n * @dev Required interface of an ERC721 compliant contract.\\n */\\ninterface IERC721 is IERC165 {\\n    /**\\n     * @dev Emitted when `tokenId` token is transferred from `from` to `to`.\\n     */\\n    event Transfer(address indexed from, address indexed to, uint256 indexed tokenId);\\n\\n    /**\\n     * @dev Emitted when `owner` enables `approved` to manage the `tokenId` token.\\n     */\\n    event Approval(address indexed owner, address indexed approved, uint256 indexed tokenId);\\n\\n    /**\\n     * @dev Emitted when `owner` enables or disables (`approved`) `operator` to manage all of its assets.\\n     */\\n    event ApprovalForAll(address indexed owner, address indexed operator, bool approved);\\n\\n    /**\\n     * @dev Returns the number of tokens in ``owner``'s account.\\n     */\\n    function balanceOf(address owner) external view returns (uint256 balance);\\n\\n    /**\\n     * @dev Returns the owner of the `tokenId` token.\\n     *\\n     * Requirements:\\n     *\\n     * - `tokenId` must exist.\\n     */\\n    function ownerOf(uint256 tokenId) external view returns (address owner);\\n\\n    /**\\n     * @dev Safely transfers `tokenId` token from `from` to `to`.\\n     *\\n     * Requirements:\\n     *\\n     * - `from` cannot be the zero address.\\n     * - `to` cannot be the zero address.\\n     * - `tokenId` token must exist and be owned by `from`.\\n     * - If the caller is not `from`, it must be approved to move this token by either {approve} or {setApprovalForAll}.\\n     * - If `to` refers to a smart contract, it must implement {IERC721Receiver-onERC721Received}, which is called upon a safe transfer.\\n     *\\n     * Emits a {Transfer} event.\\n     */\\n    function safeTransferFrom(address from, address to, uint256 tokenId, bytes calldata data) external;\\n\\n    /**\\n     * @dev Safely transfers `tokenId` token from `from` to `to`, checking first that contract recipients\\n     * are aware of the ERC721 protocol to prevent tokens from being forever locked.\\n     *\\n     * Requirements:\\n     *\\n     * - `from` cannot be the zero address.\\n     * - `to` cannot be the zero address.\\n     * - `tokenId` token must exist and be owned by `from`.\\n     * - If the caller is not `from`, it must have been allowed to move this token by either {approve} or {setApprovalForAll}.\\n     * - If `to` refers to a smart contract, it must implement {IERC721Receiver-onERC721Received}, which is called upon a safe transfer.\\n     *\\n     * Emits a {Transfer} event.\\n     */\\n    function safeTransferFrom(address from, address to, uint256 tokenId) external;\\n\\n    /**\\n     * @dev Transfers `tokenId` token from `from` to `to`.\\n     *\\n     * WARNING: Note that the caller is responsible to confirm that the recipient is capable of receiving ERC721\\n     * or else they may be permanently lost. Usage of {safeTransferFrom} prevents loss, though the caller must\\n     * understand this adds an external call which potentially creates a reentrancy vulnerability.\\n     *\\n     * Requirements:\\n     *\\n     * - `from` cannot be the zero address.\\n     * - `to` cannot be the zero address.\\n     * - `tokenId` token must be owned by `from`.\\n     * - If the caller is not `from`, it must be approved to move this token by either {approve} or {setApprovalForAll}.\\n     *\\n     * Emits a {Transfer} event.\\n     */\\n    function transferFrom(address from, address to, uint256 tokenId) external;\\n\\n    /**\\n     * @dev Gives permission to `to` to transfer `tokenId` token to another account.\\n     * The approval is cleared when the token is transferred.\\n     *\\n     * Only a single account can be approved at a time, so approving the zero address clears previous approvals.\\n     *\\n     * Requirements:\\n     *\\n     * - The caller must own the token or be an approved operator.\\n     * - `tokenId` must exist.\\n     *\\n     * Emits an {Approval} event.\\n     */\\n    function approve(address to, uint256 tokenId) external;\\n\\n    /**\\n     * @dev Approve or remove `operator` as an operator for the caller.\\n     * Operators can call {transferFrom} or {safeTransferFrom} for any token owned by the caller.\\n     *\\n     * Requirements:\\n     *\\n     * - The `operator` cannot be the caller.\\n     *\\n     * Emits an {ApprovalForAll} event.\\n     */\\n    function setApprovalForAll(address operator, bool approved) external;\\n\\n    /**\\n     * @dev Returns the account approved for `tokenId` token.\\n     *\\n     * Requirements:\\n     *\\n     * - `tokenId` must exist.\\n     */\\n    function getApproved(uint256 tokenId) external view returns (address operator);\\n\\n    /**\\n     * @dev Returns if the `operator` is allowed to manage all of the assets of `owner`.\\n     *\\n     * See {setApprovalForAll}\\n     */\\n    function isApprovedForAll(address owner, address operator) external view returns (bool);\\n}\\n\"},\"@openzeppelin/contracts/token/ERC20/ERC20.sol\":{\"content\":\"// SPDX-License-Identifier: MIT\\n// OpenZeppelin Contracts (last updated v4.9.0) (token/ERC20/ERC20.sol)\\n\\npragma solidity ^0.8.0;\\n\\nimport \\\"./IERC20.sol\\\";\\nimport \\\"./extensions/IERC20Metadata.sol\\\";\\nimport \\\"../../utils/Context.sol\\\";\\n\\n/**\\n * @dev Implementation of the {IERC20} interface.\\n *\\n * This implementation is agnostic to the way tokens are created. This means\\n * that a supply mechanism has to be added in a derived contract using {_mint}.\\n * For a generic mechanism see {ERC20PresetMinterPauser}.\\n *\\n * TIP: For a detailed writeup see our guide\\n * https://forum.openzeppelin.com/t/how-to-implement-erc20-supply-mechanisms/226[How\\n * to implement supply mechanisms].\\n *\\n * The default value of {decimals} is 18. To change this, you should override\\n * this function so it returns a different value.\\n *\\n * We have followed general OpenZeppelin Contracts guidelines: functions revert\\n * instead returning `false` on failure. This behavior is nonetheless\\n * conventional and does not conflict with the expectations of ERC20\\n * applications.\\n *\\n * Additionally, an {Approval} event is emitted on calls to {transferFrom}.\\n * This allows applications to reconstruct the allowance for all accounts just\\n * by listening to said events. Other implementations of the EIP may not emit\\n * these events, as it isn't required by the specification.\\n *\\n * Finally, the non-standard {decreaseAllowance} and {increaseAllowance}\\n * functions have been added to mitigate the well-known issues around setting\\n * allowances. See {IERC20-approve}.\\n */\\ncontract ERC20 is Context, IERC20, IERC20Metadata {\\n    mapping(address => uint256) private _balances;\\n\\n    mapping(address => mapping(address => uint256)) private _allowances;\\n\\n    uint256 private _totalSupply;\\n\\n    string private _name;\\n    string private _symbol;\\n\\n    /**\\n     * @dev Sets the values for {name} and {symbol}.\\n     *\\n     * All two of these values are immutable: they can only be set once during\\n     * construction.\\n     */\\n    constructor(string memory name_, string memory symbol_) {\\n        _name = name_;\\n        _symbol = symbol_;\\n    }\\n\\n    /**\\n     * @dev Returns the name of the token.\\n     */\\n    function name() public view virtual override returns (string memory) {\\n        return _name;\\n    }\\n\\n    /**\\n     * @dev Returns the symbol of the token, usually a shorter version of the\\n     * name.\\n     */\\n    function symbol() public view virtual override returns (string memory) {\\n        return _symbol;\\n    }\\n\\n    /**\\n     * @dev Returns the number of decimals used to get its user representation.\\n     * For example, if `decimals` equals `2`, a balance of `505` tokens should\\n     * be displayed to a user as `5.05` (`505 / 10 ** 2`).\\n     *\\n     * Tokens usually opt for a value of 18, imitating the relationship between\\n     * Ether and Wei. This is the default value returned by this function, unless\\n     * it's overridden.\\n     *\\n     * NOTE: This information is only used for _display_ purposes: it in\\n     * no way affects any of the arithmetic of the contract, including\\n     * {IERC20-balanceOf} and {IERC20-transfer}.\\n     */\\n    function decimals() public view virtual override returns (uint8) {\\n        return 18;\\n    }\\n\\n    /**\\n     * @dev See {IERC20-totalSupply}.\\n     */\\n    function totalSupply() public view virtual override returns (uint256) {\\n        return _totalSupply;\\n    }\\n\\n    /**\\n     * @dev See {IERC20-balanceOf}.\\n     */\\n    function balanceOf(address account) public view virtual override returns (uint256) {\\n        return _balances[account];\\n    }\\n\\n    /**\\n     * @dev See {IERC20-transfer}.\\n     *\\n     * Requirements:\\n     *\\n     * - `to` cannot be the zero address.\\n     * - the caller must have a balance of at least `amount`.\\n     */\\n    function transfer(address to, uint256 amount) public virtual override returns (bool) {\\n        address owner = _msgSender();\\n        _transfer(owner, to, amount);\\n        return true;\\n    }\\n\\n    /**\\n     * @dev See {IERC20-allowance}.\\n     */\\n    function allowance(address owner, address spender) public view virtual override returns (uint256) {\\n        return _allowances[owner][spender];\\n    }\\n\\n    /**\\n     * @dev See {IERC20-approve}.\\n     *\\n     * NOTE: If `amount` is the maximum `uint256`, the allowance is not updated on\\n     * `transferFrom`. This is semantically equivalent to an infinite approval.\\n     *\\n     * Requirements:\\n     *\\n     * - `spender` cannot be the zero address.\\n     */\\n    function approve(address spender, uint256 amount) public virtual override returns (bool) {\\n        address owner = _msgSender();\\n        _approve(owner, spender, amount);\\n        return true;\\n    }\\n\\n    /**\\n     * @dev See {IERC20-transferFrom}.\\n     *\\n     * Emits an {Approval} event indicating the updated allowance. This is not\\n     * required by the EIP. See the note at the beginning of {ERC20}.\\n     *\\n     * NOTE: Does not update the allowance if the current allowance\\n     * is the maximum `uint256`.\\n     *\\n     * Requirements:\\n     *\\n     * - `from` and `to` cannot be the zero address.\\n     * - `from` must have a balance of at least `amount`.\\n     * - the caller must have allowance for ``from``'s tokens of at least\\n     * `amount`.\\n     */\\n    function transferFrom(address from, address to, uint256 amount) public virtual override returns (bool) {\\n        address spender = _msgSender();\\n        _spendAllowance(from, spender, amount);\\n        _transfer(from, to, amount);\\n        return true;\\n    }\\n\\n    /**\\n     * @dev Atomically increases the allowance granted to `spender` by the caller.\\n     *\\n     * This is an alternative to {approve} that can be used as a mitigation for\\n     * problems described in {IERC20-approve}.\\n     *\\n     * Emits an {Approval} event indicating the updated allowance.\\n     *\\n     * Requirements:\\n     *\\n     * - `spender` cannot be the zero address.\\n     */\\n    function increaseAllowance(address spender, uint256 addedValue) public virtual returns (bool) {\\n        address owner = _msgSender();\\n        _approve(owner, spender, allowance(owner, spender) + addedValue);\\n        return true;\\n    }\\n\\n    /**\\n     * @dev Atomically decreases the allowance granted to `spender` by the caller.\\n     *\\n     * This is an alternative to {approve} that can be used as a mitigation for\\n     * problems described in {IERC20-approve}.\\n     *\\n     * Emits an {Approval} event indicating the updated allowance.\\n     *\\n     * Requirements:\\n     *\\n     * - `spender` cannot be the zero address.\\n     * - `spender` must have allowance for the caller of at least\\n     * `subtractedValue`.\\n     */\\n    function decreaseAllowance(address spender, uint256 subtractedValue) public virtual returns (bool) {\\n        address owner = _msgSender();\\n        uint256 currentAllowance = allowance(owner, spender);\\n        require(currentAllowance >= subtractedValue, \\\"ERC20: decreased allowance below zero\\\");\\n        unchecked {\\n            _approve(owner, spender, currentAllowance - subtractedValue);\\n        }\\n\\n        return true;\\n    }\\n\\n    /**\\n     * @dev Moves `amount` of tokens from `from` to `to`.\\n     *\\n     * This internal function is equivalent to {transfer}, and can be used to\\n     * e.g. implement automatic token fees, slashing mechanisms, etc.\\n     *\\n     * Emits a {Transfer} event.\\n     *\\n     * Requirements:\\n     *\\n     * - `from` cannot be the zero address.\\n     * - `to` cannot be the zero address.\\n     * - `from` must have a balance of at least `amount`.\\n     */\\n    function _transfer(address from, address to, uint256 amount) internal virtual {\\n        require(from != address(0), \\\"ERC20: transfer from the zero address\\\");\\n        require(to != address(0), \\\"ERC20: transfer to the zero address\\\");\\n\\n        _beforeTokenTransfer(from, to, amount);\\n\\n        uint256 fromBalance = _balances[from];\\n        require(fromBalance >= amount, \\\"ERC20: transfer amount exceeds balance\\\");\\n        unchecked {\\n            _balances[from] = fromBalance - amount;\\n            // Overflow not possible: the sum of all balances is capped by totalSupply, and the sum is preserved by\\n            // decrementing then incrementing.\\n            _balances[to] += amount;\\n        }\\n\\n        emit Transfer(from, to, amount);\\n\\n        _afterTokenTransfer(from, to, amount);\\n    }\\n\\n    /** @dev Creates `amount` tokens and assigns them to `account`, increasing\\n     * the total supply.\\n     *\\n     * Emits a {Transfer} event with `from` set to the zero address.\\n     *\\n     * Requirements:\\n     *\\n     * - `account` cannot be the zero address.\\n     */\\n    function _mint(address account, uint256 amount) internal virtual {\\n        require(account != address(0), \\\"ERC20: mint to the zero address\\\");\\n\\n        _beforeTokenTransfer(address(0), account, amount);\\n\\n        _totalSupply += amount;\\n        unchecked {\\n            // Overflow not possible: balance + amount is at most totalSupply + amount, which is checked above.\\n            _balances[account] += amount;\\n        }\\n        emit Transfer(address(0), account, amount);\\n\\n        _afterTokenTransfer(address(0), account, amount);\\n    }\\n\\n    /**\\n     * @dev Destroys `amount` tokens from `account`, reducing the\\n     * total supply.\\n     *\\n     * Emits a {Transfer} event with `to` set to the zero address.\\n     *\\n     * Requirements:\\n     *\\n     * - `account` cannot be the zero address.\\n     * - `account` must have at least `amount` tokens.\\n     */\\n    function _burn(address account, uint256 amount) internal virtual {\\n        require(account != address(0), \\\"ERC20: burn from the zero address\\\");\\n\\n        _beforeTokenTransfer(account, address(0), amount);\\n\\n        uint256 accountBalance = _balances[account];\\n        require(accountBalance >= amount, \\\"ERC20: burn amount exceeds balance\\\");\\n        unchecked {\\n            _balances[account] = accountBalance - amount;\\n            // Overflow not possible: amount <= accountBalance <= totalSupply.\\n            _totalSupply -= amount;\\n        }\\n\\n        emit Transfer(account, address(0), amount);\\n\\n        _afterTokenTransfer(account, address(0), amount);\\n    }\\n\\n    /**\\n     * @dev Sets `amount` as the allowance of `spender` over the `owner` s tokens.\\n     *\\n     * This internal function is equivalent to `approve`, and can be used to\\n     * e.g. set automatic allowances for certain subsystems, etc.\\n     *\\n     * Emits an {Approval} event.\\n     *\\n     * Requirements:\\n     *\\n     * - `owner` cannot be the zero address.\\n     * - `spender` cannot be the zero address.\\n     */\\n    function _approve(address owner, address spender, uint256 amount) internal virtual {\\n        require(owner != address(0), \\\"ERC20: approve from the zero address\\\");\\n        require(spender != address(0), \\\"ERC20: approve to the zero address\\\");\\n\\n        _allowances[owner][spender] = amount;\\n        emit Approval(owner, spender, amount);\\n    }\\n\\n    /**\\n     * @dev Updates `owner` s allowance for `spender` based on spent `amount`.\\n     *\\n     * Does not update the allowance amount in case of infinite allowance.\\n     * Revert if not enough allowance is available.\\n     *\\n     * Might emit an {Approval} event.\\n     */\\n    function _spendAllowance(address owner, address spender, uint256 amount) internal virtual {\\n        uint256 currentAllowance = allowance(owner, spender);\\n        if (currentAllowance != type(uint256).max) {\\n            require(currentAllowance >= amount, \\\"ERC20: insufficient allowance\\\");\\n            unchecked {\\n                _approve(owner, spender, currentAllowance - amount);\\n            }\\n        }\\n    }\\n\\n    /**\\n     * @dev Hook that is called before any transfer of tokens. This includes\\n     * minting and burning.\\n     *\\n     * Calling conditions:\\n     *\\n     * - when `from` and `to` are both non-zero, `amount` of ``from``'s tokens\\n     * will be transferred to `to`.\\n     * - when `from` is zero, `amount` tokens will be minted for `to`.\\n     * - when `to` is zero, `amount` of ``from``'s tokens will be burned.\\n     * - `from` and `to` are never both zero.\\n     *\\n     * To learn more about hooks, head to xref:ROOT:extending-contracts.adoc#using-hooks[Using Hooks].\\n     */\\n    function _beforeTokenTransfer(address from, address to, uint256 amount) internal virtual {}\\n\\n    /**\\n     * @dev Hook that is called after any transfer of tokens. This includes\\n     * minting and burning.\\n     *\\n     * Calling conditions:\\n     *\\n     * - when `from` and `to` are both non-zero, `amount` of ``from``'s tokens\\n     * has been transferred to `to`.\\n     * - when `from` is zero, `amount` tokens have been minted for `to`.\\n     * - when `to` is zero, `amount` of ``from``'s tokens have been burned.\\n     * - `from` and `to` are never both zero.\\n     *\\n     * To learn more about hooks, head to xref:ROOT:extending-contracts.adoc#using-hooks[Using Hooks].\\n     */\\n    function _afterTokenTransfer(address from, address to, uint256 amount) internal virtual {}\\n}\\n\"},\"@openzeppelin/contracts/token/ERC721/ERC721.sol\":{\"content\":\"// SPDX-License-Identifier: MIT\\n// OpenZeppelin Contracts (last updated v4.9.0) (token/ERC721/ERC721.sol)\\n\\npragma solidity ^0.8.0;\\n\\nimport \\\"./IERC721.sol\\\";\\nimport \\\"./IERC721Receiver.sol\\\";\\nimport \\\"./extensions/IERC721Metadata.sol\\\";\\nimport \\\"../../utils/Address.sol\\\";\\nimport \\\"../../utils/Context.sol\\\";\\nimport \\\"../../utils/Strings.sol\\\";\\nimport \\\"../../utils/introspection/ERC165.sol\\\";\\n\\n/**\\n * @dev Implementation of https://eips.ethereum.org/EIPS/eip-721[ERC721] Non-Fungible Token Standard, including\\n * the Metadata extension, but not including the Enumerable extension, which is available separately as\\n * {ERC721Enumerable}.\\n */\\ncontract ERC721 is Context, ERC165, IERC721, IERC721Metadata {\\n    using Address for address;\\n    using Strings for uint256;\\n\\n    // Token name\\n    string private _name;\\n\\n    // Token symbol\\n    string private _symbol;\\n\\n    // Mapping from token ID to owner address\\n    mapping(uint256 => address) private _owners;\\n\\n    // Mapping owner address to token count\\n    mapping(address => uint256) private _balances;\\n\\n    // Mapping from token ID to approved address\\n    mapping(uint256 => address) private _tokenApprovals;\\n\\n    // Mapping from owner to operator approvals\\n    mapping(address => mapping(address => bool)) private _operatorApprovals;\\n\\n    /**\\n     * @dev Initializes the contract by setting a `name` and a `symbol` to the token collection.\\n     */\\n    constructor(string memory name_, string memory symbol_) {\\n        _name = name_;\\n        _symbol = symbol_;\\n    }\\n\\n    /**\\n     * @dev See {IERC165-supportsInterface}.\\n     */\\n    function supportsInterface(bytes4 interfaceId) public view virtual override(ERC165, IERC165) returns (bool) {\\n        return\\n            interfaceId == type(IERC721).interfaceId ||\\n            interfaceId == type(IERC721Metadata).interfaceId ||\\n            super.supportsInterface(interfaceId);\\n    }\\n\\n    /**\\n     * @dev See {IERC721-balanceOf}.\\n     */\\n    function balanceOf(address owner) public view virtual override returns (uint256) {\\n        require(owner != address(0), \\\"ERC721: address zero is not a valid owner\\\");\\n        return _balances[owner];\\n    }\\n\\n    /**\\n     * @dev See {IERC721-ownerOf}.\\n     */\\n    function ownerOf(uint256 tokenId) public view virtual override returns (address) {\\n        address owner = _ownerOf(tokenId);\\n        require(owner != address(0), \\\"ERC721: invalid token ID\\\");\\n        return owner;\\n    }\\n\\n    /**\\n     * @dev See {IERC721Metadata-name}.\\n     */\\n    function name() public view virtual override returns (string memory) {\\n        return _name;\\n    }\\n\\n    /**\\n     * @dev See {IERC721Metadata-symbol}.\\n     */\\n    function symbol() public view virtual override returns (string memory) {\\n        return _symbol;\\n    }\\n\\n    /**\\n     * @dev See {IERC721Metadata-tokenURI}.\\n     */\\n    function tokenURI(uint256 tokenId) public view virtual override returns (string memory) {\\n        _requireMinted(tokenId);\\n\\n        string memory baseURI = _baseURI();\\n        return bytes(baseURI).length > 0 ? string(abi.encodePacked(baseURI, tokenId.toString())) : \\\"\\\";\\n    }\\n\\n    /**\\n     * @dev Base URI for computing {tokenURI}. If set, the resulting URI for each\\n     * token will be the concatenation of the `baseURI` and the `tokenId`. Empty\\n     * by default, can be overridden in child contracts.\\n     */\\n    function _baseURI() internal view virtual returns (string memory) {\\n        return \\\"\\\";\\n    }\\n\\n    /**\\n     * @dev See {IERC721-approve}.\\n     */\\n    function approve(address to, uint256 tokenId) public virtual override {\\n        address owner = ERC721.ownerOf(tokenId);\\n        require(to != owner, \\\"ERC721: approval to current owner\\\");\\n\\n        require(\\n            _msgSender() == owner || isApprovedForAll(owner, _msgSender()),\\n            \\\"ERC721: approve caller is not token owner or approved for all\\\"\\n        );\\n\\n        _approve(to, tokenId);\\n    }\\n\\n    /**\\n     * @dev See {IERC721-getApproved}.\\n     */\\n    function getApproved(uint256 tokenId) public view virtual override returns (address) {\\n        _requireMinted(tokenId);\\n\\n        return _tokenApprovals[tokenId];\\n    }\\n\\n    /**\\n     * @dev See {IERC721-setApprovalForAll}.\\n     */\\n    function setApprovalForAll(address operator, bool approved) public virtual override {\\n        _setApprovalForAll(_msgSender(), operator, approved);\\n    }\\n\\n    /**\\n     * @dev See {IERC721-isApprovedForAll}.\\n     */\\n    function isApprovedForAll(address owner, address operator) public view virtual override returns (bool) {\\n        return _operatorApprovals[owner][operator];\\n    }\\n\\n    /**\\n     * @dev See {IERC721-transferFrom}.\\n     */\\n    function transferFrom(address from, address to, uint256 tokenId) public virtual override {\\n        //solhint-disable-next-line max-line-length\\n        require(_isApprovedOrOwner(_msgSender(), tokenId), \\\"ERC721: caller is not token owner or approved\\\");\\n\\n        _transfer(from, to, tokenId);\\n    }\\n\\n    /**\\n     * @dev See {IERC721-safeTransferFrom}.\\n     */\\n    function safeTransferFrom(address from, address to, uint256 tokenId) public virtual override {\\n        safeTransferFrom(from, to, tokenId, \\\"\\\");\\n    }\\n\\n    /**\\n     * @dev See {IERC721-safeTransferFrom}.\\n     */\\n    function safeTransferFrom(address from, address to, uint256 tokenId, bytes memory data) public virtual override {\\n        require(_isApprovedOrOwner(_msgSender(), tokenId), \\\"ERC721: caller is not token owner or approved\\\");\\n        _safeTransfer(from, to, tokenId, data);\\n    }\\n\\n    /**\\n     * @dev Safely transfers `tokenId` token from `from` to `to`, checking first that contract recipients\\n     * are aware of the ERC721 protocol to prevent tokens from being forever locked.\\n     *\\n     * `data` is additional data, it has no specified format and it is sent in call to `to`.\\n     *\\n     * This internal function is equivalent to {safeTransferFrom}, and can be used to e.g.\\n     * implement alternative mechanisms to perform token transfer, such as signature-based.\\n     *\\n     * Requirements:\\n     *\\n     * - `from` cannot be the zero address.\\n     * - `to` cannot be the zero address.\\n     * - `tokenId` token must exist and be owned by `from`.\\n     * - If `to` refers to a smart contract, it must implement {IERC721Receiver-onERC721Received}, which is called upon a safe transfer.\\n     *\\n     * Emits a {Transfer} event.\\n     */\\n    function _safeTransfer(address from, address to, uint256 tokenId, bytes memory data) internal virtual {\\n        _transfer(from, to, tokenId);\\n        require(_checkOnERC721Received(from, to, tokenId, data), \\\"ERC721: transfer to non ERC721Receiver implementer\\\");\\n    }\\n\\n    /**\\n     * @dev Returns the owner of the `tokenId`. Does NOT revert if token doesn't exist\\n     */\\n    function _ownerOf(uint256 tokenId) internal view virtual returns (address) {\\n        return _owners[tokenId];\\n    }\\n\\n    /**\\n     * @dev Returns whether `tokenId` exists.\\n     *\\n     * Tokens can be managed by their owner or approved accounts via {approve} or {setApprovalForAll}.\\n     *\\n     * Tokens start existing when they are minted (`_mint`),\\n     * and stop existing when they are burned (`_burn`).\\n     */\\n    function _exists(uint256 tokenId) internal view virtual returns (bool) {\\n        return _ownerOf(tokenId) != address(0);\\n    }\\n\\n    /**\\n     * @dev Returns whether `spender` is allowed to manage `tokenId`.\\n     *\\n     * Requirements:\\n     *\\n     * - `tokenId` must exist.\\n     */\\n    function _isApprovedOrOwner(address spender, uint256 tokenId) internal view virtual returns (bool) {\\n        address owner = ERC721.ownerOf(tokenId);\\n        return (spender == owner || isApprovedForAll(owner, spender) || getApproved(tokenId) == spender);\\n    }\\n\\n    /**\\n     * @dev Safely mints `tokenId` and transfers it to `to`.\\n     *\\n     * Requirements:\\n     *\\n     * - `tokenId` must not exist.\\n     * - If `to` refers to a smart contract, it must implement {IERC721Receiver-onERC721Received}, which is called upon a safe transfer.\\n     *\\n     * Emits a {Transfer} event.\\n     */\\n    function _safeMint(address to, uint256 tokenId) internal virtual {\\n        _safeMint(to, tokenId, \\\"\\\");\\n    }\\n\\n    /**\\n     * @dev Same as {xref-ERC721-_safeMint-address-uint256-}[`_safeMint`], with an additional `data` parameter which is\\n     * forwarded in {IERC721Receiver-onERC721Received} to contract recipients.\\n     */\\n    function _safeMint(address to, uint256 tokenId, bytes memory data) internal virtual {\\n        _mint(to, tokenId);\\n        require(\\n            _checkOnERC721Received(address(0), to, tokenId, data),\\n            \\\"ERC721: transfer to non ERC721Receiver implementer\\\"\\n        );\\n    }\\n\\n    /**\\n     * @dev Mints `tokenId` and transfers it to `to`.\\n     *\\n     * WARNING: Usage of this method is discouraged, use {_safeMint} whenever possible\\n     *\\n     * Requirements:\\n     *\\n     * - `tokenId` must not exist.\\n     * - `to` cannot be the zero address.\\n     *\\n     * Emits a {Transfer} event.\\n     */\\n    function _mint(address to, uint256 tokenId) internal virtual {\\n        require(to != address(0), \\\"ERC721: mint to the zero address\\\");\\n        require(!_exists(tokenId), \\\"ERC721: token already minted\\\");\\n\\n        _beforeTokenTransfer(address(0), to, tokenId, 1);\\n\\n        // Check that tokenId was not minted by `_beforeTokenTransfer` hook\\n        require(!_exists(tokenId), \\\"ERC721: token already minted\\\");\\n\\n        unchecked {\\n            // Will not overflow unless all 2**256 token ids are minted to the same owner.\\n            // Given that tokens are minted one by one, it is impossible in practice that\\n            // this ever happens. Might change if we allow batch minting.\\n            // The ERC fails to describe this case.\\n            _balances[to] += 1;\\n        }\\n\\n        _owners[tokenId] = to;\\n\\n        emit Transfer(address(0), to, tokenId);\\n\\n        _afterTokenTransfer(address(0), to, tokenId, 1);\\n    }\\n\\n    /**\\n     * @dev Destroys `tokenId`.\\n     * The approval is cleared when the token is burned.\\n     * This is an internal function that does not check if the sender is authorized to operate on the token.\\n     *\\n     * Requirements:\\n     *\\n     * - `tokenId` must exist.\\n     *\\n     * Emits a {Transfer} event.\\n     */\\n    function _burn(uint256 tokenId) internal virtual {\\n        address owner = ERC721.ownerOf(tokenId);\\n\\n        _beforeTokenTransfer(owner, address(0), tokenId, 1);\\n\\n        // Update ownership in case tokenId was transferred by `_beforeTokenTransfer` hook\\n        owner = ERC721.ownerOf(tokenId);\\n\\n        // Clear approvals\\n        delete _tokenApprovals[tokenId];\\n\\n        unchecked {\\n            // Cannot overflow, as that would require more tokens to be burned/transferred\\n            // out than the owner initially received through minting and transferring in.\\n            _balances[owner] -= 1;\\n        }\\n        delete _owners[tokenId];\\n\\n        emit Transfer(owner, address(0), tokenId);\\n\\n        _afterTokenTransfer(owner, address(0), tokenId, 1);\\n    }\\n\\n    /**\\n     * @dev Transfers `tokenId` from `from` to `to`.\\n     *  As opposed to {transferFrom}, this imposes no restrictions on msg.sender.\\n     *\\n     * Requirements:\\n     *\\n     * - `to` cannot be the zero address.\\n     * - `tokenId` token must be owned by `from`.\\n     *\\n     * Emits a {Transfer} event.\\n     */\\n    function _transfer(address from, address to, uint256 tokenId) internal virtual {\\n        require(ERC721.ownerOf(tokenId) == from, \\\"ERC721: transfer from incorrect owner\\\");\\n        require(to != address(0), \\\"ERC721: transfer to the zero address\\\");\\n\\n        _beforeTokenTransfer(from, to, tokenId, 1);\\n\\n        // Check that tokenId was not transferred by `_beforeTokenTransfer` hook\\n        require(ERC721.ownerOf(tokenId) == from, \\\"ERC721: transfer from incorrect owner\\\");\\n\\n        // Clear approvals from the previous owner\\n        delete _tokenApprovals[tokenId];\\n\\n        unchecked {\\n            // `_balances[from]` cannot overflow for the same reason as described in `_burn`:\\n            // `from`'s balance is the number of token held, which is at least one before the current\\n            // transfer.\\n            // `_balances[to]` could overflow in the conditions described in `_mint`. That would require\\n            // all 2**256 token ids to be minted, which in practice is impossible.\\n            _balances[from] -= 1;\\n            _balances[to] += 1;\\n        }\\n        _owners[tokenId] = to;\\n\\n        emit Transfer(from, to, tokenId);\\n\\n        _afterTokenTransfer(from, to, tokenId, 1);\\n    }\\n\\n    /**\\n     * @dev Approve `to` to operate on `tokenId`\\n     *\\n     * Emits an {Approval} event.\\n     */\\n    function _approve(address to, uint256 tokenId) internal virtual {\\n        _tokenApprovals[tokenId] = to;\\n        emit Approval(ERC721.ownerOf(tokenId), to, tokenId);\\n    }\\n\\n    /**\\n     * @dev Approve `operator` to operate on all of `owner` tokens\\n     *\\n     * Emits an {ApprovalForAll} event.\\n     */\\n    function _setApprovalForAll(address owner, address operator, bool approved) internal virtual {\\n        require(owner != operator, \\\"ERC721: approve to caller\\\");\\n        _operatorApprovals[owner][operator] = approved;\\n        emit ApprovalForAll(owner, operator, approved);\\n    }\\n\\n    /**\\n     * @dev Reverts if the `tokenId` has not been minted yet.\\n     */\\n    function _requireMinted(uint256 tokenId) internal view virtual {\\n        require(_exists(tokenId), \\\"ERC721: invalid token ID\\\");\\n    }\\n\\n    /**\\n     * @dev Internal function to invoke {IERC721Receiver-onERC721Received} on a target address.\\n     * The call is not executed if the target address is not a contract.\\n     *\\n     * @param from address representing the previous owner of the given token ID\\n     * @param to target address that will receive the tokens\\n     * @param tokenId uint256 ID of the token to be transferred\\n     * @param data bytes optional data to send along with the call\\n     * @return bool whether the call correctly returned the expected magic value\\n     */\\n    function _checkOnERC721Received(\\n        address from,\\n        address to,\\n        uint256 tokenId,\\n        bytes memory data\\n    ) private returns (bool) {\\n        if (to.isContract()) {\\n            try IERC721Receiver(to).onERC721Received(_msgSender(), from, tokenId, data) returns (bytes4 retval) {\\n                return retval == IERC721Receiver.onERC721Received.selector;\\n            } catch (bytes memory reason) {\\n                if (reason.length == 0) {\\n                    revert(\\\"ERC721: transfer to non ERC721Receiver implementer\\\");\\n                } else {\\n                    /// @solidity memory-safe-assembly\\n                    assembly {\\n                        revert(add(32, reason), mload(reason))\\n                    }\\n                }\\n            }\\n        } else {\\n            return true;\\n        }\\n    }\\n\\n    /**\\n     * @dev Hook that is called before any token transfer. This includes minting and burning. If {ERC721Consecutive} is\\n     * used, the hook may be called as part of a consecutive (batch) mint, as indicated by `batchSize` greater than 1.\\n     *\\n     * Calling conditions:\\n     *\\n     * - When `from` and `to` are both non-zero, ``from``'s tokens will be transferred to `to`.\\n     * - When `from` is zero, the tokens will be minted for `to`.\\n     * - When `to` is zero, ``from``'s tokens will be burned.\\n     * - `from` and `to` are never both zero.\\n     * - `batchSize` is non-zero.\\n     *\\n     * To learn more about hooks, head to xref:ROOT:extending-contracts.adoc#using-hooks[Using Hooks].\\n     */\\n    function _beforeTokenTransfer(address from, address to, uint256 firstTokenId, uint256 batchSize) internal virtual {}\\n\\n    /**\\n     * @dev Hook that is called after any token transfer. This includes minting and burning. If {ERC721Consecutive} is\\n     * used, the hook may be called as part of a consecutive (batch) mint, as indicated by `batchSize` greater than 1.\\n     *\\n     * Calling conditions:\\n     *\\n     * - When `from` and `to` are both non-zero, ``from``'s tokens were transferred to `to`.\\n     * - When `from` is zero, the tokens were minted for `to`.\\n     * - When `to` is zero, ``from``'s tokens were burned.\\n     * - `from` and `to` are never both zero.\\n     * - `batchSize` is non-zero.\\n     *\\n     * To learn more about hooks, head to xref:ROOT:extending-contracts.adoc#using-hooks[Using Hooks].\\n     */\\n    function _afterTokenTransfer(address from, address to, uint256 firstTokenId, uint256 batchSize) internal virtual {}\\n\\n    /**\\n     * @dev Unsafe write access to the balances, used by extensions that \\\"mint\\\" tokens using an {ownerOf} override.\\n     *\\n     * WARNING: Anyone calling this MUST ensure that the balances remain consistent with the ownership. The invariant\\n     * being that for any address `a` the value returned by `balanceOf(a)` must be equal to the number of tokens such\\n     * that `ownerOf(tokenId)` is `a`.\\n     */\\n    // solhint-disable-next-line func-name-mixedcase\\n    function __unsafe_increaseBalance(address account, uint256 amount) internal {\\n        _balances[account] += amount;\\n    }\\n}\\n\"},\"@openzeppelin/contracts/utils/introspection/IERC165.sol\":{\"content\":\"// SPDX-License-Identifier: MIT\\n// OpenZeppelin Contracts v4.4.1 (utils/introspection/IERC165.sol)\\n\\npragma solidity ^0.8.0;\\n\\n/**\\n * @dev Interface of the ERC165 standard, as defined in the\\n * https://eips.ethereum.org/EIPS/eip-165[EIP].\\n *\\n * Implementers can declare support of contract interfaces, which can then be\\n * queried by others ({ERC165Checker}).\\n *\\n * For an implementation, see {ERC165}.\\n */\\ninterface IERC165 {\\n    /**\\n     * @dev Returns true if this contract implements the interface defined by\\n     * `interfaceId`. See the corresponding\\n     * https://eips.ethereum.org/EIPS/eip-165#how-interfaces-are-identified[EIP section]\\n     * to learn more about how these ids are created.\\n     *\\n     * This function call must use less than 30 000 gas.\\n     */\\n    function supportsInterface(bytes4 interfaceId) external view returns (bool);\\n}\\n\"},\"@openzeppelin/contracts/utils/Context.sol\":{\"content\":\"// SPDX-License-Identifier: MIT\\n// OpenZeppelin Contracts v4.4.1 (utils/Context.sol)\\n\\npragma solidity ^0.8.0;\\n\\n/**\\n * @dev Provides information about the current execution context, including the\\n * sender of the transaction and its data. While these are generally available\\n * via msg.sender and msg.data, they should not be accessed in such a direct\\n * manner, since when dealing with meta-transactions the account sending and\\n * paying for execution may not be the actual sender (as far as an application\\n * is concerned).\\n *\\n * This contract is only required for intermediate, library-like contracts.\\n */\\nabstract contract Context {\\n    function _msgSender() internal view virtual returns (address) {\\n        return msg.sender;\\n    }\\n\\n    function _msgData() internal view virtual returns (bytes calldata) {\\n        return msg.data;\\n    }\\n}\\n\"},\"@openzeppelin/contracts/token/ERC20/extensions/IERC20Metadata.sol\":{\"content\":\"// SPDX-License-Identifier: MIT\\n// OpenZeppelin Contracts v4.4.1 (token/ERC20/extensions/IERC20Metadata.sol)\\n\\npragma solidity ^0.8.0;\\n\\nimport \\\"../IERC20.sol\\\";\\n\\n/**\\n * @dev Interface for the optional metadata functions from the ERC20 standard.\\n *\\n * _Available since v4.1._\\n */\\ninterface IERC20Metadata is IERC20 {\\n    /**\\n     * @dev Returns the name of the token.\\n     */\\n    function name() external view returns (string memory);\\n\\n    /**\\n     * @dev Returns the symbol of the token.\\n     */\\n    function symbol() external view returns (string memory);\\n\\n    /**\\n     * @dev Returns the decimals places of the token.\\n     */\\n    function decimals() external view returns (uint8);\\n}\\n\"},\"@openzeppelin/contracts/token/ERC20/IERC20.sol\":{\"content\":\"// SPDX-License-Identifier: MIT\\n// OpenZeppelin Contracts (last updated v4.9.0) (token/ERC20/IERC20.sol)\\n\\npragma solidity ^0.8.0;\\n\\n/**\\n * @dev Interface of the ERC20 standard as defined in the EIP.\\n */\\ninterface IERC20 {\\n    /**\\n     * @dev Emitted when `value` tokens are moved from one account (`from`) to\\n     * another (`to`).\\n     *\\n     * Note that `value` may be zero.\\n     */\\n    event Transfer(address indexed from, address indexed to, uint256 value);\\n\\n    /**\\n     * @dev Emitted when the allowance of a `spender` for an `owner` is set by\\n     * a call to {approve}. `value` is the new allowance.\\n     */\\n    event Approval(address indexed owner, address indexed spender, uint256 value);\\n\\n    /**\\n     * @dev Returns the amount of tokens in existence.\\n     */\\n    function totalSupply() external view returns (uint256);\\n\\n    /**\\n     * @dev Returns the amount of tokens owned by `account`.\\n     */\\n    function balanceOf(address account) external view returns (uint256);\\n\\n    /**\\n     * @dev Moves `amount` tokens from the caller's account to `to`.\\n     *\\n     * Returns a boolean value indicating whether the operation succeeded.\\n     *\\n     * Emits a {Transfer} event.\\n     */\\n    function transfer(address to, uint256 amount) external returns (bool);\\n\\n    /**\\n     * @dev Returns the remaining number of tokens that `spender` will be\\n     * allowed to spend on behalf of `owner` through {transferFrom}. This is\\n     * zero by default.\\n     *\\n     * This value changes when {approve} or {transferFrom} are called.\\n     */\\n    function allowance(address owner, address spender) external view returns (uint256);\\n\\n    /**\\n     * @dev Sets `amount` as the allowance of `spender` over the caller's tokens.\\n     *\\n     * Returns a boolean value indicating whether the operation succeeded.\\n     *\\n     * IMPORTANT: Beware that changing an allowance with this method brings the risk\\n     * that someone may use both the old and the new allowance by unfortunate\\n     * transaction ordering. One possible solution to mitigate this race\\n     * condition is to first reduce the spender's allowance to 0 and set the\\n     * desired value afterwards:\\n     * https://github.com/ethereum/EIPs/issues/20#issuecomment-263524729\\n     *\\n     * Emits an {Approval} event.\\n     */\\n    function approve(address spender, uint256 amount) external returns (bool);\\n\\n    /**\\n     * @dev Moves `amount` tokens from `from` to `to` using the\\n     * allowance mechanism. `amount` is then deducted from the caller's\\n     * allowance.\\n     *\\n     * Returns a boolean value indicating whether the operation succeeded.\\n     *\\n     * Emits a {Transfer} event.\\n     */\\n    function transferFrom(address from, address to, uint256 amount) external returns (bool);\\n}\\n\"},\"@openzeppelin/contracts/utils/introspection/ERC165.sol\":{\"content\":\"// SPDX-License-Identifier: MIT\\n// OpenZeppelin Contracts v4.4.1 (utils/introspection/ERC165.sol)\\n\\npragma solidity ^0.8.0;\\n\\nimport \\\"./IERC165.sol\\\";\\n\\n/**\\n * @dev Implementation of the {IERC165} interface.\\n *\\n * Contracts that want to implement ERC165 should inherit from this contract and override {supportsInterface} to check\\n * for the additional interface id that will be supported. For example:\\n *\\n * ```solidity\\n * function supportsInterface(bytes4 interfaceId) public view virtual override returns (bool) {\\n *     return interfaceId == type(MyInterface).interfaceId || super.supportsInterface(interfaceId);\\n * }\\n * ```\\n *\\n * Alternatively, {ERC165Storage} provides an easier to use but more expensive implementation.\\n */\\nabstract contract ERC165 is IERC165 {\\n    /**\\n     * @dev See {IERC165-supportsInterface}.\\n     */\\n    function supportsInterface(bytes4 interfaceId) public view virtual override returns (bool) {\\n        return interfaceId == type(IERC165).interfaceId;\\n    }\\n}\\n\"},\"@openzeppelin/contracts/utils/Strings.sol\":{\"content\":\"// SPDX-License-Identifier: MIT\\n// OpenZeppelin Contracts (last updated v4.9.0) (utils/Strings.sol)\\n\\npragma solidity ^0.8.0;\\n\\nimport \\\"./math/Math.sol\\\";\\nimport \\\"./math/SignedMath.sol\\\";\\n\\n/**\\n * @dev String operations.\\n */\\nlibrary Strings {\\n    bytes16 private constant _SYMBOLS = \\\"0123456789abcdef\\\";\\n    uint8 private constant _ADDRESS_LENGTH = 20;\\n\\n    /**\\n     * @dev Converts a `uint256` to its ASCII `string` decimal representation.\\n     */\\n    function toString(uint256 value) internal pure returns (string memory) {\\n        unchecked {\\n            uint256 length = Math.log10(value) + 1;\\n            string memory buffer = new string(length);\\n            uint256 ptr;\\n            /// @solidity memory-safe-assembly\\n            assembly {\\n                ptr := add(buffer, add(32, length))\\n            }\\n            while (true) {\\n                ptr--;\\n                /// @solidity memory-safe-assembly\\n                assembly {\\n                    mstore8(ptr, byte(mod(value, 10), _SYMBOLS))\\n                }\\n                value /= 10;\\n                if (value == 0) break;\\n            }\\n            return buffer;\\n        }\\n    }\\n\\n    /**\\n     * @dev Converts a `int256` to its ASCII `string` decimal representation.\\n     */\\n    function toString(int256 value) internal pure returns (string memory) {\\n        return string(abi.encodePacked(value < 0 ? \\\"-\\\" : \\\"\\\", toString(SignedMath.abs(value))));\\n    }\\n\\n    /**\\n     * @dev Converts a `uint256` to its ASCII `string` hexadecimal representation.\\n     */\\n    function toHexString(uint256 value) internal pure returns (string memory) {\\n        unchecked {\\n            return toHexString(value, Math.log256(value) + 1);\\n        }\\n    }\\n\\n    /**\\n     * @dev Converts a `uint256` to its ASCII `string` hexadecimal representation with fixed length.\\n     */\\n    function toHexString(uint256 value, uint256 length) internal pure returns (string memory) {\\n        bytes memory buffer = new bytes(2 * length + 2);\\n        buffer[0] = \\\"0\\\";\\n        buffer[1] = \\\"x\\\";\\n        for (uint256 i = 2 * length + 1; i > 1; --i) {\\n            buffer[i] = _SYMBOLS[value & 0xf];\\n            value >>= 4;\\n        }\\n        require(value == 0, \\\"Strings: hex length insufficient\\\");\\n        return string(buffer);\\n    }\\n\\n    /**\\n     * @dev Converts an `address` with fixed length of 20 bytes to its not checksummed ASCII `string` hexadecimal representation.\\n     */\\n    function toHexString(address addr) internal pure returns (string memory) {\\n        return toHexString(uint256(uint160(addr)), _ADDRESS_LENGTH);\\n    }\\n\\n    /**\\n     * @dev Returns true if the two strings are equal.\\n     */\\n    function equal(string memory a, string memory b) internal pure returns (bool) {\\n        return keccak256(bytes(a)) == keccak256(bytes(b));\\n    }\\n}\\n\"},\"@openzeppelin/contracts/token/ERC721/extensions/IERC721Metadata.sol\":{\"content\":\"// SPDX-License-Identifier: MIT\\n// OpenZeppelin Contracts v4.4.1 (token/ERC721/extensions/IERC721Metadata.sol)\\n\\npragma solidity ^0.8.0;\\n\\nimport \\\"../IERC721.sol\\\";\\n\\n/**\\n * @title ERC-721 Non-Fungible Token Standard, optional metadata extension\\n * @dev See https://eips.ethereum.org/EIPS/eip-721\\n */\\ninterface IERC721Metadata is IERC721 {\\n    /**\\n     * @dev Returns the token collection name.\\n     */\\n    function name() external view returns (string memory);\\n\\n    /**\\n     * @dev Returns the token collection symbol.\\n     */\\n    function symbol() external view returns (string memory);\\n\\n    /**\\n     * @dev Returns the Uniform Resource Identifier (URI) for `tokenId` token.\\n     */\\n    function tokenURI(uint256 tokenId) external view returns (string memory);\\n}\\n\"},\"@openzeppelin/contracts/utils/math/SignedMath.sol\":{\"content\":\"// SPDX-License-Identifier: MIT\\n// OpenZeppelin Contracts (last updated v4.8.0) (utils/math/SignedMath.sol)\\n\\npragma solidity ^0.8.0;\\n\\n/**\\n * @dev Standard signed math utilities missing in the Solidity language.\\n */\\nlibrary SignedMath {\\n    /**\\n     * @dev Returns the largest of two signed numbers.\\n     */\\n    function max(int256 a, int256 b) internal pure returns (int256) {\\n        return a > b ? a : b;\\n    }\\n\\n    /**\\n     * @dev Returns the smallest of two signed numbers.\\n     */\\n    function min(int256 a, int256 b) internal pure returns (int256) {\\n        return a < b ? a : b;\\n    }\\n\\n    /**\\n     * @dev Returns the average of two signed numbers without overflow.\\n     * The result is rounded towards zero.\\n     */\\n    function average(int256 a, int256 b) internal pure returns (int256) {\\n        // Formula from the book \\\"Hacker's Delight\\\"\\n        int256 x = (a & b) + ((a ^ b) >> 1);\\n        return x + (int256(uint256(x) >> 255) & (a ^ b));\\n    }\\n\\n    /**\\n     * @dev Returns the absolute unsigned value of a signed value.\\n     */\\n    function abs(int256 n) internal pure returns (uint256) {\\n        unchecked {\\n            // must be unchecked in order to support `n = type(int256).min`\\n            return uint256(n >= 0 ? n : -n);\\n        }\\n    }\\n}\\n\"},\"@openzeppelin/contracts/utils/math/Math.sol\":{\"content\":\"// SPDX-License-Identifier: MIT\\n// OpenZeppelin Contracts (last updated v4.9.0) (utils/math/Math.sol)\\n\\npragma solidity ^0.8.0;\\n\\n/**\\n * @dev Standard math utilities missing in the Solidity language.\\n */\\nlibrary Math {\\n    enum Rounding {\\n        Down, // Toward negative infinity\\n        Up, // Toward infinity\\n        Zero // Toward zero\\n    }\\n\\n    /**\\n     * @dev Returns the largest of two numbers.\\n     */\\n    function max(uint256 a, uint256 b) internal pure returns (uint256) {\\n        return a > b ? a : b;\\n    }\\n\\n    /**\\n     * @dev Returns the smallest of two numbers.\\n     */\\n    function min(uint256 a, uint256 b) internal pure returns (uint256) {\\n        return a < b ? a : b;\\n    }\\n\\n    /**\\n     * @dev Returns the average of two numbers. The result is rounded towards\\n     * zero.\\n     */\\n    function average(uint256 a, uint256 b) internal pure returns (uint256) {\\n        // (a + b) / 2 can overflow.\\n        return (a & b) + (a ^ b) / 2;\\n    }\\n\\n    /**\\n     * @dev Returns the ceiling of the division of two numbers.\\n     *\\n     * This differs from standard division with `/` in that it rounds up instead\\n     * of rounding down.\\n     */\\n    function ceilDiv(uint256 a, uint256 b) internal pure returns (uint256) {\\n        // (a + b - 1) / b can overflow on addition, so we distribute.\\n        return a == 0 ? 0 : (a - 1) / b + 1;\\n    }\\n\\n    /**\\n     * @notice Calculates floor(x * y / denominator) with full precision. Throws if result overflows a uint256 or denominator == 0\\n     * @dev Original credit to Remco Bloemen under MIT license (https://xn--2-umb.com/21/muldiv)\\n     * with further edits by Uniswap Labs also under MIT license.\\n     */\\n    function mulDiv(uint256 x, uint256 y, uint256 denominator) internal pure returns (uint256 result) {\\n        unchecked {\\n            // 512-bit multiply [prod1 prod0] = x * y. Compute the product mod 2^256 and mod 2^256 - 1, then use\\n            // use the Chinese Remainder Theorem to reconstruct the 512 bit result. The result is stored in two 256\\n            // variables such that product = prod1 * 2^256 + prod0.\\n            uint256 prod0; // Least significant 256 bits of the product\\n            uint256 prod1; // Most significant 256 bits of the product\\n            assembly {\\n                let mm := mulmod(x, y, not(0))\\n                prod0 := mul(x, y)\\n                prod1 := sub(sub(mm, prod0), lt(mm, prod0))\\n            }\\n\\n            // Handle non-overflow cases, 256 by 256 division.\\n            if (prod1 == 0) {\\n                // Solidity will revert if denominator == 0, unlike the div opcode on its own.\\n                // The surrounding unchecked block does not change this fact.\\n                // See https://docs.soliditylang.org/en/latest/control-structures.html#checked-or-unchecked-arithmetic.\\n                return prod0 / denominator;\\n            }\\n\\n            // Make sure the result is less than 2^256. Also prevents denominator == 0.\\n            require(denominator > prod1, \\\"Math: mulDiv overflow\\\");\\n\\n            ///////////////////////////////////////////////\\n            // 512 by 256 division.\\n            ///////////////////////////////////////////////\\n\\n            // Make division exact by subtracting the remainder from [prod1 prod0].\\n            uint256 remainder;\\n            assembly {\\n                // Compute remainder using mulmod.\\n                remainder := mulmod(x, y, denominator)\\n\\n                // Subtract 256 bit number from 512 bit number.\\n                prod1 := sub(prod1, gt(remainder, prod0))\\n                prod0 := sub(prod0, remainder)\\n            }\\n\\n            // Factor powers of two out of denominator and compute largest power of two divisor of denominator. Always >= 1.\\n            // See https://cs.stackexchange.com/q/138556/92363.\\n\\n            // Does not overflow because the denominator cannot be zero at this stage in the function.\\n            uint256 twos = denominator & (~denominator + 1);\\n            assembly {\\n                // Divide denominator by twos.\\n                denominator := div(denominator, twos)\\n\\n                // Divide [prod1 prod0] by twos.\\n                prod0 := div(prod0, twos)\\n\\n                // Flip twos such that it is 2^256 / twos. If twos is zero, then it becomes one.\\n                twos := add(div(sub(0, twos), twos), 1)\\n            }\\n\\n            // Shift in bits from prod1 into prod0.\\n            prod0 |= prod1 * twos;\\n\\n            // Invert denominator mod 2^256. Now that denominator is an odd number, it has an inverse modulo 2^256 such\\n            // that denominator * inv = 1 mod 2^256. Compute the inverse by starting with a seed that is correct for\\n            // four bits. That is, denominator * inv = 1 mod 2^4.\\n            uint256 inverse = (3 * denominator) ^ 2;\\n\\n            // Use the Newton-Raphson iteration to improve the precision. Thanks to Hensel's lifting lemma, this also works\\n            // in modular arithmetic, doubling the correct bits in each step.\\n            inverse *= 2 - denominator * inverse; // inverse mod 2^8\\n            inverse *= 2 - denominator * inverse; // inverse mod 2^16\\n            inverse *= 2 - denominator * inverse; // inverse mod 2^32\\n            inverse *= 2 - denominator * inverse; // inverse mod 2^64\\n            inverse *= 2 - denominator * inverse; // inverse mod 2^128\\n            inverse *= 2 - denominator * inverse; // inverse mod 2^256\\n\\n            // Because the division is now exact we can divide by multiplying with the modular inverse of denominator.\\n            // This will give us the correct result modulo 2^256. Since the preconditions guarantee that the outcome is\\n            // less than 2^256, this is the final result. We don't need to compute the high bits of the result and prod1\\n            // is no longer required.\\n            result = prod0 * inverse;\\n            return result;\\n        }\\n    }\\n\\n    /**\\n     * @notice Calculates x * y / denominator with full precision, following the selected rounding direction.\\n     */\\n    function mulDiv(uint256 x, uint256 y, uint256 denominator, Rounding rounding) internal pure returns (uint256) {\\n        uint256 result = mulDiv(x, y, denominator);\\n        if (rounding == Rounding.Up && mulmod(x, y, denominator) > 0) {\\n            result += 1;\\n        }\\n        return result;\\n    }\\n\\n    /**\\n     * @dev Returns the square root of a number. If the number is not a perfect square, the value is rounded down.\\n     *\\n     * Inspired by Henry S. Warren, Jr.'s \\\"Hacker's Delight\\\" (Chapter 11).\\n     */\\n    function sqrt(uint256 a) internal pure returns (uint256) {\\n        if (a == 0) {\\n            return 0;\\n        }\\n\\n        // For our first guess, we get the biggest power of 2 which is smaller than the square root of the target.\\n        //\\n        // We know that the \\\"msb\\\" (most significant bit) of our target number `a` is a power of 2 such that we have\\n        // `msb(a) <= a < 2*msb(a)`. This value can be written `msb(a)=2**k` with `k=log2(a)`.\\n        //\\n        // This can be rewritten `2**log2(a) <= a < 2**(log2(a) + 1)`\\n        //  `sqrt(2**k) <= sqrt(a) < sqrt(2**(k+1))`\\n        //  `2**(k/2) <= sqrt(a) < 2**((k+1)/2) <= 2**(k/2 + 1)`\\n        //\\n        // Consequently, `2**(log2(a) / 2)` is a good first approximation of `sqrt(a)` with at least 1 correct bit.\\n        uint256 result = 1 << (log2(a) >> 1);\\n\\n        // At this point `result` is an estimation with one bit of precision. We know the true value is a uint128,\\n        // since it is the square root of a uint256. Newton's method converges quadratically (precision doubles at\\n        // every iteration). We thus need at most 7 iteration to turn our partial result with one bit of precision\\n        // into the expected uint128 result.\\n        unchecked {\\n            result = (result + a / result) >> 1;\\n            result = (result + a / result) >> 1;\\n            result = (result + a / result) >> 1;\\n            result = (result + a / result) >> 1;\\n            result = (result + a / result) >> 1;\\n            result = (result + a / result) >> 1;\\n            result = (result + a / result) >> 1;\\n            return min(result, a / result);\\n        }\\n    }\\n\\n    /**\\n     * @notice Calculates sqrt(a), following the selected rounding direction.\\n     */\\n    function sqrt(uint256 a, Rounding rounding) internal pure returns (uint256) {\\n        unchecked {\\n            uint256 result = sqrt(a);\\n            return result + (rounding == Rounding.Up && result * result < a ? 1 : 0);\\n        }\\n    }\\n\\n    /**\\n     * @dev Return the log in base 2, rounded down, of a positive value.\\n     * Returns 0 if given 0.\\n     */\\n    function log2(uint256 value) internal pure returns (uint256) {\\n        uint256 result = 0;\\n        unchecked {\\n            if (value >> 128 > 0) {\\n                value >>= 128;\\n                result += 128;\\n            }\\n            if (value >> 64 > 0) {\\n                value >>= 64;\\n                result += 64;\\n            }\\n            if (value >> 32 > 0) {\\n                value >>= 32;\\n                result += 32;\\n            }\\n            if (value >> 16 > 0) {\\n                value >>= 16;\\n                result += 16;\\n            }\\n            if (value >> 8 > 0) {\\n                value >>= 8;\\n                result += 8;\\n            }\\n            if (value >> 4 > 0) {\\n                value >>= 4;\\n                result += 4;\\n            }\\n            if (value >> 2 > 0) {\\n                value >>= 2;\\n                result += 2;\\n            }\\n            if (value >> 1 > 0) {\\n                result += 1;\\n            }\\n        }\\n        return result;\\n    }\\n\\n    /**\\n     * @dev Return the log in base 2, following the selected rounding direction, of a positive value.\\n     * Returns 0 if given 0.\\n     */\\n    function log2(uint256 value, Rounding rounding) internal pure returns (uint256) {\\n        unchecked {\\n            uint256 result = log2(value);\\n            return result + (rounding == Rounding.Up && 1 << result < value ? 1 : 0);\\n        }\\n    }\\n\\n    /**\\n     * @dev Return the log in base 10, rounded down, of a positive value.\\n     * Returns 0 if given 0.\\n     */\\n    function log10(uint256 value) internal pure returns (uint256) {\\n        uint256 result = 0;\\n        unchecked {\\n            if (value >= 10 ** 64) {\\n                value /= 10 ** 64;\\n                result += 64;\\n            }\\n            if (value >= 10 ** 32) {\\n                value /= 10 ** 32;\\n                result += 32;\\n            }\\n            if (value >= 10 ** 16) {\\n                value /= 10 ** 16;\\n                result += 16;\\n            }\\n            if (value >= 10 ** 8) {\\n                value /= 10 ** 8;\\n                result += 8;\\n            }\\n            if (value >= 10 ** 4) {\\n                value /= 10 ** 4;\\n                result += 4;\\n            }\\n            if (value >= 10 ** 2) {\\n                value /= 10 ** 2;\\n                result += 2;\\n            }\\n            if (value >= 10 ** 1) {\\n                result += 1;\\n            }\\n        }\\n        return result;\\n    }\\n\\n    /**\\n     * @dev Return the log in base 10, following the selected rounding direction, of a positive value.\\n     * Returns 0 if given 0.\\n     */\\n    function log10(uint256 value, Rounding rounding) internal pure returns (uint256) {\\n        unchecked {\\n            uint256 result = log10(value);\\n            return result + (rounding == Rounding.Up && 10 ** result < value ? 1 : 0);\\n        }\\n    }\\n\\n    /**\\n     * @dev Return the log in base 256, rounded down, of a positive value.\\n     * Returns 0 if given 0.\\n     *\\n     * Adding one to the result gives the number of pairs of hex symbols needed to represent `value` as a hex string.\\n     */\\n    function log256(uint256 value) internal pure returns (uint256) {\\n        uint256 result = 0;\\n        unchecked {\\n            if (value >> 128 > 0) {\\n                value >>= 128;\\n                result += 16;\\n            }\\n            if (value >> 64 > 0) {\\n                value >>= 64;\\n                result += 8;\\n            }\\n            if (value >> 32 > 0) {\\n                value >>= 32;\\n                result += 4;\\n            }\\n            if (value >> 16 > 0) {\\n                value >>= 16;\\n                result += 2;\\n            }\\n            if (value >> 8 > 0) {\\n                result += 1;\\n            }\\n        }\\n        return result;\\n    }\\n\\n    /**\\n     * @dev Return the log in base 256, following the selected rounding direction, of a positive value.\\n     * Returns 0 if given 0.\\n     */\\n    function log256(uint256 value, Rounding rounding) internal pure returns (uint256) {\\n        unchecked {\\n            uint256 result = log256(value);\\n            return result + (rounding == Rounding.Up && 1 << (result << 3) < value ? 1 : 0);\\n        }\\n    }\\n}\\n\"}},\"settings\":{\"optimizer\":{\"enabled\":true,\"runs\":200},\"outputSelection\":{\"*\":{\"\":[\"ast\"],\"*\":[\"abi\",\"metadata\",\"devdoc\",\"userdoc\",\"storageLayout\",\"evm.legacyAssembly\",\"evm.bytecode\",\"evm.deployedBytecode\",\"evm.methodIdentifiers\",\"evm.gasEstimates\",\"evm.assembly\"]}}}}",
	"name": "ThriftClub",
	"bytecode": {
		"linkReferences": {},
		"object": "6101e06040526000600a55600d8054737a1bac17ccc5b313516c5e16fb24f7659aa5ebed6001600160a01b031991821617909155600e805473326c977e6efc84e512bb9c30f76e30c160ed06fb9083161790557f474e34a077df58807dbe9c96d3c009b23b3c6d0cce433e59bbf5b34f823bc56c600f55601080546001600160501b03191666010003000186a0179055601554601480546001600160a01b0390921691909216179055348015620000b557600080fd5b50604051620024b3380380620024b3833981016040819052620000d8916200050b565b600d546001600160a01b039081166080819052600b80546001600160a01b03199081169092179055600e54600c8054831691841691909117905573d0d5e3db44de05e9f294bb0a3beeaf030de24ada60a05273572ddec9087154dc5dfbb1546bb62713147e0ab060c0527392c09849638959196e976289418e5973cc96d64560e052730fcaa9c899ec5a91ebc3d5dd869de833b06fb04661010052727a22900a3b98143368bd5906f8e17e9867581b610120526000610140819052730fa8781a83e46826621b3bc094ea2a0212e71b236101605273a02f6adc7926efebbd59fd43a84f4e0c0c91e83261018052721b3b4d0f3714ca98ba10f6042daebf0b1b7b6f6101a052730d787a4a1548f673ed375445535a6c7a1ee561806101c0528054928c16929091169190911790556001889055600287905560038690556004859055600562000227858262000666565b50600662000236848262000666565b50600780546001600160a01b0319166001600160a01b0384811691909117909155600880546001600160a81b03191691831691909117905542600955816200027e8a6200028e565b5050505050505050505062000732565b610160516001600160a01b0316816001600160a01b031603620002d15761016051601580546001600160a01b0319166001600160a01b0390921691909117905550565b610180516001600160a01b0316816001600160a01b031603620003145761018051601580546001600160a01b0319166001600160a01b0390921691909117905550565b6101a0516001600160a01b0316816001600160a01b03160362000357576101a051601580546001600160a01b0319166001600160a01b0390921691909117905550565b6101c0516001600160a01b0316816001600160a01b0316036200039a576101c051601580546001600160a01b0319166001600160a01b0390921691909117905550565b610140516001600160a01b0316816001600160a01b031603620003dd5761014051601580546001600160a01b0319166001600160a01b0390921691909117905550565b60405162461bcd60e51b815260206004820152601560248201527f496e76616c696420746f6b656e20616464726573730000000000000000000000604482015260640160405180910390fd5b80516001600160a01b03811681146200044157600080fd5b919050565b634e487b7160e01b600052604160045260246000fd5b600082601f8301126200046e57600080fd5b81516001600160401b03808211156200048b576200048b62000446565b604051601f8301601f19908116603f01168101908282118183101715620004b657620004b662000446565b81604052838152602092508683858801011115620004d357600080fd5b600091505b83821015620004f75785820183015181830184015290820190620004d8565b600093810190920192909252949350505050565b60008060008060008060008060006101208a8c0312156200052b57600080fd5b620005368a62000429565b60208b015160408c015160608d015160808e015160a08f0151949d50929b50909950975095506001600160401b03808211156200057257600080fd5b620005808d838e016200045c565b955060c08c01519150808211156200059757600080fd5b50620005a68c828d016200045c565b935050620005b760e08b0162000429565b9150620005c86101008b0162000429565b90509295985092959850929598565b600181811c90821680620005ec57607f821691505b6020821081036200060d57634e487b7160e01b600052602260045260246000fd5b50919050565b601f8211156200066157600081815260208120601f850160051c810160208610156200063c5750805b601f850160051c820191505b818110156200065d5782815560010162000648565b5050505b505050565b81516001600160401b0381111562000682576200068262000446565b6200069a81620006938454620005d7565b8462000613565b602080601f831160018114620006d25760008415620006b95750858301515b600019600386901b1c1916600185901b1785556200065d565b600085815260208120601f198616915b828110156200070357888601518255948401946001909101908401620006e2565b5085821015620007225787850151600019600388901b60f8161c191681555b5050505050600190811b01905550565b60805160a05160c05160e05161010051610120516101405161016051610180516101a0516101c051611d0e620007a5600039600050506000505060005050600050506000505060005050600050506000505060005050600061062a0152600081816109cb0152610a0d0152611d0e6000f3fe6080604052600436106101405760003560e01c80636adc21ea116100b6578063993f507c1161006f578063993f507c146103eb578063b8d6338d14610417578063de28c2ec14610439578063de3d9fb71461044f578063e89e106a14610478578063f6eaffc81461048e57600080fd5b80636adc21ea146103275780636e04ff0d1461033a57806376fe16cb14610368578063774dee89146103885780638fd2ea4a146103a5578063929066f5146103bb57600080fd5b806335c1d3491161010857806335c1d3491461022c5780634585e33b146102645780634a7ffcbc146102845780634bca67bf146102a45780635226e60b146102e45780635fa17ec5146102fa57600080fd5b80630a1b0e3c14610145578063150b7a02146101855780631fbfce1b146101ca5780631fe543e3146101df5780632c7eb91d146101ff575b600080fd5b34801561015157600080fd5b506101726101603660046116b6565b601d6020526000908152604090205481565b6040519081526020015b60405180910390f35b34801561019157600080fd5b506101b16101a036600461171a565b630a85bd0160e11b95945050505050565b6040516001600160e01b0319909116815260200161017c565b6101dd6101d8366004611789565b6104ae565b005b3480156101eb57600080fd5b506101dd6101fa3660046117c9565b6109c0565b34801561020b57600080fd5b5061017261021a3660046116b6565b601b6020526000908152604090205481565b34801561023857600080fd5b5061024c610247366004611893565b610a48565b6040516001600160a01b03909116815260200161017c565b34801561027057600080fd5b506101dd61027f3660046118ac565b610a72565b34801561029057600080fd5b5060195461024c906001600160a01b031681565b3480156102b057600080fd5b506102d46102bf3660046116b6565b60186020526000908152604090205460ff1681565b604051901515815260200161017c565b3480156102f057600080fd5b50610172601a5481565b34801561030657600080fd5b506101726103153660046116b6565b601f6020526000908152604090205481565b6101dd610335366004611789565b610abd565b34801561034657600080fd5b5061035a6103553660046118ac565b610d2c565b60405161017c929190611934565b34801561037457600080fd5b5060155461024c906001600160a01b031681565b34801561039457600080fd5b506101726802b5e3af16b188000081565b3480156103b157600080fd5b50610172601e5481565b3480156103c757600080fd5b506102d46103d63660046116b6565b60166020526000908152604090205460ff1681565b3480156103f757600080fd5b50610400610dc7565b60405161017c9b9a9998979695949392919061198f565b34801561042357600080fd5b5061042c610f35565b60405161017c9190611a18565b34801561044557600080fd5b50610172601c5481565b34801561045b57600080fd5b5060135460405167ffffffffffffffff909116815260200161017c565b34801561048457600080fd5b5061017260125481565b34801561049a57600080fd5b506101726104a9366004611893565b6110ee565b6104b66115b4565b3360009081526018602052604090205460ff166105115760405162461bcd60e51b815260206004820152601460248201527314195b985b1d1e48199959481b9bdd081c185a5960621b60448201526064015b60405180910390fd5b3360009081526016602052604090205460ff16156105695760405162461bcd60e51b8152602060048201526015602482015274105b1c9958591e4818481c185c9d1a58da5c185b9d605a1b6044820152606401610508565b6000546001600160a01b038481169116146105965760405162461bcd60e51b815260040161050890611af5565b6001600160a01b0383166106c9576802b5e3af16b188000081604001516105bd9190611b32565b34146105fe5760405162461bcd60e51b815260206004820152601060248201526f125b98dbdc9c9958dd08185b5bdd5b9d60821b6044820152606401610508565b60006802b5e3af16b188000061061560c834611b5b565b11156106555761064e6802b5e3af16b18800007f000000000000000000000000000000000000000000000000000000000000000061110f565b9050610663565b61066060c834611b5b565b90505b80601a60008282546106759190611b32565b90915550506040820151601c8054600090610691908490611b32565b909155505060405130903480156108fc02916000818181858888f193505050501580156106c2573d6000803e3d6000fd5b50506108ac565b341561070d5760405162461bcd60e51b8152602060048201526013602482015272496e76616c69642045746865722076616c756560681b6044820152606401610508565b600082116107545760405162461bcd60e51b8152602060048201526014602482015273125b9d985b1a59081d1bdad95b88185b5bdd5b9d60621b6044820152606401610508565b80516001600160a01b038481169116146107805760405162461bcd60e51b815260040161050890611af5565b60006802b5e3af16b188000061079760c885611b5b565b11156107c4576014546107bd906802b5e3af16b1880000906001600160a01b031661110f565b90506107d2565b6107cf60c884611b5b565b90505b6001600160a01b0384166000908152601b6020526040812080548392906107fa908490611b32565b90915550506040808301516001600160a01b0386166000908152601d60205291822080549192909161082d908490611b32565b90915550506040516323b872dd60e01b8152336004820152306024820152604481018490526001600160a01b038516906323b872dd906064016020604051808303816000875af1158015610885573d6000803e3d6000fd5b505050506040513d601f19601f820116820180604052508101906108a99190611b6f565b50505b6017805460018082019092557fc624b66cc0138b8fabc209247f72d758e1cf3343756d543badbf24212bed8c150180546001600160a01b0319163390811790915560008181526016602052604090819020805460ff1916909317909255601954915163329b55b760e21b815260048101919091526001600160a01b039091169063ca6d56dc90602401600060405180830381600087803b15801561094f57600080fd5b505af1158015610963573d6000803e3d6000fd5b50506040513392507f6cd71e167cab47cb2ccb763aada102691b585b848adb6395f1da4ac187b9214a9150600090a26017546080820151036109bb57600281610120015160038111156109b8576109b8611957565b50505b505050565b336001600160a01b037f00000000000000000000000000000000000000000000000000000000000000001614610a3a5760405163073e64fd60e21b81523360048201526001600160a01b037f0000000000000000000000000000000000000000000000000000000000000000166024820152604401610508565b610a448282611147565b5050565b60178181548110610a5857600080fd5b6000918252602090912001546001600160a01b0316905081565b600854600954600154600160a01b90920460ff16916002836003811115610a9b57610a9b611957565b148015610ab05750610aad8183611b32565b42115b156109b8576109b8611473565b610ac56115b4565b3360009081526018602052604090205460ff1615610b255760405162461bcd60e51b815260206004820152601860248201527f50656e616c74792066656520616c7265616479207061696400000000000000006044820152606401610508565b6000546001600160a01b03848116911614610b525760405162461bcd60e51b815260040161050890611af5565b6001600160a01b038316610c005780606001513414610bb35760405162461bcd60e51b815260206004820152601c60248201527f496e636f72726563742070656e616c74792066656520616d6f756e74000000006044820152606401610508565b8060600151601e6000828254610bc99190611b32565b909155505060405130903480156108fc02916000818181858888f19350505050158015610bfa573d6000803e3d6000fd5b50610d0d565b80606001518214610c625760405162461bcd60e51b815260206004820152602660248201527f496e636f727265637420746f6b656e20616d6f756e7420666f722070656e616c60448201526574792066656560d01b6064820152608401610508565b60608101516001600160a01b0384166000908152601f602052604081208054909190610c8f908490611b32565b90915550506040516323b872dd60e01b8152336004820152306024820152604481018390526001600160a01b038416906323b872dd906064016020604051808303816000875af1158015610ce7573d6000803e3d6000fd5b505050506040513d601f19601f82011682018060405250810190610d0b9190611b6f565b505b5050336000908152601860205260409020805460ff1916600117905550565b600854600954600154600092606092600160a01b90910460ff16916002836003811115610d5b57610d5b611957565b148015610d705750610d6d8183611b32565b42115b15610d7e5760019450610d83565b600094505b86868080601f016020809104026020016040519081016040528093929190818152602001838380828437600092019190915250979a92995091975050505050505050565b60008054600154600254600354600454600580546001600160a01b0390961696949593949293919291610df990611b91565b80601f0160208091040260200160405190810160405280929190818152602001828054610e2590611b91565b8015610e725780601f10610e4757610100808354040283529160200191610e72565b820191906000526020600020905b815481529060010190602001808311610e5557829003601f168201915b505050505090806006018054610e8790611b91565b80601f0160208091040260200160405190810160405280929190818152602001828054610eb390611b91565b8015610f005780601f10610ed557610100808354040283529160200191610f00565b820191906000526020600020905b815481529060010190602001808311610ee357829003601f168201915b505050506007830154600884015460099094015492936001600160a01b03918216939181169250600160a01b900460ff16908b565b610f3d6115b4565b60408051610160810182526000546001600160a01b03168152600154602082015260025491810191909152600354606082015260045460808201526005805460a083019190610f8b90611b91565b80601f0160208091040260200160405190810160405280929190818152602001828054610fb790611b91565b80156110045780601f10610fd957610100808354040283529160200191611004565b820191906000526020600020905b815481529060010190602001808311610fe757829003601f168201915b505050505081526020016000600601805461101e90611b91565b80601f016020809104026020016040519081016040528092919081815260200182805461104a90611b91565b80156110975780601f1061106c57610100808354040283529160200191611097565b820191906000526020600020905b81548152906001019060200180831161107a57829003601f168201915b50505091835250506007546001600160a01b0390811660208301526008549081166040830152606090910190600160a01b900460ff1660038111156110de576110de611957565b8152600954602090910152919050565b601181815481106110fe57600080fd5b600091825260209091200154905081565b60008061111b83611531565b90506000670de0b6b3a76400006111328387611bcb565b61113c9190611b5b565b925050505b92915050565b805161115a90601190602084019061163a565b506000601780549050601160008154811061117757611177611be2565b906000526020600020015461118c9190611bf8565b90506000601782815481106111a3576111a3611be2565b600091825260209091200154601c546001600160a01b0390911691501515806111e35750600080546001600160a01b03168152601d602052604090205415155b61122f5760405162461bcd60e51b815260206004820152601d60248201527f4e6f2062616c616e636520696e207468652054687269667450757273650000006044820152606401610508565b601c54156112f257601c5460405160009133918381818185875af1925050503d806000811461127a576040519150601f19603f3d011682016040523d82523d6000602084013e61127f565b606091505b50509050806112a157604051633bdf630f60e11b815260040160405180910390fd5b601c54604080516001600160a01b038516815260208101929092527ff2956657db703b4160a4041a597ea008de026af5e167af02f4be706e475f6bd4910160405180910390a1506000601c55611427565b600080546001600160a01b03168152601d60205260409020541561142757600080546001600160a01b0316808252601d602052604080832054905163a9059cbb60e01b81523360048201526024810191909152909190829063a9059cbb906044016020604051808303816000875af1158015611372573d6000803e3d6000fd5b505050506040513d601f19601f820116820180604052508101906113969190611b6f565b9050806113b657604051633bdf630f60e11b815260040160405180910390fd5b600080546001600160a01b039081168252601d60209081526040928390205483519287168352908201527ff2956657db703b4160a4041a597ea008de026af5e167af02f4be706e475f6bd4910160405180910390a15050600080546001600160a01b03168152601d60205260408120555b600a805490600061143783611c0c565b9091555050600454600a540361145f576008805460ff60a01b1916600160a01b17905561146d565b6008805460ff60a01b191690555b50505050565b600b54600f546013546010546040516305d3b1d360e41b8152600481019390935267ffffffffffffffff9091166024830152640100000000810461ffff16604483015263ffffffff808216606484015266010000000000009091041660848201526001600160a01b0390911690635d3b1d309060a4016020604051808303816000875af1158015611508573d6000803e3d6000fd5b505050506040513d601f19601f8201168201806040525081019061152c9190611c25565b601255565b600080826001600160a01b031663feaf968c6040518163ffffffff1660e01b815260040160a060405180830381865afa158015611572573d6000803e3d6000fd5b505050506040513d601f19601f820116820180604052508101906115969190611c58565b505050915050806402540be4006115ad9190611ca8565b9392505050565b60405180610160016040528060006001600160a01b0316815260200160008152602001600081526020016000815260200160008152602001606081526020016060815260200160006001600160a01b0316815260200160006001600160a01b031681526020016000600381111561162d5761162d611957565b8152602001600081525090565b828054828255906000526020600020908101928215611675579160200282015b8281111561167557825182559160200191906001019061165a565b50611681929150611685565b5090565b5b808211156116815760008155600101611686565b80356001600160a01b03811681146116b157600080fd5b919050565b6000602082840312156116c857600080fd5b6115ad8261169a565b60008083601f8401126116e357600080fd5b50813567ffffffffffffffff8111156116fb57600080fd5b60208301915083602082850101111561171357600080fd5b9250929050565b60008060008060006080868803121561173257600080fd5b61173b8661169a565b94506117496020870161169a565b935060408601359250606086013567ffffffffffffffff81111561176c57600080fd5b611778888289016116d1565b969995985093965092949392505050565b6000806040838503121561179c57600080fd5b6117a58361169a565b946020939093013593505050565b634e487b7160e01b600052604160045260246000fd5b600080604083850312156117dc57600080fd5b8235915060208084013567ffffffffffffffff808211156117fc57600080fd5b818601915086601f83011261181057600080fd5b813581811115611822576118226117b3565b8060051b604051601f19603f83011681018181108582111715611847576118476117b3565b60405291825284820192508381018501918983111561186557600080fd5b938501935b828510156118835784358452938501939285019261186a565b8096505050505050509250929050565b6000602082840312156118a557600080fd5b5035919050565b600080602083850312156118bf57600080fd5b823567ffffffffffffffff8111156118d657600080fd5b6118e2858286016116d1565b90969095509350505050565b6000815180845260005b81811015611914576020818501810151868301820152016118f8565b506000602082860101526020601f19601f83011685010191505092915050565b821515815260406020820152600061194f60408301846118ee565b949350505050565b634e487b7160e01b600052602160045260246000fd5b6004811061198b57634e487b7160e01b600052602160045260246000fd5b9052565b600061016060018060a01b03808f1684528d60208501528c60408501528b60608501528a60808501528160a08501526119ca8285018b6118ee565b915083820360c08501526119de828a6118ee565b925080881660e08501528087166101008501525050611a0161012083018561196d565b826101408301529c9b505050505050505050505050565b60208152611a326020820183516001600160a01b03169052565b602082015160408201526040820151606082015260608201516080820152608082015160a0820152600060a08301516101608060c0850152611a786101808501836118ee565b915060c0850151601f198584030160e0860152611a9583826118ee565b92505060e0850151610100611ab4818701836001600160a01b03169052565b8601519050610120611ad0868201836001600160a01b03169052565b8601519050610140611ae48682018361196d565b959095015193019290925250919050565b6020808252600d908201526c24b73b30b634b2103a37b5b2b760991b604082015260600190565b634e487b7160e01b600052601160045260246000fd5b8082018082111561114157611141611b1c565b634e487b7160e01b600052601260045260246000fd5b600082611b6a57611b6a611b45565b500490565b600060208284031215611b8157600080fd5b815180151581146115ad57600080fd5b600181811c90821680611ba557607f821691505b602082108103611bc557634e487b7160e01b600052602260045260246000fd5b50919050565b808202811582820484141761114157611141611b1c565b634e487b7160e01b600052603260045260246000fd5b600082611c0757611c07611b45565b500690565b600060018201611c1e57611c1e611b1c565b5060010190565b600060208284031215611c3757600080fd5b5051919050565b805169ffffffffffffffffffff811681146116b157600080fd5b600080600080600060a08688031215611c7057600080fd5b611c7986611c3e565b9450602086015193506040860151925060608601519150611c9c60808701611c3e565b90509295509295909350565b80820260008212600160ff1b84141615611cc457611cc4611b1c565b818105831482151761114157611141611b1c56fea2646970667358221220c796f55f9f0edc4a7cb451f4a10ca0eef27191934f32dfa14d575137f4c6ca4164736f6c63430008120033",
		"opcodes": "PUSH2 0x1E0 PUSH1 0x40 MSTORE PUSH1 0x0 PUSH1 0xA SSTORE PUSH1 0xD DUP1 SLOAD PUSH20 0x7A1BAC17CCC5B313516C5E16FB24F7659AA5EBED PUSH1 0x1 PUSH1 0x1 PUSH1 0xA0 SHL SUB NOT SWAP2 DUP3 AND OR SWAP1 SWAP2 SSTORE PUSH1 0xE DUP1 SLOAD PUSH20 0x326C977E6EFC84E512BB9C30F76E30C160ED06FB SWAP1 DUP4 AND OR SWAP1 SSTORE PUSH32 0x474E34A077DF58807DBE9C96D3C009B23B3C6D0CCE433E59BBF5B34F823BC56C PUSH1 0xF SSTORE PUSH1 0x10 DUP1 SLOAD PUSH1 0x1 PUSH1 0x1 PUSH1 0x50 SHL SUB NOT AND PUSH7 0x10003000186A0 OR SWAP1 SSTORE PUSH1 0x15 SLOAD PUSH1 0x14 DUP1 SLOAD PUSH1 0x1 PUSH1 0x1 PUSH1 0xA0 SHL SUB SWAP1 SWAP3 AND SWAP2 SWAP1 SWAP3 AND OR SWAP1 SSTORE CALLVALUE DUP1 ISZERO PUSH3 0xB5 JUMPI PUSH1 0x0 DUP1 REVERT JUMPDEST POP PUSH1 0x40 MLOAD PUSH3 0x24B3 CODESIZE SUB DUP1 PUSH3 0x24B3 DUP4 CODECOPY DUP2 ADD PUSH1 0x40 DUP2 SWAP1 MSTORE PUSH3 0xD8 SWAP2 PUSH3 0x50B JUMP JUMPDEST PUSH1 0xD SLOAD PUSH1 0x1 PUSH1 0x1 PUSH1 0xA0 SHL SUB SWAP1 DUP2 AND PUSH1 0x80 DUP2 SWAP1 MSTORE PUSH1 0xB DUP1 SLOAD PUSH1 0x1 PUSH1 0x1 PUSH1 0xA0 SHL SUB NOT SWAP1 DUP2 AND SWAP1 SWAP3 OR SWAP1 SSTORE PUSH1 0xE SLOAD PUSH1 0xC DUP1 SLOAD DUP4 AND SWAP2 DUP5 AND SWAP2 SWAP1 SWAP2 OR SWAP1 SSTORE PUSH20 0xD0D5E3DB44DE05E9F294BB0A3BEEAF030DE24ADA PUSH1 0xA0 MSTORE PUSH20 0x572DDEC9087154DC5DFBB1546BB62713147E0AB0 PUSH1 0xC0 MSTORE PUSH20 0x92C09849638959196E976289418E5973CC96D645 PUSH1 0xE0 MSTORE PUSH20 0xFCAA9C899EC5A91EBC3D5DD869DE833B06FB046 PUSH2 0x100 MSTORE PUSH19 0x7A22900A3B98143368BD5906F8E17E9867581B PUSH2 0x120 MSTORE PUSH1 0x0 PUSH2 0x140 DUP2 SWAP1 MSTORE PUSH20 0xFA8781A83E46826621B3BC094EA2A0212E71B23 PUSH2 0x160 MSTORE PUSH20 0xA02F6ADC7926EFEBBD59FD43A84F4E0C0C91E832 PUSH2 0x180 MSTORE PUSH19 0x1B3B4D0F3714CA98BA10F6042DAEBF0B1B7B6F PUSH2 0x1A0 MSTORE PUSH20 0xD787A4A1548F673ED375445535A6C7A1EE56180 PUSH2 0x1C0 MSTORE DUP1 SLOAD SWAP3 DUP13 AND SWAP3 SWAP1 SWAP2 AND SWAP2 SWAP1 SWAP2 OR SWAP1 SSTORE PUSH1 0x1 DUP9 SWAP1 SSTORE PUSH1 0x2 DUP8 SWAP1 SSTORE PUSH1 0x3 DUP7 SWAP1 SSTORE PUSH1 0x4 DUP6 SWAP1 SSTORE PUSH1 0x5 PUSH3 0x227 DUP6 DUP3 PUSH3 0x666 JUMP JUMPDEST POP PUSH1 0x6 PUSH3 0x236 DUP5 DUP3 PUSH3 0x666 JUMP JUMPDEST POP PUSH1 0x7 DUP1 SLOAD PUSH1 0x1 PUSH1 0x1 PUSH1 0xA0 SHL SUB NOT AND PUSH1 0x1 PUSH1 0x1 PUSH1 0xA0 SHL SUB DUP5 DUP2 AND SWAP2 SWAP1 SWAP2 OR SWAP1 SWAP2 SSTORE PUSH1 0x8 DUP1 SLOAD PUSH1 0x1 PUSH1 0x1 PUSH1 0xA8 SHL SUB NOT AND SWAP2 DUP4 AND SWAP2 SWAP1 SWAP2 OR SWAP1 SSTORE TIMESTAMP PUSH1 0x9 SSTORE DUP2 PUSH3 0x27E DUP11 PUSH3 0x28E JUMP JUMPDEST POP POP POP POP POP POP POP POP POP POP PUSH3 0x732 JUMP JUMPDEST PUSH2 0x160 MLOAD PUSH1 0x1 PUSH1 0x1 PUSH1 0xA0 SHL SUB AND DUP2 PUSH1 0x1 PUSH1 0x1 PUSH1 0xA0 SHL SUB AND SUB PUSH3 0x2D1 JUMPI PUSH2 0x160 MLOAD PUSH1 0x15 DUP1 SLOAD PUSH1 0x1 PUSH1 0x1 PUSH1 0xA0 SHL SUB NOT AND PUSH1 0x1 PUSH1 0x1 PUSH1 0xA0 SHL SUB SWAP1 SWAP3 AND SWAP2 SWAP1 SWAP2 OR SWAP1 SSTORE POP JUMP JUMPDEST PUSH2 0x180 MLOAD PUSH1 0x1 PUSH1 0x1 PUSH1 0xA0 SHL SUB AND DUP2 PUSH1 0x1 PUSH1 0x1 PUSH1 0xA0 SHL SUB AND SUB PUSH3 0x314 JUMPI PUSH2 0x180 MLOAD PUSH1 0x15 DUP1 SLOAD PUSH1 0x1 PUSH1 0x1 PUSH1 0xA0 SHL SUB NOT AND PUSH1 0x1 PUSH1 0x1 PUSH1 0xA0 SHL SUB SWAP1 SWAP3 AND SWAP2 SWAP1 SWAP2 OR SWAP1 SSTORE POP JUMP JUMPDEST PUSH2 0x1A0 MLOAD PUSH1 0x1 PUSH1 0x1 PUSH1 0xA0 SHL SUB AND DUP2 PUSH1 0x1 PUSH1 0x1 PUSH1 0xA0 SHL SUB AND SUB PUSH3 0x357 JUMPI PUSH2 0x1A0 MLOAD PUSH1 0x15 DUP1 SLOAD PUSH1 0x1 PUSH1 0x1 PUSH1 0xA0 SHL SUB NOT AND PUSH1 0x1 PUSH1 0x1 PUSH1 0xA0 SHL SUB SWAP1 SWAP3 AND SWAP2 SWAP1 SWAP2 OR SWAP1 SSTORE POP JUMP JUMPDEST PUSH2 0x1C0 MLOAD PUSH1 0x1 PUSH1 0x1 PUSH1 0xA0 SHL SUB AND DUP2 PUSH1 0x1 PUSH1 0x1 PUSH1 0xA0 SHL SUB AND SUB PUSH3 0x39A JUMPI PUSH2 0x1C0 MLOAD PUSH1 0x15 DUP1 SLOAD PUSH1 0x1 PUSH1 0x1 PUSH1 0xA0 SHL SUB NOT AND PUSH1 0x1 PUSH1 0x1 PUSH1 0xA0 SHL SUB SWAP1 SWAP3 AND SWAP2 SWAP1 SWAP2 OR SWAP1 SSTORE POP JUMP JUMPDEST PUSH2 0x140 MLOAD PUSH1 0x1 PUSH1 0x1 PUSH1 0xA0 SHL SUB AND DUP2 PUSH1 0x1 PUSH1 0x1 PUSH1 0xA0 SHL SUB AND SUB PUSH3 0x3DD JUMPI PUSH2 0x140 MLOAD PUSH1 0x15 DUP1 SLOAD PUSH1 0x1 PUSH1 0x1 PUSH1 0xA0 SHL SUB NOT AND PUSH1 0x1 PUSH1 0x1 PUSH1 0xA0 SHL SUB SWAP1 SWAP3 AND SWAP2 SWAP1 SWAP2 OR SWAP1 SSTORE POP JUMP JUMPDEST PUSH1 0x40 MLOAD PUSH3 0x461BCD PUSH1 0xE5 SHL DUP2 MSTORE PUSH1 0x20 PUSH1 0x4 DUP3 ADD MSTORE PUSH1 0x15 PUSH1 0x24 DUP3 ADD MSTORE PUSH32 0x496E76616C696420746F6B656E20616464726573730000000000000000000000 PUSH1 0x44 DUP3 ADD MSTORE PUSH1 0x64 ADD PUSH1 0x40 MLOAD DUP1 SWAP2 SUB SWAP1 REVERT JUMPDEST DUP1 MLOAD PUSH1 0x1 PUSH1 0x1 PUSH1 0xA0 SHL SUB DUP2 AND DUP2 EQ PUSH3 0x441 JUMPI PUSH1 0x0 DUP1 REVERT JUMPDEST SWAP2 SWAP1 POP JUMP JUMPDEST PUSH4 0x4E487B71 PUSH1 0xE0 SHL PUSH1 0x0 MSTORE PUSH1 0x41 PUSH1 0x4 MSTORE PUSH1 0x24 PUSH1 0x0 REVERT JUMPDEST PUSH1 0x0 DUP3 PUSH1 0x1F DUP4 ADD SLT PUSH3 0x46E JUMPI PUSH1 0x0 DUP1 REVERT JUMPDEST DUP2 MLOAD PUSH1 0x1 PUSH1 0x1 PUSH1 0x40 SHL SUB DUP1 DUP3 GT ISZERO PUSH3 0x48B JUMPI PUSH3 0x48B PUSH3 0x446 JUMP JUMPDEST PUSH1 0x40 MLOAD PUSH1 0x1F DUP4 ADD PUSH1 0x1F NOT SWAP1 DUP2 AND PUSH1 0x3F ADD AND DUP2 ADD SWAP1 DUP3 DUP3 GT DUP2 DUP4 LT OR ISZERO PUSH3 0x4B6 JUMPI PUSH3 0x4B6 PUSH3 0x446 JUMP JUMPDEST DUP2 PUSH1 0x40 MSTORE DUP4 DUP2 MSTORE PUSH1 0x20 SWAP3 POP DUP7 DUP4 DUP6 DUP9 ADD ADD GT ISZERO PUSH3 0x4D3 JUMPI PUSH1 0x0 DUP1 REVERT JUMPDEST PUSH1 0x0 SWAP2 POP JUMPDEST DUP4 DUP3 LT ISZERO PUSH3 0x4F7 JUMPI DUP6 DUP3 ADD DUP4 ADD MLOAD DUP2 DUP4 ADD DUP5 ADD MSTORE SWAP1 DUP3 ADD SWAP1 PUSH3 0x4D8 JUMP JUMPDEST PUSH1 0x0 SWAP4 DUP2 ADD SWAP1 SWAP3 ADD SWAP3 SWAP1 SWAP3 MSTORE SWAP5 SWAP4 POP POP POP POP JUMP JUMPDEST PUSH1 0x0 DUP1 PUSH1 0x0 DUP1 PUSH1 0x0 DUP1 PUSH1 0x0 DUP1 PUSH1 0x0 PUSH2 0x120 DUP11 DUP13 SUB SLT ISZERO PUSH3 0x52B JUMPI PUSH1 0x0 DUP1 REVERT JUMPDEST PUSH3 0x536 DUP11 PUSH3 0x429 JUMP JUMPDEST PUSH1 0x20 DUP12 ADD MLOAD PUSH1 0x40 DUP13 ADD MLOAD PUSH1 0x60 DUP14 ADD MLOAD PUSH1 0x80 DUP15 ADD MLOAD PUSH1 0xA0 DUP16 ADD MLOAD SWAP5 SWAP14 POP SWAP3 SWAP12 POP SWAP1 SWAP10 POP SWAP8 POP SWAP6 POP PUSH1 0x1 PUSH1 0x1 PUSH1 0x40 SHL SUB DUP1 DUP3 GT ISZERO PUSH3 0x572 JUMPI PUSH1 0x0 DUP1 REVERT JUMPDEST PUSH3 0x580 DUP14 DUP4 DUP15 ADD PUSH3 0x45C JUMP JUMPDEST SWAP6 POP PUSH1 0xC0 DUP13 ADD MLOAD SWAP2 POP DUP1 DUP3 GT ISZERO PUSH3 0x597 JUMPI PUSH1 0x0 DUP1 REVERT JUMPDEST POP PUSH3 0x5A6 DUP13 DUP3 DUP14 ADD PUSH3 0x45C JUMP JUMPDEST SWAP4 POP POP PUSH3 0x5B7 PUSH1 0xE0 DUP12 ADD PUSH3 0x429 JUMP JUMPDEST SWAP2 POP PUSH3 0x5C8 PUSH2 0x100 DUP12 ADD PUSH3 0x429 JUMP JUMPDEST SWAP1 POP SWAP3 SWAP6 SWAP9 POP SWAP3 SWAP6 SWAP9 POP SWAP3 SWAP6 SWAP9 JUMP JUMPDEST PUSH1 0x1 DUP2 DUP2 SHR SWAP1 DUP3 AND DUP1 PUSH3 0x5EC JUMPI PUSH1 0x7F DUP3 AND SWAP2 POP JUMPDEST PUSH1 0x20 DUP3 LT DUP2 SUB PUSH3 0x60D JUMPI PUSH4 0x4E487B71 PUSH1 0xE0 SHL PUSH1 0x0 MSTORE PUSH1 0x22 PUSH1 0x4 MSTORE PUSH1 0x24 PUSH1 0x0 REVERT JUMPDEST POP SWAP2 SWAP1 POP JUMP JUMPDEST PUSH1 0x1F DUP3 GT ISZERO PUSH3 0x661 JUMPI PUSH1 0x0 DUP2 DUP2 MSTORE PUSH1 0x20 DUP2 KECCAK256 PUSH1 0x1F DUP6 ADD PUSH1 0x5 SHR DUP2 ADD PUSH1 0x20 DUP7 LT ISZERO PUSH3 0x63C JUMPI POP DUP1 JUMPDEST PUSH1 0x1F DUP6 ADD PUSH1 0x5 SHR DUP3 ADD SWAP2 POP JUMPDEST DUP2 DUP2 LT ISZERO PUSH3 0x65D JUMPI DUP3 DUP2 SSTORE PUSH1 0x1 ADD PUSH3 0x648 JUMP JUMPDEST POP POP POP JUMPDEST POP POP POP JUMP JUMPDEST DUP2 MLOAD PUSH1 0x1 PUSH1 0x1 PUSH1 0x40 SHL SUB DUP2 GT ISZERO PUSH3 0x682 JUMPI PUSH3 0x682 PUSH3 0x446 JUMP JUMPDEST PUSH3 0x69A DUP2 PUSH3 0x693 DUP5 SLOAD PUSH3 0x5D7 JUMP JUMPDEST DUP5 PUSH3 0x613 JUMP JUMPDEST PUSH1 0x20 DUP1 PUSH1 0x1F DUP4 GT PUSH1 0x1 DUP2 EQ PUSH3 0x6D2 JUMPI PUSH1 0x0 DUP5 ISZERO PUSH3 0x6B9 JUMPI POP DUP6 DUP4 ADD MLOAD JUMPDEST PUSH1 0x0 NOT PUSH1 0x3 DUP7 SWAP1 SHL SHR NOT AND PUSH1 0x1 DUP6 SWAP1 SHL OR DUP6 SSTORE PUSH3 0x65D JUMP JUMPDEST PUSH1 0x0 DUP6 DUP2 MSTORE PUSH1 0x20 DUP2 KECCAK256 PUSH1 0x1F NOT DUP7 AND SWAP2 JUMPDEST DUP3 DUP2 LT ISZERO PUSH3 0x703 JUMPI DUP9 DUP7 ADD MLOAD DUP3 SSTORE SWAP5 DUP5 ADD SWAP5 PUSH1 0x1 SWAP1 SWAP2 ADD SWAP1 DUP5 ADD PUSH3 0x6E2 JUMP JUMPDEST POP DUP6 DUP3 LT ISZERO PUSH3 0x722 JUMPI DUP8 DUP6 ADD MLOAD PUSH1 0x0 NOT PUSH1 0x3 DUP9 SWAP1 SHL PUSH1 0xF8 AND SHR NOT AND DUP2 SSTORE JUMPDEST POP POP POP POP POP PUSH1 0x1 SWAP1 DUP2 SHL ADD SWAP1 SSTORE POP JUMP JUMPDEST PUSH1 0x80 MLOAD PUSH1 0xA0 MLOAD PUSH1 0xC0 MLOAD PUSH1 0xE0 MLOAD PUSH2 0x100 MLOAD PUSH2 0x120 MLOAD PUSH2 0x140 MLOAD PUSH2 0x160 MLOAD PUSH2 0x180 MLOAD PUSH2 0x1A0 MLOAD PUSH2 0x1C0 MLOAD PUSH2 0x1D0E PUSH3 0x7A5 PUSH1 0x0 CODECOPY PUSH1 0x0 POP POP PUSH1 0x0 POP POP PUSH1 0x0 POP POP PUSH1 0x0 POP POP PUSH1 0x0 POP POP PUSH1 0x0 POP POP PUSH1 0x0 POP POP PUSH1 0x0 POP POP PUSH1 0x0 POP POP PUSH1 0x0 PUSH2 0x62A ADD MSTORE PUSH1 0x0 DUP2 DUP2 PUSH2 0x9CB ADD MSTORE PUSH2 0xA0D ADD MSTORE PUSH2 0x1D0E PUSH1 0x0 RETURN INVALID PUSH1 0x80 PUSH1 0x40 MSTORE PUSH1 0x4 CALLDATASIZE LT PUSH2 0x140 JUMPI PUSH1 0x0 CALLDATALOAD PUSH1 0xE0 SHR DUP1 PUSH4 0x6ADC21EA GT PUSH2 0xB6 JUMPI DUP1 PUSH4 0x993F507C GT PUSH2 0x6F JUMPI DUP1 PUSH4 0x993F507C EQ PUSH2 0x3EB JUMPI DUP1 PUSH4 0xB8D6338D EQ PUSH2 0x417 JUMPI DUP1 PUSH4 0xDE28C2EC EQ PUSH2 0x439 JUMPI DUP1 PUSH4 0xDE3D9FB7 EQ PUSH2 0x44F JUMPI DUP1 PUSH4 0xE89E106A EQ PUSH2 0x478 JUMPI DUP1 PUSH4 0xF6EAFFC8 EQ PUSH2 0x48E JUMPI PUSH1 0x0 DUP1 REVERT JUMPDEST DUP1 PUSH4 0x6ADC21EA EQ PUSH2 0x327 JUMPI DUP1 PUSH4 0x6E04FF0D EQ PUSH2 0x33A JUMPI DUP1 PUSH4 0x76FE16CB EQ PUSH2 0x368 JUMPI DUP1 PUSH4 0x774DEE89 EQ PUSH2 0x388 JUMPI DUP1 PUSH4 0x8FD2EA4A EQ PUSH2 0x3A5 JUMPI DUP1 PUSH4 0x929066F5 EQ PUSH2 0x3BB JUMPI PUSH1 0x0 DUP1 REVERT JUMPDEST DUP1 PUSH4 0x35C1D349 GT PUSH2 0x108 JUMPI DUP1 PUSH4 0x35C1D349 EQ PUSH2 0x22C JUMPI DUP1 PUSH4 0x4585E33B EQ PUSH2 0x264 JUMPI DUP1 PUSH4 0x4A7FFCBC EQ PUSH2 0x284 JUMPI DUP1 PUSH4 0x4BCA67BF EQ PUSH2 0x2A4 JUMPI DUP1 PUSH4 0x5226E60B EQ PUSH2 0x2E4 JUMPI DUP1 PUSH4 0x5FA17EC5 EQ PUSH2 0x2FA JUMPI PUSH1 0x0 DUP1 REVERT JUMPDEST DUP1 PUSH4 0xA1B0E3C EQ PUSH2 0x145 JUMPI DUP1 PUSH4 0x150B7A02 EQ PUSH2 0x185 JUMPI DUP1 PUSH4 0x1FBFCE1B EQ PUSH2 0x1CA JUMPI DUP1 PUSH4 0x1FE543E3 EQ PUSH2 0x1DF JUMPI DUP1 PUSH4 0x2C7EB91D EQ PUSH2 0x1FF JUMPI JUMPDEST PUSH1 0x0 DUP1 REVERT JUMPDEST CALLVALUE DUP1 ISZERO PUSH2 0x151 JUMPI PUSH1 0x0 DUP1 REVERT JUMPDEST POP PUSH2 0x172 PUSH2 0x160 CALLDATASIZE PUSH1 0x4 PUSH2 0x16B6 JUMP JUMPDEST PUSH1 0x1D PUSH1 0x20 MSTORE PUSH1 0x0 SWAP1 DUP2 MSTORE PUSH1 0x40 SWAP1 KECCAK256 SLOAD DUP2 JUMP JUMPDEST PUSH1 0x40 MLOAD SWAP1 DUP2 MSTORE PUSH1 0x20 ADD JUMPDEST PUSH1 0x40 MLOAD DUP1 SWAP2 SUB SWAP1 RETURN JUMPDEST CALLVALUE DUP1 ISZERO PUSH2 0x191 JUMPI PUSH1 0x0 DUP1 REVERT JUMPDEST POP PUSH2 0x1B1 PUSH2 0x1A0 CALLDATASIZE PUSH1 0x4 PUSH2 0x171A JUMP JUMPDEST PUSH4 0xA85BD01 PUSH1 0xE1 SHL SWAP6 SWAP5 POP POP POP POP POP JUMP JUMPDEST PUSH1 0x40 MLOAD PUSH1 0x1 PUSH1 0x1 PUSH1 0xE0 SHL SUB NOT SWAP1 SWAP2 AND DUP2 MSTORE PUSH1 0x20 ADD PUSH2 0x17C JUMP JUMPDEST PUSH2 0x1DD PUSH2 0x1D8 CALLDATASIZE PUSH1 0x4 PUSH2 0x1789 JUMP JUMPDEST PUSH2 0x4AE JUMP JUMPDEST STOP JUMPDEST CALLVALUE DUP1 ISZERO PUSH2 0x1EB JUMPI PUSH1 0x0 DUP1 REVERT JUMPDEST POP PUSH2 0x1DD PUSH2 0x1FA CALLDATASIZE PUSH1 0x4 PUSH2 0x17C9 JUMP JUMPDEST PUSH2 0x9C0 JUMP JUMPDEST CALLVALUE DUP1 ISZERO PUSH2 0x20B JUMPI PUSH1 0x0 DUP1 REVERT JUMPDEST POP PUSH2 0x172 PUSH2 0x21A CALLDATASIZE PUSH1 0x4 PUSH2 0x16B6 JUMP JUMPDEST PUSH1 0x1B PUSH1 0x20 MSTORE PUSH1 0x0 SWAP1 DUP2 MSTORE PUSH1 0x40 SWAP1 KECCAK256 SLOAD DUP2 JUMP JUMPDEST CALLVALUE DUP1 ISZERO PUSH2 0x238 JUMPI PUSH1 0x0 DUP1 REVERT JUMPDEST POP PUSH2 0x24C PUSH2 0x247 CALLDATASIZE PUSH1 0x4 PUSH2 0x1893 JUMP JUMPDEST PUSH2 0xA48 JUMP JUMPDEST PUSH1 0x40 MLOAD PUSH1 0x1 PUSH1 0x1 PUSH1 0xA0 SHL SUB SWAP1 SWAP2 AND DUP2 MSTORE PUSH1 0x20 ADD PUSH2 0x17C JUMP JUMPDEST CALLVALUE DUP1 ISZERO PUSH2 0x270 JUMPI PUSH1 0x0 DUP1 REVERT JUMPDEST POP PUSH2 0x1DD PUSH2 0x27F CALLDATASIZE PUSH1 0x4 PUSH2 0x18AC JUMP JUMPDEST PUSH2 0xA72 JUMP JUMPDEST CALLVALUE DUP1 ISZERO PUSH2 0x290 JUMPI PUSH1 0x0 DUP1 REVERT JUMPDEST POP PUSH1 0x19 SLOAD PUSH2 0x24C SWAP1 PUSH1 0x1 PUSH1 0x1 PUSH1 0xA0 SHL SUB AND DUP2 JUMP JUMPDEST CALLVALUE DUP1 ISZERO PUSH2 0x2B0 JUMPI PUSH1 0x0 DUP1 REVERT JUMPDEST POP PUSH2 0x2D4 PUSH2 0x2BF CALLDATASIZE PUSH1 0x4 PUSH2 0x16B6 JUMP JUMPDEST PUSH1 0x18 PUSH1 0x20 MSTORE PUSH1 0x0 SWAP1 DUP2 MSTORE PUSH1 0x40 SWAP1 KECCAK256 SLOAD PUSH1 0xFF AND DUP2 JUMP JUMPDEST PUSH1 0x40 MLOAD SWAP1 ISZERO ISZERO DUP2 MSTORE PUSH1 0x20 ADD PUSH2 0x17C JUMP JUMPDEST CALLVALUE DUP1 ISZERO PUSH2 0x2F0 JUMPI PUSH1 0x0 DUP1 REVERT JUMPDEST POP PUSH2 0x172 PUSH1 0x1A SLOAD DUP2 JUMP JUMPDEST CALLVALUE DUP1 ISZERO PUSH2 0x306 JUMPI PUSH1 0x0 DUP1 REVERT JUMPDEST POP PUSH2 0x172 PUSH2 0x315 CALLDATASIZE PUSH1 0x4 PUSH2 0x16B6 JUMP JUMPDEST PUSH1 0x1F PUSH1 0x20 MSTORE PUSH1 0x0 SWAP1 DUP2 MSTORE PUSH1 0x40 SWAP1 KECCAK256 SLOAD DUP2 JUMP JUMPDEST PUSH2 0x1DD PUSH2 0x335 CALLDATASIZE PUSH1 0x4 PUSH2 0x1789 JUMP JUMPDEST PUSH2 0xABD JUMP JUMPDEST CALLVALUE DUP1 ISZERO PUSH2 0x346 JUMPI PUSH1 0x0 DUP1 REVERT JUMPDEST POP PUSH2 0x35A PUSH2 0x355 CALLDATASIZE PUSH1 0x4 PUSH2 0x18AC JUMP JUMPDEST PUSH2 0xD2C JUMP JUMPDEST PUSH1 0x40 MLOAD PUSH2 0x17C SWAP3 SWAP2 SWAP1 PUSH2 0x1934 JUMP JUMPDEST CALLVALUE DUP1 ISZERO PUSH2 0x374 JUMPI PUSH1 0x0 DUP1 REVERT JUMPDEST POP PUSH1 0x15 SLOAD PUSH2 0x24C SWAP1 PUSH1 0x1 PUSH1 0x1 PUSH1 0xA0 SHL SUB AND DUP2 JUMP JUMPDEST CALLVALUE DUP1 ISZERO PUSH2 0x394 JUMPI PUSH1 0x0 DUP1 REVERT JUMPDEST POP PUSH2 0x172 PUSH9 0x2B5E3AF16B1880000 DUP2 JUMP JUMPDEST CALLVALUE DUP1 ISZERO PUSH2 0x3B1 JUMPI PUSH1 0x0 DUP1 REVERT JUMPDEST POP PUSH2 0x172 PUSH1 0x1E SLOAD DUP2 JUMP JUMPDEST CALLVALUE DUP1 ISZERO PUSH2 0x3C7 JUMPI PUSH1 0x0 DUP1 REVERT JUMPDEST POP PUSH2 0x2D4 PUSH2 0x3D6 CALLDATASIZE PUSH1 0x4 PUSH2 0x16B6 JUMP JUMPDEST PUSH1 0x16 PUSH1 0x20 MSTORE PUSH1 0x0 SWAP1 DUP2 MSTORE PUSH1 0x40 SWAP1 KECCAK256 SLOAD PUSH1 0xFF AND DUP2 JUMP JUMPDEST CALLVALUE DUP1 ISZERO PUSH2 0x3F7 JUMPI PUSH1 0x0 DUP1 REVERT JUMPDEST POP PUSH2 0x400 PUSH2 0xDC7 JUMP JUMPDEST PUSH1 0x40 MLOAD PUSH2 0x17C SWAP12 SWAP11 SWAP10 SWAP9 SWAP8 SWAP7 SWAP6 SWAP5 SWAP4 SWAP3 SWAP2 SWAP1 PUSH2 0x198F JUMP JUMPDEST CALLVALUE DUP1 ISZERO PUSH2 0x423 JUMPI PUSH1 0x0 DUP1 REVERT JUMPDEST POP PUSH2 0x42C PUSH2 0xF35 JUMP JUMPDEST PUSH1 0x40 MLOAD PUSH2 0x17C SWAP2 SWAP1 PUSH2 0x1A18 JUMP JUMPDEST CALLVALUE DUP1 ISZERO PUSH2 0x445 JUMPI PUSH1 0x0 DUP1 REVERT JUMPDEST POP PUSH2 0x172 PUSH1 0x1C SLOAD DUP2 JUMP JUMPDEST CALLVALUE DUP1 ISZERO PUSH2 0x45B JUMPI PUSH1 0x0 DUP1 REVERT JUMPDEST POP PUSH1 0x13 SLOAD PUSH1 0x40 MLOAD PUSH8 0xFFFFFFFFFFFFFFFF SWAP1 SWAP2 AND DUP2 MSTORE PUSH1 0x20 ADD PUSH2 0x17C JUMP JUMPDEST CALLVALUE DUP1 ISZERO PUSH2 0x484 JUMPI PUSH1 0x0 DUP1 REVERT JUMPDEST POP PUSH2 0x172 PUSH1 0x12 SLOAD DUP2 JUMP JUMPDEST CALLVALUE DUP1 ISZERO PUSH2 0x49A JUMPI PUSH1 0x0 DUP1 REVERT JUMPDEST POP PUSH2 0x172 PUSH2 0x4A9 CALLDATASIZE PUSH1 0x4 PUSH2 0x1893 JUMP JUMPDEST PUSH2 0x10EE JUMP JUMPDEST PUSH2 0x4B6 PUSH2 0x15B4 JUMP JUMPDEST CALLER PUSH1 0x0 SWAP1 DUP2 MSTORE PUSH1 0x18 PUSH1 0x20 MSTORE PUSH1 0x40 SWAP1 KECCAK256 SLOAD PUSH1 0xFF AND PUSH2 0x511 JUMPI PUSH1 0x40 MLOAD PUSH3 0x461BCD PUSH1 0xE5 SHL DUP2 MSTORE PUSH1 0x20 PUSH1 0x4 DUP3 ADD MSTORE PUSH1 0x14 PUSH1 0x24 DUP3 ADD MSTORE PUSH20 0x14195B985B1D1E48199959481B9BDD081C185A59 PUSH1 0x62 SHL PUSH1 0x44 DUP3 ADD MSTORE PUSH1 0x64 ADD JUMPDEST PUSH1 0x40 MLOAD DUP1 SWAP2 SUB SWAP1 REVERT JUMPDEST CALLER PUSH1 0x0 SWAP1 DUP2 MSTORE PUSH1 0x16 PUSH1 0x20 MSTORE PUSH1 0x40 SWAP1 KECCAK256 SLOAD PUSH1 0xFF AND ISZERO PUSH2 0x569 JUMPI PUSH1 0x40 MLOAD PUSH3 0x461BCD PUSH1 0xE5 SHL DUP2 MSTORE PUSH1 0x20 PUSH1 0x4 DUP3 ADD MSTORE PUSH1 0x15 PUSH1 0x24 DUP3 ADD MSTORE PUSH21 0x105B1C9958591E4818481C185C9D1A58DA5C185B9D PUSH1 0x5A SHL PUSH1 0x44 DUP3 ADD MSTORE PUSH1 0x64 ADD PUSH2 0x508 JUMP JUMPDEST PUSH1 0x0 SLOAD PUSH1 0x1 PUSH1 0x1 PUSH1 0xA0 SHL SUB DUP5 DUP2 AND SWAP2 AND EQ PUSH2 0x596 JUMPI PUSH1 0x40 MLOAD PUSH3 0x461BCD PUSH1 0xE5 SHL DUP2 MSTORE PUSH1 0x4 ADD PUSH2 0x508 SWAP1 PUSH2 0x1AF5 JUMP JUMPDEST PUSH1 0x1 PUSH1 0x1 PUSH1 0xA0 SHL SUB DUP4 AND PUSH2 0x6C9 JUMPI PUSH9 0x2B5E3AF16B1880000 DUP2 PUSH1 0x40 ADD MLOAD PUSH2 0x5BD SWAP2 SWAP1 PUSH2 0x1B32 JUMP JUMPDEST CALLVALUE EQ PUSH2 0x5FE JUMPI PUSH1 0x40 MLOAD PUSH3 0x461BCD PUSH1 0xE5 SHL DUP2 MSTORE PUSH1 0x20 PUSH1 0x4 DUP3 ADD MSTORE PUSH1 0x10 PUSH1 0x24 DUP3 ADD MSTORE PUSH16 0x125B98DBDC9C9958DD08185B5BDD5B9D PUSH1 0x82 SHL PUSH1 0x44 DUP3 ADD MSTORE PUSH1 0x64 ADD PUSH2 0x508 JUMP JUMPDEST PUSH1 0x0 PUSH9 0x2B5E3AF16B1880000 PUSH2 0x615 PUSH1 0xC8 CALLVALUE PUSH2 0x1B5B JUMP JUMPDEST GT ISZERO PUSH2 0x655 JUMPI PUSH2 0x64E PUSH9 0x2B5E3AF16B1880000 PUSH32 0x0 PUSH2 0x110F JUMP JUMPDEST SWAP1 POP PUSH2 0x663 JUMP JUMPDEST PUSH2 0x660 PUSH1 0xC8 CALLVALUE PUSH2 0x1B5B JUMP JUMPDEST SWAP1 POP JUMPDEST DUP1 PUSH1 0x1A PUSH1 0x0 DUP3 DUP3 SLOAD PUSH2 0x675 SWAP2 SWAP1 PUSH2 0x1B32 JUMP JUMPDEST SWAP1 SWAP2 SSTORE POP POP PUSH1 0x40 DUP3 ADD MLOAD PUSH1 0x1C DUP1 SLOAD PUSH1 0x0 SWAP1 PUSH2 0x691 SWAP1 DUP5 SWAP1 PUSH2 0x1B32 JUMP JUMPDEST SWAP1 SWAP2 SSTORE POP POP PUSH1 0x40 MLOAD ADDRESS SWAP1 CALLVALUE DUP1 ISZERO PUSH2 0x8FC MUL SWAP2 PUSH1 0x0 DUP2 DUP2 DUP2 DUP6 DUP9 DUP9 CALL SWAP4 POP POP POP POP ISZERO DUP1 ISZERO PUSH2 0x6C2 JUMPI RETURNDATASIZE PUSH1 0x0 DUP1 RETURNDATACOPY RETURNDATASIZE PUSH1 0x0 REVERT JUMPDEST POP POP PUSH2 0x8AC JUMP JUMPDEST CALLVALUE ISZERO PUSH2 0x70D JUMPI PUSH1 0x40 MLOAD PUSH3 0x461BCD PUSH1 0xE5 SHL DUP2 MSTORE PUSH1 0x20 PUSH1 0x4 DUP3 ADD MSTORE PUSH1 0x13 PUSH1 0x24 DUP3 ADD MSTORE PUSH19 0x496E76616C69642045746865722076616C7565 PUSH1 0x68 SHL PUSH1 0x44 DUP3 ADD MSTORE PUSH1 0x64 ADD PUSH2 0x508 JUMP JUMPDEST PUSH1 0x0 DUP3 GT PUSH2 0x754 JUMPI PUSH1 0x40 MLOAD PUSH3 0x461BCD PUSH1 0xE5 SHL DUP2 MSTORE PUSH1 0x20 PUSH1 0x4 DUP3 ADD MSTORE PUSH1 0x14 PUSH1 0x24 DUP3 ADD MSTORE PUSH20 0x125B9D985B1A59081D1BDAD95B88185B5BDD5B9D PUSH1 0x62 SHL PUSH1 0x44 DUP3 ADD MSTORE PUSH1 0x64 ADD PUSH2 0x508 JUMP JUMPDEST DUP1 MLOAD PUSH1 0x1 PUSH1 0x1 PUSH1 0xA0 SHL SUB DUP5 DUP2 AND SWAP2 AND EQ PUSH2 0x780 JUMPI PUSH1 0x40 MLOAD PUSH3 0x461BCD PUSH1 0xE5 SHL DUP2 MSTORE PUSH1 0x4 ADD PUSH2 0x508 SWAP1 PUSH2 0x1AF5 JUMP JUMPDEST PUSH1 0x0 PUSH9 0x2B5E3AF16B1880000 PUSH2 0x797 PUSH1 0xC8 DUP6 PUSH2 0x1B5B JUMP JUMPDEST GT ISZERO PUSH2 0x7C4 JUMPI PUSH1 0x14 SLOAD PUSH2 0x7BD SWAP1 PUSH9 0x2B5E3AF16B1880000 SWAP1 PUSH1 0x1 PUSH1 0x1 PUSH1 0xA0 SHL SUB AND PUSH2 0x110F JUMP JUMPDEST SWAP1 POP PUSH2 0x7D2 JUMP JUMPDEST PUSH2 0x7CF PUSH1 0xC8 DUP5 PUSH2 0x1B5B JUMP JUMPDEST SWAP1 POP JUMPDEST PUSH1 0x1 PUSH1 0x1 PUSH1 0xA0 SHL SUB DUP5 AND PUSH1 0x0 SWAP1 DUP2 MSTORE PUSH1 0x1B PUSH1 0x20 MSTORE PUSH1 0x40 DUP2 KECCAK256 DUP1 SLOAD DUP4 SWAP3 SWAP1 PUSH2 0x7FA SWAP1 DUP5 SWAP1 PUSH2 0x1B32 JUMP JUMPDEST SWAP1 SWAP2 SSTORE POP POP PUSH1 0x40 DUP1 DUP4 ADD MLOAD PUSH1 0x1 PUSH1 0x1 PUSH1 0xA0 SHL SUB DUP7 AND PUSH1 0x0 SWAP1 DUP2 MSTORE PUSH1 0x1D PUSH1 0x20 MSTORE SWAP2 DUP3 KECCAK256 DUP1 SLOAD SWAP2 SWAP3 SWAP1 SWAP2 PUSH2 0x82D SWAP1 DUP5 SWAP1 PUSH2 0x1B32 JUMP JUMPDEST SWAP1 SWAP2 SSTORE POP POP PUSH1 0x40 MLOAD PUSH4 0x23B872DD PUSH1 0xE0 SHL DUP2 MSTORE CALLER PUSH1 0x4 DUP3 ADD MSTORE ADDRESS PUSH1 0x24 DUP3 ADD MSTORE PUSH1 0x44 DUP2 ADD DUP5 SWAP1 MSTORE PUSH1 0x1 PUSH1 0x1 PUSH1 0xA0 SHL SUB DUP6 AND SWAP1 PUSH4 0x23B872DD SWAP1 PUSH1 0x64 ADD PUSH1 0x20 PUSH1 0x40 MLOAD DUP1 DUP4 SUB DUP2 PUSH1 0x0 DUP8 GAS CALL ISZERO DUP1 ISZERO PUSH2 0x885 JUMPI RETURNDATASIZE PUSH1 0x0 DUP1 RETURNDATACOPY RETURNDATASIZE PUSH1 0x0 REVERT JUMPDEST POP POP POP POP PUSH1 0x40 MLOAD RETURNDATASIZE PUSH1 0x1F NOT PUSH1 0x1F DUP3 ADD AND DUP3 ADD DUP1 PUSH1 0x40 MSTORE POP DUP2 ADD SWAP1 PUSH2 0x8A9 SWAP2 SWAP1 PUSH2 0x1B6F JUMP JUMPDEST POP POP JUMPDEST PUSH1 0x17 DUP1 SLOAD PUSH1 0x1 DUP1 DUP3 ADD SWAP1 SWAP3 SSTORE PUSH32 0xC624B66CC0138B8FABC209247F72D758E1CF3343756D543BADBF24212BED8C15 ADD DUP1 SLOAD PUSH1 0x1 PUSH1 0x1 PUSH1 0xA0 SHL SUB NOT AND CALLER SWAP1 DUP2 OR SWAP1 SWAP2 SSTORE PUSH1 0x0 DUP2 DUP2 MSTORE PUSH1 0x16 PUSH1 0x20 MSTORE PUSH1 0x40 SWAP1 DUP2 SWAP1 KECCAK256 DUP1 SLOAD PUSH1 0xFF NOT AND SWAP1 SWAP4 OR SWAP1 SWAP3 SSTORE PUSH1 0x19 SLOAD SWAP2 MLOAD PUSH4 0x329B55B7 PUSH1 0xE2 SHL DUP2 MSTORE PUSH1 0x4 DUP2 ADD SWAP2 SWAP1 SWAP2 MSTORE PUSH1 0x1 PUSH1 0x1 PUSH1 0xA0 SHL SUB SWAP1 SWAP2 AND SWAP1 PUSH4 0xCA6D56DC SWAP1 PUSH1 0x24 ADD PUSH1 0x0 PUSH1 0x40 MLOAD DUP1 DUP4 SUB DUP2 PUSH1 0x0 DUP8 DUP1 EXTCODESIZE ISZERO DUP1 ISZERO PUSH2 0x94F JUMPI PUSH1 0x0 DUP1 REVERT JUMPDEST POP GAS CALL ISZERO DUP1 ISZERO PUSH2 0x963 JUMPI RETURNDATASIZE PUSH1 0x0 DUP1 RETURNDATACOPY RETURNDATASIZE PUSH1 0x0 REVERT JUMPDEST POP POP PUSH1 0x40 MLOAD CALLER SWAP3 POP PUSH32 0x6CD71E167CAB47CB2CCB763AADA102691B585B848ADB6395F1DA4AC187B9214A SWAP2 POP PUSH1 0x0 SWAP1 LOG2 PUSH1 0x17 SLOAD PUSH1 0x80 DUP3 ADD MLOAD SUB PUSH2 0x9BB JUMPI PUSH1 0x2 DUP2 PUSH2 0x120 ADD MLOAD PUSH1 0x3 DUP2 GT ISZERO PUSH2 0x9B8 JUMPI PUSH2 0x9B8 PUSH2 0x1957 JUMP JUMPDEST POP POP JUMPDEST POP POP POP JUMP JUMPDEST CALLER PUSH1 0x1 PUSH1 0x1 PUSH1 0xA0 SHL SUB PUSH32 0x0 AND EQ PUSH2 0xA3A JUMPI PUSH1 0x40 MLOAD PUSH4 0x73E64FD PUSH1 0xE2 SHL DUP2 MSTORE CALLER PUSH1 0x4 DUP3 ADD MSTORE PUSH1 0x1 PUSH1 0x1 PUSH1 0xA0 SHL SUB PUSH32 0x0 AND PUSH1 0x24 DUP3 ADD MSTORE PUSH1 0x44 ADD PUSH2 0x508 JUMP JUMPDEST PUSH2 0xA44 DUP3 DUP3 PUSH2 0x1147 JUMP JUMPDEST POP POP JUMP JUMPDEST PUSH1 0x17 DUP2 DUP2 SLOAD DUP2 LT PUSH2 0xA58 JUMPI PUSH1 0x0 DUP1 REVERT JUMPDEST PUSH1 0x0 SWAP2 DUP3 MSTORE PUSH1 0x20 SWAP1 SWAP2 KECCAK256 ADD SLOAD PUSH1 0x1 PUSH1 0x1 PUSH1 0xA0 SHL SUB AND SWAP1 POP DUP2 JUMP JUMPDEST PUSH1 0x8 SLOAD PUSH1 0x9 SLOAD PUSH1 0x1 SLOAD PUSH1 0x1 PUSH1 0xA0 SHL SWAP1 SWAP3 DIV PUSH1 0xFF AND SWAP2 PUSH1 0x2 DUP4 PUSH1 0x3 DUP2 GT ISZERO PUSH2 0xA9B JUMPI PUSH2 0xA9B PUSH2 0x1957 JUMP JUMPDEST EQ DUP1 ISZERO PUSH2 0xAB0 JUMPI POP PUSH2 0xAAD DUP2 DUP4 PUSH2 0x1B32 JUMP JUMPDEST TIMESTAMP GT JUMPDEST ISZERO PUSH2 0x9B8 JUMPI PUSH2 0x9B8 PUSH2 0x1473 JUMP JUMPDEST PUSH2 0xAC5 PUSH2 0x15B4 JUMP JUMPDEST CALLER PUSH1 0x0 SWAP1 DUP2 MSTORE PUSH1 0x18 PUSH1 0x20 MSTORE PUSH1 0x40 SWAP1 KECCAK256 SLOAD PUSH1 0xFF AND ISZERO PUSH2 0xB25 JUMPI PUSH1 0x40 MLOAD PUSH3 0x461BCD PUSH1 0xE5 SHL DUP2 MSTORE PUSH1 0x20 PUSH1 0x4 DUP3 ADD MSTORE PUSH1 0x18 PUSH1 0x24 DUP3 ADD MSTORE PUSH32 0x50656E616C74792066656520616C726561647920706169640000000000000000 PUSH1 0x44 DUP3 ADD MSTORE PUSH1 0x64 ADD PUSH2 0x508 JUMP JUMPDEST PUSH1 0x0 SLOAD PUSH1 0x1 PUSH1 0x1 PUSH1 0xA0 SHL SUB DUP5 DUP2 AND SWAP2 AND EQ PUSH2 0xB52 JUMPI PUSH1 0x40 MLOAD PUSH3 0x461BCD PUSH1 0xE5 SHL DUP2 MSTORE PUSH1 0x4 ADD PUSH2 0x508 SWAP1 PUSH2 0x1AF5 JUMP JUMPDEST PUSH1 0x1 PUSH1 0x1 PUSH1 0xA0 SHL SUB DUP4 AND PUSH2 0xC00 JUMPI DUP1 PUSH1 0x60 ADD MLOAD CALLVALUE EQ PUSH2 0xBB3 JUMPI PUSH1 0x40 MLOAD PUSH3 0x461BCD PUSH1 0xE5 SHL DUP2 MSTORE PUSH1 0x20 PUSH1 0x4 DUP3 ADD MSTORE PUSH1 0x1C PUSH1 0x24 DUP3 ADD MSTORE PUSH32 0x496E636F72726563742070656E616C74792066656520616D6F756E7400000000 PUSH1 0x44 DUP3 ADD MSTORE PUSH1 0x64 ADD PUSH2 0x508 JUMP JUMPDEST DUP1 PUSH1 0x60 ADD MLOAD PUSH1 0x1E PUSH1 0x0 DUP3 DUP3 SLOAD PUSH2 0xBC9 SWAP2 SWAP1 PUSH2 0x1B32 JUMP JUMPDEST SWAP1 SWAP2 SSTORE POP POP PUSH1 0x40 MLOAD ADDRESS SWAP1 CALLVALUE DUP1 ISZERO PUSH2 0x8FC MUL SWAP2 PUSH1 0x0 DUP2 DUP2 DUP2 DUP6 DUP9 DUP9 CALL SWAP4 POP POP POP POP ISZERO DUP1 ISZERO PUSH2 0xBFA JUMPI RETURNDATASIZE PUSH1 0x0 DUP1 RETURNDATACOPY RETURNDATASIZE PUSH1 0x0 REVERT JUMPDEST POP PUSH2 0xD0D JUMP JUMPDEST DUP1 PUSH1 0x60 ADD MLOAD DUP3 EQ PUSH2 0xC62 JUMPI PUSH1 0x40 MLOAD PUSH3 0x461BCD PUSH1 0xE5 SHL DUP2 MSTORE PUSH1 0x20 PUSH1 0x4 DUP3 ADD MSTORE PUSH1 0x26 PUSH1 0x24 DUP3 ADD MSTORE PUSH32 0x496E636F727265637420746F6B656E20616D6F756E7420666F722070656E616C PUSH1 0x44 DUP3 ADD MSTORE PUSH6 0x747920666565 PUSH1 0xD0 SHL PUSH1 0x64 DUP3 ADD MSTORE PUSH1 0x84 ADD PUSH2 0x508 JUMP JUMPDEST PUSH1 0x60 DUP2 ADD MLOAD PUSH1 0x1 PUSH1 0x1 PUSH1 0xA0 SHL SUB DUP5 AND PUSH1 0x0 SWAP1 DUP2 MSTORE PUSH1 0x1F PUSH1 0x20 MSTORE PUSH1 0x40 DUP2 KECCAK256 DUP1 SLOAD SWAP1 SWAP2 SWAP1 PUSH2 0xC8F SWAP1 DUP5 SWAP1 PUSH2 0x1B32 JUMP JUMPDEST SWAP1 SWAP2 SSTORE POP POP PUSH1 0x40 MLOAD PUSH4 0x23B872DD PUSH1 0xE0 SHL DUP2 MSTORE CALLER PUSH1 0x4 DUP3 ADD MSTORE ADDRESS PUSH1 0x24 DUP3 ADD MSTORE PUSH1 0x44 DUP2 ADD DUP4 SWAP1 MSTORE PUSH1 0x1 PUSH1 0x1 PUSH1 0xA0 SHL SUB DUP5 AND SWAP1 PUSH4 0x23B872DD SWAP1 PUSH1 0x64 ADD PUSH1 0x20 PUSH1 0x40 MLOAD DUP1 DUP4 SUB DUP2 PUSH1 0x0 DUP8 GAS CALL ISZERO DUP1 ISZERO PUSH2 0xCE7 JUMPI RETURNDATASIZE PUSH1 0x0 DUP1 RETURNDATACOPY RETURNDATASIZE PUSH1 0x0 REVERT JUMPDEST POP POP POP POP PUSH1 0x40 MLOAD RETURNDATASIZE PUSH1 0x1F NOT PUSH1 0x1F DUP3 ADD AND DUP3 ADD DUP1 PUSH1 0x40 MSTORE POP DUP2 ADD SWAP1 PUSH2 0xD0B SWAP2 SWAP1 PUSH2 0x1B6F JUMP JUMPDEST POP JUMPDEST POP POP CALLER PUSH1 0x0 SWAP1 DUP2 MSTORE PUSH1 0x18 PUSH1 0x20 MSTORE PUSH1 0x40 SWAP1 KECCAK256 DUP1 SLOAD PUSH1 0xFF NOT AND PUSH1 0x1 OR SWAP1 SSTORE POP JUMP JUMPDEST PUSH1 0x8 SLOAD PUSH1 0x9 SLOAD PUSH1 0x1 SLOAD PUSH1 0x0 SWAP3 PUSH1 0x60 SWAP3 PUSH1 0x1 PUSH1 0xA0 SHL SWAP1 SWAP2 DIV PUSH1 0xFF AND SWAP2 PUSH1 0x2 DUP4 PUSH1 0x3 DUP2 GT ISZERO PUSH2 0xD5B JUMPI PUSH2 0xD5B PUSH2 0x1957 JUMP JUMPDEST EQ DUP1 ISZERO PUSH2 0xD70 JUMPI POP PUSH2 0xD6D DUP2 DUP4 PUSH2 0x1B32 JUMP JUMPDEST TIMESTAMP GT JUMPDEST ISZERO PUSH2 0xD7E JUMPI PUSH1 0x1 SWAP5 POP PUSH2 0xD83 JUMP JUMPDEST PUSH1 0x0 SWAP5 POP JUMPDEST DUP7 DUP7 DUP1 DUP1 PUSH1 0x1F ADD PUSH1 0x20 DUP1 SWAP2 DIV MUL PUSH1 0x20 ADD PUSH1 0x40 MLOAD SWAP1 DUP2 ADD PUSH1 0x40 MSTORE DUP1 SWAP4 SWAP3 SWAP2 SWAP1 DUP2 DUP2 MSTORE PUSH1 0x20 ADD DUP4 DUP4 DUP1 DUP3 DUP5 CALLDATACOPY PUSH1 0x0 SWAP3 ADD SWAP2 SWAP1 SWAP2 MSTORE POP SWAP8 SWAP11 SWAP3 SWAP10 POP SWAP2 SWAP8 POP POP POP POP POP POP POP POP JUMP JUMPDEST PUSH1 0x0 DUP1 SLOAD PUSH1 0x1 SLOAD PUSH1 0x2 SLOAD PUSH1 0x3 SLOAD PUSH1 0x4 SLOAD PUSH1 0x5 DUP1 SLOAD PUSH1 0x1 PUSH1 0x1 PUSH1 0xA0 SHL SUB SWAP1 SWAP7 AND SWAP7 SWAP5 SWAP6 SWAP4 SWAP5 SWAP3 SWAP4 SWAP2 SWAP3 SWAP2 PUSH2 0xDF9 SWAP1 PUSH2 0x1B91 JUMP JUMPDEST DUP1 PUSH1 0x1F ADD PUSH1 0x20 DUP1 SWAP2 DIV MUL PUSH1 0x20 ADD PUSH1 0x40 MLOAD SWAP1 DUP2 ADD PUSH1 0x40 MSTORE DUP1 SWAP3 SWAP2 SWAP1 DUP2 DUP2 MSTORE PUSH1 0x20 ADD DUP3 DUP1 SLOAD PUSH2 0xE25 SWAP1 PUSH2 0x1B91 JUMP JUMPDEST DUP1 ISZERO PUSH2 0xE72 JUMPI DUP1 PUSH1 0x1F LT PUSH2 0xE47 JUMPI PUSH2 0x100 DUP1 DUP4 SLOAD DIV MUL DUP4 MSTORE SWAP2 PUSH1 0x20 ADD SWAP2 PUSH2 0xE72 JUMP JUMPDEST DUP3 ADD SWAP2 SWAP1 PUSH1 0x0 MSTORE PUSH1 0x20 PUSH1 0x0 KECCAK256 SWAP1 JUMPDEST DUP2 SLOAD DUP2 MSTORE SWAP1 PUSH1 0x1 ADD SWAP1 PUSH1 0x20 ADD DUP1 DUP4 GT PUSH2 0xE55 JUMPI DUP3 SWAP1 SUB PUSH1 0x1F AND DUP3 ADD SWAP2 JUMPDEST POP POP POP POP POP SWAP1 DUP1 PUSH1 0x6 ADD DUP1 SLOAD PUSH2 0xE87 SWAP1 PUSH2 0x1B91 JUMP JUMPDEST DUP1 PUSH1 0x1F ADD PUSH1 0x20 DUP1 SWAP2 DIV MUL PUSH1 0x20 ADD PUSH1 0x40 MLOAD SWAP1 DUP2 ADD PUSH1 0x40 MSTORE DUP1 SWAP3 SWAP2 SWAP1 DUP2 DUP2 MSTORE PUSH1 0x20 ADD DUP3 DUP1 SLOAD PUSH2 0xEB3 SWAP1 PUSH2 0x1B91 JUMP JUMPDEST DUP1 ISZERO PUSH2 0xF00 JUMPI DUP1 PUSH1 0x1F LT PUSH2 0xED5 JUMPI PUSH2 0x100 DUP1 DUP4 SLOAD DIV MUL DUP4 MSTORE SWAP2 PUSH1 0x20 ADD SWAP2 PUSH2 0xF00 JUMP JUMPDEST DUP3 ADD SWAP2 SWAP1 PUSH1 0x0 MSTORE PUSH1 0x20 PUSH1 0x0 KECCAK256 SWAP1 JUMPDEST DUP2 SLOAD DUP2 MSTORE SWAP1 PUSH1 0x1 ADD SWAP1 PUSH1 0x20 ADD DUP1 DUP4 GT PUSH2 0xEE3 JUMPI DUP3 SWAP1 SUB PUSH1 0x1F AND DUP3 ADD SWAP2 JUMPDEST POP POP POP POP PUSH1 0x7 DUP4 ADD SLOAD PUSH1 0x8 DUP5 ADD SLOAD PUSH1 0x9 SWAP1 SWAP5 ADD SLOAD SWAP3 SWAP4 PUSH1 0x1 PUSH1 0x1 PUSH1 0xA0 SHL SUB SWAP2 DUP3 AND SWAP4 SWAP2 DUP2 AND SWAP3 POP PUSH1 0x1 PUSH1 0xA0 SHL SWAP1 DIV PUSH1 0xFF AND SWAP1 DUP12 JUMP JUMPDEST PUSH2 0xF3D PUSH2 0x15B4 JUMP JUMPDEST PUSH1 0x40 DUP1 MLOAD PUSH2 0x160 DUP2 ADD DUP3 MSTORE PUSH1 0x0 SLOAD PUSH1 0x1 PUSH1 0x1 PUSH1 0xA0 SHL SUB AND DUP2 MSTORE PUSH1 0x1 SLOAD PUSH1 0x20 DUP3 ADD MSTORE PUSH1 0x2 SLOAD SWAP2 DUP2 ADD SWAP2 SWAP1 SWAP2 MSTORE PUSH1 0x3 SLOAD PUSH1 0x60 DUP3 ADD MSTORE PUSH1 0x4 SLOAD PUSH1 0x80 DUP3 ADD MSTORE PUSH1 0x5 DUP1 SLOAD PUSH1 0xA0 DUP4 ADD SWAP2 SWAP1 PUSH2 0xF8B SWAP1 PUSH2 0x1B91 JUMP JUMPDEST DUP1 PUSH1 0x1F ADD PUSH1 0x20 DUP1 SWAP2 DIV MUL PUSH1 0x20 ADD PUSH1 0x40 MLOAD SWAP1 DUP2 ADD PUSH1 0x40 MSTORE DUP1 SWAP3 SWAP2 SWAP1 DUP2 DUP2 MSTORE PUSH1 0x20 ADD DUP3 DUP1 SLOAD PUSH2 0xFB7 SWAP1 PUSH2 0x1B91 JUMP JUMPDEST DUP1 ISZERO PUSH2 0x1004 JUMPI DUP1 PUSH1 0x1F LT PUSH2 0xFD9 JUMPI PUSH2 0x100 DUP1 DUP4 SLOAD DIV MUL DUP4 MSTORE SWAP2 PUSH1 0x20 ADD SWAP2 PUSH2 0x1004 JUMP JUMPDEST DUP3 ADD SWAP2 SWAP1 PUSH1 0x0 MSTORE PUSH1 0x20 PUSH1 0x0 KECCAK256 SWAP1 JUMPDEST DUP2 SLOAD DUP2 MSTORE SWAP1 PUSH1 0x1 ADD SWAP1 PUSH1 0x20 ADD DUP1 DUP4 GT PUSH2 0xFE7 JUMPI DUP3 SWAP1 SUB PUSH1 0x1F AND DUP3 ADD SWAP2 JUMPDEST POP POP POP POP POP DUP2 MSTORE PUSH1 0x20 ADD PUSH1 0x0 PUSH1 0x6 ADD DUP1 SLOAD PUSH2 0x101E SWAP1 PUSH2 0x1B91 JUMP JUMPDEST DUP1 PUSH1 0x1F ADD PUSH1 0x20 DUP1 SWAP2 DIV MUL PUSH1 0x20 ADD PUSH1 0x40 MLOAD SWAP1 DUP2 ADD PUSH1 0x40 MSTORE DUP1 SWAP3 SWAP2 SWAP1 DUP2 DUP2 MSTORE PUSH1 0x20 ADD DUP3 DUP1 SLOAD PUSH2 0x104A SWAP1 PUSH2 0x1B91 JUMP JUMPDEST DUP1 ISZERO PUSH2 0x1097 JUMPI DUP1 PUSH1 0x1F LT PUSH2 0x106C JUMPI PUSH2 0x100 DUP1 DUP4 SLOAD DIV MUL DUP4 MSTORE SWAP2 PUSH1 0x20 ADD SWAP2 PUSH2 0x1097 JUMP JUMPDEST DUP3 ADD SWAP2 SWAP1 PUSH1 0x0 MSTORE PUSH1 0x20 PUSH1 0x0 KECCAK256 SWAP1 JUMPDEST DUP2 SLOAD DUP2 MSTORE SWAP1 PUSH1 0x1 ADD SWAP1 PUSH1 0x20 ADD DUP1 DUP4 GT PUSH2 0x107A JUMPI DUP3 SWAP1 SUB PUSH1 0x1F AND DUP3 ADD SWAP2 JUMPDEST POP POP POP SWAP2 DUP4 MSTORE POP POP PUSH1 0x7 SLOAD PUSH1 0x1 PUSH1 0x1 PUSH1 0xA0 SHL SUB SWAP1 DUP2 AND PUSH1 0x20 DUP4 ADD MSTORE PUSH1 0x8 SLOAD SWAP1 DUP2 AND PUSH1 0x40 DUP4 ADD MSTORE PUSH1 0x60 SWAP1 SWAP2 ADD SWAP1 PUSH1 0x1 PUSH1 0xA0 SHL SWAP1 DIV PUSH1 0xFF AND PUSH1 0x3 DUP2 GT ISZERO PUSH2 0x10DE JUMPI PUSH2 0x10DE PUSH2 0x1957 JUMP JUMPDEST DUP2 MSTORE PUSH1 0x9 SLOAD PUSH1 0x20 SWAP1 SWAP2 ADD MSTORE SWAP2 SWAP1 POP JUMP JUMPDEST PUSH1 0x11 DUP2 DUP2 SLOAD DUP2 LT PUSH2 0x10FE JUMPI PUSH1 0x0 DUP1 REVERT JUMPDEST PUSH1 0x0 SWAP2 DUP3 MSTORE PUSH1 0x20 SWAP1 SWAP2 KECCAK256 ADD SLOAD SWAP1 POP DUP2 JUMP JUMPDEST PUSH1 0x0 DUP1 PUSH2 0x111B DUP4 PUSH2 0x1531 JUMP JUMPDEST SWAP1 POP PUSH1 0x0 PUSH8 0xDE0B6B3A7640000 PUSH2 0x1132 DUP4 DUP8 PUSH2 0x1BCB JUMP JUMPDEST PUSH2 0x113C SWAP2 SWAP1 PUSH2 0x1B5B JUMP JUMPDEST SWAP3 POP POP POP JUMPDEST SWAP3 SWAP2 POP POP JUMP JUMPDEST DUP1 MLOAD PUSH2 0x115A SWAP1 PUSH1 0x11 SWAP1 PUSH1 0x20 DUP5 ADD SWAP1 PUSH2 0x163A JUMP JUMPDEST POP PUSH1 0x0 PUSH1 0x17 DUP1 SLOAD SWAP1 POP PUSH1 0x11 PUSH1 0x0 DUP2 SLOAD DUP2 LT PUSH2 0x1177 JUMPI PUSH2 0x1177 PUSH2 0x1BE2 JUMP JUMPDEST SWAP1 PUSH1 0x0 MSTORE PUSH1 0x20 PUSH1 0x0 KECCAK256 ADD SLOAD PUSH2 0x118C SWAP2 SWAP1 PUSH2 0x1BF8 JUMP JUMPDEST SWAP1 POP PUSH1 0x0 PUSH1 0x17 DUP3 DUP2 SLOAD DUP2 LT PUSH2 0x11A3 JUMPI PUSH2 0x11A3 PUSH2 0x1BE2 JUMP JUMPDEST PUSH1 0x0 SWAP2 DUP3 MSTORE PUSH1 0x20 SWAP1 SWAP2 KECCAK256 ADD SLOAD PUSH1 0x1C SLOAD PUSH1 0x1 PUSH1 0x1 PUSH1 0xA0 SHL SUB SWAP1 SWAP2 AND SWAP2 POP ISZERO ISZERO DUP1 PUSH2 0x11E3 JUMPI POP PUSH1 0x0 DUP1 SLOAD PUSH1 0x1 PUSH1 0x1 PUSH1 0xA0 SHL SUB AND DUP2 MSTORE PUSH1 0x1D PUSH1 0x20 MSTORE PUSH1 0x40 SWAP1 KECCAK256 SLOAD ISZERO ISZERO JUMPDEST PUSH2 0x122F JUMPI PUSH1 0x40 MLOAD PUSH3 0x461BCD PUSH1 0xE5 SHL DUP2 MSTORE PUSH1 0x20 PUSH1 0x4 DUP3 ADD MSTORE PUSH1 0x1D PUSH1 0x24 DUP3 ADD MSTORE PUSH32 0x4E6F2062616C616E636520696E20746865205468726966745075727365000000 PUSH1 0x44 DUP3 ADD MSTORE PUSH1 0x64 ADD PUSH2 0x508 JUMP JUMPDEST PUSH1 0x1C SLOAD ISZERO PUSH2 0x12F2 JUMPI PUSH1 0x1C SLOAD PUSH1 0x40 MLOAD PUSH1 0x0 SWAP2 CALLER SWAP2 DUP4 DUP2 DUP2 DUP2 DUP6 DUP8 GAS CALL SWAP3 POP POP POP RETURNDATASIZE DUP1 PUSH1 0x0 DUP2 EQ PUSH2 0x127A JUMPI PUSH1 0x40 MLOAD SWAP2 POP PUSH1 0x1F NOT PUSH1 0x3F RETURNDATASIZE ADD AND DUP3 ADD PUSH1 0x40 MSTORE RETURNDATASIZE DUP3 MSTORE RETURNDATASIZE PUSH1 0x0 PUSH1 0x20 DUP5 ADD RETURNDATACOPY PUSH2 0x127F JUMP JUMPDEST PUSH1 0x60 SWAP2 POP JUMPDEST POP POP SWAP1 POP DUP1 PUSH2 0x12A1 JUMPI PUSH1 0x40 MLOAD PUSH4 0x3BDF630F PUSH1 0xE1 SHL DUP2 MSTORE PUSH1 0x4 ADD PUSH1 0x40 MLOAD DUP1 SWAP2 SUB SWAP1 REVERT JUMPDEST PUSH1 0x1C SLOAD PUSH1 0x40 DUP1 MLOAD PUSH1 0x1 PUSH1 0x1 PUSH1 0xA0 SHL SUB DUP6 AND DUP2 MSTORE PUSH1 0x20 DUP2 ADD SWAP3 SWAP1 SWAP3 MSTORE PUSH32 0xF2956657DB703B4160A4041A597EA008DE026AF5E167AF02F4BE706E475F6BD4 SWAP2 ADD PUSH1 0x40 MLOAD DUP1 SWAP2 SUB SWAP1 LOG1 POP PUSH1 0x0 PUSH1 0x1C SSTORE PUSH2 0x1427 JUMP JUMPDEST PUSH1 0x0 DUP1 SLOAD PUSH1 0x1 PUSH1 0x1 PUSH1 0xA0 SHL SUB AND DUP2 MSTORE PUSH1 0x1D PUSH1 0x20 MSTORE PUSH1 0x40 SWAP1 KECCAK256 SLOAD ISZERO PUSH2 0x1427 JUMPI PUSH1 0x0 DUP1 SLOAD PUSH1 0x1 PUSH1 0x1 PUSH1 0xA0 SHL SUB AND DUP1 DUP3 MSTORE PUSH1 0x1D PUSH1 0x20 MSTORE PUSH1 0x40 DUP1 DUP4 KECCAK256 SLOAD SWAP1 MLOAD PUSH4 0xA9059CBB PUSH1 0xE0 SHL DUP2 MSTORE CALLER PUSH1 0x4 DUP3 ADD MSTORE PUSH1 0x24 DUP2 ADD SWAP2 SWAP1 SWAP2 MSTORE SWAP1 SWAP2 SWAP1 DUP3 SWAP1 PUSH4 0xA9059CBB SWAP1 PUSH1 0x44 ADD PUSH1 0x20 PUSH1 0x40 MLOAD DUP1 DUP4 SUB DUP2 PUSH1 0x0 DUP8 GAS CALL ISZERO DUP1 ISZERO PUSH2 0x1372 JUMPI RETURNDATASIZE PUSH1 0x0 DUP1 RETURNDATACOPY RETURNDATASIZE PUSH1 0x0 REVERT JUMPDEST POP POP POP POP PUSH1 0x40 MLOAD RETURNDATASIZE PUSH1 0x1F NOT PUSH1 0x1F DUP3 ADD AND DUP3 ADD DUP1 PUSH1 0x40 MSTORE POP DUP2 ADD SWAP1 PUSH2 0x1396 SWAP2 SWAP1 PUSH2 0x1B6F JUMP JUMPDEST SWAP1 POP DUP1 PUSH2 0x13B6 JUMPI PUSH1 0x40 MLOAD PUSH4 0x3BDF630F PUSH1 0xE1 SHL DUP2 MSTORE PUSH1 0x4 ADD PUSH1 0x40 MLOAD DUP1 SWAP2 SUB SWAP1 REVERT JUMPDEST PUSH1 0x0 DUP1 SLOAD PUSH1 0x1 PUSH1 0x1 PUSH1 0xA0 SHL SUB SWAP1 DUP2 AND DUP3 MSTORE PUSH1 0x1D PUSH1 0x20 SWAP1 DUP2 MSTORE PUSH1 0x40 SWAP3 DUP4 SWAP1 KECCAK256 SLOAD DUP4 MLOAD SWAP3 DUP8 AND DUP4 MSTORE SWAP1 DUP3 ADD MSTORE PUSH32 0xF2956657DB703B4160A4041A597EA008DE026AF5E167AF02F4BE706E475F6BD4 SWAP2 ADD PUSH1 0x40 MLOAD DUP1 SWAP2 SUB SWAP1 LOG1 POP POP PUSH1 0x0 DUP1 SLOAD PUSH1 0x1 PUSH1 0x1 PUSH1 0xA0 SHL SUB AND DUP2 MSTORE PUSH1 0x1D PUSH1 0x20 MSTORE PUSH1 0x40 DUP2 KECCAK256 SSTORE JUMPDEST PUSH1 0xA DUP1 SLOAD SWAP1 PUSH1 0x0 PUSH2 0x1437 DUP4 PUSH2 0x1C0C JUMP JUMPDEST SWAP1 SWAP2 SSTORE POP POP PUSH1 0x4 SLOAD PUSH1 0xA SLOAD SUB PUSH2 0x145F JUMPI PUSH1 0x8 DUP1 SLOAD PUSH1 0xFF PUSH1 0xA0 SHL NOT AND PUSH1 0x1 PUSH1 0xA0 SHL OR SWAP1 SSTORE PUSH2 0x146D JUMP JUMPDEST PUSH1 0x8 DUP1 SLOAD PUSH1 0xFF PUSH1 0xA0 SHL NOT AND SWAP1 SSTORE JUMPDEST POP POP POP POP JUMP JUMPDEST PUSH1 0xB SLOAD PUSH1 0xF SLOAD PUSH1 0x13 SLOAD PUSH1 0x10 SLOAD PUSH1 0x40 MLOAD PUSH4 0x5D3B1D3 PUSH1 0xE4 SHL DUP2 MSTORE PUSH1 0x4 DUP2 ADD SWAP4 SWAP1 SWAP4 MSTORE PUSH8 0xFFFFFFFFFFFFFFFF SWAP1 SWAP2 AND PUSH1 0x24 DUP4 ADD MSTORE PUSH5 0x100000000 DUP2 DIV PUSH2 0xFFFF AND PUSH1 0x44 DUP4 ADD MSTORE PUSH4 0xFFFFFFFF DUP1 DUP3 AND PUSH1 0x64 DUP5 ADD MSTORE PUSH7 0x1000000000000 SWAP1 SWAP2 DIV AND PUSH1 0x84 DUP3 ADD MSTORE PUSH1 0x1 PUSH1 0x1 PUSH1 0xA0 SHL SUB SWAP1 SWAP2 AND SWAP1 PUSH4 0x5D3B1D30 SWAP1 PUSH1 0xA4 ADD PUSH1 0x20 PUSH1 0x40 MLOAD DUP1 DUP4 SUB DUP2 PUSH1 0x0 DUP8 GAS CALL ISZERO DUP1 ISZERO PUSH2 0x1508 JUMPI RETURNDATASIZE PUSH1 0x0 DUP1 RETURNDATACOPY RETURNDATASIZE PUSH1 0x0 REVERT JUMPDEST POP POP POP POP PUSH1 0x40 MLOAD RETURNDATASIZE PUSH1 0x1F NOT PUSH1 0x1F DUP3 ADD AND DUP3 ADD DUP1 PUSH1 0x40 MSTORE POP DUP2 ADD SWAP1 PUSH2 0x152C SWAP2 SWAP1 PUSH2 0x1C25 JUMP JUMPDEST PUSH1 0x12 SSTORE JUMP JUMPDEST PUSH1 0x0 DUP1 DUP3 PUSH1 0x1 PUSH1 0x1 PUSH1 0xA0 SHL SUB AND PUSH4 0xFEAF968C PUSH1 0x40 MLOAD DUP2 PUSH4 0xFFFFFFFF AND PUSH1 0xE0 SHL DUP2 MSTORE PUSH1 0x4 ADD PUSH1 0xA0 PUSH1 0x40 MLOAD DUP1 DUP4 SUB DUP2 DUP7 GAS STATICCALL ISZERO DUP1 ISZERO PUSH2 0x1572 JUMPI RETURNDATASIZE PUSH1 0x0 DUP1 RETURNDATACOPY RETURNDATASIZE PUSH1 0x0 REVERT JUMPDEST POP POP POP POP PUSH1 0x40 MLOAD RETURNDATASIZE PUSH1 0x1F NOT PUSH1 0x1F DUP3 ADD AND DUP3 ADD DUP1 PUSH1 0x40 MSTORE POP DUP2 ADD SWAP1 PUSH2 0x1596 SWAP2 SWAP1 PUSH2 0x1C58 JUMP JUMPDEST POP POP POP SWAP2 POP POP DUP1 PUSH5 0x2540BE400 PUSH2 0x15AD SWAP2 SWAP1 PUSH2 0x1CA8 JUMP JUMPDEST SWAP4 SWAP3 POP POP POP JUMP JUMPDEST PUSH1 0x40 MLOAD DUP1 PUSH2 0x160 ADD PUSH1 0x40 MSTORE DUP1 PUSH1 0x0 PUSH1 0x1 PUSH1 0x1 PUSH1 0xA0 SHL SUB AND DUP2 MSTORE PUSH1 0x20 ADD PUSH1 0x0 DUP2 MSTORE PUSH1 0x20 ADD PUSH1 0x0 DUP2 MSTORE PUSH1 0x20 ADD PUSH1 0x0 DUP2 MSTORE PUSH1 0x20 ADD PUSH1 0x0 DUP2 MSTORE PUSH1 0x20 ADD PUSH1 0x60 DUP2 MSTORE PUSH1 0x20 ADD PUSH1 0x60 DUP2 MSTORE PUSH1 0x20 ADD PUSH1 0x0 PUSH1 0x1 PUSH1 0x1 PUSH1 0xA0 SHL SUB AND DUP2 MSTORE PUSH1 0x20 ADD PUSH1 0x0 PUSH1 0x1 PUSH1 0x1 PUSH1 0xA0 SHL SUB AND DUP2 MSTORE PUSH1 0x20 ADD PUSH1 0x0 PUSH1 0x3 DUP2 GT ISZERO PUSH2 0x162D JUMPI PUSH2 0x162D PUSH2 0x1957 JUMP JUMPDEST DUP2 MSTORE PUSH1 0x20 ADD PUSH1 0x0 DUP2 MSTORE POP SWAP1 JUMP JUMPDEST DUP3 DUP1 SLOAD DUP3 DUP3 SSTORE SWAP1 PUSH1 0x0 MSTORE PUSH1 0x20 PUSH1 0x0 KECCAK256 SWAP1 DUP2 ADD SWAP3 DUP3 ISZERO PUSH2 0x1675 JUMPI SWAP2 PUSH1 0x20 MUL DUP3 ADD JUMPDEST DUP3 DUP2 GT ISZERO PUSH2 0x1675 JUMPI DUP3 MLOAD DUP3 SSTORE SWAP2 PUSH1 0x20 ADD SWAP2 SWAP1 PUSH1 0x1 ADD SWAP1 PUSH2 0x165A JUMP JUMPDEST POP PUSH2 0x1681 SWAP3 SWAP2 POP PUSH2 0x1685 JUMP JUMPDEST POP SWAP1 JUMP JUMPDEST JUMPDEST DUP1 DUP3 GT ISZERO PUSH2 0x1681 JUMPI PUSH1 0x0 DUP2 SSTORE PUSH1 0x1 ADD PUSH2 0x1686 JUMP JUMPDEST DUP1 CALLDATALOAD PUSH1 0x1 PUSH1 0x1 PUSH1 0xA0 SHL SUB DUP2 AND DUP2 EQ PUSH2 0x16B1 JUMPI PUSH1 0x0 DUP1 REVERT JUMPDEST SWAP2 SWAP1 POP JUMP JUMPDEST PUSH1 0x0 PUSH1 0x20 DUP3 DUP5 SUB SLT ISZERO PUSH2 0x16C8 JUMPI PUSH1 0x0 DUP1 REVERT JUMPDEST PUSH2 0x15AD DUP3 PUSH2 0x169A JUMP JUMPDEST PUSH1 0x0 DUP1 DUP4 PUSH1 0x1F DUP5 ADD SLT PUSH2 0x16E3 JUMPI PUSH1 0x0 DUP1 REVERT JUMPDEST POP DUP2 CALLDATALOAD PUSH8 0xFFFFFFFFFFFFFFFF DUP2 GT ISZERO PUSH2 0x16FB JUMPI PUSH1 0x0 DUP1 REVERT JUMPDEST PUSH1 0x20 DUP4 ADD SWAP2 POP DUP4 PUSH1 0x20 DUP3 DUP6 ADD ADD GT ISZERO PUSH2 0x1713 JUMPI PUSH1 0x0 DUP1 REVERT JUMPDEST SWAP3 POP SWAP3 SWAP1 POP JUMP JUMPDEST PUSH1 0x0 DUP1 PUSH1 0x0 DUP1 PUSH1 0x0 PUSH1 0x80 DUP7 DUP9 SUB SLT ISZERO PUSH2 0x1732 JUMPI PUSH1 0x0 DUP1 REVERT JUMPDEST PUSH2 0x173B DUP7 PUSH2 0x169A JUMP JUMPDEST SWAP5 POP PUSH2 0x1749 PUSH1 0x20 DUP8 ADD PUSH2 0x169A JUMP JUMPDEST SWAP4 POP PUSH1 0x40 DUP7 ADD CALLDATALOAD SWAP3 POP PUSH1 0x60 DUP7 ADD CALLDATALOAD PUSH8 0xFFFFFFFFFFFFFFFF DUP2 GT ISZERO PUSH2 0x176C JUMPI PUSH1 0x0 DUP1 REVERT JUMPDEST PUSH2 0x1778 DUP9 DUP3 DUP10 ADD PUSH2 0x16D1 JUMP JUMPDEST SWAP7 SWAP10 SWAP6 SWAP9 POP SWAP4 SWAP7 POP SWAP3 SWAP5 SWAP4 SWAP3 POP POP POP JUMP JUMPDEST PUSH1 0x0 DUP1 PUSH1 0x40 DUP4 DUP6 SUB SLT ISZERO PUSH2 0x179C JUMPI PUSH1 0x0 DUP1 REVERT JUMPDEST PUSH2 0x17A5 DUP4 PUSH2 0x169A JUMP JUMPDEST SWAP5 PUSH1 0x20 SWAP4 SWAP1 SWAP4 ADD CALLDATALOAD SWAP4 POP POP POP JUMP JUMPDEST PUSH4 0x4E487B71 PUSH1 0xE0 SHL PUSH1 0x0 MSTORE PUSH1 0x41 PUSH1 0x4 MSTORE PUSH1 0x24 PUSH1 0x0 REVERT JUMPDEST PUSH1 0x0 DUP1 PUSH1 0x40 DUP4 DUP6 SUB SLT ISZERO PUSH2 0x17DC JUMPI PUSH1 0x0 DUP1 REVERT JUMPDEST DUP3 CALLDATALOAD SWAP2 POP PUSH1 0x20 DUP1 DUP5 ADD CALLDATALOAD PUSH8 0xFFFFFFFFFFFFFFFF DUP1 DUP3 GT ISZERO PUSH2 0x17FC JUMPI PUSH1 0x0 DUP1 REVERT JUMPDEST DUP2 DUP7 ADD SWAP2 POP DUP7 PUSH1 0x1F DUP4 ADD SLT PUSH2 0x1810 JUMPI PUSH1 0x0 DUP1 REVERT JUMPDEST DUP2 CALLDATALOAD DUP2 DUP2 GT ISZERO PUSH2 0x1822 JUMPI PUSH2 0x1822 PUSH2 0x17B3 JUMP JUMPDEST DUP1 PUSH1 0x5 SHL PUSH1 0x40 MLOAD PUSH1 0x1F NOT PUSH1 0x3F DUP4 ADD AND DUP2 ADD DUP2 DUP2 LT DUP6 DUP3 GT OR ISZERO PUSH2 0x1847 JUMPI PUSH2 0x1847 PUSH2 0x17B3 JUMP JUMPDEST PUSH1 0x40 MSTORE SWAP2 DUP3 MSTORE DUP5 DUP3 ADD SWAP3 POP DUP4 DUP2 ADD DUP6 ADD SWAP2 DUP10 DUP4 GT ISZERO PUSH2 0x1865 JUMPI PUSH1 0x0 DUP1 REVERT JUMPDEST SWAP4 DUP6 ADD SWAP4 JUMPDEST DUP3 DUP6 LT ISZERO PUSH2 0x1883 JUMPI DUP5 CALLDATALOAD DUP5 MSTORE SWAP4 DUP6 ADD SWAP4 SWAP3 DUP6 ADD SWAP3 PUSH2 0x186A JUMP JUMPDEST DUP1 SWAP7 POP POP POP POP POP POP POP SWAP3 POP SWAP3 SWAP1 POP JUMP JUMPDEST PUSH1 0x0 PUSH1 0x20 DUP3 DUP5 SUB SLT ISZERO PUSH2 0x18A5 JUMPI PUSH1 0x0 DUP1 REVERT JUMPDEST POP CALLDATALOAD SWAP2 SWAP1 POP JUMP JUMPDEST PUSH1 0x0 DUP1 PUSH1 0x20 DUP4 DUP6 SUB SLT ISZERO PUSH2 0x18BF JUMPI PUSH1 0x0 DUP1 REVERT JUMPDEST DUP3 CALLDATALOAD PUSH8 0xFFFFFFFFFFFFFFFF DUP2 GT ISZERO PUSH2 0x18D6 JUMPI PUSH1 0x0 DUP1 REVERT JUMPDEST PUSH2 0x18E2 DUP6 DUP3 DUP7 ADD PUSH2 0x16D1 JUMP JUMPDEST SWAP1 SWAP7 SWAP1 SWAP6 POP SWAP4 POP POP POP POP JUMP JUMPDEST PUSH1 0x0 DUP2 MLOAD DUP1 DUP5 MSTORE PUSH1 0x0 JUMPDEST DUP2 DUP2 LT ISZERO PUSH2 0x1914 JUMPI PUSH1 0x20 DUP2 DUP6 ADD DUP2 ADD MLOAD DUP7 DUP4 ADD DUP3 ADD MSTORE ADD PUSH2 0x18F8 JUMP JUMPDEST POP PUSH1 0x0 PUSH1 0x20 DUP3 DUP7 ADD ADD MSTORE PUSH1 0x20 PUSH1 0x1F NOT PUSH1 0x1F DUP4 ADD AND DUP6 ADD ADD SWAP2 POP POP SWAP3 SWAP2 POP POP JUMP JUMPDEST DUP3 ISZERO ISZERO DUP2 MSTORE PUSH1 0x40 PUSH1 0x20 DUP3 ADD MSTORE PUSH1 0x0 PUSH2 0x194F PUSH1 0x40 DUP4 ADD DUP5 PUSH2 0x18EE JUMP JUMPDEST SWAP5 SWAP4 POP POP POP POP JUMP JUMPDEST PUSH4 0x4E487B71 PUSH1 0xE0 SHL PUSH1 0x0 MSTORE PUSH1 0x21 PUSH1 0x4 MSTORE PUSH1 0x24 PUSH1 0x0 REVERT JUMPDEST PUSH1 0x4 DUP2 LT PUSH2 0x198B JUMPI PUSH4 0x4E487B71 PUSH1 0xE0 SHL PUSH1 0x0 MSTORE PUSH1 0x21 PUSH1 0x4 MSTORE PUSH1 0x24 PUSH1 0x0 REVERT JUMPDEST SWAP1 MSTORE JUMP JUMPDEST PUSH1 0x0 PUSH2 0x160 PUSH1 0x1 DUP1 PUSH1 0xA0 SHL SUB DUP1 DUP16 AND DUP5 MSTORE DUP14 PUSH1 0x20 DUP6 ADD MSTORE DUP13 PUSH1 0x40 DUP6 ADD MSTORE DUP12 PUSH1 0x60 DUP6 ADD MSTORE DUP11 PUSH1 0x80 DUP6 ADD MSTORE DUP2 PUSH1 0xA0 DUP6 ADD MSTORE PUSH2 0x19CA DUP3 DUP6 ADD DUP12 PUSH2 0x18EE JUMP JUMPDEST SWAP2 POP DUP4 DUP3 SUB PUSH1 0xC0 DUP6 ADD MSTORE PUSH2 0x19DE DUP3 DUP11 PUSH2 0x18EE JUMP JUMPDEST SWAP3 POP DUP1 DUP9 AND PUSH1 0xE0 DUP6 ADD MSTORE DUP1 DUP8 AND PUSH2 0x100 DUP6 ADD MSTORE POP POP PUSH2 0x1A01 PUSH2 0x120 DUP4 ADD DUP6 PUSH2 0x196D JUMP JUMPDEST DUP3 PUSH2 0x140 DUP4 ADD MSTORE SWAP13 SWAP12 POP POP POP POP POP POP POP POP POP POP POP POP JUMP JUMPDEST PUSH1 0x20 DUP2 MSTORE PUSH2 0x1A32 PUSH1 0x20 DUP3 ADD DUP4 MLOAD PUSH1 0x1 PUSH1 0x1 PUSH1 0xA0 SHL SUB AND SWAP1 MSTORE JUMP JUMPDEST PUSH1 0x20 DUP3 ADD MLOAD PUSH1 0x40 DUP3 ADD MSTORE PUSH1 0x40 DUP3 ADD MLOAD PUSH1 0x60 DUP3 ADD MSTORE PUSH1 0x60 DUP3 ADD MLOAD PUSH1 0x80 DUP3 ADD MSTORE PUSH1 0x80 DUP3 ADD MLOAD PUSH1 0xA0 DUP3 ADD MSTORE PUSH1 0x0 PUSH1 0xA0 DUP4 ADD MLOAD PUSH2 0x160 DUP1 PUSH1 0xC0 DUP6 ADD MSTORE PUSH2 0x1A78 PUSH2 0x180 DUP6 ADD DUP4 PUSH2 0x18EE JUMP JUMPDEST SWAP2 POP PUSH1 0xC0 DUP6 ADD MLOAD PUSH1 0x1F NOT DUP6 DUP5 SUB ADD PUSH1 0xE0 DUP7 ADD MSTORE PUSH2 0x1A95 DUP4 DUP3 PUSH2 0x18EE JUMP JUMPDEST SWAP3 POP POP PUSH1 0xE0 DUP6 ADD MLOAD PUSH2 0x100 PUSH2 0x1AB4 DUP2 DUP8 ADD DUP4 PUSH1 0x1 PUSH1 0x1 PUSH1 0xA0 SHL SUB AND SWAP1 MSTORE JUMP JUMPDEST DUP7 ADD MLOAD SWAP1 POP PUSH2 0x120 PUSH2 0x1AD0 DUP7 DUP3 ADD DUP4 PUSH1 0x1 PUSH1 0x1 PUSH1 0xA0 SHL SUB AND SWAP1 MSTORE JUMP JUMPDEST DUP7 ADD MLOAD SWAP1 POP PUSH2 0x140 PUSH2 0x1AE4 DUP7 DUP3 ADD DUP4 PUSH2 0x196D JUMP JUMPDEST SWAP6 SWAP1 SWAP6 ADD MLOAD SWAP4 ADD SWAP3 SWAP1 SWAP3 MSTORE POP SWAP2 SWAP1 POP JUMP JUMPDEST PUSH1 0x20 DUP1 DUP3 MSTORE PUSH1 0xD SWAP1 DUP3 ADD MSTORE PUSH13 0x24B73B30B634B2103A37B5B2B7 PUSH1 0x99 SHL PUSH1 0x40 DUP3 ADD MSTORE PUSH1 0x60 ADD SWAP1 JUMP JUMPDEST PUSH4 0x4E487B71 PUSH1 0xE0 SHL PUSH1 0x0 MSTORE PUSH1 0x11 PUSH1 0x4 MSTORE PUSH1 0x24 PUSH1 0x0 REVERT JUMPDEST DUP1 DUP3 ADD DUP1 DUP3 GT ISZERO PUSH2 0x1141 JUMPI PUSH2 0x1141 PUSH2 0x1B1C JUMP JUMPDEST PUSH4 0x4E487B71 PUSH1 0xE0 SHL PUSH1 0x0 MSTORE PUSH1 0x12 PUSH1 0x4 MSTORE PUSH1 0x24 PUSH1 0x0 REVERT JUMPDEST PUSH1 0x0 DUP3 PUSH2 0x1B6A JUMPI PUSH2 0x1B6A PUSH2 0x1B45 JUMP JUMPDEST POP DIV SWAP1 JUMP JUMPDEST PUSH1 0x0 PUSH1 0x20 DUP3 DUP5 SUB SLT ISZERO PUSH2 0x1B81 JUMPI PUSH1 0x0 DUP1 REVERT JUMPDEST DUP2 MLOAD DUP1 ISZERO ISZERO DUP2 EQ PUSH2 0x15AD JUMPI PUSH1 0x0 DUP1 REVERT JUMPDEST PUSH1 0x1 DUP2 DUP2 SHR SWAP1 DUP3 AND DUP1 PUSH2 0x1BA5 JUMPI PUSH1 0x7F DUP3 AND SWAP2 POP JUMPDEST PUSH1 0x20 DUP3 LT DUP2 SUB PUSH2 0x1BC5 JUMPI PUSH4 0x4E487B71 PUSH1 0xE0 SHL PUSH1 0x0 MSTORE PUSH1 0x22 PUSH1 0x4 MSTORE PUSH1 0x24 PUSH1 0x0 REVERT JUMPDEST POP SWAP2 SWAP1 POP JUMP JUMPDEST DUP1 DUP3 MUL DUP2 ISZERO DUP3 DUP3 DIV DUP5 EQ OR PUSH2 0x1141 JUMPI PUSH2 0x1141 PUSH2 0x1B1C JUMP JUMPDEST PUSH4 0x4E487B71 PUSH1 0xE0 SHL PUSH1 0x0 MSTORE PUSH1 0x32 PUSH1 0x4 MSTORE PUSH1 0x24 PUSH1 0x0 REVERT JUMPDEST PUSH1 0x0 DUP3 PUSH2 0x1C07 JUMPI PUSH2 0x1C07 PUSH2 0x1B45 JUMP JUMPDEST POP MOD SWAP1 JUMP JUMPDEST PUSH1 0x0 PUSH1 0x1 DUP3 ADD PUSH2 0x1C1E JUMPI PUSH2 0x1C1E PUSH2 0x1B1C JUMP JUMPDEST POP PUSH1 0x1 ADD SWAP1 JUMP JUMPDEST PUSH1 0x0 PUSH1 0x20 DUP3 DUP5 SUB SLT ISZERO PUSH2 0x1C37 JUMPI PUSH1 0x0 DUP1 REVERT JUMPDEST POP MLOAD SWAP2 SWAP1 POP JUMP JUMPDEST DUP1 MLOAD PUSH10 0xFFFFFFFFFFFFFFFFFFFF DUP2 AND DUP2 EQ PUSH2 0x16B1 JUMPI PUSH1 0x0 DUP1 REVERT JUMPDEST PUSH1 0x0 DUP1 PUSH1 0x0 DUP1 PUSH1 0x0 PUSH1 0xA0 DUP7 DUP9 SUB SLT ISZERO PUSH2 0x1C70 JUMPI PUSH1 0x0 DUP1 REVERT JUMPDEST PUSH2 0x1C79 DUP7 PUSH2 0x1C3E JUMP JUMPDEST SWAP5 POP PUSH1 0x20 DUP7 ADD MLOAD SWAP4 POP PUSH1 0x40 DUP7 ADD MLOAD SWAP3 POP PUSH1 0x60 DUP7 ADD MLOAD SWAP2 POP PUSH2 0x1C9C PUSH1 0x80 DUP8 ADD PUSH2 0x1C3E JUMP JUMPDEST SWAP1 POP SWAP3 SWAP6 POP SWAP3 SWAP6 SWAP1 SWAP4 POP JUMP JUMPDEST DUP1 DUP3 MUL PUSH1 0x0 DUP3 SLT PUSH1 0x1 PUSH1 0xFF SHL DUP5 EQ AND ISZERO PUSH2 0x1CC4 JUMPI PUSH2 0x1CC4 PUSH2 0x1B1C JUMP JUMPDEST DUP2 DUP2 SDIV DUP4 EQ DUP3 ISZERO OR PUSH2 0x1141 JUMPI PUSH2 0x1141 PUSH2 0x1B1C JUMP INVALID LOG2 PUSH5 0x6970667358 0x22 SLT KECCAK256 0xC7 SWAP7 CREATE2 0x5F SWAP16 0xE 0xDC 0x4A PUSH29 0xB451F4A10CA0EEF27191934F32DFA14D575137F4C6CA4164736F6C6343 STOP ADDMOD SLT STOP CALLER "
	},
	"abi": [
		{
			"inputs": [
				{
					"internalType": "address",
					"name": "_token",
					"type": "address"
				},
				{
					"internalType": "uint256",
					"name": "_cycleDuration",
					"type": "uint256"
				},
				{
					"internalType": "uint256",
					"name": "_contributionAmount",
					"type": "uint256"
				},
				{
					"internalType": "uint256",
					"name": "_penalty",
					"type": "uint256"
				},
				{
					"internalType": "uint256",
					"name": "_maxParticipant",
					"type": "uint256"
				},
				{
					"internalType": "string",
					"name": "_name",
					"type": "string"
				},
				{
					"internalType": "string",
					"name": "_description",
					"type": "string"
				},
				{
					"internalType": "address",
					"name": "_nftContract",
					"type": "address"
				},
				{
					"internalType": "address",
					"name": "_daoContract",
					"type": "address"
				}
			],
			"stateMutability": "nonpayable",
			"type": "constructor"
		},
		{
			"inputs": [
				{
					"internalType": "address",
					"name": "have",
					"type": "address"
				},
				{
					"internalType": "address",
					"name": "want",
					"type": "address"
				}
			],
			"name": "OnlyCoordinatorCanFulfill",
			"type": "error"
		},
		{
			"inputs": [],
			"name": "__TransferFailed",
			"type": "error"
		},
		{
			"anonymous": false,
			"inputs": [
				{
					"indexed": false,
					"internalType": "address",
					"name": "recipient",
					"type": "address"
				},
				{
					"indexed": false,
					"internalType": "uint256",
					"name": "amount",
					"type": "uint256"
				}
			],
			"name": "AddressPaid",
			"type": "event"
		},
		{
			"anonymous": false,
			"inputs": [
				{
					"indexed": true,
					"internalType": "address",
					"name": "winner",
					"type": "address"
				}
			],
			"name": "CycleStarted",
			"type": "event"
		},
		{
			"anonymous": false,
			"inputs": [
				{
					"indexed": true,
					"internalType": "address",
					"name": "participant",
					"type": "address"
				}
			],
			"name": "ParticipantJoined",
			"type": "event"
		},
		{
			"inputs": [],
			"name": "MAXIMUM_FEE_USD",
			"outputs": [
				{
					"internalType": "uint256",
					"name": "",
					"type": "uint256"
				}
			],
			"stateMutability": "view",
			"type": "function"
		},
		{
			"inputs": [],
			"name": "ServiceFeePurse",
			"outputs": [
				{
					"internalType": "uint256",
					"name": "",
					"type": "uint256"
				}
			],
			"stateMutability": "view",
			"type": "function"
		},
		{
			"inputs": [
				{
					"internalType": "address",
					"name": "",
					"type": "address"
				}
			],
			"name": "ServiceFeePurseTokenBalances",
			"outputs": [
				{
					"internalType": "uint256",
					"name": "",
					"type": "uint256"
				}
			],
			"stateMutability": "view",
			"type": "function"
		},
		{
			"inputs": [],
			"name": "ThriftPurseBalance",
			"outputs": [
				{
					"internalType": "uint256",
					"name": "",
					"type": "uint256"
				}
			],
			"stateMutability": "view",
			"type": "function"
		},
		{
			"inputs": [],
			"name": "ThriftPursePenaltyBalance",
			"outputs": [
				{
					"internalType": "uint256",
					"name": "",
					"type": "uint256"
				}
			],
			"stateMutability": "view",
			"type": "function"
		},
		{
			"inputs": [
				{
					"internalType": "address",
					"name": "",
					"type": "address"
				}
			],
			"name": "ThriftPursePenaltyTokenBalance",
			"outputs": [
				{
					"internalType": "uint256",
					"name": "",
					"type": "uint256"
				}
			],
			"stateMutability": "view",
			"type": "function"
		},
		{
			"inputs": [
				{
					"internalType": "address",
					"name": "",
					"type": "address"
				}
			],
			"name": "ThriftPurseTokenBalance",
			"outputs": [
				{
					"internalType": "uint256",
					"name": "",
					"type": "uint256"
				}
			],
			"stateMutability": "view",
			"type": "function"
		},
		{
			"inputs": [
				{
					"internalType": "bytes",
					"name": "checkData",
					"type": "bytes"
				}
			],
			"name": "checkUpkeep",
			"outputs": [
				{
					"internalType": "bool",
					"name": "upkeepNeeded",
					"type": "bool"
				},
				{
					"internalType": "bytes",
					"name": "performData",
					"type": "bytes"
				}
			],
			"stateMutability": "nonpayable",
			"type": "function"
		},
		{
			"inputs": [],
			"name": "daoContract",
			"outputs": [
				{
					"internalType": "contract IDAOContract",
					"name": "",
					"type": "address"
				}
			],
			"stateMutability": "view",
			"type": "function"
		},
		{
			"inputs": [],
			"name": "getSubscriptionId",
			"outputs": [
				{
					"internalType": "uint64",
					"name": "",
					"type": "uint64"
				}
			],
			"stateMutability": "view",
			"type": "function"
		},
		{
			"inputs": [],
			"name": "getThriftClubData",
			"outputs": [
				{
					"components": [
						{
							"internalType": "address",
							"name": "token",
							"type": "address"
						},
						{
							"internalType": "uint256",
							"name": "cycleDuration",
							"type": "uint256"
						},
						{
							"internalType": "uint256",
							"name": "contributionAmount",
							"type": "uint256"
						},
						{
							"internalType": "uint256",
							"name": "penalty",
							"type": "uint256"
						},
						{
							"internalType": "uint256",
							"name": "maxParticipant",
							"type": "uint256"
						},
						{
							"internalType": "string",
							"name": "name",
							"type": "string"
						},
						{
							"internalType": "string",
							"name": "description",
							"type": "string"
						},
						{
							"internalType": "contract IERC721",
							"name": "nftContract",
							"type": "address"
						},
						{
							"internalType": "contract IDAOContract",
							"name": "daoContract",
							"type": "address"
						},
						{
							"internalType": "enum ThriftClub.TANDA_STATE",
							"name": "t_state",
							"type": "uint8"
						},
						{
							"internalType": "uint256",
							"name": "lastUpdateTimestamp",
							"type": "uint256"
						}
					],
					"internalType": "struct ThriftClub.ThriftClubData",
					"name": "",
					"type": "tuple"
				}
			],
			"stateMutability": "view",
			"type": "function"
		},
		{
			"inputs": [
				{
					"internalType": "address",
					"name": "",
					"type": "address"
				}
			],
			"name": "hasPaidPenalty",
			"outputs": [
				{
					"internalType": "bool",
					"name": "",
					"type": "bool"
				}
			],
			"stateMutability": "view",
			"type": "function"
		},
		{
			"inputs": [],
			"name": "i_priceFeedToken",
			"outputs": [
				{
					"internalType": "address",
					"name": "",
					"type": "address"
				}
			],
			"stateMutability": "view",
			"type": "function"
		},
		{
			"inputs": [
				{
					"internalType": "address",
					"name": "",
					"type": "address"
				}
			],
			"name": "isParticipant",
			"outputs": [
				{
					"internalType": "bool",
					"name": "",
					"type": "bool"
				}
			],
			"stateMutability": "view",
			"type": "function"
		},
		{
			"inputs": [
				{
					"internalType": "address",
					"name": "_tokenAddress",
					"type": "address"
				},
				{
					"internalType": "uint256",
					"name": "_tokenAmount",
					"type": "uint256"
				}
			],
			"name": "joinThriftClub",
			"outputs": [],
			"stateMutability": "payable",
			"type": "function"
		},
		{
			"inputs": [
				{
					"internalType": "address",
					"name": "operator",
					"type": "address"
				},
				{
					"internalType": "address",
					"name": "from",
					"type": "address"
				},
				{
					"internalType": "uint256",
					"name": "tokenId",
					"type": "uint256"
				},
				{
					"internalType": "bytes",
					"name": "data",
					"type": "bytes"
				}
			],
			"name": "onERC721Received",
			"outputs": [
				{
					"internalType": "bytes4",
					"name": "",
					"type": "bytes4"
				}
			],
			"stateMutability": "nonpayable",
			"type": "function"
		},
		{
			"inputs": [
				{
					"internalType": "uint256",
					"name": "",
					"type": "uint256"
				}
			],
			"name": "participants",
			"outputs": [
				{
					"internalType": "address",
					"name": "",
					"type": "address"
				}
			],
			"stateMutability": "view",
			"type": "function"
		},
		{
			"inputs": [
				{
					"internalType": "address",
					"name": "_tokenAddress",
					"type": "address"
				},
				{
					"internalType": "uint256",
					"name": "_tokenAmount",
					"type": "uint256"
				}
			],
			"name": "payPenaltyFee",
			"outputs": [],
			"stateMutability": "payable",
			"type": "function"
		},
		{
			"inputs": [
				{
					"internalType": "bytes",
					"name": "performData",
					"type": "bytes"
				}
			],
			"name": "performUpkeep",
			"outputs": [],
			"stateMutability": "nonpayable",
			"type": "function"
		},
		{
			"inputs": [
				{
					"internalType": "uint256",
					"name": "requestId",
					"type": "uint256"
				},
				{
					"internalType": "uint256[]",
					"name": "randomWords",
					"type": "uint256[]"
				}
			],
			"name": "rawFulfillRandomWords",
			"outputs": [],
			"stateMutability": "nonpayable",
			"type": "function"
		},
		{
			"inputs": [
				{
					"internalType": "uint256",
					"name": "",
					"type": "uint256"
				}
			],
			"name": "s_randomWords",
			"outputs": [
				{
					"internalType": "uint256",
					"name": "",
					"type": "uint256"
				}
			],
			"stateMutability": "view",
			"type": "function"
		},
		{
			"inputs": [],
			"name": "s_requestId",
			"outputs": [
				{
					"internalType": "uint256",
					"name": "",
					"type": "uint256"
				}
			],
			"stateMutability": "view",
			"type": "function"
		},
		{
			"inputs": [],
			"name": "s_thriftClub",
			"outputs": [
				{
					"internalType": "address",
					"name": "token",
					"type": "address"
				},
				{
					"internalType": "uint256",
					"name": "cycleDuration",
					"type": "uint256"
				},
				{
					"internalType": "uint256",
					"name": "contributionAmount",
					"type": "uint256"
				},
				{
					"internalType": "uint256",
					"name": "penalty",
					"type": "uint256"
				},
				{
					"internalType": "uint256",
					"name": "maxParticipant",
					"type": "uint256"
				},
				{
					"internalType": "string",
					"name": "name",
					"type": "string"
				},
				{
					"internalType": "string",
					"name": "description",
					"type": "string"
				},
				{
					"internalType": "contract IERC721",
					"name": "nftContract",
					"type": "address"
				},
				{
					"internalType": "contract IDAOContract",
					"name": "daoContract",
					"type": "address"
				},
				{
					"internalType": "enum ThriftClub.TANDA_STATE",
					"name": "t_state",
					"type": "uint8"
				},
				{
					"internalType": "uint256",
					"name": "lastUpdateTimestamp",
					"type": "uint256"
				}
			],
			"stateMutability": "view",
			"type": "function"
		}
	],
	"storageLayout": {
		"storage": [
			{
				"astId": 3988,
				"contract": "contracts/ThriftClub.sol:ThriftClub",
				"label": "s_thriftClub",
				"offset": 0,
				"slot": "0",
				"type": "t_struct(ThriftClubData)3985_storage"
			},
			{
				"astId": 3991,
				"contract": "contracts/ThriftClub.sol:ThriftClub",
				"label": "paidParticipants",
				"offset": 0,
				"slot": "10",
				"type": "t_uint256"
			},
			{
				"astId": 3994,
				"contract": "contracts/ThriftClub.sol:ThriftClub",
				"label": "COORDINATOR",
				"offset": 0,
				"slot": "11",
				"type": "t_contract(VRFCoordinatorV2Interface)294"
			},
			{
				"astId": 3997,
				"contract": "contracts/ThriftClub.sol:ThriftClub",
				"label": "LINKTOKEN",
				"offset": 0,
				"slot": "12",
				"type": "t_contract(LinkTokenInterface)198"
			},
			{
				"astId": 4000,
				"contract": "contracts/ThriftClub.sol:ThriftClub",
				"label": "vrfCoordinator",
				"offset": 0,
				"slot": "13",
				"type": "t_address"
			},
			{
				"astId": 4003,
				"contract": "contracts/ThriftClub.sol:ThriftClub",
				"label": "link_token_contract",
				"offset": 0,
				"slot": "14",
				"type": "t_address"
			},
			{
				"astId": 4006,
				"contract": "contracts/ThriftClub.sol:ThriftClub",
				"label": "keyHash",
				"offset": 0,
				"slot": "15",
				"type": "t_bytes32"
			},
			{
				"astId": 4009,
				"contract": "contracts/ThriftClub.sol:ThriftClub",
				"label": "callbackGasLimit",
				"offset": 0,
				"slot": "16",
				"type": "t_uint32"
			},
			{
				"astId": 4012,
				"contract": "contracts/ThriftClub.sol:ThriftClub",
				"label": "requestConfirmations",
				"offset": 4,
				"slot": "16",
				"type": "t_uint16"
			},
			{
				"astId": 4015,
				"contract": "contracts/ThriftClub.sol:ThriftClub",
				"label": "numWords",
				"offset": 6,
				"slot": "16",
				"type": "t_uint32"
			},
			{
				"astId": 4018,
				"contract": "contracts/ThriftClub.sol:ThriftClub",
				"label": "s_randomWords",
				"offset": 0,
				"slot": "17",
				"type": "t_array(t_uint256)dyn_storage"
			},
			{
				"astId": 4020,
				"contract": "contracts/ThriftClub.sol:ThriftClub",
				"label": "s_requestId",
				"offset": 0,
				"slot": "18",
				"type": "t_uint256"
			},
			{
				"astId": 4022,
				"contract": "contracts/ThriftClub.sol:ThriftClub",
				"label": "s_subscriptionId",
				"offset": 0,
				"slot": "19",
				"type": "t_uint64"
			},
			{
				"astId": 4024,
				"contract": "contracts/ThriftClub.sol:ThriftClub",
				"label": "s_owner",
				"offset": 8,
				"slot": "19",
				"type": "t_address"
			},
			{
				"astId": 4063,
				"contract": "contracts/ThriftClub.sol:ThriftClub",
				"label": "priceFeed",
				"offset": 0,
				"slot": "20",
				"type": "t_contract(AggregatorV3Interface)103"
			},
			{
				"astId": 4065,
				"contract": "contracts/ThriftClub.sol:ThriftClub",
				"label": "i_priceFeedToken",
				"offset": 0,
				"slot": "21",
				"type": "t_address"
			},
			{
				"astId": 4069,
				"contract": "contracts/ThriftClub.sol:ThriftClub",
				"label": "isParticipant",
				"offset": 0,
				"slot": "22",
				"type": "t_mapping(t_address,t_bool)"
			},
			{
				"astId": 4072,
				"contract": "contracts/ThriftClub.sol:ThriftClub",
				"label": "participants",
				"offset": 0,
				"slot": "23",
				"type": "t_array(t_address)dyn_storage"
			},
			{
				"astId": 4076,
				"contract": "contracts/ThriftClub.sol:ThriftClub",
				"label": "hasPaidPenalty",
				"offset": 0,
				"slot": "24",
				"type": "t_mapping(t_address,t_bool)"
			},
			{
				"astId": 4079,
				"contract": "contracts/ThriftClub.sol:ThriftClub",
				"label": "daoContract",
				"offset": 0,
				"slot": "25",
				"type": "t_contract(IDAOContract)3783"
			},
			{
				"astId": 4280,
				"contract": "contracts/ThriftClub.sol:ThriftClub",
				"label": "ServiceFeePurse",
				"offset": 0,
				"slot": "26",
				"type": "t_uint256"
			},
			{
				"astId": 4284,
				"contract": "contracts/ThriftClub.sol:ThriftClub",
				"label": "ServiceFeePurseTokenBalances",
				"offset": 0,
				"slot": "27",
				"type": "t_mapping(t_address,t_uint256)"
			},
			{
				"astId": 4286,
				"contract": "contracts/ThriftClub.sol:ThriftClub",
				"label": "ThriftPurseBalance",
				"offset": 0,
				"slot": "28",
				"type": "t_uint256"
			},
			{
				"astId": 4290,
				"contract": "contracts/ThriftClub.sol:ThriftClub",
				"label": "ThriftPurseTokenBalance",
				"offset": 0,
				"slot": "29",
				"type": "t_mapping(t_address,t_uint256)"
			},
			{
				"astId": 4292,
				"contract": "contracts/ThriftClub.sol:ThriftClub",
				"label": "ThriftPursePenaltyBalance",
				"offset": 0,
				"slot": "30",
				"type": "t_uint256"
			},
			{
				"astId": 4296,
				"contract": "contracts/ThriftClub.sol:ThriftClub",
				"label": "ThriftPursePenaltyTokenBalance",
				"offset": 0,
				"slot": "31",
				"type": "t_mapping(t_address,t_uint256)"
			}
		],
		"types": {
			"t_address": {
				"encoding": "inplace",
				"label": "address",
				"numberOfBytes": "20"
			},
			"t_array(t_address)dyn_storage": {
				"base": "t_address",
				"encoding": "dynamic_array",
				"label": "address[]",
				"numberOfBytes": "32"
			},
			"t_array(t_uint256)dyn_storage": {
				"base": "t_uint256",
				"encoding": "dynamic_array",
				"label": "uint256[]",
				"numberOfBytes": "32"
			},
			"t_bool": {
				"encoding": "inplace",
				"label": "bool",
				"numberOfBytes": "1"
			},
			"t_bytes32": {
				"encoding": "inplace",
				"label": "bytes32",
				"numberOfBytes": "32"
			},
			"t_contract(AggregatorV3Interface)103": {
				"encoding": "inplace",
				"label": "contract AggregatorV3Interface",
				"numberOfBytes": "20"
			},
			"t_contract(IDAOContract)3783": {
				"encoding": "inplace",
				"label": "contract IDAOContract",
				"numberOfBytes": "20"
			},
			"t_contract(IERC721)2027": {
				"encoding": "inplace",
				"label": "contract IERC721",
				"numberOfBytes": "20"
			},
			"t_contract(LinkTokenInterface)198": {
				"encoding": "inplace",
				"label": "contract LinkTokenInterface",
				"numberOfBytes": "20"
			},
			"t_contract(VRFCoordinatorV2Interface)294": {
				"encoding": "inplace",
				"label": "contract VRFCoordinatorV2Interface",
				"numberOfBytes": "20"
			},
			"t_enum(TANDA_STATE)3959": {
				"encoding": "inplace",
				"label": "enum ThriftClub.TANDA_STATE",
				"numberOfBytes": "1"
			},
			"t_mapping(t_address,t_bool)": {
				"encoding": "mapping",
				"key": "t_address",
				"label": "mapping(address => bool)",
				"numberOfBytes": "32",
				"value": "t_bool"
			},
			"t_mapping(t_address,t_uint256)": {
				"encoding": "mapping",
				"key": "t_address",
				"label": "mapping(address => uint256)",
				"numberOfBytes": "32",
				"value": "t_uint256"
			},
			"t_string_storage": {
				"encoding": "bytes",
				"label": "string",
				"numberOfBytes": "32"
			},
			"t_struct(ThriftClubData)3985_storage": {
				"encoding": "inplace",
				"label": "struct ThriftClub.ThriftClubData",
				"members": [
					{
						"astId": 3961,
						"contract": "contracts/ThriftClub.sol:ThriftClub",
						"label": "token",
						"offset": 0,
						"slot": "0",
						"type": "t_address"
					},
					{
						"astId": 3963,
						"contract": "contracts/ThriftClub.sol:ThriftClub",
						"label": "cycleDuration",
						"offset": 0,
						"slot": "1",
						"type": "t_uint256"
					},
					{
						"astId": 3965,
						"contract": "contracts/ThriftClub.sol:ThriftClub",
						"label": "contributionAmount",
						"offset": 0,
						"slot": "2",
						"type": "t_uint256"
					},
					{
						"astId": 3967,
						"contract": "contracts/ThriftClub.sol:ThriftClub",
						"label": "penalty",
						"offset": 0,
						"slot": "3",
						"type": "t_uint256"
					},
					{
						"astId": 3969,
						"contract": "contracts/ThriftClub.sol:ThriftClub",
						"label": "maxParticipant",
						"offset": 0,
						"slot": "4",
						"type": "t_uint256"
					},
					{
						"astId": 3971,
						"contract": "contracts/ThriftClub.sol:ThriftClub",
						"label": "name",
						"offset": 0,
						"slot": "5",
						"type": "t_string_storage"
					},
					{
						"astId": 3973,
						"contract": "contracts/ThriftClub.sol:ThriftClub",
						"label": "description",
						"offset": 0,
						"slot": "6",
						"type": "t_string_storage"
					},
					{
						"astId": 3976,
						"contract": "contracts/ThriftClub.sol:ThriftClub",
						"label": "nftContract",
						"offset": 0,
						"slot": "7",
						"type": "t_contract(IERC721)2027"
					},
					{
						"astId": 3979,
						"contract": "contracts/ThriftClub.sol:ThriftClub",
						"label": "daoContract",
						"offset": 0,
						"slot": "8",
						"type": "t_contract(IDAOContract)3783"
					},
					{
						"astId": 3982,
						"contract": "contracts/ThriftClub.sol:ThriftClub",
						"label": "t_state",
						"offset": 20,
						"slot": "8",
						"type": "t_enum(TANDA_STATE)3959"
					},
					{
						"astId": 3984,
						"contract": "contracts/ThriftClub.sol:ThriftClub",
						"label": "lastUpdateTimestamp",
						"offset": 0,
						"slot": "9",
						"type": "t_uint256"
					}
				],
				"numberOfBytes": "320"
			},
			"t_uint16": {
				"encoding": "inplace",
				"label": "uint16",
				"numberOfBytes": "2"
			},
			"t_uint256": {
				"encoding": "inplace",
				"label": "uint256",
				"numberOfBytes": "32"
			},
			"t_uint32": {
				"encoding": "inplace",
				"label": "uint32",
				"numberOfBytes": "4"
			},
			"t_uint64": {
				"encoding": "inplace",
				"label": "uint64",
				"numberOfBytes": "8"
			}
		}
	},
	"web3Deploy": "var _token = /* var of type address here */ ;\nvar _cycleDuration = /* var of type uint256 here */ ;\nvar _contributionAmount = /* var of type uint256 here */ ;\nvar _penalty = /* var of type uint256 here */ ;\nvar _maxParticipant = /* var of type uint256 here */ ;\nvar _name = /* var of type string here */ ;\nvar _description = /* var of type string here */ ;\nvar _nftContract = /* var of type address here */ ;\nvar _daoContract = /* var of type address here */ ;\nvar thriftclubContract = new web3.eth.Contract([{\"inputs\":[{\"internalType\":\"address\",\"name\":\"_token\",\"type\":\"address\"},{\"internalType\":\"uint256\",\"name\":\"_cycleDuration\",\"type\":\"uint256\"},{\"internalType\":\"uint256\",\"name\":\"_contributionAmount\",\"type\":\"uint256\"},{\"internalType\":\"uint256\",\"name\":\"_penalty\",\"type\":\"uint256\"},{\"internalType\":\"uint256\",\"name\":\"_maxParticipant\",\"type\":\"uint256\"},{\"internalType\":\"string\",\"name\":\"_name\",\"type\":\"string\"},{\"internalType\":\"string\",\"name\":\"_description\",\"type\":\"string\"},{\"internalType\":\"address\",\"name\":\"_nftContract\",\"type\":\"address\"},{\"internalType\":\"address\",\"name\":\"_daoContract\",\"type\":\"address\"}],\"stateMutability\":\"nonpayable\",\"type\":\"constructor\"},{\"inputs\":[{\"internalType\":\"address\",\"name\":\"have\",\"type\":\"address\"},{\"internalType\":\"address\",\"name\":\"want\",\"type\":\"address\"}],\"name\":\"OnlyCoordinatorCanFulfill\",\"type\":\"error\"},{\"inputs\":[],\"name\":\"__TransferFailed\",\"type\":\"error\"},{\"anonymous\":false,\"inputs\":[{\"indexed\":false,\"internalType\":\"address\",\"name\":\"recipient\",\"type\":\"address\"},{\"indexed\":false,\"internalType\":\"uint256\",\"name\":\"amount\",\"type\":\"uint256\"}],\"name\":\"AddressPaid\",\"type\":\"event\"},{\"anonymous\":false,\"inputs\":[{\"indexed\":true,\"internalType\":\"address\",\"name\":\"winner\",\"type\":\"address\"}],\"name\":\"CycleStarted\",\"type\":\"event\"},{\"anonymous\":false,\"inputs\":[{\"indexed\":true,\"internalType\":\"address\",\"name\":\"participant\",\"type\":\"address\"}],\"name\":\"ParticipantJoined\",\"type\":\"event\"},{\"inputs\":[],\"name\":\"MAXIMUM_FEE_USD\",\"outputs\":[{\"internalType\":\"uint256\",\"name\":\"\",\"type\":\"uint256\"}],\"stateMutability\":\"view\",\"type\":\"function\"},{\"inputs\":[],\"name\":\"ServiceFeePurse\",\"outputs\":[{\"internalType\":\"uint256\",\"name\":\"\",\"type\":\"uint256\"}],\"stateMutability\":\"view\",\"type\":\"function\"},{\"inputs\":[{\"internalType\":\"address\",\"name\":\"\",\"type\":\"address\"}],\"name\":\"ServiceFeePurseTokenBalances\",\"outputs\":[{\"internalType\":\"uint256\",\"name\":\"\",\"type\":\"uint256\"}],\"stateMutability\":\"view\",\"type\":\"function\"},{\"inputs\":[],\"name\":\"ThriftPurseBalance\",\"outputs\":[{\"internalType\":\"uint256\",\"name\":\"\",\"type\":\"uint256\"}],\"stateMutability\":\"view\",\"type\":\"function\"},{\"inputs\":[],\"name\":\"ThriftPursePenaltyBalance\",\"outputs\":[{\"internalType\":\"uint256\",\"name\":\"\",\"type\":\"uint256\"}],\"stateMutability\":\"view\",\"type\":\"function\"},{\"inputs\":[{\"internalType\":\"address\",\"name\":\"\",\"type\":\"address\"}],\"name\":\"ThriftPursePenaltyTokenBalance\",\"outputs\":[{\"internalType\":\"uint256\",\"name\":\"\",\"type\":\"uint256\"}],\"stateMutability\":\"view\",\"type\":\"function\"},{\"inputs\":[{\"internalType\":\"address\",\"name\":\"\",\"type\":\"address\"}],\"name\":\"ThriftPurseTokenBalance\",\"outputs\":[{\"internalType\":\"uint256\",\"name\":\"\",\"type\":\"uint256\"}],\"stateMutability\":\"view\",\"type\":\"function\"},{\"inputs\":[{\"internalType\":\"bytes\",\"name\":\"checkData\",\"type\":\"bytes\"}],\"name\":\"checkUpkeep\",\"outputs\":[{\"internalType\":\"bool\",\"name\":\"upkeepNeeded\",\"type\":\"bool\"},{\"internalType\":\"bytes\",\"name\":\"performData\",\"type\":\"bytes\"}],\"stateMutability\":\"nonpayable\",\"type\":\"function\"},{\"inputs\":[],\"name\":\"daoContract\",\"outputs\":[{\"internalType\":\"contract IDAOContract\",\"name\":\"\",\"type\":\"address\"}],\"stateMutability\":\"view\",\"type\":\"function\"},{\"inputs\":[],\"name\":\"getSubscriptionId\",\"outputs\":[{\"internalType\":\"uint64\",\"name\":\"\",\"type\":\"uint64\"}],\"stateMutability\":\"view\",\"type\":\"function\"},{\"inputs\":[],\"name\":\"getThriftClubData\",\"outputs\":[{\"components\":[{\"internalType\":\"address\",\"name\":\"token\",\"type\":\"address\"},{\"internalType\":\"uint256\",\"name\":\"cycleDuration\",\"type\":\"uint256\"},{\"internalType\":\"uint256\",\"name\":\"contributionAmount\",\"type\":\"uint256\"},{\"internalType\":\"uint256\",\"name\":\"penalty\",\"type\":\"uint256\"},{\"internalType\":\"uint256\",\"name\":\"maxParticipant\",\"type\":\"uint256\"},{\"internalType\":\"string\",\"name\":\"name\",\"type\":\"string\"},{\"internalType\":\"string\",\"name\":\"description\",\"type\":\"string\"},{\"internalType\":\"contract IERC721\",\"name\":\"nftContract\",\"type\":\"address\"},{\"internalType\":\"contract IDAOContract\",\"name\":\"daoContract\",\"type\":\"address\"},{\"internalType\":\"enum ThriftClub.TANDA_STATE\",\"name\":\"t_state\",\"type\":\"uint8\"},{\"internalType\":\"uint256\",\"name\":\"lastUpdateTimestamp\",\"type\":\"uint256\"}],\"internalType\":\"struct ThriftClub.ThriftClubData\",\"name\":\"\",\"type\":\"tuple\"}],\"stateMutability\":\"view\",\"type\":\"function\"},{\"inputs\":[{\"internalType\":\"address\",\"name\":\"\",\"type\":\"address\"}],\"name\":\"hasPaidPenalty\",\"outputs\":[{\"internalType\":\"bool\",\"name\":\"\",\"type\":\"bool\"}],\"stateMutability\":\"view\",\"type\":\"function\"},{\"inputs\":[],\"name\":\"i_priceFeedToken\",\"outputs\":[{\"internalType\":\"address\",\"name\":\"\",\"type\":\"address\"}],\"stateMutability\":\"view\",\"type\":\"function\"},{\"inputs\":[{\"internalType\":\"address\",\"name\":\"\",\"type\":\"address\"}],\"name\":\"isParticipant\",\"outputs\":[{\"internalType\":\"bool\",\"name\":\"\",\"type\":\"bool\"}],\"stateMutability\":\"view\",\"type\":\"function\"},{\"inputs\":[{\"internalType\":\"address\",\"name\":\"_tokenAddress\",\"type\":\"address\"},{\"internalType\":\"uint256\",\"name\":\"_tokenAmount\",\"type\":\"uint256\"}],\"name\":\"joinThriftClub\",\"outputs\":[],\"stateMutability\":\"payable\",\"type\":\"function\"},{\"inputs\":[{\"internalType\":\"address\",\"name\":\"operator\",\"type\":\"address\"},{\"internalType\":\"address\",\"name\":\"from\",\"type\":\"address\"},{\"internalType\":\"uint256\",\"name\":\"tokenId\",\"type\":\"uint256\"},{\"internalType\":\"bytes\",\"name\":\"data\",\"type\":\"bytes\"}],\"name\":\"onERC721Received\",\"outputs\":[{\"internalType\":\"bytes4\",\"name\":\"\",\"type\":\"bytes4\"}],\"stateMutability\":\"nonpayable\",\"type\":\"function\"},{\"inputs\":[{\"internalType\":\"uint256\",\"name\":\"\",\"type\":\"uint256\"}],\"name\":\"participants\",\"outputs\":[{\"internalType\":\"address\",\"name\":\"\",\"type\":\"address\"}],\"stateMutability\":\"view\",\"type\":\"function\"},{\"inputs\":[{\"internalType\":\"address\",\"name\":\"_tokenAddress\",\"type\":\"address\"},{\"internalType\":\"uint256\",\"name\":\"_tokenAmount\",\"type\":\"uint256\"}],\"name\":\"payPenaltyFee\",\"outputs\":[],\"stateMutability\":\"payable\",\"type\":\"function\"},{\"inputs\":[{\"internalType\":\"bytes\",\"name\":\"performData\",\"type\":\"bytes\"}],\"name\":\"performUpkeep\",\"outputs\":[],\"stateMutability\":\"nonpayable\",\"type\":\"function\"},{\"inputs\":[{\"internalType\":\"uint256\",\"name\":\"requestId\",\"type\":\"uint256\"},{\"internalType\":\"uint256[]\",\"name\":\"randomWords\",\"type\":\"uint256[]\"}],\"name\":\"rawFulfillRandomWords\",\"outputs\":[],\"stateMutability\":\"nonpayable\",\"type\":\"function\"},{\"inputs\":[{\"internalType\":\"uint256\",\"name\":\"\",\"type\":\"uint256\"}],\"name\":\"s_randomWords\",\"outputs\":[{\"internalType\":\"uint256\",\"name\":\"\",\"type\":\"uint256\"}],\"stateMutability\":\"view\",\"type\":\"function\"},{\"inputs\":[],\"name\":\"s_requestId\",\"outputs\":[{\"internalType\":\"uint256\",\"name\":\"\",\"type\":\"uint256\"}],\"stateMutability\":\"view\",\"type\":\"function\"},{\"inputs\":[],\"name\":\"s_thriftClub\",\"outputs\":[{\"internalType\":\"address\",\"name\":\"token\",\"type\":\"address\"},{\"internalType\":\"uint256\",\"name\":\"cycleDuration\",\"type\":\"uint256\"},{\"internalType\":\"uint256\",\"name\":\"contributionAmount\",\"type\":\"uint256\"},{\"internalType\":\"uint256\",\"name\":\"penalty\",\"type\":\"uint256\"},{\"internalType\":\"uint256\",\"name\":\"maxParticipant\",\"type\":\"uint256\"},{\"internalType\":\"string\",\"name\":\"name\",\"type\":\"string\"},{\"internalType\":\"string\",\"name\":\"description\",\"type\":\"string\"},{\"internalType\":\"contract IERC721\",\"name\":\"nftContract\",\"type\":\"address\"},{\"internalType\":\"contract IDAOContract\",\"name\":\"daoContract\",\"type\":\"address\"},{\"internalType\":\"enum ThriftClub.TANDA_STATE\",\"name\":\"t_state\",\"type\":\"uint8\"},{\"internalType\":\"uint256\",\"name\":\"lastUpdateTimestamp\",\"type\":\"uint256\"}],\"stateMutability\":\"view\",\"type\":\"function\"}]);\nvar thriftclub = thriftclubContract.deploy({\n     data: '0x6101e06040526000600a55600d8054737a1bac17ccc5b313516c5e16fb24f7659aa5ebed6001600160a01b031991821617909155600e805473326c977e6efc84e512bb9c30f76e30c160ed06fb9083161790557f474e34a077df58807dbe9c96d3c009b23b3c6d0cce433e59bbf5b34f823bc56c600f55601080546001600160501b03191666010003000186a0179055601554601480546001600160a01b0390921691909216179055348015620000b557600080fd5b50604051620024b3380380620024b3833981016040819052620000d8916200050b565b600d546001600160a01b039081166080819052600b80546001600160a01b03199081169092179055600e54600c8054831691841691909117905573d0d5e3db44de05e9f294bb0a3beeaf030de24ada60a05273572ddec9087154dc5dfbb1546bb62713147e0ab060c0527392c09849638959196e976289418e5973cc96d64560e052730fcaa9c899ec5a91ebc3d5dd869de833b06fb04661010052727a22900a3b98143368bd5906f8e17e9867581b610120526000610140819052730fa8781a83e46826621b3bc094ea2a0212e71b236101605273a02f6adc7926efebbd59fd43a84f4e0c0c91e83261018052721b3b4d0f3714ca98ba10f6042daebf0b1b7b6f6101a052730d787a4a1548f673ed375445535a6c7a1ee561806101c0528054928c16929091169190911790556001889055600287905560038690556004859055600562000227858262000666565b50600662000236848262000666565b50600780546001600160a01b0319166001600160a01b0384811691909117909155600880546001600160a81b03191691831691909117905542600955816200027e8a6200028e565b5050505050505050505062000732565b610160516001600160a01b0316816001600160a01b031603620002d15761016051601580546001600160a01b0319166001600160a01b0390921691909117905550565b610180516001600160a01b0316816001600160a01b031603620003145761018051601580546001600160a01b0319166001600160a01b0390921691909117905550565b6101a0516001600160a01b0316816001600160a01b03160362000357576101a051601580546001600160a01b0319166001600160a01b0390921691909117905550565b6101c0516001600160a01b0316816001600160a01b0316036200039a576101c051601580546001600160a01b0319166001600160a01b0390921691909117905550565b610140516001600160a01b0316816001600160a01b031603620003dd5761014051601580546001600160a01b0319166001600160a01b0390921691909117905550565b60405162461bcd60e51b815260206004820152601560248201527f496e76616c696420746f6b656e20616464726573730000000000000000000000604482015260640160405180910390fd5b80516001600160a01b03811681146200044157600080fd5b919050565b634e487b7160e01b600052604160045260246000fd5b600082601f8301126200046e57600080fd5b81516001600160401b03808211156200048b576200048b62000446565b604051601f8301601f19908116603f01168101908282118183101715620004b657620004b662000446565b81604052838152602092508683858801011115620004d357600080fd5b600091505b83821015620004f75785820183015181830184015290820190620004d8565b600093810190920192909252949350505050565b60008060008060008060008060006101208a8c0312156200052b57600080fd5b620005368a62000429565b60208b015160408c015160608d015160808e015160a08f0151949d50929b50909950975095506001600160401b03808211156200057257600080fd5b620005808d838e016200045c565b955060c08c01519150808211156200059757600080fd5b50620005a68c828d016200045c565b935050620005b760e08b0162000429565b9150620005c86101008b0162000429565b90509295985092959850929598565b600181811c90821680620005ec57607f821691505b6020821081036200060d57634e487b7160e01b600052602260045260246000fd5b50919050565b601f8211156200066157600081815260208120601f850160051c810160208610156200063c5750805b601f850160051c820191505b818110156200065d5782815560010162000648565b5050505b505050565b81516001600160401b0381111562000682576200068262000446565b6200069a81620006938454620005d7565b8462000613565b602080601f831160018114620006d25760008415620006b95750858301515b600019600386901b1c1916600185901b1785556200065d565b600085815260208120601f198616915b828110156200070357888601518255948401946001909101908401620006e2565b5085821015620007225787850151600019600388901b60f8161c191681555b5050505050600190811b01905550565b60805160a05160c05160e05161010051610120516101405161016051610180516101a0516101c051611d0e620007a5600039600050506000505060005050600050506000505060005050600050506000505060005050600061062a0152600081816109cb0152610a0d0152611d0e6000f3fe6080604052600436106101405760003560e01c80636adc21ea116100b6578063993f507c1161006f578063993f507c146103eb578063b8d6338d14610417578063de28c2ec14610439578063de3d9fb71461044f578063e89e106a14610478578063f6eaffc81461048e57600080fd5b80636adc21ea146103275780636e04ff0d1461033a57806376fe16cb14610368578063774dee89146103885780638fd2ea4a146103a5578063929066f5146103bb57600080fd5b806335c1d3491161010857806335c1d3491461022c5780634585e33b146102645780634a7ffcbc146102845780634bca67bf146102a45780635226e60b146102e45780635fa17ec5146102fa57600080fd5b80630a1b0e3c14610145578063150b7a02146101855780631fbfce1b146101ca5780631fe543e3146101df5780632c7eb91d146101ff575b600080fd5b34801561015157600080fd5b506101726101603660046116b6565b601d6020526000908152604090205481565b6040519081526020015b60405180910390f35b34801561019157600080fd5b506101b16101a036600461171a565b630a85bd0160e11b95945050505050565b6040516001600160e01b0319909116815260200161017c565b6101dd6101d8366004611789565b6104ae565b005b3480156101eb57600080fd5b506101dd6101fa3660046117c9565b6109c0565b34801561020b57600080fd5b5061017261021a3660046116b6565b601b6020526000908152604090205481565b34801561023857600080fd5b5061024c610247366004611893565b610a48565b6040516001600160a01b03909116815260200161017c565b34801561027057600080fd5b506101dd61027f3660046118ac565b610a72565b34801561029057600080fd5b5060195461024c906001600160a01b031681565b3480156102b057600080fd5b506102d46102bf3660046116b6565b60186020526000908152604090205460ff1681565b604051901515815260200161017c565b3480156102f057600080fd5b50610172601a5481565b34801561030657600080fd5b506101726103153660046116b6565b601f6020526000908152604090205481565b6101dd610335366004611789565b610abd565b34801561034657600080fd5b5061035a6103553660046118ac565b610d2c565b60405161017c929190611934565b34801561037457600080fd5b5060155461024c906001600160a01b031681565b34801561039457600080fd5b506101726802b5e3af16b188000081565b3480156103b157600080fd5b50610172601e5481565b3480156103c757600080fd5b506102d46103d63660046116b6565b60166020526000908152604090205460ff1681565b3480156103f757600080fd5b50610400610dc7565b60405161017c9b9a9998979695949392919061198f565b34801561042357600080fd5b5061042c610f35565b60405161017c9190611a18565b34801561044557600080fd5b50610172601c5481565b34801561045b57600080fd5b5060135460405167ffffffffffffffff909116815260200161017c565b34801561048457600080fd5b5061017260125481565b34801561049a57600080fd5b506101726104a9366004611893565b6110ee565b6104b66115b4565b3360009081526018602052604090205460ff166105115760405162461bcd60e51b815260206004820152601460248201527314195b985b1d1e48199959481b9bdd081c185a5960621b60448201526064015b60405180910390fd5b3360009081526016602052604090205460ff16156105695760405162461bcd60e51b8152602060048201526015602482015274105b1c9958591e4818481c185c9d1a58da5c185b9d605a1b6044820152606401610508565b6000546001600160a01b038481169116146105965760405162461bcd60e51b815260040161050890611af5565b6001600160a01b0383166106c9576802b5e3af16b188000081604001516105bd9190611b32565b34146105fe5760405162461bcd60e51b815260206004820152601060248201526f125b98dbdc9c9958dd08185b5bdd5b9d60821b6044820152606401610508565b60006802b5e3af16b188000061061560c834611b5b565b11156106555761064e6802b5e3af16b18800007f000000000000000000000000000000000000000000000000000000000000000061110f565b9050610663565b61066060c834611b5b565b90505b80601a60008282546106759190611b32565b90915550506040820151601c8054600090610691908490611b32565b909155505060405130903480156108fc02916000818181858888f193505050501580156106c2573d6000803e3d6000fd5b50506108ac565b341561070d5760405162461bcd60e51b8152602060048201526013602482015272496e76616c69642045746865722076616c756560681b6044820152606401610508565b600082116107545760405162461bcd60e51b8152602060048201526014602482015273125b9d985b1a59081d1bdad95b88185b5bdd5b9d60621b6044820152606401610508565b80516001600160a01b038481169116146107805760405162461bcd60e51b815260040161050890611af5565b60006802b5e3af16b188000061079760c885611b5b565b11156107c4576014546107bd906802b5e3af16b1880000906001600160a01b031661110f565b90506107d2565b6107cf60c884611b5b565b90505b6001600160a01b0384166000908152601b6020526040812080548392906107fa908490611b32565b90915550506040808301516001600160a01b0386166000908152601d60205291822080549192909161082d908490611b32565b90915550506040516323b872dd60e01b8152336004820152306024820152604481018490526001600160a01b038516906323b872dd906064016020604051808303816000875af1158015610885573d6000803e3d6000fd5b505050506040513d601f19601f820116820180604052508101906108a99190611b6f565b50505b6017805460018082019092557fc624b66cc0138b8fabc209247f72d758e1cf3343756d543badbf24212bed8c150180546001600160a01b0319163390811790915560008181526016602052604090819020805460ff1916909317909255601954915163329b55b760e21b815260048101919091526001600160a01b039091169063ca6d56dc90602401600060405180830381600087803b15801561094f57600080fd5b505af1158015610963573d6000803e3d6000fd5b50506040513392507f6cd71e167cab47cb2ccb763aada102691b585b848adb6395f1da4ac187b9214a9150600090a26017546080820151036109bb57600281610120015160038111156109b8576109b8611957565b50505b505050565b336001600160a01b037f00000000000000000000000000000000000000000000000000000000000000001614610a3a5760405163073e64fd60e21b81523360048201526001600160a01b037f0000000000000000000000000000000000000000000000000000000000000000166024820152604401610508565b610a448282611147565b5050565b60178181548110610a5857600080fd5b6000918252602090912001546001600160a01b0316905081565b600854600954600154600160a01b90920460ff16916002836003811115610a9b57610a9b611957565b148015610ab05750610aad8183611b32565b42115b156109b8576109b8611473565b610ac56115b4565b3360009081526018602052604090205460ff1615610b255760405162461bcd60e51b815260206004820152601860248201527f50656e616c74792066656520616c7265616479207061696400000000000000006044820152606401610508565b6000546001600160a01b03848116911614610b525760405162461bcd60e51b815260040161050890611af5565b6001600160a01b038316610c005780606001513414610bb35760405162461bcd60e51b815260206004820152601c60248201527f496e636f72726563742070656e616c74792066656520616d6f756e74000000006044820152606401610508565b8060600151601e6000828254610bc99190611b32565b909155505060405130903480156108fc02916000818181858888f19350505050158015610bfa573d6000803e3d6000fd5b50610d0d565b80606001518214610c625760405162461bcd60e51b815260206004820152602660248201527f496e636f727265637420746f6b656e20616d6f756e7420666f722070656e616c60448201526574792066656560d01b6064820152608401610508565b60608101516001600160a01b0384166000908152601f602052604081208054909190610c8f908490611b32565b90915550506040516323b872dd60e01b8152336004820152306024820152604481018390526001600160a01b038416906323b872dd906064016020604051808303816000875af1158015610ce7573d6000803e3d6000fd5b505050506040513d601f19601f82011682018060405250810190610d0b9190611b6f565b505b5050336000908152601860205260409020805460ff1916600117905550565b600854600954600154600092606092600160a01b90910460ff16916002836003811115610d5b57610d5b611957565b148015610d705750610d6d8183611b32565b42115b15610d7e5760019450610d83565b600094505b86868080601f016020809104026020016040519081016040528093929190818152602001838380828437600092019190915250979a92995091975050505050505050565b60008054600154600254600354600454600580546001600160a01b0390961696949593949293919291610df990611b91565b80601f0160208091040260200160405190810160405280929190818152602001828054610e2590611b91565b8015610e725780601f10610e4757610100808354040283529160200191610e72565b820191906000526020600020905b815481529060010190602001808311610e5557829003601f168201915b505050505090806006018054610e8790611b91565b80601f0160208091040260200160405190810160405280929190818152602001828054610eb390611b91565b8015610f005780601f10610ed557610100808354040283529160200191610f00565b820191906000526020600020905b815481529060010190602001808311610ee357829003601f168201915b505050506007830154600884015460099094015492936001600160a01b03918216939181169250600160a01b900460ff16908b565b610f3d6115b4565b60408051610160810182526000546001600160a01b03168152600154602082015260025491810191909152600354606082015260045460808201526005805460a083019190610f8b90611b91565b80601f0160208091040260200160405190810160405280929190818152602001828054610fb790611b91565b80156110045780601f10610fd957610100808354040283529160200191611004565b820191906000526020600020905b815481529060010190602001808311610fe757829003601f168201915b505050505081526020016000600601805461101e90611b91565b80601f016020809104026020016040519081016040528092919081815260200182805461104a90611b91565b80156110975780601f1061106c57610100808354040283529160200191611097565b820191906000526020600020905b81548152906001019060200180831161107a57829003601f168201915b50505091835250506007546001600160a01b0390811660208301526008549081166040830152606090910190600160a01b900460ff1660038111156110de576110de611957565b8152600954602090910152919050565b601181815481106110fe57600080fd5b600091825260209091200154905081565b60008061111b83611531565b90506000670de0b6b3a76400006111328387611bcb565b61113c9190611b5b565b925050505b92915050565b805161115a90601190602084019061163a565b506000601780549050601160008154811061117757611177611be2565b906000526020600020015461118c9190611bf8565b90506000601782815481106111a3576111a3611be2565b600091825260209091200154601c546001600160a01b0390911691501515806111e35750600080546001600160a01b03168152601d602052604090205415155b61122f5760405162461bcd60e51b815260206004820152601d60248201527f4e6f2062616c616e636520696e207468652054687269667450757273650000006044820152606401610508565b601c54156112f257601c5460405160009133918381818185875af1925050503d806000811461127a576040519150601f19603f3d011682016040523d82523d6000602084013e61127f565b606091505b50509050806112a157604051633bdf630f60e11b815260040160405180910390fd5b601c54604080516001600160a01b038516815260208101929092527ff2956657db703b4160a4041a597ea008de026af5e167af02f4be706e475f6bd4910160405180910390a1506000601c55611427565b600080546001600160a01b03168152601d60205260409020541561142757600080546001600160a01b0316808252601d602052604080832054905163a9059cbb60e01b81523360048201526024810191909152909190829063a9059cbb906044016020604051808303816000875af1158015611372573d6000803e3d6000fd5b505050506040513d601f19601f820116820180604052508101906113969190611b6f565b9050806113b657604051633bdf630f60e11b815260040160405180910390fd5b600080546001600160a01b039081168252601d60209081526040928390205483519287168352908201527ff2956657db703b4160a4041a597ea008de026af5e167af02f4be706e475f6bd4910160405180910390a15050600080546001600160a01b03168152601d60205260408120555b600a805490600061143783611c0c565b9091555050600454600a540361145f576008805460ff60a01b1916600160a01b17905561146d565b6008805460ff60a01b191690555b50505050565b600b54600f546013546010546040516305d3b1d360e41b8152600481019390935267ffffffffffffffff9091166024830152640100000000810461ffff16604483015263ffffffff808216606484015266010000000000009091041660848201526001600160a01b0390911690635d3b1d309060a4016020604051808303816000875af1158015611508573d6000803e3d6000fd5b505050506040513d601f19601f8201168201806040525081019061152c9190611c25565b601255565b600080826001600160a01b031663feaf968c6040518163ffffffff1660e01b815260040160a060405180830381865afa158015611572573d6000803e3d6000fd5b505050506040513d601f19601f820116820180604052508101906115969190611c58565b505050915050806402540be4006115ad9190611ca8565b9392505050565b60405180610160016040528060006001600160a01b0316815260200160008152602001600081526020016000815260200160008152602001606081526020016060815260200160006001600160a01b0316815260200160006001600160a01b031681526020016000600381111561162d5761162d611957565b8152602001600081525090565b828054828255906000526020600020908101928215611675579160200282015b8281111561167557825182559160200191906001019061165a565b50611681929150611685565b5090565b5b808211156116815760008155600101611686565b80356001600160a01b03811681146116b157600080fd5b919050565b6000602082840312156116c857600080fd5b6115ad8261169a565b60008083601f8401126116e357600080fd5b50813567ffffffffffffffff8111156116fb57600080fd5b60208301915083602082850101111561171357600080fd5b9250929050565b60008060008060006080868803121561173257600080fd5b61173b8661169a565b94506117496020870161169a565b935060408601359250606086013567ffffffffffffffff81111561176c57600080fd5b611778888289016116d1565b969995985093965092949392505050565b6000806040838503121561179c57600080fd5b6117a58361169a565b946020939093013593505050565b634e487b7160e01b600052604160045260246000fd5b600080604083850312156117dc57600080fd5b8235915060208084013567ffffffffffffffff808211156117fc57600080fd5b818601915086601f83011261181057600080fd5b813581811115611822576118226117b3565b8060051b604051601f19603f83011681018181108582111715611847576118476117b3565b60405291825284820192508381018501918983111561186557600080fd5b938501935b828510156118835784358452938501939285019261186a565b8096505050505050509250929050565b6000602082840312156118a557600080fd5b5035919050565b600080602083850312156118bf57600080fd5b823567ffffffffffffffff8111156118d657600080fd5b6118e2858286016116d1565b90969095509350505050565b6000815180845260005b81811015611914576020818501810151868301820152016118f8565b506000602082860101526020601f19601f83011685010191505092915050565b821515815260406020820152600061194f60408301846118ee565b949350505050565b634e487b7160e01b600052602160045260246000fd5b6004811061198b57634e487b7160e01b600052602160045260246000fd5b9052565b600061016060018060a01b03808f1684528d60208501528c60408501528b60608501528a60808501528160a08501526119ca8285018b6118ee565b915083820360c08501526119de828a6118ee565b925080881660e08501528087166101008501525050611a0161012083018561196d565b826101408301529c9b505050505050505050505050565b60208152611a326020820183516001600160a01b03169052565b602082015160408201526040820151606082015260608201516080820152608082015160a0820152600060a08301516101608060c0850152611a786101808501836118ee565b915060c0850151601f198584030160e0860152611a9583826118ee565b92505060e0850151610100611ab4818701836001600160a01b03169052565b8601519050610120611ad0868201836001600160a01b03169052565b8601519050610140611ae48682018361196d565b959095015193019290925250919050565b6020808252600d908201526c24b73b30b634b2103a37b5b2b760991b604082015260600190565b634e487b7160e01b600052601160045260246000fd5b8082018082111561114157611141611b1c565b634e487b7160e01b600052601260045260246000fd5b600082611b6a57611b6a611b45565b500490565b600060208284031215611b8157600080fd5b815180151581146115ad57600080fd5b600181811c90821680611ba557607f821691505b602082108103611bc557634e487b7160e01b600052602260045260246000fd5b50919050565b808202811582820484141761114157611141611b1c565b634e487b7160e01b600052603260045260246000fd5b600082611c0757611c07611b45565b500690565b600060018201611c1e57611c1e611b1c565b5060010190565b600060208284031215611c3757600080fd5b5051919050565b805169ffffffffffffffffffff811681146116b157600080fd5b600080600080600060a08688031215611c7057600080fd5b611c7986611c3e565b9450602086015193506040860151925060608601519150611c9c60808701611c3e565b90509295509295909350565b80820260008212600160ff1b84141615611cc457611cc4611b1c565b818105831482151761114157611141611b1c56fea2646970667358221220c796f55f9f0edc4a7cb451f4a10ca0eef27191934f32dfa14d575137f4c6ca4164736f6c63430008120033', \n     arguments: [\n          _token,\n          _cycleDuration,\n          _contributionAmount,\n          _penalty,\n          _maxParticipant,\n          _name,\n          _description,\n          _nftContract,\n          _daoContract,\n     ]\n}).send({\n     from: web3.eth.accounts[0], \n     gas: '4700000'\n   }, function (e, contract){\n    console.log(e, contract);\n    if (typeof contract.address !== 'undefined') {\n         console.log('Contract mined! address: ' + contract.address + ' transactionHash: ' + contract.transactionHash);\n    }\n })",
	"functionHashes": {
		"774dee89": "MAXIMUM_FEE_USD()",
		"5226e60b": "ServiceFeePurse()",
		"2c7eb91d": "ServiceFeePurseTokenBalances(address)",
		"de28c2ec": "ThriftPurseBalance()",
		"8fd2ea4a": "ThriftPursePenaltyBalance()",
		"5fa17ec5": "ThriftPursePenaltyTokenBalance(address)",
		"0a1b0e3c": "ThriftPurseTokenBalance(address)",
		"6e04ff0d": "checkUpkeep(bytes)",
		"4a7ffcbc": "daoContract()",
		"de3d9fb7": "getSubscriptionId()",
		"b8d6338d": "getThriftClubData()",
		"4bca67bf": "hasPaidPenalty(address)",
		"76fe16cb": "i_priceFeedToken()",
		"929066f5": "isParticipant(address)",
		"1fbfce1b": "joinThriftClub(address,uint256)",
		"150b7a02": "onERC721Received(address,address,uint256,bytes)",
		"35c1d349": "participants(uint256)",
		"6adc21ea": "payPenaltyFee(address,uint256)",
		"4585e33b": "performUpkeep(bytes)",
		"1fe543e3": "rawFulfillRandomWords(uint256,uint256[])",
		"f6eaffc8": "s_randomWords(uint256)",
		"e89e106a": "s_requestId()",
		"993f507c": "s_thriftClub()"
	},
	"gasEstimates": {
		"Creation": {
			"codeDepositCost": "1487600",
			"executionCost": "infinite",
			"totalCost": "infinite"
		},
		"External": {
			"MAXIMUM_FEE_USD()": "273",
			"ServiceFeePurse()": "2395",
			"ServiceFeePurseTokenBalances(address)": "2620",
			"ThriftPurseBalance()": "2350",
			"ThriftPursePenaltyBalance()": "2395",
			"ThriftPursePenaltyTokenBalance(address)": "2641",
			"ThriftPurseTokenBalance(address)": "2532",
			"checkUpkeep(bytes)": "infinite",
			"daoContract()": "2404",
			"getSubscriptionId()": "2377",
			"getThriftClubData()": "infinite",
			"hasPaidPenalty(address)": "2620",
			"i_priceFeedToken()": "2404",
			"isParticipant(address)": "2664",
			"joinThriftClub(address,uint256)": "infinite",
			"onERC721Received(address,address,uint256,bytes)": "infinite",
			"participants(uint256)": "4637",
			"payPenaltyFee(address,uint256)": "infinite",
			"performUpkeep(bytes)": "infinite",
			"rawFulfillRandomWords(uint256,uint256[])": "infinite",
			"s_randomWords(uint256)": "4696",
			"s_requestId()": "2394",
			"s_thriftClub()": "infinite"
		},
		"Internal": {
			"fulfillRandomWords(uint256,uint256[] memory)": "infinite",
			"isValidToken(address)": "infinite",
			"requestRandomWords()": "infinite",
			"setPriceFeedToken(address)": "infinite",
			"setSubscriptionId(uint64)": "infinite"
		}
	},
	"devdoc": {
		"kind": "dev",
		"methods": {
			"onERC721Received(address,address,uint256,bytes)": {
				"details": "Whenever an {IERC721} `tokenId` token is transferred to this contract via {IERC721-safeTransferFrom} by `operator` from `from`, this function is called. It must return its Solidity selector to confirm the token transfer. If any other value is returned or the interface is not implemented by the recipient, the transfer will be reverted. The selector can be obtained in Solidity with `IERC721Receiver.onERC721Received.selector`."
			}
		},
		"version": 1
	},
	"userdoc": {
		"kind": "user",
		"methods": {},
		"version": 1
	},
	"Runtime Bytecode": {
		"immutableReferences": {
			"10": [
				{
					"length": 32,
					"start": 2507
				},
				{
					"length": 32,
					"start": 2573
				}
			],
			"4030": [
				{
					"length": 32,
					"start": 1578
				}
			]
		},
		"linkReferences": {},
		"object": "6080604052600436106101405760003560e01c80636adc21ea116100b6578063993f507c1161006f578063993f507c146103eb578063b8d6338d14610417578063de28c2ec14610439578063de3d9fb71461044f578063e89e106a14610478578063f6eaffc81461048e57600080fd5b80636adc21ea146103275780636e04ff0d1461033a57806376fe16cb14610368578063774dee89146103885780638fd2ea4a146103a5578063929066f5146103bb57600080fd5b806335c1d3491161010857806335c1d3491461022c5780634585e33b146102645780634a7ffcbc146102845780634bca67bf146102a45780635226e60b146102e45780635fa17ec5146102fa57600080fd5b80630a1b0e3c14610145578063150b7a02146101855780631fbfce1b146101ca5780631fe543e3146101df5780632c7eb91d146101ff575b600080fd5b34801561015157600080fd5b506101726101603660046116b6565b601d6020526000908152604090205481565b6040519081526020015b60405180910390f35b34801561019157600080fd5b506101b16101a036600461171a565b630a85bd0160e11b95945050505050565b6040516001600160e01b0319909116815260200161017c565b6101dd6101d8366004611789565b6104ae565b005b3480156101eb57600080fd5b506101dd6101fa3660046117c9565b6109c0565b34801561020b57600080fd5b5061017261021a3660046116b6565b601b6020526000908152604090205481565b34801561023857600080fd5b5061024c610247366004611893565b610a48565b6040516001600160a01b03909116815260200161017c565b34801561027057600080fd5b506101dd61027f3660046118ac565b610a72565b34801561029057600080fd5b5060195461024c906001600160a01b031681565b3480156102b057600080fd5b506102d46102bf3660046116b6565b60186020526000908152604090205460ff1681565b604051901515815260200161017c565b3480156102f057600080fd5b50610172601a5481565b34801561030657600080fd5b506101726103153660046116b6565b601f6020526000908152604090205481565b6101dd610335366004611789565b610abd565b34801561034657600080fd5b5061035a6103553660046118ac565b610d2c565b60405161017c929190611934565b34801561037457600080fd5b5060155461024c906001600160a01b031681565b34801561039457600080fd5b506101726802b5e3af16b188000081565b3480156103b157600080fd5b50610172601e5481565b3480156103c757600080fd5b506102d46103d63660046116b6565b60166020526000908152604090205460ff1681565b3480156103f757600080fd5b50610400610dc7565b60405161017c9b9a9998979695949392919061198f565b34801561042357600080fd5b5061042c610f35565b60405161017c9190611a18565b34801561044557600080fd5b50610172601c5481565b34801561045b57600080fd5b5060135460405167ffffffffffffffff909116815260200161017c565b34801561048457600080fd5b5061017260125481565b34801561049a57600080fd5b506101726104a9366004611893565b6110ee565b6104b66115b4565b3360009081526018602052604090205460ff166105115760405162461bcd60e51b815260206004820152601460248201527314195b985b1d1e48199959481b9bdd081c185a5960621b60448201526064015b60405180910390fd5b3360009081526016602052604090205460ff16156105695760405162461bcd60e51b8152602060048201526015602482015274105b1c9958591e4818481c185c9d1a58da5c185b9d605a1b6044820152606401610508565b6000546001600160a01b038481169116146105965760405162461bcd60e51b815260040161050890611af5565b6001600160a01b0383166106c9576802b5e3af16b188000081604001516105bd9190611b32565b34146105fe5760405162461bcd60e51b815260206004820152601060248201526f125b98dbdc9c9958dd08185b5bdd5b9d60821b6044820152606401610508565b60006802b5e3af16b188000061061560c834611b5b565b11156106555761064e6802b5e3af16b18800007f000000000000000000000000000000000000000000000000000000000000000061110f565b9050610663565b61066060c834611b5b565b90505b80601a60008282546106759190611b32565b90915550506040820151601c8054600090610691908490611b32565b909155505060405130903480156108fc02916000818181858888f193505050501580156106c2573d6000803e3d6000fd5b50506108ac565b341561070d5760405162461bcd60e51b8152602060048201526013602482015272496e76616c69642045746865722076616c756560681b6044820152606401610508565b600082116107545760405162461bcd60e51b8152602060048201526014602482015273125b9d985b1a59081d1bdad95b88185b5bdd5b9d60621b6044820152606401610508565b80516001600160a01b038481169116146107805760405162461bcd60e51b815260040161050890611af5565b60006802b5e3af16b188000061079760c885611b5b565b11156107c4576014546107bd906802b5e3af16b1880000906001600160a01b031661110f565b90506107d2565b6107cf60c884611b5b565b90505b6001600160a01b0384166000908152601b6020526040812080548392906107fa908490611b32565b90915550506040808301516001600160a01b0386166000908152601d60205291822080549192909161082d908490611b32565b90915550506040516323b872dd60e01b8152336004820152306024820152604481018490526001600160a01b038516906323b872dd906064016020604051808303816000875af1158015610885573d6000803e3d6000fd5b505050506040513d601f19601f820116820180604052508101906108a99190611b6f565b50505b6017805460018082019092557fc624b66cc0138b8fabc209247f72d758e1cf3343756d543badbf24212bed8c150180546001600160a01b0319163390811790915560008181526016602052604090819020805460ff1916909317909255601954915163329b55b760e21b815260048101919091526001600160a01b039091169063ca6d56dc90602401600060405180830381600087803b15801561094f57600080fd5b505af1158015610963573d6000803e3d6000fd5b50506040513392507f6cd71e167cab47cb2ccb763aada102691b585b848adb6395f1da4ac187b9214a9150600090a26017546080820151036109bb57600281610120015160038111156109b8576109b8611957565b50505b505050565b336001600160a01b037f00000000000000000000000000000000000000000000000000000000000000001614610a3a5760405163073e64fd60e21b81523360048201526001600160a01b037f0000000000000000000000000000000000000000000000000000000000000000166024820152604401610508565b610a448282611147565b5050565b60178181548110610a5857600080fd5b6000918252602090912001546001600160a01b0316905081565b600854600954600154600160a01b90920460ff16916002836003811115610a9b57610a9b611957565b148015610ab05750610aad8183611b32565b42115b156109b8576109b8611473565b610ac56115b4565b3360009081526018602052604090205460ff1615610b255760405162461bcd60e51b815260206004820152601860248201527f50656e616c74792066656520616c7265616479207061696400000000000000006044820152606401610508565b6000546001600160a01b03848116911614610b525760405162461bcd60e51b815260040161050890611af5565b6001600160a01b038316610c005780606001513414610bb35760405162461bcd60e51b815260206004820152601c60248201527f496e636f72726563742070656e616c74792066656520616d6f756e74000000006044820152606401610508565b8060600151601e6000828254610bc99190611b32565b909155505060405130903480156108fc02916000818181858888f19350505050158015610bfa573d6000803e3d6000fd5b50610d0d565b80606001518214610c625760405162461bcd60e51b815260206004820152602660248201527f496e636f727265637420746f6b656e20616d6f756e7420666f722070656e616c60448201526574792066656560d01b6064820152608401610508565b60608101516001600160a01b0384166000908152601f602052604081208054909190610c8f908490611b32565b90915550506040516323b872dd60e01b8152336004820152306024820152604481018390526001600160a01b038416906323b872dd906064016020604051808303816000875af1158015610ce7573d6000803e3d6000fd5b505050506040513d601f19601f82011682018060405250810190610d0b9190611b6f565b505b5050336000908152601860205260409020805460ff1916600117905550565b600854600954600154600092606092600160a01b90910460ff16916002836003811115610d5b57610d5b611957565b148015610d705750610d6d8183611b32565b42115b15610d7e5760019450610d83565b600094505b86868080601f016020809104026020016040519081016040528093929190818152602001838380828437600092019190915250979a92995091975050505050505050565b60008054600154600254600354600454600580546001600160a01b0390961696949593949293919291610df990611b91565b80601f0160208091040260200160405190810160405280929190818152602001828054610e2590611b91565b8015610e725780601f10610e4757610100808354040283529160200191610e72565b820191906000526020600020905b815481529060010190602001808311610e5557829003601f168201915b505050505090806006018054610e8790611b91565b80601f0160208091040260200160405190810160405280929190818152602001828054610eb390611b91565b8015610f005780601f10610ed557610100808354040283529160200191610f00565b820191906000526020600020905b815481529060010190602001808311610ee357829003601f168201915b505050506007830154600884015460099094015492936001600160a01b03918216939181169250600160a01b900460ff16908b565b610f3d6115b4565b60408051610160810182526000546001600160a01b03168152600154602082015260025491810191909152600354606082015260045460808201526005805460a083019190610f8b90611b91565b80601f0160208091040260200160405190810160405280929190818152602001828054610fb790611b91565b80156110045780601f10610fd957610100808354040283529160200191611004565b820191906000526020600020905b815481529060010190602001808311610fe757829003601f168201915b505050505081526020016000600601805461101e90611b91565b80601f016020809104026020016040519081016040528092919081815260200182805461104a90611b91565b80156110975780601f1061106c57610100808354040283529160200191611097565b820191906000526020600020905b81548152906001019060200180831161107a57829003601f168201915b50505091835250506007546001600160a01b0390811660208301526008549081166040830152606090910190600160a01b900460ff1660038111156110de576110de611957565b8152600954602090910152919050565b601181815481106110fe57600080fd5b600091825260209091200154905081565b60008061111b83611531565b90506000670de0b6b3a76400006111328387611bcb565b61113c9190611b5b565b925050505b92915050565b805161115a90601190602084019061163a565b506000601780549050601160008154811061117757611177611be2565b906000526020600020015461118c9190611bf8565b90506000601782815481106111a3576111a3611be2565b600091825260209091200154601c546001600160a01b0390911691501515806111e35750600080546001600160a01b03168152601d602052604090205415155b61122f5760405162461bcd60e51b815260206004820152601d60248201527f4e6f2062616c616e636520696e207468652054687269667450757273650000006044820152606401610508565b601c54156112f257601c5460405160009133918381818185875af1925050503d806000811461127a576040519150601f19603f3d011682016040523d82523d6000602084013e61127f565b606091505b50509050806112a157604051633bdf630f60e11b815260040160405180910390fd5b601c54604080516001600160a01b038516815260208101929092527ff2956657db703b4160a4041a597ea008de026af5e167af02f4be706e475f6bd4910160405180910390a1506000601c55611427565b600080546001600160a01b03168152601d60205260409020541561142757600080546001600160a01b0316808252601d602052604080832054905163a9059cbb60e01b81523360048201526024810191909152909190829063a9059cbb906044016020604051808303816000875af1158015611372573d6000803e3d6000fd5b505050506040513d601f19601f820116820180604052508101906113969190611b6f565b9050806113b657604051633bdf630f60e11b815260040160405180910390fd5b600080546001600160a01b039081168252601d60209081526040928390205483519287168352908201527ff2956657db703b4160a4041a597ea008de026af5e167af02f4be706e475f6bd4910160405180910390a15050600080546001600160a01b03168152601d60205260408120555b600a805490600061143783611c0c565b9091555050600454600a540361145f576008805460ff60a01b1916600160a01b17905561146d565b6008805460ff60a01b191690555b50505050565b600b54600f546013546010546040516305d3b1d360e41b8152600481019390935267ffffffffffffffff9091166024830152640100000000810461ffff16604483015263ffffffff808216606484015266010000000000009091041660848201526001600160a01b0390911690635d3b1d309060a4016020604051808303816000875af1158015611508573d6000803e3d6000fd5b505050506040513d601f19601f8201168201806040525081019061152c9190611c25565b601255565b600080826001600160a01b031663feaf968c6040518163ffffffff1660e01b815260040160a060405180830381865afa158015611572573d6000803e3d6000fd5b505050506040513d601f19601f820116820180604052508101906115969190611c58565b505050915050806402540be4006115ad9190611ca8565b9392505050565b60405180610160016040528060006001600160a01b0316815260200160008152602001600081526020016000815260200160008152602001606081526020016060815260200160006001600160a01b0316815260200160006001600160a01b031681526020016000600381111561162d5761162d611957565b8152602001600081525090565b828054828255906000526020600020908101928215611675579160200282015b8281111561167557825182559160200191906001019061165a565b50611681929150611685565b5090565b5b808211156116815760008155600101611686565b80356001600160a01b03811681146116b157600080fd5b919050565b6000602082840312156116c857600080fd5b6115ad8261169a565b60008083601f8401126116e357600080fd5b50813567ffffffffffffffff8111156116fb57600080fd5b60208301915083602082850101111561171357600080fd5b9250929050565b60008060008060006080868803121561173257600080fd5b61173b8661169a565b94506117496020870161169a565b935060408601359250606086013567ffffffffffffffff81111561176c57600080fd5b611778888289016116d1565b969995985093965092949392505050565b6000806040838503121561179c57600080fd5b6117a58361169a565b946020939093013593505050565b634e487b7160e01b600052604160045260246000fd5b600080604083850312156117dc57600080fd5b8235915060208084013567ffffffffffffffff808211156117fc57600080fd5b818601915086601f83011261181057600080fd5b813581811115611822576118226117b3565b8060051b604051601f19603f83011681018181108582111715611847576118476117b3565b60405291825284820192508381018501918983111561186557600080fd5b938501935b828510156118835784358452938501939285019261186a565b8096505050505050509250929050565b6000602082840312156118a557600080fd5b5035919050565b600080602083850312156118bf57600080fd5b823567ffffffffffffffff8111156118d657600080fd5b6118e2858286016116d1565b90969095509350505050565b6000815180845260005b81811015611914576020818501810151868301820152016118f8565b506000602082860101526020601f19601f83011685010191505092915050565b821515815260406020820152600061194f60408301846118ee565b949350505050565b634e487b7160e01b600052602160045260246000fd5b6004811061198b57634e487b7160e01b600052602160045260246000fd5b9052565b600061016060018060a01b03808f1684528d60208501528c60408501528b60608501528a60808501528160a08501526119ca8285018b6118ee565b915083820360c08501526119de828a6118ee565b925080881660e08501528087166101008501525050611a0161012083018561196d565b826101408301529c9b505050505050505050505050565b60208152611a326020820183516001600160a01b03169052565b602082015160408201526040820151606082015260608201516080820152608082015160a0820152600060a08301516101608060c0850152611a786101808501836118ee565b915060c0850151601f198584030160e0860152611a9583826118ee565b92505060e0850151610100611ab4818701836001600160a01b03169052565b8601519050610120611ad0868201836001600160a01b03169052565b8601519050610140611ae48682018361196d565b959095015193019290925250919050565b6020808252600d908201526c24b73b30b634b2103a37b5b2b760991b604082015260600190565b634e487b7160e01b600052601160045260246000fd5b8082018082111561114157611141611b1c565b634e487b7160e01b600052601260045260246000fd5b600082611b6a57611b6a611b45565b500490565b600060208284031215611b8157600080fd5b815180151581146115ad57600080fd5b600181811c90821680611ba557607f821691505b602082108103611bc557634e487b7160e01b600052602260045260246000fd5b50919050565b808202811582820484141761114157611141611b1c565b634e487b7160e01b600052603260045260246000fd5b600082611c0757611c07611b45565b500690565b600060018201611c1e57611c1e611b1c565b5060010190565b600060208284031215611c3757600080fd5b5051919050565b805169ffffffffffffffffffff811681146116b157600080fd5b600080600080600060a08688031215611c7057600080fd5b611c7986611c3e565b9450602086015193506040860151925060608601519150611c9c60808701611c3e565b90509295509295909350565b80820260008212600160ff1b84141615611cc457611cc4611b1c565b818105831482151761114157611141611b1c56fea2646970667358221220c796f55f9f0edc4a7cb451f4a10ca0eef27191934f32dfa14d575137f4c6ca4164736f6c63430008120033",
		"opcodes": "PUSH1 0x80 PUSH1 0x40 MSTORE PUSH1 0x4 CALLDATASIZE LT PUSH2 0x140 JUMPI PUSH1 0x0 CALLDATALOAD PUSH1 0xE0 SHR DUP1 PUSH4 0x6ADC21EA GT PUSH2 0xB6 JUMPI DUP1 PUSH4 0x993F507C GT PUSH2 0x6F JUMPI DUP1 PUSH4 0x993F507C EQ PUSH2 0x3EB JUMPI DUP1 PUSH4 0xB8D6338D EQ PUSH2 0x417 JUMPI DUP1 PUSH4 0xDE28C2EC EQ PUSH2 0x439 JUMPI DUP1 PUSH4 0xDE3D9FB7 EQ PUSH2 0x44F JUMPI DUP1 PUSH4 0xE89E106A EQ PUSH2 0x478 JUMPI DUP1 PUSH4 0xF6EAFFC8 EQ PUSH2 0x48E JUMPI PUSH1 0x0 DUP1 REVERT JUMPDEST DUP1 PUSH4 0x6ADC21EA EQ PUSH2 0x327 JUMPI DUP1 PUSH4 0x6E04FF0D EQ PUSH2 0x33A JUMPI DUP1 PUSH4 0x76FE16CB EQ PUSH2 0x368 JUMPI DUP1 PUSH4 0x774DEE89 EQ PUSH2 0x388 JUMPI DUP1 PUSH4 0x8FD2EA4A EQ PUSH2 0x3A5 JUMPI DUP1 PUSH4 0x929066F5 EQ PUSH2 0x3BB JUMPI PUSH1 0x0 DUP1 REVERT JUMPDEST DUP1 PUSH4 0x35C1D349 GT PUSH2 0x108 JUMPI DUP1 PUSH4 0x35C1D349 EQ PUSH2 0x22C JUMPI DUP1 PUSH4 0x4585E33B EQ PUSH2 0x264 JUMPI DUP1 PUSH4 0x4A7FFCBC EQ PUSH2 0x284 JUMPI DUP1 PUSH4 0x4BCA67BF EQ PUSH2 0x2A4 JUMPI DUP1 PUSH4 0x5226E60B EQ PUSH2 0x2E4 JUMPI DUP1 PUSH4 0x5FA17EC5 EQ PUSH2 0x2FA JUMPI PUSH1 0x0 DUP1 REVERT JUMPDEST DUP1 PUSH4 0xA1B0E3C EQ PUSH2 0x145 JUMPI DUP1 PUSH4 0x150B7A02 EQ PUSH2 0x185 JUMPI DUP1 PUSH4 0x1FBFCE1B EQ PUSH2 0x1CA JUMPI DUP1 PUSH4 0x1FE543E3 EQ PUSH2 0x1DF JUMPI DUP1 PUSH4 0x2C7EB91D EQ PUSH2 0x1FF JUMPI JUMPDEST PUSH1 0x0 DUP1 REVERT JUMPDEST CALLVALUE DUP1 ISZERO PUSH2 0x151 JUMPI PUSH1 0x0 DUP1 REVERT JUMPDEST POP PUSH2 0x172 PUSH2 0x160 CALLDATASIZE PUSH1 0x4 PUSH2 0x16B6 JUMP JUMPDEST PUSH1 0x1D PUSH1 0x20 MSTORE PUSH1 0x0 SWAP1 DUP2 MSTORE PUSH1 0x40 SWAP1 KECCAK256 SLOAD DUP2 JUMP JUMPDEST PUSH1 0x40 MLOAD SWAP1 DUP2 MSTORE PUSH1 0x20 ADD JUMPDEST PUSH1 0x40 MLOAD DUP1 SWAP2 SUB SWAP1 RETURN JUMPDEST CALLVALUE DUP1 ISZERO PUSH2 0x191 JUMPI PUSH1 0x0 DUP1 REVERT JUMPDEST POP PUSH2 0x1B1 PUSH2 0x1A0 CALLDATASIZE PUSH1 0x4 PUSH2 0x171A JUMP JUMPDEST PUSH4 0xA85BD01 PUSH1 0xE1 SHL SWAP6 SWAP5 POP POP POP POP POP JUMP JUMPDEST PUSH1 0x40 MLOAD PUSH1 0x1 PUSH1 0x1 PUSH1 0xE0 SHL SUB NOT SWAP1 SWAP2 AND DUP2 MSTORE PUSH1 0x20 ADD PUSH2 0x17C JUMP JUMPDEST PUSH2 0x1DD PUSH2 0x1D8 CALLDATASIZE PUSH1 0x4 PUSH2 0x1789 JUMP JUMPDEST PUSH2 0x4AE JUMP JUMPDEST STOP JUMPDEST CALLVALUE DUP1 ISZERO PUSH2 0x1EB JUMPI PUSH1 0x0 DUP1 REVERT JUMPDEST POP PUSH2 0x1DD PUSH2 0x1FA CALLDATASIZE PUSH1 0x4 PUSH2 0x17C9 JUMP JUMPDEST PUSH2 0x9C0 JUMP JUMPDEST CALLVALUE DUP1 ISZERO PUSH2 0x20B JUMPI PUSH1 0x0 DUP1 REVERT JUMPDEST POP PUSH2 0x172 PUSH2 0x21A CALLDATASIZE PUSH1 0x4 PUSH2 0x16B6 JUMP JUMPDEST PUSH1 0x1B PUSH1 0x20 MSTORE PUSH1 0x0 SWAP1 DUP2 MSTORE PUSH1 0x40 SWAP1 KECCAK256 SLOAD DUP2 JUMP JUMPDEST CALLVALUE DUP1 ISZERO PUSH2 0x238 JUMPI PUSH1 0x0 DUP1 REVERT JUMPDEST POP PUSH2 0x24C PUSH2 0x247 CALLDATASIZE PUSH1 0x4 PUSH2 0x1893 JUMP JUMPDEST PUSH2 0xA48 JUMP JUMPDEST PUSH1 0x40 MLOAD PUSH1 0x1 PUSH1 0x1 PUSH1 0xA0 SHL SUB SWAP1 SWAP2 AND DUP2 MSTORE PUSH1 0x20 ADD PUSH2 0x17C JUMP JUMPDEST CALLVALUE DUP1 ISZERO PUSH2 0x270 JUMPI PUSH1 0x0 DUP1 REVERT JUMPDEST POP PUSH2 0x1DD PUSH2 0x27F CALLDATASIZE PUSH1 0x4 PUSH2 0x18AC JUMP JUMPDEST PUSH2 0xA72 JUMP JUMPDEST CALLVALUE DUP1 ISZERO PUSH2 0x290 JUMPI PUSH1 0x0 DUP1 REVERT JUMPDEST POP PUSH1 0x19 SLOAD PUSH2 0x24C SWAP1 PUSH1 0x1 PUSH1 0x1 PUSH1 0xA0 SHL SUB AND DUP2 JUMP JUMPDEST CALLVALUE DUP1 ISZERO PUSH2 0x2B0 JUMPI PUSH1 0x0 DUP1 REVERT JUMPDEST POP PUSH2 0x2D4 PUSH2 0x2BF CALLDATASIZE PUSH1 0x4 PUSH2 0x16B6 JUMP JUMPDEST PUSH1 0x18 PUSH1 0x20 MSTORE PUSH1 0x0 SWAP1 DUP2 MSTORE PUSH1 0x40 SWAP1 KECCAK256 SLOAD PUSH1 0xFF AND DUP2 JUMP JUMPDEST PUSH1 0x40 MLOAD SWAP1 ISZERO ISZERO DUP2 MSTORE PUSH1 0x20 ADD PUSH2 0x17C JUMP JUMPDEST CALLVALUE DUP1 ISZERO PUSH2 0x2F0 JUMPI PUSH1 0x0 DUP1 REVERT JUMPDEST POP PUSH2 0x172 PUSH1 0x1A SLOAD DUP2 JUMP JUMPDEST CALLVALUE DUP1 ISZERO PUSH2 0x306 JUMPI PUSH1 0x0 DUP1 REVERT JUMPDEST POP PUSH2 0x172 PUSH2 0x315 CALLDATASIZE PUSH1 0x4 PUSH2 0x16B6 JUMP JUMPDEST PUSH1 0x1F PUSH1 0x20 MSTORE PUSH1 0x0 SWAP1 DUP2 MSTORE PUSH1 0x40 SWAP1 KECCAK256 SLOAD DUP2 JUMP JUMPDEST PUSH2 0x1DD PUSH2 0x335 CALLDATASIZE PUSH1 0x4 PUSH2 0x1789 JUMP JUMPDEST PUSH2 0xABD JUMP JUMPDEST CALLVALUE DUP1 ISZERO PUSH2 0x346 JUMPI PUSH1 0x0 DUP1 REVERT JUMPDEST POP PUSH2 0x35A PUSH2 0x355 CALLDATASIZE PUSH1 0x4 PUSH2 0x18AC JUMP JUMPDEST PUSH2 0xD2C JUMP JUMPDEST PUSH1 0x40 MLOAD PUSH2 0x17C SWAP3 SWAP2 SWAP1 PUSH2 0x1934 JUMP JUMPDEST CALLVALUE DUP1 ISZERO PUSH2 0x374 JUMPI PUSH1 0x0 DUP1 REVERT JUMPDEST POP PUSH1 0x15 SLOAD PUSH2 0x24C SWAP1 PUSH1 0x1 PUSH1 0x1 PUSH1 0xA0 SHL SUB AND DUP2 JUMP JUMPDEST CALLVALUE DUP1 ISZERO PUSH2 0x394 JUMPI PUSH1 0x0 DUP1 REVERT JUMPDEST POP PUSH2 0x172 PUSH9 0x2B5E3AF16B1880000 DUP2 JUMP JUMPDEST CALLVALUE DUP1 ISZERO PUSH2 0x3B1 JUMPI PUSH1 0x0 DUP1 REVERT JUMPDEST POP PUSH2 0x172 PUSH1 0x1E SLOAD DUP2 JUMP JUMPDEST CALLVALUE DUP1 ISZERO PUSH2 0x3C7 JUMPI PUSH1 0x0 DUP1 REVERT JUMPDEST POP PUSH2 0x2D4 PUSH2 0x3D6 CALLDATASIZE PUSH1 0x4 PUSH2 0x16B6 JUMP JUMPDEST PUSH1 0x16 PUSH1 0x20 MSTORE PUSH1 0x0 SWAP1 DUP2 MSTORE PUSH1 0x40 SWAP1 KECCAK256 SLOAD PUSH1 0xFF AND DUP2 JUMP JUMPDEST CALLVALUE DUP1 ISZERO PUSH2 0x3F7 JUMPI PUSH1 0x0 DUP1 REVERT JUMPDEST POP PUSH2 0x400 PUSH2 0xDC7 JUMP JUMPDEST PUSH1 0x40 MLOAD PUSH2 0x17C SWAP12 SWAP11 SWAP10 SWAP9 SWAP8 SWAP7 SWAP6 SWAP5 SWAP4 SWAP3 SWAP2 SWAP1 PUSH2 0x198F JUMP JUMPDEST CALLVALUE DUP1 ISZERO PUSH2 0x423 JUMPI PUSH1 0x0 DUP1 REVERT JUMPDEST POP PUSH2 0x42C PUSH2 0xF35 JUMP JUMPDEST PUSH1 0x40 MLOAD PUSH2 0x17C SWAP2 SWAP1 PUSH2 0x1A18 JUMP JUMPDEST CALLVALUE DUP1 ISZERO PUSH2 0x445 JUMPI PUSH1 0x0 DUP1 REVERT JUMPDEST POP PUSH2 0x172 PUSH1 0x1C SLOAD DUP2 JUMP JUMPDEST CALLVALUE DUP1 ISZERO PUSH2 0x45B JUMPI PUSH1 0x0 DUP1 REVERT JUMPDEST POP PUSH1 0x13 SLOAD PUSH1 0x40 MLOAD PUSH8 0xFFFFFFFFFFFFFFFF SWAP1 SWAP2 AND DUP2 MSTORE PUSH1 0x20 ADD PUSH2 0x17C JUMP JUMPDEST CALLVALUE DUP1 ISZERO PUSH2 0x484 JUMPI PUSH1 0x0 DUP1 REVERT JUMPDEST POP PUSH2 0x172 PUSH1 0x12 SLOAD DUP2 JUMP JUMPDEST CALLVALUE DUP1 ISZERO PUSH2 0x49A JUMPI PUSH1 0x0 DUP1 REVERT JUMPDEST POP PUSH2 0x172 PUSH2 0x4A9 CALLDATASIZE PUSH1 0x4 PUSH2 0x1893 JUMP JUMPDEST PUSH2 0x10EE JUMP JUMPDEST PUSH2 0x4B6 PUSH2 0x15B4 JUMP JUMPDEST CALLER PUSH1 0x0 SWAP1 DUP2 MSTORE PUSH1 0x18 PUSH1 0x20 MSTORE PUSH1 0x40 SWAP1 KECCAK256 SLOAD PUSH1 0xFF AND PUSH2 0x511 JUMPI PUSH1 0x40 MLOAD PUSH3 0x461BCD PUSH1 0xE5 SHL DUP2 MSTORE PUSH1 0x20 PUSH1 0x4 DUP3 ADD MSTORE PUSH1 0x14 PUSH1 0x24 DUP3 ADD MSTORE PUSH20 0x14195B985B1D1E48199959481B9BDD081C185A59 PUSH1 0x62 SHL PUSH1 0x44 DUP3 ADD MSTORE PUSH1 0x64 ADD JUMPDEST PUSH1 0x40 MLOAD DUP1 SWAP2 SUB SWAP1 REVERT JUMPDEST CALLER PUSH1 0x0 SWAP1 DUP2 MSTORE PUSH1 0x16 PUSH1 0x20 MSTORE PUSH1 0x40 SWAP1 KECCAK256 SLOAD PUSH1 0xFF AND ISZERO PUSH2 0x569 JUMPI PUSH1 0x40 MLOAD PUSH3 0x461BCD PUSH1 0xE5 SHL DUP2 MSTORE PUSH1 0x20 PUSH1 0x4 DUP3 ADD MSTORE PUSH1 0x15 PUSH1 0x24 DUP3 ADD MSTORE PUSH21 0x105B1C9958591E4818481C185C9D1A58DA5C185B9D PUSH1 0x5A SHL PUSH1 0x44 DUP3 ADD MSTORE PUSH1 0x64 ADD PUSH2 0x508 JUMP JUMPDEST PUSH1 0x0 SLOAD PUSH1 0x1 PUSH1 0x1 PUSH1 0xA0 SHL SUB DUP5 DUP2 AND SWAP2 AND EQ PUSH2 0x596 JUMPI PUSH1 0x40 MLOAD PUSH3 0x461BCD PUSH1 0xE5 SHL DUP2 MSTORE PUSH1 0x4 ADD PUSH2 0x508 SWAP1 PUSH2 0x1AF5 JUMP JUMPDEST PUSH1 0x1 PUSH1 0x1 PUSH1 0xA0 SHL SUB DUP4 AND PUSH2 0x6C9 JUMPI PUSH9 0x2B5E3AF16B1880000 DUP2 PUSH1 0x40 ADD MLOAD PUSH2 0x5BD SWAP2 SWAP1 PUSH2 0x1B32 JUMP JUMPDEST CALLVALUE EQ PUSH2 0x5FE JUMPI PUSH1 0x40 MLOAD PUSH3 0x461BCD PUSH1 0xE5 SHL DUP2 MSTORE PUSH1 0x20 PUSH1 0x4 DUP3 ADD MSTORE PUSH1 0x10 PUSH1 0x24 DUP3 ADD MSTORE PUSH16 0x125B98DBDC9C9958DD08185B5BDD5B9D PUSH1 0x82 SHL PUSH1 0x44 DUP3 ADD MSTORE PUSH1 0x64 ADD PUSH2 0x508 JUMP JUMPDEST PUSH1 0x0 PUSH9 0x2B5E3AF16B1880000 PUSH2 0x615 PUSH1 0xC8 CALLVALUE PUSH2 0x1B5B JUMP JUMPDEST GT ISZERO PUSH2 0x655 JUMPI PUSH2 0x64E PUSH9 0x2B5E3AF16B1880000 PUSH32 0x0 PUSH2 0x110F JUMP JUMPDEST SWAP1 POP PUSH2 0x663 JUMP JUMPDEST PUSH2 0x660 PUSH1 0xC8 CALLVALUE PUSH2 0x1B5B JUMP JUMPDEST SWAP1 POP JUMPDEST DUP1 PUSH1 0x1A PUSH1 0x0 DUP3 DUP3 SLOAD PUSH2 0x675 SWAP2 SWAP1 PUSH2 0x1B32 JUMP JUMPDEST SWAP1 SWAP2 SSTORE POP POP PUSH1 0x40 DUP3 ADD MLOAD PUSH1 0x1C DUP1 SLOAD PUSH1 0x0 SWAP1 PUSH2 0x691 SWAP1 DUP5 SWAP1 PUSH2 0x1B32 JUMP JUMPDEST SWAP1 SWAP2 SSTORE POP POP PUSH1 0x40 MLOAD ADDRESS SWAP1 CALLVALUE DUP1 ISZERO PUSH2 0x8FC MUL SWAP2 PUSH1 0x0 DUP2 DUP2 DUP2 DUP6 DUP9 DUP9 CALL SWAP4 POP POP POP POP ISZERO DUP1 ISZERO PUSH2 0x6C2 JUMPI RETURNDATASIZE PUSH1 0x0 DUP1 RETURNDATACOPY RETURNDATASIZE PUSH1 0x0 REVERT JUMPDEST POP POP PUSH2 0x8AC JUMP JUMPDEST CALLVALUE ISZERO PUSH2 0x70D JUMPI PUSH1 0x40 MLOAD PUSH3 0x461BCD PUSH1 0xE5 SHL DUP2 MSTORE PUSH1 0x20 PUSH1 0x4 DUP3 ADD MSTORE PUSH1 0x13 PUSH1 0x24 DUP3 ADD MSTORE PUSH19 0x496E76616C69642045746865722076616C7565 PUSH1 0x68 SHL PUSH1 0x44 DUP3 ADD MSTORE PUSH1 0x64 ADD PUSH2 0x508 JUMP JUMPDEST PUSH1 0x0 DUP3 GT PUSH2 0x754 JUMPI PUSH1 0x40 MLOAD PUSH3 0x461BCD PUSH1 0xE5 SHL DUP2 MSTORE PUSH1 0x20 PUSH1 0x4 DUP3 ADD MSTORE PUSH1 0x14 PUSH1 0x24 DUP3 ADD MSTORE PUSH20 0x125B9D985B1A59081D1BDAD95B88185B5BDD5B9D PUSH1 0x62 SHL PUSH1 0x44 DUP3 ADD MSTORE PUSH1 0x64 ADD PUSH2 0x508 JUMP JUMPDEST DUP1 MLOAD PUSH1 0x1 PUSH1 0x1 PUSH1 0xA0 SHL SUB DUP5 DUP2 AND SWAP2 AND EQ PUSH2 0x780 JUMPI PUSH1 0x40 MLOAD PUSH3 0x461BCD PUSH1 0xE5 SHL DUP2 MSTORE PUSH1 0x4 ADD PUSH2 0x508 SWAP1 PUSH2 0x1AF5 JUMP JUMPDEST PUSH1 0x0 PUSH9 0x2B5E3AF16B1880000 PUSH2 0x797 PUSH1 0xC8 DUP6 PUSH2 0x1B5B JUMP JUMPDEST GT ISZERO PUSH2 0x7C4 JUMPI PUSH1 0x14 SLOAD PUSH2 0x7BD SWAP1 PUSH9 0x2B5E3AF16B1880000 SWAP1 PUSH1 0x1 PUSH1 0x1 PUSH1 0xA0 SHL SUB AND PUSH2 0x110F JUMP JUMPDEST SWAP1 POP PUSH2 0x7D2 JUMP JUMPDEST PUSH2 0x7CF PUSH1 0xC8 DUP5 PUSH2 0x1B5B JUMP JUMPDEST SWAP1 POP JUMPDEST PUSH1 0x1 PUSH1 0x1 PUSH1 0xA0 SHL SUB DUP5 AND PUSH1 0x0 SWAP1 DUP2 MSTORE PUSH1 0x1B PUSH1 0x20 MSTORE PUSH1 0x40 DUP2 KECCAK256 DUP1 SLOAD DUP4 SWAP3 SWAP1 PUSH2 0x7FA SWAP1 DUP5 SWAP1 PUSH2 0x1B32 JUMP JUMPDEST SWAP1 SWAP2 SSTORE POP POP PUSH1 0x40 DUP1 DUP4 ADD MLOAD PUSH1 0x1 PUSH1 0x1 PUSH1 0xA0 SHL SUB DUP7 AND PUSH1 0x0 SWAP1 DUP2 MSTORE PUSH1 0x1D PUSH1 0x20 MSTORE SWAP2 DUP3 KECCAK256 DUP1 SLOAD SWAP2 SWAP3 SWAP1 SWAP2 PUSH2 0x82D SWAP1 DUP5 SWAP1 PUSH2 0x1B32 JUMP JUMPDEST SWAP1 SWAP2 SSTORE POP POP PUSH1 0x40 MLOAD PUSH4 0x23B872DD PUSH1 0xE0 SHL DUP2 MSTORE CALLER PUSH1 0x4 DUP3 ADD MSTORE ADDRESS PUSH1 0x24 DUP3 ADD MSTORE PUSH1 0x44 DUP2 ADD DUP5 SWAP1 MSTORE PUSH1 0x1 PUSH1 0x1 PUSH1 0xA0 SHL SUB DUP6 AND SWAP1 PUSH4 0x23B872DD SWAP1 PUSH1 0x64 ADD PUSH1 0x20 PUSH1 0x40 MLOAD DUP1 DUP4 SUB DUP2 PUSH1 0x0 DUP8 GAS CALL ISZERO DUP1 ISZERO PUSH2 0x885 JUMPI RETURNDATASIZE PUSH1 0x0 DUP1 RETURNDATACOPY RETURNDATASIZE PUSH1 0x0 REVERT JUMPDEST POP POP POP POP PUSH1 0x40 MLOAD RETURNDATASIZE PUSH1 0x1F NOT PUSH1 0x1F DUP3 ADD AND DUP3 ADD DUP1 PUSH1 0x40 MSTORE POP DUP2 ADD SWAP1 PUSH2 0x8A9 SWAP2 SWAP1 PUSH2 0x1B6F JUMP JUMPDEST POP POP JUMPDEST PUSH1 0x17 DUP1 SLOAD PUSH1 0x1 DUP1 DUP3 ADD SWAP1 SWAP3 SSTORE PUSH32 0xC624B66CC0138B8FABC209247F72D758E1CF3343756D543BADBF24212BED8C15 ADD DUP1 SLOAD PUSH1 0x1 PUSH1 0x1 PUSH1 0xA0 SHL SUB NOT AND CALLER SWAP1 DUP2 OR SWAP1 SWAP2 SSTORE PUSH1 0x0 DUP2 DUP2 MSTORE PUSH1 0x16 PUSH1 0x20 MSTORE PUSH1 0x40 SWAP1 DUP2 SWAP1 KECCAK256 DUP1 SLOAD PUSH1 0xFF NOT AND SWAP1 SWAP4 OR SWAP1 SWAP3 SSTORE PUSH1 0x19 SLOAD SWAP2 MLOAD PUSH4 0x329B55B7 PUSH1 0xE2 SHL DUP2 MSTORE PUSH1 0x4 DUP2 ADD SWAP2 SWAP1 SWAP2 MSTORE PUSH1 0x1 PUSH1 0x1 PUSH1 0xA0 SHL SUB SWAP1 SWAP2 AND SWAP1 PUSH4 0xCA6D56DC SWAP1 PUSH1 0x24 ADD PUSH1 0x0 PUSH1 0x40 MLOAD DUP1 DUP4 SUB DUP2 PUSH1 0x0 DUP8 DUP1 EXTCODESIZE ISZERO DUP1 ISZERO PUSH2 0x94F JUMPI PUSH1 0x0 DUP1 REVERT JUMPDEST POP GAS CALL ISZERO DUP1 ISZERO PUSH2 0x963 JUMPI RETURNDATASIZE PUSH1 0x0 DUP1 RETURNDATACOPY RETURNDATASIZE PUSH1 0x0 REVERT JUMPDEST POP POP PUSH1 0x40 MLOAD CALLER SWAP3 POP PUSH32 0x6CD71E167CAB47CB2CCB763AADA102691B585B848ADB6395F1DA4AC187B9214A SWAP2 POP PUSH1 0x0 SWAP1 LOG2 PUSH1 0x17 SLOAD PUSH1 0x80 DUP3 ADD MLOAD SUB PUSH2 0x9BB JUMPI PUSH1 0x2 DUP2 PUSH2 0x120 ADD MLOAD PUSH1 0x3 DUP2 GT ISZERO PUSH2 0x9B8 JUMPI PUSH2 0x9B8 PUSH2 0x1957 JUMP JUMPDEST POP POP JUMPDEST POP POP POP JUMP JUMPDEST CALLER PUSH1 0x1 PUSH1 0x1 PUSH1 0xA0 SHL SUB PUSH32 0x0 AND EQ PUSH2 0xA3A JUMPI PUSH1 0x40 MLOAD PUSH4 0x73E64FD PUSH1 0xE2 SHL DUP2 MSTORE CALLER PUSH1 0x4 DUP3 ADD MSTORE PUSH1 0x1 PUSH1 0x1 PUSH1 0xA0 SHL SUB PUSH32 0x0 AND PUSH1 0x24 DUP3 ADD MSTORE PUSH1 0x44 ADD PUSH2 0x508 JUMP JUMPDEST PUSH2 0xA44 DUP3 DUP3 PUSH2 0x1147 JUMP JUMPDEST POP POP JUMP JUMPDEST PUSH1 0x17 DUP2 DUP2 SLOAD DUP2 LT PUSH2 0xA58 JUMPI PUSH1 0x0 DUP1 REVERT JUMPDEST PUSH1 0x0 SWAP2 DUP3 MSTORE PUSH1 0x20 SWAP1 SWAP2 KECCAK256 ADD SLOAD PUSH1 0x1 PUSH1 0x1 PUSH1 0xA0 SHL SUB AND SWAP1 POP DUP2 JUMP JUMPDEST PUSH1 0x8 SLOAD PUSH1 0x9 SLOAD PUSH1 0x1 SLOAD PUSH1 0x1 PUSH1 0xA0 SHL SWAP1 SWAP3 DIV PUSH1 0xFF AND SWAP2 PUSH1 0x2 DUP4 PUSH1 0x3 DUP2 GT ISZERO PUSH2 0xA9B JUMPI PUSH2 0xA9B PUSH2 0x1957 JUMP JUMPDEST EQ DUP1 ISZERO PUSH2 0xAB0 JUMPI POP PUSH2 0xAAD DUP2 DUP4 PUSH2 0x1B32 JUMP JUMPDEST TIMESTAMP GT JUMPDEST ISZERO PUSH2 0x9B8 JUMPI PUSH2 0x9B8 PUSH2 0x1473 JUMP JUMPDEST PUSH2 0xAC5 PUSH2 0x15B4 JUMP JUMPDEST CALLER PUSH1 0x0 SWAP1 DUP2 MSTORE PUSH1 0x18 PUSH1 0x20 MSTORE PUSH1 0x40 SWAP1 KECCAK256 SLOAD PUSH1 0xFF AND ISZERO PUSH2 0xB25 JUMPI PUSH1 0x40 MLOAD PUSH3 0x461BCD PUSH1 0xE5 SHL DUP2 MSTORE PUSH1 0x20 PUSH1 0x4 DUP3 ADD MSTORE PUSH1 0x18 PUSH1 0x24 DUP3 ADD MSTORE PUSH32 0x50656E616C74792066656520616C726561647920706169640000000000000000 PUSH1 0x44 DUP3 ADD MSTORE PUSH1 0x64 ADD PUSH2 0x508 JUMP JUMPDEST PUSH1 0x0 SLOAD PUSH1 0x1 PUSH1 0x1 PUSH1 0xA0 SHL SUB DUP5 DUP2 AND SWAP2 AND EQ PUSH2 0xB52 JUMPI PUSH1 0x40 MLOAD PUSH3 0x461BCD PUSH1 0xE5 SHL DUP2 MSTORE PUSH1 0x4 ADD PUSH2 0x508 SWAP1 PUSH2 0x1AF5 JUMP JUMPDEST PUSH1 0x1 PUSH1 0x1 PUSH1 0xA0 SHL SUB DUP4 AND PUSH2 0xC00 JUMPI DUP1 PUSH1 0x60 ADD MLOAD CALLVALUE EQ PUSH2 0xBB3 JUMPI PUSH1 0x40 MLOAD PUSH3 0x461BCD PUSH1 0xE5 SHL DUP2 MSTORE PUSH1 0x20 PUSH1 0x4 DUP3 ADD MSTORE PUSH1 0x1C PUSH1 0x24 DUP3 ADD MSTORE PUSH32 0x496E636F72726563742070656E616C74792066656520616D6F756E7400000000 PUSH1 0x44 DUP3 ADD MSTORE PUSH1 0x64 ADD PUSH2 0x508 JUMP JUMPDEST DUP1 PUSH1 0x60 ADD MLOAD PUSH1 0x1E PUSH1 0x0 DUP3 DUP3 SLOAD PUSH2 0xBC9 SWAP2 SWAP1 PUSH2 0x1B32 JUMP JUMPDEST SWAP1 SWAP2 SSTORE POP POP PUSH1 0x40 MLOAD ADDRESS SWAP1 CALLVALUE DUP1 ISZERO PUSH2 0x8FC MUL SWAP2 PUSH1 0x0 DUP2 DUP2 DUP2 DUP6 DUP9 DUP9 CALL SWAP4 POP POP POP POP ISZERO DUP1 ISZERO PUSH2 0xBFA JUMPI RETURNDATASIZE PUSH1 0x0 DUP1 RETURNDATACOPY RETURNDATASIZE PUSH1 0x0 REVERT JUMPDEST POP PUSH2 0xD0D JUMP JUMPDEST DUP1 PUSH1 0x60 ADD MLOAD DUP3 EQ PUSH2 0xC62 JUMPI PUSH1 0x40 MLOAD PUSH3 0x461BCD PUSH1 0xE5 SHL DUP2 MSTORE PUSH1 0x20 PUSH1 0x4 DUP3 ADD MSTORE PUSH1 0x26 PUSH1 0x24 DUP3 ADD MSTORE PUSH32 0x496E636F727265637420746F6B656E20616D6F756E7420666F722070656E616C PUSH1 0x44 DUP3 ADD MSTORE PUSH6 0x747920666565 PUSH1 0xD0 SHL PUSH1 0x64 DUP3 ADD MSTORE PUSH1 0x84 ADD PUSH2 0x508 JUMP JUMPDEST PUSH1 0x60 DUP2 ADD MLOAD PUSH1 0x1 PUSH1 0x1 PUSH1 0xA0 SHL SUB DUP5 AND PUSH1 0x0 SWAP1 DUP2 MSTORE PUSH1 0x1F PUSH1 0x20 MSTORE PUSH1 0x40 DUP2 KECCAK256 DUP1 SLOAD SWAP1 SWAP2 SWAP1 PUSH2 0xC8F SWAP1 DUP5 SWAP1 PUSH2 0x1B32 JUMP JUMPDEST SWAP1 SWAP2 SSTORE POP POP PUSH1 0x40 MLOAD PUSH4 0x23B872DD PUSH1 0xE0 SHL DUP2 MSTORE CALLER PUSH1 0x4 DUP3 ADD MSTORE ADDRESS PUSH1 0x24 DUP3 ADD MSTORE PUSH1 0x44 DUP2 ADD DUP4 SWAP1 MSTORE PUSH1 0x1 PUSH1 0x1 PUSH1 0xA0 SHL SUB DUP5 AND SWAP1 PUSH4 0x23B872DD SWAP1 PUSH1 0x64 ADD PUSH1 0x20 PUSH1 0x40 MLOAD DUP1 DUP4 SUB DUP2 PUSH1 0x0 DUP8 GAS CALL ISZERO DUP1 ISZERO PUSH2 0xCE7 JUMPI RETURNDATASIZE PUSH1 0x0 DUP1 RETURNDATACOPY RETURNDATASIZE PUSH1 0x0 REVERT JUMPDEST POP POP POP POP PUSH1 0x40 MLOAD RETURNDATASIZE PUSH1 0x1F NOT PUSH1 0x1F DUP3 ADD AND DUP3 ADD DUP1 PUSH1 0x40 MSTORE POP DUP2 ADD SWAP1 PUSH2 0xD0B SWAP2 SWAP1 PUSH2 0x1B6F JUMP JUMPDEST POP JUMPDEST POP POP CALLER PUSH1 0x0 SWAP1 DUP2 MSTORE PUSH1 0x18 PUSH1 0x20 MSTORE PUSH1 0x40 SWAP1 KECCAK256 DUP1 SLOAD PUSH1 0xFF NOT AND PUSH1 0x1 OR SWAP1 SSTORE POP JUMP JUMPDEST PUSH1 0x8 SLOAD PUSH1 0x9 SLOAD PUSH1 0x1 SLOAD PUSH1 0x0 SWAP3 PUSH1 0x60 SWAP3 PUSH1 0x1 PUSH1 0xA0 SHL SWAP1 SWAP2 DIV PUSH1 0xFF AND SWAP2 PUSH1 0x2 DUP4 PUSH1 0x3 DUP2 GT ISZERO PUSH2 0xD5B JUMPI PUSH2 0xD5B PUSH2 0x1957 JUMP JUMPDEST EQ DUP1 ISZERO PUSH2 0xD70 JUMPI POP PUSH2 0xD6D DUP2 DUP4 PUSH2 0x1B32 JUMP JUMPDEST TIMESTAMP GT JUMPDEST ISZERO PUSH2 0xD7E JUMPI PUSH1 0x1 SWAP5 POP PUSH2 0xD83 JUMP JUMPDEST PUSH1 0x0 SWAP5 POP JUMPDEST DUP7 DUP7 DUP1 DUP1 PUSH1 0x1F ADD PUSH1 0x20 DUP1 SWAP2 DIV MUL PUSH1 0x20 ADD PUSH1 0x40 MLOAD SWAP1 DUP2 ADD PUSH1 0x40 MSTORE DUP1 SWAP4 SWAP3 SWAP2 SWAP1 DUP2 DUP2 MSTORE PUSH1 0x20 ADD DUP4 DUP4 DUP1 DUP3 DUP5 CALLDATACOPY PUSH1 0x0 SWAP3 ADD SWAP2 SWAP1 SWAP2 MSTORE POP SWAP8 SWAP11 SWAP3 SWAP10 POP SWAP2 SWAP8 POP POP POP POP POP POP POP POP JUMP JUMPDEST PUSH1 0x0 DUP1 SLOAD PUSH1 0x1 SLOAD PUSH1 0x2 SLOAD PUSH1 0x3 SLOAD PUSH1 0x4 SLOAD PUSH1 0x5 DUP1 SLOAD PUSH1 0x1 PUSH1 0x1 PUSH1 0xA0 SHL SUB SWAP1 SWAP7 AND SWAP7 SWAP5 SWAP6 SWAP4 SWAP5 SWAP3 SWAP4 SWAP2 SWAP3 SWAP2 PUSH2 0xDF9 SWAP1 PUSH2 0x1B91 JUMP JUMPDEST DUP1 PUSH1 0x1F ADD PUSH1 0x20 DUP1 SWAP2 DIV MUL PUSH1 0x20 ADD PUSH1 0x40 MLOAD SWAP1 DUP2 ADD PUSH1 0x40 MSTORE DUP1 SWAP3 SWAP2 SWAP1 DUP2 DUP2 MSTORE PUSH1 0x20 ADD DUP3 DUP1 SLOAD PUSH2 0xE25 SWAP1 PUSH2 0x1B91 JUMP JUMPDEST DUP1 ISZERO PUSH2 0xE72 JUMPI DUP1 PUSH1 0x1F LT PUSH2 0xE47 JUMPI PUSH2 0x100 DUP1 DUP4 SLOAD DIV MUL DUP4 MSTORE SWAP2 PUSH1 0x20 ADD SWAP2 PUSH2 0xE72 JUMP JUMPDEST DUP3 ADD SWAP2 SWAP1 PUSH1 0x0 MSTORE PUSH1 0x20 PUSH1 0x0 KECCAK256 SWAP1 JUMPDEST DUP2 SLOAD DUP2 MSTORE SWAP1 PUSH1 0x1 ADD SWAP1 PUSH1 0x20 ADD DUP1 DUP4 GT PUSH2 0xE55 JUMPI DUP3 SWAP1 SUB PUSH1 0x1F AND DUP3 ADD SWAP2 JUMPDEST POP POP POP POP POP SWAP1 DUP1 PUSH1 0x6 ADD DUP1 SLOAD PUSH2 0xE87 SWAP1 PUSH2 0x1B91 JUMP JUMPDEST DUP1 PUSH1 0x1F ADD PUSH1 0x20 DUP1 SWAP2 DIV MUL PUSH1 0x20 ADD PUSH1 0x40 MLOAD SWAP1 DUP2 ADD PUSH1 0x40 MSTORE DUP1 SWAP3 SWAP2 SWAP1 DUP2 DUP2 MSTORE PUSH1 0x20 ADD DUP3 DUP1 SLOAD PUSH2 0xEB3 SWAP1 PUSH2 0x1B91 JUMP JUMPDEST DUP1 ISZERO PUSH2 0xF00 JUMPI DUP1 PUSH1 0x1F LT PUSH2 0xED5 JUMPI PUSH2 0x100 DUP1 DUP4 SLOAD DIV MUL DUP4 MSTORE SWAP2 PUSH1 0x20 ADD SWAP2 PUSH2 0xF00 JUMP JUMPDEST DUP3 ADD SWAP2 SWAP1 PUSH1 0x0 MSTORE PUSH1 0x20 PUSH1 0x0 KECCAK256 SWAP1 JUMPDEST DUP2 SLOAD DUP2 MSTORE SWAP1 PUSH1 0x1 ADD SWAP1 PUSH1 0x20 ADD DUP1 DUP4 GT PUSH2 0xEE3 JUMPI DUP3 SWAP1 SUB PUSH1 0x1F AND DUP3 ADD SWAP2 JUMPDEST POP POP POP POP PUSH1 0x7 DUP4 ADD SLOAD PUSH1 0x8 DUP5 ADD SLOAD PUSH1 0x9 SWAP1 SWAP5 ADD SLOAD SWAP3 SWAP4 PUSH1 0x1 PUSH1 0x1 PUSH1 0xA0 SHL SUB SWAP2 DUP3 AND SWAP4 SWAP2 DUP2 AND SWAP3 POP PUSH1 0x1 PUSH1 0xA0 SHL SWAP1 DIV PUSH1 0xFF AND SWAP1 DUP12 JUMP JUMPDEST PUSH2 0xF3D PUSH2 0x15B4 JUMP JUMPDEST PUSH1 0x40 DUP1 MLOAD PUSH2 0x160 DUP2 ADD DUP3 MSTORE PUSH1 0x0 SLOAD PUSH1 0x1 PUSH1 0x1 PUSH1 0xA0 SHL SUB AND DUP2 MSTORE PUSH1 0x1 SLOAD PUSH1 0x20 DUP3 ADD MSTORE PUSH1 0x2 SLOAD SWAP2 DUP2 ADD SWAP2 SWAP1 SWAP2 MSTORE PUSH1 0x3 SLOAD PUSH1 0x60 DUP3 ADD MSTORE PUSH1 0x4 SLOAD PUSH1 0x80 DUP3 ADD MSTORE PUSH1 0x5 DUP1 SLOAD PUSH1 0xA0 DUP4 ADD SWAP2 SWAP1 PUSH2 0xF8B SWAP1 PUSH2 0x1B91 JUMP JUMPDEST DUP1 PUSH1 0x1F ADD PUSH1 0x20 DUP1 SWAP2 DIV MUL PUSH1 0x20 ADD PUSH1 0x40 MLOAD SWAP1 DUP2 ADD PUSH1 0x40 MSTORE DUP1 SWAP3 SWAP2 SWAP1 DUP2 DUP2 MSTORE PUSH1 0x20 ADD DUP3 DUP1 SLOAD PUSH2 0xFB7 SWAP1 PUSH2 0x1B91 JUMP JUMPDEST DUP1 ISZERO PUSH2 0x1004 JUMPI DUP1 PUSH1 0x1F LT PUSH2 0xFD9 JUMPI PUSH2 0x100 DUP1 DUP4 SLOAD DIV MUL DUP4 MSTORE SWAP2 PUSH1 0x20 ADD SWAP2 PUSH2 0x1004 JUMP JUMPDEST DUP3 ADD SWAP2 SWAP1 PUSH1 0x0 MSTORE PUSH1 0x20 PUSH1 0x0 KECCAK256 SWAP1 JUMPDEST DUP2 SLOAD DUP2 MSTORE SWAP1 PUSH1 0x1 ADD SWAP1 PUSH1 0x20 ADD DUP1 DUP4 GT PUSH2 0xFE7 JUMPI DUP3 SWAP1 SUB PUSH1 0x1F AND DUP3 ADD SWAP2 JUMPDEST POP POP POP POP POP DUP2 MSTORE PUSH1 0x20 ADD PUSH1 0x0 PUSH1 0x6 ADD DUP1 SLOAD PUSH2 0x101E SWAP1 PUSH2 0x1B91 JUMP JUMPDEST DUP1 PUSH1 0x1F ADD PUSH1 0x20 DUP1 SWAP2 DIV MUL PUSH1 0x20 ADD PUSH1 0x40 MLOAD SWAP1 DUP2 ADD PUSH1 0x40 MSTORE DUP1 SWAP3 SWAP2 SWAP1 DUP2 DUP2 MSTORE PUSH1 0x20 ADD DUP3 DUP1 SLOAD PUSH2 0x104A SWAP1 PUSH2 0x1B91 JUMP JUMPDEST DUP1 ISZERO PUSH2 0x1097 JUMPI DUP1 PUSH1 0x1F LT PUSH2 0x106C JUMPI PUSH2 0x100 DUP1 DUP4 SLOAD DIV MUL DUP4 MSTORE SWAP2 PUSH1 0x20 ADD SWAP2 PUSH2 0x1097 JUMP JUMPDEST DUP3 ADD SWAP2 SWAP1 PUSH1 0x0 MSTORE PUSH1 0x20 PUSH1 0x0 KECCAK256 SWAP1 JUMPDEST DUP2 SLOAD DUP2 MSTORE SWAP1 PUSH1 0x1 ADD SWAP1 PUSH1 0x20 ADD DUP1 DUP4 GT PUSH2 0x107A JUMPI DUP3 SWAP1 SUB PUSH1 0x1F AND DUP3 ADD SWAP2 JUMPDEST POP POP POP SWAP2 DUP4 MSTORE POP POP PUSH1 0x7 SLOAD PUSH1 0x1 PUSH1 0x1 PUSH1 0xA0 SHL SUB SWAP1 DUP2 AND PUSH1 0x20 DUP4 ADD MSTORE PUSH1 0x8 SLOAD SWAP1 DUP2 AND PUSH1 0x40 DUP4 ADD MSTORE PUSH1 0x60 SWAP1 SWAP2 ADD SWAP1 PUSH1 0x1 PUSH1 0xA0 SHL SWAP1 DIV PUSH1 0xFF AND PUSH1 0x3 DUP2 GT ISZERO PUSH2 0x10DE JUMPI PUSH2 0x10DE PUSH2 0x1957 JUMP JUMPDEST DUP2 MSTORE PUSH1 0x9 SLOAD PUSH1 0x20 SWAP1 SWAP2 ADD MSTORE SWAP2 SWAP1 POP JUMP JUMPDEST PUSH1 0x11 DUP2 DUP2 SLOAD DUP2 LT PUSH2 0x10FE JUMPI PUSH1 0x0 DUP1 REVERT JUMPDEST PUSH1 0x0 SWAP2 DUP3 MSTORE PUSH1 0x20 SWAP1 SWAP2 KECCAK256 ADD SLOAD SWAP1 POP DUP2 JUMP JUMPDEST PUSH1 0x0 DUP1 PUSH2 0x111B DUP4 PUSH2 0x1531 JUMP JUMPDEST SWAP1 POP PUSH1 0x0 PUSH8 0xDE0B6B3A7640000 PUSH2 0x1132 DUP4 DUP8 PUSH2 0x1BCB JUMP JUMPDEST PUSH2 0x113C SWAP2 SWAP1 PUSH2 0x1B5B JUMP JUMPDEST SWAP3 POP POP POP JUMPDEST SWAP3 SWAP2 POP POP JUMP JUMPDEST DUP1 MLOAD PUSH2 0x115A SWAP1 PUSH1 0x11 SWAP1 PUSH1 0x20 DUP5 ADD SWAP1 PUSH2 0x163A JUMP JUMPDEST POP PUSH1 0x0 PUSH1 0x17 DUP1 SLOAD SWAP1 POP PUSH1 0x11 PUSH1 0x0 DUP2 SLOAD DUP2 LT PUSH2 0x1177 JUMPI PUSH2 0x1177 PUSH2 0x1BE2 JUMP JUMPDEST SWAP1 PUSH1 0x0 MSTORE PUSH1 0x20 PUSH1 0x0 KECCAK256 ADD SLOAD PUSH2 0x118C SWAP2 SWAP1 PUSH2 0x1BF8 JUMP JUMPDEST SWAP1 POP PUSH1 0x0 PUSH1 0x17 DUP3 DUP2 SLOAD DUP2 LT PUSH2 0x11A3 JUMPI PUSH2 0x11A3 PUSH2 0x1BE2 JUMP JUMPDEST PUSH1 0x0 SWAP2 DUP3 MSTORE PUSH1 0x20 SWAP1 SWAP2 KECCAK256 ADD SLOAD PUSH1 0x1C SLOAD PUSH1 0x1 PUSH1 0x1 PUSH1 0xA0 SHL SUB SWAP1 SWAP2 AND SWAP2 POP ISZERO ISZERO DUP1 PUSH2 0x11E3 JUMPI POP PUSH1 0x0 DUP1 SLOAD PUSH1 0x1 PUSH1 0x1 PUSH1 0xA0 SHL SUB AND DUP2 MSTORE PUSH1 0x1D PUSH1 0x20 MSTORE PUSH1 0x40 SWAP1 KECCAK256 SLOAD ISZERO ISZERO JUMPDEST PUSH2 0x122F JUMPI PUSH1 0x40 MLOAD PUSH3 0x461BCD PUSH1 0xE5 SHL DUP2 MSTORE PUSH1 0x20 PUSH1 0x4 DUP3 ADD MSTORE PUSH1 0x1D PUSH1 0x24 DUP3 ADD MSTORE PUSH32 0x4E6F2062616C616E636520696E20746865205468726966745075727365000000 PUSH1 0x44 DUP3 ADD MSTORE PUSH1 0x64 ADD PUSH2 0x508 JUMP JUMPDEST PUSH1 0x1C SLOAD ISZERO PUSH2 0x12F2 JUMPI PUSH1 0x1C SLOAD PUSH1 0x40 MLOAD PUSH1 0x0 SWAP2 CALLER SWAP2 DUP4 DUP2 DUP2 DUP2 DUP6 DUP8 GAS CALL SWAP3 POP POP POP RETURNDATASIZE DUP1 PUSH1 0x0 DUP2 EQ PUSH2 0x127A JUMPI PUSH1 0x40 MLOAD SWAP2 POP PUSH1 0x1F NOT PUSH1 0x3F RETURNDATASIZE ADD AND DUP3 ADD PUSH1 0x40 MSTORE RETURNDATASIZE DUP3 MSTORE RETURNDATASIZE PUSH1 0x0 PUSH1 0x20 DUP5 ADD RETURNDATACOPY PUSH2 0x127F JUMP JUMPDEST PUSH1 0x60 SWAP2 POP JUMPDEST POP POP SWAP1 POP DUP1 PUSH2 0x12A1 JUMPI PUSH1 0x40 MLOAD PUSH4 0x3BDF630F PUSH1 0xE1 SHL DUP2 MSTORE PUSH1 0x4 ADD PUSH1 0x40 MLOAD DUP1 SWAP2 SUB SWAP1 REVERT JUMPDEST PUSH1 0x1C SLOAD PUSH1 0x40 DUP1 MLOAD PUSH1 0x1 PUSH1 0x1 PUSH1 0xA0 SHL SUB DUP6 AND DUP2 MSTORE PUSH1 0x20 DUP2 ADD SWAP3 SWAP1 SWAP3 MSTORE PUSH32 0xF2956657DB703B4160A4041A597EA008DE026AF5E167AF02F4BE706E475F6BD4 SWAP2 ADD PUSH1 0x40 MLOAD DUP1 SWAP2 SUB SWAP1 LOG1 POP PUSH1 0x0 PUSH1 0x1C SSTORE PUSH2 0x1427 JUMP JUMPDEST PUSH1 0x0 DUP1 SLOAD PUSH1 0x1 PUSH1 0x1 PUSH1 0xA0 SHL SUB AND DUP2 MSTORE PUSH1 0x1D PUSH1 0x20 MSTORE PUSH1 0x40 SWAP1 KECCAK256 SLOAD ISZERO PUSH2 0x1427 JUMPI PUSH1 0x0 DUP1 SLOAD PUSH1 0x1 PUSH1 0x1 PUSH1 0xA0 SHL SUB AND DUP1 DUP3 MSTORE PUSH1 0x1D PUSH1 0x20 MSTORE PUSH1 0x40 DUP1 DUP4 KECCAK256 SLOAD SWAP1 MLOAD PUSH4 0xA9059CBB PUSH1 0xE0 SHL DUP2 MSTORE CALLER PUSH1 0x4 DUP3 ADD MSTORE PUSH1 0x24 DUP2 ADD SWAP2 SWAP1 SWAP2 MSTORE SWAP1 SWAP2 SWAP1 DUP3 SWAP1 PUSH4 0xA9059CBB SWAP1 PUSH1 0x44 ADD PUSH1 0x20 PUSH1 0x40 MLOAD DUP1 DUP4 SUB DUP2 PUSH1 0x0 DUP8 GAS CALL ISZERO DUP1 ISZERO PUSH2 0x1372 JUMPI RETURNDATASIZE PUSH1 0x0 DUP1 RETURNDATACOPY RETURNDATASIZE PUSH1 0x0 REVERT JUMPDEST POP POP POP POP PUSH1 0x40 MLOAD RETURNDATASIZE PUSH1 0x1F NOT PUSH1 0x1F DUP3 ADD AND DUP3 ADD DUP1 PUSH1 0x40 MSTORE POP DUP2 ADD SWAP1 PUSH2 0x1396 SWAP2 SWAP1 PUSH2 0x1B6F JUMP JUMPDEST SWAP1 POP DUP1 PUSH2 0x13B6 JUMPI PUSH1 0x40 MLOAD PUSH4 0x3BDF630F PUSH1 0xE1 SHL DUP2 MSTORE PUSH1 0x4 ADD PUSH1 0x40 MLOAD DUP1 SWAP2 SUB SWAP1 REVERT JUMPDEST PUSH1 0x0 DUP1 SLOAD PUSH1 0x1 PUSH1 0x1 PUSH1 0xA0 SHL SUB SWAP1 DUP2 AND DUP3 MSTORE PUSH1 0x1D PUSH1 0x20 SWAP1 DUP2 MSTORE PUSH1 0x40 SWAP3 DUP4 SWAP1 KECCAK256 SLOAD DUP4 MLOAD SWAP3 DUP8 AND DUP4 MSTORE SWAP1 DUP3 ADD MSTORE PUSH32 0xF2956657DB703B4160A4041A597EA008DE026AF5E167AF02F4BE706E475F6BD4 SWAP2 ADD PUSH1 0x40 MLOAD DUP1 SWAP2 SUB SWAP1 LOG1 POP POP PUSH1 0x0 DUP1 SLOAD PUSH1 0x1 PUSH1 0x1 PUSH1 0xA0 SHL SUB AND DUP2 MSTORE PUSH1 0x1D PUSH1 0x20 MSTORE PUSH1 0x40 DUP2 KECCAK256 SSTORE JUMPDEST PUSH1 0xA DUP1 SLOAD SWAP1 PUSH1 0x0 PUSH2 0x1437 DUP4 PUSH2 0x1C0C JUMP JUMPDEST SWAP1 SWAP2 SSTORE POP POP PUSH1 0x4 SLOAD PUSH1 0xA SLOAD SUB PUSH2 0x145F JUMPI PUSH1 0x8 DUP1 SLOAD PUSH1 0xFF PUSH1 0xA0 SHL NOT AND PUSH1 0x1 PUSH1 0xA0 SHL OR SWAP1 SSTORE PUSH2 0x146D JUMP JUMPDEST PUSH1 0x8 DUP1 SLOAD PUSH1 0xFF PUSH1 0xA0 SHL NOT AND SWAP1 SSTORE JUMPDEST POP POP POP POP JUMP JUMPDEST PUSH1 0xB SLOAD PUSH1 0xF SLOAD PUSH1 0x13 SLOAD PUSH1 0x10 SLOAD PUSH1 0x40 MLOAD PUSH4 0x5D3B1D3 PUSH1 0xE4 SHL DUP2 MSTORE PUSH1 0x4 DUP2 ADD SWAP4 SWAP1 SWAP4 MSTORE PUSH8 0xFFFFFFFFFFFFFFFF SWAP1 SWAP2 AND PUSH1 0x24 DUP4 ADD MSTORE PUSH5 0x100000000 DUP2 DIV PUSH2 0xFFFF AND PUSH1 0x44 DUP4 ADD MSTORE PUSH4 0xFFFFFFFF DUP1 DUP3 AND PUSH1 0x64 DUP5 ADD MSTORE PUSH7 0x1000000000000 SWAP1 SWAP2 DIV AND PUSH1 0x84 DUP3 ADD MSTORE PUSH1 0x1 PUSH1 0x1 PUSH1 0xA0 SHL SUB SWAP1 SWAP2 AND SWAP1 PUSH4 0x5D3B1D30 SWAP1 PUSH1 0xA4 ADD PUSH1 0x20 PUSH1 0x40 MLOAD DUP1 DUP4 SUB DUP2 PUSH1 0x0 DUP8 GAS CALL ISZERO DUP1 ISZERO PUSH2 0x1508 JUMPI RETURNDATASIZE PUSH1 0x0 DUP1 RETURNDATACOPY RETURNDATASIZE PUSH1 0x0 REVERT JUMPDEST POP POP POP POP PUSH1 0x40 MLOAD RETURNDATASIZE PUSH1 0x1F NOT PUSH1 0x1F DUP3 ADD AND DUP3 ADD DUP1 PUSH1 0x40 MSTORE POP DUP2 ADD SWAP1 PUSH2 0x152C SWAP2 SWAP1 PUSH2 0x1C25 JUMP JUMPDEST PUSH1 0x12 SSTORE JUMP JUMPDEST PUSH1 0x0 DUP1 DUP3 PUSH1 0x1 PUSH1 0x1 PUSH1 0xA0 SHL SUB AND PUSH4 0xFEAF968C PUSH1 0x40 MLOAD DUP2 PUSH4 0xFFFFFFFF AND PUSH1 0xE0 SHL DUP2 MSTORE PUSH1 0x4 ADD PUSH1 0xA0 PUSH1 0x40 MLOAD DUP1 DUP4 SUB DUP2 DUP7 GAS STATICCALL ISZERO DUP1 ISZERO PUSH2 0x1572 JUMPI RETURNDATASIZE PUSH1 0x0 DUP1 RETURNDATACOPY RETURNDATASIZE PUSH1 0x0 REVERT JUMPDEST POP POP POP POP PUSH1 0x40 MLOAD RETURNDATASIZE PUSH1 0x1F NOT PUSH1 0x1F DUP3 ADD AND DUP3 ADD DUP1 PUSH1 0x40 MSTORE POP DUP2 ADD SWAP1 PUSH2 0x1596 SWAP2 SWAP1 PUSH2 0x1C58 JUMP JUMPDEST POP POP POP SWAP2 POP POP DUP1 PUSH5 0x2540BE400 PUSH2 0x15AD SWAP2 SWAP1 PUSH2 0x1CA8 JUMP JUMPDEST SWAP4 SWAP3 POP POP POP JUMP JUMPDEST PUSH1 0x40 MLOAD DUP1 PUSH2 0x160 ADD PUSH1 0x40 MSTORE DUP1 PUSH1 0x0 PUSH1 0x1 PUSH1 0x1 PUSH1 0xA0 SHL SUB AND DUP2 MSTORE PUSH1 0x20 ADD PUSH1 0x0 DUP2 MSTORE PUSH1 0x20 ADD PUSH1 0x0 DUP2 MSTORE PUSH1 0x20 ADD PUSH1 0x0 DUP2 MSTORE PUSH1 0x20 ADD PUSH1 0x0 DUP2 MSTORE PUSH1 0x20 ADD PUSH1 0x60 DUP2 MSTORE PUSH1 0x20 ADD PUSH1 0x60 DUP2 MSTORE PUSH1 0x20 ADD PUSH1 0x0 PUSH1 0x1 PUSH1 0x1 PUSH1 0xA0 SHL SUB AND DUP2 MSTORE PUSH1 0x20 ADD PUSH1 0x0 PUSH1 0x1 PUSH1 0x1 PUSH1 0xA0 SHL SUB AND DUP2 MSTORE PUSH1 0x20 ADD PUSH1 0x0 PUSH1 0x3 DUP2 GT ISZERO PUSH2 0x162D JUMPI PUSH2 0x162D PUSH2 0x1957 JUMP JUMPDEST DUP2 MSTORE PUSH1 0x20 ADD PUSH1 0x0 DUP2 MSTORE POP SWAP1 JUMP JUMPDEST DUP3 DUP1 SLOAD DUP3 DUP3 SSTORE SWAP1 PUSH1 0x0 MSTORE PUSH1 0x20 PUSH1 0x0 KECCAK256 SWAP1 DUP2 ADD SWAP3 DUP3 ISZERO PUSH2 0x1675 JUMPI SWAP2 PUSH1 0x20 MUL DUP3 ADD JUMPDEST DUP3 DUP2 GT ISZERO PUSH2 0x1675 JUMPI DUP3 MLOAD DUP3 SSTORE SWAP2 PUSH1 0x20 ADD SWAP2 SWAP1 PUSH1 0x1 ADD SWAP1 PUSH2 0x165A JUMP JUMPDEST POP PUSH2 0x1681 SWAP3 SWAP2 POP PUSH2 0x1685 JUMP JUMPDEST POP SWAP1 JUMP JUMPDEST JUMPDEST DUP1 DUP3 GT ISZERO PUSH2 0x1681 JUMPI PUSH1 0x0 DUP2 SSTORE PUSH1 0x1 ADD PUSH2 0x1686 JUMP JUMPDEST DUP1 CALLDATALOAD PUSH1 0x1 PUSH1 0x1 PUSH1 0xA0 SHL SUB DUP2 AND DUP2 EQ PUSH2 0x16B1 JUMPI PUSH1 0x0 DUP1 REVERT JUMPDEST SWAP2 SWAP1 POP JUMP JUMPDEST PUSH1 0x0 PUSH1 0x20 DUP3 DUP5 SUB SLT ISZERO PUSH2 0x16C8 JUMPI PUSH1 0x0 DUP1 REVERT JUMPDEST PUSH2 0x15AD DUP3 PUSH2 0x169A JUMP JUMPDEST PUSH1 0x0 DUP1 DUP4 PUSH1 0x1F DUP5 ADD SLT PUSH2 0x16E3 JUMPI PUSH1 0x0 DUP1 REVERT JUMPDEST POP DUP2 CALLDATALOAD PUSH8 0xFFFFFFFFFFFFFFFF DUP2 GT ISZERO PUSH2 0x16FB JUMPI PUSH1 0x0 DUP1 REVERT JUMPDEST PUSH1 0x20 DUP4 ADD SWAP2 POP DUP4 PUSH1 0x20 DUP3 DUP6 ADD ADD GT ISZERO PUSH2 0x1713 JUMPI PUSH1 0x0 DUP1 REVERT JUMPDEST SWAP3 POP SWAP3 SWAP1 POP JUMP JUMPDEST PUSH1 0x0 DUP1 PUSH1 0x0 DUP1 PUSH1 0x0 PUSH1 0x80 DUP7 DUP9 SUB SLT ISZERO PUSH2 0x1732 JUMPI PUSH1 0x0 DUP1 REVERT JUMPDEST PUSH2 0x173B DUP7 PUSH2 0x169A JUMP JUMPDEST SWAP5 POP PUSH2 0x1749 PUSH1 0x20 DUP8 ADD PUSH2 0x169A JUMP JUMPDEST SWAP4 POP PUSH1 0x40 DUP7 ADD CALLDATALOAD SWAP3 POP PUSH1 0x60 DUP7 ADD CALLDATALOAD PUSH8 0xFFFFFFFFFFFFFFFF DUP2 GT ISZERO PUSH2 0x176C JUMPI PUSH1 0x0 DUP1 REVERT JUMPDEST PUSH2 0x1778 DUP9 DUP3 DUP10 ADD PUSH2 0x16D1 JUMP JUMPDEST SWAP7 SWAP10 SWAP6 SWAP9 POP SWAP4 SWAP7 POP SWAP3 SWAP5 SWAP4 SWAP3 POP POP POP JUMP JUMPDEST PUSH1 0x0 DUP1 PUSH1 0x40 DUP4 DUP6 SUB SLT ISZERO PUSH2 0x179C JUMPI PUSH1 0x0 DUP1 REVERT JUMPDEST PUSH2 0x17A5 DUP4 PUSH2 0x169A JUMP JUMPDEST SWAP5 PUSH1 0x20 SWAP4 SWAP1 SWAP4 ADD CALLDATALOAD SWAP4 POP POP POP JUMP JUMPDEST PUSH4 0x4E487B71 PUSH1 0xE0 SHL PUSH1 0x0 MSTORE PUSH1 0x41 PUSH1 0x4 MSTORE PUSH1 0x24 PUSH1 0x0 REVERT JUMPDEST PUSH1 0x0 DUP1 PUSH1 0x40 DUP4 DUP6 SUB SLT ISZERO PUSH2 0x17DC JUMPI PUSH1 0x0 DUP1 REVERT JUMPDEST DUP3 CALLDATALOAD SWAP2 POP PUSH1 0x20 DUP1 DUP5 ADD CALLDATALOAD PUSH8 0xFFFFFFFFFFFFFFFF DUP1 DUP3 GT ISZERO PUSH2 0x17FC JUMPI PUSH1 0x0 DUP1 REVERT JUMPDEST DUP2 DUP7 ADD SWAP2 POP DUP7 PUSH1 0x1F DUP4 ADD SLT PUSH2 0x1810 JUMPI PUSH1 0x0 DUP1 REVERT JUMPDEST DUP2 CALLDATALOAD DUP2 DUP2 GT ISZERO PUSH2 0x1822 JUMPI PUSH2 0x1822 PUSH2 0x17B3 JUMP JUMPDEST DUP1 PUSH1 0x5 SHL PUSH1 0x40 MLOAD PUSH1 0x1F NOT PUSH1 0x3F DUP4 ADD AND DUP2 ADD DUP2 DUP2 LT DUP6 DUP3 GT OR ISZERO PUSH2 0x1847 JUMPI PUSH2 0x1847 PUSH2 0x17B3 JUMP JUMPDEST PUSH1 0x40 MSTORE SWAP2 DUP3 MSTORE DUP5 DUP3 ADD SWAP3 POP DUP4 DUP2 ADD DUP6 ADD SWAP2 DUP10 DUP4 GT ISZERO PUSH2 0x1865 JUMPI PUSH1 0x0 DUP1 REVERT JUMPDEST SWAP4 DUP6 ADD SWAP4 JUMPDEST DUP3 DUP6 LT ISZERO PUSH2 0x1883 JUMPI DUP5 CALLDATALOAD DUP5 MSTORE SWAP4 DUP6 ADD SWAP4 SWAP3 DUP6 ADD SWAP3 PUSH2 0x186A JUMP JUMPDEST DUP1 SWAP7 POP POP POP POP POP POP POP SWAP3 POP SWAP3 SWAP1 POP JUMP JUMPDEST PUSH1 0x0 PUSH1 0x20 DUP3 DUP5 SUB SLT ISZERO PUSH2 0x18A5 JUMPI PUSH1 0x0 DUP1 REVERT JUMPDEST POP CALLDATALOAD SWAP2 SWAP1 POP JUMP JUMPDEST PUSH1 0x0 DUP1 PUSH1 0x20 DUP4 DUP6 SUB SLT ISZERO PUSH2 0x18BF JUMPI PUSH1 0x0 DUP1 REVERT JUMPDEST DUP3 CALLDATALOAD PUSH8 0xFFFFFFFFFFFFFFFF DUP2 GT ISZERO PUSH2 0x18D6 JUMPI PUSH1 0x0 DUP1 REVERT JUMPDEST PUSH2 0x18E2 DUP6 DUP3 DUP7 ADD PUSH2 0x16D1 JUMP JUMPDEST SWAP1 SWAP7 SWAP1 SWAP6 POP SWAP4 POP POP POP POP JUMP JUMPDEST PUSH1 0x0 DUP2 MLOAD DUP1 DUP5 MSTORE PUSH1 0x0 JUMPDEST DUP2 DUP2 LT ISZERO PUSH2 0x1914 JUMPI PUSH1 0x20 DUP2 DUP6 ADD DUP2 ADD MLOAD DUP7 DUP4 ADD DUP3 ADD MSTORE ADD PUSH2 0x18F8 JUMP JUMPDEST POP PUSH1 0x0 PUSH1 0x20 DUP3 DUP7 ADD ADD MSTORE PUSH1 0x20 PUSH1 0x1F NOT PUSH1 0x1F DUP4 ADD AND DUP6 ADD ADD SWAP2 POP POP SWAP3 SWAP2 POP POP JUMP JUMPDEST DUP3 ISZERO ISZERO DUP2 MSTORE PUSH1 0x40 PUSH1 0x20 DUP3 ADD MSTORE PUSH1 0x0 PUSH2 0x194F PUSH1 0x40 DUP4 ADD DUP5 PUSH2 0x18EE JUMP JUMPDEST SWAP5 SWAP4 POP POP POP POP JUMP JUMPDEST PUSH4 0x4E487B71 PUSH1 0xE0 SHL PUSH1 0x0 MSTORE PUSH1 0x21 PUSH1 0x4 MSTORE PUSH1 0x24 PUSH1 0x0 REVERT JUMPDEST PUSH1 0x4 DUP2 LT PUSH2 0x198B JUMPI PUSH4 0x4E487B71 PUSH1 0xE0 SHL PUSH1 0x0 MSTORE PUSH1 0x21 PUSH1 0x4 MSTORE PUSH1 0x24 PUSH1 0x0 REVERT JUMPDEST SWAP1 MSTORE JUMP JUMPDEST PUSH1 0x0 PUSH2 0x160 PUSH1 0x1 DUP1 PUSH1 0xA0 SHL SUB DUP1 DUP16 AND DUP5 MSTORE DUP14 PUSH1 0x20 DUP6 ADD MSTORE DUP13 PUSH1 0x40 DUP6 ADD MSTORE DUP12 PUSH1 0x60 DUP6 ADD MSTORE DUP11 PUSH1 0x80 DUP6 ADD MSTORE DUP2 PUSH1 0xA0 DUP6 ADD MSTORE PUSH2 0x19CA DUP3 DUP6 ADD DUP12 PUSH2 0x18EE JUMP JUMPDEST SWAP2 POP DUP4 DUP3 SUB PUSH1 0xC0 DUP6 ADD MSTORE PUSH2 0x19DE DUP3 DUP11 PUSH2 0x18EE JUMP JUMPDEST SWAP3 POP DUP1 DUP9 AND PUSH1 0xE0 DUP6 ADD MSTORE DUP1 DUP8 AND PUSH2 0x100 DUP6 ADD MSTORE POP POP PUSH2 0x1A01 PUSH2 0x120 DUP4 ADD DUP6 PUSH2 0x196D JUMP JUMPDEST DUP3 PUSH2 0x140 DUP4 ADD MSTORE SWAP13 SWAP12 POP POP POP POP POP POP POP POP POP POP POP POP JUMP JUMPDEST PUSH1 0x20 DUP2 MSTORE PUSH2 0x1A32 PUSH1 0x20 DUP3 ADD DUP4 MLOAD PUSH1 0x1 PUSH1 0x1 PUSH1 0xA0 SHL SUB AND SWAP1 MSTORE JUMP JUMPDEST PUSH1 0x20 DUP3 ADD MLOAD PUSH1 0x40 DUP3 ADD MSTORE PUSH1 0x40 DUP3 ADD MLOAD PUSH1 0x60 DUP3 ADD MSTORE PUSH1 0x60 DUP3 ADD MLOAD PUSH1 0x80 DUP3 ADD MSTORE PUSH1 0x80 DUP3 ADD MLOAD PUSH1 0xA0 DUP3 ADD MSTORE PUSH1 0x0 PUSH1 0xA0 DUP4 ADD MLOAD PUSH2 0x160 DUP1 PUSH1 0xC0 DUP6 ADD MSTORE PUSH2 0x1A78 PUSH2 0x180 DUP6 ADD DUP4 PUSH2 0x18EE JUMP JUMPDEST SWAP2 POP PUSH1 0xC0 DUP6 ADD MLOAD PUSH1 0x1F NOT DUP6 DUP5 SUB ADD PUSH1 0xE0 DUP7 ADD MSTORE PUSH2 0x1A95 DUP4 DUP3 PUSH2 0x18EE JUMP JUMPDEST SWAP3 POP POP PUSH1 0xE0 DUP6 ADD MLOAD PUSH2 0x100 PUSH2 0x1AB4 DUP2 DUP8 ADD DUP4 PUSH1 0x1 PUSH1 0x1 PUSH1 0xA0 SHL SUB AND SWAP1 MSTORE JUMP JUMPDEST DUP7 ADD MLOAD SWAP1 POP PUSH2 0x120 PUSH2 0x1AD0 DUP7 DUP3 ADD DUP4 PUSH1 0x1 PUSH1 0x1 PUSH1 0xA0 SHL SUB AND SWAP1 MSTORE JUMP JUMPDEST DUP7 ADD MLOAD SWAP1 POP PUSH2 0x140 PUSH2 0x1AE4 DUP7 DUP3 ADD DUP4 PUSH2 0x196D JUMP JUMPDEST SWAP6 SWAP1 SWAP6 ADD MLOAD SWAP4 ADD SWAP3 SWAP1 SWAP3 MSTORE POP SWAP2 SWAP1 POP JUMP JUMPDEST PUSH1 0x20 DUP1 DUP3 MSTORE PUSH1 0xD SWAP1 DUP3 ADD MSTORE PUSH13 0x24B73B30B634B2103A37B5B2B7 PUSH1 0x99 SHL PUSH1 0x40 DUP3 ADD MSTORE PUSH1 0x60 ADD SWAP1 JUMP JUMPDEST PUSH4 0x4E487B71 PUSH1 0xE0 SHL PUSH1 0x0 MSTORE PUSH1 0x11 PUSH1 0x4 MSTORE PUSH1 0x24 PUSH1 0x0 REVERT JUMPDEST DUP1 DUP3 ADD DUP1 DUP3 GT ISZERO PUSH2 0x1141 JUMPI PUSH2 0x1141 PUSH2 0x1B1C JUMP JUMPDEST PUSH4 0x4E487B71 PUSH1 0xE0 SHL PUSH1 0x0 MSTORE PUSH1 0x12 PUSH1 0x4 MSTORE PUSH1 0x24 PUSH1 0x0 REVERT JUMPDEST PUSH1 0x0 DUP3 PUSH2 0x1B6A JUMPI PUSH2 0x1B6A PUSH2 0x1B45 JUMP JUMPDEST POP DIV SWAP1 JUMP JUMPDEST PUSH1 0x0 PUSH1 0x20 DUP3 DUP5 SUB SLT ISZERO PUSH2 0x1B81 JUMPI PUSH1 0x0 DUP1 REVERT JUMPDEST DUP2 MLOAD DUP1 ISZERO ISZERO DUP2 EQ PUSH2 0x15AD JUMPI PUSH1 0x0 DUP1 REVERT JUMPDEST PUSH1 0x1 DUP2 DUP2 SHR SWAP1 DUP3 AND DUP1 PUSH2 0x1BA5 JUMPI PUSH1 0x7F DUP3 AND SWAP2 POP JUMPDEST PUSH1 0x20 DUP3 LT DUP2 SUB PUSH2 0x1BC5 JUMPI PUSH4 0x4E487B71 PUSH1 0xE0 SHL PUSH1 0x0 MSTORE PUSH1 0x22 PUSH1 0x4 MSTORE PUSH1 0x24 PUSH1 0x0 REVERT JUMPDEST POP SWAP2 SWAP1 POP JUMP JUMPDEST DUP1 DUP3 MUL DUP2 ISZERO DUP3 DUP3 DIV DUP5 EQ OR PUSH2 0x1141 JUMPI PUSH2 0x1141 PUSH2 0x1B1C JUMP JUMPDEST PUSH4 0x4E487B71 PUSH1 0xE0 SHL PUSH1 0x0 MSTORE PUSH1 0x32 PUSH1 0x4 MSTORE PUSH1 0x24 PUSH1 0x0 REVERT JUMPDEST PUSH1 0x0 DUP3 PUSH2 0x1C07 JUMPI PUSH2 0x1C07 PUSH2 0x1B45 JUMP JUMPDEST POP MOD SWAP1 JUMP JUMPDEST PUSH1 0x0 PUSH1 0x1 DUP3 ADD PUSH2 0x1C1E JUMPI PUSH2 0x1C1E PUSH2 0x1B1C JUMP JUMPDEST POP PUSH1 0x1 ADD SWAP1 JUMP JUMPDEST PUSH1 0x0 PUSH1 0x20 DUP3 DUP5 SUB SLT ISZERO PUSH2 0x1C37 JUMPI PUSH1 0x0 DUP1 REVERT JUMPDEST POP MLOAD SWAP2 SWAP1 POP JUMP JUMPDEST DUP1 MLOAD PUSH10 0xFFFFFFFFFFFFFFFFFFFF DUP2 AND DUP2 EQ PUSH2 0x16B1 JUMPI PUSH1 0x0 DUP1 REVERT JUMPDEST PUSH1 0x0 DUP1 PUSH1 0x0 DUP1 PUSH1 0x0 PUSH1 0xA0 DUP7 DUP9 SUB SLT ISZERO PUSH2 0x1C70 JUMPI PUSH1 0x0 DUP1 REVERT JUMPDEST PUSH2 0x1C79 DUP7 PUSH2 0x1C3E JUMP JUMPDEST SWAP5 POP PUSH1 0x20 DUP7 ADD MLOAD SWAP4 POP PUSH1 0x40 DUP7 ADD MLOAD SWAP3 POP PUSH1 0x60 DUP7 ADD MLOAD SWAP2 POP PUSH2 0x1C9C PUSH1 0x80 DUP8 ADD PUSH2 0x1C3E JUMP JUMPDEST SWAP1 POP SWAP3 SWAP6 POP SWAP3 SWAP6 SWAP1 SWAP4 POP JUMP JUMPDEST DUP1 DUP3 MUL PUSH1 0x0 DUP3 SLT PUSH1 0x1 PUSH1 0xFF SHL DUP5 EQ AND ISZERO PUSH2 0x1CC4 JUMPI PUSH2 0x1CC4 PUSH2 0x1B1C JUMP JUMPDEST DUP2 DUP2 SDIV DUP4 EQ DUP3 ISZERO OR PUSH2 0x1141 JUMPI PUSH2 0x1141 PUSH2 0x1B1C JUMP INVALID LOG2 PUSH5 0x6970667358 0x22 SLT KECCAK256 0xC7 SWAP7 CREATE2 0x5F SWAP16 0xE 0xDC 0x4A PUSH29 0xB451F4A10CA0EEF27191934F32DFA14D575137F4C6CA4164736F6C6343 STOP ADDMOD SLT STOP CALLER "
	},
	"Assembly": ".code\n  PUSH 1E0\t\t\tcontract ThriftClub is IERC721...\n  PUSH 40\t\t\tcontract ThriftClub is IERC721...\n  MSTORE \t\t\tcontract ThriftClub is IERC721...\n  PUSH 0\t\t\t0\n  PUSH A\t\t\tuint256 paidParticipants = 0\n  SSTORE \t\t\tuint256 paidParticipants = 0\n  PUSH D\t\t\taddress vrfCoordinator = 0x7a1...\n  DUP1 \t\t\taddress vrfCoordinator = 0x7a1...\n  SLOAD \t\t\taddress vrfCoordinator = 0x7a1...\n  PUSH 7A1BAC17CCC5B313516C5E16FB24F7659AA5EBED\t\t\t0x7a1BaC17Ccc5b313516C5E16fb24...\n  PUSH 1\t\t\t\n  PUSH 1\t\t\t\n  PUSH A0\t\t\t\n  SHL \t\t\t\n  SUB \t\t\t\n  NOT \t\t\t\n  SWAP2 \t\t\taddress vrfCoordinator = 0x7a1...\n  DUP3 \t\t\taddress vrfCoordinator = 0x7a1...\n  AND \t\t\taddress vrfCoordinator = 0x7a1...\n  OR \t\t\taddress vrfCoordinator = 0x7a1...\n  SWAP1 \t\t\taddress vrfCoordinator = 0x7a1...\n  SWAP2 \t\t\taddress vrfCoordinator = 0x7a1...\n  SSTORE \t\t\taddress vrfCoordinator = 0x7a1...\n  PUSH E\t\t\taddress link_token_contract = ...\n  DUP1 \t\t\taddress link_token_contract = ...\n  SLOAD \t\t\taddress link_token_contract = ...\n  PUSH 326C977E6EFC84E512BB9C30F76E30C160ED06FB\t\t\t0x326C977E6efc84E512bB9C30f76E...\n  SWAP1 \t\t\taddress link_token_contract = ...\n  DUP4 \t\t\taddress link_token_contract = ...\n  AND \t\t\taddress link_token_contract = ...\n  OR \t\t\taddress link_token_contract = ...\n  SWAP1 \t\t\taddress link_token_contract = ...\n  SSTORE \t\t\taddress link_token_contract = ...\n  PUSH 474E34A077DF58807DBE9C96D3C009B23B3C6D0CCE433E59BBF5B34F823BC56C\t\t\t0x474e34a077df58807dbe9c96d3c0...\n  PUSH F\t\t\tbytes32 keyHash =\\n        0x4...\n  SSTORE \t\t\tbytes32 keyHash =\\n        0x4...\n  PUSH 10\t\t\tuint32 callbackGasLimit = 1000...\n  DUP1 \t\t\tuint32 callbackGasLimit = 1000...\n  SLOAD \t\t\tuint32 callbackGasLimit = 1000...\n  PUSH 1\t\t\t\n  PUSH 1\t\t\t\n  PUSH 50\t\t\t\n  SHL \t\t\t\n  SUB \t\t\t\n  NOT \t\t\t\n  AND \t\t\tuint32 numWords = 1\n  PUSH 10003000186A0\t\t\tuint32 numWords = 1\n  OR \t\t\tuint32 numWords = 1\n  SWAP1 \t\t\tuint32 numWords = 1\n  SSTORE \t\t\tuint32 numWords = 1\n  PUSH 15\t\t\ti_priceFeedToken\n  SLOAD \t\t\ti_priceFeedToken\n  PUSH 14\t\t\tAggregatorV3Interface priceFee...\n  DUP1 \t\t\tAggregatorV3Interface priceFee...\n  SLOAD \t\t\tAggregatorV3Interface priceFee...\n  PUSH 1\t\t\t\n  PUSH 1\t\t\t\n  PUSH A0\t\t\t\n  SHL \t\t\t\n  SUB \t\t\t\n  SWAP1 \t\t\ti_priceFeedToken\n  SWAP3 \t\t\ti_priceFeedToken\n  AND \t\t\ti_priceFeedToken\n  SWAP2 \t\t\tAggregatorV3Interface priceFee...\n  SWAP1 \t\t\tAggregatorV3Interface priceFee...\n  SWAP3 \t\t\tAggregatorV3Interface priceFee...\n  AND \t\t\tAggregatorV3Interface priceFee...\n  OR \t\t\tAggregatorV3Interface priceFee...\n  SWAP1 \t\t\tAggregatorV3Interface priceFee...\n  SSTORE \t\t\tAggregatorV3Interface priceFee...\n  CALLVALUE \t\t\tconstructor(\\n        address ...\n  DUP1 \t\t\tconstructor(\\n        address ...\n  ISZERO \t\t\tconstructor(\\n        address ...\n  PUSH [tag] 1\t\t\tconstructor(\\n        address ...\n  JUMPI \t\t\tconstructor(\\n        address ...\n  PUSH 0\t\t\tconstructor(\\n        address ...\n  DUP1 \t\t\tconstructor(\\n        address ...\n  REVERT \t\t\tconstructor(\\n        address ...\ntag 1\t\t\tconstructor(\\n        address ...\n  JUMPDEST \t\t\tconstructor(\\n        address ...\n  POP \t\t\tconstructor(\\n        address ...\n  PUSH 40\t\t\tconstructor(\\n        address ...\n  MLOAD \t\t\tconstructor(\\n        address ...\n  PUSHSIZE \t\t\tconstructor(\\n        address ...\n  CODESIZE \t\t\tconstructor(\\n        address ...\n  SUB \t\t\tconstructor(\\n        address ...\n  DUP1 \t\t\tconstructor(\\n        address ...\n  PUSHSIZE \t\t\tconstructor(\\n        address ...\n  DUP4 \t\t\tconstructor(\\n        address ...\n  CODECOPY \t\t\tconstructor(\\n        address ...\n  DUP2 \t\t\tconstructor(\\n        address ...\n  ADD \t\t\tconstructor(\\n        address ...\n  PUSH 40\t\t\tconstructor(\\n        address ...\n  DUP2 \t\t\tconstructor(\\n        address ...\n  SWAP1 \t\t\tconstructor(\\n        address ...\n  MSTORE \t\t\tconstructor(\\n        address ...\n  PUSH [tag] 2\t\t\tconstructor(\\n        address ...\n  SWAP2 \t\t\tconstructor(\\n        address ...\n  PUSH [tag] 3\t\t\tconstructor(\\n        address ...\n  JUMP \t\t\tconstructor(\\n        address ...\ntag 2\t\t\tconstructor(\\n        address ...\n  JUMPDEST \t\t\tconstructor(\\n        address ...\n  PUSH D\t\t\tvrfCoordinator\n  SLOAD \t\t\tvrfCoordinator\n  PUSH 1\t\t\t\n  PUSH 1\t\t\t\n  PUSH A0\t\t\t\n  SHL \t\t\t\n  SUB \t\t\t\n  SWAP1 \t\t\tvrfCoordinator\n  DUP2 \t\t\tvrfCoordinator\n  AND \t\t\tvrfCoordinator\n  PUSH 80\t\t\t2);\\n        i_DAIAddress = ad...\n  DUP2 \t\t\t2);\\n        i_DAIAddress = ad...\n  SWAP1 \t\t\t2);\\n        i_DAIAddress = ad...\n  MSTORE \t\t\t2);\\n        i_DAIAddress = ad...\n  PUSH B\t\t\tCOORDINATOR\n  DUP1 \t\t\tCOORDINATOR = VRFCoordinatorV2...\n  SLOAD \t\t\tCOORDINATOR = VRFCoordinatorV2...\n  PUSH 1\t\t\t\n  PUSH 1\t\t\t\n  PUSH A0\t\t\t\n  SHL \t\t\t\n  SUB \t\t\t\n  NOT \t\t\t\n  SWAP1 \t\t\tCOORDINATOR = VRFCoordinatorV2...\n  DUP2 \t\t\tCOORDINATOR = VRFCoordinatorV2...\n  AND \t\t\tCOORDINATOR = VRFCoordinatorV2...\n  SWAP1 \t\t\tCOORDINATOR = VRFCoordinatorV2...\n  SWAP3 \t\t\tCOORDINATOR = VRFCoordinatorV2...\n  OR \t\t\tCOORDINATOR = VRFCoordinatorV2...\n  SWAP1 \t\t\tCOORDINATOR = VRFCoordinatorV2...\n  SSTORE \t\t\tCOORDINATOR = VRFCoordinatorV2...\n  PUSH E\t\t\tlink_token_contract\n  SLOAD \t\t\tlink_token_contract\n  PUSH C\t\t\tLINKTOKEN\n  DUP1 \t\t\tLINKTOKEN = LinkTokenInterface...\n  SLOAD \t\t\tLINKTOKEN = LinkTokenInterface...\n  DUP4 \t\t\tLINKTOKEN = LinkTokenInterface...\n  AND \t\t\tLINKTOKEN = LinkTokenInterface...\n  SWAP2 \t\t\tlink_token_contract\n  DUP5 \t\t\tlink_token_contract\n  AND \t\t\tlink_token_contract\n  SWAP2 \t\t\tLINKTOKEN = LinkTokenInterface...\n  SWAP1 \t\t\tLINKTOKEN = LinkTokenInterface...\n  SWAP2 \t\t\tLINKTOKEN = LinkTokenInterface...\n  OR \t\t\tLINKTOKEN = LinkTokenInterface...\n  SWAP1 \t\t\tLINKTOKEN = LinkTokenInterface...\n  SSTORE \t\t\tLINKTOKEN = LinkTokenInterface...\n  PUSH D0D5E3DB44DE05E9F294BB0A3BEEAF030DE24ADA\t\t\t0xd0D5e3DB44DE05E9F294BB0a3bEE...\n  PUSH A0\t\t\ti_priceFeedNative = Aggregator...\n  MSTORE \t\t\ti_priceFeedNative = Aggregator...\n  PUSH 572DDEC9087154DC5DFBB1546BB62713147E0AB0\t\t\t0x572dDec9087154dC5dfBB1546Bb6...\n  PUSH C0\t\t\ti_priceFeedUSDC = AggregatorV3...\n  MSTORE \t\t\ti_priceFeedUSDC = AggregatorV3...\n  PUSH 92C09849638959196E976289418E5973CC96D645\t\t\t0x92C09849638959196E976289418e...\n  PUSH E0\t\t\ti_priceFeedUSDT = AggregatorV3...\n  MSTORE \t\t\ti_priceFeedUSDT = AggregatorV3...\n  PUSH FCAA9C899EC5A91EBC3D5DD869DE833B06FB046\t\t\t0x0FCAa9c899EC5A91eBc3D5Dd869D...\n  PUSH 100\t\t\tvrfCoordinator\n  MSTORE \t\t\ti_priceFeedDAI = AggregatorV3I...\n  PUSH 7A22900A3B98143368BD5906F8E17E9867581B\t\t\t0x007A22900a3B98143368Bd5906f8...\n  PUSH 120\t\t\ti_priceFeedBTC = AggregatorV3I...\n  MSTORE \t\t\ti_priceFeedBTC = AggregatorV3I...\n  PUSH 0\t\t\tvrfCoordinator\n  PUSH 140\t\t\ti_NativeAddress = address(0x00...\n  DUP2 \t\t\ti_NativeAddress = address(0x00...\n  SWAP1 \t\t\ti_NativeAddress = address(0x00...\n  MSTORE \t\t\ti_NativeAddress = address(0x00...\n  PUSH FA8781A83E46826621B3BC094EA2A0212E71B23\t\t\t0x0FA8781a83E46826621b3BC094Ea...\n  PUSH 160\t\t\ti_USDCAddress = address(0x0FA8...\n  MSTORE \t\t\ti_USDCAddress = address(0x0FA8...\n  PUSH A02F6ADC7926EFEBBD59FD43A84F4E0C0C91E832\t\t\t0xA02f6adc7926efeBBd59Fd43A84f...\n  PUSH 180\t\t\ti_USDTAddress = address(0xA02f...\n  MSTORE \t\t\ti_USDTAddress = address(0xA02f...\n  PUSH 1B3B4D0F3714CA98BA10F6042DAEBF0B1B7B6F\t\t\t0x001B3B4d0F3714Ca98ba10F6042D...\n  PUSH 1A0\t\t\ti_DAIAddress = address(0x001B3...\n  MSTORE \t\t\ti_DAIAddress = address(0x001B3...\n  PUSH D787A4A1548F673ED375445535A6C7A1EE56180\t\t\t0x0d787a4a1548f673ed375445535a...\n  PUSH 1C0\t\t\ti_WBTCAddress = address(0x0d78...\n  MSTORE \t\t\ti_WBTCAddress = address(0x0d78...\n  DUP1 \t\t\ts_thriftClub.token = _token\n  SLOAD \t\t\ts_thriftClub.token = _token\n  SWAP3 \t\t\ts_thriftClub.token = _token\n  DUP13 \t\t\ts_thriftClub.token = _token\n  AND \t\t\ts_thriftClub.token = _token\n  SWAP3 \t\t\ts_thriftClub.token = _token\n  SWAP1 \t\t\ts_thriftClub.token = _token\n  SWAP2 \t\t\ts_thriftClub.token = _token\n  AND \t\t\ts_thriftClub.token = _token\n  SWAP2 \t\t\ts_thriftClub.token = _token\n  SWAP1 \t\t\ts_thriftClub.token = _token\n  SWAP2 \t\t\ts_thriftClub.token = _token\n  OR \t\t\ts_thriftClub.token = _token\n  SWAP1 \t\t\ts_thriftClub.token = _token\n  SSTORE \t\t\ts_thriftClub.token = _token\n  PUSH 1\t\t\tvrfCoordinator\n  DUP9 \t\t\ts_thriftClub.cycleDuration = _...\n  SWAP1 \t\t\ts_thriftClub.cycleDuration = _...\n  SSTORE \t\t\ts_thriftClub.cycleDuration = _...\n  PUSH 2\t\t\t\n  DUP8 \t\t\ts_thriftClub.contributionAmoun...\n  SWAP1 \t\t\ts_thriftClub.contributionAmoun...\n  SSTORE \t\t\ts_thriftClub.contributionAmoun...\n  PUSH 3\t\t\ts_thriftClub.penalty\n  DUP7 \t\t\ts_thriftClub.penalty = _penalt...\n  SWAP1 \t\t\ts_thriftClub.penalty = _penalt...\n  SSTORE \t\t\ts_thriftClub.penalty = _penalt...\n  PUSH 4\t\t\ts_thriftClub.maxParticipant\n  DUP6 \t\t\ts_thriftClub.maxParticipant = ...\n  SWAP1 \t\t\ts_thriftClub.maxParticipant = ...\n  SSTORE \t\t\ts_thriftClub.maxParticipant = ...\n  PUSH 5\t\t\ts_thriftClub.name\n  PUSH [tag] 8\t\t\ts_thriftClub.name = _name\n  DUP6 \t\t\t_name\n  DUP3 \t\t\ts_thriftClub.name\n  PUSH [tag] 9\t\t\ts_thriftClub.name = _name\n  JUMP \t\t\ts_thriftClub.name = _name\ntag 8\t\t\ts_thriftClub.name = _name\n  JUMPDEST \t\t\ts_thriftClub.name = _name\n  POP \t\t\t\n  PUSH 6\t\t\ts_thriftClub.description\n  PUSH [tag] 10\t\t\ts_thriftClub.description = _de...\n  DUP5 \t\t\t_description\n  DUP3 \t\t\ts_thriftClub.description\n  PUSH [tag] 9\t\t\ts_thriftClub.description = _de...\n  JUMP \t\t\ts_thriftClub.description = _de...\ntag 10\t\t\ts_thriftClub.description = _de...\n  JUMPDEST \t\t\ts_thriftClub.description = _de...\n  POP \t\t\t\n  PUSH 7\t\t\ts_thriftClub.nftContract\n  DUP1 \t\t\ts_thriftClub.nftContract = IER...\n  SLOAD \t\t\ts_thriftClub.nftContract = IER...\n  PUSH 1\t\t\t\n  PUSH 1\t\t\t\n  PUSH A0\t\t\t\n  SHL \t\t\t\n  SUB \t\t\t\n  NOT \t\t\t\n  AND \t\t\ts_thriftClub.nftContract = IER...\n  PUSH 1\t\t\t\n  PUSH 1\t\t\t\n  PUSH A0\t\t\t\n  SHL \t\t\t\n  SUB \t\t\t\n  DUP5 \t\t\ts_thriftClub.nftContract = IER...\n  DUP2 \t\t\ts_thriftClub.nftContract = IER...\n  AND \t\t\ts_thriftClub.nftContract = IER...\n  SWAP2 \t\t\ts_thriftClub.nftContract = IER...\n  SWAP1 \t\t\ts_thriftClub.nftContract = IER...\n  SWAP2 \t\t\ts_thriftClub.nftContract = IER...\n  OR \t\t\ts_thriftClub.nftContract = IER...\n  SWAP1 \t\t\ts_thriftClub.nftContract = IER...\n  SWAP2 \t\t\ts_thriftClub.nftContract = IER...\n  SSTORE \t\t\ts_thriftClub.nftContract = IER...\n  PUSH 8\t\t\ts_thriftClub.daoContract\n  DUP1 \t\t\ts_thriftClub.daoContract = IDA...\n  SLOAD \t\t\ts_thriftClub.daoContract = IDA...\n  PUSH 1\t\t\t\n  PUSH 1\t\t\t\n  PUSH A8\t\t\t\n  SHL \t\t\t\n  SUB \t\t\t\n  NOT \t\t\t\n  AND \t\t\ts_thriftClub.t_state = TANDA_S...\n  SWAP2 \t\t\ts_thriftClub.daoContract = IDA...\n  DUP4 \t\t\ts_thriftClub.daoContract = IDA...\n  AND \t\t\ts_thriftClub.daoContract = IDA...\n  SWAP2 \t\t\ts_thriftClub.t_state = TANDA_S...\n  SWAP1 \t\t\ts_thriftClub.t_state = TANDA_S...\n  SWAP2 \t\t\ts_thriftClub.t_state = TANDA_S...\n  OR \t\t\ts_thriftClub.t_state = TANDA_S...\n  SWAP1 \t\t\ts_thriftClub.t_state = TANDA_S...\n  SSTORE \t\t\ts_thriftClub.t_state = TANDA_S...\n  TIMESTAMP \t\t\tblock.timestamp\n  PUSH 9\t\t\ts_thriftClub.lastUpdateTimesta...\n  SSTORE \t\t\ts_thriftClub.lastUpdateTimesta...\n  DUP2 \t\t\ts_thriftClub.nftContract = IER...\n  PUSH [tag] 14\t\t\tsetPriceFeedToken(_token)\n  DUP11 \t\t\t_token\n  PUSH [tag] 15\t\t\tsetPriceFeedToken\n  JUMP \t\t\tsetPriceFeedToken(_token)\ntag 14\t\t\tsetPriceFeedToken(_token)\n  JUMPDEST \t\t\tsetPriceFeedToken(_token)\n  POP \t\t\t{\\n        COORDINATOR = VRFCo...\n  POP \t\t\tconstructor(\\n        address ...\n  POP \t\t\tconstructor(\\n        address ...\n  POP \t\t\tconstructor(\\n        address ...\n  POP \t\t\tconstructor(\\n        address ...\n  POP \t\t\tconstructor(\\n        address ...\n  POP \t\t\tconstructor(\\n        address ...\n  POP \t\t\tconstructor(\\n        address ...\n  POP \t\t\tconstructor(\\n        address ...\n  POP \t\t\tconstructor(\\n        address ...\n  PUSH [tag] 37\t\t\tcontract ThriftClub is IERC721...\n  JUMP \t\t\tcontract ThriftClub is IERC721...\ntag 15\t\t\tfunction setPriceFeedToken(add...\n  JUMPDEST \t\t\tfunction setPriceFeedToken(add...\n  PUSH 160\t\t\ti_USDCAddress\n  MLOAD \t\t\ti_USDCAddress\n  PUSH 1\t\t\t\n  PUSH 1\t\t\t\n  PUSH A0\t\t\t\n  SHL \t\t\t\n  SUB \t\t\t\n  AND \t\t\t_token == i_USDCAddress\n  DUP2 \t\t\t_token\n  PUSH 1\t\t\t\n  PUSH 1\t\t\t\n  PUSH A0\t\t\t\n  SHL \t\t\t\n  SUB \t\t\t\n  AND \t\t\t_token == i_USDCAddress\n  SUB \t\t\t_token == i_USDCAddress\n  PUSH [tag] 18\t\t\tif (_token == i_USDCAddress) {...\n  JUMPI \t\t\tif (_token == i_USDCAddress) {...\n  PUSH 160\t\t\ti_USDCAddress\n  MLOAD \t\t\ti_USDCAddress\n  PUSH 15\t\t\ti_priceFeedToken\n  DUP1 \t\t\ti_priceFeedToken = i_USDCAddre...\n  SLOAD \t\t\ti_priceFeedToken = i_USDCAddre...\n  PUSH 1\t\t\t\n  PUSH 1\t\t\t\n  PUSH A0\t\t\t\n  SHL \t\t\t\n  SUB \t\t\t\n  NOT \t\t\t\n  AND \t\t\ti_priceFeedToken = i_USDCAddre...\n  PUSH 1\t\t\t\n  PUSH 1\t\t\t\n  PUSH A0\t\t\t\n  SHL \t\t\t\n  SUB \t\t\t\n  SWAP1 \t\t\ti_priceFeedToken = i_USDCAddre...\n  SWAP3 \t\t\ti_priceFeedToken = i_USDCAddre...\n  AND \t\t\ti_priceFeedToken = i_USDCAddre...\n  SWAP2 \t\t\ti_priceFeedToken = i_USDCAddre...\n  SWAP1 \t\t\ti_priceFeedToken = i_USDCAddre...\n  SWAP2 \t\t\ti_priceFeedToken = i_USDCAddre...\n  OR \t\t\ti_priceFeedToken = i_USDCAddre...\n  SWAP1 \t\t\ti_priceFeedToken = i_USDCAddre...\n  SSTORE \t\t\ti_priceFeedToken = i_USDCAddre...\n  POP \t\t\tfunction setPriceFeedToken(add...\n  JUMP \t\t\tfunction setPriceFeedToken(add...\ntag 18\t\t\tif (_token == i_USDCAddress) {...\n  JUMPDEST \t\t\tif (_token == i_USDCAddress) {...\n  PUSH 180\t\t\ti_USDTAddress\n  MLOAD \t\t\ti_USDTAddress\n  PUSH 1\t\t\t\n  PUSH 1\t\t\t\n  PUSH A0\t\t\t\n  SHL \t\t\t\n  SUB \t\t\t\n  AND \t\t\t_token == i_USDTAddress\n  DUP2 \t\t\t_token\n  PUSH 1\t\t\t\n  PUSH 1\t\t\t\n  PUSH A0\t\t\t\n  SHL \t\t\t\n  SUB \t\t\t\n  AND \t\t\t_token == i_USDTAddress\n  SUB \t\t\t_token == i_USDTAddress\n  PUSH [tag] 20\t\t\tif (_token == i_USDTAddress) {...\n  JUMPI \t\t\tif (_token == i_USDTAddress) {...\n  PUSH 180\t\t\ti_USDTAddress\n  MLOAD \t\t\ti_USDTAddress\n  PUSH 15\t\t\ti_priceFeedToken\n  DUP1 \t\t\ti_priceFeedToken = i_USDTAddre...\n  SLOAD \t\t\ti_priceFeedToken = i_USDTAddre...\n  PUSH 1\t\t\t\n  PUSH 1\t\t\t\n  PUSH A0\t\t\t\n  SHL \t\t\t\n  SUB \t\t\t\n  NOT \t\t\t\n  AND \t\t\ti_priceFeedToken = i_USDTAddre...\n  PUSH 1\t\t\t\n  PUSH 1\t\t\t\n  PUSH A0\t\t\t\n  SHL \t\t\t\n  SUB \t\t\t\n  SWAP1 \t\t\ti_priceFeedToken = i_USDTAddre...\n  SWAP3 \t\t\ti_priceFeedToken = i_USDTAddre...\n  AND \t\t\ti_priceFeedToken = i_USDTAddre...\n  SWAP2 \t\t\ti_priceFeedToken = i_USDTAddre...\n  SWAP1 \t\t\ti_priceFeedToken = i_USDTAddre...\n  SWAP2 \t\t\ti_priceFeedToken = i_USDTAddre...\n  OR \t\t\ti_priceFeedToken = i_USDTAddre...\n  SWAP1 \t\t\ti_priceFeedToken = i_USDTAddre...\n  SSTORE \t\t\ti_priceFeedToken = i_USDTAddre...\n  POP \t\t\tfunction setPriceFeedToken(add...\n  JUMP \t\t\tfunction setPriceFeedToken(add...\ntag 20\t\t\tif (_token == i_USDTAddress) {...\n  JUMPDEST \t\t\tif (_token == i_USDTAddress) {...\n  PUSH 1A0\t\t\ti_DAIAddress\n  MLOAD \t\t\ti_DAIAddress\n  PUSH 1\t\t\t\n  PUSH 1\t\t\t\n  PUSH A0\t\t\t\n  SHL \t\t\t\n  SUB \t\t\t\n  AND \t\t\t_token == i_DAIAddress\n  DUP2 \t\t\t_token\n  PUSH 1\t\t\t\n  PUSH 1\t\t\t\n  PUSH A0\t\t\t\n  SHL \t\t\t\n  SUB \t\t\t\n  AND \t\t\t_token == i_DAIAddress\n  SUB \t\t\t_token == i_DAIAddress\n  PUSH [tag] 22\t\t\tif (_token == i_DAIAddress) {\\...\n  JUMPI \t\t\tif (_token == i_DAIAddress) {\\...\n  PUSH 1A0\t\t\ti_DAIAddress\n  MLOAD \t\t\ti_DAIAddress\n  PUSH 15\t\t\ti_priceFeedToken\n  DUP1 \t\t\ti_priceFeedToken = i_DAIAddres...\n  SLOAD \t\t\ti_priceFeedToken = i_DAIAddres...\n  PUSH 1\t\t\t\n  PUSH 1\t\t\t\n  PUSH A0\t\t\t\n  SHL \t\t\t\n  SUB \t\t\t\n  NOT \t\t\t\n  AND \t\t\ti_priceFeedToken = i_DAIAddres...\n  PUSH 1\t\t\t\n  PUSH 1\t\t\t\n  PUSH A0\t\t\t\n  SHL \t\t\t\n  SUB \t\t\t\n  SWAP1 \t\t\ti_priceFeedToken = i_DAIAddres...\n  SWAP3 \t\t\ti_priceFeedToken = i_DAIAddres...\n  AND \t\t\ti_priceFeedToken = i_DAIAddres...\n  SWAP2 \t\t\ti_priceFeedToken = i_DAIAddres...\n  SWAP1 \t\t\ti_priceFeedToken = i_DAIAddres...\n  SWAP2 \t\t\ti_priceFeedToken = i_DAIAddres...\n  OR \t\t\ti_priceFeedToken = i_DAIAddres...\n  SWAP1 \t\t\ti_priceFeedToken = i_DAIAddres...\n  SSTORE \t\t\ti_priceFeedToken = i_DAIAddres...\n  POP \t\t\tfunction setPriceFeedToken(add...\n  JUMP \t\t\tfunction setPriceFeedToken(add...\ntag 22\t\t\tif (_token == i_DAIAddress) {\\...\n  JUMPDEST \t\t\tif (_token == i_DAIAddress) {\\...\n  PUSH 1C0\t\t\ti_WBTCAddress\n  MLOAD \t\t\ti_WBTCAddress\n  PUSH 1\t\t\t\n  PUSH 1\t\t\t\n  PUSH A0\t\t\t\n  SHL \t\t\t\n  SUB \t\t\t\n  AND \t\t\t_token == i_WBTCAddress\n  DUP2 \t\t\t_token\n  PUSH 1\t\t\t\n  PUSH 1\t\t\t\n  PUSH A0\t\t\t\n  SHL \t\t\t\n  SUB \t\t\t\n  AND \t\t\t_token == i_WBTCAddress\n  SUB \t\t\t_token == i_WBTCAddress\n  PUSH [tag] 24\t\t\tif (_token == i_WBTCAddress) {...\n  JUMPI \t\t\tif (_token == i_WBTCAddress) {...\n  PUSH 1C0\t\t\ti_WBTCAddress\n  MLOAD \t\t\ti_WBTCAddress\n  PUSH 15\t\t\ti_priceFeedToken\n  DUP1 \t\t\ti_priceFeedToken = i_WBTCAddre...\n  SLOAD \t\t\ti_priceFeedToken = i_WBTCAddre...\n  PUSH 1\t\t\t\n  PUSH 1\t\t\t\n  PUSH A0\t\t\t\n  SHL \t\t\t\n  SUB \t\t\t\n  NOT \t\t\t\n  AND \t\t\ti_priceFeedToken = i_WBTCAddre...\n  PUSH 1\t\t\t\n  PUSH 1\t\t\t\n  PUSH A0\t\t\t\n  SHL \t\t\t\n  SUB \t\t\t\n  SWAP1 \t\t\ti_priceFeedToken = i_WBTCAddre...\n  SWAP3 \t\t\ti_priceFeedToken = i_WBTCAddre...\n  AND \t\t\ti_priceFeedToken = i_WBTCAddre...\n  SWAP2 \t\t\ti_priceFeedToken = i_WBTCAddre...\n  SWAP1 \t\t\ti_priceFeedToken = i_WBTCAddre...\n  SWAP2 \t\t\ti_priceFeedToken = i_WBTCAddre...\n  OR \t\t\ti_priceFeedToken = i_WBTCAddre...\n  SWAP1 \t\t\ti_priceFeedToken = i_WBTCAddre...\n  SSTORE \t\t\ti_priceFeedToken = i_WBTCAddre...\n  POP \t\t\tfunction setPriceFeedToken(add...\n  JUMP \t\t\tfunction setPriceFeedToken(add...\ntag 24\t\t\tif (_token == i_WBTCAddress) {...\n  JUMPDEST \t\t\tif (_token == i_WBTCAddress) {...\n  PUSH 140\t\t\ti_NativeAddress\n  MLOAD \t\t\ti_NativeAddress\n  PUSH 1\t\t\t\n  PUSH 1\t\t\t\n  PUSH A0\t\t\t\n  SHL \t\t\t\n  SUB \t\t\t\n  AND \t\t\t_token == i_NativeAddress\n  DUP2 \t\t\t_token\n  PUSH 1\t\t\t\n  PUSH 1\t\t\t\n  PUSH A0\t\t\t\n  SHL \t\t\t\n  SUB \t\t\t\n  AND \t\t\t_token == i_NativeAddress\n  SUB \t\t\t_token == i_NativeAddress\n  PUSH [tag] 26\t\t\tif (_token == i_NativeAddress)...\n  JUMPI \t\t\tif (_token == i_NativeAddress)...\n  PUSH 140\t\t\ti_NativeAddress\n  MLOAD \t\t\ti_NativeAddress\n  PUSH 15\t\t\ti_priceFeedToken\n  DUP1 \t\t\ti_priceFeedToken = i_NativeAdd...\n  SLOAD \t\t\ti_priceFeedToken = i_NativeAdd...\n  PUSH 1\t\t\t\n  PUSH 1\t\t\t\n  PUSH A0\t\t\t\n  SHL \t\t\t\n  SUB \t\t\t\n  NOT \t\t\t\n  AND \t\t\ti_priceFeedToken = i_NativeAdd...\n  PUSH 1\t\t\t\n  PUSH 1\t\t\t\n  PUSH A0\t\t\t\n  SHL \t\t\t\n  SUB \t\t\t\n  SWAP1 \t\t\ti_priceFeedToken = i_NativeAdd...\n  SWAP3 \t\t\ti_priceFeedToken = i_NativeAdd...\n  AND \t\t\ti_priceFeedToken = i_NativeAdd...\n  SWAP2 \t\t\ti_priceFeedToken = i_NativeAdd...\n  SWAP1 \t\t\ti_priceFeedToken = i_NativeAdd...\n  SWAP2 \t\t\ti_priceFeedToken = i_NativeAdd...\n  OR \t\t\ti_priceFeedToken = i_NativeAdd...\n  SWAP1 \t\t\ti_priceFeedToken = i_NativeAdd...\n  SSTORE \t\t\ti_priceFeedToken = i_NativeAdd...\n  POP \t\t\tfunction setPriceFeedToken(add...\n  JUMP \t\t\tfunction setPriceFeedToken(add...\ntag 26\t\t\tif (_token == i_NativeAddress)...\n  JUMPDEST \t\t\tif (_token == i_NativeAddress)...\n  PUSH 40\t\t\trevert(\"Invalid token address\"...\n  MLOAD \t\t\trevert(\"Invalid token address\"...\n  PUSH 461BCD\t\t\t\n  PUSH E5\t\t\t\n  SHL \t\t\t\n  DUP2 \t\t\trevert(\"Invalid token address\"...\n  MSTORE \t\t\trevert(\"Invalid token address\"...\n  PUSH 20\t\t\tfB\n  PUSH 4\t\t\trevert(\"Invalid token address\"...\n  DUP3 \t\t\trevert(\"Invalid token address\"...\n  ADD \t\t\trevert(\"Invalid token address\"...\n  MSTORE \t\t\tBc3D5Dd869De833b06fB0\n  PUSH 15\t\t\t =\n  PUSH 24\t\t\t      i_priceFeedB\n  DUP3 \t\t\t      i_priceFeedB\n  ADD \t\t\t      i_priceFeedB\n  MSTORE \t\t\t  );\\n        i_priceFeedBTC =...\n  PUSH 496E76616C696420746F6B656E20616464726573730000000000000000000000\t\t\tx007A22900a3B98143368Bd\n  PUSH 44\t\t\trface(\\n           \n  DUP3 \t\t\trface(\\n           \n  ADD \t\t\trface(\\n           \n  MSTORE \t\t\trV3Interface(\\n            0x0...\n  PUSH 64\t\t\t\\n        );\\n      \n  ADD \t\t\t\\n        );\\n      \n  PUSH 40\t\t\trevert(\"Invalid token address\"...\n  MLOAD \t\t\trevert(\"Invalid token address\"...\n  DUP1 \t\t\trevert(\"Invalid token address\"...\n  SWAP2 \t\t\trevert(\"Invalid token address\"...\n  SUB \t\t\trevert(\"Invalid token address\"...\n  SWAP1 \t\t\trevert(\"Invalid token address\"...\n  REVERT \t\t\trevert(\"Invalid token address\"...\ntag 30\t\t\te-Identifier: MIT\\npragma soli...\n  JUMPDEST \t\t\te-Identifier: MIT\\npragma soli...\n  DUP1 \t\t\tn/ERC20/ERC20\n  MLOAD \t\t\tn/ERC20/ERC20\n  PUSH 1\t\t\t\n  PUSH 1\t\t\t\n  PUSH A0\t\t\t\n  SHL \t\t\t\n  SUB \t\t\t\n  DUP2 \t\t\tcontracts/token/ERC721/IERC721...\n  AND \t\t\tcontracts/token/ERC721/IERC721...\n  DUP2 \t\t\tnzeppelin/contracts/token/ERC7...\n  EQ \t\t\tnzeppelin/contracts/token/ERC7...\n  PUSH [tag] 39\t\t\tport \"@openzeppelin/contracts/...\n  JUMPI \t\t\tport \"@openzeppelin/contracts/...\n  PUSH 0\t\t\to\n  DUP1 \t\t\t \n  REVERT \t\t\t\\nimport \"@op\ntag 39\t\t\tport \"@openzeppelin/contracts/...\n  JUMPDEST \t\t\tport \"@openzeppelin/contracts/...\n  SWAP2 \t\t\te-Identifier: MIT\\npragma soli...\n  SWAP1 \t\t\te-Identifier: MIT\\npragma soli...\n  POP \t\t\te-Identifier: MIT\\npragma soli...\n  JUMP \t\t\te-Identifier: MIT\\npragma soli...\ntag 31\t\t\tntracts/token/ERC721/IERC721Re...\n  JUMPDEST \t\t\tntracts/token/ERC721/IERC721Re...\n  PUSH 4E487B71\t\t\tlin/contra\n  PUSH E0\t\t\tzep\n  SHL \t\t\topenzeppelin/contrac\n  PUSH 0\t\t\t \n  MSTORE \t\t\t\\nimport \"@openzeppelin/contra...\n  PUSH 41\t\t\t\";\\ni\n  PUSH 4\t\t\ts\n  MSTORE \t\t\tddress.sol\";\\nim\n  PUSH 24\t\t\tntra\n  PUSH 0\t\t\t/\n  REVERT \t\t\tainlink/contrac\ntag 32\t\t\t/interfaces/AggregatorV3Interf...\n  JUMPDEST \t\t\t/interfaces/AggregatorV3Interf...\n  PUSH 0\t\t\tlink/\n  DUP3 \t\t\tter\n  PUSH 1F\t\t\ttorV\n  DUP4 \t\t\tCoordi\n  ADD \t\t\t/VRFCoordinatorV2\n  SLT \t\t\taces/VRFCoordinatorV2Interf\n  PUSH [tag] 42\t\t\t0.8/interfaces/VRFCoordinatorV...\n  JUMPI \t\t\t0.8/interfaces/VRFCoordinatorV...\n  PUSH 0\t\t\tr\n  DUP1 \t\t\tm\n  REVERT \t\t\tsol\";\\nimport\ntag 42\t\t\t0.8/interfaces/VRFCoordinatorV...\n  JUMPDEST \t\t\t0.8/interfaces/VRFCoordinatorV...\n  DUP2 \t\t\ts/src/v0.8/VR\n  MLOAD \t\t\ts/src/v0.8/VR\n  PUSH 1\t\t\t\n  PUSH 1\t\t\t\n  PUSH 40\t\t\t\n  SHL \t\t\t\n  SUB \t\t\t\n  DUP1 \t\t\ts/src/v0.8\n  DUP3 \t\t\ts/src/v0.8\n  GT \t\t\ts/src/v0.8\n  ISZERO \t\t\tacts/src/v0.8/interfaces/LinkT...\n  PUSH [tag] 44\t\t\tacts/src/v0.8/interfaces/LinkT...\n  JUMPI \t\t\tacts/src/v0.8/interfaces/LinkT...\n  PUSH [tag] 44\t\t\tterfaces/LinkToken\n  PUSH [tag] 31\t\t\tterfaces/LinkToken\n  JUMP \t\t\tterfaces/LinkToken\ntag 44\t\t\tterfaces/LinkToken\n  JUMPDEST \t\t\tterfaces/LinkToken\n  PUSH 40\t\t\try\n  MLOAD \t\t\t library\\n\n  PUSH 1F\t\t\ts \n  DUP4 \t\t\tt.sol\";\\n// im\n  ADD \t\t\tt.sol\";\\n// im\n  PUSH 1F\t\t\t\n  NOT \t\t\t\n  SWAP1 \t\t\ttract.sol\";\\n// import \n  DUP2 \t\t\ttract.sol\";\\n// import \n  AND \t\t\ttract.sol\";\\n// import \n  PUSH 3F\t\t\t/C\n  ADD \t\t\tOContract.sol\";\\n// import \"./...\n  AND \t\t\t./DAOContract.sol\";\\n// import...\n  DUP2 \t\t\tl\";\\nimport \"./DAOContract.sol...\n  ADD \t\t\tl\";\\nimport \"./DAOContract.sol...\n  SWAP1 \t\t\tl\";\\nimport \"./DAOContract.sol...\n  DUP3 \t\t\t\\nimport \"./NFTCont\n  DUP3 \t\t\t\\nimport \"./NFTCont\n  GT \t\t\t\\nimport \"./NFTCont\n  DUP2 \t\t\tct.sol\";\\nimport \"./IDA\n  DUP4 \t\t\tct.sol\";\\nimport \"./IDA\n  LT \t\t\tct.sol\";\\nimport \"./IDA\n  OR \t\t\tl\";\\nimport \"./NFTContract.sol...\n  ISZERO \t\t\t.sol\";\\nimport \"./NFTContract....\n  PUSH [tag] 46\t\t\t.sol\";\\nimport \"./NFTContract....\n  JUMPI \t\t\t.sol\";\\nimport \"./NFTContract....\n  PUSH [tag] 46\t\t\ttract.sol\";\\n\\nerror\n  PUSH [tag] 31\t\t\ttract.sol\";\\n\\nerror\n  JUMP \t\t\ttract.sol\";\\n\\nerror\ntag 46\t\t\ttract.sol\";\\n\\nerror\n  JUMPDEST \t\t\ttract.sol\";\\n\\nerror\n  DUP2 \t\t\tcontract T\n  PUSH 40\t\t\t);\n  MSTORE \t\t\tFailed();\\n\\ncontract Th\n  DUP4 \t\t\tve\n  DUP2 \t\t\t721Rec\n  MSTORE \t\t\tis IERC721Receiver\n  PUSH 20\t\t\t {\\n \n  SWAP3 \t\t\tumerBaseV2 {\\n \n  POP \t\t\tumerBaseV2 {\\n \n  DUP7 \t\t\t   \n  DUP4 \t\t\t  \n  DUP6 \t\t\tPE\n  DUP9 \t\t\t      \n  ADD \t\t\t {\\n        OPEN\n  ADD \t\t\tTATE {\\n        OPEN,\\n   \n  GT \t\t\tA_STATE {\\n        OPEN,\\n    ...\n  ISZERO \t\t\tANDA_STATE {\\n        OPEN,\\n ...\n  PUSH [tag] 47\t\t\tANDA_STATE {\\n        OPEN,\\n ...\n  JUMPI \t\t\tANDA_STATE {\\n        OPEN,\\n ...\n  PUSH 0\t\t\t \n  DUP1 \t\t\t \n  REVERT \t\t\tED,\\n        \ntag 47\t\t\tANDA_STATE {\\n        OPEN,\\n ...\n  JUMPDEST \t\t\tANDA_STATE {\\n        OPEN,\\n ...\n  PUSH 0\t\t\t\\n\n  SWAP2 \t\t\tPROGRESS,\\n\n  POP \t\t\tPROGRESS,\\n\ntag 48\t\t\tOMPLETED\\n    }\\n    struct Th...\n  JUMPDEST \t\t\tOMPLETED\\n    }\\n    struct Th...\n  DUP4 \t\t\t\\n \n  DUP3 \t\t\t \n  LT \t\t\t\\n    }\\n  \n  ISZERO \t\t\tOMPLETED\\n    }\\n    struct Th...\n  PUSH [tag] 50\t\t\tOMPLETED\\n    }\\n    struct Th...\n  JUMPI \t\t\tOMPLETED\\n    }\\n    struct Th...\n  DUP6 \t\t\t   uint256 con\n  DUP3 \t\t\t   uint256 con\n  ADD \t\t\t   uint256 con\n  DUP4 \t\t\t       uint256 contribu\n  ADD \t\t\t       uint256 contribu\n  MLOAD \t\t\tion;\\n        uint256 contribu...\n  DUP2 \t\t\t   uint256 cyc\n  DUP4 \t\t\t   uint256 cyc\n  ADD \t\t\t   uint256 cyc\n  DUP5 \t\t\t       uint256 cycleDur\n  ADD \t\t\t       uint256 cycleDur\n  MSTORE \t\t\token;\\n        uint256 cycleDu...\n  SWAP1 \t\t\t ThriftClu\n  DUP3 \t\t\t ThriftClu\n  ADD \t\t\t ThriftClu\n  SWAP1 \t\t\t ThriftClu\n  PUSH [tag] 48\t\t\tOMPLETED\\n    }\\n    struct Th...\n  JUMP \t\t\tOMPLETED\\n    }\\n    struct Th...\ntag 50\t\t\tOMPLETED\\n    }\\n    struct Th...\n  JUMPDEST \t\t\tOMPLETED\\n    }\\n    struct Th...\n  PUSH 0\t\t\ta\n  SWAP4 \t\t\tlty;\\n        ui\n  DUP2 \t\t\tlty;\\n        ui\n  ADD \t\t\tlty;\\n        ui\n  SWAP1 \t\t\tpenalty;\\n        uint256\n  SWAP3 \t\t\tpenalty;\\n        uint256\n  ADD \t\t\tpenalty;\\n        uint256\n  SWAP3 \t\t\tint256 penalty;\\n        uint2...\n  SWAP1 \t\t\tint256 penalty;\\n        uint2...\n  SWAP3 \t\t\tint256 penalty;\\n        uint2...\n  MSTORE \t\t\tint256 penalty;\\n        uint2...\n  SWAP5 \t\t\t\\n     \n  SWAP4 \t\t\t/interfaces/AggregatorV3Interf...\n  POP \t\t\t\n  POP \t\t\t\n  POP \t\t\t\n  POP \t\t\t\n  JUMP \t\t\t/interfaces/AggregatorV3Interf...\ntag 3\t\t\t       string description;\\n  ...\n  JUMPDEST \t\t\t       string description;\\n  ...\n  PUSH 0\t\t\t\\n    T\n  DUP1 \t\t\tiftClu\n  PUSH 0\t\t\tata pu\n  DUP1 \t\t\tic s_t\n  PUSH 0\t\t\tiftClu\n  DUP1 \t\t\t\\n\\n    \n  PUSH 0\t\t\tnt256 \n  DUP1 \t\t\tidPart\n  PUSH 0\t\t\tipants\n  PUSH 120\t\t\tR;\\n\n  DUP11 \t\t\te COORDIN\n  DUP13 \t\t\t2Interf\n  SUB \t\t\ttorV2Interface COORDINA\n  SLT \t\t\tdinatorV2Interface COORDINATOR...\n  ISZERO \t\t\toordinatorV2Interface COORDINA...\n  PUSH [tag] 52\t\t\toordinatorV2Interface COORDINA...\n  JUMPI \t\t\toordinatorV2Interface COORDINA...\n  PUSH 0\t\t\tn\n  DUP1 \t\t\te\n  REVERT \t\t\tLinkTokenInt\ntag 52\t\t\toordinatorV2Interface COORDINA...\n  JUMPDEST \t\t\toordinatorV2Interface COORDINA...\n  PUSH [tag] 53\t\t\t // CHANGE THIS TO POLYGON MUM...\n  DUP11 \t\t\tBAI\\n    /\n  PUSH [tag] 30\t\t\t // CHANGE THIS TO POLYGON MUM...\n  JUMP \t\t\t // CHANGE THIS TO POLYGON MUM...\ntag 53\t\t\t // CHANGE THIS TO POLYGON MUM...\n  JUMPDEST \t\t\t // CHANGE THIS TO POLYGON MUM...\n  PUSH 20\t\t\t,\\n\n  DUP12 \t\t\t other networks,\\n \n  ADD \t\t\t other networks,\\n \n  MLOAD \t\t\tr. For other networks,\\n  \n  PUSH 40\t\t\tf-\n  DUP13 \t\t\tin.link/docs/vrf-c\n  ADD \t\t\tin.link/docs/vrf-c\n  MLOAD \t\t\tcs.chain.link/docs/vrf-co\n  PUSH 60\t\t\too\n  DUP14 \t\t\t   address vrfCoor\n  ADD \t\t\t   address vrfCoor\n  MLOAD \t\t\tions\\n    address vrfCoord\n  PUSH 80\t\t\t765\n  DUP15 \t\t\t13516C5E16fb24f7659\n  ADD \t\t\t13516C5E16fb24f7659\n  MLOAD \t\t\tCcc5b313516C5E16fb24f7659a\n  PUSH A0\t\t\t Fo\n  DUP16 \t\t\ttoken contract. For\n  ADD \t\t\ttoken contract. For\n  MLOAD \t\t\t LINK token contract. For \n  SWAP5 \t\t\tTOKEN;\\n    // CHANGE THIS TO ...\n  SWAP14 \t\t\tTOKEN;\\n    // CHANGE THIS TO ...\n  POP \t\t\t\n  SWAP3 \t\t\tr. For other networks,\\n  \n  SWAP12 \t\t\tr. For other networks,\\n  \n  POP \t\t\t\n  SWAP1 \t\t\tcs.chain.link/docs/vrf-co\n  SWAP10 \t\t\tcs.chain.link/docs/vrf-co\n  POP \t\t\t\n  SWAP8 \t\t\tions\\n    address vrfCoord\n  POP \t\t\t\n  SWAP6 \t\t\tCcc5b313516C5E16fb24f7659a\n  POP \t\t\t\n  PUSH 1\t\t\t\n  PUSH 1\t\t\t\n  PUSH 40\t\t\t\n  SHL \t\t\t\n  SUB \t\t\t\n  DUP1 \t\t\tk/docs/vrf-con\n  DUP3 \t\t\tk/docs/vrf-con\n  GT \t\t\tk/docs/vrf-con\n  ISZERO \t\t\tlink/docs/vrf-contracts/#confi...\n  PUSH [tag] 54\t\t\tlink/docs/vrf-contracts/#confi...\n  JUMPI \t\t\tlink/docs/vrf-contracts/#confi...\n  PUSH 0\t\t\tg\n  DUP1 \t\t\tn\n  REVERT \t\t\tcts/#configu\ntag 54\t\t\tlink/docs/vrf-contracts/#confi...\n  JUMPDEST \t\t\tlink/docs/vrf-contracts/#confi...\n  PUSH [tag] 55\t\t\tink_token_contract = 0x326C977...\n  DUP14 \t\t\tc160eD0\n  DUP4 \t\t\tC30f76\n  DUP15 \t\t\tfc84E512b\n  ADD \t\t\t7E6efc84E512bB9C30f76E\n  PUSH [tag] 32\t\t\tink_token_contract = 0x326C977...\n  JUMP \t\t\tink_token_contract = 0x326C977...\ntag 55\t\t\tink_token_contract = 0x326C977...\n  JUMPDEST \t\t\tink_token_contract = 0x326C977...\n  SWAP6 \t\t\t address link_token_contract =...\n  POP \t\t\t address link_token_contract =...\n  PUSH C0\t\t\tes \n  DUP13 \t\t\tich speci\n  ADD \t\t\t, which specifies t\n  MLOAD \t\t\tto use, which specifies th\n  SWAP2 \t\t\t// The gas lane to use, which ...\n  POP \t\t\t// The gas lane to use, which ...\n  DUP1 \t\t\tmp\n  DUP3 \t\t\trice to \n  GT \t\t\ts price to bump \n  ISZERO \t\t\t gas price to bump to.\\n    //...\n  PUSH [tag] 56\t\t\t gas price to bump to.\\n    //...\n  JUMPI \t\t\t gas price to bump to.\\n    //...\n  PUSH 0\t\t\tr\n  DUP1 \t\t\t \n  REVERT \t\t\t\\n    // For \ntag 56\t\t\t gas price to bump to.\\n    //...\n  JUMPDEST \t\t\t gas price to bump to.\\n    //...\n  POP \t\t\t gas price to bump to.\\n    //...\n  PUSH [tag] 57\t\t\tas lanes on each network,\\n   ...\n  DUP13 \t\t\t.link/d\n  DUP3 \t\t\t/docs.ch\n  DUP14 \t\t\tsee https\n  ADD \t\t\t // see https://docs.cha\n  PUSH [tag] 32\t\t\tas lanes on each network,\\n   ...\n  JUMP \t\t\tas lanes on each network,\\n   ...\ntag 57\t\t\tas lanes on each network,\\n   ...\n  JUMPDEST \t\t\tas lanes on each network,\\n   ...\n  SWAP4 \t\t\tvailable gas lanes on each net...\n  POP \t\t\tvailable gas lanes on each net...\n  POP \t\t\tvailable gas lanes on each net...\n  PUSH [tag] 58\t\t\tonfigurations\\n    bytes32 key...\n  PUSH E0\t\t\tx47\n  DUP12 \t\t\t=\\n       \n  ADD \t\t\tash =\\n        0x474\n  PUSH [tag] 30\t\t\tonfigurations\\n    bytes32 key...\n  JUMP \t\t\tonfigurations\\n    bytes32 key...\ntag 58\t\t\tonfigurations\\n    bytes32 key...\n  JUMPDEST \t\t\tonfigurations\\n    bytes32 key...\n  SWAP2 \t\t\tntracts/#configurations\\n    b...\n  POP \t\t\tntracts/#configurations\\n    b...\n  PUSH [tag] 59\t\t\t6d3c009b23b3c6d0cce433e59bbf5b...\n  PUSH 100\t\t\t   \n  DUP12 \t\t\t23bc56c;\\n\n  ADD \t\t\t34f823bc56c;\\n\\n    /\n  PUSH [tag] 30\t\t\t6d3c009b23b3c6d0cce433e59bbf5b...\n  JUMP \t\t\t6d3c009b23b3c6d0cce433e59bbf5b...\ntag 59\t\t\t6d3c009b23b3c6d0cce433e59bbf5b...\n  JUMPDEST \t\t\t6d3c009b23b3c6d0cce433e59bbf5b...\n  SWAP1 \t\t\t8807dbe9c96d3c009b23b3c6d0cce4...\n  POP \t\t\t8807dbe9c96d3c009b23b3c6d0cce4...\n  SWAP3 \t\t\t       string description;\\n  ...\n  SWAP6 \t\t\t       string description;\\n  ...\n  SWAP9 \t\t\t       string description;\\n  ...\n  POP \t\t\t       string description;\\n  ...\n  SWAP3 \t\t\t       string description;\\n  ...\n  SWAP6 \t\t\t       string description;\\n  ...\n  SWAP9 \t\t\t       string description;\\n  ...\n  POP \t\t\t       string description;\\n  ...\n  SWAP3 \t\t\t       string description;\\n  ...\n  SWAP6 \t\t\t       string description;\\n  ...\n  SWAP9 \t\t\t       string description;\\n  ...\n  JUMP \t\t\t       string description;\\n  ...\ntag 33\t\t\tle default is 100000, but this...\n  JUMPDEST \t\t\tle default is 100000, but this...\n  PUSH 1\t\t\ts\n  DUP2 \t\t\tworks.\\n    u\n  DUP2 \t\t\tworks.\\n    u\n  SHR \t\t\tworks.\\n    u\n  SWAP1 \t\t\tworks.\\n    u\n  DUP3 \t\t\t   // The de\n  AND \t\t\t   // The de\n  DUP1 \t\t\t   // The de\n  PUSH [tag] 61\t\t\t3, but you can set this higher...\n  JUMPI \t\t\t3, but you can set this higher...\n  PUSH 7F\t\t\tirma\n  DUP3 \t\t\tuestCo\n  AND \t\t\t requestConfirmat\n  SWAP2 \t\t\t    uint16 requestConfirmat\n  POP \t\t\t    uint16 requestConfirmat\ntag 61\t\t\t3, but you can set this higher...\n  JUMPDEST \t\t\t3, but you can set this higher...\n  PUSH 20\t\t\tan\n  DUP3 \t\t\tieve 1\n  LT \t\t\tetrieve 1 rand\n  DUP2 \t\t\t For this example,\n  SUB \t\t\t // For this example, retrieve...\n  PUSH [tag] 62\t\t\t    // For this example, retri...\n  JUMPI \t\t\t    // For this example, retri...\n  PUSH 4E487B71\t\t\ted VRFCoor\n  PUSH E0\t\t\t ex\n  SHL \t\t\tnnot exceed VRFCoord\n  PUSH 0\t\t\t \n  MSTORE \t\t\t\\n    // Cannot exceed VRFCoor...\n  PUSH 22\t\t\t    \n  PUSH 4\t\t\tS\n  MSTORE \t\t\tUM_WORDS.\\n    u\n  PUSH 24\t\t\t  //\n  PUSH 0\t\t\t\\n\n  REVERT \t\t\ts = 1;\\n\\n    // \ntag 62\t\t\t    // For this example, retri...\n  JUMPDEST \t\t\t    // For this example, retri...\n  POP \t\t\t    // For this example, retri...\n  SWAP2 \t\t\tle default is 100000, but this...\n  SWAP1 \t\t\tle default is 100000, but this...\n  POP \t\t\tle default is 100000, but this...\n  JUMP \t\t\tle default is 100000, but this...\ntag 35\t\t\t  // ./PriceConverter gets tok...\n  JUMPDEST \t\t\t  // ./PriceConverter gets tok...\n  PUSH 1F\t\t\ton\n  DUP3 \t\t\tric\n  GT \t\t\tg PriceConv\n  ISZERO \t\t\tsing PriceConverter for uint25...\n  PUSH [tag] 65\t\t\tsing PriceConverter for uint25...\n  JUMPI \t\t\tsing PriceConverter for uint25...\n  PUSH 0\t\t\tn\n  DUP2 \t\t\tUSD)\\n\n  DUP2 \t\t\tn \n  MSTORE \t\t\t- (token / USD)\\n \n  PUSH 20\t\t\tble \n  DUP2 \t\t\tmu\n  KECCAK256 \t\t\tprivate immutable i\n  PUSH 1F\t\t\tri\n  DUP6 \t\t\tmmutable i\n  ADD \t\t\tte immutable i_pric\n  PUSH 5\t\t\ti\n  SHR \t\t\te private immutable i_price\n  DUP2 \t\t\tterf\n  ADD \t\t\tV3Interface private immutable ...\n  PUSH 20\t\t\tace \n  DUP7 \t\t\tatorV3Inte\n  LT \t\t\tregatorV3Interface p\n  ISZERO \t\t\tAggregatorV3Interface private ...\n  PUSH [tag] 66\t\t\tAggregatorV3Interface private ...\n  JUMPI \t\t\tAggregatorV3Interface private ...\n  POP \t\t\t\n  DUP1 \t\t\t_pri\ntag 66\t\t\tAggregatorV3Interface private ...\n  JUMPDEST \t\t\tAggregatorV3Interface private ...\n  PUSH 1F\t\t\tab\n  DUP6 \t\t\timm\n  ADD \t\t\tate immutabl\n  PUSH 5\t\t\tr\n  SHR \t\t\tce private immutable\n  DUP3 \t\t\tnter\n  ADD \t\t\trV3Interface private immutable...\n  SWAP2 \t\t\t AggregatorV3Interface private...\n  POP \t\t\t AggregatorV3Interface private...\ntag 67\t\t\timmutable i_priceFeedBTC;\\n   ...\n  JUMPDEST \t\t\timmutable i_priceFeedBTC;\\n   ...\n  DUP2 \t\t\tee\n  DUP2 \t\t\t_pric\n  LT \t\t\te i_priceFeed\n  ISZERO \t\t\timmutable i_priceFeedBTC;\\n   ...\n  PUSH [tag] 69\t\t\timmutable i_priceFeedBTC;\\n   ...\n  JUMPI \t\t\timmutable i_priceFeedBTC;\\n   ...\n  DUP3 \t\t\tivate immutable i\n  DUP2 \t\t\tivate immutable i\n  SSTORE \t\t\tivate immutable i\n  PUSH 1\t\t\ts\n  ADD \t\t\tToken Address\n  PUSH [tag] 67\t\t\timmutable i_priceFeedBTC;\\n   ...\n  JUMP \t\t\timmutable i_priceFeedBTC;\\n   ...\ntag 69\t\t\timmutable i_priceFeedBTC;\\n   ...\n  JUMPDEST \t\t\timmutable i_priceFeedBTC;\\n   ...\n  POP \t\t\ttab\n  POP \t\t\ttab\n  POP \t\t\ttab\ntag 65\t\t\tsing PriceConverter for uint25...\n  JUMPDEST \t\t\tsing PriceConverter for uint25...\n  POP \t\t\t  // ./PriceConverter gets tok...\n  POP \t\t\t  // ./PriceConverter gets tok...\n  POP \t\t\t  // ./PriceConverter gets tok...\n  JUMP \t\t\t  // ./PriceConverter gets tok...\ntag 9\t\t\t\\n    // constants\\n    uint25...\n  JUMPDEST \t\t\t\\n    // constants\\n    uint25...\n  DUP2 \t\t\tatorV3Inte\n  MLOAD \t\t\tatorV3Inte\n  PUSH 1\t\t\t\n  PUSH 1\t\t\t\n  PUSH 40\t\t\t\n  SHL \t\t\t\n  SUB \t\t\t\n  DUP2 \t\t\teFeedToken);\\n\\n    address pu...\n  GT \t\t\teFeedToken);\\n\\n    address pu...\n  ISZERO \t\t\triceFeedToken);\\n\\n    address...\n  PUSH [tag] 73\t\t\triceFeedToken);\\n\\n    address...\n  JUMPI \t\t\triceFeedToken);\\n\\n    address...\n  PUSH [tag] 73\t\t\ti_priceFeedToken;\\n\n  PUSH [tag] 31\t\t\ti_priceFeedToken;\\n\n  JUMP \t\t\ti_priceFeedToken;\\n\ntag 73\t\t\ti_priceFeedToken;\\n\n  JUMPDEST \t\t\ti_priceFeedToken;\\n\n  PUSH [tag] 74\t\t\tg(address => bool) public isPa...\n  DUP2 \t\t\tg to t\n  PUSH [tag] 75\t\t\tss[] public participants;\\n\\n ...\n  DUP5 \t\t\t/ Ma\n  SLOAD \t\t\t\\n    // Map\n  PUSH [tag] 33\t\t\tss[] public participants;\\n\\n ...\n  JUMP \t\t\tss[] public participants;\\n\\n ...\ntag 75\t\t\tss[] public participants;\\n\\n ...\n  JUMPDEST \t\t\tss[] public participants;\\n\\n ...\n  DUP5 \t\t\t add\n  PUSH [tag] 35\t\t\tg(address => bool) public isPa...\n  JUMP \t\t\tg(address => bool) public isPa...\ntag 74\t\t\tg(address => bool) public isPa...\n  JUMPDEST \t\t\tg(address => bool) public isPa...\n  PUSH 20\t\t\tress\n  DUP1 \t\t\tress\n  PUSH 1F\t\t\t I\n  DUP4 \t\t\tract\\n    // IE\n  GT \t\t\tract\\n    // IE\n  PUSH 1\t\t\tf\n  DUP2 \t\t\tlic nftContract;\\n\\n    // DAO...\n  EQ \t\t\tlic nftContract;\\n\\n    // DAO...\n  PUSH [tag] 77\t\t\tlic nftContract;\\n\\n    // DAO...\n  JUMPI \t\t\tlic nftContract;\\n\\n    // DAO...\n  PUSH 0\t\t\to\n  DUP5 \t\t\t   LIN\n  ISZERO \t\t\t      LINKTOKEN = LinkTokenInt...\n  PUSH [tag] 78\t\t\t      LINKTOKEN = LinkTokenInt...\n  JUMPI \t\t\t      LINKTOKEN = LinkTokenInt...\n  POP \t\t\t\n  DUP6 \t\t\tt);\\n        // Hard\n  DUP4 \t\t\tt);\\n        // Hard\n  ADD \t\t\tt);\\n        // Hard\n  MLOAD \t\t\tontract);\\n        // Hard \ntag 78\t\t\t      LINKTOKEN = LinkTokenInt...\n  JUMPDEST \t\t\t      LINKTOKEN = LinkTokenInt...\n  PUSH 0\t\t\t\n  NOT \t\t\t\n  PUSH 3\t\t\t \n  DUP7 \t\t\ts;\\n    addr\n  SWAP1 \t\t\ts;\\n    addr\n  SHL \t\t\ts;\\n    addr\n  SHR \t\t\tdress;\\n    address priva\n  NOT \t\t\tAIAddress;\\n    address privat\n  AND \t\t\tutable i_DAIAddress;\\n    addr...\n  PUSH 1\t\t\ta\n  DUP6 \t\t\tmmutable i_\n  SWAP1 \t\t\tmmutable i_\n  SHL \t\t\tmmutable i_\n  OR \t\t\timmutable i_DAIAddress;\\n    a...\n  DUP6 \t\t\ti_priceFeedNative = Aggregator...\n  SSTORE \t\t\ti_priceFeedNative = Aggregator...\n  PUSH [tag] 69\t\t\tFT contract\\n    // IERC721 pu...\n  JUMP \t\t\tFT contract\\n    // IERC721 pu...\ntag 77\t\t\tlic nftContract;\\n\\n    // DAO...\n  JUMPDEST \t\t\tlic nftContract;\\n\\n    // DAO...\n  PUSH 0\t\t\tt\n  DUP6 \t\t\t    uint64 pri\n  DUP2 \t\t\t    uint64 pri\n  MSTORE \t\t\t    uint64 pri\n  PUSH 20\t\t\tress\n  DUP2 \t\t\tonId;\\n    address \n  KECCAK256 \t\t\tonId;\\n    address \n  PUSH 1F\t\t\t\n  NOT \t\t\t\n  DUP7 \t\t\tt\\n    IDAOContract p\n  AND \t\t\tt\\n    IDAOContract p\n  SWAP2 \t\t\tt\\n    IDAOContract p\ntag 81\t\t\t    event ParticipantJoined(ad...\n  JUMPDEST \t\t\t    event ParticipantJoined(ad...\n  DUP3 \t\t\ticipant\n  DUP2 \t\t\ta\n  LT \t\t\tt ParticipantJ\n  ISZERO \t\t\t    event ParticipantJoined(ad...\n  PUSH [tag] 83\t\t\t    event ParticipantJoined(ad...\n  JUMPI \t\t\t    event ParticipantJoined(ad...\n  DUP9 \t\t\t);\\n    event Addres\n  DUP7 \t\t\t);\\n    event Addres\n  ADD \t\t\t);\\n    event Addres\n  MLOAD \t\t\twinner);\\n    event Address\n  DUP3 \t\t\tddress indexed winner);\\n    e...\n  SSTORE \t\t\tddress indexed winner);\\n    e...\n  SWAP5 \t\t\tss _token,\\n        uint256 \n  DUP5 \t\t\tss _token,\\n        uint256 \n  ADD \t\t\tss _token,\\n        uint256 \n  SWAP5 \t\t\tss _token,\\n        uint256 \n  PUSH 1\t\t\t\\n\n  SWAP1 \t\t\t256 amount);\\n\\n\n  SWAP2 \t\t\t256 amount);\\n\\n\n  ADD \t\t\t256 amount);\\n\\n\n  SWAP1 \t\t\t256 amount);\\n\\n\n  DUP5 \t\t\tdress indexed parti\n  ADD \t\t\tdress indexed parti\n  PUSH [tag] 81\t\t\t    event ParticipantJoined(ad...\n  JUMP \t\t\t    event ParticipantJoined(ad...\ntag 83\t\t\t    event ParticipantJoined(ad...\n  JUMPDEST \t\t\t    event ParticipantJoined(ad...\n  POP \t\t\teve\n  DUP6 \t\t\tionAmo\n  DUP3 \t\t\tcontrib\n  LT \t\t\t6 _contributionAmou\n  ISZERO \t\t\tt256 _contributionAmount,\\n   ...\n  PUSH [tag] 84\t\t\tt256 _contributionAmount,\\n   ...\n  JUMPI \t\t\tt256 _contributionAmount,\\n   ...\n  DUP8 \t\t\ticipant,\\n        st\n  DUP6 \t\t\ticipant,\\n        st\n  ADD \t\t\ticipant,\\n        st\n  MLOAD \t\t\taxParticipant,\\n        str\n  PUSH 0\t\t\t\n  NOT \t\t\t\n  PUSH 3\t\t\td\n  DUP9 \t\t\t   address _nf\n  SWAP1 \t\t\t   address _nf\n  SHL \t\t\t   address _nf\n  PUSH F8\t\t\tont\n  AND \t\t\t       address _nftContr\n  SHR \t\t\tn,\\n        address _nftContra...\n  NOT \t\t\tption,\\n        address _nftCo...\n  AND \t\t\t memory _description,\\n       ...\n  DUP2 \t\t\t\\n        string memory _descr...\n  SSTORE \t\t\t\\n        string memory _descr...\ntag 84\t\t\tt256 _contributionAmount,\\n   ...\n  JUMPDEST \t\t\tt256 _contributionAmount,\\n   ...\n  POP \t\t\t\n  POP \t\t\t\n  POP \t\t\t\n  POP \t\t\t\n  POP \t\t\t\n  PUSH 1\t\t\t)\n  SWAP1 \t\t\t2(vrfCoordinat\n  DUP2 \t\t\t2(vrfCoordinat\n  SHL \t\t\t2(vrfCoordinat\n  ADD \t\t\taseV2(vrfCoordinator) \n  SWAP1 \t\t\t VRFConsumerBaseV2(vrfCoordina...\n  SSTORE \t\t\t VRFConsumerBaseV2(vrfCoordina...\n  POP \t\t\t\n  JUMP \t\t\t\\n    // constants\\n    uint25...\ntag 37\t\t\tpriceFeedUSDT = AggregatorV3In...\n  JUMPDEST \t\t\tpriceFeedUSDT = AggregatorV3In...\n  PUSH 80\t\t\tcontract ThriftClub is IERC721...\n  MLOAD \t\t\tcontract ThriftClub is IERC721...\n  PUSH A0\t\t\tcontract ThriftClub is IERC721...\n  MLOAD \t\t\tcontract ThriftClub is IERC721...\n  PUSH C0\t\t\tcontract ThriftClub is IERC721...\n  MLOAD \t\t\tcontract ThriftClub is IERC721...\n  PUSH E0\t\t\tcontract ThriftClub is IERC721...\n  MLOAD \t\t\tcontract ThriftClub is IERC721...\n  PUSH 100\t\t\tcontract ThriftClub is IERC721...\n  MLOAD \t\t\tcontract ThriftClub is IERC721...\n  PUSH 120\t\t\tcontract ThriftClub is IERC721...\n  MLOAD \t\t\tcontract ThriftClub is IERC721...\n  PUSH 140\t\t\tcontract ThriftClub is IERC721...\n  MLOAD \t\t\tcontract ThriftClub is IERC721...\n  PUSH 160\t\t\tcontract ThriftClub is IERC721...\n  MLOAD \t\t\tcontract ThriftClub is IERC721...\n  PUSH 180\t\t\tcontract ThriftClub is IERC721...\n  MLOAD \t\t\tcontract ThriftClub is IERC721...\n  PUSH 1A0\t\t\tcontract ThriftClub is IERC721...\n  MLOAD \t\t\tcontract ThriftClub is IERC721...\n  PUSH 1C0\t\t\tcontract ThriftClub is IERC721...\n  MLOAD \t\t\tcontract ThriftClub is IERC721...\n  PUSH #[$] 0000000000000000000000000000000000000000000000000000000000000000\t\t\tcontract ThriftClub is IERC721...\n  PUSH [$] 0000000000000000000000000000000000000000000000000000000000000000\t\t\tcontract ThriftClub is IERC721...\n  PUSH 0\t\t\tcontract ThriftClub is IERC721...\n  CODECOPY \t\t\tcontract ThriftClub is IERC721...\n  PUSH 0\t\t\tcontract ThriftClub is IERC721...\n  ASSIGNIMMUTABLE 4052\t\t\tcontract ThriftClub is IERC721...\n  PUSH 0\t\t\tcontract ThriftClub is IERC721...\n  ASSIGNIMMUTABLE 4050\t\t\tcontract ThriftClub is IERC721...\n  PUSH 0\t\t\tcontract ThriftClub is IERC721...\n  ASSIGNIMMUTABLE 4048\t\t\tcontract ThriftClub is IERC721...\n  PUSH 0\t\t\tcontract ThriftClub is IERC721...\n  ASSIGNIMMUTABLE 4046\t\t\tcontract ThriftClub is IERC721...\n  PUSH 0\t\t\tcontract ThriftClub is IERC721...\n  ASSIGNIMMUTABLE 4044\t\t\tcontract ThriftClub is IERC721...\n  PUSH 0\t\t\tcontract ThriftClub is IERC721...\n  ASSIGNIMMUTABLE 4042\t\t\tcontract ThriftClub is IERC721...\n  PUSH 0\t\t\tcontract ThriftClub is IERC721...\n  ASSIGNIMMUTABLE 4039\t\t\tcontract ThriftClub is IERC721...\n  PUSH 0\t\t\tcontract ThriftClub is IERC721...\n  ASSIGNIMMUTABLE 4036\t\t\tcontract ThriftClub is IERC721...\n  PUSH 0\t\t\tcontract ThriftClub is IERC721...\n  ASSIGNIMMUTABLE 4033\t\t\tcontract ThriftClub is IERC721...\n  PUSH 0\t\t\tcontract ThriftClub is IERC721...\n  ASSIGNIMMUTABLE 4030\t\t\tcontract ThriftClub is IERC721...\n  PUSH 0\t\t\tcontract ThriftClub is IERC721...\n  ASSIGNIMMUTABLE 10\t\t\tcontract ThriftClub is IERC721...\n  PUSH #[$] 0000000000000000000000000000000000000000000000000000000000000000\t\t\tcontract ThriftClub is IERC721...\n  PUSH 0\t\t\tcontract ThriftClub is IERC721...\n  RETURN \t\t\tcontract ThriftClub is IERC721...\n.data\n  0:\n    .code\n      PUSH 80\t\t\tcontract ThriftClub is IERC721...\n      PUSH 40\t\t\tcontract ThriftClub is IERC721...\n      MSTORE \t\t\tcontract ThriftClub is IERC721...\n      PUSH 4\t\t\tcontract ThriftClub is IERC721...\n      CALLDATASIZE \t\t\tcontract ThriftClub is IERC721...\n      LT \t\t\tcontract ThriftClub is IERC721...\n      PUSH [tag] 1\t\t\tcontract ThriftClub is IERC721...\n      JUMPI \t\t\tcontract ThriftClub is IERC721...\n      PUSH 0\t\t\tcontract ThriftClub is IERC721...\n      CALLDATALOAD \t\t\tcontract ThriftClub is IERC721...\n      PUSH E0\t\t\tcontract ThriftClub is IERC721...\n      SHR \t\t\tcontract ThriftClub is IERC721...\n      DUP1 \t\t\tcontract ThriftClub is IERC721...\n      PUSH 6ADC21EA\t\t\tcontract ThriftClub is IERC721...\n      GT \t\t\tcontract ThriftClub is IERC721...\n      PUSH [tag] 25\t\t\tcontract ThriftClub is IERC721...\n      JUMPI \t\t\tcontract ThriftClub is IERC721...\n      DUP1 \t\t\tcontract ThriftClub is IERC721...\n      PUSH 993F507C\t\t\tcontract ThriftClub is IERC721...\n      GT \t\t\tcontract ThriftClub is IERC721...\n      PUSH [tag] 26\t\t\tcontract ThriftClub is IERC721...\n      JUMPI \t\t\tcontract ThriftClub is IERC721...\n      DUP1 \t\t\tcontract ThriftClub is IERC721...\n      PUSH 993F507C\t\t\tcontract ThriftClub is IERC721...\n      EQ \t\t\tcontract ThriftClub is IERC721...\n      PUSH [tag] 19\t\t\tcontract ThriftClub is IERC721...\n      JUMPI \t\t\tcontract ThriftClub is IERC721...\n      DUP1 \t\t\tcontract ThriftClub is IERC721...\n      PUSH B8D6338D\t\t\tcontract ThriftClub is IERC721...\n      EQ \t\t\tcontract ThriftClub is IERC721...\n      PUSH [tag] 20\t\t\tcontract ThriftClub is IERC721...\n      JUMPI \t\t\tcontract ThriftClub is IERC721...\n      DUP1 \t\t\tcontract ThriftClub is IERC721...\n      PUSH DE28C2EC\t\t\tcontract ThriftClub is IERC721...\n      EQ \t\t\tcontract ThriftClub is IERC721...\n      PUSH [tag] 21\t\t\tcontract ThriftClub is IERC721...\n      JUMPI \t\t\tcontract ThriftClub is IERC721...\n      DUP1 \t\t\tcontract ThriftClub is IERC721...\n      PUSH DE3D9FB7\t\t\tcontract ThriftClub is IERC721...\n      EQ \t\t\tcontract ThriftClub is IERC721...\n      PUSH [tag] 22\t\t\tcontract ThriftClub is IERC721...\n      JUMPI \t\t\tcontract ThriftClub is IERC721...\n      DUP1 \t\t\tcontract ThriftClub is IERC721...\n      PUSH E89E106A\t\t\tcontract ThriftClub is IERC721...\n      EQ \t\t\tcontract ThriftClub is IERC721...\n      PUSH [tag] 23\t\t\tcontract ThriftClub is IERC721...\n      JUMPI \t\t\tcontract ThriftClub is IERC721...\n      DUP1 \t\t\tcontract ThriftClub is IERC721...\n      PUSH F6EAFFC8\t\t\tcontract ThriftClub is IERC721...\n      EQ \t\t\tcontract ThriftClub is IERC721...\n      PUSH [tag] 24\t\t\tcontract ThriftClub is IERC721...\n      JUMPI \t\t\tcontract ThriftClub is IERC721...\n      PUSH 0\t\t\tcontract ThriftClub is IERC721...\n      DUP1 \t\t\tcontract ThriftClub is IERC721...\n      REVERT \t\t\tcontract ThriftClub is IERC721...\n    tag 26\t\t\tcontract ThriftClub is IERC721...\n      JUMPDEST \t\t\tcontract ThriftClub is IERC721...\n      DUP1 \t\t\tcontract ThriftClub is IERC721...\n      PUSH 6ADC21EA\t\t\tcontract ThriftClub is IERC721...\n      EQ \t\t\tcontract ThriftClub is IERC721...\n      PUSH [tag] 13\t\t\tcontract ThriftClub is IERC721...\n      JUMPI \t\t\tcontract ThriftClub is IERC721...\n      DUP1 \t\t\tcontract ThriftClub is IERC721...\n      PUSH 6E04FF0D\t\t\tcontract ThriftClub is IERC721...\n      EQ \t\t\tcontract ThriftClub is IERC721...\n      PUSH [tag] 14\t\t\tcontract ThriftClub is IERC721...\n      JUMPI \t\t\tcontract ThriftClub is IERC721...\n      DUP1 \t\t\tcontract ThriftClub is IERC721...\n      PUSH 76FE16CB\t\t\tcontract ThriftClub is IERC721...\n      EQ \t\t\tcontract ThriftClub is IERC721...\n      PUSH [tag] 15\t\t\tcontract ThriftClub is IERC721...\n      JUMPI \t\t\tcontract ThriftClub is IERC721...\n      DUP1 \t\t\tcontract ThriftClub is IERC721...\n      PUSH 774DEE89\t\t\tcontract ThriftClub is IERC721...\n      EQ \t\t\tcontract ThriftClub is IERC721...\n      PUSH [tag] 16\t\t\tcontract ThriftClub is IERC721...\n      JUMPI \t\t\tcontract ThriftClub is IERC721...\n      DUP1 \t\t\tcontract ThriftClub is IERC721...\n      PUSH 8FD2EA4A\t\t\tcontract ThriftClub is IERC721...\n      EQ \t\t\tcontract ThriftClub is IERC721...\n      PUSH [tag] 17\t\t\tcontract ThriftClub is IERC721...\n      JUMPI \t\t\tcontract ThriftClub is IERC721...\n      DUP1 \t\t\tcontract ThriftClub is IERC721...\n      PUSH 929066F5\t\t\tcontract ThriftClub is IERC721...\n      EQ \t\t\tcontract ThriftClub is IERC721...\n      PUSH [tag] 18\t\t\tcontract ThriftClub is IERC721...\n      JUMPI \t\t\tcontract ThriftClub is IERC721...\n      PUSH 0\t\t\tcontract ThriftClub is IERC721...\n      DUP1 \t\t\tcontract ThriftClub is IERC721...\n      REVERT \t\t\tcontract ThriftClub is IERC721...\n    tag 25\t\t\tcontract ThriftClub is IERC721...\n      JUMPDEST \t\t\tcontract ThriftClub is IERC721...\n      DUP1 \t\t\tcontract ThriftClub is IERC721...\n      PUSH 35C1D349\t\t\tcontract ThriftClub is IERC721...\n      GT \t\t\tcontract ThriftClub is IERC721...\n      PUSH [tag] 27\t\t\tcontract ThriftClub is IERC721...\n      JUMPI \t\t\tcontract ThriftClub is IERC721...\n      DUP1 \t\t\tcontract ThriftClub is IERC721...\n      PUSH 35C1D349\t\t\tcontract ThriftClub is IERC721...\n      EQ \t\t\tcontract ThriftClub is IERC721...\n      PUSH [tag] 7\t\t\tcontract ThriftClub is IERC721...\n      JUMPI \t\t\tcontract ThriftClub is IERC721...\n      DUP1 \t\t\tcontract ThriftClub is IERC721...\n      PUSH 4585E33B\t\t\tcontract ThriftClub is IERC721...\n      EQ \t\t\tcontract ThriftClub is IERC721...\n      PUSH [tag] 8\t\t\tcontract ThriftClub is IERC721...\n      JUMPI \t\t\tcontract ThriftClub is IERC721...\n      DUP1 \t\t\tcontract ThriftClub is IERC721...\n      PUSH 4A7FFCBC\t\t\tcontract ThriftClub is IERC721...\n      EQ \t\t\tcontract ThriftClub is IERC721...\n      PUSH [tag] 9\t\t\tcontract ThriftClub is IERC721...\n      JUMPI \t\t\tcontract ThriftClub is IERC721...\n      DUP1 \t\t\tcontract ThriftClub is IERC721...\n      PUSH 4BCA67BF\t\t\tcontract ThriftClub is IERC721...\n      EQ \t\t\tcontract ThriftClub is IERC721...\n      PUSH [tag] 10\t\t\tcontract ThriftClub is IERC721...\n      JUMPI \t\t\tcontract ThriftClub is IERC721...\n      DUP1 \t\t\tcontract ThriftClub is IERC721...\n      PUSH 5226E60B\t\t\tcontract ThriftClub is IERC721...\n      EQ \t\t\tcontract ThriftClub is IERC721...\n      PUSH [tag] 11\t\t\tcontract ThriftClub is IERC721...\n      JUMPI \t\t\tcontract ThriftClub is IERC721...\n      DUP1 \t\t\tcontract ThriftClub is IERC721...\n      PUSH 5FA17EC5\t\t\tcontract ThriftClub is IERC721...\n      EQ \t\t\tcontract ThriftClub is IERC721...\n      PUSH [tag] 12\t\t\tcontract ThriftClub is IERC721...\n      JUMPI \t\t\tcontract ThriftClub is IERC721...\n      PUSH 0\t\t\tcontract ThriftClub is IERC721...\n      DUP1 \t\t\tcontract ThriftClub is IERC721...\n      REVERT \t\t\tcontract ThriftClub is IERC721...\n    tag 27\t\t\tcontract ThriftClub is IERC721...\n      JUMPDEST \t\t\tcontract ThriftClub is IERC721...\n      DUP1 \t\t\tcontract ThriftClub is IERC721...\n      PUSH A1B0E3C\t\t\tcontract ThriftClub is IERC721...\n      EQ \t\t\tcontract ThriftClub is IERC721...\n      PUSH [tag] 2\t\t\tcontract ThriftClub is IERC721...\n      JUMPI \t\t\tcontract ThriftClub is IERC721...\n      DUP1 \t\t\tcontract ThriftClub is IERC721...\n      PUSH 150B7A02\t\t\tcontract ThriftClub is IERC721...\n      EQ \t\t\tcontract ThriftClub is IERC721...\n      PUSH [tag] 3\t\t\tcontract ThriftClub is IERC721...\n      JUMPI \t\t\tcontract ThriftClub is IERC721...\n      DUP1 \t\t\tcontract ThriftClub is IERC721...\n      PUSH 1FBFCE1B\t\t\tcontract ThriftClub is IERC721...\n      EQ \t\t\tcontract ThriftClub is IERC721...\n      PUSH [tag] 4\t\t\tcontract ThriftClub is IERC721...\n      JUMPI \t\t\tcontract ThriftClub is IERC721...\n      DUP1 \t\t\tcontract ThriftClub is IERC721...\n      PUSH 1FE543E3\t\t\tcontract ThriftClub is IERC721...\n      EQ \t\t\tcontract ThriftClub is IERC721...\n      PUSH [tag] 5\t\t\tcontract ThriftClub is IERC721...\n      JUMPI \t\t\tcontract ThriftClub is IERC721...\n      DUP1 \t\t\tcontract ThriftClub is IERC721...\n      PUSH 2C7EB91D\t\t\tcontract ThriftClub is IERC721...\n      EQ \t\t\tcontract ThriftClub is IERC721...\n      PUSH [tag] 6\t\t\tcontract ThriftClub is IERC721...\n      JUMPI \t\t\tcontract ThriftClub is IERC721...\n    tag 1\t\t\tcontract ThriftClub is IERC721...\n      JUMPDEST \t\t\tcontract ThriftClub is IERC721...\n      PUSH 0\t\t\tcontract ThriftClub is IERC721...\n      DUP1 \t\t\tcontract ThriftClub is IERC721...\n      REVERT \t\t\tcontract ThriftClub is IERC721...\n    tag 2\t\t\tmapping(address => uint256) pu...\n      JUMPDEST \t\t\tmapping(address => uint256) pu...\n      CALLVALUE \t\t\tmapping(address => uint256) pu...\n      DUP1 \t\t\tmapping(address => uint256) pu...\n      ISZERO \t\t\tmapping(address => uint256) pu...\n      PUSH [tag] 28\t\t\tmapping(address => uint256) pu...\n      JUMPI \t\t\tmapping(address => uint256) pu...\n      PUSH 0\t\t\tmapping(address => uint256) pu...\n      DUP1 \t\t\tmapping(address => uint256) pu...\n      REVERT \t\t\tmapping(address => uint256) pu...\n    tag 28\t\t\tmapping(address => uint256) pu...\n      JUMPDEST \t\t\tmapping(address => uint256) pu...\n      POP \t\t\t\n      PUSH [tag] 29\t\t\tmapping(address => uint256) pu...\n      PUSH [tag] 30\t\t\tmapping(address => uint256) pu...\n      CALLDATASIZE \t\t\tmapping(address => uint256) pu...\n      PUSH 4\t\t\tmapping(address => uint256) pu...\n      PUSH [tag] 31\t\t\tmapping(address => uint256) pu...\n      JUMP \t\t\tmapping(address => uint256) pu...\n    tag 30\t\t\tmapping(address => uint256) pu...\n      JUMPDEST \t\t\tmapping(address => uint256) pu...\n      PUSH 1D\t\t\tmapping(address => uint256) pu...\n      PUSH 20\t\t\tmapping(address => uint256) pu...\n      MSTORE \t\t\tmapping(address => uint256) pu...\n      PUSH 0\t\t\tmapping(address => uint256) pu...\n      SWAP1 \t\t\tmapping(address => uint256) pu...\n      DUP2 \t\t\tmapping(address => uint256) pu...\n      MSTORE \t\t\tmapping(address => uint256) pu...\n      PUSH 40\t\t\tmapping(address => uint256) pu...\n      SWAP1 \t\t\tmapping(address => uint256) pu...\n      KECCAK256 \t\t\tmapping(address => uint256) pu...\n      SLOAD \t\t\tmapping(address => uint256) pu...\n      DUP2 \t\t\tmapping(address => uint256) pu...\n      JUMP \t\t\tmapping(address => uint256) pu...\n    tag 29\t\t\tmapping(address => uint256) pu...\n      JUMPDEST \t\t\tmapping(address => uint256) pu...\n      PUSH 40\t\t\tmapping(address => uint256) pu...\n      MLOAD \t\t\tmapping(address => uint256) pu...\n      SWAP1 \t\t\t/contracts/src/v0.8/inter\n      DUP2 \t\t\t/contracts/src/v0.8/inter\n      MSTORE \t\t\t/contracts/src/v0.8/inter\n      PUSH 20\t\t\t \"\n      ADD \t\t\tV2.sol\";\\nimport \"@\n    tag 33\t\t\tmapping(address => uint256) pu...\n      JUMPDEST \t\t\tmapping(address => uint256) pu...\n      PUSH 40\t\t\tmapping(address => uint256) pu...\n      MLOAD \t\t\tmapping(address => uint256) pu...\n      DUP1 \t\t\tmapping(address => uint256) pu...\n      SWAP2 \t\t\tmapping(address => uint256) pu...\n      SUB \t\t\tmapping(address => uint256) pu...\n      SWAP1 \t\t\tmapping(address => uint256) pu...\n      RETURN \t\t\tmapping(address => uint256) pu...\n    tag 3\t\t\tfunction onERC721Received(\\n  ...\n      JUMPDEST \t\t\tfunction onERC721Received(\\n  ...\n      CALLVALUE \t\t\tfunction onERC721Received(\\n  ...\n      DUP1 \t\t\tfunction onERC721Received(\\n  ...\n      ISZERO \t\t\tfunction onERC721Received(\\n  ...\n      PUSH [tag] 35\t\t\tfunction onERC721Received(\\n  ...\n      JUMPI \t\t\tfunction onERC721Received(\\n  ...\n      PUSH 0\t\t\tfunction onERC721Received(\\n  ...\n      DUP1 \t\t\tfunction onERC721Received(\\n  ...\n      REVERT \t\t\tfunction onERC721Received(\\n  ...\n    tag 35\t\t\tfunction onERC721Received(\\n  ...\n      JUMPDEST \t\t\tfunction onERC721Received(\\n  ...\n      POP \t\t\t\n      PUSH [tag] 36\t\t\tfunction onERC721Received(\\n  ...\n      PUSH [tag] 37\t\t\tfunction onERC721Received(\\n  ...\n      CALLDATASIZE \t\t\tfunction onERC721Received(\\n  ...\n      PUSH 4\t\t\tfunction onERC721Received(\\n  ...\n      PUSH [tag] 38\t\t\tfunction onERC721Received(\\n  ...\n      JUMP \t\t\tfunction onERC721Received(\\n  ...\n    tag 37\t\t\tfunction onERC721Received(\\n  ...\n      JUMPDEST \t\t\tfunction onERC721Received(\\n  ...\n      PUSH A85BD01\t\t\t\n      PUSH E1\t\t\t\n      SHL \t\t\t\n      SWAP6 \t\t\tfunction onERC721Received(\\n  ...\n      SWAP5 \t\t\tfunction onERC721Received(\\n  ...\n      POP \t\t\tfunction onERC721Received(\\n  ...\n      POP \t\t\tfunction onERC721Received(\\n  ...\n      POP \t\t\tfunction onERC721Received(\\n  ...\n      POP \t\t\tfunction onERC721Received(\\n  ...\n      POP \t\t\tfunction onERC721Received(\\n  ...\n      JUMP \t\t\tfunction onERC721Received(\\n  ...\n    tag 36\t\t\tfunction onERC721Received(\\n  ...\n      JUMPDEST \t\t\tfunction onERC721Received(\\n  ...\n      PUSH 40\t\t\tfunction onERC721Received(\\n  ...\n      MLOAD \t\t\tfunction onERC721Received(\\n  ...\n      PUSH 1\t\t\t\n      PUSH 1\t\t\t\n      PUSH E0\t\t\t\n      SHL \t\t\t\n      SUB \t\t\t\n      NOT \t\t\t\n      SWAP1 \t\t\t5ebed;\\n\\n    // Sepolia LINK ...\n      SWAP2 \t\t\t5ebed;\\n\\n    // Sepolia LINK ...\n      AND \t\t\t5ebed;\\n\\n    // Sepolia LINK ...\n      DUP2 \t\t\t16C5E16fb24f7659aA5ebed;\\n\\n  ...\n      MSTORE \t\t\t16C5E16fb24f7659aA5ebed;\\n\\n  ...\n      PUSH 20\t\t\tC1\n      ADD \t\t\tnator = 0x7a1BaC17\n      PUSH [tag] 33\t\t\tfunction onERC721Received(\\n  ...\n      JUMP \t\t\tator. For other networks,\\n   ...\n    tag 4\t\t\tfunction joinThriftClub(\\n    ...\n      JUMPDEST \t\t\tfunction joinThriftClub(\\n    ...\n      PUSH [tag] 42\t\t\tfunction joinThriftClub(\\n    ...\n      PUSH [tag] 43\t\t\tfunction joinThriftClub(\\n    ...\n      CALLDATASIZE \t\t\tfunction joinThriftClub(\\n    ...\n      PUSH 4\t\t\tfunction joinThriftClub(\\n    ...\n      PUSH [tag] 44\t\t\tfunction joinThriftClub(\\n    ...\n      JUMP \t\t\tfunction joinThriftClub(\\n    ...\n    tag 43\t\t\tfunction joinThriftClub(\\n    ...\n      JUMPDEST \t\t\tfunction joinThriftClub(\\n    ...\n      PUSH [tag] 45\t\t\tfunction joinThriftClub(\\n    ...\n      JUMP \t\t\tfunction joinThriftClub(\\n    ...\n    tag 42\t\t\tfunction joinThriftClub(\\n    ...\n      JUMPDEST \t\t\tfunction joinThriftClub(\\n    ...\n      STOP \t\t\tfunction joinThriftClub(\\n    ...\n    tag 5\t\t\t6 public ThriftPurseBalance;\\n...\n      JUMPDEST \t\t\t6 public ThriftPurseBalance;\\n...\n      CALLVALUE \t\t\t6 public ThriftPurseBalance;\\n...\n      DUP1 \t\t\t6 public ThriftPurseBalance;\\n...\n      ISZERO \t\t\t6 public ThriftPurseBalance;\\n...\n      PUSH [tag] 46\t\t\t6 public ThriftPurseBalance;\\n...\n      JUMPI \t\t\t6 public ThriftPurseBalance;\\n...\n      PUSH 0\t\t\t6 public ThriftPurseBalance;\\n...\n      DUP1 \t\t\t6 public ThriftPurseBalance;\\n...\n      REVERT \t\t\t6 public ThriftPurseBalance;\\n...\n    tag 46\t\t\t6 public ThriftPurseBalance;\\n...\n      JUMPDEST \t\t\t6 public ThriftPurseBalance;\\n...\n      POP \t\t\t\n      PUSH [tag] 42\t\t\t6 public ThriftPurseBalance;\\n...\n      PUSH [tag] 48\t\t\t6 public ThriftPurseBalance;\\n...\n      CALLDATASIZE \t\t\t6 public ThriftPurseBalance;\\n...\n      PUSH 4\t\t\t6 public ThriftPurseBalance;\\n...\n      PUSH [tag] 49\t\t\t6 public ThriftPurseBalance;\\n...\n      JUMP \t\t\t6 public ThriftPurseBalance;\\n...\n    tag 48\t\t\t6 public ThriftPurseBalance;\\n...\n      JUMPDEST \t\t\t6 public ThriftPurseBalance;\\n...\n      PUSH [tag] 50\t\t\t6 public ThriftPurseBalance;\\n...\n      JUMP \t\t\t6 public ThriftPurseBalance;\\n...\n    tag 6\t\t\tmapping(address => uint256) pu...\n      JUMPDEST \t\t\tmapping(address => uint256) pu...\n      CALLVALUE \t\t\tmapping(address => uint256) pu...\n      DUP1 \t\t\tmapping(address => uint256) pu...\n      ISZERO \t\t\tmapping(address => uint256) pu...\n      PUSH [tag] 51\t\t\tmapping(address => uint256) pu...\n      JUMPI \t\t\tmapping(address => uint256) pu...\n      PUSH 0\t\t\tmapping(address => uint256) pu...\n      DUP1 \t\t\tmapping(address => uint256) pu...\n      REVERT \t\t\tmapping(address => uint256) pu...\n    tag 51\t\t\tmapping(address => uint256) pu...\n      JUMPDEST \t\t\tmapping(address => uint256) pu...\n      POP \t\t\t\n      PUSH [tag] 29\t\t\tmapping(address => uint256) pu...\n      PUSH [tag] 53\t\t\tmapping(address => uint256) pu...\n      CALLDATASIZE \t\t\tmapping(address => uint256) pu...\n      PUSH 4\t\t\tmapping(address => uint256) pu...\n      PUSH [tag] 31\t\t\tmapping(address => uint256) pu...\n      JUMP \t\t\tmapping(address => uint256) pu...\n    tag 53\t\t\tmapping(address => uint256) pu...\n      JUMPDEST \t\t\tmapping(address => uint256) pu...\n      PUSH 1B\t\t\tmapping(address => uint256) pu...\n      PUSH 20\t\t\tmapping(address => uint256) pu...\n      MSTORE \t\t\tmapping(address => uint256) pu...\n      PUSH 0\t\t\tmapping(address => uint256) pu...\n      SWAP1 \t\t\tmapping(address => uint256) pu...\n      DUP2 \t\t\tmapping(address => uint256) pu...\n      MSTORE \t\t\tmapping(address => uint256) pu...\n      PUSH 40\t\t\tmapping(address => uint256) pu...\n      SWAP1 \t\t\tmapping(address => uint256) pu...\n      KECCAK256 \t\t\tmapping(address => uint256) pu...\n      SLOAD \t\t\tmapping(address => uint256) pu...\n      DUP2 \t\t\tmapping(address => uint256) pu...\n      JUMP \t\t\tmapping(address => uint256) pu...\n    tag 7\t\t\taddress[] public participants\n      JUMPDEST \t\t\taddress[] public participants\n      CALLVALUE \t\t\taddress[] public participants\n      DUP1 \t\t\taddress[] public participants\n      ISZERO \t\t\taddress[] public participants\n      PUSH [tag] 56\t\t\taddress[] public participants\n      JUMPI \t\t\taddress[] public participants\n      PUSH 0\t\t\taddress[] public participants\n      DUP1 \t\t\taddress[] public participants\n      REVERT \t\t\taddress[] public participants\n    tag 56\t\t\taddress[] public participants\n      JUMPDEST \t\t\taddress[] public participants\n      POP \t\t\t\n      PUSH [tag] 57\t\t\taddress[] public participants\n      PUSH [tag] 58\t\t\taddress[] public participants\n      CALLDATASIZE \t\t\taddress[] public participants\n      PUSH 4\t\t\taddress[] public participants\n      PUSH [tag] 59\t\t\taddress[] public participants\n      JUMP \t\t\taddress[] public participants\n    tag 58\t\t\taddress[] public participants\n      JUMPDEST \t\t\taddress[] public participants\n      PUSH [tag] 60\t\t\taddress[] public participants\n      JUMP \t\t\taddress[] public participants\n    tag 57\t\t\taddress[] public participants\n      JUMPDEST \t\t\taddress[] public participants\n      PUSH 40\t\t\taddress[] public participants\n      MLOAD \t\t\taddress[] public participants\n      PUSH 1\t\t\t\n      PUSH 1\t\t\t\n      PUSH A0\t\t\t\n      SHL \t\t\t\n      SUB \t\t\t\n      SWAP1 \t\t\thave paid the penalty fee\\n   ...\n      SWAP2 \t\t\thave paid the penalty fee\\n   ...\n      AND \t\t\thave paid the penalty fee\\n   ...\n      DUP2 \t\t\to track users who have paid th...\n      MSTORE \t\t\to track users who have paid th...\n      PUSH 20\t\t\t//\n      ADD \t\t\ticipants;\\n\\n    // \n      PUSH [tag] 33\t\t\taddress[] public participants\n      JUMP \t\t\tn);\\n\\n    address public i_pr...\n    tag 8\t\t\tfunction performUpkeep(bytes c...\n      JUMPDEST \t\t\tfunction performUpkeep(bytes c...\n      CALLVALUE \t\t\tfunction performUpkeep(bytes c...\n      DUP1 \t\t\tfunction performUpkeep(bytes c...\n      ISZERO \t\t\tfunction performUpkeep(bytes c...\n      PUSH [tag] 63\t\t\tfunction performUpkeep(bytes c...\n      JUMPI \t\t\tfunction performUpkeep(bytes c...\n      PUSH 0\t\t\tfunction performUpkeep(bytes c...\n      DUP1 \t\t\tfunction performUpkeep(bytes c...\n      REVERT \t\t\tfunction performUpkeep(bytes c...\n    tag 63\t\t\tfunction performUpkeep(bytes c...\n      JUMPDEST \t\t\tfunction performUpkeep(bytes c...\n      POP \t\t\t\n      PUSH [tag] 42\t\t\tfunction performUpkeep(bytes c...\n      PUSH [tag] 65\t\t\tfunction performUpkeep(bytes c...\n      CALLDATASIZE \t\t\tfunction performUpkeep(bytes c...\n      PUSH 4\t\t\tfunction performUpkeep(bytes c...\n      PUSH [tag] 66\t\t\tfunction performUpkeep(bytes c...\n      JUMP \t\t\tfunction performUpkeep(bytes c...\n    tag 65\t\t\tfunction performUpkeep(bytes c...\n      JUMPDEST \t\t\tfunction performUpkeep(bytes c...\n      PUSH [tag] 67\t\t\tfunction performUpkeep(bytes c...\n      JUMP \t\t\tfunction performUpkeep(bytes c...\n    tag 9\t\t\tIDAOContract public daoContrac...\n      JUMPDEST \t\t\tIDAOContract public daoContrac...\n      CALLVALUE \t\t\tIDAOContract public daoContrac...\n      DUP1 \t\t\tIDAOContract public daoContrac...\n      ISZERO \t\t\tIDAOContract public daoContrac...\n      PUSH [tag] 68\t\t\tIDAOContract public daoContrac...\n      JUMPI \t\t\tIDAOContract public daoContrac...\n      PUSH 0\t\t\tIDAOContract public daoContrac...\n      DUP1 \t\t\tIDAOContract public daoContrac...\n      REVERT \t\t\tIDAOContract public daoContrac...\n    tag 68\t\t\tIDAOContract public daoContrac...\n      JUMPDEST \t\t\tIDAOContract public daoContrac...\n      POP \t\t\t\n      PUSH 19\t\t\tIDAOContract public daoContrac...\n      SLOAD \t\t\tIDAOContract public daoContrac...\n      PUSH [tag] 57\t\t\tIDAOContract public daoContrac...\n      SWAP1 \t\t\tIDAOContract public daoContrac...\n      PUSH 1\t\t\t\n      PUSH 1\t\t\t\n      PUSH A0\t\t\t\n      SHL \t\t\t\n      SUB \t\t\t\n      AND \t\t\tIDAOContract public daoContrac...\n      DUP2 \t\t\tIDAOContract public daoContrac...\n      JUMP \t\t\tIDAOContract public daoContrac...\n    tag 10\t\t\tmapping(address => bool) publi...\n      JUMPDEST \t\t\tmapping(address => bool) publi...\n      CALLVALUE \t\t\tmapping(address => bool) publi...\n      DUP1 \t\t\tmapping(address => bool) publi...\n      ISZERO \t\t\tmapping(address => bool) publi...\n      PUSH [tag] 73\t\t\tmapping(address => bool) publi...\n      JUMPI \t\t\tmapping(address => bool) publi...\n      PUSH 0\t\t\tmapping(address => bool) publi...\n      DUP1 \t\t\tmapping(address => bool) publi...\n      REVERT \t\t\tmapping(address => bool) publi...\n    tag 73\t\t\tmapping(address => bool) publi...\n      JUMPDEST \t\t\tmapping(address => bool) publi...\n      POP \t\t\t\n      PUSH [tag] 74\t\t\tmapping(address => bool) publi...\n      PUSH [tag] 75\t\t\tmapping(address => bool) publi...\n      CALLDATASIZE \t\t\tmapping(address => bool) publi...\n      PUSH 4\t\t\tmapping(address => bool) publi...\n      PUSH [tag] 31\t\t\tmapping(address => bool) publi...\n      JUMP \t\t\tmapping(address => bool) publi...\n    tag 75\t\t\tmapping(address => bool) publi...\n      JUMPDEST \t\t\tmapping(address => bool) publi...\n      PUSH 18\t\t\tmapping(address => bool) publi...\n      PUSH 20\t\t\tmapping(address => bool) publi...\n      MSTORE \t\t\tmapping(address => bool) publi...\n      PUSH 0\t\t\tmapping(address => bool) publi...\n      SWAP1 \t\t\tmapping(address => bool) publi...\n      DUP2 \t\t\tmapping(address => bool) publi...\n      MSTORE \t\t\tmapping(address => bool) publi...\n      PUSH 40\t\t\tmapping(address => bool) publi...\n      SWAP1 \t\t\tmapping(address => bool) publi...\n      KECCAK256 \t\t\tmapping(address => bool) publi...\n      SLOAD \t\t\tmapping(address => bool) publi...\n      PUSH FF\t\t\tmapping(address => bool) publi...\n      AND \t\t\tmapping(address => bool) publi...\n      DUP2 \t\t\tmapping(address => bool) publi...\n      JUMP \t\t\tmapping(address => bool) publi...\n    tag 74\t\t\tmapping(address => bool) publi...\n      JUMPDEST \t\t\tmapping(address => bool) publi...\n      PUSH 40\t\t\tmapping(address => bool) publi...\n      MLOAD \t\t\tmapping(address => bool) publi...\n      SWAP1 \t\t\tN = LinkTokenI\n      ISZERO \t\t\tN = LinkTokenI\n      ISZERO \t\t\tINKTOKEN = LinkTokenIn\n      DUP2 \t\t\tinator);\\n        LINKTOKEN = ...\n      MSTORE \t\t\tinator);\\n        LINKTOKEN = ...\n      PUSH 20\t\t\tac\n      ADD \t\t\tdinatorV2Interface\n      PUSH [tag] 33\t\t\tmapping(address => bool) publi...\n      JUMP \t\t\tnftContract,\\n        address ...\n    tag 11\t\t\tuint256 public ServiceFeePurse\n      JUMPDEST \t\t\tuint256 public ServiceFeePurse\n      CALLVALUE \t\t\tuint256 public ServiceFeePurse\n      DUP1 \t\t\tuint256 public ServiceFeePurse\n      ISZERO \t\t\tuint256 public ServiceFeePurse\n      PUSH [tag] 79\t\t\tuint256 public ServiceFeePurse\n      JUMPI \t\t\tuint256 public ServiceFeePurse\n      PUSH 0\t\t\tuint256 public ServiceFeePurse\n      DUP1 \t\t\tuint256 public ServiceFeePurse\n      REVERT \t\t\tuint256 public ServiceFeePurse\n    tag 79\t\t\tuint256 public ServiceFeePurse\n      JUMPDEST \t\t\tuint256 public ServiceFeePurse\n      POP \t\t\tuint256 public ServiceFeePurse\n      PUSH [tag] 29\t\t\tuint256 public ServiceFeePurse\n      PUSH 1A\t\t\tuint256 public ServiceFeePurse\n      SLOAD \t\t\tuint256 public ServiceFeePurse\n      DUP2 \t\t\tuint256 public ServiceFeePurse\n      JUMP \t\t\tuint256 public ServiceFeePurse\n    tag 12\t\t\tmapping(address => uint256) pu...\n      JUMPDEST \t\t\tmapping(address => uint256) pu...\n      CALLVALUE \t\t\tmapping(address => uint256) pu...\n      DUP1 \t\t\tmapping(address => uint256) pu...\n      ISZERO \t\t\tmapping(address => uint256) pu...\n      PUSH [tag] 83\t\t\tmapping(address => uint256) pu...\n      JUMPI \t\t\tmapping(address => uint256) pu...\n      PUSH 0\t\t\tmapping(address => uint256) pu...\n      DUP1 \t\t\tmapping(address => uint256) pu...\n      REVERT \t\t\tmapping(address => uint256) pu...\n    tag 83\t\t\tmapping(address => uint256) pu...\n      JUMPDEST \t\t\tmapping(address => uint256) pu...\n      POP \t\t\t\n      PUSH [tag] 29\t\t\tmapping(address => uint256) pu...\n      PUSH [tag] 85\t\t\tmapping(address => uint256) pu...\n      CALLDATASIZE \t\t\tmapping(address => uint256) pu...\n      PUSH 4\t\t\tmapping(address => uint256) pu...\n      PUSH [tag] 31\t\t\tmapping(address => uint256) pu...\n      JUMP \t\t\tmapping(address => uint256) pu...\n    tag 85\t\t\tmapping(address => uint256) pu...\n      JUMPDEST \t\t\tmapping(address => uint256) pu...\n      PUSH 1F\t\t\tmapping(address => uint256) pu...\n      PUSH 20\t\t\tmapping(address => uint256) pu...\n      MSTORE \t\t\tmapping(address => uint256) pu...\n      PUSH 0\t\t\tmapping(address => uint256) pu...\n      SWAP1 \t\t\tmapping(address => uint256) pu...\n      DUP2 \t\t\tmapping(address => uint256) pu...\n      MSTORE \t\t\tmapping(address => uint256) pu...\n      PUSH 40\t\t\tmapping(address => uint256) pu...\n      SWAP1 \t\t\tmapping(address => uint256) pu...\n      KECCAK256 \t\t\tmapping(address => uint256) pu...\n      SLOAD \t\t\tmapping(address => uint256) pu...\n      DUP2 \t\t\tmapping(address => uint256) pu...\n      JUMP \t\t\tmapping(address => uint256) pu...\n    tag 13\t\t\tfunction payPenaltyFee(\\n     ...\n      JUMPDEST \t\t\tfunction payPenaltyFee(\\n     ...\n      PUSH [tag] 42\t\t\tfunction payPenaltyFee(\\n     ...\n      PUSH [tag] 89\t\t\tfunction payPenaltyFee(\\n     ...\n      CALLDATASIZE \t\t\tfunction payPenaltyFee(\\n     ...\n      PUSH 4\t\t\tfunction payPenaltyFee(\\n     ...\n      PUSH [tag] 44\t\t\tfunction payPenaltyFee(\\n     ...\n      JUMP \t\t\tfunction payPenaltyFee(\\n     ...\n    tag 89\t\t\tfunction payPenaltyFee(\\n     ...\n      JUMPDEST \t\t\tfunction payPenaltyFee(\\n     ...\n      PUSH [tag] 90\t\t\tfunction payPenaltyFee(\\n     ...\n      JUMP \t\t\tfunction payPenaltyFee(\\n     ...\n    tag 14\t\t\tfunction checkUpkeep(\\n       ...\n      JUMPDEST \t\t\tfunction checkUpkeep(\\n       ...\n      CALLVALUE \t\t\tfunction checkUpkeep(\\n       ...\n      DUP1 \t\t\tfunction checkUpkeep(\\n       ...\n      ISZERO \t\t\tfunction checkUpkeep(\\n       ...\n      PUSH [tag] 91\t\t\tfunction checkUpkeep(\\n       ...\n      JUMPI \t\t\tfunction checkUpkeep(\\n       ...\n      PUSH 0\t\t\tfunction checkUpkeep(\\n       ...\n      DUP1 \t\t\tfunction checkUpkeep(\\n       ...\n      REVERT \t\t\tfunction checkUpkeep(\\n       ...\n    tag 91\t\t\tfunction checkUpkeep(\\n       ...\n      JUMPDEST \t\t\tfunction checkUpkeep(\\n       ...\n      POP \t\t\t\n      PUSH [tag] 92\t\t\tfunction checkUpkeep(\\n       ...\n      PUSH [tag] 93\t\t\tfunction checkUpkeep(\\n       ...\n      CALLDATASIZE \t\t\tfunction checkUpkeep(\\n       ...\n      PUSH 4\t\t\tfunction checkUpkeep(\\n       ...\n      PUSH [tag] 66\t\t\tfunction checkUpkeep(\\n       ...\n      JUMP \t\t\tfunction checkUpkeep(\\n       ...\n    tag 93\t\t\tfunction checkUpkeep(\\n       ...\n      JUMPDEST \t\t\tfunction checkUpkeep(\\n       ...\n      PUSH [tag] 94\t\t\tfunction checkUpkeep(\\n       ...\n      JUMP \t\t\tfunction checkUpkeep(\\n       ...\n    tag 92\t\t\tfunction checkUpkeep(\\n       ...\n      JUMPDEST \t\t\tfunction checkUpkeep(\\n       ...\n      PUSH 40\t\t\tfunction checkUpkeep(\\n       ...\n      MLOAD \t\t\tfunction checkUpkeep(\\n       ...\n      PUSH [tag] 33\t\t\tfunction checkUpkeep(\\n       ...\n      SWAP3 \t\t\tfunction checkUpkeep(\\n       ...\n      SWAP2 \t\t\tfunction checkUpkeep(\\n       ...\n      SWAP1 \t\t\tfunction checkUpkeep(\\n       ...\n      PUSH [tag] 96\t\t\tfunction checkUpkeep(\\n       ...\n      JUMP \t\t\tfunction checkUpkeep(\\n       ...\n    tag 15\t\t\taddress public i_priceFeedToke...\n      JUMPDEST \t\t\taddress public i_priceFeedToke...\n      CALLVALUE \t\t\taddress public i_priceFeedToke...\n      DUP1 \t\t\taddress public i_priceFeedToke...\n      ISZERO \t\t\taddress public i_priceFeedToke...\n      PUSH [tag] 97\t\t\taddress public i_priceFeedToke...\n      JUMPI \t\t\taddress public i_priceFeedToke...\n      PUSH 0\t\t\taddress public i_priceFeedToke...\n      DUP1 \t\t\taddress public i_priceFeedToke...\n      REVERT \t\t\taddress public i_priceFeedToke...\n    tag 97\t\t\taddress public i_priceFeedToke...\n      JUMPDEST \t\t\taddress public i_priceFeedToke...\n      POP \t\t\t\n      PUSH 15\t\t\taddress public i_priceFeedToke...\n      SLOAD \t\t\taddress public i_priceFeedToke...\n      PUSH [tag] 57\t\t\taddress public i_priceFeedToke...\n      SWAP1 \t\t\taddress public i_priceFeedToke...\n      PUSH 1\t\t\t\n      PUSH 1\t\t\t\n      PUSH A0\t\t\t\n      SHL \t\t\t\n      SUB \t\t\t\n      AND \t\t\taddress public i_priceFeedToke...\n      DUP2 \t\t\taddress public i_priceFeedToke...\n      JUMP \t\t\taddress public i_priceFeedToke...\n    tag 16\t\t\tuint256 public constant MAXIMU...\n      JUMPDEST \t\t\tuint256 public constant MAXIMU...\n      CALLVALUE \t\t\tuint256 public constant MAXIMU...\n      DUP1 \t\t\tuint256 public constant MAXIMU...\n      ISZERO \t\t\tuint256 public constant MAXIMU...\n      PUSH [tag] 101\t\t\tuint256 public constant MAXIMU...\n      JUMPI \t\t\tuint256 public constant MAXIMU...\n      PUSH 0\t\t\tuint256 public constant MAXIMU...\n      DUP1 \t\t\tuint256 public constant MAXIMU...\n      REVERT \t\t\tuint256 public constant MAXIMU...\n    tag 101\t\t\tuint256 public constant MAXIMU...\n      JUMPDEST \t\t\tuint256 public constant MAXIMU...\n      POP \t\t\tuint256 public constant MAXIMU...\n      PUSH [tag] 29\t\t\tuint256 public constant MAXIMU...\n      PUSH 2B5E3AF16B1880000\t\t\t50 * 1e18\n      DUP2 \t\t\tuint256 public constant MAXIMU...\n      JUMP \t\t\tuint256 public constant MAXIMU...\n    tag 17\t\t\tuint256 public ThriftPursePena...\n      JUMPDEST \t\t\tuint256 public ThriftPursePena...\n      CALLVALUE \t\t\tuint256 public ThriftPursePena...\n      DUP1 \t\t\tuint256 public ThriftPursePena...\n      ISZERO \t\t\tuint256 public ThriftPursePena...\n      PUSH [tag] 105\t\t\tuint256 public ThriftPursePena...\n      JUMPI \t\t\tuint256 public ThriftPursePena...\n      PUSH 0\t\t\tuint256 public ThriftPursePena...\n      DUP1 \t\t\tuint256 public ThriftPursePena...\n      REVERT \t\t\tuint256 public ThriftPursePena...\n    tag 105\t\t\tuint256 public ThriftPursePena...\n      JUMPDEST \t\t\tuint256 public ThriftPursePena...\n      POP \t\t\tuint256 public ThriftPursePena...\n      PUSH [tag] 29\t\t\tuint256 public ThriftPursePena...\n      PUSH 1E\t\t\tuint256 public ThriftPursePena...\n      SLOAD \t\t\tuint256 public ThriftPursePena...\n      DUP2 \t\t\tuint256 public ThriftPursePena...\n      JUMP \t\t\tuint256 public ThriftPursePena...\n    tag 18\t\t\tmapping(address => bool) publi...\n      JUMPDEST \t\t\tmapping(address => bool) publi...\n      CALLVALUE \t\t\tmapping(address => bool) publi...\n      DUP1 \t\t\tmapping(address => bool) publi...\n      ISZERO \t\t\tmapping(address => bool) publi...\n      PUSH [tag] 109\t\t\tmapping(address => bool) publi...\n      JUMPI \t\t\tmapping(address => bool) publi...\n      PUSH 0\t\t\tmapping(address => bool) publi...\n      DUP1 \t\t\tmapping(address => bool) publi...\n      REVERT \t\t\tmapping(address => bool) publi...\n    tag 109\t\t\tmapping(address => bool) publi...\n      JUMPDEST \t\t\tmapping(address => bool) publi...\n      POP \t\t\t\n      PUSH [tag] 74\t\t\tmapping(address => bool) publi...\n      PUSH [tag] 111\t\t\tmapping(address => bool) publi...\n      CALLDATASIZE \t\t\tmapping(address => bool) publi...\n      PUSH 4\t\t\tmapping(address => bool) publi...\n      PUSH [tag] 31\t\t\tmapping(address => bool) publi...\n      JUMP \t\t\tmapping(address => bool) publi...\n    tag 111\t\t\tmapping(address => bool) publi...\n      JUMPDEST \t\t\tmapping(address => bool) publi...\n      PUSH 16\t\t\tmapping(address => bool) publi...\n      PUSH 20\t\t\tmapping(address => bool) publi...\n      MSTORE \t\t\tmapping(address => bool) publi...\n      PUSH 0\t\t\tmapping(address => bool) publi...\n      SWAP1 \t\t\tmapping(address => bool) publi...\n      DUP2 \t\t\tmapping(address => bool) publi...\n      MSTORE \t\t\tmapping(address => bool) publi...\n      PUSH 40\t\t\tmapping(address => bool) publi...\n      SWAP1 \t\t\tmapping(address => bool) publi...\n      KECCAK256 \t\t\tmapping(address => bool) publi...\n      SLOAD \t\t\tmapping(address => bool) publi...\n      PUSH FF\t\t\tmapping(address => bool) publi...\n      AND \t\t\tmapping(address => bool) publi...\n      DUP2 \t\t\tmapping(address => bool) publi...\n      JUMP \t\t\tmapping(address => bool) publi...\n    tag 19\t\t\tThriftClubData public s_thrift...\n      JUMPDEST \t\t\tThriftClubData public s_thrift...\n      CALLVALUE \t\t\tThriftClubData public s_thrift...\n      DUP1 \t\t\tThriftClubData public s_thrift...\n      ISZERO \t\t\tThriftClubData public s_thrift...\n      PUSH [tag] 114\t\t\tThriftClubData public s_thrift...\n      JUMPI \t\t\tThriftClubData public s_thrift...\n      PUSH 0\t\t\tThriftClubData public s_thrift...\n      DUP1 \t\t\tThriftClubData public s_thrift...\n      REVERT \t\t\tThriftClubData public s_thrift...\n    tag 114\t\t\tThriftClubData public s_thrift...\n      JUMPDEST \t\t\tThriftClubData public s_thrift...\n      POP \t\t\tThriftClubData public s_thrift...\n      PUSH [tag] 115\t\t\tThriftClubData public s_thrift...\n      PUSH [tag] 116\t\t\tThriftClubData public s_thrift...\n      JUMP \t\t\tThriftClubData public s_thrift...\n    tag 115\t\t\tThriftClubData public s_thrift...\n      JUMPDEST \t\t\tThriftClubData public s_thrift...\n      PUSH 40\t\t\tThriftClubData public s_thrift...\n      MLOAD \t\t\tThriftClubData public s_thrift...\n      PUSH [tag] 33\t\t\tThriftClubData public s_thrift...\n      SWAP12 \t\t\tThriftClubData public s_thrift...\n      SWAP11 \t\t\tThriftClubData public s_thrift...\n      SWAP10 \t\t\tThriftClubData public s_thrift...\n      SWAP9 \t\t\tThriftClubData public s_thrift...\n      SWAP8 \t\t\tThriftClubData public s_thrift...\n      SWAP7 \t\t\tThriftClubData public s_thrift...\n      SWAP6 \t\t\tThriftClubData public s_thrift...\n      SWAP5 \t\t\tThriftClubData public s_thrift...\n      SWAP4 \t\t\tThriftClubData public s_thrift...\n      SWAP3 \t\t\tThriftClubData public s_thrift...\n      SWAP2 \t\t\tThriftClubData public s_thrift...\n      SWAP1 \t\t\tThriftClubData public s_thrift...\n      PUSH [tag] 118\t\t\tThriftClubData public s_thrift...\n      JUMP \t\t\tThriftClubData public s_thrift...\n    tag 20\t\t\tfunction getThriftClubData() p...\n      JUMPDEST \t\t\tfunction getThriftClubData() p...\n      CALLVALUE \t\t\tfunction getThriftClubData() p...\n      DUP1 \t\t\tfunction getThriftClubData() p...\n      ISZERO \t\t\tfunction getThriftClubData() p...\n      PUSH [tag] 119\t\t\tfunction getThriftClubData() p...\n      JUMPI \t\t\tfunction getThriftClubData() p...\n      PUSH 0\t\t\tfunction getThriftClubData() p...\n      DUP1 \t\t\tfunction getThriftClubData() p...\n      REVERT \t\t\tfunction getThriftClubData() p...\n    tag 119\t\t\tfunction getThriftClubData() p...\n      JUMPDEST \t\t\tfunction getThriftClubData() p...\n      POP \t\t\tfunction getThriftClubData() p...\n      PUSH [tag] 120\t\t\tfunction getThriftClubData() p...\n      PUSH [tag] 121\t\t\tfunction getThriftClubData() p...\n      JUMP \t\t\tfunction getThriftClubData() p...\n    tag 120\t\t\tfunction getThriftClubData() p...\n      JUMPDEST \t\t\tfunction getThriftClubData() p...\n      PUSH 40\t\t\tfunction getThriftClubData() p...\n      MLOAD \t\t\tfunction getThriftClubData() p...\n      PUSH [tag] 33\t\t\tfunction getThriftClubData() p...\n      SWAP2 \t\t\tfunction getThriftClubData() p...\n      SWAP1 \t\t\tfunction getThriftClubData() p...\n      PUSH [tag] 123\t\t\tfunction getThriftClubData() p...\n      JUMP \t\t\tfunction getThriftClubData() p...\n    tag 21\t\t\tuint256 public ThriftPurseBala...\n      JUMPDEST \t\t\tuint256 public ThriftPurseBala...\n      CALLVALUE \t\t\tuint256 public ThriftPurseBala...\n      DUP1 \t\t\tuint256 public ThriftPurseBala...\n      ISZERO \t\t\tuint256 public ThriftPurseBala...\n      PUSH [tag] 124\t\t\tuint256 public ThriftPurseBala...\n      JUMPI \t\t\tuint256 public ThriftPurseBala...\n      PUSH 0\t\t\tuint256 public ThriftPurseBala...\n      DUP1 \t\t\tuint256 public ThriftPurseBala...\n      REVERT \t\t\tuint256 public ThriftPurseBala...\n    tag 124\t\t\tuint256 public ThriftPurseBala...\n      JUMPDEST \t\t\tuint256 public ThriftPurseBala...\n      POP \t\t\tuint256 public ThriftPurseBala...\n      PUSH [tag] 29\t\t\tuint256 public ThriftPurseBala...\n      PUSH 1C\t\t\tuint256 public ThriftPurseBala...\n      SLOAD \t\t\tuint256 public ThriftPurseBala...\n      DUP2 \t\t\tuint256 public ThriftPurseBala...\n      JUMP \t\t\tuint256 public ThriftPurseBala...\n    tag 22\t\t\tfunction getSubscriptionId() p...\n      JUMPDEST \t\t\tfunction getSubscriptionId() p...\n      CALLVALUE \t\t\tfunction getSubscriptionId() p...\n      DUP1 \t\t\tfunction getSubscriptionId() p...\n      ISZERO \t\t\tfunction getSubscriptionId() p...\n      PUSH [tag] 128\t\t\tfunction getSubscriptionId() p...\n      JUMPI \t\t\tfunction getSubscriptionId() p...\n      PUSH 0\t\t\tfunction getSubscriptionId() p...\n      DUP1 \t\t\tfunction getSubscriptionId() p...\n      REVERT \t\t\tfunction getSubscriptionId() p...\n    tag 128\t\t\tfunction getSubscriptionId() p...\n      JUMPDEST \t\t\tfunction getSubscriptionId() p...\n      POP \t\t\t\n      PUSH 13\t\t\ts_subscriptionId\n      SLOAD \t\t\ts_subscriptionId\n      PUSH 40\t\t\tfunction getSubscriptionId() p...\n      MLOAD \t\t\tfunction getSubscriptionId() p...\n      PUSH FFFFFFFFFFFFFFFF\t\t\ts_subscriptionId\n      SWAP1 \t\t\ts_subscriptionId\n      SWAP2 \t\t\ts_subscriptionId\n      AND \t\t\ts_subscriptionId\n      DUP2 \t\t\t) public payable {\\n        Th...\n      MSTORE \t\t\t) public payable {\\n        Th...\n      PUSH 20\t\t\tnA\n      ADD \t\t\t  uint256 _tokenAm\n      PUSH [tag] 33\t\t\tfunction getSubscriptionId() p...\n      JUMP \t\t\t\\n        hasPaidPenalty[msg.s...\n    tag 23\t\t\tuint256 public s_requestId\n      JUMPDEST \t\t\tuint256 public s_requestId\n      CALLVALUE \t\t\tuint256 public s_requestId\n      DUP1 \t\t\tuint256 public s_requestId\n      ISZERO \t\t\tuint256 public s_requestId\n      PUSH [tag] 133\t\t\tuint256 public s_requestId\n      JUMPI \t\t\tuint256 public s_requestId\n      PUSH 0\t\t\tuint256 public s_requestId\n      DUP1 \t\t\tuint256 public s_requestId\n      REVERT \t\t\tuint256 public s_requestId\n    tag 133\t\t\tuint256 public s_requestId\n      JUMPDEST \t\t\tuint256 public s_requestId\n      POP \t\t\tuint256 public s_requestId\n      PUSH [tag] 29\t\t\tuint256 public s_requestId\n      PUSH 12\t\t\tuint256 public s_requestId\n      SLOAD \t\t\tuint256 public s_requestId\n      DUP2 \t\t\tuint256 public s_requestId\n      JUMP \t\t\tuint256 public s_requestId\n    tag 24\t\t\tuint256[] public s_randomWords\n      JUMPDEST \t\t\tuint256[] public s_randomWords\n      CALLVALUE \t\t\tuint256[] public s_randomWords\n      DUP1 \t\t\tuint256[] public s_randomWords\n      ISZERO \t\t\tuint256[] public s_randomWords\n      PUSH [tag] 137\t\t\tuint256[] public s_randomWords\n      JUMPI \t\t\tuint256[] public s_randomWords\n      PUSH 0\t\t\tuint256[] public s_randomWords\n      DUP1 \t\t\tuint256[] public s_randomWords\n      REVERT \t\t\tuint256[] public s_randomWords\n    tag 137\t\t\tuint256[] public s_randomWords\n      JUMPDEST \t\t\tuint256[] public s_randomWords\n      POP \t\t\t\n      PUSH [tag] 29\t\t\tuint256[] public s_randomWords\n      PUSH [tag] 139\t\t\tuint256[] public s_randomWords\n      CALLDATASIZE \t\t\tuint256[] public s_randomWords\n      PUSH 4\t\t\tuint256[] public s_randomWords\n      PUSH [tag] 59\t\t\tuint256[] public s_randomWords\n      JUMP \t\t\tuint256[] public s_randomWords\n    tag 139\t\t\tuint256[] public s_randomWords\n      JUMPDEST \t\t\tuint256[] public s_randomWords\n      PUSH [tag] 140\t\t\tuint256[] public s_randomWords\n      JUMP \t\t\tuint256[] public s_randomWords\n    tag 45\t\t\tfunction joinThriftClub(\\n    ...\n      JUMPDEST \t\t\tfunction joinThriftClub(\\n    ...\n      PUSH [tag] 144\t\t\tThriftClubData memory s_thrift...\n      PUSH [tag] 145\t\t\tThriftClubData memory s_thrift...\n      JUMP \t\t\tThriftClubData memory s_thrift...\n    tag 144\t\t\tThriftClubData memory s_thrift...\n      JUMPDEST \t\t\tThriftClubData memory s_thrift...\n      CALLER \t\t\tmsg.sender\n      PUSH 0\t\t\thasPaidPenalty[msg.sender]\n      SWAP1 \t\t\thasPaidPenalty[msg.sender]\n      DUP2 \t\t\thasPaidPenalty[msg.sender]\n      MSTORE \t\t\thasPaidPenalty[msg.sender]\n      PUSH 18\t\t\thasPaidPenalty\n      PUSH 20\t\t\thasPaidPenalty[msg.sender]\n      MSTORE \t\t\thasPaidPenalty[msg.sender]\n      PUSH 40\t\t\thasPaidPenalty[msg.sender]\n      SWAP1 \t\t\thasPaidPenalty[msg.sender]\n      KECCAK256 \t\t\thasPaidPenalty[msg.sender]\n      SLOAD \t\t\thasPaidPenalty[msg.sender]\n      PUSH FF\t\t\thasPaidPenalty[msg.sender]\n      AND \t\t\thasPaidPenalty[msg.sender]\n      PUSH [tag] 146\t\t\trequire(hasPaidPenalty[msg.sen...\n      JUMPI \t\t\trequire(hasPaidPenalty[msg.sen...\n      PUSH 40\t\t\trequire(hasPaidPenalty[msg.sen...\n      MLOAD \t\t\trequire(hasPaidPenalty[msg.sen...\n      PUSH 461BCD\t\t\t\n      PUSH E5\t\t\t\n      SHL \t\t\t\n      DUP2 \t\t\trequire(hasPaidPenalty[msg.sen...\n      MSTORE \t\t\trequire(hasPaidPenalty[msg.sen...\n      PUSH 20\t\t\tke\n      PUSH 4\t\t\trequire(hasPaidPenalty[msg.sen...\n      DUP3 \t\t\trequire(hasPaidPenalty[msg.sen...\n      ADD \t\t\trequire(hasPaidPenalty[msg.sen...\n      MSTORE \t\t\tress), \"Invalid token\n      PUSH 14\t\t\tdr\n      PUSH 24\t\t\t(_tokenAddress == \n      DUP3 \t\t\t(_tokenAddress == \n      ADD \t\t\t(_tokenAddress == \n      MSTORE \t\t\t    if (_tokenAddress == addre\n      PUSH 14195B985B1D1E48199959481B9BDD081C185A59\t\t\t\n      PUSH 62\t\t\t\n      SHL \t\t\t\n      PUSH 44\t\t\t     // Ether paym\n      DUP3 \t\t\t     // Ether paym\n      ADD \t\t\t     // Ether paym\n      MSTORE \t\t\t            // Ether payment\\n...\n      PUSH 64\t\t\tsg.value ==\\n      \n      ADD \t\t\tsg.value ==\\n      \n    tag 147\t\t\trequire(hasPaidPenalty[msg.sen...\n      JUMPDEST \t\t\trequire(hasPaidPenalty[msg.sen...\n      PUSH 40\t\t\trequire(hasPaidPenalty[msg.sen...\n      MLOAD \t\t\trequire(hasPaidPenalty[msg.sen...\n      DUP1 \t\t\trequire(hasPaidPenalty[msg.sen...\n      SWAP2 \t\t\trequire(hasPaidPenalty[msg.sen...\n      SUB \t\t\trequire(hasPaidPenalty[msg.sen...\n      SWAP1 \t\t\trequire(hasPaidPenalty[msg.sen...\n      REVERT \t\t\trequire(hasPaidPenalty[msg.sen...\n    tag 146\t\t\trequire(hasPaidPenalty[msg.sen...\n      JUMPDEST \t\t\trequire(hasPaidPenalty[msg.sen...\n      CALLER \t\t\tmsg.sender\n      PUSH 0\t\t\tisParticipant[msg.sender]\n      SWAP1 \t\t\tisParticipant[msg.sender]\n      DUP2 \t\t\tisParticipant[msg.sender]\n      MSTORE \t\t\tisParticipant[msg.sender]\n      PUSH 16\t\t\tisParticipant\n      PUSH 20\t\t\tisParticipant[msg.sender]\n      MSTORE \t\t\tisParticipant[msg.sender]\n      PUSH 40\t\t\tisParticipant[msg.sender]\n      SWAP1 \t\t\tisParticipant[msg.sender]\n      KECCAK256 \t\t\tisParticipant[msg.sender]\n      SLOAD \t\t\tisParticipant[msg.sender]\n      PUSH FF\t\t\tisParticipant[msg.sender]\n      AND \t\t\tisParticipant[msg.sender]\n      ISZERO \t\t\t!isParticipant[msg.sender]\n      PUSH [tag] 149\t\t\trequire(!isParticipant[msg.sen...\n      JUMPI \t\t\trequire(!isParticipant[msg.sen...\n      PUSH 40\t\t\trequire(!isParticipant[msg.sen...\n      MLOAD \t\t\trequire(!isParticipant[msg.sen...\n      PUSH 461BCD\t\t\t\n      PUSH E5\t\t\t\n      SHL \t\t\t\n      DUP2 \t\t\trequire(!isParticipant[msg.sen...\n      MSTORE \t\t\trequire(!isParticipant[msg.sen...\n      PUSH 20\t\t\trv\n      PUSH 4\t\t\trequire(!isParticipant[msg.sen...\n      DUP3 \t\t\trequire(!isParticipant[msg.sen...\n      ADD \t\t\trequire(!isParticipant[msg.sen...\n      MSTORE \t\t\t        uint256 servi\n      PUSH 15\t\t\t00\n      PUSH 24\t\t\t   if (msg.value /\n      DUP3 \t\t\t   if (msg.value /\n      ADD \t\t\t   if (msg.value /\n      MSTORE \t\t\t          if (msg.value / 200 \n      PUSH 105B1C9958591E4818481C185C9D1A58DA5C185B9D\t\t\t\n      PUSH 5A\t\t\t\n      SHL \t\t\t\n      PUSH 44\t\t\tD) {\\n             \n      DUP3 \t\t\tD) {\\n             \n      ADD \t\t\tD) {\\n             \n      MSTORE \t\t\t_FEE_USD) {\\n                s...\n      PUSH 64\t\t\tonRate(\\n          \n      ADD \t\t\tonRate(\\n          \n      PUSH [tag] 147\t\t\trequire(!isParticipant[msg.sen...\n      JUMP \t\t\t   s_thriftClubData.contributi...\n    tag 149\t\t\trequire(!isParticipant[msg.sen...\n      JUMPDEST \t\t\trequire(!isParticipant[msg.sen...\n      PUSH 0\t\t\tbool\n      SLOAD \t\t\ts_thriftClub.token\n      PUSH 1\t\t\t\n      PUSH 1\t\t\t\n      PUSH A0\t\t\t\n      SHL \t\t\t\n      SUB \t\t\t\n      DUP5 \t\t\t_token == address(s_thriftClub...\n      DUP2 \t\t\t_token == address(s_thriftClub...\n      AND \t\t\t_token == address(s_thriftClub...\n      SWAP2 \t\t\ts_thriftClub.token\n      AND \t\t\ts_thriftClub.token\n      EQ \t\t\t_token == address(s_thriftClub...\n      PUSH [tag] 154\t\t\trequire(isValidToken(_tokenAdd...\n      JUMPI \t\t\trequire(isValidToken(_tokenAdd...\n      PUSH 40\t\t\trequire(isValidToken(_tokenAdd...\n      MLOAD \t\t\trequire(isValidToken(_tokenAdd...\n      PUSH 461BCD\t\t\t\n      PUSH E5\t\t\t\n      SHL \t\t\t\n      DUP2 \t\t\trequire(isValidToken(_tokenAdd...\n      MSTORE \t\t\trequire(isValidToken(_tokenAdd...\n      PUSH 4\t\t\trequire(isValidToken(_tokenAdd...\n      ADD \t\t\trequire(isValidToken(_tokenAdd...\n      PUSH [tag] 147\t\t\trequire(isValidToken(_tokenAdd...\n      SWAP1 \t\t\trequire(isValidToken(_tokenAdd...\n      PUSH [tag] 156\t\t\trequire(isValidToken(_tokenAdd...\n      JUMP \t\t\trequire(isValidToken(_tokenAdd...\n    tag 154\t\t\trequire(isValidToken(_tokenAdd...\n      JUMPDEST \t\t\trequire(isValidToken(_tokenAdd...\n      PUSH 1\t\t\t\n      PUSH 1\t\t\t\n      PUSH A0\t\t\t\n      SHL \t\t\t\n      SUB \t\t\t\n      DUP4 \t\t\t_tokenAddress == address(0)\n      AND \t\t\t_tokenAddress == address(0)\n      PUSH [tag] 157\t\t\tif (_tokenAddress == address(0...\n      JUMPI \t\t\tif (_tokenAddress == address(0...\n      PUSH 2B5E3AF16B1880000\t\t\t50 * 1e18\n      DUP2 \t\t\ts_thriftClubData\n      PUSH 40\t\t\ts_thriftClubData.contributionA...\n      ADD \t\t\ts_thriftClubData.contributionA...\n      MLOAD \t\t\ts_thriftClubData.contributionA...\n      PUSH [tag] 158\t\t\ts_thriftClubData.contributionA...\n      SWAP2 \t\t\ts_thriftClubData.contributionA...\n      SWAP1 \t\t\ts_thriftClubData.contributionA...\n      PUSH [tag] 159\t\t\ts_thriftClubData.contributionA...\n      JUMP \t\t\ts_thriftClubData.contributionA...\n    tag 158\t\t\ts_thriftClubData.contributionA...\n      JUMPDEST \t\t\ts_thriftClubData.contributionA...\n      CALLVALUE \t\t\tmsg.value\n      EQ \t\t\tmsg.value ==\\n                ...\n      PUSH [tag] 160\t\t\trequire(\\n                msg....\n      JUMPI \t\t\trequire(\\n                msg....\n      PUSH 40\t\t\trequire(\\n                msg....\n      MLOAD \t\t\trequire(\\n                msg....\n      PUSH 461BCD\t\t\t\n      PUSH E5\t\t\t\n      SHL \t\t\t\n      DUP2 \t\t\trequire(\\n                msg....\n      MSTORE \t\t\trequire(\\n                msg....\n      PUSH 20\t\t\t s\n      PUSH 4\t\t\trequire(\\n                msg....\n      DUP3 \t\t\trequire(\\n                msg....\n      ADD \t\t\trequire(\\n                msg....\n      MSTORE \t\t\t {\\n                se\n      PUSH 10\t\t\t  \n      PUSH 24\t\t\tnAmount / 200;\\n   \n      DUP3 \t\t\tnAmount / 200;\\n   \n      ADD \t\t\tnAmount / 200;\\n   \n      MSTORE \t\t\t= _tokenAmount / 200;\\n       ...\n      PUSH 125B98DBDC9C9958DD08185B5BDD5B9D\t\t\t\n      PUSH 82\t\t\t\n      SHL \t\t\t\n      PUSH 44\t\t\t  ServiceFeePurseT\n      DUP3 \t\t\t  ServiceFeePurseT\n      ADD \t\t\t  ServiceFeePurseT\n      MSTORE \t\t\t         ServiceFeePurseTokenB...\n      PUSH 64\t\t\tFee;\\n            T\n      ADD \t\t\tFee;\\n            T\n      PUSH [tag] 147\t\t\trequire(\\n                msg....\n      JUMP \t\t\tnt\\n            uint256 servic...\n    tag 160\t\t\trequire(\\n                msg....\n      JUMPDEST \t\t\trequire(\\n                msg....\n      PUSH 0\t\t\tuint256 serviceFee\n      PUSH 2B5E3AF16B1880000\t\t\t50 * 1e18\n      PUSH [tag] 163\t\t\tmsg.value / 200\n      PUSH C8\t\t\t200\n      CALLVALUE \t\t\tmsg.value\n      PUSH [tag] 164\t\t\tmsg.value / 200\n      JUMP \t\t\tmsg.value / 200\n    tag 163\t\t\tmsg.value / 200\n      JUMPDEST \t\t\tmsg.value / 200\n      GT \t\t\tmsg.value / 200 > MAXIMUM_FEE_...\n      ISZERO \t\t\tif (msg.value / 200 > MAXIMUM_...\n      PUSH [tag] 165\t\t\tif (msg.value / 200 > MAXIMUM_...\n      JUMPI \t\t\tif (msg.value / 200 > MAXIMUM_...\n      PUSH [tag] 166\t\t\tMAXIMUM_FEE_USD.getConversionR...\n      PUSH 2B5E3AF16B1880000\t\t\t50 * 1e18\n      PUSHIMMUTABLE 4030\t\t\ti_priceFeedNative\n      PUSH [tag] 167\t\t\tMAXIMUM_FEE_USD.getConversionR...\n      JUMP \t\t\tMAXIMUM_FEE_USD.getConversionR...\n    tag 166\t\t\tMAXIMUM_FEE_USD.getConversionR...\n      JUMPDEST \t\t\tMAXIMUM_FEE_USD.getConversionR...\n      SWAP1 \t\t\tserviceFee = MAXIMUM_FEE_USD.g...\n      POP \t\t\tserviceFee = MAXIMUM_FEE_USD.g...\n      PUSH [tag] 168\t\t\tif (msg.value / 200 > MAXIMUM_...\n      JUMP \t\t\tif (msg.value / 200 > MAXIMUM_...\n    tag 165\t\t\tif (msg.value / 200 > MAXIMUM_...\n      JUMPDEST \t\t\tif (msg.value / 200 > MAXIMUM_...\n      PUSH [tag] 169\t\t\tmsg.value / 200\n      PUSH C8\t\t\t200\n      CALLVALUE \t\t\tmsg.value\n      PUSH [tag] 164\t\t\tmsg.value / 200\n      JUMP \t\t\tmsg.value / 200\n    tag 169\t\t\tmsg.value / 200\n      JUMPDEST \t\t\tmsg.value / 200\n      SWAP1 \t\t\tserviceFee = msg.value / 200\n      POP \t\t\tserviceFee = msg.value / 200\n    tag 168\t\t\tif (msg.value / 200 > MAXIMUM_...\n      JUMPDEST \t\t\tif (msg.value / 200 > MAXIMUM_...\n      DUP1 \t\t\tserviceFee\n      PUSH 1A\t\t\tServiceFeePurse\n      PUSH 0\t\t\tServiceFeePurse\n      DUP3 \t\t\tServiceFeePurse += serviceFee\n      DUP3 \t\t\tServiceFeePurse += serviceFee\n      SLOAD \t\t\tServiceFeePurse += serviceFee\n      PUSH [tag] 170\t\t\tServiceFeePurse += serviceFee\n      SWAP2 \t\t\tServiceFeePurse += serviceFee\n      SWAP1 \t\t\tServiceFeePurse += serviceFee\n      PUSH [tag] 159\t\t\tServiceFeePurse += serviceFee\n      JUMP \t\t\tServiceFeePurse += serviceFee\n    tag 170\t\t\tServiceFeePurse += serviceFee\n      JUMPDEST \t\t\tServiceFeePurse += serviceFee\n      SWAP1 \t\t\tServiceFeePurse += serviceFee\n      SWAP2 \t\t\tServiceFeePurse += serviceFee\n      SSTORE \t\t\tServiceFeePurse += serviceFee\n      POP \t\t\t\n      POP \t\t\t\n      PUSH 40\t\t\ts_thriftClubData.contributionA...\n      DUP3 \t\t\ts_thriftClubData.contributionA...\n      ADD \t\t\ts_thriftClubData.contributionA...\n      MLOAD \t\t\ts_thriftClubData.contributionA...\n      PUSH 1C\t\t\tThriftPurseBalance\n      DUP1 \t\t\tThriftPurseBalance += s_thrift...\n      SLOAD \t\t\tThriftPurseBalance += s_thrift...\n      PUSH 0\t\t\tThriftPurseBalance\n      SWAP1 \t\t\tThriftPurseBalance\n      PUSH [tag] 171\t\t\tThriftPurseBalance += s_thrift...\n      SWAP1 \t\t\tThriftPurseBalance += s_thrift...\n      DUP5 \t\t\ts_thriftClubData.contributionA...\n      SWAP1 \t\t\ts_thriftClubData.contributionA...\n      PUSH [tag] 159\t\t\tThriftPurseBalance += s_thrift...\n      JUMP \t\t\tThriftPurseBalance += s_thrift...\n    tag 171\t\t\tThriftPurseBalance += s_thrift...\n      JUMPDEST \t\t\tThriftPurseBalance += s_thrift...\n      SWAP1 \t\t\tThriftPurseBalance += s_thrift...\n      SWAP2 \t\t\tThriftPurseBalance += s_thrift...\n      SSTORE \t\t\tThriftPurseBalance += s_thrift...\n      POP \t\t\t\n      POP \t\t\t\n      PUSH 40\t\t\tpayable(address(this)).transfe...\n      MLOAD \t\t\tpayable(address(this)).transfe...\n      ADDRESS \t\t\tthis\n      SWAP1 \t\t\tthis\n      CALLVALUE \t\t\tmsg.value\n      DUP1 \t\t\tpayable(address(this)).transfe...\n      ISZERO \t\t\tpayable(address(this)).transfe...\n      PUSH 8FC\t\t\tpayable(address(this)).transfe...\n      MUL \t\t\tpayable(address(this)).transfe...\n      SWAP2 \t\t\tpayable(address(this)).transfe...\n      PUSH 0\t\t\tpayable(address(this)).transfe...\n      DUP2 \t\t\tpayable(address(this)).transfe...\n      DUP2 \t\t\tpayable(address(this)).transfe...\n      DUP2 \t\t\tpayable(address(this)).transfe...\n      DUP6 \t\t\tmsg.value\n      DUP9 \t\t\tthis\n      DUP9 \t\t\tpayable(address(this)).transfe...\n      CALL \t\t\tpayable(address(this)).transfe...\n      SWAP4 \t\t\tpayable(address(this)).transfe...\n      POP \t\t\tpayable(address(this)).transfe...\n      POP \t\t\tpayable(address(this)).transfe...\n      POP \t\t\tpayable(address(this)).transfe...\n      POP \t\t\tpayable(address(this)).transfe...\n      ISZERO \t\t\tpayable(address(this)).transfe...\n      DUP1 \t\t\tpayable(address(this)).transfe...\n      ISZERO \t\t\tpayable(address(this)).transfe...\n      PUSH [tag] 173\t\t\tpayable(address(this)).transfe...\n      JUMPI \t\t\tpayable(address(this)).transfe...\n      RETURNDATASIZE \t\t\tpayable(address(this)).transfe...\n      PUSH 0\t\t\tpayable(address(this)).transfe...\n      DUP1 \t\t\tpayable(address(this)).transfe...\n      RETURNDATACOPY \t\t\tpayable(address(this)).transfe...\n      RETURNDATASIZE \t\t\tpayable(address(this)).transfe...\n      PUSH 0\t\t\tpayable(address(this)).transfe...\n      REVERT \t\t\tpayable(address(this)).transfe...\n    tag 173\t\t\tpayable(address(this)).transfe...\n      JUMPDEST \t\t\tpayable(address(this)).transfe...\n      POP \t\t\tpayable(address(this)).transfe...\n      POP \t\t\t{\\n            // Ether paymen...\n      PUSH [tag] 174\t\t\tif (_tokenAddress == address(0...\n      JUMP \t\t\tif (_tokenAddress == address(0...\n    tag 157\t\t\tif (_tokenAddress == address(0...\n      JUMPDEST \t\t\tif (_tokenAddress == address(0...\n      CALLVALUE \t\t\tmsg.value\n      ISZERO \t\t\tmsg.value == 0\n      PUSH [tag] 175\t\t\trequire(msg.value == 0, \"Inval...\n      JUMPI \t\t\trequire(msg.value == 0, \"Inval...\n      PUSH 40\t\t\trequire(msg.value == 0, \"Inval...\n      MLOAD \t\t\trequire(msg.value == 0, \"Inval...\n      PUSH 461BCD\t\t\t\n      PUSH E5\t\t\t\n      SHL \t\t\t\n      DUP2 \t\t\trequire(msg.value == 0, \"Inval...\n      MSTORE \t\t\trequire(msg.value == 0, \"Inval...\n      PUSH 20\t\t\tpa\n      PUSH 4\t\t\trequire(msg.value == 0, \"Inval...\n      DUP3 \t\t\trequire(msg.value == 0, \"Inval...\n      ADD \t\t\trequire(msg.value == 0, \"Inval...\n      MSTORE \t\t\then the maxParticipan\n      PUSH 13\t\t\tbD\n      PUSH 24\t\t\t     if (s_thriftC\n      DUP3 \t\t\t     if (s_thriftC\n      ADD \t\t\t     if (s_thriftC\n      MSTORE \t\t\thed\\n        if (s_thriftClubD...\n      PUSH 496E76616C69642045746865722076616C7565\t\t\t\n      PUSH 68\t\t\t\n      SHL \t\t\t\n      PUSH 44\t\t\tt == participants.\n      DUP3 \t\t\tt == participants.\n      ADD \t\t\tt == participants.\n      MSTORE \t\t\tticipant == participants.lengt...\n      PUSH 64\t\t\tstate == TANDA_STA\n      ADD \t\t\tstate == TANDA_STA\n      PUSH [tag] 147\t\t\trequire(msg.value == 0, \"Inval...\n      JUMP \t\t\tticipants.push(msg.sender);\\n ...\n    tag 175\t\t\trequire(msg.value == 0, \"Inval...\n      JUMPDEST \t\t\trequire(msg.value == 0, \"Inval...\n      PUSH 0\t\t\t0\n      DUP3 \t\t\t_tokenAmount\n      GT \t\t\t_tokenAmount > 0\n      PUSH [tag] 178\t\t\trequire(_tokenAmount > 0, \"Inv...\n      JUMPI \t\t\trequire(_tokenAmount > 0, \"Inv...\n      PUSH 40\t\t\trequire(_tokenAmount > 0, \"Inv...\n      MLOAD \t\t\trequire(_tokenAmount > 0, \"Inv...\n      PUSH 461BCD\t\t\t\n      PUSH E5\t\t\t\n      SHL \t\t\t\n      DUP2 \t\t\trequire(_tokenAmount > 0, \"Inv...\n      MSTORE \t\t\trequire(_tokenAmount > 0, \"Inv...\n      PUSH 20\t\t\tri\n      PUSH 4\t\t\trequire(_tokenAmount > 0, \"Inv...\n      DUP3 \t\t\trequire(_tokenAmount > 0, \"Inv...\n      ADD \t\t\trequire(_tokenAmount > 0, \"Inv...\n      MSTORE \t\t\ten == address(s_thrif\n      PUSH 14\t\t\tdd\n      PUSH 24\t\t\t/ Replace with the\n      DUP3 \t\t\t/ Replace with the\n      ADD \t\t\t/ Replace with the\n      MSTORE \t\t\ten)); // Replace with the addr\n      PUSH 125B9D985B1A59081D1BDAD95B88185B5BDD5B9D\t\t\t\n      PUSH 62\t\t\t\n      SHL \t\t\t\n      PUSH 44\t\t\ted tokens\\n    }\\n\\n \n      DUP3 \t\t\ted tokens\\n    }\\n\\n \n      ADD \t\t\ted tokens\\n    }\\n\\n \n      MSTORE \t\t\te allowed tokens\\n    }\\n\\n   ...\n      PUSH 64\t\t\ten) internal {\\n   \n      ADD \t\t\ten) internal {\\n   \n      PUSH [tag] 147\t\t\trequire(_tokenAmount > 0, \"Inv...\n      JUMP \t\t\tIN_PROGRESS;\\n        }\\n    }...\n    tag 178\t\t\trequire(_tokenAmount > 0, \"Inv...\n      JUMPDEST \t\t\trequire(_tokenAmount > 0, \"Inv...\n      DUP1 \t\t\ts_thriftClubData.token\n      MLOAD \t\t\ts_thriftClubData.token\n      PUSH 1\t\t\t\n      PUSH 1\t\t\t\n      PUSH A0\t\t\t\n      SHL \t\t\t\n      SUB \t\t\t\n      DUP5 \t\t\t_tokenAddress == s_thriftClubD...\n      DUP2 \t\t\t_tokenAddress == s_thriftClubD...\n      AND \t\t\t_tokenAddress == s_thriftClubD...\n      SWAP2 \t\t\t_tokenAddress == s_thriftClubD...\n      AND \t\t\t_tokenAddress == s_thriftClubD...\n      EQ \t\t\t_tokenAddress == s_thriftClubD...\n      PUSH [tag] 181\t\t\trequire(_tokenAddress == s_thr...\n      JUMPI \t\t\trequire(_tokenAddress == s_thr...\n      PUSH 40\t\t\trequire(_tokenAddress == s_thr...\n      MLOAD \t\t\trequire(_tokenAddress == s_thr...\n      PUSH 461BCD\t\t\t\n      PUSH E5\t\t\t\n      SHL \t\t\t\n      DUP2 \t\t\trequire(_tokenAddress == s_thr...\n      MSTORE \t\t\trequire(_tokenAddress == s_thr...\n      PUSH 4\t\t\trequire(_tokenAddress == s_thr...\n      ADD \t\t\trequire(_tokenAddress == s_thr...\n      PUSH [tag] 147\t\t\trequire(_tokenAddress == s_thr...\n      SWAP1 \t\t\trequire(_tokenAddress == s_thr...\n      PUSH [tag] 156\t\t\trequire(_tokenAddress == s_thr...\n      JUMP \t\t\trequire(_tokenAddress == s_thr...\n    tag 181\t\t\trequire(_tokenAddress == s_thr...\n      JUMPDEST \t\t\trequire(_tokenAddress == s_thr...\n      PUSH 0\t\t\tuint256 serviceFee\n      PUSH 2B5E3AF16B1880000\t\t\t50 * 1e18\n      PUSH [tag] 183\t\t\t_tokenAmount / 200\n      PUSH C8\t\t\t200\n      DUP6 \t\t\t_tokenAmount\n      PUSH [tag] 164\t\t\t_tokenAmount / 200\n      JUMP \t\t\t_tokenAmount / 200\n    tag 183\t\t\t_tokenAmount / 200\n      JUMPDEST \t\t\t_tokenAmount / 200\n      GT \t\t\t_tokenAmount / 200 > MAXIMUM_F...\n      ISZERO \t\t\tif (_tokenAmount / 200 > MAXIM...\n      PUSH [tag] 184\t\t\tif (_tokenAmount / 200 > MAXIM...\n      JUMPI \t\t\tif (_tokenAmount / 200 > MAXIM...\n      PUSH 14\t\t\tpriceFeed\n      SLOAD \t\t\tpriceFeed\n      PUSH [tag] 185\t\t\tMAXIMUM_FEE_USD.getConversionR...\n      SWAP1 \t\t\tMAXIMUM_FEE_USD.getConversionR...\n      PUSH 2B5E3AF16B1880000\t\t\t50 * 1e18\n      SWAP1 \t\t\t50 * 1e18\n      PUSH 1\t\t\t\n      PUSH 1\t\t\t\n      PUSH A0\t\t\t\n      SHL \t\t\t\n      SUB \t\t\t\n      AND \t\t\tpriceFeed\n      PUSH [tag] 167\t\t\tMAXIMUM_FEE_USD.getConversionR...\n      JUMP \t\t\tMAXIMUM_FEE_USD.getConversionR...\n    tag 185\t\t\tMAXIMUM_FEE_USD.getConversionR...\n      JUMPDEST \t\t\tMAXIMUM_FEE_USD.getConversionR...\n      SWAP1 \t\t\tserviceFee = MAXIMUM_FEE_USD.g...\n      POP \t\t\tserviceFee = MAXIMUM_FEE_USD.g...\n      PUSH [tag] 186\t\t\tif (_tokenAmount / 200 > MAXIM...\n      JUMP \t\t\tif (_tokenAmount / 200 > MAXIM...\n    tag 184\t\t\tif (_tokenAmount / 200 > MAXIM...\n      JUMPDEST \t\t\tif (_tokenAmount / 200 > MAXIM...\n      PUSH [tag] 187\t\t\t_tokenAmount / 200\n      PUSH C8\t\t\t200\n      DUP5 \t\t\t_tokenAmount\n      PUSH [tag] 164\t\t\t_tokenAmount / 200\n      JUMP \t\t\t_tokenAmount / 200\n    tag 187\t\t\t_tokenAmount / 200\n      JUMPDEST \t\t\t_tokenAmount / 200\n      SWAP1 \t\t\tserviceFee = _tokenAmount / 20...\n      POP \t\t\tserviceFee = _tokenAmount / 20...\n    tag 186\t\t\tif (_tokenAmount / 200 > MAXIM...\n      JUMPDEST \t\t\tif (_tokenAmount / 200 > MAXIM...\n      PUSH 1\t\t\t\n      PUSH 1\t\t\t\n      PUSH A0\t\t\t\n      SHL \t\t\t\n      SUB \t\t\t\n      DUP5 \t\t\tServiceFeePurseTokenBalances[_...\n      AND \t\t\tServiceFeePurseTokenBalances[_...\n      PUSH 0\t\t\tServiceFeePurseTokenBalances[_...\n      SWAP1 \t\t\tServiceFeePurseTokenBalances[_...\n      DUP2 \t\t\tServiceFeePurseTokenBalances[_...\n      MSTORE \t\t\tServiceFeePurseTokenBalances[_...\n      PUSH 1B\t\t\tServiceFeePurseTokenBalances\n      PUSH 20\t\t\tServiceFeePurseTokenBalances[_...\n      MSTORE \t\t\tServiceFeePurseTokenBalances[_...\n      PUSH 40\t\t\tServiceFeePurseTokenBalances[_...\n      DUP2 \t\t\tServiceFeePurseTokenBalances[_...\n      KECCAK256 \t\t\tServiceFeePurseTokenBalances[_...\n      DUP1 \t\t\tServiceFeePurseTokenBalances[_...\n      SLOAD \t\t\tServiceFeePurseTokenBalances[_...\n      DUP4 \t\t\tserviceFee\n      SWAP3 \t\t\tserviceFee\n      SWAP1 \t\t\tServiceFeePurseTokenBalances[_...\n      PUSH [tag] 188\t\t\tServiceFeePurseTokenBalances[_...\n      SWAP1 \t\t\tServiceFeePurseTokenBalances[_...\n      DUP5 \t\t\tserviceFee\n      SWAP1 \t\t\tserviceFee\n      PUSH [tag] 159\t\t\tServiceFeePurseTokenBalances[_...\n      JUMP \t\t\tServiceFeePurseTokenBalances[_...\n    tag 188\t\t\tServiceFeePurseTokenBalances[_...\n      JUMPDEST \t\t\tServiceFeePurseTokenBalances[_...\n      SWAP1 \t\t\tServiceFeePurseTokenBalances[_...\n      SWAP2 \t\t\tServiceFeePurseTokenBalances[_...\n      SSTORE \t\t\tServiceFeePurseTokenBalances[_...\n      POP \t\t\t\n      POP \t\t\t\n      PUSH 40\t\t\ts_thriftClubData\\n            ...\n      DUP1 \t\t\ts_thriftClubData\\n            ...\n      DUP4 \t\t\ts_thriftClubData\\n            ...\n      ADD \t\t\ts_thriftClubData\\n            ...\n      MLOAD \t\t\ts_thriftClubData\\n            ...\n      PUSH 1\t\t\t\n      PUSH 1\t\t\t\n      PUSH A0\t\t\t\n      SHL \t\t\t\n      SUB \t\t\t\n      DUP7 \t\t\tThriftPurseTokenBalance[_token...\n      AND \t\t\tThriftPurseTokenBalance[_token...\n      PUSH 0\t\t\tThriftPurseTokenBalance[_token...\n      SWAP1 \t\t\tThriftPurseTokenBalance[_token...\n      DUP2 \t\t\tThriftPurseTokenBalance[_token...\n      MSTORE \t\t\tThriftPurseTokenBalance[_token...\n      PUSH 1D\t\t\tThriftPurseTokenBalance\n      PUSH 20\t\t\tThriftPurseTokenBalance[_token...\n      MSTORE \t\t\tThriftPurseTokenBalance[_token...\n      SWAP2 \t\t\tThriftPurseTokenBalance[_token...\n      DUP3 \t\t\tThriftPurseTokenBalance[_token...\n      KECCAK256 \t\t\tThriftPurseTokenBalance[_token...\n      DUP1 \t\t\tThriftPurseTokenBalance[_token...\n      SLOAD \t\t\tThriftPurseTokenBalance[_token...\n      SWAP2 \t\t\ts_thriftClubData\\n            ...\n      SWAP3 \t\t\ts_thriftClubData\\n            ...\n      SWAP1 \t\t\tThriftPurseTokenBalance[_token...\n      SWAP2 \t\t\tThriftPurseTokenBalance[_token...\n      PUSH [tag] 189\t\t\tThriftPurseTokenBalance[_token...\n      SWAP1 \t\t\tThriftPurseTokenBalance[_token...\n      DUP5 \t\t\ts_thriftClubData\\n            ...\n      SWAP1 \t\t\ts_thriftClubData\\n            ...\n      PUSH [tag] 159\t\t\tThriftPurseTokenBalance[_token...\n      JUMP \t\t\tThriftPurseTokenBalance[_token...\n    tag 189\t\t\tThriftPurseTokenBalance[_token...\n      JUMPDEST \t\t\tThriftPurseTokenBalance[_token...\n      SWAP1 \t\t\tThriftPurseTokenBalance[_token...\n      SWAP2 \t\t\tThriftPurseTokenBalance[_token...\n      SSTORE \t\t\tThriftPurseTokenBalance[_token...\n      POP \t\t\t\n      POP \t\t\t\n      PUSH 40\t\t\tIERC20(_tokenAddress).transfer...\n      MLOAD \t\t\tIERC20(_tokenAddress).transfer...\n      PUSH 23B872DD\t\t\t\n      PUSH E0\t\t\t\n      SHL \t\t\t\n      DUP2 \t\t\tIERC20(_tokenAddress).transfer...\n      MSTORE \t\t\tIERC20(_tokenAddress).transfer...\n      CALLER \t\t\tmsg.sender\n      PUSH 4\t\t\tIERC20(_tokenAddress).transfer...\n      DUP3 \t\t\tIERC20(_tokenAddress).transfer...\n      ADD \t\t\tIERC20(_tokenAddress).transfer...\n      MSTORE \t\t\t_DAIAddress;\\n        } else i...\n      ADDRESS \t\t\tthis\n      PUSH 24\t\t\tdress) {\\n         \n      DUP3 \t\t\tdress) {\\n         \n      ADD \t\t\tdress) {\\n         \n      MSTORE \t\t\t_WBTCAddress) {\\n            i...\n      PUSH 44\t\t\ts;\\n        } else \n      DUP2 \t\t\ts;\\n        } else \n      ADD \t\t\ts;\\n        } else \n      DUP5 \t\t\tCAddress;\\n        } else if (...\n      SWAP1 \t\t\tCAddress;\\n        } else if (...\n      MSTORE \t\t\tCAddress;\\n        } else if (...\n      PUSH 1\t\t\t\n      PUSH 1\t\t\t\n      PUSH A0\t\t\t\n      SHL \t\t\t\n      SUB \t\t\t\n      DUP6 \t\t\tIERC20(_tokenAddress).transfer...\n      AND \t\t\tIERC20(_tokenAddress).transfer...\n      SWAP1 \t\t\tIERC20(_tokenAddress).transfer...\n      PUSH 23B872DD\t\t\tIERC20(_tokenAddress).transfer...\n      SWAP1 \t\t\tIERC20(_tokenAddress).transfer...\n      PUSH 64\t\t\tse if (_token == i\n      ADD \t\t\tse if (_token == i\n      PUSH 20\t\t\tIERC20(_tokenAddress).transfer...\n      PUSH 40\t\t\tIERC20(_tokenAddress).transfer...\n      MLOAD \t\t\tIERC20(_tokenAddress).transfer...\n      DUP1 \t\t\tIERC20(_tokenAddress).transfer...\n      DUP4 \t\t\tIERC20(_tokenAddress).transfer...\n      SUB \t\t\tIERC20(_tokenAddress).transfer...\n      DUP2 \t\t\tIERC20(_tokenAddress).transfer...\n      PUSH 0\t\t\tIERC20(_tokenAddress).transfer...\n      DUP8 \t\t\tIERC20(_tokenAddress).transfer...\n      GAS \t\t\tIERC20(_tokenAddress).transfer...\n      CALL \t\t\tIERC20(_tokenAddress).transfer...\n      ISZERO \t\t\tIERC20(_tokenAddress).transfer...\n      DUP1 \t\t\tIERC20(_tokenAddress).transfer...\n      ISZERO \t\t\tIERC20(_tokenAddress).transfer...\n      PUSH [tag] 193\t\t\tIERC20(_tokenAddress).transfer...\n      JUMPI \t\t\tIERC20(_tokenAddress).transfer...\n      RETURNDATASIZE \t\t\tIERC20(_tokenAddress).transfer...\n      PUSH 0\t\t\tIERC20(_tokenAddress).transfer...\n      DUP1 \t\t\tIERC20(_tokenAddress).transfer...\n      RETURNDATACOPY \t\t\tIERC20(_tokenAddress).transfer...\n      RETURNDATASIZE \t\t\tIERC20(_tokenAddress).transfer...\n      PUSH 0\t\t\tIERC20(_tokenAddress).transfer...\n      REVERT \t\t\tIERC20(_tokenAddress).transfer...\n    tag 193\t\t\tIERC20(_tokenAddress).transfer...\n      JUMPDEST \t\t\tIERC20(_tokenAddress).transfer...\n      POP \t\t\tIERC20(_tokenAddress).transfer...\n      POP \t\t\tIERC20(_tokenAddress).transfer...\n      POP \t\t\tIERC20(_tokenAddress).transfer...\n      POP \t\t\tIERC20(_tokenAddress).transfer...\n      PUSH 40\t\t\tIERC20(_tokenAddress).transfer...\n      MLOAD \t\t\tIERC20(_tokenAddress).transfer...\n      RETURNDATASIZE \t\t\tIERC20(_tokenAddress).transfer...\n      PUSH 1F\t\t\tIERC20(_tokenAddress).transfer...\n      NOT \t\t\tIERC20(_tokenAddress).transfer...\n      PUSH 1F\t\t\tIERC20(_tokenAddress).transfer...\n      DUP3 \t\t\tIERC20(_tokenAddress).transfer...\n      ADD \t\t\tIERC20(_tokenAddress).transfer...\n      AND \t\t\tIERC20(_tokenAddress).transfer...\n      DUP3 \t\t\tIERC20(_tokenAddress).transfer...\n      ADD \t\t\tIERC20(_tokenAddress).transfer...\n      DUP1 \t\t\tIERC20(_tokenAddress).transfer...\n      PUSH 40\t\t\tIERC20(_tokenAddress).transfer...\n      MSTORE \t\t\tIERC20(_tokenAddress).transfer...\n      POP \t\t\tIERC20(_tokenAddress).transfer...\n      DUP2 \t\t\tIERC20(_tokenAddress).transfer...\n      ADD \t\t\tIERC20(_tokenAddress).transfer...\n      SWAP1 \t\t\tIERC20(_tokenAddress).transfer...\n      PUSH [tag] 194\t\t\tIERC20(_tokenAddress).transfer...\n      SWAP2 \t\t\tIERC20(_tokenAddress).transfer...\n      SWAP1 \t\t\tIERC20(_tokenAddress).transfer...\n      PUSH [tag] 195\t\t\tIERC20(_tokenAddress).transfer...\n      JUMP \t\t\tIERC20(_tokenAddress).transfer...\n    tag 194\t\t\tIERC20(_tokenAddress).transfer...\n      JUMPDEST \t\t\tIERC20(_tokenAddress).transfer...\n      POP \t\t\tIERC20(_tokenAddress).transfer...\n      POP \t\t\t{\\n            // Token paymen...\n    tag 174\t\t\tif (_tokenAddress == address(0...\n      JUMPDEST \t\t\tif (_tokenAddress == address(0...\n      PUSH 17\t\t\tparticipants\n      DUP1 \t\t\tparticipants.push(msg.sender)\n      SLOAD \t\t\tparticipants.push(msg.sender)\n      PUSH 1\t\t\tparticipants.push(msg.sender)\n      DUP1 \t\t\tparticipants.push(msg.sender)\n      DUP3 \t\t\tparticipants.push(msg.sender)\n      ADD \t\t\tparticipants.push(msg.sender)\n      SWAP1 \t\t\tparticipants.push(msg.sender)\n      SWAP3 \t\t\tparticipants.push(msg.sender)\n      SSTORE \t\t\tparticipants.push(msg.sender)\n      PUSH C624B66CC0138B8FABC209247F72D758E1CF3343756D543BADBF24212BED8C15\t\t\tparticipants.push(msg.sender)\n      ADD \t\t\tparticipants.push(msg.sender)\n      DUP1 \t\t\tparticipants.push(msg.sender)\n      SLOAD \t\t\tparticipants.push(msg.sender)\n      PUSH 1\t\t\t\n      PUSH 1\t\t\t\n      PUSH A0\t\t\t\n      SHL \t\t\t\n      SUB \t\t\t\n      NOT \t\t\t\n      AND \t\t\tparticipants.push(msg.sender)\n      CALLER \t\t\tmsg.sender\n      SWAP1 \t\t\tparticipants.push(msg.sender)\n      DUP2 \t\t\tparticipants.push(msg.sender)\n      OR \t\t\tparticipants.push(msg.sender)\n      SWAP1 \t\t\tparticipants.push(msg.sender)\n      SWAP2 \t\t\tparticipants.push(msg.sender)\n      SSTORE \t\t\tparticipants.push(msg.sender)\n      PUSH 0\t\t\t\n      DUP2 \t\t\tisParticipant[msg.sender]\n      DUP2 \t\t\tisParticipant[msg.sender]\n      MSTORE \t\t\tisParticipant[msg.sender]\n      PUSH 16\t\t\tisParticipant\n      PUSH 20\t\t\tparticipants.push(msg.sender)\n      MSTORE \t\t\tisParticipant[msg.sender]\n      PUSH 40\t\t\tisParticipant[msg.sender]\n      SWAP1 \t\t\tisParticipant[msg.sender]\n      DUP2 \t\t\tisParticipant[msg.sender]\n      SWAP1 \t\t\tisParticipant[msg.sender]\n      KECCAK256 \t\t\tisParticipant[msg.sender]\n      DUP1 \t\t\tisParticipant[msg.sender] = tr...\n      SLOAD \t\t\tisParticipant[msg.sender] = tr...\n      PUSH FF\t\t\t\n      NOT \t\t\t\n      AND \t\t\tisParticipant[msg.sender] = tr...\n      SWAP1 \t\t\tisParticipant[msg.sender] = tr...\n      SWAP4 \t\t\tisParticipant[msg.sender] = tr...\n      OR \t\t\tisParticipant[msg.sender] = tr...\n      SWAP1 \t\t\tisParticipant[msg.sender] = tr...\n      SWAP3 \t\t\tisParticipant[msg.sender] = tr...\n      SSTORE \t\t\tisParticipant[msg.sender] = tr...\n      PUSH 19\t\t\tdaoContract\n      SLOAD \t\t\tdaoContract\n      SWAP2 \t\t\tdaoContract.addMember(msg.send...\n      MLOAD \t\t\tdaoContract.addMember(msg.send...\n      PUSH 329B55B7\t\t\t\n      PUSH E2\t\t\t\n      SHL \t\t\t\n      DUP2 \t\t\tdaoContract.addMember(msg.send...\n      MSTORE \t\t\tdaoContract.addMember(msg.send...\n      PUSH 4\t\t\tdaoContract.addMember(msg.send...\n      DUP2 \t\t\tdaoContract.addMember(msg.send...\n      ADD \t\t\tdaoContract.addMember(msg.send...\n      SWAP2 \t\t\to track users who have paid th...\n      SWAP1 \t\t\to track users who have paid th...\n      SWAP2 \t\t\to track users who have paid th...\n      MSTORE \t\t\to track users who have paid th...\n      PUSH 1\t\t\t\n      PUSH 1\t\t\t\n      PUSH A0\t\t\t\n      SHL \t\t\t\n      SUB \t\t\t\n      SWAP1 \t\t\tdaoContract\n      SWAP2 \t\t\tdaoContract\n      AND \t\t\tdaoContract\n      SWAP1 \t\t\tdaoContract\n      PUSH CA6D56DC\t\t\tdaoContract.addMember\n      SWAP1 \t\t\tdaoContract.addMember\n      PUSH 24\t\t\ticipants;\\n\\n    // \n      ADD \t\t\ticipants;\\n\\n    // \n      PUSH 0\t\t\tdaoContract.addMember(msg.send...\n      PUSH 40\t\t\tdaoContract.addMember(msg.send...\n      MLOAD \t\t\tdaoContract.addMember(msg.send...\n      DUP1 \t\t\tdaoContract.addMember(msg.send...\n      DUP4 \t\t\tdaoContract.addMember(msg.send...\n      SUB \t\t\tdaoContract.addMember(msg.send...\n      DUP2 \t\t\tdaoContract.addMember(msg.send...\n      PUSH 0\t\t\tdaoContract.addMember(msg.send...\n      DUP8 \t\t\tdaoContract.addMember(msg.send...\n      DUP1 \t\t\tdaoContract.addMember(msg.send...\n      EXTCODESIZE \t\t\tdaoContract.addMember(msg.send...\n      ISZERO \t\t\tdaoContract.addMember(msg.send...\n      DUP1 \t\t\tdaoContract.addMember(msg.send...\n      ISZERO \t\t\tdaoContract.addMember(msg.send...\n      PUSH [tag] 198\t\t\tdaoContract.addMember(msg.send...\n      JUMPI \t\t\tdaoContract.addMember(msg.send...\n      PUSH 0\t\t\tdaoContract.addMember(msg.send...\n      DUP1 \t\t\tdaoContract.addMember(msg.send...\n      REVERT \t\t\tdaoContract.addMember(msg.send...\n    tag 198\t\t\tdaoContract.addMember(msg.send...\n      JUMPDEST \t\t\tdaoContract.addMember(msg.send...\n      POP \t\t\tdaoContract.addMember(msg.send...\n      GAS \t\t\tdaoContract.addMember(msg.send...\n      CALL \t\t\tdaoContract.addMember(msg.send...\n      ISZERO \t\t\tdaoContract.addMember(msg.send...\n      DUP1 \t\t\tdaoContract.addMember(msg.send...\n      ISZERO \t\t\tdaoContract.addMember(msg.send...\n      PUSH [tag] 200\t\t\tdaoContract.addMember(msg.send...\n      JUMPI \t\t\tdaoContract.addMember(msg.send...\n      RETURNDATASIZE \t\t\tdaoContract.addMember(msg.send...\n      PUSH 0\t\t\tdaoContract.addMember(msg.send...\n      DUP1 \t\t\tdaoContract.addMember(msg.send...\n      RETURNDATACOPY \t\t\tdaoContract.addMember(msg.send...\n      RETURNDATASIZE \t\t\tdaoContract.addMember(msg.send...\n      PUSH 0\t\t\tdaoContract.addMember(msg.send...\n      REVERT \t\t\tdaoContract.addMember(msg.send...\n    tag 200\t\t\tdaoContract.addMember(msg.send...\n      JUMPDEST \t\t\tdaoContract.addMember(msg.send...\n      POP \t\t\t\n      POP \t\t\t\n      PUSH 40\t\t\tParticipantJoined(msg.sender)\n      MLOAD \t\t\tParticipantJoined(msg.sender)\n      CALLER \t\t\tmsg.sender\n      SWAP3 \t\t\tmsg.sender\n      POP \t\t\t\n      PUSH 6CD71E167CAB47CB2CCB763AADA102691B585B848ADB6395F1DA4AC187B9214A\t\t\tParticipantJoined(msg.sender)\n      SWAP2 \t\t\tParticipantJoined(msg.sender)\n      POP \t\t\t\n      PUSH 0\t\t\tParticipantJoined(msg.sender)\n      SWAP1 \t\t\tParticipantJoined(msg.sender)\n      LOG2 \t\t\tParticipantJoined(msg.sender)\n      PUSH 17\t\t\tparticipants\n      SLOAD \t\t\tparticipants.length\n      PUSH 80\t\t\ts_thriftClubData.maxParticipan...\n      DUP3 \t\t\ts_thriftClubData.maxParticipan...\n      ADD \t\t\ts_thriftClubData.maxParticipan...\n      MLOAD \t\t\ts_thriftClubData.maxParticipan...\n      SUB \t\t\ts_thriftClubData.maxParticipan...\n      PUSH [tag] 201\t\t\tif (s_thriftClubData.maxPartic...\n      JUMPI \t\t\tif (s_thriftClubData.maxPartic...\n      PUSH 2\t\t\tTANDA_STATE.PAYMENT_IN_PROGRES...\n      DUP2 \t\t\ts_thriftClubData\n      PUSH 120\t\t\ts_thriftClubData.t_state\n      ADD \t\t\ts_thriftClubData.t_state\n      MLOAD \t\t\ts_thriftClubData.t_state\n      PUSH 3\t\t\ts_thriftClubData.t_state == TA...\n      DUP2 \t\t\ts_thriftClubData.t_state == TA...\n      GT \t\t\ts_thriftClubData.t_state == TA...\n      ISZERO \t\t\ts_thriftClubData.t_state == TA...\n      PUSH [tag] 206\t\t\ts_thriftClubData.t_state == TA...\n      JUMPI \t\t\ts_thriftClubData.t_state == TA...\n      PUSH [tag] 206\t\t\ts_thriftClubData.t_state == TA...\n      PUSH [tag] 204\t\t\ts_thriftClubData.t_state == TA...\n      JUMP \t\t\ts_thriftClubData.t_state == TA...\n    tag 206\t\t\ts_thriftClubData.t_state == TA...\n      JUMPDEST \t\t\ts_thriftClubData.t_state == TA...\n      POP \t\t\ts_thriftClubData.t_state == TA...\n      POP \t\t\ts_thriftClubData.t_state == TA...\n    tag 201\t\t\tif (s_thriftClubData.maxPartic...\n      JUMPDEST \t\t\tif (s_thriftClubData.maxPartic...\n      POP \t\t\t{\\n        ThriftClubData memo...\n      POP \t\t\tfunction joinThriftClub(\\n    ...\n      POP \t\t\tfunction joinThriftClub(\\n    ...\n      JUMP \t\t\tfunction joinThriftClub(\\n    ...\n    tag 50\t\t\t6 public ThriftPurseBalance;\\n...\n      JUMPDEST \t\t\t6 public ThriftPurseBalance;\\n...\n      CALLER \t\t\tnt256 publ\n      PUSH 1\t\t\t\n      PUSH 1\t\t\t\n      PUSH A0\t\t\t\n      SHL \t\t\t\n      SUB \t\t\t\n      PUSHIMMUTABLE 10\t\t\thriftPursePena\n      AND \t\t\tnt256 public ThriftPursePena\n      EQ \t\t\tnt256 public ThriftPursePena\n      PUSH [tag] 208\t\t\t  uint256 public ThriftPursePe...\n      JUMPI \t\t\t  uint256 public ThriftPursePe...\n      PUSH 40\t\t\tapping(address => uint256) pub...\n      MLOAD \t\t\tapping(address => uint256) pub...\n      PUSH 73E64FD\t\t\t\n      PUSH E2\t\t\t\n      SHL \t\t\t\n      DUP2 \t\t\tapping(address => uint256) pub...\n      MSTORE \t\t\tapping(address => uint256) pub...\n      CALLER \t\t\t public Th\n      PUSH 4\t\t\tapping(address => uint256) pub...\n      DUP3 \t\t\tapping(address => uint256) pub...\n      ADD \t\t\tapping(address => uint256) pub...\n      MSTORE \t\t\ttRandomWords() internal {\\n   ...\n      PUSH 1\t\t\t\n      PUSH 1\t\t\t\n      PUSH A0\t\t\t\n      SHL \t\t\t\n      SUB \t\t\t\n      PUSHIMMUTABLE 10\t\t\tftPursePenalty\n      AND \t\t\tt set and funde\n      PUSH 24\t\t\tf subscription is \n      DUP3 \t\t\tf subscription is \n      ADD \t\t\tf subscription is \n      MSTORE \t\t\tevert if subscription is not s...\n      PUSH 44\t\t\treturn this.onERC7\n      ADD \t\t\treturn this.onERC7\n      PUSH [tag] 147\t\t\tapping(address => uint256) pub...\n      JUMP \t\t\t   address operator,\\n        ...\n    tag 208\t\t\t  uint256 public ThriftPursePe...\n      JUMPDEST \t\t\t  uint256 public ThriftPursePe...\n      PUSH [tag] 211\t\t\t\\n\\n    function payPenaltyFee...\n      DUP3 \t\t\tenaltyFee\n      DUP3 \t\t\t        add\n      PUSH [tag] 212\t\t\t\\n\\n    function pay\n      JUMP \t\t\t\\n\\n    function payPenaltyFee...\n    tag 211\t\t\t\\n\\n    function payPenaltyFee...\n      JUMPDEST \t\t\t\\n\\n    function payPenaltyFee...\n      POP \t\t\t6 public ThriftPurseBalance;\\n...\n      POP \t\t\t6 public ThriftPurseBalance;\\n...\n      JUMP \t\t\t6 public ThriftPurseBalance;\\n...\n    tag 60\t\t\taddress[] public participants\n      JUMPDEST \t\t\taddress[] public participants\n      PUSH 17\t\t\taddress[] public participants\n      DUP2 \t\t\taddress[] public participants\n      DUP2 \t\t\taddress[] public participants\n      SLOAD \t\t\taddress[] public participants\n      DUP2 \t\t\taddress[] public participants\n      LT \t\t\taddress[] public participants\n      PUSH [tag] 213\t\t\taddress[] public participants\n      JUMPI \t\t\taddress[] public participants\n      PUSH 0\t\t\taddress[] public participants\n      DUP1 \t\t\taddress[] public participants\n      REVERT \t\t\taddress[] public participants\n    tag 213\t\t\taddress[] public participants\n      JUMPDEST \t\t\taddress[] public participants\n      PUSH 0\t\t\taddress[] public participants\n      SWAP2 \t\t\taddress[] public participants\n      DUP3 \t\t\taddress[] public participants\n      MSTORE \t\t\taddress[] public participants\n      PUSH 20\t\t\taddress[] public participants\n      SWAP1 \t\t\taddress[] public participants\n      SWAP2 \t\t\taddress[] public participants\n      KECCAK256 \t\t\taddress[] public participants\n      ADD \t\t\taddress[] public participants\n      SLOAD \t\t\taddress[] public participants\n      PUSH 1\t\t\t\n      PUSH 1\t\t\t\n      PUSH A0\t\t\t\n      SHL \t\t\t\n      SUB \t\t\t\n      AND \t\t\taddress[] public participants\n      SWAP1 \t\t\taddress[] public participants\n      POP \t\t\t\n      DUP2 \t\t\taddress[] public participants\n      JUMP \t\t\taddress[] public participants\n    tag 67\t\t\tfunction performUpkeep(bytes c...\n      JUMPDEST \t\t\tfunction performUpkeep(bytes c...\n      PUSH 8\t\t\ts_thriftClub.t_state\n      SLOAD \t\t\ts_thriftClub.t_state\n      PUSH 9\t\t\ts_thriftClub.lastUpdateTimesta...\n      SLOAD \t\t\ts_thriftClub.lastUpdateTimesta...\n      PUSH 1\t\t\ts_thriftClub.cycleDuration\n      SLOAD \t\t\ts_thriftClub.cycleDuration\n      PUSH 1\t\t\t\n      PUSH A0\t\t\t\n      SHL \t\t\t\n      SWAP1 \t\t\ts_thriftClub.t_state\n      SWAP3 \t\t\ts_thriftClub.t_state\n      DIV \t\t\ts_thriftClub.t_state\n      PUSH FF\t\t\ts_thriftClub.t_state\n      AND \t\t\ts_thriftClub.t_state\n      SWAP2 \t\t\ts_thriftClub.t_state\n      PUSH 2\t\t\tTANDA_STATE.PAYMENT_IN_PROGRES...\n      DUP4 \t\t\tcurrState\n      PUSH 3\t\t\tcurrState == TANDA_STATE.PAYME...\n      DUP2 \t\t\tcurrState == TANDA_STATE.PAYME...\n      GT \t\t\tcurrState == TANDA_STATE.PAYME...\n      ISZERO \t\t\tcurrState == TANDA_STATE.PAYME...\n      PUSH [tag] 219\t\t\tcurrState == TANDA_STATE.PAYME...\n      JUMPI \t\t\tcurrState == TANDA_STATE.PAYME...\n      PUSH [tag] 219\t\t\tcurrState == TANDA_STATE.PAYME...\n      PUSH [tag] 204\t\t\tcurrState == TANDA_STATE.PAYME...\n      JUMP \t\t\tcurrState == TANDA_STATE.PAYME...\n    tag 219\t\t\tcurrState == TANDA_STATE.PAYME...\n      JUMPDEST \t\t\tcurrState == TANDA_STATE.PAYME...\n      EQ \t\t\tcurrState == TANDA_STATE.PAYME...\n      DUP1 \t\t\tcurrState == TANDA_STATE.PAYME...\n      ISZERO \t\t\tcurrState == TANDA_STATE.PAYME...\n      PUSH [tag] 220\t\t\tcurrState == TANDA_STATE.PAYME...\n      JUMPI \t\t\tcurrState == TANDA_STATE.PAYME...\n      POP \t\t\t\n      PUSH [tag] 221\t\t\tlastUpdateTimestamp + cycleDur...\n      DUP2 \t\t\tcycleDuration\n      DUP4 \t\t\tlastUpdateTimestamp\n      PUSH [tag] 159\t\t\tlastUpdateTimestamp + cycleDur...\n      JUMP \t\t\tlastUpdateTimestamp + cycleDur...\n    tag 221\t\t\tlastUpdateTimestamp + cycleDur...\n      JUMPDEST \t\t\tlastUpdateTimestamp + cycleDur...\n      TIMESTAMP \t\t\tblock.timestamp\n      GT \t\t\tblock.timestamp > lastUpdateTi...\n    tag 220\t\t\tcurrState == TANDA_STATE.PAYME...\n      JUMPDEST \t\t\tcurrState == TANDA_STATE.PAYME...\n      ISZERO \t\t\tif (\\n            currState ==...\n      PUSH [tag] 206\t\t\tif (\\n            currState ==...\n      JUMPI \t\t\tif (\\n            currState ==...\n      PUSH [tag] 206\t\t\trequestRandomWords()\n      PUSH [tag] 224\t\t\trequestRandomWords\n      JUMP \t\t\trequestRandomWords()\n    tag 90\t\t\tfunction payPenaltyFee(\\n     ...\n      JUMPDEST \t\t\tfunction payPenaltyFee(\\n     ...\n      PUSH [tag] 226\t\t\tThriftClubData memory s_thrift...\n      PUSH [tag] 145\t\t\tThriftClubData memory s_thrift...\n      JUMP \t\t\tThriftClubData memory s_thrift...\n    tag 226\t\t\tThriftClubData memory s_thrift...\n      JUMPDEST \t\t\tThriftClubData memory s_thrift...\n      CALLER \t\t\tmsg.sender\n      PUSH 0\t\t\thasPaidPenalty[msg.sender]\n      SWAP1 \t\t\thasPaidPenalty[msg.sender]\n      DUP2 \t\t\thasPaidPenalty[msg.sender]\n      MSTORE \t\t\thasPaidPenalty[msg.sender]\n      PUSH 18\t\t\thasPaidPenalty\n      PUSH 20\t\t\thasPaidPenalty[msg.sender]\n      MSTORE \t\t\thasPaidPenalty[msg.sender]\n      PUSH 40\t\t\thasPaidPenalty[msg.sender]\n      SWAP1 \t\t\thasPaidPenalty[msg.sender]\n      KECCAK256 \t\t\thasPaidPenalty[msg.sender]\n      SLOAD \t\t\thasPaidPenalty[msg.sender]\n      PUSH FF\t\t\thasPaidPenalty[msg.sender]\n      AND \t\t\thasPaidPenalty[msg.sender]\n      ISZERO \t\t\t!hasPaidPenalty[msg.sender]\n      PUSH [tag] 227\t\t\trequire(!hasPaidPenalty[msg.se...\n      JUMPI \t\t\trequire(!hasPaidPenalty[msg.se...\n      PUSH 40\t\t\trequire(!hasPaidPenalty[msg.se...\n      MLOAD \t\t\trequire(!hasPaidPenalty[msg.se...\n      PUSH 461BCD\t\t\t\n      PUSH E5\t\t\t\n      SHL \t\t\t\n      DUP2 \t\t\trequire(!hasPaidPenalty[msg.se...\n      MSTORE \t\t\trequire(!hasPaidPenalty[msg.se...\n      PUSH 20\t\t\t f\n      PUSH 4\t\t\trequire(!hasPaidPenalty[msg.se...\n      DUP3 \t\t\trequire(!hasPaidPenalty[msg.se...\n      ADD \t\t\trequire(!hasPaidPenalty[msg.se...\n      MSTORE \t\t\t     );\\n    }\\n\\n    fu\n      PUSH 18\t\t\tll\n      PUSH 24\t\t\tep(\\n        bytes \n      DUP3 \t\t\tep(\\n        bytes \n      ADD \t\t\tep(\\n        bytes \n      MSTORE \t\t\teckUpkeep(\\n        bytes call...\n      PUSH 50656E616C74792066656520616C726561647920706169640000000000000000\t\t\t (bool upkeepNeeded, bytes\n      PUSH 44\t\t\t  ) external retur\n      DUP3 \t\t\t  ) external retur\n      ADD \t\t\t  ) external retur\n      MSTORE \t\t\tData\\n    ) external returns (...\n      PUSH 64\t\t\ta) {\\n        // Th\n      ADD \t\t\ta) {\\n        // Th\n      PUSH [tag] 147\t\t\trequire(!hasPaidPenalty[msg.se...\n      JUMP \t\t\t_requestId = COORDINATOR.reque...\n    tag 227\t\t\trequire(!hasPaidPenalty[msg.se...\n      JUMPDEST \t\t\trequire(!hasPaidPenalty[msg.se...\n      PUSH 0\t\t\tbool\n      SLOAD \t\t\ts_thriftClub.token\n      PUSH 1\t\t\t\n      PUSH 1\t\t\t\n      PUSH A0\t\t\t\n      SHL \t\t\t\n      SUB \t\t\t\n      DUP5 \t\t\t_token == address(s_thriftClub...\n      DUP2 \t\t\t_token == address(s_thriftClub...\n      AND \t\t\t_token == address(s_thriftClub...\n      SWAP2 \t\t\ts_thriftClub.token\n      AND \t\t\ts_thriftClub.token\n      EQ \t\t\t_token == address(s_thriftClub...\n      PUSH [tag] 231\t\t\trequire(isValidToken(_tokenAdd...\n      JUMPI \t\t\trequire(isValidToken(_tokenAdd...\n      PUSH 40\t\t\trequire(isValidToken(_tokenAdd...\n      MLOAD \t\t\trequire(isValidToken(_tokenAdd...\n      PUSH 461BCD\t\t\t\n      PUSH E5\t\t\t\n      SHL \t\t\t\n      DUP2 \t\t\trequire(isValidToken(_tokenAdd...\n      MSTORE \t\t\trequire(isValidToken(_tokenAdd...\n      PUSH 4\t\t\trequire(isValidToken(_tokenAdd...\n      ADD \t\t\trequire(isValidToken(_tokenAdd...\n      PUSH [tag] 147\t\t\trequire(isValidToken(_tokenAdd...\n      SWAP1 \t\t\trequire(isValidToken(_tokenAdd...\n      PUSH [tag] 156\t\t\trequire(isValidToken(_tokenAdd...\n      JUMP \t\t\trequire(isValidToken(_tokenAdd...\n    tag 231\t\t\trequire(isValidToken(_tokenAdd...\n      JUMPDEST \t\t\trequire(isValidToken(_tokenAdd...\n      PUSH 1\t\t\t\n      PUSH 1\t\t\t\n      PUSH A0\t\t\t\n      SHL \t\t\t\n      SUB \t\t\t\n      DUP4 \t\t\t_tokenAddress == address(0)\n      AND \t\t\t_tokenAddress == address(0)\n      PUSH [tag] 233\t\t\tif (_tokenAddress == address(0...\n      JUMPI \t\t\tif (_tokenAddress == address(0...\n      DUP1 \t\t\ts_thriftClubData\n      PUSH 60\t\t\ts_thriftClubData.penalty\n      ADD \t\t\ts_thriftClubData.penalty\n      MLOAD \t\t\ts_thriftClubData.penalty\n      CALLVALUE \t\t\tmsg.value\n      EQ \t\t\tmsg.value == s_thriftClubData....\n      PUSH [tag] 234\t\t\trequire(\\n                msg....\n      JUMPI \t\t\trequire(\\n                msg....\n      PUSH 40\t\t\trequire(\\n                msg....\n      MLOAD \t\t\trequire(\\n                msg....\n      PUSH 461BCD\t\t\t\n      PUSH E5\t\t\t\n      SHL \t\t\t\n      DUP2 \t\t\trequire(\\n                msg....\n      MSTORE \t\t\trequire(\\n                msg....\n      PUSH 20\t\t\tn;\n      PUSH 4\t\t\trequire(\\n                msg....\n      DUP3 \t\t\trequire(\\n                msg....\n      ADD \t\t\trequire(\\n                msg....\n      MSTORE \t\t\ttClub.cycleDuration;\\n\n      PUSH 1C\t\t\t==\n      PUSH 24\t\t\t          currStat\n      DUP3 \t\t\t          currStat\n      ADD \t\t\t          currStat\n      MSTORE \t\t\tif (\\n            currState ==...\n      PUSH 496E636F72726563742070656E616C74792066656520616D6F756E7400000000\t\t\t           block.timestamp > l\n      PUSH 44\t\t\tENT_IN_PROGRESS &&\n      DUP3 \t\t\tENT_IN_PROGRESS &&\n      ADD \t\t\tENT_IN_PROGRESS &&\n      MSTORE \t\t\tTE.PAYMENT_IN_PROGRESS &&\\n   ...\n      PUSH 64\t\t\t + cycleDuration\\n \n      ADD \t\t\t + cycleDuration\\n \n      PUSH [tag] 147\t\t\trequire(\\n                msg....\n      JUMP \t\t\ta s_thriftClubData\\n        TA...\n    tag 234\t\t\trequire(\\n                msg....\n      JUMPDEST \t\t\trequire(\\n                msg....\n      DUP1 \t\t\ts_thriftClubData\n      PUSH 60\t\t\ts_thriftClubData.penalty\n      ADD \t\t\ts_thriftClubData.penalty\n      MLOAD \t\t\ts_thriftClubData.penalty\n      PUSH 1E\t\t\tThriftPursePenaltyBalance\n      PUSH 0\t\t\tThriftPursePenaltyBalance\n      DUP3 \t\t\tThriftPursePenaltyBalance += s...\n      DUP3 \t\t\tThriftPursePenaltyBalance += s...\n      SLOAD \t\t\tThriftPursePenaltyBalance += s...\n      PUSH [tag] 237\t\t\tThriftPursePenaltyBalance += s...\n      SWAP2 \t\t\tThriftPursePenaltyBalance += s...\n      SWAP1 \t\t\tThriftPursePenaltyBalance += s...\n      PUSH [tag] 159\t\t\tThriftPursePenaltyBalance += s...\n      JUMP \t\t\tThriftPursePenaltyBalance += s...\n    tag 237\t\t\tThriftPursePenaltyBalance += s...\n      JUMPDEST \t\t\tThriftPursePenaltyBalance += s...\n      SWAP1 \t\t\tThriftPursePenaltyBalance += s...\n      SWAP2 \t\t\tThriftPursePenaltyBalance += s...\n      SSTORE \t\t\tThriftPursePenaltyBalance += s...\n      POP \t\t\t\n      POP \t\t\t\n      PUSH 40\t\t\tpayable(address(this)).transfe...\n      MLOAD \t\t\tpayable(address(this)).transfe...\n      ADDRESS \t\t\tthis\n      SWAP1 \t\t\tthis\n      CALLVALUE \t\t\tmsg.value\n      DUP1 \t\t\tpayable(address(this)).transfe...\n      ISZERO \t\t\tpayable(address(this)).transfe...\n      PUSH 8FC\t\t\tpayable(address(this)).transfe...\n      MUL \t\t\tpayable(address(this)).transfe...\n      SWAP2 \t\t\tpayable(address(this)).transfe...\n      PUSH 0\t\t\tpayable(address(this)).transfe...\n      DUP2 \t\t\tpayable(address(this)).transfe...\n      DUP2 \t\t\tpayable(address(this)).transfe...\n      DUP2 \t\t\tpayable(address(this)).transfe...\n      DUP6 \t\t\tmsg.value\n      DUP9 \t\t\tthis\n      DUP9 \t\t\tpayable(address(this)).transfe...\n      CALL \t\t\tpayable(address(this)).transfe...\n      SWAP4 \t\t\tpayable(address(this)).transfe...\n      POP \t\t\tpayable(address(this)).transfe...\n      POP \t\t\tpayable(address(this)).transfe...\n      POP \t\t\tpayable(address(this)).transfe...\n      POP \t\t\tpayable(address(this)).transfe...\n      ISZERO \t\t\tpayable(address(this)).transfe...\n      DUP1 \t\t\tpayable(address(this)).transfe...\n      ISZERO \t\t\tpayable(address(this)).transfe...\n      PUSH [tag] 239\t\t\tpayable(address(this)).transfe...\n      JUMPI \t\t\tpayable(address(this)).transfe...\n      RETURNDATASIZE \t\t\tpayable(address(this)).transfe...\n      PUSH 0\t\t\tpayable(address(this)).transfe...\n      DUP1 \t\t\tpayable(address(this)).transfe...\n      RETURNDATACOPY \t\t\tpayable(address(this)).transfe...\n      RETURNDATASIZE \t\t\tpayable(address(this)).transfe...\n      PUSH 0\t\t\tpayable(address(this)).transfe...\n      REVERT \t\t\tpayable(address(this)).transfe...\n    tag 239\t\t\tpayable(address(this)).transfe...\n      JUMPDEST \t\t\tpayable(address(this)).transfe...\n      POP \t\t\tpayable(address(this)).transfe...\n      PUSH [tag] 240\t\t\tif (_tokenAddress == address(0...\n      JUMP \t\t\tif (_tokenAddress == address(0...\n    tag 233\t\t\tif (_tokenAddress == address(0...\n      JUMPDEST \t\t\tif (_tokenAddress == address(0...\n      DUP1 \t\t\ts_thriftClubData\n      PUSH 60\t\t\ts_thriftClubData.penalty\n      ADD \t\t\ts_thriftClubData.penalty\n      MLOAD \t\t\ts_thriftClubData.penalty\n      DUP3 \t\t\t_tokenAmount\n      EQ \t\t\t_tokenAmount == s_thriftClubDa...\n      PUSH [tag] 241\t\t\trequire(\\n                _tok...\n      JUMPI \t\t\trequire(\\n                _tok...\n      PUSH 40\t\t\trequire(\\n                _tok...\n      MLOAD \t\t\trequire(\\n                _tok...\n      PUSH 461BCD\t\t\t\n      PUSH E5\t\t\t\n      SHL \t\t\t\n      DUP2 \t\t\trequire(\\n                _tok...\n      MSTORE \t\t\trequire(\\n                _tok...\n      PUSH 20\t\t\t  \n      PUSH 4\t\t\trequire(\\n                _tok...\n      DUP3 \t\t\trequire(\\n                _tok...\n      ADD \t\t\trequire(\\n                _tok...\n      MSTORE \t\t\tData) external {\\n    \n      PUSH 26\t\t\tCl\n      PUSH 24\t\t\tcurrState = s_thri\n      DUP3 \t\t\tcurrState = s_thri\n      ADD \t\t\tcurrState = s_thri\n      MSTORE \t\t\t_STATE currState = s_thriftClu\n      PUSH 496E636F727265637420746F6B656E20616D6F756E7420666F722070656E616C\t\t\teTimestamp = s_thriftClub.last...\n      PUSH 44\t\t\t   uint256 lastUpd\n      DUP3 \t\t\t   uint256 lastUpd\n      ADD \t\t\t   uint256 lastUpd\n      MSTORE \t\t\t;\\n        uint256 lastUpdateT...\n      PUSH 747920666565\t\t\t\n      PUSH D0\t\t\t\n      SHL \t\t\t\n      PUSH 64\t\t\t    uint256 cycleD\n      DUP3 \t\t\t    uint256 cycleD\n      ADD \t\t\t    uint256 cycleD\n      MSTORE \t\t\tp;\\n        uint256 cycleDurat...\n      PUSH 84\t\t\tDuration;\\n\\n        \n      ADD \t\t\tDuration;\\n\\n        \n      PUSH [tag] 147\t\t\trequire(\\n                _tok...\n      JUMP \t\t\t            upkeepNeeded = tru...\n    tag 241\t\t\trequire(\\n                _tok...\n      JUMPDEST \t\t\trequire(\\n                _tok...\n      PUSH 60\t\t\ts_thriftClubData\\n            ...\n      DUP2 \t\t\ts_thriftClubData\\n            ...\n      ADD \t\t\ts_thriftClubData\\n            ...\n      MLOAD \t\t\ts_thriftClubData\\n            ...\n      PUSH 1\t\t\t\n      PUSH 1\t\t\t\n      PUSH A0\t\t\t\n      SHL \t\t\t\n      SUB \t\t\t\n      DUP5 \t\t\tThriftPursePenaltyTokenBalance...\n      AND \t\t\tThriftPursePenaltyTokenBalance...\n      PUSH 0\t\t\tThriftPursePenaltyTokenBalance...\n      SWAP1 \t\t\tThriftPursePenaltyTokenBalance...\n      DUP2 \t\t\tThriftPursePenaltyTokenBalance...\n      MSTORE \t\t\tThriftPursePenaltyTokenBalance...\n      PUSH 1F\t\t\tThriftPursePenaltyTokenBalance\n      PUSH 20\t\t\tThriftPursePenaltyTokenBalance...\n      MSTORE \t\t\tThriftPursePenaltyTokenBalance...\n      PUSH 40\t\t\tThriftPursePenaltyTokenBalance...\n      DUP2 \t\t\tThriftPursePenaltyTokenBalance...\n      KECCAK256 \t\t\tThriftPursePenaltyTokenBalance...\n      DUP1 \t\t\tThriftPursePenaltyTokenBalance...\n      SLOAD \t\t\tThriftPursePenaltyTokenBalance...\n      SWAP1 \t\t\tThriftPursePenaltyTokenBalance...\n      SWAP2 \t\t\tThriftPursePenaltyTokenBalance...\n      SWAP1 \t\t\tThriftPursePenaltyTokenBalance...\n      PUSH [tag] 244\t\t\tThriftPursePenaltyTokenBalance...\n      SWAP1 \t\t\tThriftPursePenaltyTokenBalance...\n      DUP5 \t\t\ts_thriftClubData\\n            ...\n      SWAP1 \t\t\ts_thriftClubData\\n            ...\n      PUSH [tag] 159\t\t\tThriftPursePenaltyTokenBalance...\n      JUMP \t\t\tThriftPursePenaltyTokenBalance...\n    tag 244\t\t\tThriftPursePenaltyTokenBalance...\n      JUMPDEST \t\t\tThriftPursePenaltyTokenBalance...\n      SWAP1 \t\t\tThriftPursePenaltyTokenBalance...\n      SWAP2 \t\t\tThriftPursePenaltyTokenBalance...\n      SSTORE \t\t\tThriftPursePenaltyTokenBalance...\n      POP \t\t\t\n      POP \t\t\t\n      PUSH 40\t\t\tIERC20(_tokenAddress).transfer...\n      MLOAD \t\t\tIERC20(_tokenAddress).transfer...\n      PUSH 23B872DD\t\t\t\n      PUSH E0\t\t\t\n      SHL \t\t\t\n      DUP2 \t\t\tIERC20(_tokenAddress).transfer...\n      MSTORE \t\t\tIERC20(_tokenAddress).transfer...\n      CALLER \t\t\tmsg.sender\n      PUSH 4\t\t\tIERC20(_tokenAddress).transfer...\n      DUP3 \t\t\tIERC20(_tokenAddress).transfer...\n      ADD \t\t\tIERC20(_tokenAddress).transfer...\n      MSTORE \t\t\t_DAIAddress;\\n        } else i...\n      ADDRESS \t\t\tthis\n      PUSH 24\t\t\tdress) {\\n         \n      DUP3 \t\t\tdress) {\\n         \n      ADD \t\t\tdress) {\\n         \n      MSTORE \t\t\t_WBTCAddress) {\\n            i...\n      PUSH 44\t\t\ts;\\n        } else \n      DUP2 \t\t\ts;\\n        } else \n      ADD \t\t\ts;\\n        } else \n      DUP4 \t\t\tCAddress;\\n        } else if (...\n      SWAP1 \t\t\tCAddress;\\n        } else if (...\n      MSTORE \t\t\tCAddress;\\n        } else if (...\n      PUSH 1\t\t\t\n      PUSH 1\t\t\t\n      PUSH A0\t\t\t\n      SHL \t\t\t\n      SUB \t\t\t\n      DUP5 \t\t\tIERC20(_tokenAddress).transfer...\n      AND \t\t\tIERC20(_tokenAddress).transfer...\n      SWAP1 \t\t\tIERC20(_tokenAddress).transfer...\n      PUSH 23B872DD\t\t\tIERC20(_tokenAddress).transfer...\n      SWAP1 \t\t\tIERC20(_tokenAddress).transfer...\n      PUSH 64\t\t\tse if (_token == i\n      ADD \t\t\tse if (_token == i\n      PUSH 20\t\t\tIERC20(_tokenAddress).transfer...\n      PUSH 40\t\t\tIERC20(_tokenAddress).transfer...\n      MLOAD \t\t\tIERC20(_tokenAddress).transfer...\n      DUP1 \t\t\tIERC20(_tokenAddress).transfer...\n      DUP4 \t\t\tIERC20(_tokenAddress).transfer...\n      SUB \t\t\tIERC20(_tokenAddress).transfer...\n      DUP2 \t\t\tIERC20(_tokenAddress).transfer...\n      PUSH 0\t\t\tIERC20(_tokenAddress).transfer...\n      DUP8 \t\t\tIERC20(_tokenAddress).transfer...\n      GAS \t\t\tIERC20(_tokenAddress).transfer...\n      CALL \t\t\tIERC20(_tokenAddress).transfer...\n      ISZERO \t\t\tIERC20(_tokenAddress).transfer...\n      DUP1 \t\t\tIERC20(_tokenAddress).transfer...\n      ISZERO \t\t\tIERC20(_tokenAddress).transfer...\n      PUSH [tag] 247\t\t\tIERC20(_tokenAddress).transfer...\n      JUMPI \t\t\tIERC20(_tokenAddress).transfer...\n      RETURNDATASIZE \t\t\tIERC20(_tokenAddress).transfer...\n      PUSH 0\t\t\tIERC20(_tokenAddress).transfer...\n      DUP1 \t\t\tIERC20(_tokenAddress).transfer...\n      RETURNDATACOPY \t\t\tIERC20(_tokenAddress).transfer...\n      RETURNDATASIZE \t\t\tIERC20(_tokenAddress).transfer...\n      PUSH 0\t\t\tIERC20(_tokenAddress).transfer...\n      REVERT \t\t\tIERC20(_tokenAddress).transfer...\n    tag 247\t\t\tIERC20(_tokenAddress).transfer...\n      JUMPDEST \t\t\tIERC20(_tokenAddress).transfer...\n      POP \t\t\tIERC20(_tokenAddress).transfer...\n      POP \t\t\tIERC20(_tokenAddress).transfer...\n      POP \t\t\tIERC20(_tokenAddress).transfer...\n      POP \t\t\tIERC20(_tokenAddress).transfer...\n      PUSH 40\t\t\tIERC20(_tokenAddress).transfer...\n      MLOAD \t\t\tIERC20(_tokenAddress).transfer...\n      RETURNDATASIZE \t\t\tIERC20(_tokenAddress).transfer...\n      PUSH 1F\t\t\tIERC20(_tokenAddress).transfer...\n      NOT \t\t\tIERC20(_tokenAddress).transfer...\n      PUSH 1F\t\t\tIERC20(_tokenAddress).transfer...\n      DUP3 \t\t\tIERC20(_tokenAddress).transfer...\n      ADD \t\t\tIERC20(_tokenAddress).transfer...\n      AND \t\t\tIERC20(_tokenAddress).transfer...\n      DUP3 \t\t\tIERC20(_tokenAddress).transfer...\n      ADD \t\t\tIERC20(_tokenAddress).transfer...\n      DUP1 \t\t\tIERC20(_tokenAddress).transfer...\n      PUSH 40\t\t\tIERC20(_tokenAddress).transfer...\n      MSTORE \t\t\tIERC20(_tokenAddress).transfer...\n      POP \t\t\tIERC20(_tokenAddress).transfer...\n      DUP2 \t\t\tIERC20(_tokenAddress).transfer...\n      ADD \t\t\tIERC20(_tokenAddress).transfer...\n      SWAP1 \t\t\tIERC20(_tokenAddress).transfer...\n      PUSH [tag] 248\t\t\tIERC20(_tokenAddress).transfer...\n      SWAP2 \t\t\tIERC20(_tokenAddress).transfer...\n      SWAP1 \t\t\tIERC20(_tokenAddress).transfer...\n      PUSH [tag] 195\t\t\tIERC20(_tokenAddress).transfer...\n      JUMP \t\t\tIERC20(_tokenAddress).transfer...\n    tag 248\t\t\tIERC20(_tokenAddress).transfer...\n      JUMPDEST \t\t\tIERC20(_tokenAddress).transfer...\n      POP \t\t\tIERC20(_tokenAddress).transfer...\n    tag 240\t\t\tif (_tokenAddress == address(0...\n      JUMPDEST \t\t\tif (_tokenAddress == address(0...\n      POP \t\t\t\n      POP \t\t\t\n      CALLER \t\t\tmsg.sender\n      PUSH 0\t\t\thasPaidPenalty[msg.sender]\n      SWAP1 \t\t\thasPaidPenalty[msg.sender]\n      DUP2 \t\t\thasPaidPenalty[msg.sender]\n      MSTORE \t\t\thasPaidPenalty[msg.sender]\n      PUSH 18\t\t\thasPaidPenalty\n      PUSH 20\t\t\thasPaidPenalty[msg.sender]\n      MSTORE \t\t\thasPaidPenalty[msg.sender]\n      PUSH 40\t\t\thasPaidPenalty[msg.sender]\n      SWAP1 \t\t\thasPaidPenalty[msg.sender]\n      KECCAK256 \t\t\thasPaidPenalty[msg.sender]\n      DUP1 \t\t\thasPaidPenalty[msg.sender] = t...\n      SLOAD \t\t\thasPaidPenalty[msg.sender] = t...\n      PUSH FF\t\t\t\n      NOT \t\t\t\n      AND \t\t\thasPaidPenalty[msg.sender] = t...\n      PUSH 1\t\t\ttrue\n      OR \t\t\thasPaidPenalty[msg.sender] = t...\n      SWAP1 \t\t\thasPaidPenalty[msg.sender] = t...\n      SSTORE \t\t\thasPaidPenalty[msg.sender] = t...\n      POP \t\t\t\n      JUMP \t\t\tfunction payPenaltyFee(\\n     ...\n    tag 94\t\t\tfunction checkUpkeep(\\n       ...\n      JUMPDEST \t\t\tfunction checkUpkeep(\\n       ...\n      PUSH 8\t\t\ts_thriftClub.t_state\n      SLOAD \t\t\ts_thriftClub.t_state\n      PUSH 9\t\t\ts_thriftClub.lastUpdateTimesta...\n      SLOAD \t\t\ts_thriftClub.lastUpdateTimesta...\n      PUSH 1\t\t\ts_thriftClub.cycleDuration\n      SLOAD \t\t\ts_thriftClub.cycleDuration\n      PUSH 0\t\t\tbool upkeepNeeded\n      SWAP3 \t\t\tbool upkeepNeeded\n      PUSH 60\t\t\tbytes memory performData\n      SWAP3 \t\t\tbytes memory performData\n      PUSH 1\t\t\t\n      PUSH A0\t\t\t\n      SHL \t\t\t\n      SWAP1 \t\t\ts_thriftClub.t_state\n      SWAP2 \t\t\ts_thriftClub.t_state\n      DIV \t\t\ts_thriftClub.t_state\n      PUSH FF\t\t\ts_thriftClub.t_state\n      AND \t\t\ts_thriftClub.t_state\n      SWAP2 \t\t\ts_thriftClub.t_state\n      PUSH 2\t\t\tTANDA_STATE.PAYMENT_IN_PROGRES...\n      DUP4 \t\t\tcurrState\n      PUSH 3\t\t\tcurrState == TANDA_STATE.PAYME...\n      DUP2 \t\t\tcurrState == TANDA_STATE.PAYME...\n      GT \t\t\tcurrState == TANDA_STATE.PAYME...\n      ISZERO \t\t\tcurrState == TANDA_STATE.PAYME...\n      PUSH [tag] 253\t\t\tcurrState == TANDA_STATE.PAYME...\n      JUMPI \t\t\tcurrState == TANDA_STATE.PAYME...\n      PUSH [tag] 253\t\t\tcurrState == TANDA_STATE.PAYME...\n      PUSH [tag] 204\t\t\tcurrState == TANDA_STATE.PAYME...\n      JUMP \t\t\tcurrState == TANDA_STATE.PAYME...\n    tag 253\t\t\tcurrState == TANDA_STATE.PAYME...\n      JUMPDEST \t\t\tcurrState == TANDA_STATE.PAYME...\n      EQ \t\t\tcurrState == TANDA_STATE.PAYME...\n      DUP1 \t\t\tcurrState == TANDA_STATE.PAYME...\n      ISZERO \t\t\tcurrState == TANDA_STATE.PAYME...\n      PUSH [tag] 254\t\t\tcurrState == TANDA_STATE.PAYME...\n      JUMPI \t\t\tcurrState == TANDA_STATE.PAYME...\n      POP \t\t\t\n      PUSH [tag] 255\t\t\tlastUpdateTimestamp + cycleDur...\n      DUP2 \t\t\tcycleDuration\n      DUP4 \t\t\tlastUpdateTimestamp\n      PUSH [tag] 159\t\t\tlastUpdateTimestamp + cycleDur...\n      JUMP \t\t\tlastUpdateTimestamp + cycleDur...\n    tag 255\t\t\tlastUpdateTimestamp + cycleDur...\n      JUMPDEST \t\t\tlastUpdateTimestamp + cycleDur...\n      TIMESTAMP \t\t\tblock.timestamp\n      GT \t\t\tblock.timestamp > lastUpdateTi...\n    tag 254\t\t\tcurrState == TANDA_STATE.PAYME...\n      JUMPDEST \t\t\tcurrState == TANDA_STATE.PAYME...\n      ISZERO \t\t\tif (\\n            currState ==...\n      PUSH [tag] 256\t\t\tif (\\n            currState ==...\n      JUMPI \t\t\tif (\\n            currState ==...\n      PUSH 1\t\t\ttrue\n      SWAP5 \t\t\tupkeepNeeded = true\n      POP \t\t\tupkeepNeeded = true\n      PUSH [tag] 257\t\t\tif (\\n            currState ==...\n      JUMP \t\t\tif (\\n            currState ==...\n    tag 256\t\t\tif (\\n            currState ==...\n      JUMPDEST \t\t\tif (\\n            currState ==...\n      PUSH 0\t\t\tfalse\n      SWAP5 \t\t\tupkeepNeeded = false\n      POP \t\t\tupkeepNeeded = false\n    tag 257\t\t\tif (\\n            currState ==...\n      JUMPDEST \t\t\tif (\\n            currState ==...\n      DUP7 \t\t\tcheckData\n      DUP7 \t\t\tcheckData\n      DUP1 \t\t\tperformData = checkData\n      DUP1 \t\t\tperformData = checkData\n      PUSH 1F\t\t\tperformData = checkData\n      ADD \t\t\tperformData = checkData\n      PUSH 20\t\t\tperformData = checkData\n      DUP1 \t\t\tperformData = checkData\n      SWAP2 \t\t\tperformData = checkData\n      DIV \t\t\tperformData = checkData\n      MUL \t\t\tperformData = checkData\n      PUSH 20\t\t\tperformData = checkData\n      ADD \t\t\tperformData = checkData\n      PUSH 40\t\t\tperformData = checkData\n      MLOAD \t\t\tperformData = checkData\n      SWAP1 \t\t\tperformData = checkData\n      DUP2 \t\t\tperformData = checkData\n      ADD \t\t\tperformData = checkData\n      PUSH 40\t\t\tperformData = checkData\n      MSTORE \t\t\tperformData = checkData\n      DUP1 \t\t\tperformData = checkData\n      SWAP4 \t\t\tperformData = checkData\n      SWAP3 \t\t\tperformData = checkData\n      SWAP2 \t\t\tperformData = checkData\n      SWAP1 \t\t\tperformData = checkData\n      DUP2 \t\t\tperformData = checkData\n      DUP2 \t\t\tperformData = checkData\n      MSTORE \t\t\tperformData = checkData\n      PUSH 20\t\t\tperformData = checkData\n      ADD \t\t\tperformData = checkData\n      DUP4 \t\t\tperformData = checkData\n      DUP4 \t\t\tperformData = checkData\n      DUP1 \t\t\tperformData = checkData\n      DUP3 \t\t\tperformData = checkData\n      DUP5 \t\t\tperformData = checkData\n      CALLDATACOPY \t\t\tperformData = checkData\n      PUSH 0\t\t\tperformData = checkData\n      SWAP3 \t\t\tperformData = checkData\n      ADD \t\t\tperformData = checkData\n      SWAP2 \t\t\tperformData = checkData\n      SWAP1 \t\t\tperformData = checkData\n      SWAP2 \t\t\tperformData = checkData\n      MSTORE \t\t\tperformData = checkData\n      POP \t\t\t\n      SWAP8 \t\t\tfunction checkUpkeep(\\n       ...\n      SWAP11 \t\t\tfunction checkUpkeep(\\n       ...\n      SWAP3 \t\t\tperformData = checkData\n      SWAP10 \t\t\tperformData = checkData\n      POP \t\t\t\n      SWAP2 \t\t\tfunction checkUpkeep(\\n       ...\n      SWAP8 \t\t\tfunction checkUpkeep(\\n       ...\n      POP \t\t\t\n      POP \t\t\t\n      POP \t\t\t\n      POP \t\t\t\n      POP \t\t\t\n      POP \t\t\t\n      POP \t\t\t\n      POP \t\t\t\n      JUMP \t\t\tfunction checkUpkeep(\\n       ...\n    tag 116\t\t\tThriftClubData public s_thrift...\n      JUMPDEST \t\t\tThriftClubData public s_thrift...\n      PUSH 0\t\t\tThriftClubData public s_thrift...\n      DUP1 \t\t\tThriftClubData public s_thrift...\n      SLOAD \t\t\tThriftClubData public s_thrift...\n      PUSH 1\t\t\tThriftClubData public s_thrift...\n      SLOAD \t\t\tThriftClubData public s_thrift...\n      PUSH 2\t\t\tThriftClubData public s_thrift...\n      SLOAD \t\t\tThriftClubData public s_thrift...\n      PUSH 3\t\t\tThriftClubData public s_thrift...\n      SLOAD \t\t\tThriftClubData public s_thrift...\n      PUSH 4\t\t\tThriftClubData public s_thrift...\n      SLOAD \t\t\tThriftClubData public s_thrift...\n      PUSH 5\t\t\tThriftClubData public s_thrift...\n      DUP1 \t\t\tThriftClubData public s_thrift...\n      SLOAD \t\t\tThriftClubData public s_thrift...\n      PUSH 1\t\t\t\n      PUSH 1\t\t\t\n      PUSH A0\t\t\t\n      SHL \t\t\t\n      SUB \t\t\t\n      SWAP1 \t\t\tThriftClubData public s_thrift...\n      SWAP7 \t\t\tThriftClubData public s_thrift...\n      AND \t\t\tThriftClubData public s_thrift...\n      SWAP7 \t\t\tThriftClubData public s_thrift...\n      SWAP5 \t\t\tThriftClubData public s_thrift...\n      SWAP6 \t\t\tThriftClubData public s_thrift...\n      SWAP4 \t\t\tThriftClubData public s_thrift...\n      SWAP5 \t\t\tThriftClubData public s_thrift...\n      SWAP3 \t\t\tThriftClubData public s_thrift...\n      SWAP4 \t\t\tThriftClubData public s_thrift...\n      SWAP2 \t\t\tThriftClubData public s_thrift...\n      SWAP3 \t\t\tThriftClubData public s_thrift...\n      SWAP2 \t\t\tThriftClubData public s_thrift...\n      PUSH [tag] 258\t\t\tThriftClubData public s_thrift...\n      SWAP1 \t\t\tThriftClubData public s_thrift...\n      PUSH [tag] 259\t\t\tThriftClubData public s_thrift...\n      JUMP \t\t\tThriftClubData public s_thrift...\n    tag 258\t\t\tThriftClubData public s_thrift...\n      JUMPDEST \t\t\tThriftClubData public s_thrift...\n      DUP1 \t\t\tThriftClubData public s_thrift...\n      PUSH 1F\t\t\tThriftClubData public s_thrift...\n      ADD \t\t\tThriftClubData public s_thrift...\n      PUSH 20\t\t\tThriftClubData public s_thrift...\n      DUP1 \t\t\tThriftClubData public s_thrift...\n      SWAP2 \t\t\tThriftClubData public s_thrift...\n      DIV \t\t\tThriftClubData public s_thrift...\n      MUL \t\t\tThriftClubData public s_thrift...\n      PUSH 20\t\t\tThriftClubData public s_thrift...\n      ADD \t\t\tThriftClubData public s_thrift...\n      PUSH 40\t\t\tThriftClubData public s_thrift...\n      MLOAD \t\t\tThriftClubData public s_thrift...\n      SWAP1 \t\t\tThriftClubData public s_thrift...\n      DUP2 \t\t\tThriftClubData public s_thrift...\n      ADD \t\t\tThriftClubData public s_thrift...\n      PUSH 40\t\t\tThriftClubData public s_thrift...\n      MSTORE \t\t\tThriftClubData public s_thrift...\n      DUP1 \t\t\tThriftClubData public s_thrift...\n      SWAP3 \t\t\tThriftClubData public s_thrift...\n      SWAP2 \t\t\tThriftClubData public s_thrift...\n      SWAP1 \t\t\tThriftClubData public s_thrift...\n      DUP2 \t\t\tThriftClubData public s_thrift...\n      DUP2 \t\t\tThriftClubData public s_thrift...\n      MSTORE \t\t\tThriftClubData public s_thrift...\n      PUSH 20\t\t\tThriftClubData public s_thrift...\n      ADD \t\t\tThriftClubData public s_thrift...\n      DUP3 \t\t\tThriftClubData public s_thrift...\n      DUP1 \t\t\tThriftClubData public s_thrift...\n      SLOAD \t\t\tThriftClubData public s_thrift...\n      PUSH [tag] 260\t\t\tThriftClubData public s_thrift...\n      SWAP1 \t\t\tThriftClubData public s_thrift...\n      PUSH [tag] 259\t\t\tThriftClubData public s_thrift...\n      JUMP \t\t\tThriftClubData public s_thrift...\n    tag 260\t\t\tThriftClubData public s_thrift...\n      JUMPDEST \t\t\tThriftClubData public s_thrift...\n      DUP1 \t\t\tThriftClubData public s_thrift...\n      ISZERO \t\t\tThriftClubData public s_thrift...\n      PUSH [tag] 261\t\t\tThriftClubData public s_thrift...\n      JUMPI \t\t\tThriftClubData public s_thrift...\n      DUP1 \t\t\tThriftClubData public s_thrift...\n      PUSH 1F\t\t\tThriftClubData public s_thrift...\n      LT \t\t\tThriftClubData public s_thrift...\n      PUSH [tag] 262\t\t\tThriftClubData public s_thrift...\n      JUMPI \t\t\tThriftClubData public s_thrift...\n      PUSH 100\t\t\tThriftClubData public s_thrift...\n      DUP1 \t\t\tThriftClubData public s_thrift...\n      DUP4 \t\t\tThriftClubData public s_thrift...\n      SLOAD \t\t\tThriftClubData public s_thrift...\n      DIV \t\t\tThriftClubData public s_thrift...\n      MUL \t\t\tThriftClubData public s_thrift...\n      DUP4 \t\t\tThriftClubData public s_thrift...\n      MSTORE \t\t\tThriftClubData public s_thrift...\n      SWAP2 \t\t\tThriftClubData public s_thrift...\n      PUSH 20\t\t\tThriftClubData public s_thrift...\n      ADD \t\t\tThriftClubData public s_thrift...\n      SWAP2 \t\t\tThriftClubData public s_thrift...\n      PUSH [tag] 261\t\t\tThriftClubData public s_thrift...\n      JUMP \t\t\tThriftClubData public s_thrift...\n    tag 262\t\t\tThriftClubData public s_thrift...\n      JUMPDEST \t\t\tThriftClubData public s_thrift...\n      DUP3 \t\t\tThriftClubData public s_thrift...\n      ADD \t\t\tThriftClubData public s_thrift...\n      SWAP2 \t\t\tThriftClubData public s_thrift...\n      SWAP1 \t\t\tThriftClubData public s_thrift...\n      PUSH 0\t\t\tThriftClubData public s_thrift...\n      MSTORE \t\t\tThriftClubData public s_thrift...\n      PUSH 20\t\t\tThriftClubData public s_thrift...\n      PUSH 0\t\t\tThriftClubData public s_thrift...\n      KECCAK256 \t\t\tThriftClubData public s_thrift...\n      SWAP1 \t\t\tThriftClubData public s_thrift...\n    tag 263\t\t\tThriftClubData public s_thrift...\n      JUMPDEST \t\t\tThriftClubData public s_thrift...\n      DUP2 \t\t\tThriftClubData public s_thrift...\n      SLOAD \t\t\tThriftClubData public s_thrift...\n      DUP2 \t\t\tThriftClubData public s_thrift...\n      MSTORE \t\t\tThriftClubData public s_thrift...\n      SWAP1 \t\t\tThriftClubData public s_thrift...\n      PUSH 1\t\t\tThriftClubData public s_thrift...\n      ADD \t\t\tThriftClubData public s_thrift...\n      SWAP1 \t\t\tThriftClubData public s_thrift...\n      PUSH 20\t\t\tThriftClubData public s_thrift...\n      ADD \t\t\tThriftClubData public s_thrift...\n      DUP1 \t\t\tThriftClubData public s_thrift...\n      DUP4 \t\t\tThriftClubData public s_thrift...\n      GT \t\t\tThriftClubData public s_thrift...\n      PUSH [tag] 263\t\t\tThriftClubData public s_thrift...\n      JUMPI \t\t\tThriftClubData public s_thrift...\n      DUP3 \t\t\tThriftClubData public s_thrift...\n      SWAP1 \t\t\tThriftClubData public s_thrift...\n      SUB \t\t\tThriftClubData public s_thrift...\n      PUSH 1F\t\t\tThriftClubData public s_thrift...\n      AND \t\t\tThriftClubData public s_thrift...\n      DUP3 \t\t\tThriftClubData public s_thrift...\n      ADD \t\t\tThriftClubData public s_thrift...\n      SWAP2 \t\t\tThriftClubData public s_thrift...\n    tag 261\t\t\tThriftClubData public s_thrift...\n      JUMPDEST \t\t\tThriftClubData public s_thrift...\n      POP \t\t\tThriftClubData public s_thrift...\n      POP \t\t\tThriftClubData public s_thrift...\n      POP \t\t\tThriftClubData public s_thrift...\n      POP \t\t\tThriftClubData public s_thrift...\n      POP \t\t\tThriftClubData public s_thrift...\n      SWAP1 \t\t\tThriftClubData public s_thrift...\n      DUP1 \t\t\tThriftClubData public s_thrift...\n      PUSH 6\t\t\tThriftClubData public s_thrift...\n      ADD \t\t\tThriftClubData public s_thrift...\n      DUP1 \t\t\tThriftClubData public s_thrift...\n      SLOAD \t\t\tThriftClubData public s_thrift...\n      PUSH [tag] 264\t\t\tThriftClubData public s_thrift...\n      SWAP1 \t\t\tThriftClubData public s_thrift...\n      PUSH [tag] 259\t\t\tThriftClubData public s_thrift...\n      JUMP \t\t\tThriftClubData public s_thrift...\n    tag 264\t\t\tThriftClubData public s_thrift...\n      JUMPDEST \t\t\tThriftClubData public s_thrift...\n      DUP1 \t\t\tThriftClubData public s_thrift...\n      PUSH 1F\t\t\tThriftClubData public s_thrift...\n      ADD \t\t\tThriftClubData public s_thrift...\n      PUSH 20\t\t\tThriftClubData public s_thrift...\n      DUP1 \t\t\tThriftClubData public s_thrift...\n      SWAP2 \t\t\tThriftClubData public s_thrift...\n      DIV \t\t\tThriftClubData public s_thrift...\n      MUL \t\t\tThriftClubData public s_thrift...\n      PUSH 20\t\t\tThriftClubData public s_thrift...\n      ADD \t\t\tThriftClubData public s_thrift...\n      PUSH 40\t\t\tThriftClubData public s_thrift...\n      MLOAD \t\t\tThriftClubData public s_thrift...\n      SWAP1 \t\t\tThriftClubData public s_thrift...\n      DUP2 \t\t\tThriftClubData public s_thrift...\n      ADD \t\t\tThriftClubData public s_thrift...\n      PUSH 40\t\t\tThriftClubData public s_thrift...\n      MSTORE \t\t\tThriftClubData public s_thrift...\n      DUP1 \t\t\tThriftClubData public s_thrift...\n      SWAP3 \t\t\tThriftClubData public s_thrift...\n      SWAP2 \t\t\tThriftClubData public s_thrift...\n      SWAP1 \t\t\tThriftClubData public s_thrift...\n      DUP2 \t\t\tThriftClubData public s_thrift...\n      DUP2 \t\t\tThriftClubData public s_thrift...\n      MSTORE \t\t\tThriftClubData public s_thrift...\n      PUSH 20\t\t\tThriftClubData public s_thrift...\n      ADD \t\t\tThriftClubData public s_thrift...\n      DUP3 \t\t\tThriftClubData public s_thrift...\n      DUP1 \t\t\tThriftClubData public s_thrift...\n      SLOAD \t\t\tThriftClubData public s_thrift...\n      PUSH [tag] 265\t\t\tThriftClubData public s_thrift...\n      SWAP1 \t\t\tThriftClubData public s_thrift...\n      PUSH [tag] 259\t\t\tThriftClubData public s_thrift...\n      JUMP \t\t\tThriftClubData public s_thrift...\n    tag 265\t\t\tThriftClubData public s_thrift...\n      JUMPDEST \t\t\tThriftClubData public s_thrift...\n      DUP1 \t\t\tThriftClubData public s_thrift...\n      ISZERO \t\t\tThriftClubData public s_thrift...\n      PUSH [tag] 266\t\t\tThriftClubData public s_thrift...\n      JUMPI \t\t\tThriftClubData public s_thrift...\n      DUP1 \t\t\tThriftClubData public s_thrift...\n      PUSH 1F\t\t\tThriftClubData public s_thrift...\n      LT \t\t\tThriftClubData public s_thrift...\n      PUSH [tag] 267\t\t\tThriftClubData public s_thrift...\n      JUMPI \t\t\tThriftClubData public s_thrift...\n      PUSH 100\t\t\tThriftClubData public s_thrift...\n      DUP1 \t\t\tThriftClubData public s_thrift...\n      DUP4 \t\t\tThriftClubData public s_thrift...\n      SLOAD \t\t\tThriftClubData public s_thrift...\n      DIV \t\t\tThriftClubData public s_thrift...\n      MUL \t\t\tThriftClubData public s_thrift...\n      DUP4 \t\t\tThriftClubData public s_thrift...\n      MSTORE \t\t\tThriftClubData public s_thrift...\n      SWAP2 \t\t\tThriftClubData public s_thrift...\n      PUSH 20\t\t\tThriftClubData public s_thrift...\n      ADD \t\t\tThriftClubData public s_thrift...\n      SWAP2 \t\t\tThriftClubData public s_thrift...\n      PUSH [tag] 266\t\t\tThriftClubData public s_thrift...\n      JUMP \t\t\tThriftClubData public s_thrift...\n    tag 267\t\t\tThriftClubData public s_thrift...\n      JUMPDEST \t\t\tThriftClubData public s_thrift...\n      DUP3 \t\t\tThriftClubData public s_thrift...\n      ADD \t\t\tThriftClubData public s_thrift...\n      SWAP2 \t\t\tThriftClubData public s_thrift...\n      SWAP1 \t\t\tThriftClubData public s_thrift...\n      PUSH 0\t\t\tThriftClubData public s_thrift...\n      MSTORE \t\t\tThriftClubData public s_thrift...\n      PUSH 20\t\t\tThriftClubData public s_thrift...\n      PUSH 0\t\t\tThriftClubData public s_thrift...\n      KECCAK256 \t\t\tThriftClubData public s_thrift...\n      SWAP1 \t\t\tThriftClubData public s_thrift...\n    tag 268\t\t\tThriftClubData public s_thrift...\n      JUMPDEST \t\t\tThriftClubData public s_thrift...\n      DUP2 \t\t\tThriftClubData public s_thrift...\n      SLOAD \t\t\tThriftClubData public s_thrift...\n      DUP2 \t\t\tThriftClubData public s_thrift...\n      MSTORE \t\t\tThriftClubData public s_thrift...\n      SWAP1 \t\t\tThriftClubData public s_thrift...\n      PUSH 1\t\t\tThriftClubData public s_thrift...\n      ADD \t\t\tThriftClubData public s_thrift...\n      SWAP1 \t\t\tThriftClubData public s_thrift...\n      PUSH 20\t\t\tThriftClubData public s_thrift...\n      ADD \t\t\tThriftClubData public s_thrift...\n      DUP1 \t\t\tThriftClubData public s_thrift...\n      DUP4 \t\t\tThriftClubData public s_thrift...\n      GT \t\t\tThriftClubData public s_thrift...\n      PUSH [tag] 268\t\t\tThriftClubData public s_thrift...\n      JUMPI \t\t\tThriftClubData public s_thrift...\n      DUP3 \t\t\tThriftClubData public s_thrift...\n      SWAP1 \t\t\tThriftClubData public s_thrift...\n      SUB \t\t\tThriftClubData public s_thrift...\n      PUSH 1F\t\t\tThriftClubData public s_thrift...\n      AND \t\t\tThriftClubData public s_thrift...\n      DUP3 \t\t\tThriftClubData public s_thrift...\n      ADD \t\t\tThriftClubData public s_thrift...\n      SWAP2 \t\t\tThriftClubData public s_thrift...\n    tag 266\t\t\tThriftClubData public s_thrift...\n      JUMPDEST \t\t\tThriftClubData public s_thrift...\n      POP \t\t\t\n      POP \t\t\t\n      POP \t\t\t\n      POP \t\t\t\n      PUSH 7\t\t\tThriftClubData public s_thrift...\n      DUP4 \t\t\tThriftClubData public s_thrift...\n      ADD \t\t\tThriftClubData public s_thrift...\n      SLOAD \t\t\tThriftClubData public s_thrift...\n      PUSH 8\t\t\tThriftClubData public s_thrift...\n      DUP5 \t\t\tThriftClubData public s_thrift...\n      ADD \t\t\tThriftClubData public s_thrift...\n      SLOAD \t\t\tThriftClubData public s_thrift...\n      PUSH 9\t\t\tThriftClubData public s_thrift...\n      SWAP1 \t\t\tThriftClubData public s_thrift...\n      SWAP5 \t\t\tThriftClubData public s_thrift...\n      ADD \t\t\tThriftClubData public s_thrift...\n      SLOAD \t\t\tThriftClubData public s_thrift...\n      SWAP3 \t\t\tThriftClubData public s_thrift...\n      SWAP4 \t\t\tThriftClubData public s_thrift...\n      PUSH 1\t\t\t\n      PUSH 1\t\t\t\n      PUSH A0\t\t\t\n      SHL \t\t\t\n      SUB \t\t\t\n      SWAP2 \t\t\tThriftClubData public s_thrift...\n      DUP3 \t\t\tThriftClubData public s_thrift...\n      AND \t\t\tThriftClubData public s_thrift...\n      SWAP4 \t\t\tThriftClubData public s_thrift...\n      SWAP2 \t\t\tThriftClubData public s_thrift...\n      DUP2 \t\t\tThriftClubData public s_thrift...\n      AND \t\t\tThriftClubData public s_thrift...\n      SWAP3 \t\t\tThriftClubData public s_thrift...\n      POP \t\t\t\n      PUSH 1\t\t\t\n      PUSH A0\t\t\t\n      SHL \t\t\t\n      SWAP1 \t\t\tThriftClubData public s_thrift...\n      DIV \t\t\tThriftClubData public s_thrift...\n      PUSH FF\t\t\tThriftClubData public s_thrift...\n      AND \t\t\tThriftClubData public s_thrift...\n      SWAP1 \t\t\tThriftClubData public s_thrift...\n      DUP12 \t\t\tThriftClubData public s_thrift...\n      JUMP \t\t\tThriftClubData public s_thrift...\n    tag 121\t\t\tfunction getThriftClubData() p...\n      JUMPDEST \t\t\tfunction getThriftClubData() p...\n      PUSH [tag] 269\t\t\tThriftClubData memory\n      PUSH [tag] 145\t\t\tThriftClubData memory\n      JUMP \t\t\tThriftClubData memory\n    tag 269\t\t\tThriftClubData memory\n      JUMPDEST \t\t\tThriftClubData memory\n      PUSH 40\t\t\tThriftClubData(\\n             ...\n      DUP1 \t\t\tThriftClubData(\\n             ...\n      MLOAD \t\t\tThriftClubData(\\n             ...\n      PUSH 160\t\t\tThriftClubData(\\n             ...\n      DUP2 \t\t\tThriftClubData(\\n             ...\n      ADD \t\t\tThriftClubData(\\n             ...\n      DUP3 \t\t\tThriftClubData(\\n             ...\n      MSTORE \t\t\tThriftClubData(\\n             ...\n      PUSH 0\t\t\t\n      SLOAD \t\t\ts_thriftClub.token\n      PUSH 1\t\t\t\n      PUSH 1\t\t\t\n      PUSH A0\t\t\t\n      SHL \t\t\t\n      SUB \t\t\t\n      AND \t\t\ts_thriftClub.token\n      DUP2 \t\t\tThriftClubData(\\n             ...\n      MSTORE \t\t\tThriftClubData(\\n             ...\n      PUSH 1\t\t\ts_thriftClub.token\n      SLOAD \t\t\ts_thriftClub.cycleDuration\n      PUSH 20\t\t\tThriftClubData(\\n             ...\n      DUP3 \t\t\tThriftClubData(\\n             ...\n      ADD \t\t\tThriftClubData(\\n             ...\n      MSTORE \t\t\tThriftClubData(\\n             ...\n      PUSH 2\t\t\ts_thriftClub.contributionAmoun...\n      SLOAD \t\t\ts_thriftClub.contributionAmoun...\n      SWAP2 \t\t\tThriftClubData(\\n             ...\n      DUP2 \t\t\tThriftClubData(\\n             ...\n      ADD \t\t\tThriftClubData(\\n             ...\n      SWAP2 \t\t\tThriftClubData(\\n             ...\n      SWAP1 \t\t\tThriftClubData(\\n             ...\n      SWAP2 \t\t\tThriftClubData(\\n             ...\n      MSTORE \t\t\tThriftClubData(\\n             ...\n      PUSH 3\t\t\ts_thriftClub.penalty\n      SLOAD \t\t\ts_thriftClub.penalty\n      PUSH 60\t\t\tThriftClubData(\\n             ...\n      DUP3 \t\t\tThriftClubData(\\n             ...\n      ADD \t\t\tThriftClubData(\\n             ...\n      MSTORE \t\t\tThriftClubData(\\n             ...\n      PUSH 4\t\t\ts_thriftClub.maxParticipant\n      SLOAD \t\t\ts_thriftClub.maxParticipant\n      PUSH 80\t\t\tThriftClubData(\\n             ...\n      DUP3 \t\t\tThriftClubData(\\n             ...\n      ADD \t\t\tThriftClubData(\\n             ...\n      MSTORE \t\t\tThriftClubData(\\n             ...\n      PUSH 5\t\t\ts_thriftClub.name\n      DUP1 \t\t\tThriftClubData(\\n             ...\n      SLOAD \t\t\tThriftClubData(\\n             ...\n      PUSH A0\t\t\tThriftClubData(\\n             ...\n      DUP4 \t\t\tThriftClubData(\\n             ...\n      ADD \t\t\tThriftClubData(\\n             ...\n      SWAP2 \t\t\tThriftClubData(\\n             ...\n      SWAP1 \t\t\ts_thriftClub.name\n      PUSH [tag] 271\t\t\tThriftClubData(\\n             ...\n      SWAP1 \t\t\tThriftClubData(\\n             ...\n      PUSH [tag] 259\t\t\tThriftClubData(\\n             ...\n      JUMP \t\t\tThriftClubData(\\n             ...\n    tag 271\t\t\tThriftClubData(\\n             ...\n      JUMPDEST \t\t\tThriftClubData(\\n             ...\n      DUP1 \t\t\tThriftClubData(\\n             ...\n      PUSH 1F\t\t\tThriftClubData(\\n             ...\n      ADD \t\t\tThriftClubData(\\n             ...\n      PUSH 20\t\t\tThriftClubData(\\n             ...\n      DUP1 \t\t\tThriftClubData(\\n             ...\n      SWAP2 \t\t\tThriftClubData(\\n             ...\n      DIV \t\t\tThriftClubData(\\n             ...\n      MUL \t\t\tThriftClubData(\\n             ...\n      PUSH 20\t\t\tThriftClubData(\\n             ...\n      ADD \t\t\tThriftClubData(\\n             ...\n      PUSH 40\t\t\tThriftClubData(\\n             ...\n      MLOAD \t\t\tThriftClubData(\\n             ...\n      SWAP1 \t\t\tThriftClubData(\\n             ...\n      DUP2 \t\t\tThriftClubData(\\n             ...\n      ADD \t\t\tThriftClubData(\\n             ...\n      PUSH 40\t\t\tThriftClubData(\\n             ...\n      MSTORE \t\t\tThriftClubData(\\n             ...\n      DUP1 \t\t\tThriftClubData(\\n             ...\n      SWAP3 \t\t\tThriftClubData(\\n             ...\n      SWAP2 \t\t\tThriftClubData(\\n             ...\n      SWAP1 \t\t\tThriftClubData(\\n             ...\n      DUP2 \t\t\tThriftClubData(\\n             ...\n      DUP2 \t\t\tThriftClubData(\\n             ...\n      MSTORE \t\t\tThriftClubData(\\n             ...\n      PUSH 20\t\t\tThriftClubData(\\n             ...\n      ADD \t\t\tThriftClubData(\\n             ...\n      DUP3 \t\t\tThriftClubData(\\n             ...\n      DUP1 \t\t\tThriftClubData(\\n             ...\n      SLOAD \t\t\tThriftClubData(\\n             ...\n      PUSH [tag] 272\t\t\tThriftClubData(\\n             ...\n      SWAP1 \t\t\tThriftClubData(\\n             ...\n      PUSH [tag] 259\t\t\tThriftClubData(\\n             ...\n      JUMP \t\t\tThriftClubData(\\n             ...\n    tag 272\t\t\tThriftClubData(\\n             ...\n      JUMPDEST \t\t\tThriftClubData(\\n             ...\n      DUP1 \t\t\tThriftClubData(\\n             ...\n      ISZERO \t\t\tThriftClubData(\\n             ...\n      PUSH [tag] 273\t\t\tThriftClubData(\\n             ...\n      JUMPI \t\t\tThriftClubData(\\n             ...\n      DUP1 \t\t\tThriftClubData(\\n             ...\n      PUSH 1F\t\t\tThriftClubData(\\n             ...\n      LT \t\t\tThriftClubData(\\n             ...\n      PUSH [tag] 274\t\t\tThriftClubData(\\n             ...\n      JUMPI \t\t\tThriftClubData(\\n             ...\n      PUSH 100\t\t\tThriftClubData(\\n             ...\n      DUP1 \t\t\tThriftClubData(\\n             ...\n      DUP4 \t\t\tThriftClubData(\\n             ...\n      SLOAD \t\t\tThriftClubData(\\n             ...\n      DIV \t\t\tThriftClubData(\\n             ...\n      MUL \t\t\tThriftClubData(\\n             ...\n      DUP4 \t\t\tThriftClubData(\\n             ...\n      MSTORE \t\t\tThriftClubData(\\n             ...\n      SWAP2 \t\t\tThriftClubData(\\n             ...\n      PUSH 20\t\t\tThriftClubData(\\n             ...\n      ADD \t\t\tThriftClubData(\\n             ...\n      SWAP2 \t\t\tThriftClubData(\\n             ...\n      PUSH [tag] 273\t\t\tThriftClubData(\\n             ...\n      JUMP \t\t\tThriftClubData(\\n             ...\n    tag 274\t\t\tThriftClubData(\\n             ...\n      JUMPDEST \t\t\tThriftClubData(\\n             ...\n      DUP3 \t\t\tThriftClubData(\\n             ...\n      ADD \t\t\tThriftClubData(\\n             ...\n      SWAP2 \t\t\tThriftClubData(\\n             ...\n      SWAP1 \t\t\tThriftClubData(\\n             ...\n      PUSH 0\t\t\tThriftClubData(\\n             ...\n      MSTORE \t\t\tThriftClubData(\\n             ...\n      PUSH 20\t\t\tThriftClubData(\\n             ...\n      PUSH 0\t\t\tThriftClubData(\\n             ...\n      KECCAK256 \t\t\tThriftClubData(\\n             ...\n      SWAP1 \t\t\tThriftClubData(\\n             ...\n    tag 275\t\t\tThriftClubData(\\n             ...\n      JUMPDEST \t\t\tThriftClubData(\\n             ...\n      DUP2 \t\t\tThriftClubData(\\n             ...\n      SLOAD \t\t\tThriftClubData(\\n             ...\n      DUP2 \t\t\tThriftClubData(\\n             ...\n      MSTORE \t\t\tThriftClubData(\\n             ...\n      SWAP1 \t\t\tThriftClubData(\\n             ...\n      PUSH 1\t\t\tThriftClubData(\\n             ...\n      ADD \t\t\tThriftClubData(\\n             ...\n      SWAP1 \t\t\tThriftClubData(\\n             ...\n      PUSH 20\t\t\tThriftClubData(\\n             ...\n      ADD \t\t\tThriftClubData(\\n             ...\n      DUP1 \t\t\tThriftClubData(\\n             ...\n      DUP4 \t\t\tThriftClubData(\\n             ...\n      GT \t\t\tThriftClubData(\\n             ...\n      PUSH [tag] 275\t\t\tThriftClubData(\\n             ...\n      JUMPI \t\t\tThriftClubData(\\n             ...\n      DUP3 \t\t\tThriftClubData(\\n             ...\n      SWAP1 \t\t\tThriftClubData(\\n             ...\n      SUB \t\t\tThriftClubData(\\n             ...\n      PUSH 1F\t\t\tThriftClubData(\\n             ...\n      AND \t\t\tThriftClubData(\\n             ...\n      DUP3 \t\t\tThriftClubData(\\n             ...\n      ADD \t\t\tThriftClubData(\\n             ...\n      SWAP2 \t\t\tThriftClubData(\\n             ...\n    tag 273\t\t\tThriftClubData(\\n             ...\n      JUMPDEST \t\t\tThriftClubData(\\n             ...\n      POP \t\t\tThriftClubData(\\n             ...\n      POP \t\t\tThriftClubData(\\n             ...\n      POP \t\t\tThriftClubData(\\n             ...\n      POP \t\t\tThriftClubData(\\n             ...\n      POP \t\t\tThriftClubData(\\n             ...\n      DUP2 \t\t\tThriftClubData(\\n             ...\n      MSTORE \t\t\tThriftClubData(\\n             ...\n      PUSH 20\t\t\tThriftClubData(\\n             ...\n      ADD \t\t\tThriftClubData(\\n             ...\n      PUSH 0\t\t\ts_thriftClub\n      PUSH 6\t\t\ts_thriftClub.description\n      ADD \t\t\ts_thriftClub.description\n      DUP1 \t\t\tThriftClubData(\\n             ...\n      SLOAD \t\t\tThriftClubData(\\n             ...\n      PUSH [tag] 276\t\t\tThriftClubData(\\n             ...\n      SWAP1 \t\t\tThriftClubData(\\n             ...\n      PUSH [tag] 259\t\t\tThriftClubData(\\n             ...\n      JUMP \t\t\tThriftClubData(\\n             ...\n    tag 276\t\t\tThriftClubData(\\n             ...\n      JUMPDEST \t\t\tThriftClubData(\\n             ...\n      DUP1 \t\t\tThriftClubData(\\n             ...\n      PUSH 1F\t\t\tThriftClubData(\\n             ...\n      ADD \t\t\tThriftClubData(\\n             ...\n      PUSH 20\t\t\tThriftClubData(\\n             ...\n      DUP1 \t\t\tThriftClubData(\\n             ...\n      SWAP2 \t\t\tThriftClubData(\\n             ...\n      DIV \t\t\tThriftClubData(\\n             ...\n      MUL \t\t\tThriftClubData(\\n             ...\n      PUSH 20\t\t\tThriftClubData(\\n             ...\n      ADD \t\t\tThriftClubData(\\n             ...\n      PUSH 40\t\t\tThriftClubData(\\n             ...\n      MLOAD \t\t\tThriftClubData(\\n             ...\n      SWAP1 \t\t\tThriftClubData(\\n             ...\n      DUP2 \t\t\tThriftClubData(\\n             ...\n      ADD \t\t\tThriftClubData(\\n             ...\n      PUSH 40\t\t\tThriftClubData(\\n             ...\n      MSTORE \t\t\tThriftClubData(\\n             ...\n      DUP1 \t\t\tThriftClubData(\\n             ...\n      SWAP3 \t\t\tThriftClubData(\\n             ...\n      SWAP2 \t\t\tThriftClubData(\\n             ...\n      SWAP1 \t\t\tThriftClubData(\\n             ...\n      DUP2 \t\t\tThriftClubData(\\n             ...\n      DUP2 \t\t\tThriftClubData(\\n             ...\n      MSTORE \t\t\tThriftClubData(\\n             ...\n      PUSH 20\t\t\tThriftClubData(\\n             ...\n      ADD \t\t\tThriftClubData(\\n             ...\n      DUP3 \t\t\tThriftClubData(\\n             ...\n      DUP1 \t\t\tThriftClubData(\\n             ...\n      SLOAD \t\t\tThriftClubData(\\n             ...\n      PUSH [tag] 277\t\t\tThriftClubData(\\n             ...\n      SWAP1 \t\t\tThriftClubData(\\n             ...\n      PUSH [tag] 259\t\t\tThriftClubData(\\n             ...\n      JUMP \t\t\tThriftClubData(\\n             ...\n    tag 277\t\t\tThriftClubData(\\n             ...\n      JUMPDEST \t\t\tThriftClubData(\\n             ...\n      DUP1 \t\t\tThriftClubData(\\n             ...\n      ISZERO \t\t\tThriftClubData(\\n             ...\n      PUSH [tag] 278\t\t\tThriftClubData(\\n             ...\n      JUMPI \t\t\tThriftClubData(\\n             ...\n      DUP1 \t\t\tThriftClubData(\\n             ...\n      PUSH 1F\t\t\tThriftClubData(\\n             ...\n      LT \t\t\tThriftClubData(\\n             ...\n      PUSH [tag] 279\t\t\tThriftClubData(\\n             ...\n      JUMPI \t\t\tThriftClubData(\\n             ...\n      PUSH 100\t\t\tThriftClubData(\\n             ...\n      DUP1 \t\t\tThriftClubData(\\n             ...\n      DUP4 \t\t\tThriftClubData(\\n             ...\n      SLOAD \t\t\tThriftClubData(\\n             ...\n      DIV \t\t\tThriftClubData(\\n             ...\n      MUL \t\t\tThriftClubData(\\n             ...\n      DUP4 \t\t\tThriftClubData(\\n             ...\n      MSTORE \t\t\tThriftClubData(\\n             ...\n      SWAP2 \t\t\tThriftClubData(\\n             ...\n      PUSH 20\t\t\tThriftClubData(\\n             ...\n      ADD \t\t\tThriftClubData(\\n             ...\n      SWAP2 \t\t\tThriftClubData(\\n             ...\n      PUSH [tag] 278\t\t\tThriftClubData(\\n             ...\n      JUMP \t\t\tThriftClubData(\\n             ...\n    tag 279\t\t\tThriftClubData(\\n             ...\n      JUMPDEST \t\t\tThriftClubData(\\n             ...\n      DUP3 \t\t\tThriftClubData(\\n             ...\n      ADD \t\t\tThriftClubData(\\n             ...\n      SWAP2 \t\t\tThriftClubData(\\n             ...\n      SWAP1 \t\t\tThriftClubData(\\n             ...\n      PUSH 0\t\t\tThriftClubData(\\n             ...\n      MSTORE \t\t\tThriftClubData(\\n             ...\n      PUSH 20\t\t\tThriftClubData(\\n             ...\n      PUSH 0\t\t\tThriftClubData(\\n             ...\n      KECCAK256 \t\t\tThriftClubData(\\n             ...\n      SWAP1 \t\t\tThriftClubData(\\n             ...\n    tag 280\t\t\tThriftClubData(\\n             ...\n      JUMPDEST \t\t\tThriftClubData(\\n             ...\n      DUP2 \t\t\tThriftClubData(\\n             ...\n      SLOAD \t\t\tThriftClubData(\\n             ...\n      DUP2 \t\t\tThriftClubData(\\n             ...\n      MSTORE \t\t\tThriftClubData(\\n             ...\n      SWAP1 \t\t\tThriftClubData(\\n             ...\n      PUSH 1\t\t\tThriftClubData(\\n             ...\n      ADD \t\t\tThriftClubData(\\n             ...\n      SWAP1 \t\t\tThriftClubData(\\n             ...\n      PUSH 20\t\t\tThriftClubData(\\n             ...\n      ADD \t\t\tThriftClubData(\\n             ...\n      DUP1 \t\t\tThriftClubData(\\n             ...\n      DUP4 \t\t\tThriftClubData(\\n             ...\n      GT \t\t\tThriftClubData(\\n             ...\n      PUSH [tag] 280\t\t\tThriftClubData(\\n             ...\n      JUMPI \t\t\tThriftClubData(\\n             ...\n      DUP3 \t\t\tThriftClubData(\\n             ...\n      SWAP1 \t\t\tThriftClubData(\\n             ...\n      SUB \t\t\tThriftClubData(\\n             ...\n      PUSH 1F\t\t\tThriftClubData(\\n             ...\n      AND \t\t\tThriftClubData(\\n             ...\n      DUP3 \t\t\tThriftClubData(\\n             ...\n      ADD \t\t\tThriftClubData(\\n             ...\n      SWAP2 \t\t\tThriftClubData(\\n             ...\n    tag 278\t\t\tThriftClubData(\\n             ...\n      JUMPDEST \t\t\tThriftClubData(\\n             ...\n      POP \t\t\t\n      POP \t\t\t\n      POP \t\t\t\n      SWAP2 \t\t\tThriftClubData(\\n             ...\n      DUP4 \t\t\tThriftClubData(\\n             ...\n      MSTORE \t\t\tThriftClubData(\\n             ...\n      POP \t\t\t\n      POP \t\t\t\n      PUSH 7\t\t\ts_thriftClub.nftContract\n      SLOAD \t\t\ts_thriftClub.nftContract\n      PUSH 1\t\t\t\n      PUSH 1\t\t\t\n      PUSH A0\t\t\t\n      SHL \t\t\t\n      SUB \t\t\t\n      SWAP1 \t\t\ts_thriftClub.nftContract\n      DUP2 \t\t\ts_thriftClub.nftContract\n      AND \t\t\ts_thriftClub.nftContract\n      PUSH 20\t\t\tThriftClubData(\\n             ...\n      DUP4 \t\t\tThriftClubData(\\n             ...\n      ADD \t\t\tThriftClubData(\\n             ...\n      MSTORE \t\t\tThriftClubData(\\n             ...\n      PUSH 8\t\t\ts_thriftClub.daoContract\n      SLOAD \t\t\ts_thriftClub.daoContract\n      SWAP1 \t\t\ts_thriftClub.daoContract\n      DUP2 \t\t\ts_thriftClub.daoContract\n      AND \t\t\ts_thriftClub.daoContract\n      PUSH 40\t\t\tThriftClubData(\\n             ...\n      DUP4 \t\t\tThriftClubData(\\n             ...\n      ADD \t\t\tThriftClubData(\\n             ...\n      MSTORE \t\t\tThriftClubData(\\n             ...\n      PUSH 60\t\t\tThriftClubData(\\n             ...\n      SWAP1 \t\t\tThriftClubData(\\n             ...\n      SWAP2 \t\t\tThriftClubData(\\n             ...\n      ADD \t\t\tThriftClubData(\\n             ...\n      SWAP1 \t\t\tThriftClubData(\\n             ...\n      PUSH 1\t\t\t\n      PUSH A0\t\t\t\n      SHL \t\t\t\n      SWAP1 \t\t\ts_thriftClub.t_state\n      DIV \t\t\ts_thriftClub.t_state\n      PUSH FF\t\t\ts_thriftClub.t_state\n      AND \t\t\ts_thriftClub.t_state\n      PUSH 3\t\t\tThriftClubData(\\n             ...\n      DUP2 \t\t\tThriftClubData(\\n             ...\n      GT \t\t\tThriftClubData(\\n             ...\n      ISZERO \t\t\tThriftClubData(\\n             ...\n      PUSH [tag] 282\t\t\tThriftClubData(\\n             ...\n      JUMPI \t\t\tThriftClubData(\\n             ...\n      PUSH [tag] 282\t\t\tThriftClubData(\\n             ...\n      PUSH [tag] 204\t\t\tThriftClubData(\\n             ...\n      JUMP \t\t\tThriftClubData(\\n             ...\n    tag 282\t\t\tThriftClubData(\\n             ...\n      JUMPDEST \t\t\tThriftClubData(\\n             ...\n      DUP2 \t\t\tThriftClubData(\\n             ...\n      MSTORE \t\t\tThriftClubData(\\n             ...\n      PUSH 9\t\t\ts_thriftClub.lastUpdateTimesta...\n      SLOAD \t\t\ts_thriftClub.lastUpdateTimesta...\n      PUSH 20\t\t\tThriftClubData(\\n             ...\n      SWAP1 \t\t\tThriftClubData(\\n             ...\n      SWAP2 \t\t\tThriftClubData(\\n             ...\n      ADD \t\t\tThriftClubData(\\n             ...\n      MSTORE \t\t\tThriftClubData(\\n             ...\n      SWAP2 \t\t\treturn\\n            ThriftClub...\n      SWAP1 \t\t\tfunction getThriftClubData() p...\n      POP \t\t\t\n      JUMP \t\t\tfunction getThriftClubData() p...\n    tag 140\t\t\tuint256[] public s_randomWords\n      JUMPDEST \t\t\tuint256[] public s_randomWords\n      PUSH 11\t\t\tuint256[] public s_randomWords\n      DUP2 \t\t\tuint256[] public s_randomWords\n      DUP2 \t\t\tuint256[] public s_randomWords\n      SLOAD \t\t\tuint256[] public s_randomWords\n      DUP2 \t\t\tuint256[] public s_randomWords\n      LT \t\t\tuint256[] public s_randomWords\n      PUSH [tag] 284\t\t\tuint256[] public s_randomWords\n      JUMPI \t\t\tuint256[] public s_randomWords\n      PUSH 0\t\t\tuint256[] public s_randomWords\n      DUP1 \t\t\tuint256[] public s_randomWords\n      REVERT \t\t\tuint256[] public s_randomWords\n    tag 284\t\t\tuint256[] public s_randomWords\n      JUMPDEST \t\t\tuint256[] public s_randomWords\n      PUSH 0\t\t\tuint256[] public s_randomWords\n      SWAP2 \t\t\tuint256[] public s_randomWords\n      DUP3 \t\t\tuint256[] public s_randomWords\n      MSTORE \t\t\tuint256[] public s_randomWords\n      PUSH 20\t\t\tuint256[] public s_randomWords\n      SWAP1 \t\t\tuint256[] public s_randomWords\n      SWAP2 \t\t\tuint256[] public s_randomWords\n      KECCAK256 \t\t\tuint256[] public s_randomWords\n      ADD \t\t\tuint256[] public s_randomWords\n      SLOAD \t\t\tuint256[] public s_randomWords\n      SWAP1 \t\t\tuint256[] public s_randomWords\n      POP \t\t\t\n      DUP2 \t\t\tuint256[] public s_randomWords\n      JUMP \t\t\tuint256[] public s_randomWords\n    tag 167\t\t\tol\";\\nimport \"@chainlink/contr...\n      JUMPDEST \t\t\tol\";\\nimport \"@chainlink/contr...\n      PUSH 0\t\t\tort \"./\n      DUP1 \t\t\ter.sol\";\\nimport \".\n      PUSH [tag] 288\t\t\tOContract.sol\";\\n// \n      DUP4 \t\t\t.sol\";\\n//\n      PUSH [tag] 289\t\t\tOContrac\n      JUMP \t\t\tOContract.sol\";\\n// \n    tag 288\t\t\tOContract.sol\";\\n// \n      JUMPDEST \t\t\tOContract.sol\";\\n// \n      SWAP1 \t\t\ter.sol\";\\nimport \"./DAOContrac...\n      POP \t\t\t\n      PUSH 0\t\t\tChainlinkContract.sol\";\\n\n      PUSH DE0B6B3A7640000\t\t\trt \"\n      PUSH [tag] 290\t\t\trt \"./NFTContract.sol\";\\n\n      DUP4 \t\t\ter.sol\";\\nimport \"./DAOContrac...\n      DUP8 \t\t\trt \"./NFTCo\n      PUSH [tag] 291\t\t\trt \"./NFTContract.sol\";\\n\n      JUMP \t\t\trt \"./NFTContract.sol\";\\n\n    tag 290\t\t\trt \"./NFTContract.sol\";\\n\n      JUMPDEST \t\t\trt \"./NFTContract.sol\";\\n\n      PUSH [tag] 292\t\t\tort \"./NFTContract.sol\";\\nimpo...\n      SWAP2 \t\t\tort \"./NFTContract.sol\";\\nimpo...\n      SWAP1 \t\t\tort \"./NFTContract.sol\";\\nimpo...\n      PUSH [tag] 164\t\t\tort \"./NFTContract.sol\";\\nimpo...\n      JUMP \t\t\tort \"./NFTContract.sol\";\\nimpo...\n    tag 292\t\t\tort \"./NFTContract.sol\";\\nimpo...\n      JUMPDEST \t\t\tort \"./NFTContract.sol\";\\nimpo...\n      SWAP3 \t\t\tChainlinkContract.sol\";\\nimpor...\n      POP \t\t\t\n      POP \t\t\t\n      POP \t\t\t\n    tag 287\t\t\tol\";\\nimport \"@chainlink/contr...\n      JUMPDEST \t\t\tol\";\\nimport \"@chainlink/contr...\n      SWAP3 \t\t\tol\";\\nimport \"@chainlink/contr...\n      SWAP2 \t\t\tol\";\\nimport \"@chainlink/contr...\n      POP \t\t\tol\";\\nimport \"@chainlink/contr...\n      POP \t\t\tol\";\\nimport \"@chainlink/contr...\n      JUMP \t\t\tol\";\\nimport \"@chainlink/contr...\n    tag 212\t\t\tfunction fulfillRandomWords(\\n...\n      JUMPDEST \t\t\tfunction fulfillRandomWords(\\n...\n      DUP1 \t\t\ts_randomWords = randomWords\n      MLOAD \t\t\ts_randomWords = randomWords\n      PUSH [tag] 294\t\t\ts_randomWords = randomWords\n      SWAP1 \t\t\ts_randomWords = randomWords\n      PUSH 11\t\t\ts_randomWords\n      SWAP1 \t\t\ts_randomWords\n      PUSH 20\t\t\ts_randomWords = randomWords\n      DUP5 \t\t\ts_randomWords = randomWords\n      ADD \t\t\ts_randomWords = randomWords\n      SWAP1 \t\t\ts_randomWords = randomWords\n      PUSH [tag] 295\t\t\ts_randomWords = randomWords\n      JUMP \t\t\ts_randomWords = randomWords\n    tag 294\t\t\ts_randomWords = randomWords\n      JUMPDEST \t\t\ts_randomWords = randomWords\n      POP \t\t\ts_randomWords = randomWords\n      PUSH 0\t\t\tuint256 winnerIndex\n      PUSH 17\t\t\tparticipants\n      DUP1 \t\t\tparticipants.length\n      SLOAD \t\t\tparticipants.length\n      SWAP1 \t\t\tparticipants.length\n      POP \t\t\tparticipants.length\n      PUSH 11\t\t\ts_randomWords\n      PUSH 0\t\t\t0\n      DUP2 \t\t\ts_randomWords[0]\n      SLOAD \t\t\ts_randomWords[0]\n      DUP2 \t\t\ts_randomWords[0]\n      LT \t\t\ts_randomWords[0]\n      PUSH [tag] 297\t\t\ts_randomWords[0]\n      JUMPI \t\t\ts_randomWords[0]\n      PUSH [tag] 297\t\t\ts_randomWords[0]\n      PUSH [tag] 298\t\t\ts_randomWords[0]\n      JUMP \t\t\ts_randomWords[0]\n    tag 297\t\t\ts_randomWords[0]\n      JUMPDEST \t\t\ts_randomWords[0]\n      SWAP1 \t\t\ts_randomWords[0]\n      PUSH 0\t\t\ts_randomWords[0]\n      MSTORE \t\t\ts_randomWords[0]\n      PUSH 20\t\t\ts_randomWords[0]\n      PUSH 0\t\t\ts_randomWords[0]\n      KECCAK256 \t\t\ts_randomWords[0]\n      ADD \t\t\ts_randomWords[0]\n      SLOAD \t\t\ts_randomWords[0]\n      PUSH [tag] 300\t\t\ts_randomWords[0] % participant...\n      SWAP2 \t\t\ts_randomWords[0] % participant...\n      SWAP1 \t\t\ts_randomWords[0] % participant...\n      PUSH [tag] 301\t\t\ts_randomWords[0] % participant...\n      JUMP \t\t\ts_randomWords[0] % participant...\n    tag 300\t\t\ts_randomWords[0] % participant...\n      JUMPDEST \t\t\ts_randomWords[0] % participant...\n      SWAP1 \t\t\tuint256 winnerIndex = s_random...\n      POP \t\t\tuint256 winnerIndex = s_random...\n      PUSH 0\t\t\taddress winner\n      PUSH 17\t\t\tparticipants\n      DUP3 \t\t\twinnerIndex\n      DUP2 \t\t\tparticipants[winnerIndex]\n      SLOAD \t\t\tparticipants[winnerIndex]\n      DUP2 \t\t\tparticipants[winnerIndex]\n      LT \t\t\tparticipants[winnerIndex]\n      PUSH [tag] 303\t\t\tparticipants[winnerIndex]\n      JUMPI \t\t\tparticipants[winnerIndex]\n      PUSH [tag] 303\t\t\tparticipants[winnerIndex]\n      PUSH [tag] 298\t\t\tparticipants[winnerIndex]\n      JUMP \t\t\tparticipants[winnerIndex]\n    tag 303\t\t\tparticipants[winnerIndex]\n      JUMPDEST \t\t\tparticipants[winnerIndex]\n      PUSH 0\t\t\tparticipants[winnerIndex]\n      SWAP2 \t\t\tparticipants[winnerIndex]\n      DUP3 \t\t\tparticipants[winnerIndex]\n      MSTORE \t\t\tparticipants[winnerIndex]\n      PUSH 20\t\t\tparticipants[winnerIndex]\n      SWAP1 \t\t\tparticipants[winnerIndex]\n      SWAP2 \t\t\tparticipants[winnerIndex]\n      KECCAK256 \t\t\tparticipants[winnerIndex]\n      ADD \t\t\tparticipants[winnerIndex]\n      SLOAD \t\t\tparticipants[winnerIndex]\n      PUSH 1C\t\t\tThriftPurseBalance\n      SLOAD \t\t\tThriftPurseBalance\n      PUSH 1\t\t\t\n      PUSH 1\t\t\t\n      PUSH A0\t\t\t\n      SHL \t\t\t\n      SUB \t\t\t\n      SWAP1 \t\t\tparticipants[winnerIndex]\n      SWAP2 \t\t\tparticipants[winnerIndex]\n      AND \t\t\tparticipants[winnerIndex]\n      SWAP2 \t\t\tparticipants[winnerIndex]\n      POP \t\t\t\n      ISZERO \t\t\tThriftPurseBalance > 0\n      ISZERO \t\t\tThriftPurseBalance > 0\n      DUP1 \t\t\tThriftPurseBalance > 0\n      PUSH [tag] 305\t\t\tThriftPurseBalance > 0 ||\\n   ...\n      JUMPI \t\t\tThriftPurseBalance > 0 ||\\n   ...\n      POP \t\t\t\n      PUSH 0\t\t\t0\n      DUP1 \t\t\ts_thriftClub.token\n      SLOAD \t\t\ts_thriftClub.token\n      PUSH 1\t\t\t\n      PUSH 1\t\t\t\n      PUSH A0\t\t\t\n      SHL \t\t\t\n      SUB \t\t\t\n      AND \t\t\ts_thriftClub.token\n      DUP2 \t\t\tThriftPurseTokenBalance[s_thri...\n      MSTORE \t\t\tThriftPurseTokenBalance[s_thri...\n      PUSH 1D\t\t\tThriftPurseTokenBalance\n      PUSH 20\t\t\tThriftPurseTokenBalance[s_thri...\n      MSTORE \t\t\tThriftPurseTokenBalance[s_thri...\n      PUSH 40\t\t\tThriftPurseTokenBalance[s_thri...\n      SWAP1 \t\t\tThriftPurseTokenBalance[s_thri...\n      KECCAK256 \t\t\tThriftPurseTokenBalance[s_thri...\n      SLOAD \t\t\tThriftPurseTokenBalance[s_thri...\n      ISZERO \t\t\tThriftPurseTokenBalance[s_thri...\n      ISZERO \t\t\tThriftPurseTokenBalance[s_thri...\n    tag 305\t\t\tThriftPurseBalance > 0 ||\\n   ...\n      JUMPDEST \t\t\tThriftPurseBalance > 0 ||\\n   ...\n      PUSH [tag] 306\t\t\trequire(\\n            ThriftPu...\n      JUMPI \t\t\trequire(\\n            ThriftPu...\n      PUSH 40\t\t\trequire(\\n            ThriftPu...\n      MLOAD \t\t\trequire(\\n            ThriftPu...\n      PUSH 461BCD\t\t\t\n      PUSH E5\t\t\t\n      SHL \t\t\t\n      DUP2 \t\t\trequire(\\n            ThriftPu...\n      MSTORE \t\t\trequire(\\n            ThriftPu...\n      PUSH 20\t\t\t  \n      PUSH 4\t\t\trequire(\\n            ThriftPu...\n      DUP3 \t\t\trequire(\\n            ThriftPu...\n      ADD \t\t\trequire(\\n            ThriftPu...\n      MSTORE \t\t\tub.token] > 0,\\n      \n      PUSH 1D\t\t\t\"\\n\n      PUSH 24\t\t\te in the ThriftPur\n      DUP3 \t\t\te in the ThriftPur\n      ADD \t\t\te in the ThriftPur\n      MSTORE \t\t\t balance in the ThriftPurse\"\\n...\n      PUSH 4E6F2062616C616E636520696E20746865205468726966745075727365000000\t\t\tlance > 0) {\\n            // p...\n      PUSH 44\t\t\t   if (ThriftPurse\n      DUP3 \t\t\t   if (ThriftPurse\n      ADD \t\t\t   if (ThriftPurse\n      MSTORE \t\t\t\\n\\n        if (ThriftPurseBal...\n      PUSH 64\t\t\tfer(ThriftPurseBal\n      ADD \t\t\tfer(ThriftPurseBal\n      PUSH [tag] 147\t\t\trequire(\\n            ThriftPu...\n      JUMP \t\t\tftPurseBalance and ThriftPurse...\n    tag 306\t\t\trequire(\\n            ThriftPu...\n      JUMPDEST \t\t\trequire(\\n            ThriftPu...\n      PUSH 1C\t\t\tThriftPurseBalance\n      SLOAD \t\t\tThriftPurseBalance\n      ISZERO \t\t\tThriftPurseBalance > 0\n      PUSH [tag] 309\t\t\tif (ThriftPurseBalance > 0) {\\...\n      JUMPI \t\t\tif (ThriftPurseBalance > 0) {\\...\n      PUSH 1C\t\t\tThriftPurseBalance\n      SLOAD \t\t\tThriftPurseBalance\n      PUSH 40\t\t\tmsg.sender.call{value: ThriftP...\n      MLOAD \t\t\tmsg.sender.call{value: ThriftP...\n      PUSH 0\t\t\tbool success\n      SWAP2 \t\t\tbool success\n      CALLER \t\t\tmsg.sender\n      SWAP2 \t\t\tmsg.sender\n      DUP4 \t\t\tbool success\n      DUP2 \t\t\tmsg.sender.call{value: ThriftP...\n      DUP2 \t\t\tbool success\n      DUP2 \t\t\tmsg.sender.call{value: ThriftP...\n      DUP6 \t\t\tThriftPurseBalance\n      DUP8 \t\t\tmsg.sender\n      GAS \t\t\tmsg.sender.call{value: ThriftP...\n      CALL \t\t\tmsg.sender.call{value: ThriftP...\n      SWAP3 \t\t\tmsg.sender.call{value: ThriftP...\n      POP \t\t\tmsg.sender.call{value: ThriftP...\n      POP \t\t\tmsg.sender.call{value: ThriftP...\n      POP \t\t\tmsg.sender.call{value: ThriftP...\n      RETURNDATASIZE \t\t\tmsg.sender.call{value: ThriftP...\n      DUP1 \t\t\tmsg.sender.call{value: ThriftP...\n      PUSH 0\t\t\tmsg.sender.call{value: ThriftP...\n      DUP2 \t\t\tmsg.sender.call{value: ThriftP...\n      EQ \t\t\tmsg.sender.call{value: ThriftP...\n      PUSH [tag] 314\t\t\tmsg.sender.call{value: ThriftP...\n      JUMPI \t\t\tmsg.sender.call{value: ThriftP...\n      PUSH 40\t\t\tmsg.sender.call{value: ThriftP...\n      MLOAD \t\t\tmsg.sender.call{value: ThriftP...\n      SWAP2 \t\t\tmsg.sender.call{value: ThriftP...\n      POP \t\t\tmsg.sender.call{value: ThriftP...\n      PUSH 1F\t\t\tmsg.sender.call{value: ThriftP...\n      NOT \t\t\tmsg.sender.call{value: ThriftP...\n      PUSH 3F\t\t\tmsg.sender.call{value: ThriftP...\n      RETURNDATASIZE \t\t\tmsg.sender.call{value: ThriftP...\n      ADD \t\t\tmsg.sender.call{value: ThriftP...\n      AND \t\t\tmsg.sender.call{value: ThriftP...\n      DUP3 \t\t\tmsg.sender.call{value: ThriftP...\n      ADD \t\t\tmsg.sender.call{value: ThriftP...\n      PUSH 40\t\t\tmsg.sender.call{value: ThriftP...\n      MSTORE \t\t\tmsg.sender.call{value: ThriftP...\n      RETURNDATASIZE \t\t\tmsg.sender.call{value: ThriftP...\n      DUP3 \t\t\tmsg.sender.call{value: ThriftP...\n      MSTORE \t\t\tmsg.sender.call{value: ThriftP...\n      RETURNDATASIZE \t\t\tmsg.sender.call{value: ThriftP...\n      PUSH 0\t\t\tmsg.sender.call{value: ThriftP...\n      PUSH 20\t\t\tmsg.sender.call{value: ThriftP...\n      DUP5 \t\t\tmsg.sender.call{value: ThriftP...\n      ADD \t\t\tmsg.sender.call{value: ThriftP...\n      RETURNDATACOPY \t\t\tmsg.sender.call{value: ThriftP...\n      PUSH [tag] 313\t\t\tmsg.sender.call{value: ThriftP...\n      JUMP \t\t\tmsg.sender.call{value: ThriftP...\n    tag 314\t\t\tmsg.sender.call{value: ThriftP...\n      JUMPDEST \t\t\tmsg.sender.call{value: ThriftP...\n      PUSH 60\t\t\tmsg.sender.call{value: ThriftP...\n      SWAP2 \t\t\tmsg.sender.call{value: ThriftP...\n      POP \t\t\tmsg.sender.call{value: ThriftP...\n    tag 313\t\t\tmsg.sender.call{value: ThriftP...\n      JUMPDEST \t\t\tmsg.sender.call{value: ThriftP...\n      POP \t\t\tmsg.sender.call{value: ThriftP...\n      POP \t\t\t(bool success, ) = msg.sender....\n      SWAP1 \t\t\t(bool success, ) = msg.sender....\n      POP \t\t\t(bool success, ) = msg.sender....\n      DUP1 \t\t\tsuccess\n      PUSH [tag] 315\t\t\tif (!success) {\\n             ...\n      JUMPI \t\t\tif (!success) {\\n             ...\n      PUSH 40\t\t\t__TransferFailed()\n      MLOAD \t\t\t__TransferFailed()\n      PUSH 3BDF630F\t\t\t\n      PUSH E1\t\t\t\n      SHL \t\t\t\n      DUP2 \t\t\t__TransferFailed()\n      MSTORE \t\t\t__TransferFailed()\n      PUSH 4\t\t\t__TransferFailed()\n      ADD \t\t\t__TransferFailed()\n      PUSH 40\t\t\t__TransferFailed()\n      MLOAD \t\t\t__TransferFailed()\n      DUP1 \t\t\t__TransferFailed()\n      SWAP2 \t\t\t__TransferFailed()\n      SUB \t\t\t__TransferFailed()\n      SWAP1 \t\t\t__TransferFailed()\n      REVERT \t\t\t__TransferFailed()\n    tag 315\t\t\tif (!success) {\\n             ...\n      JUMPDEST \t\t\tif (!success) {\\n             ...\n      PUSH 1C\t\t\tThriftPurseBalance\n      SLOAD \t\t\tThriftPurseBalance\n      PUSH 40\t\t\tAddressPaid(winner, ThriftPurs...\n      DUP1 \t\t\tAddressPaid(winner, ThriftPurs...\n      MLOAD \t\t\tAddressPaid(winner, ThriftPurs...\n      PUSH 1\t\t\t\n      PUSH 1\t\t\t\n      PUSH A0\t\t\t\n      SHL \t\t\t\n      SUB \t\t\t\n      DUP6 \t\t\t  // address payable tokenAddr...\n      AND \t\t\t  // address payable tokenAddr...\n      DUP2 \t\t\tontract\\n            // addres...\n      MSTORE \t\t\tontract\\n            // addres...\n      PUSH 20\t\t\t  \n      DUP2 \t\t\ttoken;\\n           \n      ADD \t\t\ttoken;\\n           \n      SWAP3 \t\t\tftClub.token;\\n            add...\n      SWAP1 \t\t\tftClub.token;\\n            add...\n      SWAP3 \t\t\tftClub.token;\\n            add...\n      MSTORE \t\t\tftClub.token;\\n            add...\n      PUSH F2956657DB703B4160A4041A597EA008DE026AF5E167AF02F4BE706E475F6BD4\t\t\tAddressPaid(winner, ThriftPurs...\n      SWAP2 \t\t\tAddressPaid(winner, ThriftPurs...\n      ADD \t\t\ting the appropriat\n      PUSH 40\t\t\tAddressPaid(winner, ThriftPurs...\n      MLOAD \t\t\tAddressPaid(winner, ThriftPurs...\n      DUP1 \t\t\tAddressPaid(winner, ThriftPurs...\n      SWAP2 \t\t\tAddressPaid(winner, ThriftPurs...\n      SUB \t\t\tAddressPaid(winner, ThriftPurs...\n      SWAP1 \t\t\tAddressPaid(winner, ThriftPurs...\n      LOG1 \t\t\tAddressPaid(winner, ThriftPurs...\n      POP \t\t\t\n      PUSH 0\t\t\t0\n      PUSH 1C\t\t\tThriftPurseBalance\n      SSTORE \t\t\tThriftPurseBalance = 0\n      PUSH [tag] 319\t\t\tif (ThriftPurseBalance > 0) {\\...\n      JUMP \t\t\tif (ThriftPurseBalance > 0) {\\...\n    tag 309\t\t\tif (ThriftPurseBalance > 0) {\\...\n      JUMPDEST \t\t\tif (ThriftPurseBalance > 0) {\\...\n      PUSH 0\t\t\t0\n      DUP1 \t\t\ts_thriftClub.token\n      SLOAD \t\t\ts_thriftClub.token\n      PUSH 1\t\t\t\n      PUSH 1\t\t\t\n      PUSH A0\t\t\t\n      SHL \t\t\t\n      SUB \t\t\t\n      AND \t\t\ts_thriftClub.token\n      DUP2 \t\t\tThriftPurseTokenBalance[s_thri...\n      MSTORE \t\t\tThriftPurseTokenBalance[s_thri...\n      PUSH 1D\t\t\tThriftPurseTokenBalance\n      PUSH 20\t\t\tThriftPurseTokenBalance[s_thri...\n      MSTORE \t\t\tThriftPurseTokenBalance[s_thri...\n      PUSH 40\t\t\tThriftPurseTokenBalance[s_thri...\n      SWAP1 \t\t\tThriftPurseTokenBalance[s_thri...\n      KECCAK256 \t\t\tThriftPurseTokenBalance[s_thri...\n      SLOAD \t\t\tThriftPurseTokenBalance[s_thri...\n      ISZERO \t\t\tThriftPurseTokenBalance[s_thri...\n      PUSH [tag] 319\t\t\tif (ThriftPurseTokenBalance[s_...\n      JUMPI \t\t\tif (ThriftPurseTokenBalance[s_...\n      PUSH 0\t\t\taddress payable tokenAddress\n      DUP1 \t\t\ts_thriftClub.token\n      SLOAD \t\t\ts_thriftClub.token\n      PUSH 1\t\t\t\n      PUSH 1\t\t\t\n      PUSH A0\t\t\t\n      SHL \t\t\t\n      SUB \t\t\t\n      AND \t\t\ts_thriftClub.token\n      DUP1 \t\t\tThriftPurseTokenBalance[s_thri...\n      DUP3 \t\t\tThriftPurseTokenBalance[s_thri...\n      MSTORE \t\t\tThriftPurseTokenBalance[s_thri...\n      PUSH 1D\t\t\tThriftPurseTokenBalance\n      PUSH 20\t\t\tThriftPurseTokenBalance[s_thri...\n      MSTORE \t\t\tThriftPurseTokenBalance[s_thri...\n      PUSH 40\t\t\tThriftPurseTokenBalance[s_thri...\n      DUP1 \t\t\tThriftPurseTokenBalance[s_thri...\n      DUP4 \t\t\tThriftPurseTokenBalance[s_thri...\n      KECCAK256 \t\t\tThriftPurseTokenBalance[s_thri...\n      SLOAD \t\t\tThriftPurseTokenBalance[s_thri...\n      SWAP1 \t\t\tIERC20(s_thriftClub.token).tra...\n      MLOAD \t\t\tIERC20(s_thriftClub.token).tra...\n      PUSH A9059CBB\t\t\t\n      PUSH E0\t\t\t\n      SHL \t\t\t\n      DUP2 \t\t\tIERC20(s_thriftClub.token).tra...\n      MSTORE \t\t\tIERC20(s_thriftClub.token).tra...\n      CALLER \t\t\tmsg.sender\n      PUSH 4\t\t\tIERC20(s_thriftClub.token).tra...\n      DUP3 \t\t\tIERC20(s_thriftClub.token).tra...\n      ADD \t\t\tIERC20(s_thriftClub.token).tra...\n      MSTORE \t\t\tontract\\n            // addres...\n      PUSH 24\t\t\ttoken;\\n           \n      DUP2 \t\t\ttoken;\\n           \n      ADD \t\t\ttoken;\\n           \n      SWAP2 \t\t\tftClub.token;\\n            add...\n      SWAP1 \t\t\tftClub.token;\\n            add...\n      SWAP2 \t\t\tftClub.token;\\n            add...\n      MSTORE \t\t\tftClub.token;\\n            add...\n      SWAP1 \t\t\ts_thriftClub.token\n      SWAP2 \t\t\ts_thriftClub.token\n      SWAP1 \t\t\taddress payable tokenAddress\n      DUP3 \t\t\ts_thriftClub.token\n      SWAP1 \t\t\ts_thriftClub.token\n      PUSH A9059CBB\t\t\tIERC20(s_thriftClub.token).tra...\n      SWAP1 \t\t\tIERC20(s_thriftClub.token).tra...\n      PUSH 44\t\t\ting the appropriat\n      ADD \t\t\ting the appropriat\n      PUSH 20\t\t\tIERC20(s_thriftClub.token).tra...\n      PUSH 40\t\t\tIERC20(s_thriftClub.token).tra...\n      MLOAD \t\t\tIERC20(s_thriftClub.token).tra...\n      DUP1 \t\t\tIERC20(s_thriftClub.token).tra...\n      DUP4 \t\t\tIERC20(s_thriftClub.token).tra...\n      SUB \t\t\tIERC20(s_thriftClub.token).tra...\n      DUP2 \t\t\tIERC20(s_thriftClub.token).tra...\n      PUSH 0\t\t\tIERC20(s_thriftClub.token).tra...\n      DUP8 \t\t\tIERC20(s_thriftClub.token).tra...\n      GAS \t\t\tIERC20(s_thriftClub.token).tra...\n      CALL \t\t\tIERC20(s_thriftClub.token).tra...\n      ISZERO \t\t\tIERC20(s_thriftClub.token).tra...\n      DUP1 \t\t\tIERC20(s_thriftClub.token).tra...\n      ISZERO \t\t\tIERC20(s_thriftClub.token).tra...\n      PUSH [tag] 322\t\t\tIERC20(s_thriftClub.token).tra...\n      JUMPI \t\t\tIERC20(s_thriftClub.token).tra...\n      RETURNDATASIZE \t\t\tIERC20(s_thriftClub.token).tra...\n      PUSH 0\t\t\tIERC20(s_thriftClub.token).tra...\n      DUP1 \t\t\tIERC20(s_thriftClub.token).tra...\n      RETURNDATACOPY \t\t\tIERC20(s_thriftClub.token).tra...\n      RETURNDATASIZE \t\t\tIERC20(s_thriftClub.token).tra...\n      PUSH 0\t\t\tIERC20(s_thriftClub.token).tra...\n      REVERT \t\t\tIERC20(s_thriftClub.token).tra...\n    tag 322\t\t\tIERC20(s_thriftClub.token).tra...\n      JUMPDEST \t\t\tIERC20(s_thriftClub.token).tra...\n      POP \t\t\tIERC20(s_thriftClub.token).tra...\n      POP \t\t\tIERC20(s_thriftClub.token).tra...\n      POP \t\t\tIERC20(s_thriftClub.token).tra...\n      POP \t\t\tIERC20(s_thriftClub.token).tra...\n      PUSH 40\t\t\tIERC20(s_thriftClub.token).tra...\n      MLOAD \t\t\tIERC20(s_thriftClub.token).tra...\n      RETURNDATASIZE \t\t\tIERC20(s_thriftClub.token).tra...\n      PUSH 1F\t\t\tIERC20(s_thriftClub.token).tra...\n      NOT \t\t\tIERC20(s_thriftClub.token).tra...\n      PUSH 1F\t\t\tIERC20(s_thriftClub.token).tra...\n      DUP3 \t\t\tIERC20(s_thriftClub.token).tra...\n      ADD \t\t\tIERC20(s_thriftClub.token).tra...\n      AND \t\t\tIERC20(s_thriftClub.token).tra...\n      DUP3 \t\t\tIERC20(s_thriftClub.token).tra...\n      ADD \t\t\tIERC20(s_thriftClub.token).tra...\n      DUP1 \t\t\tIERC20(s_thriftClub.token).tra...\n      PUSH 40\t\t\tIERC20(s_thriftClub.token).tra...\n      MSTORE \t\t\tIERC20(s_thriftClub.token).tra...\n      POP \t\t\tIERC20(s_thriftClub.token).tra...\n      DUP2 \t\t\tIERC20(s_thriftClub.token).tra...\n      ADD \t\t\tIERC20(s_thriftClub.token).tra...\n      SWAP1 \t\t\tIERC20(s_thriftClub.token).tra...\n      PUSH [tag] 323\t\t\tIERC20(s_thriftClub.token).tra...\n      SWAP2 \t\t\tIERC20(s_thriftClub.token).tra...\n      SWAP1 \t\t\tIERC20(s_thriftClub.token).tra...\n      PUSH [tag] 195\t\t\tIERC20(s_thriftClub.token).tra...\n      JUMP \t\t\tIERC20(s_thriftClub.token).tra...\n    tag 323\t\t\tIERC20(s_thriftClub.token).tra...\n      JUMPDEST \t\t\tIERC20(s_thriftClub.token).tra...\n      SWAP1 \t\t\tbool success = IERC20(s_thrift...\n      POP \t\t\tbool success = IERC20(s_thrift...\n      DUP1 \t\t\tsuccess\n      PUSH [tag] 324\t\t\tif (!success) {\\n             ...\n      JUMPI \t\t\tif (!success) {\\n             ...\n      PUSH 40\t\t\t__TransferFailed()\n      MLOAD \t\t\t__TransferFailed()\n      PUSH 3BDF630F\t\t\t\n      PUSH E1\t\t\t\n      SHL \t\t\t\n      DUP2 \t\t\t__TransferFailed()\n      MSTORE \t\t\t__TransferFailed()\n      PUSH 4\t\t\t__TransferFailed()\n      ADD \t\t\t__TransferFailed()\n      PUSH 40\t\t\t__TransferFailed()\n      MLOAD \t\t\t__TransferFailed()\n      DUP1 \t\t\t__TransferFailed()\n      SWAP2 \t\t\t__TransferFailed()\n      SUB \t\t\t__TransferFailed()\n      SWAP1 \t\t\t__TransferFailed()\n      REVERT \t\t\t__TransferFailed()\n    tag 324\t\t\tif (!success) {\\n             ...\n      JUMPDEST \t\t\tif (!success) {\\n             ...\n      PUSH 0\t\t\tThriftPurseTokenBalance[s_thri...\n      DUP1 \t\t\ts_thriftClub.token\n      SLOAD \t\t\ts_thriftClub.token\n      PUSH 1\t\t\t\n      PUSH 1\t\t\t\n      PUSH A0\t\t\t\n      SHL \t\t\t\n      SUB \t\t\t\n      SWAP1 \t\t\ts_thriftClub.token\n      DUP2 \t\t\ts_thriftClub.token\n      AND \t\t\ts_thriftClub.token\n      DUP3 \t\t\tThriftPurseTokenBalance[s_thri...\n      MSTORE \t\t\tThriftPurseTokenBalance[s_thri...\n      PUSH 1D\t\t\tThriftPurseTokenBalance\n      PUSH 20\t\t\tThriftPurseTokenBalance[s_thri...\n      SWAP1 \t\t\tThriftPurseTokenBalance[s_thri...\n      DUP2 \t\t\tThriftPurseTokenBalance[s_thri...\n      MSTORE \t\t\tThriftPurseTokenBalance[s_thri...\n      PUSH 40\t\t\tThriftPurseTokenBalance[s_thri...\n      SWAP3 \t\t\tThriftPurseTokenBalance[s_thri...\n      DUP4 \t\t\tThriftPurseTokenBalance[s_thri...\n      SWAP1 \t\t\tThriftPurseTokenBalance[s_thri...\n      KECCAK256 \t\t\tThriftPurseTokenBalance[s_thri...\n      SLOAD \t\t\tThriftPurseTokenBalance[s_thri...\n      DUP4 \t\t\tAddressPaid(\\n                ...\n      MLOAD \t\t\tAddressPaid(\\n                ...\n      SWAP3 \t\t\t  // address payable tokenAddr...\n      DUP8 \t\t\t  // address payable tokenAddr...\n      AND \t\t\t  // address payable tokenAddr...\n      DUP4 \t\t\tontract\\n            // addres...\n      MSTORE \t\t\tontract\\n            // addres...\n      SWAP1 \t\t\ttoken;\\n           \n      DUP3 \t\t\ttoken;\\n           \n      ADD \t\t\ttoken;\\n           \n      MSTORE \t\t\tftClub.token;\\n            add...\n      PUSH F2956657DB703B4160A4041A597EA008DE026AF5E167AF02F4BE706E475F6BD4\t\t\tAddressPaid(\\n                ...\n      SWAP2 \t\t\tAddressPaid(\\n                ...\n      ADD \t\t\ting the appropriat\n      PUSH 40\t\t\tAddressPaid(\\n                ...\n      MLOAD \t\t\tAddressPaid(\\n                ...\n      DUP1 \t\t\tAddressPaid(\\n                ...\n      SWAP2 \t\t\tAddressPaid(\\n                ...\n      SUB \t\t\tAddressPaid(\\n                ...\n      SWAP1 \t\t\tAddressPaid(\\n                ...\n      LOG1 \t\t\tAddressPaid(\\n                ...\n      POP \t\t\t\n      POP \t\t\t\n      PUSH 0\t\t\t0\n      DUP1 \t\t\ts_thriftClub.token\n      SLOAD \t\t\ts_thriftClub.token\n      PUSH 1\t\t\t\n      PUSH 1\t\t\t\n      PUSH A0\t\t\t\n      SHL \t\t\t\n      SUB \t\t\t\n      AND \t\t\ts_thriftClub.token\n      DUP2 \t\t\tThriftPurseTokenBalance[s_thri...\n      MSTORE \t\t\tThriftPurseTokenBalance[s_thri...\n      PUSH 1D\t\t\tThriftPurseTokenBalance\n      PUSH 20\t\t\tThriftPurseTokenBalance[s_thri...\n      MSTORE \t\t\tThriftPurseTokenBalance[s_thri...\n      PUSH 40\t\t\tThriftPurseTokenBalance[s_thri...\n      DUP2 \t\t\tThriftPurseTokenBalance[s_thri...\n      KECCAK256 \t\t\tThriftPurseTokenBalance[s_thri...\n      SSTORE \t\t\tThriftPurseTokenBalance[s_thri...\n    tag 319\t\t\tif (ThriftPurseTokenBalance[s_...\n      JUMPDEST \t\t\tif (ThriftPurseTokenBalance[s_...\n      PUSH A\t\t\tpaidParticipants\n      DUP1 \t\t\tpaidParticipants++\n      SLOAD \t\t\tpaidParticipants++\n      SWAP1 \t\t\tpaidParticipants++\n      PUSH 0\t\t\tpaidParticipants\n      PUSH [tag] 326\t\t\tpaidParticipants++\n      DUP4 \t\t\tpaidParticipants++\n      PUSH [tag] 327\t\t\tpaidParticipants++\n      JUMP \t\t\tpaidParticipants++\n    tag 326\t\t\tpaidParticipants++\n      JUMPDEST \t\t\tpaidParticipants++\n      SWAP1 \t\t\tpaidParticipants++\n      SWAP2 \t\t\tpaidParticipants++\n      SSTORE \t\t\tpaidParticipants++\n      POP \t\t\t\n      POP \t\t\t\n      PUSH 4\t\t\ts_thriftClub.maxParticipant\n      SLOAD \t\t\ts_thriftClub.maxParticipant\n      PUSH A\t\t\tpaidParticipants\n      SLOAD \t\t\tpaidParticipants\n      SUB \t\t\tpaidParticipants == s_thriftCl...\n      PUSH [tag] 328\t\t\tif (paidParticipants == s_thri...\n      JUMPI \t\t\tif (paidParticipants == s_thri...\n      PUSH 8\t\t\ts_thriftClub.t_state\n      DUP1 \t\t\ts_thriftClub.t_state = TANDA_S...\n      SLOAD \t\t\ts_thriftClub.t_state = TANDA_S...\n      PUSH FF\t\t\t\n      PUSH A0\t\t\t\n      SHL \t\t\t\n      NOT \t\t\t\n      AND \t\t\ts_thriftClub.t_state = TANDA_S...\n      PUSH 1\t\t\t\n      PUSH A0\t\t\t\n      SHL \t\t\t\n      OR \t\t\ts_thriftClub.t_state = TANDA_S...\n      SWAP1 \t\t\ts_thriftClub.t_state = TANDA_S...\n      SSTORE \t\t\ts_thriftClub.t_state = TANDA_S...\n      PUSH [tag] 331\t\t\tif (paidParticipants == s_thri...\n      JUMP \t\t\tif (paidParticipants == s_thri...\n    tag 328\t\t\tif (paidParticipants == s_thri...\n      JUMPDEST \t\t\tif (paidParticipants == s_thri...\n      PUSH 8\t\t\ts_thriftClub.t_state\n      DUP1 \t\t\ts_thriftClub.t_state = TANDA_S...\n      SLOAD \t\t\ts_thriftClub.t_state = TANDA_S...\n      PUSH FF\t\t\t\n      PUSH A0\t\t\t\n      SHL \t\t\t\n      NOT \t\t\t\n      AND \t\t\ts_thriftClub.t_state = TANDA_S...\n      SWAP1 \t\t\ts_thriftClub.t_state = TANDA_S...\n      SSTORE \t\t\ts_thriftClub.t_state = TANDA_S...\n    tag 331\t\t\tif (paidParticipants == s_thri...\n      JUMPDEST \t\t\tif (paidParticipants == s_thri...\n      POP \t\t\t{\\n        s_randomWords = ran...\n      POP \t\t\t{\\n        s_randomWords = ran...\n      POP \t\t\tfunction fulfillRandomWords(\\n...\n      POP \t\t\tfunction fulfillRandomWords(\\n...\n      JUMP \t\t\tfunction fulfillRandomWords(\\n...\n    tag 224\t\t\tfunction requestRandomWords() ...\n      JUMPDEST \t\t\tfunction requestRandomWords() ...\n      PUSH B\t\t\tCOORDINATOR\n      SLOAD \t\t\tCOORDINATOR\n      PUSH F\t\t\tkeyHash\n      SLOAD \t\t\tkeyHash\n      PUSH 13\t\t\ts_subscriptionId\n      SLOAD \t\t\ts_subscriptionId\n      PUSH 10\t\t\trequestConfirmations\n      SLOAD \t\t\trequestConfirmations\n      PUSH 40\t\t\tCOORDINATOR.requestRandomWords...\n      MLOAD \t\t\tCOORDINATOR.requestRandomWords...\n      PUSH 5D3B1D3\t\t\t\n      PUSH E4\t\t\t\n      SHL \t\t\t\n      DUP2 \t\t\tCOORDINATOR.requestRandomWords...\n      MSTORE \t\t\tCOORDINATOR.requestRandomWords...\n      PUSH 4\t\t\trequestConfirmations\n      DUP2 \t\t\tCOORDINATOR.requestRandomWords...\n      ADD \t\t\tCOORDINATOR.requestRandomWords...\n      SWAP4 \t\t\thriftClub.token]\\n        \n      SWAP1 \t\t\thriftClub.token]\\n        \n      SWAP4 \t\t\thriftClub.token]\\n        \n      MSTORE \t\t\thriftClub.token]\\n        \n      PUSH FFFFFFFFFFFFFFFF\t\t\ts_subscriptionId\n      SWAP1 \t\t\ts_subscriptionId\n      SWAP2 \t\t\ts_subscriptionId\n      AND \t\t\ts_subscriptionId\n      PUSH 24\t\t\t   ThriftPurseToke\n      DUP4 \t\t\t   ThriftPurseToke\n      ADD \t\t\t   ThriftPurseToke\n      MSTORE \t\t\t          ThriftPurseTokenBala...\n      PUSH 100000000\t\t\trequestConfirmations\n      DUP2 \t\t\trequestConfirmations\n      DIV \t\t\trequestConfirmations\n      PUSH FFFF\t\t\trequestConfirmations\n      AND \t\t\trequestConfirmations\n      PUSH 44\t\t\t   // Increment pa\n      DUP4 \t\t\t   // Increment pa\n      ADD \t\t\t   // Increment pa\n      MSTORE \t\t\t\\n\\n        // Increment paidP...\n      PUSH FFFFFFFF\t\t\tcallbackGasLimit\n      DUP1 \t\t\tcallbackGasLimit\n      DUP3 \t\t\tcallbackGasLimit\n      AND \t\t\tcallbackGasLimit\n      PUSH 64\t\t\t the state based o\n      DUP5 \t\t\t the state based o\n      ADD \t\t\t the state based o\n      MSTORE \t\t\t Update the state based on the...\n      PUSH 1000000000000\t\t\tnumWords\n      SWAP1 \t\t\tnumWords\n      SWAP2 \t\t\tnumWords\n      DIV \t\t\tnumWords\n      AND \t\t\tnumWords\n      PUSH 84\t\t\t        if (paidPar\n      DUP3 \t\t\t        if (paidPar\n      ADD \t\t\t        if (paidPar\n      MSTORE \t\t\tipants\\n        if (paidPartic...\n      PUSH 1\t\t\t\n      PUSH 1\t\t\t\n      PUSH A0\t\t\t\n      SHL \t\t\t\n      SUB \t\t\t\n      SWAP1 \t\t\tCOORDINATOR\n      SWAP2 \t\t\tCOORDINATOR\n      AND \t\t\tCOORDINATOR\n      SWAP1 \t\t\tCOORDINATOR\n      PUSH 5D3B1D30\t\t\tCOORDINATOR.requestRandomWords\n      SWAP1 \t\t\tCOORDINATOR.requestRandomWords\n      PUSH A4\t\t\t ThriftPurseTokenBa\n      ADD \t\t\t ThriftPurseTokenBa\n      PUSH 20\t\t\tCOORDINATOR.requestRandomWords...\n      PUSH 40\t\t\tCOORDINATOR.requestRandomWords...\n      MLOAD \t\t\tCOORDINATOR.requestRandomWords...\n      DUP1 \t\t\tCOORDINATOR.requestRandomWords...\n      DUP4 \t\t\tCOORDINATOR.requestRandomWords...\n      SUB \t\t\tCOORDINATOR.requestRandomWords...\n      DUP2 \t\t\tCOORDINATOR.requestRandomWords...\n      PUSH 0\t\t\tCOORDINATOR.requestRandomWords...\n      DUP8 \t\t\tCOORDINATOR.requestRandomWords...\n      GAS \t\t\tCOORDINATOR.requestRandomWords...\n      CALL \t\t\tCOORDINATOR.requestRandomWords...\n      ISZERO \t\t\tCOORDINATOR.requestRandomWords...\n      DUP1 \t\t\tCOORDINATOR.requestRandomWords...\n      ISZERO \t\t\tCOORDINATOR.requestRandomWords...\n      PUSH [tag] 338\t\t\tCOORDINATOR.requestRandomWords...\n      JUMPI \t\t\tCOORDINATOR.requestRandomWords...\n      RETURNDATASIZE \t\t\tCOORDINATOR.requestRandomWords...\n      PUSH 0\t\t\tCOORDINATOR.requestRandomWords...\n      DUP1 \t\t\tCOORDINATOR.requestRandomWords...\n      RETURNDATACOPY \t\t\tCOORDINATOR.requestRandomWords...\n      RETURNDATASIZE \t\t\tCOORDINATOR.requestRandomWords...\n      PUSH 0\t\t\tCOORDINATOR.requestRandomWords...\n      REVERT \t\t\tCOORDINATOR.requestRandomWords...\n    tag 338\t\t\tCOORDINATOR.requestRandomWords...\n      JUMPDEST \t\t\tCOORDINATOR.requestRandomWords...\n      POP \t\t\tCOORDINATOR.requestRandomWords...\n      POP \t\t\tCOORDINATOR.requestRandomWords...\n      POP \t\t\tCOORDINATOR.requestRandomWords...\n      POP \t\t\tCOORDINATOR.requestRandomWords...\n      PUSH 40\t\t\tCOORDINATOR.requestRandomWords...\n      MLOAD \t\t\tCOORDINATOR.requestRandomWords...\n      RETURNDATASIZE \t\t\tCOORDINATOR.requestRandomWords...\n      PUSH 1F\t\t\tCOORDINATOR.requestRandomWords...\n      NOT \t\t\tCOORDINATOR.requestRandomWords...\n      PUSH 1F\t\t\tCOORDINATOR.requestRandomWords...\n      DUP3 \t\t\tCOORDINATOR.requestRandomWords...\n      ADD \t\t\tCOORDINATOR.requestRandomWords...\n      AND \t\t\tCOORDINATOR.requestRandomWords...\n      DUP3 \t\t\tCOORDINATOR.requestRandomWords...\n      ADD \t\t\tCOORDINATOR.requestRandomWords...\n      DUP1 \t\t\tCOORDINATOR.requestRandomWords...\n      PUSH 40\t\t\tCOORDINATOR.requestRandomWords...\n      MSTORE \t\t\tCOORDINATOR.requestRandomWords...\n      POP \t\t\tCOORDINATOR.requestRandomWords...\n      DUP2 \t\t\tCOORDINATOR.requestRandomWords...\n      ADD \t\t\tCOORDINATOR.requestRandomWords...\n      SWAP1 \t\t\tCOORDINATOR.requestRandomWords...\n      PUSH [tag] 339\t\t\tCOORDINATOR.requestRandomWords...\n      SWAP2 \t\t\tCOORDINATOR.requestRandomWords...\n      SWAP1 \t\t\tCOORDINATOR.requestRandomWords...\n      PUSH [tag] 340\t\t\tCOORDINATOR.requestRandomWords...\n      JUMP \t\t\tCOORDINATOR.requestRandomWords...\n    tag 339\t\t\tCOORDINATOR.requestRandomWords...\n      JUMPDEST \t\t\tCOORDINATOR.requestRandomWords...\n      PUSH 12\t\t\ts_requestId\n      SSTORE \t\t\ts_requestId = COORDINATOR.requ...\n      JUMP \t\t\tfunction requestRandomWords() ...\n    tag 289\t\t\t.sol\";\\nimport \"@openzeppelin/...\n      JUMPDEST \t\t\t.sol\";\\nimport \"@openzeppelin/...\n      PUSH 0\t\t\teppelin\n      DUP1 \t\t\tInterface.so\n      DUP3 \t\t\t \"@chainl\n      PUSH 1\t\t\t\n      PUSH 1\t\t\t\n      PUSH A0\t\t\t\n      SHL \t\t\t\n      SUB \t\t\t\n      AND \t\t\t \"@chainlink/contracts/sr\n      PUSH FEAF968C\t\t\t \"@chainlink/contracts/sr\n      PUSH 40\t\t\t \"@chainlink/contracts/src/\n      MLOAD \t\t\t \"@chainlink/contracts/src/\n      DUP2 \t\t\t \"@chainlink/contracts/src/\n      PUSH FFFFFFFF\t\t\t \"@chainlink/contracts/src/\n      AND \t\t\t \"@chainlink/contracts/src/\n      PUSH E0\t\t\t \"@chainlink/contracts/src/\n      SHL \t\t\t \"@chainlink/contracts/src/\n      DUP2 \t\t\t \"@chainlink/contracts/src/\n      MSTORE \t\t\t \"@chainlink/contracts/src/\n      PUSH 4\t\t\t \"@chainlink/contracts/src/\n      ADD \t\t\t \"@chainlink/contracts/src/\n      PUSH A0\t\t\t \"@chainlink/contracts/src/\n      PUSH 40\t\t\t \"@chainlink/contracts/src/\n      MLOAD \t\t\t \"@chainlink/contracts/src/\n      DUP1 \t\t\t \"@chainlink/contracts/src/\n      DUP4 \t\t\t \"@chainlink/contracts/src/\n      SUB \t\t\t \"@chainlink/contracts/src/\n      DUP2 \t\t\t \"@chainlink/contracts/src/\n      DUP7 \t\t\t \"@chainlink/contracts/src/\n      GAS \t\t\t \"@chainlink/contracts/src/\n      STATICCALL \t\t\t \"@chainlink/contracts/src/\n      ISZERO \t\t\t \"@chainlink/contracts/src/\n      DUP1 \t\t\t \"@chainlink/contracts/src/\n      ISZERO \t\t\t \"@chainlink/contracts/src/\n      PUSH [tag] 343\t\t\t \"@chainlink/contracts/src/\n      JUMPI \t\t\t \"@chainlink/contracts/src/\n      RETURNDATASIZE \t\t\t \"@chainlink/contracts/src/\n      PUSH 0\t\t\t \"@chainlink/contracts/src/\n      DUP1 \t\t\t \"@chainlink/contracts/src/\n      RETURNDATACOPY \t\t\t \"@chainlink/contracts/src/\n      RETURNDATASIZE \t\t\t \"@chainlink/contracts/src/\n      PUSH 0\t\t\t \"@chainlink/contracts/src/\n      REVERT \t\t\t \"@chainlink/contracts/src/\n    tag 343\t\t\t \"@chainlink/contracts/src/\n      JUMPDEST \t\t\t \"@chainlink/contracts/src/\n      POP \t\t\t \"@chainlink/contracts/src/\n      POP \t\t\t \"@chainlink/contracts/src/\n      POP \t\t\t \"@chainlink/contracts/src/\n      POP \t\t\t \"@chainlink/contracts/src/\n      PUSH 40\t\t\t \"@chainlink/contracts/src/\n      MLOAD \t\t\t \"@chainlink/contracts/src/\n      RETURNDATASIZE \t\t\t \"@chainlink/contracts/src/\n      PUSH 1F\t\t\t \"@chainlink/contracts/src/\n      NOT \t\t\t \"@chainlink/contracts/src/\n      PUSH 1F\t\t\t \"@chainlink/contracts/src/\n      DUP3 \t\t\t \"@chainlink/contracts/src/\n      ADD \t\t\t \"@chainlink/contracts/src/\n      AND \t\t\t \"@chainlink/contracts/src/\n      DUP3 \t\t\t \"@chainlink/contracts/src/\n      ADD \t\t\t \"@chainlink/contracts/src/\n      DUP1 \t\t\t \"@chainlink/contracts/src/\n      PUSH 40\t\t\t \"@chainlink/contracts/src/\n      MSTORE \t\t\t \"@chainlink/contracts/src/\n      POP \t\t\t \"@chainlink/contracts/src/\n      DUP2 \t\t\t \"@chainlink/contracts/src/\n      ADD \t\t\t \"@chainlink/contracts/src/\n      SWAP1 \t\t\t \"@chainlink/contracts/src/\n      PUSH [tag] 344\t\t\t \"@chainlink/contracts/src/\n      SWAP2 \t\t\t \"@chainlink/contracts/src/\n      SWAP1 \t\t\t \"@chainlink/contracts/src/\n      PUSH [tag] 345\t\t\t \"@chainlink/contracts/src/\n      JUMP \t\t\t \"@chainlink/contracts/src/\n    tag 344\t\t\t \"@chainlink/contracts/src/\n      JUMPDEST \t\t\t \"@chainlink/contracts/src/\n      POP \t\t\trV3Interface.sol\";\\nimport \"@c...\n      POP \t\t\trV3Interface.sol\";\\nimport \"@c...\n      POP \t\t\trV3Interface.sol\";\\nimport \"@c...\n      SWAP2 \t\t\trV3Interface.sol\";\\nimport \"@c...\n      POP \t\t\trV3Interface.sol\";\\nimport \"@c...\n      POP \t\t\trV3Interface.sol\";\\nimport \"@c...\n      DUP1 \t\t\tc/v0.\n      PUSH 2540BE400\t\t\tRFCo\n      PUSH [tag] 346\t\t\tc/v0.8/VRFCo\n      SWAP2 \t\t\tc/v0.8/VRFCo\n      SWAP1 \t\t\tc/v0.8/VRFCo\n      PUSH [tag] 347\t\t\tc/v0.8/VRFCo\n      JUMP \t\t\tc/v0.8/VRFCo\n    tag 346\t\t\tc/v0.8/VRFCo\n      JUMPDEST \t\t\tc/v0.8/VRFCo\n      SWAP4 \t\t\tnk/contracts/src/v0.8/VRFCon\n      SWAP3 \t\t\t.sol\";\\nimport \"@openzeppelin/...\n      POP \t\t\t\n      POP \t\t\t\n      POP \t\t\t\n      JUMP \t\t\t.sol\";\\nimport \"@openzeppelin/...\n    tag 145\t\t\t\n      JUMPDEST \t\t\t\n      PUSH 40\t\t\t\n      MLOAD \t\t\t\n      DUP1 \t\t\t\n      PUSH 160\t\t\t\n      ADD \t\t\t\n      PUSH 40\t\t\t\n      MSTORE \t\t\t\n      DUP1 \t\t\t\n      PUSH 0\t\t\t\n      PUSH 1\t\t\t\n      PUSH 1\t\t\t\n      PUSH A0\t\t\t\n      SHL \t\t\t\n      SUB \t\t\t\n      AND \t\t\t\n      DUP2 \t\t\t\n      MSTORE \t\t\t\n      PUSH 20\t\t\t\n      ADD \t\t\t\n      PUSH 0\t\t\t\n      DUP2 \t\t\t\n      MSTORE \t\t\t\n      PUSH 20\t\t\t\n      ADD \t\t\t\n      PUSH 0\t\t\t\n      DUP2 \t\t\t\n      MSTORE \t\t\t\n      PUSH 20\t\t\t\n      ADD \t\t\t\n      PUSH 0\t\t\t\n      DUP2 \t\t\t\n      MSTORE \t\t\t\n      PUSH 20\t\t\t\n      ADD \t\t\t\n      PUSH 0\t\t\t\n      DUP2 \t\t\t\n      MSTORE \t\t\t\n      PUSH 20\t\t\t\n      ADD \t\t\t\n      PUSH 60\t\t\t\n      DUP2 \t\t\t\n      MSTORE \t\t\t\n      PUSH 20\t\t\t\n      ADD \t\t\t\n      PUSH 60\t\t\t\n      DUP2 \t\t\t\n      MSTORE \t\t\t\n      PUSH 20\t\t\t\n      ADD \t\t\t\n      PUSH 0\t\t\t\n      PUSH 1\t\t\t\n      PUSH 1\t\t\t\n      PUSH A0\t\t\t\n      SHL \t\t\t\n      SUB \t\t\t\n      AND \t\t\t\n      DUP2 \t\t\t\n      MSTORE \t\t\t\n      PUSH 20\t\t\t\n      ADD \t\t\t\n      PUSH 0\t\t\t\n      PUSH 1\t\t\t\n      PUSH 1\t\t\t\n      PUSH A0\t\t\t\n      SHL \t\t\t\n      SUB \t\t\t\n      AND \t\t\t\n      DUP2 \t\t\t\n      MSTORE \t\t\t\n      PUSH 20\t\t\t\n      ADD \t\t\t\n      PUSH 0\t\t\t\n      PUSH 3\t\t\t\n      DUP2 \t\t\t\n      GT \t\t\t\n      ISZERO \t\t\t\n      PUSH [tag] 349\t\t\t\n      JUMPI \t\t\t\n      PUSH [tag] 349\t\t\t\n      PUSH [tag] 204\t\t\t\n      JUMP \t\t\t\n    tag 349\t\t\t\n      JUMPDEST \t\t\t\n      DUP2 \t\t\t\n      MSTORE \t\t\t\n      PUSH 20\t\t\t\n      ADD \t\t\t\n      PUSH 0\t\t\t\n      DUP2 \t\t\t\n      MSTORE \t\t\t\n      POP \t\t\t\n      SWAP1 \t\t\t\n      JUMP \t\t\t\n    tag 295\t\t\t\n      JUMPDEST \t\t\t\n      DUP3 \t\t\t\n      DUP1 \t\t\t\n      SLOAD \t\t\t\n      DUP3 \t\t\t\n      DUP3 \t\t\t\n      SSTORE \t\t\t\n      SWAP1 \t\t\t\n      PUSH 0\t\t\t\n      MSTORE \t\t\t\n      PUSH 20\t\t\t\n      PUSH 0\t\t\t\n      KECCAK256 \t\t\t\n      SWAP1 \t\t\t\n      DUP2 \t\t\t\n      ADD \t\t\t\n      SWAP3 \t\t\t\n      DUP3 \t\t\t\n      ISZERO \t\t\t\n      PUSH [tag] 352\t\t\t\n      JUMPI \t\t\t\n      SWAP2 \t\t\t\n      PUSH 20\t\t\t\n      MUL \t\t\t\n      DUP3 \t\t\t\n      ADD \t\t\t\n    tag 351\t\t\t\n      JUMPDEST \t\t\t\n      DUP3 \t\t\t\n      DUP2 \t\t\t\n      GT \t\t\t\n      ISZERO \t\t\t\n      PUSH [tag] 352\t\t\t\n      JUMPI \t\t\t\n      DUP3 \t\t\t\n      MLOAD \t\t\t\n      DUP3 \t\t\t\n      SSTORE \t\t\t\n      SWAP2 \t\t\t\n      PUSH 20\t\t\t\n      ADD \t\t\t\n      SWAP2 \t\t\t\n      SWAP1 \t\t\t\n      PUSH 1\t\t\t\n      ADD \t\t\t\n      SWAP1 \t\t\t\n      PUSH [tag] 351\t\t\t\n      JUMP \t\t\t\n    tag 352\t\t\t\n      JUMPDEST \t\t\t\n      POP \t\t\t\n      PUSH [tag] 353\t\t\t\n      SWAP3 \t\t\t\n      SWAP2 \t\t\t\n      POP \t\t\t\n      PUSH [tag] 354\t\t\t\n      JUMP \t\t\t\n    tag 353\t\t\t\n      JUMPDEST \t\t\t\n      POP \t\t\t\n      SWAP1 \t\t\t\n      JUMP \t\t\t\n    tag 354\t\t\t\n      JUMPDEST \t\t\t\n    tag 355\t\t\t\n      JUMPDEST \t\t\t\n      DUP1 \t\t\t\n      DUP3 \t\t\t\n      GT \t\t\t\n      ISZERO \t\t\t\n      PUSH [tag] 353\t\t\t\n      JUMPI \t\t\t\n      PUSH 0\t\t\t\n      DUP2 \t\t\t\n      SSTORE \t\t\t\n      PUSH 1\t\t\t\n      ADD \t\t\t\n      PUSH [tag] 355\t\t\t\n      JUMP \t\t\t\n    tag 357\t\t\te-Identifier: MIT\\npragma soli...\n      JUMPDEST \t\t\te-Identifier: MIT\\npragma soli...\n      DUP1 \t\t\ttracts/token/ERC20/E\n      CALLDATALOAD \t\t\ttracts/token/ERC20/E\n      PUSH 1\t\t\t\n      PUSH 1\t\t\t\n      PUSH A0\t\t\t\n      SHL \t\t\t\n      SUB \t\t\t\n      DUP2 \t\t\tlin/contracts/token/ERC721/IER...\n      AND \t\t\tlin/contracts/token/ERC721/IER...\n      DUP2 \t\t\t@openzeppelin/contracts/token/...\n      EQ \t\t\t@openzeppelin/contracts/token/...\n      PUSH [tag] 368\t\t\t;\\nimport \"@openzeppelin/contr...\n      JUMPI \t\t\t;\\nimport \"@openzeppelin/contr...\n      PUSH 0\t\t\tt\n      DUP1 \t\t\tp\n      REVERT \t\t\tol\";\\nimport \n    tag 368\t\t\t;\\nimport \"@openzeppelin/contr...\n      JUMPDEST \t\t\t;\\nimport \"@openzeppelin/contr...\n      SWAP2 \t\t\te-Identifier: MIT\\npragma soli...\n      SWAP1 \t\t\te-Identifier: MIT\\npragma soli...\n      POP \t\t\te-Identifier: MIT\\npragma soli...\n      JUMP \t\t\te-Identifier: MIT\\npragma soli...\n    tag 31\t\t\tn/contracts/token/ERC721/IERC7...\n      JUMPDEST \t\t\tn/contracts/token/ERC721/IERC7...\n      PUSH 0\t\t\tnzeppe\n      PUSH 20\t\t\tnl\n      DUP3 \t\t\tmport \"@c\n      DUP5 \t\t\ts.sol\";\n      SUB \t\t\tdress.sol\";\\nimport \"@ch\n      SLT \t\t\ts/Address.sol\";\\nimport \"@chai...\n      ISZERO \t\t\ttils/Address.sol\";\\nimport \"@c...\n      PUSH [tag] 370\t\t\ttils/Address.sol\";\\nimport \"@c...\n      JUMPI \t\t\ttils/Address.sol\";\\nimport \"@c...\n      PUSH 0\t\t\ts\n      DUP1 \t\t\tt\n      REVERT \t\t\tcontracts/sr\n    tag 370\t\t\ttils/Address.sol\";\\nimport \"@c...\n      JUMPDEST \t\t\ttils/Address.sol\";\\nimport \"@c...\n      PUSH [tag] 346\t\t\tregatorV3Interface.sol\";\\nimpo\n      DUP3 \t\t\tsol\";\\nimp\n      PUSH [tag] 357\t\t\tregatorV3Interface.sol\";\\nimpo\n      JUMP \t\t\tregatorV3Interface.sol\";\\nimpo\n    tag 358\t\t\tokenInterface.sol\";\\n// Import...\n      JUMPDEST \t\t\tokenInterface.sol\";\\n// Import...\n      PUSH 0\t\t\toner lib\n      DUP1 \t\t\try\\nimp\n      DUP4 \t\t\tt.s\n      PUSH 1F\t\t\tCont\n      DUP5 \t\t\tt \"./D\n      ADD \t\t\tmport \"./DAOContr\n      SLT \t\t\t\";\\nimport \"./DAOContract.so\n      PUSH [tag] 374\t\t\tverter.sol\";\\nimport \"./DAOCon...\n      JUMPI \t\t\tverter.sol\";\\nimport \"./DAOCon...\n      PUSH 0\t\t\t\"\n      DUP1 \t\t\tr\n      REVERT \t\t\t// import \".\n    tag 374\t\t\tverter.sol\";\\nimport \"./DAOCon...\n      JUMPDEST \t\t\tverter.sol\";\\nimport \"./DAOCon...\n      POP \t\t\t\n      DUP2 \t\t\tl\";\\nimport \"./NFTCon\n      CALLDATALOAD \t\t\tl\";\\nimport \"./NFTCon\n      PUSH FFFFFFFFFFFFFFFF\t\t\tDAOContract.sol\";\\n\n      DUP2 \t\t\timport \"./IDAOContract.sol\";\\n...\n      GT \t\t\timport \"./IDAOContract.sol\";\\n...\n      ISZERO \t\t\t\";\\nimport \"./IDAOContract.sol...\n      PUSH [tag] 375\t\t\t\";\\nimport \"./IDAOContract.sol...\n      JUMPI \t\t\t\";\\nimport \"./IDAOContract.sol...\n      PUSH 0\t\t\tf\n      DUP1 \t\t\ta\n      REVERT \t\t\tor __Transfe\n    tag 375\t\t\t\";\\nimport \"./IDAOContract.sol...\n      JUMPDEST \t\t\t\";\\nimport \"./IDAOContract.sol...\n      PUSH 20\t\t\tIERC\n      DUP4 \t\t\tClub i\n      ADD \t\t\triftClub is IERC7\n      SWAP2 \t\t\t\\ncontract ThriftClub is IERC7\n      POP \t\t\t\\ncontract ThriftClub is IERC7\n      DUP4 \t\t\tSTA\n      PUSH 20\t\t\t TAN\n      DUP3 \t\t\t\\n    e\n      DUP6 \t\t\tBaseV2\n      ADD \t\t\tumerBaseV2 {\\n    en\n      ADD \t\t\tConsumerBaseV2 {\\n    enum TAN...\n      GT \t\t\tVRFConsumerBaseV2 {\\n    enum ...\n      ISZERO \t\t\tr, VRFConsumerBaseV2 {\\n    en...\n      PUSH [tag] 376\t\t\tr, VRFConsumerBaseV2 {\\n    en...\n      JUMPI \t\t\tr, VRFConsumerBaseV2 {\\n    en...\n      PUSH 0\t\t\tP\n      DUP1 \t\t\t \n      REVERT \t\t\t\\n        OPE\n    tag 376\t\t\tr, VRFConsumerBaseV2 {\\n    en...\n      JUMPDEST \t\t\tr, VRFConsumerBaseV2 {\\n    en...\n      SWAP3 \t\t\tokenInterface.sol\";\\n// Import...\n      POP \t\t\tokenInterface.sol\";\\n// Import...\n      SWAP3 \t\t\tokenInterface.sol\";\\n// Import...\n      SWAP1 \t\t\tokenInterface.sol\";\\n// Import...\n      POP \t\t\tokenInterface.sol\";\\n// Import...\n      JUMP \t\t\tokenInterface.sol\";\\n// Import...\n    tag 38\t\t\tOSED,\\n        PAYMENT_IN_PROG...\n      JUMPDEST \t\t\tOSED,\\n        PAYMENT_IN_PROG...\n      PUSH 0\t\t\tdress \n      DUP1 \t\t\tken;\\n \n      PUSH 0\t\t\t     u\n      DUP1 \t\t\tt256 c\n      PUSH 0\t\t\tleDura\n      PUSH 80\t\t\t   \n      DUP7 \t\t\tmount;\\n  \n      DUP9 \t\t\tributio\n      SUB \t\t\tcontributionAmount;\\n   \n      SLT \t\t\t256 contributionAmount;\\n     ...\n      ISZERO \t\t\tint256 contributionAmount;\\n  ...\n      PUSH [tag] 378\t\t\tint256 contributionAmount;\\n  ...\n      JUMPI \t\t\tint256 contributionAmount;\\n  ...\n      PUSH 0\t\t\ty\n      DUP1 \t\t\ta\n      REVERT \t\t\t256 penalty;\n    tag 378\t\t\tint256 contributionAmount;\\n  ...\n      JUMPDEST \t\t\tint256 contributionAmount;\\n  ...\n      PUSH [tag] 379\t\t\tarticipant;\\n        string na\n      DUP7 \t\t\t string n\n      PUSH [tag] 357\t\t\tarticipant;\\n        string na\n      JUMP \t\t\tarticipant;\\n        string na\n    tag 379\t\t\tarticipant;\\n        string na\n      JUMPDEST \t\t\tarticipant;\\n        string na\n      SWAP5 \t\t\tnt256 maxParticipant;\\n       ...\n      POP \t\t\tnt256 maxParticipant;\\n       ...\n      PUSH [tag] 380\t\t\tdescription;\\n        IERC721 ...\n      PUSH 20\t\t\tnt\n      DUP8 \t\t\tRC721 nft\n      ADD \t\t\t  IERC721 nftContr\n      PUSH [tag] 357\t\t\tdescription;\\n        IERC721 ...\n      JUMP \t\t\tdescription;\\n        IERC721 ...\n    tag 380\t\t\tdescription;\\n        IERC721 ...\n      JUMPDEST \t\t\tdescription;\\n        IERC721 ...\n      SWAP4 \t\t\t   string description;\\n      ...\n      POP \t\t\t   string description;\\n      ...\n      PUSH 40\t\t\tAN\n      DUP7 \t\t\t;\\n       \n      ADD \t\t\tract;\\n        TAND\n      CALLDATALOAD \t\t\ttract daoContract;\\n        TA...\n      SWAP3 \t\t\t   IDAOContract daoContract;\\n...\n      POP \t\t\t   IDAOContract daoContract;\\n...\n      PUSH 60\t\t\t;\\n\n      DUP7 \t\t\tteTimesta\n      ADD \t\t\tUpdateTimestamp;\\n \n      CALLDATALOAD \t\t\t uint256 lastUpdateTimestamp;\\...\n      PUSH FFFFFFFFFFFFFFFF\t\t\t public s_thriftCl\n      DUP2 \t\t\tClubDa\n      GT \t\t\tiftClubData public s_thriftClu\n      ISZERO \t\t\tThriftClubData public s_thrift...\n      PUSH [tag] 381\t\t\tThriftClubData public s_thrift...\n      JUMPI \t\t\tThriftClubData public s_thrift...\n      PUSH 0\t\t\t5\n      DUP1 \t\t\tn\n      REVERT \t\t\t\\n    uint256\n    tag 381\t\t\tThriftClubData public s_thrift...\n      JUMPDEST \t\t\tThriftClubData public s_thrift...\n      PUSH [tag] 382\t\t\tnatorV2Interface COORDINATOR;\\...\n      DUP9 \t\t\tce LINK\n      DUP3 \t\t\tenInte\n      DUP10 \t\t\t    LinkT\n      ADD \t\t\tOR;\\n    LinkTokenInter\n      PUSH [tag] 358\t\t\tnatorV2Interface COORDINATOR;\\...\n      JUMP \t\t\tnatorV2Interface COORDINATOR;\\...\n    tag 382\t\t\tnatorV2Interface COORDINATOR;\\...\n      JUMPDEST \t\t\tnatorV2Interface COORDINATOR;\\...\n      SWAP7 \t\t\tOSED,\\n        PAYMENT_IN_PROG...\n      SWAP10 \t\t\tOSED,\\n        PAYMENT_IN_PROG...\n      SWAP6 \t\t\tOSED,\\n        PAYMENT_IN_PROG...\n      SWAP9 \t\t\tOSED,\\n        PAYMENT_IN_PROG...\n      POP \t\t\t\n      SWAP4 \t\t\tOSED,\\n        PAYMENT_IN_PROG...\n      SWAP7 \t\t\tOSED,\\n        PAYMENT_IN_PROG...\n      POP \t\t\t\n      SWAP3 \t\t\t THIS TO\n      SWAP5 \t\t\t THIS TO\n      SWAP4 \t\t\tipants = 0;\\n\\n    VRFCoordina...\n      SWAP3 \t\t\tOSED,\\n        PAYMENT_IN_PROG...\n      POP \t\t\t\n      POP \t\t\t\n      POP \t\t\t\n      JUMP \t\t\tOSED,\\n        PAYMENT_IN_PROG...\n    tag 44\t\t\tor other networks, see\\n    //...\n      JUMPDEST \t\t\tor other networks, see\\n    //...\n      PUSH 0\t\t\tacts/#\n      DUP1 \t\t\tnfigur\n      PUSH 40\t\t\t97\n      DUP4 \t\t\tact = 0x3\n      DUP6 \t\t\tken_con\n      SUB \t\t\tk_token_contract = 0x32\n      SLT \t\t\t link_token_contract = 0x326C9...\n      ISZERO \t\t\tess link_token_contract = 0x32...\n      PUSH [tag] 385\t\t\tess link_token_contract = 0x32...\n      JUMPI \t\t\tess link_token_contract = 0x32...\n      PUSH 0\t\t\t9\n      DUP1 \t\t\t2\n      REVERT \t\t\tfc84E512bB9C\n    tag 385\t\t\tess link_token_contract = 0x32...\n      JUMPDEST \t\t\tess link_token_contract = 0x32...\n      PUSH [tag] 386\t\t\t    // The gas lane to use, w\n      DUP4 \t\t\t to use, \n      PUSH [tag] 357\t\t\t    // The gas lane to use, w\n      JUMP \t\t\t    // The gas lane to use, w\n    tag 386\t\t\t    // The gas lane to use, w\n      JUMPDEST \t\t\t    // The gas lane to use, w\n      SWAP5 \t\t\t0eD06FB;\\n\\n    // The gas lan...\n      PUSH 20\t\t\t.\\n\n      SWAP4 \t\t\trice to bump to.\\n \n      SWAP1 \t\t\trice to bump to.\\n \n      SWAP4 \t\t\trice to bump to.\\n \n      ADD \t\t\trice to bump to.\\n \n      CALLDATALOAD \t\t\tmaximum gas price to bump to.\\...\n      SWAP4 \t\t\tmaximum gas price to bump to.\\...\n      POP \t\t\t\n      POP \t\t\t\n      POP \t\t\t\n      JUMP \t\t\tor other networks, see\\n    //...\n    tag 359\t\t\tlist of available gas lanes on...\n      JUMPDEST \t\t\tlist of available gas lanes on...\n      PUSH 4E487B71\t\t\t://docs.ch\n      PUSH E0\t\t\thtt\n      SHL \t\t\tsee https://docs.cha\n      PUSH 0\t\t\t/\n      MSTORE \t\t\tk,\\n    // see https://docs.ch...\n      PUSH 41\t\t\ttrac\n      PUSH 4\t\t\tc\n      MSTORE \t\t\tcs/vrf-contract\n      PUSH 24\t\t\t   b\n      PUSH 0\t\t\ts\n      REVERT \t\t\turations\\n    by\n    tag 49\t\t\tsh =\\n        0x474e34a077df58...\n      JUMPDEST \t\t\tsh =\\n        0x474e34a077df58...\n      PUSH 0\t\t\tasonab\n      DUP1 \t\t\t defau\n      PUSH 40\t\t\t\\n \n      DUP4 \t\t\tbe differ\n      DUP6 \t\t\tue coul\n      SUB \t\t\t value could be differe\n      SLT \t\t\tthis value could be different\\...\n      ISZERO \t\t\tut this value could be differe...\n      PUSH [tag] 389\t\t\tut this value could be differe...\n      JUMPI \t\t\tut this value could be differe...\n      PUSH 0\t\t\t \n      DUP1 \t\t\th\n      REVERT \t\t\t/ on other n\n    tag 389\t\t\tut this value could be differe...\n      JUMPDEST \t\t\tut this value could be differe...\n      DUP3 \t\t\tit = 1000\n      CALLDATALOAD \t\t\tallbackGasLimit = 10000\n      SWAP2 \t\t\t  uint32 callbackGasLimit = 10...\n      POP \t\t\t  uint32 callbackGasLimit = 10...\n      PUSH 20\t\t\tul\n      DUP1 \t\t\tue\n      DUP5 \t\t\t uint16 r\n      ADD \t\t\t\\n    uint16 reques\n      CALLDATALOAD \t\t\t this higher.\\n    uint16 requ...\n      PUSH FFFFFFFFFFFFFFFF\t\t\t\\n    // For this e\n      DUP1 \t\t\tom\n      DUP3 \t\t\te 1 ra\n      GT \t\t\tieve 1 random \n      ISZERO \t\t\tetrieve 1 random value in one ...\n      PUSH [tag] 390\t\t\tetrieve 1 random value in one ...\n      JUMPI \t\t\tetrieve 1 random value in one ...\n      PUSH 0\t\t\tr\n      DUP1 \t\t\tn\n      REVERT \t\t\tue in one re\n    tag 390\t\t\tetrieve 1 random value in one ...\n      JUMPDEST \t\t\tetrieve 1 random value in one ...\n      DUP2 \t\t\tinator\n      DUP7 \t\t\ted VRFCoo\n      ADD \t\t\texceed VRFCoordinatorV\n      SWAP2 \t\t\t// Cannot exceed VRFCoordinato...\n      POP \t\t\t// Cannot exceed VRFCoordinato...\n      DUP7 \t\t\t 1;\\n\\n  \n      PUSH 1F\t\t\tWord\n      DUP4 \t\t\t n\n      ADD \t\t\tnt32 numWords\n      SLT \t\t\t  uint32 numWords = 1;\\n\\n   \n      PUSH [tag] 391\t\t\t_WORDS.\\n    uint32 numWords =...\n      JUMPI \t\t\t_WORDS.\\n    uint32 numWords =...\n      PUSH 0\t\t\tr\n      DUP1 \t\t\t \n      REVERT \t\t\tStorage para\n    tag 391\t\t\t_WORDS.\\n    uint32 numWords =...\n      JUMPDEST \t\t\t_WORDS.\\n    uint32 numWords =...\n      DUP2 \t\t\tom\n      CALLDATALOAD \t\t\tpublic s_randomW\n      DUP2 \t\t\tub\n      DUP2 \t\t\t56\n      GT \t\t\tnt256 publ\n      ISZERO \t\t\t uint256 public s_requestId;\\n...\n      PUSH [tag] 393\t\t\t uint256 public s_requestId;\\n...\n      JUMPI \t\t\t uint256 public s_requestId;\\n...\n      PUSH [tag] 393\t\t\ts_requestId;\\n    u\n      PUSH [tag] 359\t\t\ts_requestId;\\n    u\n      JUMP \t\t\ts_requestId;\\n    u\n    tag 393\t\t\ts_requestId;\\n    u\n      JUMPDEST \t\t\ts_requestId;\\n    u\n      DUP1 \t\t\tId\n      PUSH 5\t\t\ti\n      SHL \t\t\triptionId;\n      PUSH 40\t\t\t./\n      MLOAD \t\t\t   // ./P\n      PUSH 1F\t\t\tx \n      NOT \t\t\tg max t\n      PUSH 3F\t\t\tmi\n      DUP4 \t\t\tde\n      ADD \t\t\tfor detrmin\n      AND \t\t\tons for detrmining max tr\n      DUP2 \t\t\tconver\n      ADD \t\t\tice conversions for detrmining...\n      DUP2 \t\t\t\\n    /\n      DUP2 \t\t\tfor uint25\n      LT \t\t\ter for uint256;\\n    //\n      DUP6 \t\t\tnv\n      DUP3 \t\t\tsing Price\n      GT \t\t\t  using PriceConve\n      OR \t\t\t\\n    using PriceConverter for...\n      ISZERO \t\t\tfee\\n    using PriceConverter ...\n      PUSH [tag] 395\t\t\tfee\\n    using PriceConverter ...\n      JUMPI \t\t\tfee\\n    using PriceConverter ...\n      PUSH [tag] 395\t\t\tinlink PriceFeeds \n      PUSH [tag] 359\t\t\tinlink PriceFeeds \n      JUMP \t\t\tinlink PriceFeeds \n    tag 395\t\t\tinlink PriceFeeds \n      JUMPDEST \t\t\tinlink PriceFeeds \n      PUSH 40\t\t\t  \n      MSTORE \t\t\tUSD)\\n    AggregatorV3I\n      SWAP2 \t\t\teedNative;\\n    Agg\n      DUP3 \t\t\teedNative;\\n    Agg\n      MSTORE \t\t\teedNative;\\n    Agg\n      DUP5 \t\t\tce private immu\n      DUP3 \t\t\tce private immu\n      ADD \t\t\tce private immu\n      SWAP3 \t\t\tce private immu\n      POP \t\t\t\n      DUP4 \t\t\tAggregatorV\n      DUP2 \t\t\tAggregatorV\n      ADD \t\t\tAggregatorV\n      DUP6 \t\t\t    AggregatorV3Inte\n      ADD \t\t\t    AggregatorV3Inte\n      SWAP2 \t\t\t    AggregatorV3Inte\n      DUP10 \t\t\te immutable i_price\n      DUP4 \t\t\te immutable i_price\n      GT \t\t\te immutable i_price\n      ISZERO \t\t\tvate immutable i_priceFeedUSDT...\n      PUSH [tag] 396\t\t\tvate immutable i_priceFeedUSDT...\n      JUMPI \t\t\tvate immutable i_priceFeedUSDT...\n      PUSH 0\t\t\t \n      DUP1 \t\t\t \n      REVERT \t\t\tdUSDT;\\n    A\n    tag 396\t\t\tvate immutable i_priceFeedUSDT...\n      JUMPDEST \t\t\tvate immutable i_priceFeedUSDT...\n      SWAP4 \t\t\trivate immu\n      DUP6 \t\t\trivate immu\n      ADD \t\t\trivate immu\n      SWAP4 \t\t\trivate immu\n    tag 397\t\t\triceFeedDAI;\\n    AggregatorV3...\n      JUMPDEST \t\t\triceFeedDAI;\\n    AggregatorV3...\n      DUP3 \t\t\t Aggre\n      DUP6 \t\t\t;\\n \n      LT \t\t\tDAI;\\n    Aggreg\n      ISZERO \t\t\triceFeedDAI;\\n    AggregatorV3...\n      PUSH [tag] 399\t\t\triceFeedDAI;\\n    AggregatorV3...\n      JUMPI \t\t\triceFeedDAI;\\n    AggregatorV3...\n      DUP5 \t\t\tken Addresses\\n   \n      CALLDATALOAD \t\t\tken Addresses\\n   \n      DUP5 \t\t\tC;\\n    // Token Addresses\\n  ...\n      MSTORE \t\t\tC;\\n    // Token Addresses\\n  ...\n      SWAP4 \t\t\trface privat\n      DUP6 \t\t\trface privat\n      ADD \t\t\trface privat\n      SWAP4 \t\t\trface privat\n      SWAP3 \t\t\ttable i_Nati\n      DUP6 \t\t\ttable i_Nati\n      ADD \t\t\ttable i_Nati\n      SWAP3 \t\t\ttable i_Nati\n      PUSH [tag] 397\t\t\triceFeedDAI;\\n    AggregatorV3...\n      JUMP \t\t\triceFeedDAI;\\n    AggregatorV3...\n    tag 399\t\t\triceFeedDAI;\\n    AggregatorV3...\n      JUMPDEST \t\t\triceFeedDAI;\\n    AggregatorV3...\n      DUP1 \t\t\te immu\n      SWAP7 \t\t\tess private immu\n      POP \t\t\tess private immu\n      POP \t\t\tess private immu\n      POP \t\t\tess private immu\n      POP \t\t\tess private immu\n      POP \t\t\tess private immu\n      POP \t\t\tess private immu\n      POP \t\t\tess private immu\n      SWAP3 \t\t\tsh =\\n        0x474e34a077df58...\n      POP \t\t\tsh =\\n        0x474e34a077df58...\n      SWAP3 \t\t\tsh =\\n        0x474e34a077df58...\n      SWAP1 \t\t\tsh =\\n        0x474e34a077df58...\n      POP \t\t\tsh =\\n        0x474e34a077df58...\n      JUMP \t\t\tsh =\\n        0x474e34a077df58...\n    tag 59\t\t\tCAddress;\\n    address private...\n      JUMPDEST \t\t\tCAddress;\\n    address private...\n      PUSH 0\t\t\taddres\n      PUSH 20\t\t\tri\n      DUP3 \t\t\t   addres\n      DUP5 \t\t\tddress;\n      SUB \t\t\tDAIAddress;\\n    address\n      SLT \t\t\te i_DAIAddress;\\n    address p...\n      ISZERO \t\t\table i_DAIAddress;\\n    addres...\n      PUSH [tag] 401\t\t\table i_DAIAddress;\\n    addres...\n      JUMPI \t\t\table i_DAIAddress;\\n    addres...\n      PUSH 0\t\t\t \n      DUP1 \t\t\tb\n      REVERT \t\t\t immutable i\n    tag 401\t\t\table i_DAIAddress;\\n    addres...\n      JUMPDEST \t\t\table i_DAIAddress;\\n    addres...\n      POP \t\t\t\n      CALLDATALOAD \t\t\tconstants\\n    uint256 p\n      SWAP2 \t\t\tconstants\\n    uint256 p\n      SWAP1 \t\t\tCAddress;\\n    address private...\n      POP \t\t\t\n      JUMP \t\t\tCAddress;\\n    address private...\n    tag 66\t\t\ts => bool) public hasPaidPenal...\n      JUMPDEST \t\t\ts => bool) public hasPaidPenal...\n      PUSH 0\t\t\tpublic\n      DUP1 \t\t\tftCont\n      PUSH 20\t\t\tli\n      DUP4 \t\t\tContract \n      DUP6 \t\t\t\\n    ID\n      SUB \t\t\tract\\n    IDAOContract p\n      SLT \t\t\tcontract\\n    IDAOContract pub...\n      ISZERO \t\t\tAO contract\\n    IDAOContract ...\n      PUSH [tag] 405\t\t\tAO contract\\n    IDAOContract ...\n      JUMPI \t\t\tAO contract\\n    IDAOContract ...\n      PUSH 0\t\t\t\\n\n      DUP1 \t\t\tc\n      REVERT \t\t\toContract;\\n\\n\n    tag 405\t\t\tAO contract\\n    IDAOContract ...\n      JUMPDEST \t\t\tAO contract\\n    IDAOContract ...\n      DUP3 \t\t\tlinkContr\n      CALLDATALOAD \t\t\t\\n    // ChainlinkContra\n      PUSH FFFFFFFFFFFFFFFF\t\t\tract;\\n\\n    event P\n      DUP2 \t\t\tlinkCo\n      GT \t\t\tainlinkContract;\\n\\n    event ...\n      ISZERO \t\t\t chainlinkContract;\\n\\n    eve...\n      PUSH [tag] 406\t\t\t chainlinkContract;\\n\\n    eve...\n      JUMPI \t\t\t chainlinkContract;\\n\\n    eve...\n      PUSH 0\t\t\te\n      DUP1 \t\t\to\n      REVERT \t\t\tcipantJoined\n    tag 406\t\t\t chainlinkContract;\\n\\n    eve...\n      JUMPDEST \t\t\t chainlinkContract;\\n\\n    eve...\n      PUSH [tag] 407\t\t\tent CycleStarted(address index...\n      DUP6 \t\t\tt Addre\n      DUP3 \t\t\t\\n    e\n      DUP7 \t\t\ted winner\n      ADD \t\t\tndexed winner);\\n    ev\n      PUSH [tag] 358\t\t\tent CycleStarted(address index...\n      JUMP \t\t\tent CycleStarted(address index...\n    tag 407\t\t\tent CycleStarted(address index...\n      JUMPDEST \t\t\tent CycleStarted(address index...\n      SWAP1 \t\t\tient, ui\n      SWAP7 \t\t\tient, ui\n      SWAP1 \t\t\tdexed participant);\\n    event...\n      SWAP6 \t\t\tdexed participant);\\n    event...\n      POP \t\t\t\n      SWAP4 \t\t\ts => bool) public hasPaidPenal...\n      POP \t\t\t\n      POP \t\t\t\n      POP \t\t\t\n      POP \t\t\t\n      JUMP \t\t\ts => bool) public hasPaidPenal...\n    tag 361\t\t\t_token_contract);\\n        // ...\n      JUMPDEST \t\t\t_token_contract);\\n        // ...\n      PUSH 0\t\t\tese\n      DUP2 \t\t\t= Agg\n      MLOAD \t\t\tative = Aggr\n      DUP1 \t\t\t      \n      DUP5 \t\t\te(\\n\n      MSTORE \t\t\tnterface(\\n         \n      PUSH 0\t\t\t5\n    tag 411\t\t\ta3bEEaF030DE24Ada\\n        );\\...\n      JUMPDEST \t\t\ta3bEEaF030DE24Ada\\n        );\\...\n      DUP2 \t\t\tAda\\n  \n      DUP2 \t\t\tE\n      LT \t\t\t30DE24Ada\\n   \n      ISZERO \t\t\ta3bEEaF030DE24Ada\\n        );\\...\n      PUSH [tag] 413\t\t\ta3bEEaF030DE24Ada\\n        );\\...\n      JUMPI \t\t\ta3bEEaF030DE24Ada\\n        );\\...\n      PUSH 20\t\t\t(\\n  \n      DUP2 \t\t\t\\n        );\\n \n      DUP6 \t\t\t\\n        );\\n \n      ADD \t\t\t\\n        );\\n \n      DUP2 \t\t\t0Ab0\\n        );\\n      \n      ADD \t\t\t0Ab0\\n        );\\n      \n      MLOAD \t\t\t13147e0Ab0\\n        );\\n      ...\n      DUP7 \t\t\t54dC5dfBB15\n      DUP4 \t\t\t54dC5dfBB15\n      ADD \t\t\t54dC5dfBB15\n      DUP3 \t\t\t087154dC5dfBB1546Bb6\n      ADD \t\t\t087154dC5dfBB1546Bb6\n      MSTORE \t\t\t72dDec9087154dC5dfBB1546Bb6271...\n      ADD \t\t\t        i_pr\n      PUSH [tag] 411\t\t\ta3bEEaF030DE24Ada\\n        );\\...\n      JUMP \t\t\ta3bEEaF030DE24Ada\\n        );\\...\n    tag 413\t\t\ta3bEEaF030DE24Ada\\n        );\\...\n      JUMPDEST \t\t\ta3bEEaF030DE24Ada\\n        );\\...\n      POP \t\t\tEaF\n      PUSH 0\t\t\t9\n      PUSH 20\t\t\t    \n      DUP3 \t\t\t(\\n    \n      DUP7 \t\t\trfa\n      ADD \t\t\tInterface(\\n     \n      ADD \t\t\torV3Interface(\\n            \n      MSTORE \t\t\tggregatorV3Interface(\\n       ...\n      PUSH 20\t\t\trice\n      PUSH 1F\t\t\t  \n      NOT \t\t\t       \n      PUSH 1F\t\t\t  \n      DUP4 \t\t\t5\\n    \n      ADD \t\t\t6d645\\n        )\n      AND \t\t\t3CC96d645\\n        );\\n       ...\n      DUP6 \t\t\t8e5\n      ADD \t\t\t89418e5973CC96d645\\n        );...\n      ADD \t\t\t976289418e5973CC96d645\\n      ...\n      SWAP2 \t\t\t959196E976289418e5973CC96d645\\...\n      POP \t\t\t959196E976289418e5973CC96d645\\...\n      POP \t\t\t959196E976289418e5973CC96d645\\...\n      SWAP3 \t\t\t_token_contract);\\n        // ...\n      SWAP2 \t\t\t_token_contract);\\n        // ...\n      POP \t\t\t_token_contract);\\n        // ...\n      POP \t\t\t_token_contract);\\n        // ...\n      JUMP \t\t\t_token_contract);\\n        // ...\n    tag 96\t\t\tgregatorV3Interface(\\n        ...\n      JUMPDEST \t\t\tgregatorV3Interface(\\n        ...\n      DUP3 \t\t\t67581b\n      ISZERO \t\t\t8E17e9867581b\\n\n      ISZERO \t\t\tBd5906f8E17e9867581b\\n \n      DUP2 \t\t\ta3B981433\n      MSTORE \t\t\t7A22900a3B98143368Bd5906f8E17e...\n      PUSH 40\t\t\trf\n      PUSH 20\t\t\t3I\n      DUP3 \t\t\tAggregato\n      ADD \t\t\t // AggregatorV3In\n      MSTORE \t\t\t        // AggregatorV3Interfa\n      PUSH 0\t\t\te(\\n \n      PUSH [tag] 415\t\t\tble i_priceFeedNative;\\n\\n    ...\n      PUSH 40\t\t\tAd\n      DUP4 \t\t\t   i_Nati\n      ADD \t\t\t       i_NativeAdd\n      DUP5 \t\t\ttive;\\n\n      PUSH [tag] 361\t\t\tble i_priceFeedNative;\\n\\n    ...\n      JUMP \t\t\tble i_priceFeedNative;\\n\\n    ...\n    tag 415\t\t\tble i_priceFeedNative;\\n\\n    ...\n      JUMPDEST \t\t\tble i_priceFeedNative;\\n\\n    ...\n      SWAP5 \t\t\te immutable i_priceFeedNative;...\n      SWAP4 \t\t\tgregatorV3Interface(\\n        ...\n      POP \t\t\t\n      POP \t\t\t\n      POP \t\t\t\n      POP \t\t\t\n      JUMP \t\t\tgregatorV3Interface(\\n        ...\n    tag 204\t\t\tss(0x0000000000000000000000000...\n      JUMPDEST \t\t\tss(0x0000000000000000000000000...\n      PUSH 4E487B71\t\t\tCAddress =\n      PUSH E0\t\t\ti_U\n      SHL \t\t\t    i_USDCAddress = \n      PUSH 0\t\t\t \n      MSTORE \t\t\t000);\\n        i_USDCAddress =...\n      PUSH 21\t\t\tE468\n      PUSH 4\t\t\ta\n      MSTORE \t\t\t0FA8781a83E4682\n      PUSH 24\t\t\te71B\n      PUSH 0\t\t\t2\n      REVERT \t\t\t94Ea2A0212e71B2\n    tag 362\t\t\t i_USDTAddress = address(0xA02...\n      JUMPDEST \t\t\t i_USDTAddress = address(0xA02...\n      PUSH 4\t\t\tA\n      DUP2 \t\t\t  i_D\n      LT \t\t\t     i_DAIAd\n      PUSH [tag] 418\t\t\te832);\\n        i_DAIAddress =...\n      JUMPI \t\t\te832);\\n        i_DAIAddress =...\n      PUSH 4E487B71\t\t\t42DaEbF0B1\n      PUSH E0\t\t\t10F\n      SHL \t\t\t98ba10F6042DaEbF0B1B\n      PUSH 0\t\t\t4\n      MSTORE \t\t\t4d0F3714Ca98ba10F6042DaEbF0B1B...\n      PUSH 21\t\t\tress\n      PUSH 4\t\t\tA\n      MSTORE \t\t\t i_WBTCAddress \n      PUSH 24\t\t\t8f67\n      PUSH 0\t\t\t1\n      REVERT \t\t\td787a4a1548f673\n    tag 418\t\t\te832);\\n        i_DAIAddress =...\n      JUMPDEST \t\t\te832);\\n        i_DAIAddress =...\n      SWAP1 \t\t\t56180);\\n\\n        s\n      MSTORE \t\t\t56180);\\n\\n        s\n      JUMP \t\t\t i_USDTAddress = address(0xA02...\n    tag 118\t\t\t.token = _token;\\n        s_th...\n      JUMPDEST \t\t\t.token = _token;\\n        s_th...\n      PUSH 0\t\t\t TAN\n      PUSH 160\t\t\tthr\n      PUSH 1\t\t\tt\n      DUP1 \t\t\to\n      PUSH A0\t\t\t = \n      SHL \t\t\ttamp = bloc\n      SUB \t\t\timestamp = block.ti\n      DUP1 \t\t\t n\n      DUP16 \t\t\tntract\n      AND \t\t\tnkContract = ne\n      DUP5 \t\t\t // chain\n      MSTORE \t\t\t        // chainlinkContract =...\n      DUP14 \t\t\tntract\n      PUSH 20\t\t\tNF\n      DUP6 \t\t\t;\\n\\n      \n      ADD \t\t\tct();\\n\\n        NFT\n      MSTORE \t\t\tkContract();\\n\\n        NFTCon...\n      DUP13 \t\t\tct);\\n\\n\n      PUSH 40\t\t\ton\n      DUP6 \t\t\ttract(_nf\n      ADD \t\t\tTContract(_nftCont\n      MSTORE \t\t\tct = NFTContract(_nftContract)...\n      DUP12 \t\t\t  }\\n\\n \n      PUSH 60\t\t\t);\n      DUP6 \t\t\token(_tok\n      ADD \t\t\teedToken(_token);\\n\n      MSTORE \t\t\ttPriceFeedToken(_token);\\n    ...\n      DUP11 \t\t\tc Serv\n      PUSH 80\t\t\t pu\n      DUP6 \t\t\t    uint2\n      ADD \t\t\tion\\n    uint256 pub\n      MSTORE \t\t\tcollection\\n    uint256 public...\n      DUP2 \t\t\tnt\n      PUSH A0\t\t\t =>\n      DUP6 \t\t\ting(addre\n      ADD \t\t\tmapping(address => \n      MSTORE \t\t\te;\\n    mapping(address => uin...\n      PUSH [tag] 420\t\t\trseTokenBalances;\\n    uint256...\n      DUP3 \t\t\tif\n      DUP6 \t\t\t public T\n      ADD \t\t\tt256 public Thrift\n      DUP12 \t\t\t\\n    u\n      PUSH [tag] 361\t\t\trseTokenBalances;\\n    uint256...\n      JUMP \t\t\trseTokenBalances;\\n    uint256...\n    tag 420\t\t\trseTokenBalances;\\n    uint256...\n      JUMPDEST \t\t\trseTokenBalances;\\n    uint256...\n      SWAP2 \t\t\tc ServiceFeePurseTokenBalances...\n      POP \t\t\tc ServiceFeePurseTokenBalances...\n      DUP4 \t\t\tic Thrift\n      DUP3 \t\t\t56) pu\n      SUB \t\t\tint256) public ThriftP\n      PUSH C0\t\t\ts =\n      DUP6 \t\t\tping(addr\n      ADD \t\t\t mapping(address =>\n      MSTORE \t\t\tce;\\n    mapping(address => ui...\n      PUSH [tag] 421\t\t\t    uint256 public ThriftPurse...\n      DUP3 \t\t\tPurseP\n      DUP11 \t\t\tc Thri\n      PUSH [tag] 361\t\t\t    uint256 public ThriftPurse...\n      JUMP \t\t\t    uint256 public ThriftPurse...\n    tag 421\t\t\t    uint256 public ThriftPurse...\n      JUMPDEST \t\t\t    uint256 public ThriftPurse...\n      SWAP3 \t\t\talance;\\n    uint256 public Th...\n      POP \t\t\talance;\\n    uint256 public Th...\n      DUP1 \t\t\tli\n      DUP9 \t\t\t256) p\n      AND \t\t\tuint256) public\n      PUSH E0\t\t\tss \n      DUP6 \t\t\tpping(add\n      ADD \t\t\t  mapping(address =\n      MSTORE \t\t\tnce;\\n    mapping(address => u...\n      DUP1 \t\t\tPe\n      DUP8 \t\t\ttion p\n      AND \t\t\tfunction payPen\n      PUSH 100\t\t\t\\n\\n \n      DUP6 \t\t\tkenBalanc\n      ADD \t\t\ttyTokenBalance;\\n\\n  \n      MSTORE \t\t\tsePenaltyTokenBalance;\\n\\n    ...\n      POP \t\t\tsePenaltyTokenBalance;\\n\\n    ...\n      POP \t\t\tsePenaltyTokenBalance;\\n\\n    ...\n      PUSH [tag] 422\t\t\t       address _tokenAddress,\\...\n      PUSH 120\t\t\tnAm\n      DUP4 \t\t\tnt256 _to\n      ADD \t\t\t  uint256 _tokenAmo\n      DUP6 \t\t\t,\\n    \n      PUSH [tag] 362\t\t\t       address _tokenAddress,\\...\n      JUMP \t\t\t       address _tokenAddress,\\...\n    tag 422\t\t\t       address _tokenAddress,\\...\n      JUMPDEST \t\t\t       address _tokenAddress,\\...\n      DUP3 \t\t\tiftClub\n      PUSH 140\t\t\t   \n      DUP4 \t\t\tble {\\n   \n      ADD \t\t\tpayable {\\n        T\n      MSTORE \t\t\tpublic payable {\\n        Thri...\n      SWAP13 \t\t\t.token = _token;\\n        s_th...\n      SWAP12 \t\t\t.token = _token;\\n        s_th...\n      POP \t\t\t.token = _token;\\n        s_th...\n      POP \t\t\t.token = _token;\\n        s_th...\n      POP \t\t\t.token = _token;\\n        s_th...\n      POP \t\t\t.token = _token;\\n        s_th...\n      POP \t\t\t.token = _token;\\n        s_th...\n      POP \t\t\t.token = _token;\\n        s_th...\n      POP \t\t\t.token = _token;\\n        s_th...\n      POP \t\t\t.token = _token;\\n        s_th...\n      POP \t\t\t.token = _token;\\n        s_th...\n      POP \t\t\t.token = _token;\\n        s_th...\n      POP \t\t\t.token = _token;\\n        s_th...\n      POP \t\t\t.token = _token;\\n        s_th...\n      JUMP \t\t\t.token = _token;\\n        s_th...\n    tag 123\t\t\ts_thriftClubData;\\n        req...\n      JUMPDEST \t\t\ts_thriftClubData;\\n        req...\n      PUSH 20\t\t\tke\n      DUP2 \t\t\t //     _\n      MSTORE \t\t\t        //     _token\n      PUSH [tag] 424\t\t\t= address(0) ||\\n        //   ...\n      PUSH 20\t\t\t_t\n      DUP3 \t\t\t.value ==\n      ADD \t\t\t msg.value == s_th\n      DUP4 \t\t\t/     \n      MLOAD \t\t\t     //      \n      PUSH 1\t\t\t\n      PUSH 1\t\t\t\n      PUSH A0\t\t\t\n      SHL \t\t\t\n      SUB \t\t\t\n      AND \t\t\teed = AggregatorV3Interface(i_...\n      SWAP1 \t\t\trface priceFeed = AggregatorV3...\n      MSTORE \t\t\trface priceFeed = AggregatorV3...\n      JUMP \t\t\tant MAXIMUM_FEE_USD = 50 * 1e1...\n    tag 424\t\t\t= address(0) ||\\n        //   ...\n      JUMPDEST \t\t\t= address(0) ||\\n        //   ...\n      PUSH 20\t\t\t f\n      DUP3 \t\t\t penal\n      ADD \t\t\trect penalty fe\n      MLOAD \t\t\t\"Incorrect penalty fee\n      PUSH 40\t\t\t  \n      DUP3 \t\t\t\\n        \n      ADD \t\t\tlty,\\n        //   \n      MSTORE \t\t\tta.penalty,\\n        //     \"I...\n      PUSH 40\t\t\tdr\n      DUP3 \t\t\tss == \n      ADD \t\t\tddress == addre\n      MLOAD \t\t\ttokenAddress == addres\n      PUSH 60\t\t\tif\n      DUP3 \t\t\t;\\n\\n      \n      ADD \t\t\t// );\\n\\n        if \n      MSTORE \t\t\t       // );\\n\\n        if (_t...\n      PUSH 60\t\t\t(\\n\n      DUP3 \t\t\t requi\n      ADD \t\t\t     require(\\n \n      MLOAD \t\t\t           require(\\n  \n      PUSH 80\t\t\tmen\n      DUP3 \t\t\t/ Ether p\n      ADD \t\t\t   // Ether payment\n      MSTORE \t\t\t          // Ether payment\\n  ...\n      PUSH 80\t\t\t   \n      DUP3 \t\t\tlty,\\n \n      ADD \t\t\tpenalty,\\n       \n      MLOAD \t\t\tbData.penalty,\\n        \n      PUSH A0\t\t\tift\n      DUP3 \t\t\tue == s_t\n      ADD \t\t\t.value == s_thriftC\n      MSTORE \t\t\t    msg.value == s_thriftClubD...\n      PUSH 0\t\t\t    \n      PUSH A0\t\t\t   \n      DUP4 \t\t\t      \n      ADD \t\t\tt\"\\n            )\n      MLOAD \t\t\t amount\"\\n            );\n      PUSH 160\t\t\tore th\n      DUP1 \t\t\tty\n      PUSH C0\t\t\tePe\n      DUP6 \t\t\t ThriftPu\n      ADD \t\t\t the ThriftPursePen\n      MSTORE \t\t\t fee in the ThriftPursePenalty...\n      PUSH [tag] 425\t\t\tftPursePenaltyBalance += s_thr...\n      PUSH 180\t\t\tlty\n      DUP6 \t\t\tubData.pe\n      ADD \t\t\tftClubData.penalty;\n      DUP4 \t\t\tance += s_th\n      PUSH [tag] 361\t\t\tftPursePenaltyBalance += s_thr...\n      JUMP \t\t\tftPursePenaltyBalance += s_thr...\n    tag 425\t\t\tftPursePenaltyBalance += s_thr...\n      JUMPDEST \t\t\tftPursePenaltyBalance += s_thr...\n      SWAP2 \t\t\t          ThriftPursePenaltyBa...\n      POP \t\t\t          ThriftPursePenaltyBa...\n      PUSH C0\t\t\tont\n      DUP6 \t\t\tto the\n      ADD \t\t\tfee to the contr\n      MLOAD \t\t\tnalty fee to the contra\n      PUSH 1F\t\t\tel\n      NOT \t\t\t  } els\n      DUP6 \t\t\tlue);\\n   \n      DUP5 \t\t\tr(msg.\n      SUB \t\t\tnsfer(msg.value);\\n    \n      ADD \t\t\t.transfer(msg.value);\\n       ...\n      PUSH E0\t\t\tthi\n      DUP7 \t\t\tle(addres\n      ADD \t\t\tayable(address(this\n      MSTORE \t\t\t      payable(address(this)).t...\n      PUSH [tag] 426\t\t\tpayment\\n            require(\\...\n      DUP4 \t\t\t      \n      DUP3 \t\t\t   require(\\n  \n      PUSH [tag] 361\t\t\tpayment\\n            require(\\...\n      JUMP \t\t\tpayment\\n            require(\\...\n    tag 426\t\t\tpayment\\n            require(\\...\n      JUMPDEST \t\t\tpayment\\n            require(\\...\n      SWAP3 \t\t\t     // Token payment\\n       ...\n      POP \t\t\t     // Token payment\\n       ...\n      POP \t\t\t     // Token payment\\n       ...\n      PUSH E0\t\t\t   \n      DUP6 \t\t\talty,\\n\n      ADD \t\t\t.penalty,\\n      \n      MLOAD \t\t\tubData.penalty,\\n       \n      PUSH 100\t\t\t to\n      PUSH [tag] 427\t\t\tt for penalty fee\"\\n          ...\n      DUP2 \t\t\tSt\n      DUP8 \t\t\t        /\n      ADD \t\t\t            // Sto\n      DUP4 \t\t\t            );\n      PUSH 1\t\t\t\n      PUSH 1\t\t\t\n      PUSH A0\t\t\t\n      SHL \t\t\t\n      SUB \t\t\t\n      AND \t\t\teed = AggregatorV3Interface(i_...\n      SWAP1 \t\t\trface priceFeed = AggregatorV3...\n      MSTORE \t\t\trface priceFeed = AggregatorV3...\n      JUMP \t\t\tant MAXIMUM_FEE_USD = 50 * 1e1...\n    tag 427\t\t\tt for penalty fee\"\\n          ...\n      JUMPDEST \t\t\tt for penalty fee\"\\n          ...\n      DUP7 \t\t\tenaltyTokenBala\n      ADD \t\t\tenaltyTokenBala\n      MLOAD \t\t\tPursePenaltyTokenBalan\n      SWAP1 \t\t\tPursePenaltyTokenBalan\n      POP \t\t\t\n      PUSH 120\t\t\tftP\n      PUSH [tag] 428\t\t\ttyTokenBalance[_tokenAddress] ...\n      DUP7 \t\t\tthriftClubData\\n   \n      DUP3 \t\t\tthriftClubData\\n   \n      ADD \t\t\tthriftClubData\\n   \n      DUP4 \t\t\tPursePenaltyTokenBalan\n      PUSH 1\t\t\t\n      PUSH 1\t\t\t\n      PUSH A0\t\t\t\n      SHL \t\t\t\n      SUB \t\t\t\n      AND \t\t\teed = AggregatorV3Interface(i_...\n      SWAP1 \t\t\trface priceFeed = AggregatorV3...\n      MSTORE \t\t\trface priceFeed = AggregatorV3...\n      JUMP \t\t\tant MAXIMUM_FEE_USD = 50 * 1e1...\n    tag 428\t\t\ttyTokenBalance[_tokenAddress] ...\n      JUMPDEST \t\t\ttyTokenBalance[_tokenAddress] ...\n      DUP7 \t\t\t Transfer the p\n      ADD \t\t\t Transfer the p\n      MLOAD \t\t\t    // Transfer the pe\n      SWAP1 \t\t\t    // Transfer the pe\n      POP \t\t\t\n      PUSH 140\t\t\tntr\n      PUSH [tag] 429\t\t\t       IERC20(_tokenAddress).t...\n      DUP7 \t\t\t               msg\n      DUP3 \t\t\t               msg\n      ADD \t\t\t               msg\n      DUP4 \t\t\t    // Transfer the pe\n      PUSH [tag] 362\t\t\t       IERC20(_tokenAddress).t...\n      JUMP \t\t\t       IERC20(_tokenAddress).t...\n    tag 429\t\t\t       IERC20(_tokenAddress).t...\n      JUMPDEST \t\t\t       IERC20(_tokenAddress).t...\n      SWAP6 \t\t\t             _t\n      SWAP1 \t\t\t             _t\n      SWAP6 \t\t\t             _t\n      ADD \t\t\t             _t\n      MLOAD \t\t\t),\\n                _to\n      SWAP4 \t\t\t        address(th\n      ADD \t\t\t        address(th\n      SWAP3 \t\t\t               address(this),\\...\n      SWAP1 \t\t\t               address(this),\\...\n      SWAP3 \t\t\t               address(this),\\...\n      MSTORE \t\t\t               address(this),\\...\n      POP \t\t\t\n      SWAP2 \t\t\t    );\n      SWAP1 \t\t\ts_thriftClubData;\\n        req...\n      POP \t\t\t\n      JUMP \t\t\ts_thriftClubData;\\n        req...\n    tag 156\t\t\t_priceFeedNative\\n            ...\n      JUMPDEST \t\t\t_priceFeedNative\\n            ...\n      PUSH 20\t\t\tCl\n      DUP1 \t\t\talance += s_thriftClu\n      DUP3 \t\t\talance += s_thriftClu\n      MSTORE \t\t\talance += s_thriftClu\n      PUSH D\t\t\t  \n      SWAP1 \t\t\tonAmount;\\n        \n      DUP3 \t\t\tonAmount;\\n        \n      ADD \t\t\tonAmount;\\n        \n      MSTORE \t\t\ttributionAmount;\\n            ...\n      PUSH 24B73B30B634B2103A37B5B2B7\t\t\t\n      PUSH 99\t\t\t\n      SHL \t\t\t\n      PUSH 40\t\t\tms\n      DUP3 \t\t\this)).transfer(msg\n      ADD \t\t\this)).transfer(msg\n      MSTORE \t\t\tdress(this)).transfer(msg.valu...\n      PUSH 60\t\t\tme\n      ADD \t\t\t   // Token paymen\n      SWAP1 \t\t\t   // Token paymen\n      JUMP \t\t\t_priceFeedNative\\n            ...\n    tag 363\t\t\t   require(msg.value == 0, \"In...\n      JUMPDEST \t\t\t   require(msg.value == 0, \"In...\n      PUSH 4E487B71\t\t\t  require(\n      PUSH E0\t\t\t   \n      SHL \t\t\t           require(_\n      PUSH 0\t\t\t;\n      MSTORE \t\t\tvalue\");\\n            require(...\n      PUSH 11\t\t\tvali\n      PUSH 4\t\t\t\"\n      MSTORE \t\t\tt > 0, \"Invalid\n      PUSH 24\t\t\t    \n      PUSH 0\t\t\t\\n\n      REVERT \t\t\tount\");\\n       \n    tag 159\t\t\te(_tokenAddress == s_thriftClu...\n      JUMPDEST \t\t\te(_tokenAddress == s_thriftClu...\n      DUP1 \t\t\t         \n      DUP3 \t\t\t         \n      ADD \t\t\t         \n      DUP1 \t\t\t and handl\n      DUP3 \t\t\t and handl\n      GT \t\t\t and handl\n      ISZERO \t\t\tate and handle fee calculation...\n      PUSH [tag] 287\t\t\tate and handle fee calculation...\n      JUMPI \t\t\tate and handle fee calculation...\n      PUSH [tag] 287\t\t\tee calculations fo\n      PUSH [tag] 363\t\t\tee calculations fo\n      JUMP \t\t\tee calculations fo\n    tag 364\t\t\tokenBalance[_tokenAddress] += ...\n      JUMPDEST \t\t\tokenBalance[_tokenAddress] += ...\n      PUSH 4E487B71\t\t\t  .contrib\n      PUSH E0\t\t\t   \n      SHL \t\t\t           .contribu\n      PUSH 0\t\t\t \n      MSTORE \t\t\tData\\n                .contrib...\n      PUSH 12\t\t\t    \n      PUSH 4\t\t\t \n      MSTORE \t\t\t;\\n            I\n      PUSH 24\t\t\t).tr\n      PUSH 0\t\t\te\n      REVERT \t\t\tkenAddress).tra\n    tag 164\t\t\t                msg.sender,\\n ...\n      JUMPDEST \t\t\t                msg.sender,\\n ...\n      PUSH 0\t\t\t \n      DUP3 \t\t\t \n      PUSH [tag] 442\t\t\t),\\n                _tokenAmou...\n      JUMPI \t\t\t),\\n                _tokenAmou...\n      PUSH [tag] 442\t\t\t    _tokenAmount\\n \n      PUSH [tag] 364\t\t\t    _tokenAmount\\n \n      JUMP \t\t\t    _tokenAmount\\n \n    tag 442\t\t\t    _tokenAmount\\n \n      JUMPDEST \t\t\t    _tokenAmount\\n \n      POP \t\t\t\n      DIV \t\t\t      }\\n\\n\n      SWAP1 \t\t\t      }\\n\\n\n      JUMP \t\t\t                msg.sender,\\n ...\n    tag 195\t\t\tveAddress) {\\n            i_pr...\n      JUMPDEST \t\t\tveAddress) {\\n            i_pr...\n      PUSH 0\t\t\t  } el\n      PUSH 20\t\t\tok\n      DUP3 \t\t\t where th\n      DUP5 \t\t\t the ca\n      SUB \t\t\tndle the case where the\n      SLT \t\t\t/ Handle the case where the to...\n      ISZERO \t\t\t  // Handle the case where the...\n      PUSH [tag] 447\t\t\t  // Handle the case where the...\n      JUMPI \t\t\t  // Handle the case where the...\n      PUSH 0\t\t\tn\n      DUP1 \t\t\ti\n      REVERT \t\t\tddress is no\n    tag 447\t\t\t  // Handle the case where the...\n      JUMPDEST \t\t\t  // Handle the case where the...\n      DUP2 \t\t\tvalid tok\n      MLOAD \t\t\trt(\"Invalid toke\n      DUP1 \t\t\t1Rece\n      ISZERO \t\t\t IERC721Recei\n      ISZERO \t\t\t\\n    // IERC721Receiv\n      DUP2 \t\t\t\\n    \n      EQ \t\t\t  }\\n    }\\n\\n    // IERC721Re...\n      PUSH [tag] 346\t\t\t\");\\n        }\\n    }\\n\\n    /...\n      JUMPI \t\t\t\");\\n        }\\n    }\\n\\n    /...\n      PUSH 0\t\t\to\n      DUP1 \t\t\ta\n      REVERT \t\t\tplementation\n    tag 259\t\t\t      currState == TANDA_STATE...\n      JUMPDEST \t\t\t      currState == TANDA_STATE...\n      PUSH 1\t\t\tm\n      DUP2 \t\t\testamp > las\n      DUP2 \t\t\testamp > las\n      SHR \t\t\testamp > las\n      SWAP1 \t\t\testamp > las\n      DUP3 \t\t\t      ) {\\n  \n      AND \t\t\t      ) {\\n  \n      DUP1 \t\t\t      ) {\\n  \n      PUSH [tag] 454\t\t\t // Perform the necessary acti...\n      JUMPI \t\t\t // Perform the necessary acti...\n      PUSH 7F\t\t\t per\n      DUP3 \t\t\t payme\n      AND \t\t\t the payment peri\n      SWAP2 \t\t\ts for when the payment peri\n      POP \t\t\ts for when the payment peri\n    tag 454\t\t\t // Perform the necessary acti...\n      JUMPDEST \t\t\t // Perform the necessary acti...\n      PUSH 20\t\t\te \n      DUP3 \t\t\tistrib\n      LT \t\t\t, distribute r\n      DUP2 \t\t\t      // For examp\n      SUB \t\t\t         // For example, distr...\n      PUSH [tag] 455\t\t\t            // For example, di...\n      JUMPI \t\t\t            // For example, di...\n      PUSH 4E487B71\t\t\t     reque\n      PUSH E0\t\t\t   \n      SHL \t\t\te\\n            reques\n      PUSH 0\t\t\ty\n      MSTORE \t\t\t next cycle\\n            reque...\n      PUSH 22\t\t\t}\\n\\n \n      PUSH 4\t\t\t \n      MSTORE \t\t\t;\\n        }\\n\\n  \n      PUSH 24\t\t\ther \n      PUSH 0\t\t\t \n      REVERT \t\t\torm any other n\n    tag 455\t\t\t            // For example, di...\n      JUMPDEST \t\t\t            // For example, di...\n      POP \t\t\t            // For example, di...\n      SWAP2 \t\t\t      currState == TANDA_STATE...\n      SWAP1 \t\t\t      currState == TANDA_STATE...\n      POP \t\t\t      currState == TANDA_STATE...\n      JUMP \t\t\t      currState == TANDA_STATE...\n    tag 291\t\t\t\\n\\n        performData;\\n    ...\n      JUMPDEST \t\t\t\\n\\n        performData;\\n    ...\n      DUP1 \t\t\tnt256 /* \n      DUP3 \t\t\tnt256 /* \n      MUL \t\t\tnt256 /* \n      DUP2 \t\t\tuint256[]\n      ISZERO \t\t\tuint256[]\n      DUP3 \t\t\trandomWords\\n   \n      DUP3 \t\t\trandomWords\\n   \n      DIV \t\t\trandomWords\\n   \n      DUP5 \t\t\temory randomWords\\n    \n      EQ \t\t\temory randomWords\\n    \n      OR \t\t\t   uint256[] memory randomWord...\n      PUSH [tag] 287\t\t\t */,\\n        uint256[] memory...\n      JUMPI \t\t\t */,\\n        uint256[] memory...\n      PUSH [tag] 287\t\t\ternal override {\\n \n      PUSH [tag] 363\t\t\ternal override {\\n \n      JUMP \t\t\ternal override {\\n \n    tag 298\t\t\tomWords = randomWords;\\n      ...\n      JUMPDEST \t\t\tomWords = randomWords;\\n      ...\n      PUSH 4E487B71\t\t\tinner func\n      PUSH E0\t\t\tall\n      SHL \t\t\tke call winner funct\n      PUSH 0\t\t\t \n      MSTORE \t\t\t stuff, like call winner funct...\n      PUSH 32\t\t\to th\n      PUSH 4\t\t\tt\n      MSTORE \t\t\td to pot to the\n      PUSH 24\t\t\tt256\n      PUSH 0\t\t\tu\n      REVERT \t\t\t       uint256 \n    tag 301\t\t\t = s_randomWords[0] % particip...\n      JUMPDEST \t\t\t = s_randomWords[0] % particip...\n      PUSH 0\t\t\tt\n      DUP3 \t\t\t \n      PUSH [tag] 462\t\t\t   address winner = participan...\n      JUMPI \t\t\t   address winner = participan...\n      PUSH [tag] 462\t\t\ter = participants[\n      PUSH [tag] 364\t\t\ter = participants[\n      JUMP \t\t\ter = participants[\n    tag 462\t\t\ter = participants[\n      JUMPDEST \t\t\ter = participants[\n      POP \t\t\t\n      MOD \t\t\t       //\n      SWAP1 \t\t\t       //\n      JUMP \t\t\t = s_randomWords[0] % particip...\n    tag 327\t\t\tenAddress = payable(s_thriftCl...\n      JUMPDEST \t\t\tenAddress = payable(s_thriftCl...\n      PUSH 0\t\t\t;\\n\\n\n      PUSH 1\t\t\tuccess = IERC20(s\n      DUP3 \t\t\tuccess = IERC20(s\n      ADD \t\t\tuccess = IERC20(s\n      PUSH [tag] 468\t\t\tl success = IERC20(s_thriftClu...\n      JUMPI \t\t\tl success = IERC20(s_thriftClu...\n      PUSH [tag] 468\t\t\triftClub.token).tr\n      PUSH [tag] 363\t\t\triftClub.token).tr\n      JUMP \t\t\triftClub.token).tr\n    tag 468\t\t\triftClub.token).tr\n      JUMPDEST \t\t\triftClub.token).tr\n      POP \t\t\t\n      PUSH 1\t\t\te\n      ADD \t\t\t      msg.sen\n      SWAP1 \t\t\t      msg.sen\n      JUMP \t\t\tenAddress = payable(s_thriftCl...\n    tag 340\t\t\tParticipant) {\\n            s_...\n      JUMPDEST \t\t\tParticipant) {\\n            s_...\n      PUSH 0\t\t\t      \n      PUSH 20\t\t\tAN\n      DUP3 \t\t\t.t_state \n      DUP5 \t\t\thriftCl\n      SUB \t\t\t s_thriftClub.t_state =\n      SLT \t\t\t     s_thriftClub.t_state = TA...\n      ISZERO \t\t\t        s_thriftClub.t_state =...\n      PUSH [tag] 471\t\t\t        s_thriftClub.t_state =...\n      JUMPI \t\t\t        s_thriftClub.t_state =...\n      PUSH 0\t\t\t\\n\n      DUP1 \t\t\tE\n      REVERT \t\t\tTATE.OPEN;\\n \n    tag 471\t\t\t        s_thriftClub.t_state =...\n      JUMPDEST \t\t\t        s_thriftClub.t_state =...\n      POP \t\t\t\n      MLOAD \t\t\tunction getThrif\n      SWAP2 \t\t\tunction getThrif\n      SWAP1 \t\t\tParticipant) {\\n            s_...\n      POP \t\t\t\n      JUMP \t\t\tParticipant) {\\n            s_...\n    tag 365\t\t\t public view returns (ThriftCl...\n      JUMPDEST \t\t\t public view returns (ThriftCl...\n      DUP1 \t\t\tftClubData(\\n \n      MLOAD \t\t\tftClubData(\\n \n      PUSH FFFFFFFFFFFFFFFFFFFF\t\t\t           s_thriftClu\n      DUP2 \t\t\token,\\n                s_thrif...\n      AND \t\t\token,\\n                s_thrif...\n      DUP2 \t\t\triftClub.token,\\n             ...\n      EQ \t\t\triftClub.token,\\n             ...\n      PUSH [tag] 368\t\t\t      s_thriftClub.token,\\n   ...\n      JUMPI \t\t\t      s_thriftClub.token,\\n   ...\n      PUSH 0\t\t\t\\n\n      DUP1 \t\t\to\n      REVERT \t\t\teDuration,\\n \n    tag 345\t\t\t  s_thriftClub.contributionAmo...\n      JUMPDEST \t\t\t  s_thriftClub.contributionAmo...\n      PUSH 0\t\t\taxPart\n      DUP1 \t\t\tipant,\n      PUSH 0\t\t\t      \n      DUP1 \t\t\t      \n      PUSH 0\t\t\t_thrif\n      PUSH A0\t\t\tpti\n      DUP7 \t\t\ttClub.des\n      DUP9 \t\t\t  s_thr\n      SUB \t\t\t      s_thriftClub.desc\n      SLT \t\t\t          s_thriftClub.descrip...\n      ISZERO \t\t\t             s_thriftClub.desc...\n      PUSH [tag] 475\t\t\t             s_thriftClub.desc...\n      JUMPI \t\t\t             s_thriftClub.desc...\n      PUSH 0\t\t\t \n      DUP1 \t\t\t \n      REVERT \t\t\t            \n    tag 475\t\t\t             s_thriftClub.desc...\n      JUMPDEST \t\t\t             s_thriftClub.desc...\n      PUSH [tag] 476\t\t\tontract,\\n                s_th...\n      DUP7 \t\t\triftClub.\n      PUSH [tag] 365\t\t\tontract,\\n                s_th...\n      JUMP \t\t\tontract,\\n                s_th...\n    tag 476\t\t\tontract,\\n                s_th...\n      JUMPDEST \t\t\tontract,\\n                s_th...\n      SWAP5 \t\t\ttClub.nftContract,\\n          ...\n      POP \t\t\ttClub.nftContract,\\n          ...\n      PUSH 20\t\t\t.t\n      DUP7 \t\t\t_thriftCl\n      ADD \t\t\t   s_thriftClub.t_\n      MLOAD \t\t\t         s_thriftClub.t_s\n      SWAP4 \t\t\tt,\\n                s_thriftCl...\n      POP \t\t\tt,\\n                s_thriftCl...\n      PUSH 40\t\t\tpd\n      DUP7 \t\t\ttClub.las\n      ADD \t\t\thriftClub.lastUpda\n      MLOAD \t\t\t   s_thriftClub.lastUpdat\n      SWAP3 \t\t\t             s_thriftClub.last...\n      POP \t\t\t             s_thriftClub.last...\n      PUSH 60\t\t\tct\n      DUP7 \t\t\t }\\n\\n    f\n      ADD \t\t\t\\n    }\\n\\n    functi\n      MLOAD \t\t\t    );\\n    }\\n\\n    functio\n      SWAP2 \t\t\tp\\n            );\\n    }\\n\\n  ...\n      POP \t\t\tp\\n            );\\n    }\\n\\n  ...\n      PUSH [tag] 477\t\t\t(uint64 subscriptionId) intern...\n      PUSH 80\t\t\t_su\n      DUP8 \t\t\t{\\n       \n      ADD \t\t\tnal {\\n        s_sub\n      PUSH [tag] 365\t\t\t(uint64 subscriptionId) intern...\n      JUMP \t\t\t(uint64 subscriptionId) intern...\n    tag 477\t\t\t(uint64 subscriptionId) intern...\n      JUMPDEST \t\t\t(uint64 subscriptionId) intern...\n      SWAP1 \t\t\tcriptionId(uint64 subscription...\n      POP \t\t\tcriptionId(uint64 subscription...\n      SWAP3 \t\t\t  s_thriftClub.contributionAmo...\n      SWAP6 \t\t\t  s_thriftClub.contributionAmo...\n      POP \t\t\t  s_thriftClub.contributionAmo...\n      SWAP3 \t\t\t  s_thriftClub.contributionAmo...\n      SWAP6 \t\t\t  s_thriftClub.contributionAmo...\n      SWAP1 \t\t\t  s_thriftClub.contributionAmo...\n      SWAP4 \t\t\t  s_thriftClub.contributionAmo...\n      POP \t\t\t  s_thriftClub.contributionAmo...\n      JUMP \t\t\t  s_thriftClub.contributionAmo...\n    tag 347\t\t\t= subscriptionId;\\n    }\\n\\n  ...\n      JUMPDEST \t\t\t= subscriptionId;\\n    }\\n\\n  ...\n      DUP1 \t\t\tturns (ui\n      DUP3 \t\t\tturns (ui\n      MUL \t\t\tturns (ui\n      PUSH 0\t\t\tetSubsc\n      DUP3 \t\t\treturn s_\n      SLT \t\t\treturn s_\n      PUSH 1\t\t\t\n      PUSH FF\t\t\t\n      SHL \t\t\t\n      DUP5 \t\t\tbscriptionId;\\n    \n      EQ \t\t\tbscriptionId;\\n    \n      AND \t\t\t    return s_subscriptionId;\\n...\n      ISZERO \t\t\t       return s_subscriptionId...\n      PUSH [tag] 480\t\t\t       return s_subscriptionId...\n      JUMPI \t\t\t       return s_subscriptionId...\n      PUSH [tag] 480\t\t\t\n      PUSH [tag] 363\t\t\t\n      JUMP \t\t\t\n    tag 480\t\t\t\n      JUMPDEST \t\t\t\n      DUP2 \t\t\t\n      DUP2 \t\t\t\n      SDIV \t\t\t\n      DUP4 \t\t\t\n      EQ \t\t\t\n      DUP3 \t\t\t\n      ISZERO \t\t\t\n      OR \t\t\t\n      PUSH [tag] 287\t\t\t\n      JUMPI \t\t\t\n      PUSH [tag] 287\t\t\t\n      PUSH [tag] 363\t\t\t\n      JUMP \t\t\t\n    .data\n"
}