{
  "_format": "hh-sol-artifact-1",
  "contractName": "ThriftClub",
  "sourceName": "contracts/ThriftClub.sol",
  "abi": [
    {
      "inputs": [
        {
          "internalType": "address",
          "name": "_token",
          "type": "address"
        },
        {
          "internalType": "uint256",
          "name": "_cycleDuration",
          "type": "uint256"
        },
        {
          "internalType": "uint256",
          "name": "_contributionAmount",
          "type": "uint256"
        },
        {
          "internalType": "uint256",
          "name": "_penalty",
          "type": "uint256"
        },
        {
          "internalType": "uint256",
          "name": "_maxParticipant",
          "type": "uint256"
        },
        {
          "internalType": "string",
          "name": "_name",
          "type": "string"
        },
        {
          "internalType": "string",
          "name": "_description",
          "type": "string"
        },
        {
          "internalType": "address",
          "name": "_nftContract",
          "type": "address"
        },
        {
          "internalType": "address",
          "name": "_daoContract",
          "type": "address"
        }
      ],
      "stateMutability": "nonpayable",
      "type": "constructor"
    },
    {
      "inputs": [
        {
          "internalType": "address",
          "name": "have",
          "type": "address"
        },
        {
          "internalType": "address",
          "name": "want",
          "type": "address"
        }
      ],
      "name": "OnlyCoordinatorCanFulfill",
      "type": "error"
    },
    {
      "inputs": [],
      "name": "__TransferFailed",
      "type": "error"
    },
    {
      "anonymous": false,
      "inputs": [
        {
          "indexed": false,
          "internalType": "address",
          "name": "recipient",
          "type": "address"
        },
        {
          "indexed": false,
          "internalType": "uint256",
          "name": "amount",
          "type": "uint256"
        }
      ],
      "name": "AddressPaid",
      "type": "event"
    },
    {
      "anonymous": false,
      "inputs": [
        {
          "indexed": true,
          "internalType": "address",
          "name": "winner",
          "type": "address"
        }
      ],
      "name": "CycleStarted",
      "type": "event"
    },
    {
      "anonymous": false,
      "inputs": [
        {
          "indexed": true,
          "internalType": "address",
          "name": "participant",
          "type": "address"
        }
      ],
      "name": "ParticipantJoined",
      "type": "event"
    },
    {
      "inputs": [],
      "name": "MAXIMUM_FEE_USD",
      "outputs": [
        {
          "internalType": "uint256",
          "name": "",
          "type": "uint256"
        }
      ],
      "stateMutability": "view",
      "type": "function"
    },
    {
      "inputs": [],
      "name": "ServiceFeePurse",
      "outputs": [
        {
          "internalType": "uint256",
          "name": "",
          "type": "uint256"
        }
      ],
      "stateMutability": "view",
      "type": "function"
    },
    {
      "inputs": [
        {
          "internalType": "address",
          "name": "",
          "type": "address"
        }
      ],
      "name": "ServiceFeePurseTokenBalances",
      "outputs": [
        {
          "internalType": "uint256",
          "name": "",
          "type": "uint256"
        }
      ],
      "stateMutability": "view",
      "type": "function"
    },
    {
      "inputs": [],
      "name": "ThriftPurseBalance",
      "outputs": [
        {
          "internalType": "uint256",
          "name": "",
          "type": "uint256"
        }
      ],
      "stateMutability": "view",
      "type": "function"
    },
    {
      "inputs": [],
      "name": "ThriftPursePenaltyBalance",
      "outputs": [
        {
          "internalType": "uint256",
          "name": "",
          "type": "uint256"
        }
      ],
      "stateMutability": "view",
      "type": "function"
    },
    {
      "inputs": [
        {
          "internalType": "address",
          "name": "",
          "type": "address"
        }
      ],
      "name": "ThriftPursePenaltyTokenBalance",
      "outputs": [
        {
          "internalType": "uint256",
          "name": "",
          "type": "uint256"
        }
      ],
      "stateMutability": "view",
      "type": "function"
    },
    {
      "inputs": [
        {
          "internalType": "address",
          "name": "",
          "type": "address"
        }
      ],
      "name": "ThriftPurseTokenBalance",
      "outputs": [
        {
          "internalType": "uint256",
          "name": "",
          "type": "uint256"
        }
      ],
      "stateMutability": "view",
      "type": "function"
    },
    {
      "inputs": [
        {
          "internalType": "bytes",
          "name": "checkData",
          "type": "bytes"
        }
      ],
      "name": "checkUpkeep",
      "outputs": [
        {
          "internalType": "bool",
          "name": "upkeepNeeded",
          "type": "bool"
        },
        {
          "internalType": "bytes",
          "name": "performData",
          "type": "bytes"
        }
      ],
      "stateMutability": "nonpayable",
      "type": "function"
    },
    {
      "inputs": [],
      "name": "daoContract",
      "outputs": [
        {
          "internalType": "contract IDAOContract",
          "name": "",
          "type": "address"
        }
      ],
      "stateMutability": "view",
      "type": "function"
    },
    {
      "inputs": [],
      "name": "getSubscriptionId",
      "outputs": [
        {
          "internalType": "uint64",
          "name": "",
          "type": "uint64"
        }
      ],
      "stateMutability": "view",
      "type": "function"
    },
    {
      "inputs": [],
      "name": "getThriftClubData",
      "outputs": [
        {
          "components": [
            {
              "internalType": "address",
              "name": "token",
              "type": "address"
            },
            {
              "internalType": "uint256",
              "name": "cycleDuration",
              "type": "uint256"
            },
            {
              "internalType": "uint256",
              "name": "contributionAmount",
              "type": "uint256"
            },
            {
              "internalType": "uint256",
              "name": "penalty",
              "type": "uint256"
            },
            {
              "internalType": "uint256",
              "name": "maxParticipant",
              "type": "uint256"
            },
            {
              "internalType": "string",
              "name": "name",
              "type": "string"
            },
            {
              "internalType": "string",
              "name": "description",
              "type": "string"
            },
            {
              "internalType": "contract IERC721",
              "name": "nftContract",
              "type": "address"
            },
            {
              "internalType": "contract IDAOContract",
              "name": "daoContract",
              "type": "address"
            },
            {
              "internalType": "enum ThriftClub.TANDA_STATE",
              "name": "t_state",
              "type": "uint8"
            },
            {
              "internalType": "uint256",
              "name": "lastUpdateTimestamp",
              "type": "uint256"
            }
          ],
          "internalType": "struct ThriftClub.ThriftClubData",
          "name": "",
          "type": "tuple"
        }
      ],
      "stateMutability": "view",
      "type": "function"
    },
    {
      "inputs": [
        {
          "internalType": "address",
          "name": "",
          "type": "address"
        }
      ],
      "name": "hasPaidPenalty",
      "outputs": [
        {
          "internalType": "bool",
          "name": "",
          "type": "bool"
        }
      ],
      "stateMutability": "view",
      "type": "function"
    },
    {
      "inputs": [],
      "name": "i_priceFeedToken",
      "outputs": [
        {
          "internalType": "address",
          "name": "",
          "type": "address"
        }
      ],
      "stateMutability": "view",
      "type": "function"
    },
    {
      "inputs": [
        {
          "internalType": "address",
          "name": "",
          "type": "address"
        }
      ],
      "name": "isParticipant",
      "outputs": [
        {
          "internalType": "bool",
          "name": "",
          "type": "bool"
        }
      ],
      "stateMutability": "view",
      "type": "function"
    },
    {
      "inputs": [
        {
          "internalType": "address",
          "name": "_tokenAddress",
          "type": "address"
        },
        {
          "internalType": "uint256",
          "name": "_tokenAmount",
          "type": "uint256"
        }
      ],
      "name": "joinThriftClub",
      "outputs": [],
      "stateMutability": "payable",
      "type": "function"
    },
    {
      "inputs": [
        {
          "internalType": "address",
          "name": "operator",
          "type": "address"
        },
        {
          "internalType": "address",
          "name": "from",
          "type": "address"
        },
        {
          "internalType": "uint256",
          "name": "tokenId",
          "type": "uint256"
        },
        {
          "internalType": "bytes",
          "name": "data",
          "type": "bytes"
        }
      ],
      "name": "onERC721Received",
      "outputs": [
        {
          "internalType": "bytes4",
          "name": "",
          "type": "bytes4"
        }
      ],
      "stateMutability": "nonpayable",
      "type": "function"
    },
    {
      "inputs": [
        {
          "internalType": "uint256",
          "name": "",
          "type": "uint256"
        }
      ],
      "name": "participants",
      "outputs": [
        {
          "internalType": "address",
          "name": "",
          "type": "address"
        }
      ],
      "stateMutability": "view",
      "type": "function"
    },
    {
      "inputs": [
        {
          "internalType": "address",
          "name": "_tokenAddress",
          "type": "address"
        },
        {
          "internalType": "uint256",
          "name": "_tokenAmount",
          "type": "uint256"
        }
      ],
      "name": "payPenaltyFee",
      "outputs": [],
      "stateMutability": "payable",
      "type": "function"
    },
    {
      "inputs": [
        {
          "internalType": "bytes",
          "name": "performData",
          "type": "bytes"
        }
      ],
      "name": "performUpkeep",
      "outputs": [],
      "stateMutability": "nonpayable",
      "type": "function"
    },
    {
      "inputs": [
        {
          "internalType": "uint256",
          "name": "requestId",
          "type": "uint256"
        },
        {
          "internalType": "uint256[]",
          "name": "randomWords",
          "type": "uint256[]"
        }
      ],
      "name": "rawFulfillRandomWords",
      "outputs": [],
      "stateMutability": "nonpayable",
      "type": "function"
    },
    {
      "inputs": [
        {
          "internalType": "uint256",
          "name": "",
          "type": "uint256"
        }
      ],
      "name": "s_randomWords",
      "outputs": [
        {
          "internalType": "uint256",
          "name": "",
          "type": "uint256"
        }
      ],
      "stateMutability": "view",
      "type": "function"
    },
    {
      "inputs": [],
      "name": "s_requestId",
      "outputs": [
        {
          "internalType": "uint256",
          "name": "",
          "type": "uint256"
        }
      ],
      "stateMutability": "view",
      "type": "function"
    },
    {
      "inputs": [],
      "name": "s_thriftClub",
      "outputs": [
        {
          "internalType": "address",
          "name": "token",
          "type": "address"
        },
        {
          "internalType": "uint256",
          "name": "cycleDuration",
          "type": "uint256"
        },
        {
          "internalType": "uint256",
          "name": "contributionAmount",
          "type": "uint256"
        },
        {
          "internalType": "uint256",
          "name": "penalty",
          "type": "uint256"
        },
        {
          "internalType": "uint256",
          "name": "maxParticipant",
          "type": "uint256"
        },
        {
          "internalType": "string",
          "name": "name",
          "type": "string"
        },
        {
          "internalType": "string",
          "name": "description",
          "type": "string"
        },
        {
          "internalType": "contract IERC721",
          "name": "nftContract",
          "type": "address"
        },
        {
          "internalType": "contract IDAOContract",
          "name": "daoContract",
          "type": "address"
        },
        {
          "internalType": "enum ThriftClub.TANDA_STATE",
          "name": "t_state",
          "type": "uint8"
        },
        {
          "internalType": "uint256",
          "name": "lastUpdateTimestamp",
          "type": "uint256"
        }
      ],
      "stateMutability": "view",
      "type": "function"
    }
  ],
  "bytecode": "0x6101e06040526000600a55600d8054737a1bac17ccc5b313516c5e16fb24f7659aa5ebed6001600160a01b031991821617909155600e805473326c977e6efc84e512bb9c30f76e30c160ed06fb9083161790557f474e34a077df58807dbe9c96d3c009b23b3c6d0cce433e59bbf5b34f823bc56c600f55601080546001600160501b03191666010003000186a0179055601554601480546001600160a01b0390921691909216179055348015620000b557600080fd5b506040516200250d3803806200250d833981016040819052620000d891620005cc565b600d546001600160a01b039081166080819052600b80546001600160a01b03199081169092179055600e54600c8054831691841691909117905573d0d5e3db44de05e9f294bb0a3beeaf030de24ada60a05273572ddec9087154dc5dfbb1546bb62713147e0ab060c0527392c09849638959196e976289418e5973cc96d64560e052730fcaa9c899ec5a91ebc3d5dd869de833b06fb04661010052727a22900a3b98143368bd5906f8e17e9867581b610120526000610140819052730fa8781a83e46826621b3bc094ea2a0212e71b236101605273a02f6adc7926efebbd59fd43a84f4e0c0c91e83261018052721b3b4d0f3714ca98ba10f6042daebf0b1b7b6f6101a052730d787a4a1548f673ed375445535a6c7a1ee561806101c0528054928c1692909116919091179055600188905560028790556003869055600485905583516200022e9060059060208701906200043c565b508251620002449060069060208601906200043c565b50600780546001600160a01b0319166001600160a01b0384811691909117909155600880546001600160a81b03191691831691909117905542600955816200028c8a6200029c565b50505050505050505050620006d5565b610160516001600160a01b0316816001600160a01b03161415620002e05761016051601580546001600160a01b0319166001600160a01b0390921691909117905550565b610180516001600160a01b0316816001600160a01b03161415620003245761018051601580546001600160a01b0319166001600160a01b0390921691909117905550565b6101a0516001600160a01b0316816001600160a01b0316141562000368576101a051601580546001600160a01b0319166001600160a01b0390921691909117905550565b6101c0516001600160a01b0316816001600160a01b03161415620003ac576101c051601580546001600160a01b0319166001600160a01b0390921691909117905550565b610140516001600160a01b0316816001600160a01b03161415620003f05761014051601580546001600160a01b0319166001600160a01b0390921691909117905550565b60405162461bcd60e51b815260206004820152601560248201527f496e76616c696420746f6b656e20616464726573730000000000000000000000604482015260640160405180910390fd5b8280546200044a9062000698565b90600052602060002090601f0160209004810192826200046e5760008555620004b9565b82601f106200048957805160ff1916838001178555620004b9565b82800160010185558215620004b9579182015b82811115620004b95782518255916020019190600101906200049c565b50620004c7929150620004cb565b5090565b5b80821115620004c75760008155600101620004cc565b80516001600160a01b0381168114620004fa57600080fd5b919050565b634e487b7160e01b600052604160045260246000fd5b600082601f8301126200052757600080fd5b81516001600160401b0380821115620005445762000544620004ff565b604051601f8301601f19908116603f011681019082821181831017156200056f576200056f620004ff565b816040528381526020925086838588010111156200058c57600080fd5b600091505b83821015620005b0578582018301518183018401529082019062000591565b83821115620005c25760008385830101525b9695505050505050565b60008060008060008060008060006101208a8c031215620005ec57600080fd5b620005f78a620004e2565b60208b015160408c015160608d015160808e015160a08f0151949d50929b50909950975095506001600160401b03808211156200063357600080fd5b620006418d838e0162000515565b955060c08c01519150808211156200065857600080fd5b50620006678c828d0162000515565b9350506200067860e08b01620004e2565b9150620006896101008b01620004e2565b90509295985092959850929598565b600181811c90821680620006ad57607f821691505b60208210811415620006cf57634e487b7160e01b600052602260045260246000fd5b50919050565b60805160a05160c05160e05161010051610120516101405161016051610180516101a0516101c051611dc562000748600039600050506000505060005050600050506000505060005050600050506000505060005050600061062a0152600081816109db0152610a1d0152611dc56000f3fe6080604052600436106101405760003560e01c80636adc21ea116100b6578063993f507c1161006f578063993f507c146103eb578063b8d6338d14610417578063de28c2ec14610439578063de3d9fb71461044f578063e89e106a14610478578063f6eaffc81461048e57600080fd5b80636adc21ea146103275780636e04ff0d1461033a57806376fe16cb14610368578063774dee89146103885780638fd2ea4a146103a5578063929066f5146103bb57600080fd5b806335c1d3491161010857806335c1d3491461022c5780634585e33b146102645780634a7ffcbc146102845780634bca67bf146102a45780635226e60b146102e45780635fa17ec5146102fa57600080fd5b80630a1b0e3c14610145578063150b7a02146101855780631fbfce1b146101ca5780631fe543e3146101df5780632c7eb91d146101ff575b600080fd5b34801561015157600080fd5b50610172610160366004611701565b601d6020526000908152604090205481565b6040519081526020015b60405180910390f35b34801561019157600080fd5b506101b16101a0366004611765565b630a85bd0160e11b95945050505050565b6040516001600160e01b0319909116815260200161017c565b6101dd6101d83660046117d4565b6104ae565b005b3480156101eb57600080fd5b506101dd6101fa366004611814565b6109d0565b34801561020b57600080fd5b5061017261021a366004611701565b601b6020526000908152604090205481565b34801561023857600080fd5b5061024c6102473660046118de565b610a58565b6040516001600160a01b03909116815260200161017c565b34801561027057600080fd5b506101dd61027f3660046118f7565b610a82565b34801561029057600080fd5b5060195461024c906001600160a01b031681565b3480156102b057600080fd5b506102d46102bf366004611701565b60186020526000908152604090205460ff1681565b604051901515815260200161017c565b3480156102f057600080fd5b50610172601a5481565b34801561030657600080fd5b50610172610315366004611701565b601f6020526000908152604090205481565b6101dd6103353660046117d4565b610acd565b34801561034657600080fd5b5061035a6103553660046118f7565b610d4b565b60405161017c929190611986565b34801561037457600080fd5b5060155461024c906001600160a01b031681565b34801561039457600080fd5b506101726802b5e3af16b188000081565b3480156103b157600080fd5b50610172601e5481565b3480156103c757600080fd5b506102d46103d6366004611701565b60166020526000908152604090205460ff1681565b3480156103f757600080fd5b50610400610de6565b60405161017c9b9a999897969594939291906119e1565b34801561042357600080fd5b5061042c610f54565b60405161017c9190611a6a565b34801561044557600080fd5b50610172601c5481565b34801561045b57600080fd5b5060135460405167ffffffffffffffff909116815260200161017c565b34801561048457600080fd5b5061017260125481565b34801561049a57600080fd5b506101726104a93660046118de565b61110d565b6104b66115ff565b3360009081526018602052604090205460ff166105115760405162461bcd60e51b815260206004820152601460248201527314195b985b1d1e48199959481b9bdd081c185a5960621b60448201526064015b60405180910390fd5b3360009081526016602052604090205460ff16156105695760405162461bcd60e51b8152602060048201526015602482015274105b1c9958591e4818481c185c9d1a58da5c185b9d605a1b6044820152606401610508565b6000546001600160a01b038481169116146105965760405162461bcd60e51b815260040161050890611b47565b6001600160a01b0383166106c9576802b5e3af16b188000081604001516105bd9190611b84565b34146105fe5760405162461bcd60e51b815260206004820152601060248201526f125b98dbdc9c9958dd08185b5bdd5b9d60821b6044820152606401610508565b60006802b5e3af16b188000061061560c834611bb2565b11156106555761064e6802b5e3af16b18800007f000000000000000000000000000000000000000000000000000000000000000061112e565b9050610663565b61066060c834611bb2565b90505b80601a60008282546106759190611b84565b90915550506040820151601c8054600090610691908490611b84565b909155505060405130903480156108fc02916000818181858888f193505050501580156106c2573d6000803e3d6000fd5b50506108bb565b341561070d5760405162461bcd60e51b8152602060048201526013602482015272496e76616c69642045746865722076616c756560681b6044820152606401610508565b600082116107545760405162461bcd60e51b8152602060048201526014602482015273125b9d985b1a59081d1bdad95b88185b5bdd5b9d60621b6044820152606401610508565b80516001600160a01b038481169116146107805760405162461bcd60e51b815260040161050890611b47565b60006802b5e3af16b188000061079760c885611bb2565b11156107c4576014546107bd906802b5e3af16b1880000906001600160a01b031661112e565b90506107d2565b6107cf60c884611bb2565b90505b6001600160a01b0384166000908152601b6020526040812080548392906107fa908490611b84565b90915550506040808301516001600160a01b0386166000908152601d60205291822080549192909161082d908490611b84565b90915550506040516323b872dd60e01b8152336004820152306024820152604481018490526001600160a01b038516906323b872dd90606401602060405180830381600087803b15801561088057600080fd5b505af1158015610894573d6000803e3d6000fd5b505050506040513d601f19601f820116820180604052508101906108b89190611bc6565b50505b6017805460018082019092557fc624b66cc0138b8fabc209247f72d758e1cf3343756d543badbf24212bed8c150180546001600160a01b0319163390811790915560008181526016602052604090819020805460ff1916909317909255601954915163329b55b760e21b815260048101919091526001600160a01b039091169063ca6d56dc90602401600060405180830381600087803b15801561095e57600080fd5b505af1158015610972573d6000803e3d6000fd5b50506040513392507f6cd71e167cab47cb2ccb763aada102691b585b848adb6395f1da4ac187b9214a9150600090a2601754608082015114156109cb57600281610120015160038111156109c8576109c86119a9565b50505b505050565b336001600160a01b037f00000000000000000000000000000000000000000000000000000000000000001614610a4a5760405163073e64fd60e21b81523360048201526001600160a01b037f0000000000000000000000000000000000000000000000000000000000000000166024820152604401610508565b610a548282611164565b5050565b60178181548110610a6857600080fd5b6000918252602090912001546001600160a01b0316905081565b600854600954600154600160a01b90920460ff16916002836003811115610aab57610aab6119a9565b148015610ac05750610abd8183611b84565b42115b156109c8576109c86114a0565b610ad56115ff565b3360009081526018602052604090205460ff1615610b355760405162461bcd60e51b815260206004820152601860248201527f50656e616c74792066656520616c7265616479207061696400000000000000006044820152606401610508565b6000546001600160a01b03848116911614610b625760405162461bcd60e51b815260040161050890611b47565b6001600160a01b038316610c105780606001513414610bc35760405162461bcd60e51b815260206004820152601c60248201527f496e636f72726563742070656e616c74792066656520616d6f756e74000000006044820152606401610508565b8060600151601e6000828254610bd99190611b84565b909155505060405130903480156108fc02916000818181858888f19350505050158015610c0a573d6000803e3d6000fd5b50610d2c565b80606001518214610c725760405162461bcd60e51b815260206004820152602660248201527f496e636f727265637420746f6b656e20616d6f756e7420666f722070656e616c60448201526574792066656560d01b6064820152608401610508565b60608101516001600160a01b0384166000908152601f602052604081208054909190610c9f908490611b84565b90915550506040516323b872dd60e01b8152336004820152306024820152604481018390526001600160a01b038416906323b872dd90606401602060405180830381600087803b158015610cf257600080fd5b505af1158015610d06573d6000803e3d6000fd5b505050506040513d601f19601f82011682018060405250810190610d2a9190611bc6565b505b5050336000908152601860205260409020805460ff1916600117905550565b600854600954600154600092606092600160a01b90910460ff16916002836003811115610d7a57610d7a6119a9565b148015610d8f5750610d8c8183611b84565b42115b15610d9d5760019450610da2565b600094505b86868080601f016020809104026020016040519081016040528093929190818152602001838380828437600092019190915250979a92995091975050505050505050565b60008054600154600254600354600454600580546001600160a01b0390961696949593949293919291610e1890611be8565b80601f0160208091040260200160405190810160405280929190818152602001828054610e4490611be8565b8015610e915780601f10610e6657610100808354040283529160200191610e91565b820191906000526020600020905b815481529060010190602001808311610e7457829003601f168201915b505050505090806006018054610ea690611be8565b80601f0160208091040260200160405190810160405280929190818152602001828054610ed290611be8565b8015610f1f5780601f10610ef457610100808354040283529160200191610f1f565b820191906000526020600020905b815481529060010190602001808311610f0257829003601f168201915b505050506007830154600884015460099094015492936001600160a01b03918216939181169250600160a01b900460ff16908b565b610f5c6115ff565b60408051610160810182526000546001600160a01b03168152600154602082015260025491810191909152600354606082015260045460808201526005805460a083019190610faa90611be8565b80601f0160208091040260200160405190810160405280929190818152602001828054610fd690611be8565b80156110235780601f10610ff857610100808354040283529160200191611023565b820191906000526020600020905b81548152906001019060200180831161100657829003601f168201915b505050505081526020016000600601805461103d90611be8565b80601f016020809104026020016040519081016040528092919081815260200182805461106990611be8565b80156110b65780601f1061108b576101008083540402835291602001916110b6565b820191906000526020600020905b81548152906001019060200180831161109957829003601f168201915b50505091835250506007546001600160a01b0390811660208301526008549081166040830152606090910190600160a01b900460ff1660038111156110fd576110fd6119a9565b8152600954602090910152919050565b6011818154811061111d57600080fd5b600091825260209091200154905081565b60008061113a8361156d565b90506000670de0b6b3a76400006111518387611c23565b61115b9190611bb2565b95945050505050565b8051611177906011906020840190611685565b506000601780549050601160008154811061119457611194611c42565b90600052602060002001546111a99190611c58565b90506000601782815481106111c0576111c0611c42565b600091825260209091200154601c546001600160a01b0390911691501515806112005750600080546001600160a01b03168152601d602052604090205415155b61124c5760405162461bcd60e51b815260206004820152601d60248201527f4e6f2062616c616e636520696e207468652054687269667450757273650000006044820152606401610508565b601c541561130f57601c5460405160009133918381818185875af1925050503d8060008114611297576040519150601f19603f3d011682016040523d82523d6000602084013e61129c565b606091505b50509050806112be57604051633bdf630f60e11b815260040160405180910390fd5b601c54604080516001600160a01b038516815260208101929092527ff2956657db703b4160a4041a597ea008de026af5e167af02f4be706e475f6bd4910160405180910390a1506000601c55611453565b600080546001600160a01b03168152601d60205260409020541561145357600080546001600160a01b0316808252601d602052604080832054905163a9059cbb60e01b81523360048201526024810191909152909190829063a9059cbb90604401602060405180830381600087803b15801561138a57600080fd5b505af115801561139e573d6000803e3d6000fd5b505050506040513d601f19601f820116820180604052508101906113c29190611bc6565b9050806113e257604051633bdf630f60e11b815260040160405180910390fd5b600080546001600160a01b039081168252601d60209081526040928390205483519287168352908201527ff2956657db703b4160a4041a597ea008de026af5e167af02f4be706e475f6bd4910160405180910390a15050600080546001600160a01b03168152601d60205260408120555b600a805490600061146383611c6c565b9091555050600454600a54141561148c576008805460ff60a01b1916600160a01b17905561149a565b6008805460ff60a01b191690555b50505050565b600b54600f546013546010546040516305d3b1d360e41b8152600481019390935267ffffffffffffffff9091166024830152640100000000810461ffff16604483015263ffffffff808216606484015266010000000000009091041660848201526001600160a01b0390911690635d3b1d309060a401602060405180830381600087803b15801561153057600080fd5b505af1158015611544573d6000803e3d6000fd5b505050506040513d601f19601f820116820180604052508101906115689190611c87565b601255565b600080826001600160a01b031663feaf968c6040518163ffffffff1660e01b815260040160a06040518083038186803b1580156115a957600080fd5b505afa1580156115bd573d6000803e3d6000fd5b505050506040513d601f19601f820116820180604052508101906115e19190611cba565b505050915050806402540be4006115f89190611d0a565b9392505050565b60405180610160016040528060006001600160a01b0316815260200160008152602001600081526020016000815260200160008152602001606081526020016060815260200160006001600160a01b0316815260200160006001600160a01b0316815260200160006003811115611678576116786119a9565b8152602001600081525090565b8280548282559060005260206000209081019282156116c0579160200282015b828111156116c05782518255916020019190600101906116a5565b506116cc9291506116d0565b5090565b5b808211156116cc57600081556001016116d1565b80356001600160a01b03811681146116fc57600080fd5b919050565b60006020828403121561171357600080fd5b6115f8826116e5565b60008083601f84011261172e57600080fd5b50813567ffffffffffffffff81111561174657600080fd5b60208301915083602082850101111561175e57600080fd5b9250929050565b60008060008060006080868803121561177d57600080fd5b611786866116e5565b9450611794602087016116e5565b935060408601359250606086013567ffffffffffffffff8111156117b757600080fd5b6117c38882890161171c565b969995985093965092949392505050565b600080604083850312156117e757600080fd5b6117f0836116e5565b946020939093013593505050565b634e487b7160e01b600052604160045260246000fd5b6000806040838503121561182757600080fd5b8235915060208084013567ffffffffffffffff8082111561184757600080fd5b818601915086601f83011261185b57600080fd5b81358181111561186d5761186d6117fe565b8060051b604051601f19603f83011681018181108582111715611892576118926117fe565b6040529182528482019250838101850191898311156118b057600080fd5b938501935b828510156118ce578435845293850193928501926118b5565b8096505050505050509250929050565b6000602082840312156118f057600080fd5b5035919050565b6000806020838503121561190a57600080fd5b823567ffffffffffffffff81111561192157600080fd5b61192d8582860161171c565b90969095509350505050565b6000815180845260005b8181101561195f57602081850181015186830182015201611943565b81811115611971576000602083870101525b50601f01601f19169290920160200192915050565b82151581526040602082015260006119a16040830184611939565b949350505050565b634e487b7160e01b600052602160045260246000fd5b600481106119dd57634e487b7160e01b600052602160045260246000fd5b9052565b600061016060018060a01b03808f1684528d60208501528c60408501528b60608501528a60808501528160a0850152611a1c8285018b611939565b915083820360c0850152611a30828a611939565b925080881660e08501528087166101008501525050611a536101208301856119bf565b826101408301529c9b505050505050505050505050565b60208152611a846020820183516001600160a01b03169052565b602082015160408201526040820151606082015260608201516080820152608082015160a0820152600060a08301516101608060c0850152611aca610180850183611939565b915060c0850151601f198584030160e0860152611ae78382611939565b92505060e0850151610100611b06818701836001600160a01b03169052565b8601519050610120611b22868201836001600160a01b03169052565b8601519050610140611b36868201836119bf565b959095015193019290925250919050565b6020808252600d908201526c24b73b30b634b2103a37b5b2b760991b604082015260600190565b634e487b7160e01b600052601160045260246000fd5b60008219821115611b9757611b97611b6e565b500190565b634e487b7160e01b600052601260045260246000fd5b600082611bc157611bc1611b9c565b500490565b600060208284031215611bd857600080fd5b815180151581146115f857600080fd5b600181811c90821680611bfc57607f821691505b60208210811415611c1d57634e487b7160e01b600052602260045260246000fd5b50919050565b6000816000190483118215151615611c3d57611c3d611b6e565b500290565b634e487b7160e01b600052603260045260246000fd5b600082611c6757611c67611b9c565b500690565b6000600019821415611c8057611c80611b6e565b5060010190565b600060208284031215611c9957600080fd5b5051919050565b805169ffffffffffffffffffff811681146116fc57600080fd5b600080600080600060a08688031215611cd257600080fd5b611cdb86611ca0565b9450602086015193506040860151925060608601519150611cfe60808701611ca0565b90509295509295909350565b60006001600160ff1b0381841382841380821686840486111615611d3057611d30611b6e565b600160ff1b6000871282811687830589121615611d4f57611d4f611b6e565b60008712925087820587128484161615611d6b57611d6b611b6e565b87850587128184161615611d8157611d81611b6e565b50505092909302939250505056fea264697066735822122000935eb683cf64e6c729bdb42bb6750ad0fa6141a6c91aa81e7a1549de080c5964736f6c63430008090033",
  "linkReferences": {},
  "deployedLinkReferences": {}
}