{
  "_format": "hh-sol-artifact-1",
  "contractName": "ThriftClub",
  "sourceName": "contracts/ThriftClub.sol",
  "abi": [
    {
      "inputs": [
        {
          "internalType": "address",
          "name": "_token",
          "type": "address"
        },
        {
          "internalType": "uint256",
          "name": "_cycleDuration",
          "type": "uint256"
        },
        {
          "internalType": "uint256",
          "name": "_contributionAmount",
          "type": "uint256"
        },
        {
          "internalType": "uint256",
          "name": "_penalty",
          "type": "uint256"
        },
        {
          "internalType": "uint256",
          "name": "_maxParticipant",
          "type": "uint256"
        },
        {
          "internalType": "string",
          "name": "_name",
          "type": "string"
        },
        {
          "internalType": "string",
          "name": "_description",
          "type": "string"
        },
        {
          "internalType": "address",
          "name": "_nftContract",
          "type": "address"
        },
        {
          "internalType": "address",
          "name": "_daoContract",
          "type": "address"
        }
      ],
      "stateMutability": "payable",
      "type": "constructor"
    },
    {
      "anonymous": false,
      "inputs": [
        {
          "indexed": false,
          "internalType": "address",
          "name": "recipient",
          "type": "address"
        },
        {
          "indexed": false,
          "internalType": "uint256",
          "name": "amount",
          "type": "uint256"
        }
      ],
      "name": "AddressPaid",
      "type": "event"
    },
    {
      "anonymous": false,
      "inputs": [
        {
          "indexed": true,
          "internalType": "address",
          "name": "winner",
          "type": "address"
        }
      ],
      "name": "CycleStarted",
      "type": "event"
    },
    {
      "anonymous": false,
      "inputs": [
        {
          "indexed": true,
          "internalType": "address",
          "name": "participant",
          "type": "address"
        }
      ],
      "name": "ParticipantJoined",
      "type": "event"
    },
    {
      "inputs": [],
      "name": "FULFILLMENT_GAS_LIMIT",
      "outputs": [
        {
          "internalType": "uint64",
          "name": "",
          "type": "uint64"
        }
      ],
      "stateMutability": "view",
      "type": "function"
    },
    {
      "inputs": [],
      "name": "MAXIMUM_FEE_USD",
      "outputs": [
        {
          "internalType": "uint256",
          "name": "",
          "type": "uint256"
        }
      ],
      "stateMutability": "view",
      "type": "function"
    },
    {
      "inputs": [],
      "name": "MIN_FEE",
      "outputs": [
        {
          "internalType": "uint256",
          "name": "",
          "type": "uint256"
        }
      ],
      "stateMutability": "view",
      "type": "function"
    },
    {
      "inputs": [],
      "name": "SALT_PREFIX",
      "outputs": [
        {
          "internalType": "bytes32",
          "name": "",
          "type": "bytes32"
        }
      ],
      "stateMutability": "view",
      "type": "function"
    },
    {
      "inputs": [],
      "name": "ServiceFeePurse",
      "outputs": [
        {
          "internalType": "uint256",
          "name": "",
          "type": "uint256"
        }
      ],
      "stateMutability": "view",
      "type": "function"
    },
    {
      "inputs": [
        {
          "internalType": "address",
          "name": "",
          "type": "address"
        }
      ],
      "name": "ServiceFeePurseTokenBalances",
      "outputs": [
        {
          "internalType": "uint256",
          "name": "",
          "type": "uint256"
        }
      ],
      "stateMutability": "view",
      "type": "function"
    },
    {
      "inputs": [],
      "name": "ThriftPurseBalance",
      "outputs": [
        {
          "internalType": "uint256",
          "name": "",
          "type": "uint256"
        }
      ],
      "stateMutability": "view",
      "type": "function"
    },
    {
      "inputs": [],
      "name": "ThriftPursePenaltyBalance",
      "outputs": [
        {
          "internalType": "uint256",
          "name": "",
          "type": "uint256"
        }
      ],
      "stateMutability": "view",
      "type": "function"
    },
    {
      "inputs": [
        {
          "internalType": "address",
          "name": "",
          "type": "address"
        }
      ],
      "name": "ThriftPursePenaltyTokenBalance",
      "outputs": [
        {
          "internalType": "uint256",
          "name": "",
          "type": "uint256"
        }
      ],
      "stateMutability": "view",
      "type": "function"
    },
    {
      "inputs": [
        {
          "internalType": "address",
          "name": "",
          "type": "address"
        }
      ],
      "name": "ThriftPurseTokenBalance",
      "outputs": [
        {
          "internalType": "uint256",
          "name": "",
          "type": "uint256"
        }
      ],
      "stateMutability": "view",
      "type": "function"
    },
    {
      "inputs": [],
      "name": "VRF_BLOCKS_DELAY",
      "outputs": [
        {
          "internalType": "uint32",
          "name": "",
          "type": "uint32"
        }
      ],
      "stateMutability": "view",
      "type": "function"
    },
    {
      "inputs": [],
      "name": "daoContract",
      "outputs": [
        {
          "internalType": "contract IDAOContract",
          "name": "",
          "type": "address"
        }
      ],
      "stateMutability": "view",
      "type": "function"
    },
    {
      "inputs": [],
      "name": "fulfillRequest",
      "outputs": [],
      "stateMutability": "nonpayable",
      "type": "function"
    },
    {
      "inputs": [],
      "name": "getThriftClubData",
      "outputs": [
        {
          "components": [
            {
              "internalType": "address",
              "name": "token",
              "type": "address"
            },
            {
              "internalType": "uint256",
              "name": "cycleDuration",
              "type": "uint256"
            },
            {
              "internalType": "uint256",
              "name": "contributionAmount",
              "type": "uint256"
            },
            {
              "internalType": "uint256",
              "name": "penalty",
              "type": "uint256"
            },
            {
              "internalType": "uint256",
              "name": "maxParticipant",
              "type": "uint256"
            },
            {
              "internalType": "string",
              "name": "name",
              "type": "string"
            },
            {
              "internalType": "string",
              "name": "description",
              "type": "string"
            },
            {
              "internalType": "contract IERC721",
              "name": "nftContract",
              "type": "address"
            },
            {
              "internalType": "contract IDAOContract",
              "name": "daoContract",
              "type": "address"
            },
            {
              "internalType": "enum ThriftClub.TANDA_STATE",
              "name": "t_state",
              "type": "uint8"
            },
            {
              "internalType": "uint256",
              "name": "lastUpdateTimestamp",
              "type": "uint256"
            }
          ],
          "internalType": "struct ThriftClub.ThriftClubData",
          "name": "",
          "type": "tuple"
        }
      ],
      "stateMutability": "view",
      "type": "function"
    },
    {
      "inputs": [
        {
          "internalType": "address",
          "name": "",
          "type": "address"
        }
      ],
      "name": "hasPaidPenalty",
      "outputs": [
        {
          "internalType": "bool",
          "name": "",
          "type": "bool"
        }
      ],
      "stateMutability": "view",
      "type": "function"
    },
    {
      "inputs": [],
      "name": "i_priceFeedToken",
      "outputs": [
        {
          "internalType": "address",
          "name": "",
          "type": "address"
        }
      ],
      "stateMutability": "view",
      "type": "function"
    },
    {
      "inputs": [
        {
          "internalType": "address",
          "name": "",
          "type": "address"
        }
      ],
      "name": "isParticipant",
      "outputs": [
        {
          "internalType": "bool",
          "name": "",
          "type": "bool"
        }
      ],
      "stateMutability": "view",
      "type": "function"
    },
    {
      "inputs": [
        {
          "internalType": "address",
          "name": "_tokenAddress",
          "type": "address"
        },
        {
          "internalType": "uint256",
          "name": "_tokenAmount",
          "type": "uint256"
        }
      ],
      "name": "joinThriftClub",
      "outputs": [],
      "stateMutability": "payable",
      "type": "function"
    },
    {
      "inputs": [
        {
          "internalType": "address",
          "name": "operator",
          "type": "address"
        },
        {
          "internalType": "address",
          "name": "from",
          "type": "address"
        },
        {
          "internalType": "uint256",
          "name": "tokenId",
          "type": "uint256"
        },
        {
          "internalType": "bytes",
          "name": "data",
          "type": "bytes"
        }
      ],
      "name": "onERC721Received",
      "outputs": [
        {
          "internalType": "bytes4",
          "name": "",
          "type": "bytes4"
        }
      ],
      "stateMutability": "nonpayable",
      "type": "function"
    },
    {
      "inputs": [
        {
          "internalType": "uint256",
          "name": "",
          "type": "uint256"
        }
      ],
      "name": "participants",
      "outputs": [
        {
          "internalType": "address",
          "name": "",
          "type": "address"
        }
      ],
      "stateMutability": "view",
      "type": "function"
    },
    {
      "inputs": [
        {
          "internalType": "address",
          "name": "_tokenAddress",
          "type": "address"
        },
        {
          "internalType": "uint256",
          "name": "_tokenAmount",
          "type": "uint256"
        }
      ],
      "name": "payPenaltyFee",
      "outputs": [],
      "stateMutability": "payable",
      "type": "function"
    },
    {
      "inputs": [],
      "name": "randomness",
      "outputs": [
        {
          "internalType": "contract Randomness",
          "name": "",
          "type": "address"
        }
      ],
      "stateMutability": "view",
      "type": "function"
    },
    {
      "inputs": [
        {
          "internalType": "uint256",
          "name": "requestId",
          "type": "uint256"
        },
        {
          "internalType": "uint256[]",
          "name": "randomWords",
          "type": "uint256[]"
        }
      ],
      "name": "rawFulfillRandomWords",
      "outputs": [],
      "stateMutability": "nonpayable",
      "type": "function"
    },
    {
      "inputs": [],
      "name": "requestId",
      "outputs": [
        {
          "internalType": "uint256",
          "name": "",
          "type": "uint256"
        }
      ],
      "stateMutability": "view",
      "type": "function"
    },
    {
      "inputs": [],
      "name": "requestRandomness",
      "outputs": [],
      "stateMutability": "payable",
      "type": "function"
    },
    {
      "inputs": [],
      "name": "requiredDeposit",
      "outputs": [
        {
          "internalType": "uint256",
          "name": "",
          "type": "uint256"
        }
      ],
      "stateMutability": "view",
      "type": "function"
    },
    {
      "inputs": [
        {
          "internalType": "uint256",
          "name": "",
          "type": "uint256"
        }
      ],
      "name": "s_randomWords",
      "outputs": [
        {
          "internalType": "uint256",
          "name": "",
          "type": "uint256"
        }
      ],
      "stateMutability": "view",
      "type": "function"
    },
    {
      "inputs": [],
      "name": "s_requestId",
      "outputs": [
        {
          "internalType": "uint256",
          "name": "",
          "type": "uint256"
        }
      ],
      "stateMutability": "view",
      "type": "function"
    },
    {
      "inputs": [],
      "name": "s_thriftClub",
      "outputs": [
        {
          "internalType": "address",
          "name": "token",
          "type": "address"
        },
        {
          "internalType": "uint256",
          "name": "cycleDuration",
          "type": "uint256"
        },
        {
          "internalType": "uint256",
          "name": "contributionAmount",
          "type": "uint256"
        },
        {
          "internalType": "uint256",
          "name": "penalty",
          "type": "uint256"
        },
        {
          "internalType": "uint256",
          "name": "maxParticipant",
          "type": "uint256"
        },
        {
          "internalType": "string",
          "name": "name",
          "type": "string"
        },
        {
          "internalType": "string",
          "name": "description",
          "type": "string"
        },
        {
          "internalType": "contract IERC721",
          "name": "nftContract",
          "type": "address"
        },
        {
          "internalType": "contract IDAOContract",
          "name": "daoContract",
          "type": "address"
        },
        {
          "internalType": "enum ThriftClub.TANDA_STATE",
          "name": "t_state",
          "type": "uint8"
        },
        {
          "internalType": "uint256",
          "name": "lastUpdateTimestamp",
          "type": "uint256"
        }
      ],
      "stateMutability": "view",
      "type": "function"
    }
  ],
  "bytecode": "0x6101c060408190526000600a55600b805473326c977e6efc84e512bb9c30f76e30c160ed06fb6001600160a01b0319918216179091557f474e34a077df58807dbe9c96d3c009b23b3c6d0cce433e59bbf5b34f823bc56c600c55600d80546001600160501b03191666010003000186a0179055601254601180546001600160a01b039092169183169190911790556017805461080992168217905563fb7cfdd760e01b82529063fb7cfdd7906101c49060209060048186803b158015620000c557600080fd5b505afa158015620000da573d6000803e3d6000fd5b505050506040513d601f19601f8201168201806040525081019062000100919062000577565b601855601980546001600160401b031916620186a09081179091556200012c9064012a05f20062000591565b6001600160401b0316601a55601b805463ffffffff191660021790557f6368616e67652d6d652d746f2d616e797468696e670000000000000000000000601c5560405162002697388190039081908339810160408190526200018e91620006b9565b6018543410156200019e57600080fd5b73d0d5e3db44de05e9f294bb0a3beeaf030de24ada60805273572ddec9087154dc5dfbb1546bb62713147e0ab060a0527392c09849638959196e976289418e5973cc96d64560c052730fcaa9c899ec5a91ebc3d5dd869de833b06fb04660e052727a22900a3b98143368bd5906f8e17e9867581b610100526000610120819052730fa8781a83e46826621b3bc094ea2a0212e71b236101405273a02f6adc7926efebbd59fd43a84f4e0c0c91e83261016052721b3b4d0f3714ca98ba10f6042daebf0b1b7b6f61018052730d787a4a1548f673ed375445535a6c7a1ee561806101a05280546001600160a01b0319166001600160a01b038b1617905560018890556002879055600386905560048590558351620002c3906005906020870190620004d1565b508251620002d9906006906020860190620004d1565b50600780546001600160a01b0319166001600160a01b0384811691909117909155600880546001600160a81b0319169183169190911790554260095581620003218a62000331565b50505050505050505050620007c2565b610140516001600160a01b0316816001600160a01b03161415620003755761014051601280546001600160a01b0319166001600160a01b0390921691909117905550565b610160516001600160a01b0316816001600160a01b03161415620003b95761016051601280546001600160a01b0319166001600160a01b0390921691909117905550565b610180516001600160a01b0316816001600160a01b03161415620003fd5761018051601280546001600160a01b0319166001600160a01b0390921691909117905550565b6101a0516001600160a01b0316816001600160a01b0316141562000441576101a051601280546001600160a01b0319166001600160a01b0390921691909117905550565b610120516001600160a01b0316816001600160a01b03161415620004855761012051601280546001600160a01b0319166001600160a01b0390921691909117905550565b60405162461bcd60e51b815260206004820152601560248201527f496e76616c696420746f6b656e20616464726573730000000000000000000000604482015260640160405180910390fd5b828054620004df9062000785565b90600052602060002090601f0160209004810192826200050357600085556200054e565b82601f106200051e57805160ff19168380011785556200054e565b828001600101855582156200054e579182015b828111156200054e57825182559160200191906001019062000531565b506200055c92915062000560565b5090565b5b808211156200055c576000815560010162000561565b6000602082840312156200058a57600080fd5b5051919050565b60006001600160401b0382811684821681151582840482111615620005c657634e487b7160e01b600052601160045260246000fd5b02949350505050565b80516001600160a01b0381168114620005e757600080fd5b919050565b634e487b7160e01b600052604160045260246000fd5b600082601f8301126200061457600080fd5b81516001600160401b0380821115620006315762000631620005ec565b604051601f8301601f19908116603f011681019082821181831017156200065c576200065c620005ec565b816040528381526020925086838588010111156200067957600080fd5b600091505b838210156200069d57858201830151818301840152908201906200067e565b83821115620006af5760008385830101525b9695505050505050565b60008060008060008060008060006101208a8c031215620006d957600080fd5b620006e48a620005cf565b60208b015160408c015160608d015160808e015160a08f0151949d50929b50909950975095506001600160401b03808211156200072057600080fd5b6200072e8d838e0162000602565b955060c08c01519150808211156200074557600080fd5b50620007548c828d0162000602565b9350506200076560e08b01620005cf565b9150620007766101008b01620005cf565b90509295985092959850929598565b600181811c908216806200079a57607f821691505b60208210811415620007bc57634e487b7160e01b600052602260045260246000fd5b50919050565b60805160a05160c05160e05161010051610120516101405161016051610180516101a051611e7462000823600039600050506000505060005050600050506000505060005050600050506000505060005050600061079e0152611e746000f3fe6080604052600436106101c15760003560e01c80635fa17ec5116100f7578063929066f511610095578063e89e106a11610064578063e89e106a14610565578063f6eaffc81461057b578063f8413b071461059b578063fb7cfdd7146105a357600080fd5b8063929066f5146104d1578063993f507c14610501578063b8d6338d1461052d578063de28c2ec1461054f57600080fd5b806376fe16cb116100d157806376fe16cb1461044c578063774dee891461046c5780637d5a9c5a146104895780638fd2ea4a146104bb57600080fd5b80635fa17ec5146103f65780636adc21ea1461042357806376c7a3c71461043657600080fd5b80632c7eb91d116101645780634a7ffcbc1161013e5780634a7ffcbc146103465780634bca67bf1461036657806351a8e298146103a65780635226e60b146103e057600080fd5b80632c7eb91d146102c157806335c1d349146102ee578063360131891461032657600080fd5b8063150b7a02116101a0578063150b7a021461023357806317a47282146102785780631fbfce1b1461028e5780631fe543e3146102a157600080fd5b80626d6cae146101c65780630a1b0e3c146101ef57806314b859a91461021c575b600080fd5b3480156101d257600080fd5b506101dc601d5481565b6040519081526020015b60405180910390f35b3480156101fb57600080fd5b506101dc61020a366004611832565b60216020526000908152604090205481565b34801561022857600080fd5b506102316105b9565b005b34801561023f57600080fd5b5061025f61024e36600461184d565b630a85bd0160e11b95945050505050565b6040516001600160e01b031990911681526020016101e6565b34801561028457600080fd5b506101dc601c5481565b61023161029c3660046118e8565b610622565b3480156102ad57600080fd5b506102316102bc366004611928565b610b44565b3480156102cd57600080fd5b506101dc6102dc366004611832565b601f6020526000908152604090205481565b3480156102fa57600080fd5b5061030e6103093660046119f2565b610bae565b6040516001600160a01b0390911681526020016101e6565b34801561033257600080fd5b5060175461030e906001600160a01b031681565b34801561035257600080fd5b5060165461030e906001600160a01b031681565b34801561037257600080fd5b50610396610381366004611832565b60156020526000908152604090205460ff1681565b60405190151581526020016101e6565b3480156103b257600080fd5b506019546103c79067ffffffffffffffff1681565b60405167ffffffffffffffff90911681526020016101e6565b3480156103ec57600080fd5b506101dc601e5481565b34801561040257600080fd5b506101dc610411366004611832565b60236020526000908152604090205481565b6102316104313660046118e8565b610bd8565b34801561044257600080fd5b506101dc601a5481565b34801561045857600080fd5b5060125461030e906001600160a01b031681565b34801561047857600080fd5b506101dc6802b5e3af16b188000081565b34801561049557600080fd5b50601b546104a69063ffffffff1681565b60405163ffffffff90911681526020016101e6565b3480156104c757600080fd5b506101dc60225481565b3480156104dd57600080fd5b506103966104ec366004611832565b60136020526000908152604090205460ff1681565b34801561050d57600080fd5b50610516610e56565b6040516101e69b9a99989796959493929190611a90565b34801561053957600080fd5b50610542610fc4565b6040516101e69190611b19565b34801561055b57600080fd5b506101dc60205481565b34801561057157600080fd5b506101dc600f5481565b34801561058757600080fd5b506101dc6105963660046119f2565b61117d565b61023161119e565b3480156105af57600080fd5b506101dc60185481565b601754601d54604051639a91eb0d60e01b81526001600160a01b0390921691639a91eb0d916105ee9160040190815260200190565b600060405180830381600087803b15801561060857600080fd5b505af115801561061c573d6000803e3d6000fd5b50505050565b61062a611730565b3360009081526015602052604090205460ff166106855760405162461bcd60e51b815260206004820152601460248201527314195b985b1d1e48199959481b9bdd081c185a5960621b60448201526064015b60405180910390fd5b3360009081526013602052604090205460ff16156106dd5760405162461bcd60e51b8152602060048201526015602482015274105b1c9958591e4818481c185c9d1a58da5c185b9d605a1b604482015260640161067c565b6000546001600160a01b0384811691161461070a5760405162461bcd60e51b815260040161067c90611bf6565b6001600160a01b03831661083d576802b5e3af16b188000081604001516107319190611c33565b34146107725760405162461bcd60e51b815260206004820152601060248201526f125b98dbdc9c9958dd08185b5bdd5b9d60821b604482015260640161067c565b60006802b5e3af16b188000061078960c834611c61565b11156107c9576107c26802b5e3af16b18800007f00000000000000000000000000000000000000000000000000000000000000006112e5565b90506107d7565b6107d460c834611c61565b90505b80601e60008282546107e99190611c33565b9091555050604082015160208054600090610805908490611c33565b909155505060405130903480156108fc02916000818181858888f19350505050158015610836573d6000803e3d6000fd5b5050610a2f565b34156108815760405162461bcd60e51b8152602060048201526013602482015272496e76616c69642045746865722076616c756560681b604482015260640161067c565b600082116108c85760405162461bcd60e51b8152602060048201526014602482015273125b9d985b1a59081d1bdad95b88185b5bdd5b9d60621b604482015260640161067c565b80516001600160a01b038481169116146108f45760405162461bcd60e51b815260040161067c90611bf6565b60006802b5e3af16b188000061090b60c885611c61565b111561093857601154610931906802b5e3af16b1880000906001600160a01b03166112e5565b9050610946565b61094360c884611c61565b90505b6001600160a01b0384166000908152601f60205260408120805483929061096e908490611c33565b90915550506040808301516001600160a01b038616600090815260216020529182208054919290916109a1908490611c33565b90915550506040516323b872dd60e01b8152336004820152306024820152604481018490526001600160a01b038516906323b872dd90606401602060405180830381600087803b1580156109f457600080fd5b505af1158015610a08573d6000803e3d6000fd5b505050506040513d601f19601f82011682018060405250810190610a2c9190611c75565b50505b6014805460018082019092557fce6d7b5282bd9a3661ae061feed1dbda4e52ab073b1f9285be6e155d9c38d4ec0180546001600160a01b0319163390811790915560008181526013602052604090819020805460ff1916909317909255601654915163329b55b760e21b815260048101919091526001600160a01b039091169063ca6d56dc90602401600060405180830381600087803b158015610ad257600080fd5b505af1158015610ae6573d6000803e3d6000fd5b50506040513392507f6cd71e167cab47cb2ccb763aada102691b585b848adb6395f1da4ac187b9214a9150600090a260145460808201511415610b3f5760028161012001516003811115610b3c57610b3c611a58565b50505b505050565b3361080914610ba05760405162461bcd60e51b815260206004820152602260248201527f4f6e6c7952616e646f6d6e657373507265636f6d70696c6543616e46756c66696044820152611b1b60f21b606482015260840161067c565b610baa828261131b565b5050565b60148181548110610bbe57600080fd5b6000918252602090912001546001600160a01b0316905081565b610be0611730565b3360009081526015602052604090205460ff1615610c405760405162461bcd60e51b815260206004820152601860248201527f50656e616c74792066656520616c726561647920706169640000000000000000604482015260640161067c565b6000546001600160a01b03848116911614610c6d5760405162461bcd60e51b815260040161067c90611bf6565b6001600160a01b038316610d1b5780606001513414610cce5760405162461bcd60e51b815260206004820152601c60248201527f496e636f72726563742070656e616c74792066656520616d6f756e7400000000604482015260640161067c565b806060015160226000828254610ce49190611c33565b909155505060405130903480156108fc02916000818181858888f19350505050158015610d15573d6000803e3d6000fd5b50610e37565b80606001518214610d7d5760405162461bcd60e51b815260206004820152602660248201527f496e636f727265637420746f6b656e20616d6f756e7420666f722070656e616c60448201526574792066656560d01b606482015260840161067c565b60608101516001600160a01b03841660009081526023602052604081208054909190610daa908490611c33565b90915550506040516323b872dd60e01b8152336004820152306024820152604481018390526001600160a01b038416906323b872dd90606401602060405180830381600087803b158015610dfd57600080fd5b505af1158015610e11573d6000803e3d6000fd5b505050506040513d601f19601f82011682018060405250810190610e359190611c75565b505b5050336000908152601560205260409020805460ff1916600117905550565b60008054600154600254600354600454600580546001600160a01b0390961696949593949293919291610e8890611c97565b80601f0160208091040260200160405190810160405280929190818152602001828054610eb490611c97565b8015610f015780601f10610ed657610100808354040283529160200191610f01565b820191906000526020600020905b815481529060010190602001808311610ee457829003601f168201915b505050505090806006018054610f1690611c97565b80601f0160208091040260200160405190810160405280929190818152602001828054610f4290611c97565b8015610f8f5780601f10610f6457610100808354040283529160200191610f8f565b820191906000526020600020905b815481529060010190602001808311610f7257829003601f168201915b505050506007830154600884015460099094015492936001600160a01b03918216939181169250600160a01b900460ff16908b565b610fcc611730565b60408051610160810182526000546001600160a01b03168152600154602082015260025491810191909152600354606082015260045460808201526005805460a08301919061101a90611c97565b80601f016020809104026020016040519081016040528092919081815260200182805461104690611c97565b80156110935780601f1061106857610100808354040283529160200191611093565b820191906000526020600020905b81548152906001019060200180831161107657829003601f168201915b50505050508152602001600060060180546110ad90611c97565b80601f01602080910402602001604051908101604052809291908181526020018280546110d990611c97565b80156111265780601f106110fb57610100808354040283529160200191611126565b820191906000526020600020905b81548152906001019060200180831161110957829003601f168201915b50505091835250506007546001600160a01b0390811660208301526008549081166040830152606090910190600160a01b900460ff16600381111561116d5761116d611a58565b8152600954602090910152919050565b600e818154811061118d57600080fd5b600091825260209091200154905081565b601a543410156111ad57600080fd5b600854600954600154600160a01b90920460ff169160028360038111156111d6576111d6611a58565b1480156111eb57506111e88183611c33565b42115b15610b3f57601754601954601d80546001600160a01b0390931692639478430c923392349267ffffffffffffffff9092169190600061122983611cd2565b90915550601c54601b5460405160e088901b6001600160e01b03191681526001600160a01b039096166004870152602486019490945267ffffffffffffffff90921660448501521860648301526001608483015263ffffffff1660a482015260c401602060405180830381600087803b1580156112a557600080fd5b505af11580156112b9573d6000803e3d6000fd5b505050506040513d601f19601f820116820180604052508101906112dd9190611ced565b601d55505050565b6000806112f18361169e565b90506000670de0b6b3a76400006113088387611d06565b6113129190611c61565b95945050505050565b805161132e90600e9060208401906117b6565b506000601480549050600e60008154811061134b5761134b611d25565b90600052602060002001546113609190611d3b565b905060006014828154811061137757611377611d25565b6000918252602091829020015490546001600160a01b0390911691501515806113b75750600080546001600160a01b031681526021602052604090205415155b6114035760405162461bcd60e51b815260206004820152601d60248201527f4e6f2062616c616e636520696e20746865205468726966745075727365000000604482015260640161067c565b602054156114ea5760205460405160009133918381818185875af1925050503d806000811461144e576040519150601f19603f3d011682016040523d82523d6000602084013e611453565b606091505b50509050806114995760405162461bcd60e51b8152602060048201526012602482015271151c985b9cd858dd1a5bdb8819985a5b195960721b604482015260640161067c565b60208054604080516001600160a01b0386168152928301919091527ff2956657db703b4160a4041a597ea008de026af5e167af02f4be706e475f6bd4910160405180910390a1506000602055611652565b600080546001600160a01b03168152602160205260409020541561165257600080546001600160a01b03168082526021602052604080832054905163a9059cbb60e01b81523360048201526024810191909152909190829063a9059cbb90604401602060405180830381600087803b15801561156557600080fd5b505af1158015611579573d6000803e3d6000fd5b505050506040513d601f19601f8201168201806040525081019061159d9190611c75565b9050806115e15760405162461bcd60e51b8152602060048201526012602482015271151c985b9cd858dd1a5bdb8819985a5b195960721b604482015260640161067c565b600080546001600160a01b039081168252602160209081526040928390205483519287168352908201527ff2956657db703b4160a4041a597ea008de026af5e167af02f4be706e475f6bd4910160405180910390a15050600080546001600160a01b03168152602160205260408120555b600a805490600061166283611cd2565b9091555050600454600a54141561168b576008805460ff60a01b1916600160a01b17905561061c565b50506008805460ff60a01b191690555050565b600080826001600160a01b031663feaf968c6040518163ffffffff1660e01b815260040160a06040518083038186803b1580156116da57600080fd5b505afa1580156116ee573d6000803e3d6000fd5b505050506040513d601f19601f820116820180604052508101906117129190611d69565b505050915050806402540be4006117299190611db9565b9392505050565b60405180610160016040528060006001600160a01b0316815260200160008152602001600081526020016000815260200160008152602001606081526020016060815260200160006001600160a01b0316815260200160006001600160a01b03168152602001600060038111156117a9576117a9611a58565b8152602001600081525090565b8280548282559060005260206000209081019282156117f1579160200282015b828111156117f15782518255916020019190600101906117d6565b506117fd929150611801565b5090565b5b808211156117fd5760008155600101611802565b80356001600160a01b038116811461182d57600080fd5b919050565b60006020828403121561184457600080fd5b61172982611816565b60008060008060006080868803121561186557600080fd5b61186e86611816565b945061187c60208701611816565b935060408601359250606086013567ffffffffffffffff808211156118a057600080fd5b818801915088601f8301126118b457600080fd5b8135818111156118c357600080fd5b8960208285010111156118d557600080fd5b9699959850939650602001949392505050565b600080604083850312156118fb57600080fd5b61190483611816565b946020939093013593505050565b634e487b7160e01b600052604160045260246000fd5b6000806040838503121561193b57600080fd5b8235915060208084013567ffffffffffffffff8082111561195b57600080fd5b818601915086601f83011261196f57600080fd5b81358181111561198157611981611912565b8060051b604051601f19603f830116810181811085821117156119a6576119a6611912565b6040529182528482019250838101850191898311156119c457600080fd5b938501935b828510156119e2578435845293850193928501926119c9565b8096505050505050509250929050565b600060208284031215611a0457600080fd5b5035919050565b6000815180845260005b81811015611a3157602081850181015186830182015201611a15565b81811115611a43576000602083870101525b50601f01601f19169290920160200192915050565b634e487b7160e01b600052602160045260246000fd5b60048110611a8c57634e487b7160e01b600052602160045260246000fd5b9052565b600061016060018060a01b03808f1684528d60208501528c60408501528b60608501528a60808501528160a0850152611acb8285018b611a0b565b915083820360c0850152611adf828a611a0b565b925080881660e08501528087166101008501525050611b02610120830185611a6e565b826101408301529c9b505050505050505050505050565b60208152611b336020820183516001600160a01b03169052565b602082015160408201526040820151606082015260608201516080820152608082015160a0820152600060a08301516101608060c0850152611b79610180850183611a0b565b915060c0850151601f198584030160e0860152611b968382611a0b565b92505060e0850151610100611bb5818701836001600160a01b03169052565b8601519050610120611bd1868201836001600160a01b03169052565b8601519050610140611be586820183611a6e565b959095015193019290925250919050565b6020808252600d908201526c24b73b30b634b2103a37b5b2b760991b604082015260600190565b634e487b7160e01b600052601160045260246000fd5b60008219821115611c4657611c46611c1d565b500190565b634e487b7160e01b600052601260045260246000fd5b600082611c7057611c70611c4b565b500490565b600060208284031215611c8757600080fd5b8151801515811461172957600080fd5b600181811c90821680611cab57607f821691505b60208210811415611ccc57634e487b7160e01b600052602260045260246000fd5b50919050565b6000600019821415611ce657611ce6611c1d565b5060010190565b600060208284031215611cff57600080fd5b5051919050565b6000816000190483118215151615611d2057611d20611c1d565b500290565b634e487b7160e01b600052603260045260246000fd5b600082611d4a57611d4a611c4b565b500690565b805169ffffffffffffffffffff8116811461182d57600080fd5b600080600080600060a08688031215611d8157600080fd5b611d8a86611d4f565b9450602086015193506040860151925060608601519150611dad60808701611d4f565b90509295509295909350565b60006001600160ff1b0381841382841380821686840486111615611ddf57611ddf611c1d565b600160ff1b6000871282811687830589121615611dfe57611dfe611c1d565b60008712925087820587128484161615611e1a57611e1a611c1d565b87850587128184161615611e3057611e30611c1d565b50505092909302939250505056fea2646970667358221220082ecd6858175b9e155d80affc31ad425146ec6e5adf5fd7ea3ea6c258051a1b64736f6c63430008090033",
  "linkReferences": {},
  "deployedLinkReferences": {}
}