{
  "_format": "hh-sol-artifact-1",
  "contractName": "ThriftClub",
  "sourceName": "contracts/ThriftClub.sol",
  "abi": [
    {
      "inputs": [
        {
          "internalType": "address",
          "name": "_token",
          "type": "address"
        },
        {
          "internalType": "uint256",
          "name": "_cycleDuration",
          "type": "uint256"
        },
        {
          "internalType": "uint256",
          "name": "_contributionAmount",
          "type": "uint256"
        },
        {
          "internalType": "uint256",
          "name": "_penalty",
          "type": "uint256"
        },
        {
          "internalType": "uint256",
          "name": "_maxParticipant",
          "type": "uint256"
        },
        {
          "internalType": "string",
          "name": "_name",
          "type": "string"
        },
        {
          "internalType": "string",
          "name": "_description",
          "type": "string"
        },
        {
          "internalType": "address",
          "name": "_nftContract",
          "type": "address"
        },
        {
          "internalType": "address",
          "name": "_daoContract",
          "type": "address"
        }
      ],
      "stateMutability": "nonpayable",
      "type": "constructor"
    },
    {
      "inputs": [
        {
          "internalType": "address",
          "name": "have",
          "type": "address"
        },
        {
          "internalType": "address",
          "name": "want",
          "type": "address"
        }
      ],
      "name": "OnlyCoordinatorCanFulfill",
      "type": "error"
    },
    {
      "inputs": [],
      "name": "__TransferFailed",
      "type": "error"
    },
    {
      "anonymous": false,
      "inputs": [
        {
          "indexed": false,
          "internalType": "address",
          "name": "recipient",
          "type": "address"
        },
        {
          "indexed": false,
          "internalType": "uint256",
          "name": "amount",
          "type": "uint256"
        }
      ],
      "name": "AddressPaid",
      "type": "event"
    },
    {
      "anonymous": false,
      "inputs": [
        {
          "indexed": true,
          "internalType": "address",
          "name": "winner",
          "type": "address"
        }
      ],
      "name": "CycleStarted",
      "type": "event"
    },
    {
      "anonymous": false,
      "inputs": [
        {
          "indexed": true,
          "internalType": "address",
          "name": "participant",
          "type": "address"
        }
      ],
      "name": "ParticipantJoined",
      "type": "event"
    },
    {
      "inputs": [],
      "name": "MAXIMUM_FEE_USD",
      "outputs": [
        {
          "internalType": "uint256",
          "name": "",
          "type": "uint256"
        }
      ],
      "stateMutability": "view",
      "type": "function"
    },
    {
      "inputs": [],
      "name": "ServiceFeePurse",
      "outputs": [
        {
          "internalType": "uint256",
          "name": "",
          "type": "uint256"
        }
      ],
      "stateMutability": "view",
      "type": "function"
    },
    {
      "inputs": [
        {
          "internalType": "address",
          "name": "",
          "type": "address"
        }
      ],
      "name": "ServiceFeePurseTokenBalances",
      "outputs": [
        {
          "internalType": "uint256",
          "name": "",
          "type": "uint256"
        }
      ],
      "stateMutability": "view",
      "type": "function"
    },
    {
      "inputs": [],
      "name": "ThriftPurseBalance",
      "outputs": [
        {
          "internalType": "uint256",
          "name": "",
          "type": "uint256"
        }
      ],
      "stateMutability": "view",
      "type": "function"
    },
    {
      "inputs": [],
      "name": "ThriftPursePenaltyBalance",
      "outputs": [
        {
          "internalType": "uint256",
          "name": "",
          "type": "uint256"
        }
      ],
      "stateMutability": "view",
      "type": "function"
    },
    {
      "inputs": [
        {
          "internalType": "address",
          "name": "",
          "type": "address"
        }
      ],
      "name": "ThriftPursePenaltyTokenBalance",
      "outputs": [
        {
          "internalType": "uint256",
          "name": "",
          "type": "uint256"
        }
      ],
      "stateMutability": "view",
      "type": "function"
    },
    {
      "inputs": [
        {
          "internalType": "address",
          "name": "",
          "type": "address"
        }
      ],
      "name": "ThriftPurseTokenBalance",
      "outputs": [
        {
          "internalType": "uint256",
          "name": "",
          "type": "uint256"
        }
      ],
      "stateMutability": "view",
      "type": "function"
    },
    {
      "inputs": [
        {
          "internalType": "bytes",
          "name": "checkData",
          "type": "bytes"
        }
      ],
      "name": "checkUpkeep",
      "outputs": [
        {
          "internalType": "bool",
          "name": "upkeepNeeded",
          "type": "bool"
        },
        {
          "internalType": "bytes",
          "name": "performData",
          "type": "bytes"
        }
      ],
      "stateMutability": "nonpayable",
      "type": "function"
    },
    {
      "inputs": [],
      "name": "daoContract",
      "outputs": [
        {
          "internalType": "contract IDAOContract",
          "name": "",
          "type": "address"
        }
      ],
      "stateMutability": "view",
      "type": "function"
    },
    {
      "inputs": [],
      "name": "getSubscriptionId",
      "outputs": [
        {
          "internalType": "uint64",
          "name": "",
          "type": "uint64"
        }
      ],
      "stateMutability": "view",
      "type": "function"
    },
    {
      "inputs": [],
      "name": "getThriftClubData",
      "outputs": [
        {
          "components": [
            {
              "internalType": "address",
              "name": "token",
              "type": "address"
            },
            {
              "internalType": "uint256",
              "name": "cycleDuration",
              "type": "uint256"
            },
            {
              "internalType": "uint256",
              "name": "contributionAmount",
              "type": "uint256"
            },
            {
              "internalType": "uint256",
              "name": "penalty",
              "type": "uint256"
            },
            {
              "internalType": "uint256",
              "name": "maxParticipant",
              "type": "uint256"
            },
            {
              "internalType": "string",
              "name": "name",
              "type": "string"
            },
            {
              "internalType": "string",
              "name": "description",
              "type": "string"
            },
            {
              "internalType": "contract IERC721",
              "name": "nftContract",
              "type": "address"
            },
            {
              "internalType": "contract IDAOContract",
              "name": "daoContract",
              "type": "address"
            },
            {
              "internalType": "enum ThriftClub.TANDA_STATE",
              "name": "t_state",
              "type": "uint8"
            },
            {
              "internalType": "uint256",
              "name": "lastUpdateTimestamp",
              "type": "uint256"
            }
          ],
          "internalType": "struct ThriftClub.ThriftClubData",
          "name": "",
          "type": "tuple"
        }
      ],
      "stateMutability": "view",
      "type": "function"
    },
    {
      "inputs": [
        {
          "internalType": "address",
          "name": "",
          "type": "address"
        }
      ],
      "name": "hasPaidPenalty",
      "outputs": [
        {
          "internalType": "bool",
          "name": "",
          "type": "bool"
        }
      ],
      "stateMutability": "view",
      "type": "function"
    },
    {
      "inputs": [],
      "name": "i_priceFeedToken",
      "outputs": [
        {
          "internalType": "address",
          "name": "",
          "type": "address"
        }
      ],
      "stateMutability": "view",
      "type": "function"
    },
    {
      "inputs": [
        {
          "internalType": "address",
          "name": "",
          "type": "address"
        }
      ],
      "name": "isParticipant",
      "outputs": [
        {
          "internalType": "bool",
          "name": "",
          "type": "bool"
        }
      ],
      "stateMutability": "view",
      "type": "function"
    },
    {
      "inputs": [
        {
          "internalType": "address",
          "name": "_tokenAddress",
          "type": "address"
        },
        {
          "internalType": "uint256",
          "name": "_tokenAmount",
          "type": "uint256"
        }
      ],
      "name": "joinThriftClub",
      "outputs": [],
      "stateMutability": "payable",
      "type": "function"
    },
    {
      "inputs": [
        {
          "internalType": "address",
          "name": "operator",
          "type": "address"
        },
        {
          "internalType": "address",
          "name": "from",
          "type": "address"
        },
        {
          "internalType": "uint256",
          "name": "tokenId",
          "type": "uint256"
        },
        {
          "internalType": "bytes",
          "name": "data",
          "type": "bytes"
        }
      ],
      "name": "onERC721Received",
      "outputs": [
        {
          "internalType": "bytes4",
          "name": "",
          "type": "bytes4"
        }
      ],
      "stateMutability": "nonpayable",
      "type": "function"
    },
    {
      "inputs": [
        {
          "internalType": "uint256",
          "name": "",
          "type": "uint256"
        }
      ],
      "name": "participants",
      "outputs": [
        {
          "internalType": "address",
          "name": "",
          "type": "address"
        }
      ],
      "stateMutability": "view",
      "type": "function"
    },
    {
      "inputs": [
        {
          "internalType": "address",
          "name": "_tokenAddress",
          "type": "address"
        },
        {
          "internalType": "uint256",
          "name": "_tokenAmount",
          "type": "uint256"
        }
      ],
      "name": "payPenaltyFee",
      "outputs": [],
      "stateMutability": "payable",
      "type": "function"
    },
    {
      "inputs": [
        {
          "internalType": "bytes",
          "name": "performData",
          "type": "bytes"
        }
      ],
      "name": "performUpkeep",
      "outputs": [],
      "stateMutability": "nonpayable",
      "type": "function"
    },
    {
      "inputs": [
        {
          "internalType": "uint256",
          "name": "requestId",
          "type": "uint256"
        },
        {
          "internalType": "uint256[]",
          "name": "randomWords",
          "type": "uint256[]"
        }
      ],
      "name": "rawFulfillRandomWords",
      "outputs": [],
      "stateMutability": "nonpayable",
      "type": "function"
    },
    {
      "inputs": [
        {
          "internalType": "uint256",
          "name": "",
          "type": "uint256"
        }
      ],
      "name": "s_randomWords",
      "outputs": [
        {
          "internalType": "uint256",
          "name": "",
          "type": "uint256"
        }
      ],
      "stateMutability": "view",
      "type": "function"
    },
    {
      "inputs": [],
      "name": "s_requestId",
      "outputs": [
        {
          "internalType": "uint256",
          "name": "",
          "type": "uint256"
        }
      ],
      "stateMutability": "view",
      "type": "function"
    }
  ],
  "bytecode": "0x6101c06040526000600a55600d8054737a1bac17ccc5b313516c5e16fb24f7659aa5ebed6001600160a01b031991821617909155600e805473326c977e6efc84e512bb9c30f76e30c160ed06fb9083161790557f474e34a077df58807dbe9c96d3c009b23b3c6d0cce433e59bbf5b34f823bc56c600f55601080546001600160501b03191666010003000186a0179055601554601480546001600160a01b0390921691909216179055348015620000b557600080fd5b50604051620022f3380380620022f3833981016040819052620000d89162000582565b600d546001600160a01b039081166080819052600b80546001600160a01b03199081169092179055600e54600c8054831691841691909117905573d0d5e3db44de05e9f294bb0a3beeaf030de24ada60a05273572ddec9087154dc5dfbb1546bb62713147e0ab060c0527392c09849638959196e976289418e5973cc96d64560e052730fcaa9c899ec5a91ebc3d5dd869de833b06fb04661010052727a22900a3b98143368bd5906f8e17e9867581b61012052730fa8781a83e46826621b3bc094ea2a0212e71b236101405273a02f6adc7926efebbd59fd43a84f4e0c0c91e83261016052721b3b4d0f3714ca98ba10f6042daebf0b1b7b6f61018052730d787a4a1548f673ed375445535a6c7a1ee561806101a05260008054928c16929091169190911790556001889055600287905560038690556004859055835162000228906005906020870190620003f2565b5082516200023e906006906020860190620003f2565b50600780546001600160a01b0319166001600160a01b0384811691909117909155600880546001600160a81b0319169183169190911790554260095581620002868a62000296565b505050505050505050506200068b565b610140516001600160a01b0316816001600160a01b03161415620002da5761014051601580546001600160a01b0319166001600160a01b0390921691909117905550565b610160516001600160a01b0316816001600160a01b031614156200031e5761016051601580546001600160a01b0319166001600160a01b0390921691909117905550565b610180516001600160a01b0316816001600160a01b03161415620003625761018051601580546001600160a01b0319166001600160a01b0390921691909117905550565b6101a0516001600160a01b0316816001600160a01b03161415620003a6576101a051601580546001600160a01b0319166001600160a01b0390921691909117905550565b60405162461bcd60e51b815260206004820152601560248201527f496e76616c696420746f6b656e20616464726573730000000000000000000000604482015260640160405180910390fd5b82805462000400906200064e565b90600052602060002090601f0160209004810192826200042457600085556200046f565b82601f106200043f57805160ff19168380011785556200046f565b828001600101855582156200046f579182015b828111156200046f57825182559160200191906001019062000452565b506200047d92915062000481565b5090565b5b808211156200047d576000815560010162000482565b80516001600160a01b0381168114620004b057600080fd5b919050565b634e487b7160e01b600052604160045260246000fd5b600082601f830112620004dd57600080fd5b81516001600160401b0380821115620004fa57620004fa620004b5565b604051601f8301601f19908116603f01168101908282118183101715620005255762000525620004b5565b816040528381526020925086838588010111156200054257600080fd5b600091505b8382101562000566578582018301518183018401529082019062000547565b83821115620005785760008385830101525b9695505050505050565b60008060008060008060008060006101208a8c031215620005a257600080fd5b620005ad8a62000498565b60208b015160408c015160608d015160808e015160a08f0151949d50929b50909950975095506001600160401b0380821115620005e957600080fd5b620005f78d838e01620004cb565b955060c08c01519150808211156200060e57600080fd5b506200061d8c828d01620004cb565b9350506200062e60e08b0162000498565b91506200063f6101008b0162000498565b90509295985092959850929598565b600181811c908216806200066357607f821691505b602082108114156200068557634e487b7160e01b600052602260045260246000fd5b50919050565b60805160a05160c05160e05161010051610120516101405161016051610180516101a051611bfd620006f6600039600050506000505060005050600050506000505060005050600050506000505060006105f30152600081816109a401526109e60152611bfd6000f3fe6080604052600436106101355760003560e01c80636adc21ea116100ab578063929066f51161006f578063929066f5146103b0578063b8d6338d146103e0578063de28c2ec14610402578063de3d9fb714610418578063e89e106a14610441578063f6eaffc81461045757600080fd5b80636adc21ea1461031c5780636e04ff0d1461032f57806376fe16cb1461035d578063774dee891461037d5780638fd2ea4a1461039a57600080fd5b806335c1d349116100fd57806335c1d349146102215780634585e33b146102595780634a7ffcbc146102795780634bca67bf146102995780635226e60b146102d95780635fa17ec5146102ef57600080fd5b80630a1b0e3c1461013a578063150b7a021461017a5780631fbfce1b146101bf5780631fe543e3146101d45780632c7eb91d146101f4575b600080fd5b34801561014657600080fd5b506101676101553660046115c2565b601d6020526000908152604090205481565b6040519081526020015b60405180910390f35b34801561018657600080fd5b506101a6610195366004611626565b630a85bd0160e11b95945050505050565b6040516001600160e01b03199091168152602001610171565b6101d26101cd366004611695565b610477565b005b3480156101e057600080fd5b506101d26101ef3660046116d5565b610999565b34801561020057600080fd5b5061016761020f3660046115c2565b601b6020526000908152604090205481565b34801561022d57600080fd5b5061024161023c36600461179f565b610a21565b6040516001600160a01b039091168152602001610171565b34801561026557600080fd5b506101d26102743660046117b8565b610a4b565b34801561028557600080fd5b50601954610241906001600160a01b031681565b3480156102a557600080fd5b506102c96102b43660046115c2565b60186020526000908152604090205460ff1681565b6040519015158152602001610171565b3480156102e557600080fd5b50610167601a5481565b3480156102fb57600080fd5b5061016761030a3660046115c2565b601f6020526000908152604090205481565b6101d261032a366004611695565b610a96565b34801561033b57600080fd5b5061034f61034a3660046117b8565b610d7a565b604051610171929190611847565b34801561036957600080fd5b50601554610241906001600160a01b031681565b34801561038957600080fd5b506101676802b5e3af16b188000081565b3480156103a657600080fd5b50610167601e5481565b3480156103bc57600080fd5b506102c96103cb3660046115c2565b60166020526000908152604090205460ff1681565b3480156103ec57600080fd5b506103f5610e15565b60405161017191906118a2565b34801561040e57600080fd5b50610167601c5481565b34801561042457600080fd5b5060135460405167ffffffffffffffff9091168152602001610171565b34801561044d57600080fd5b5061016760125481565b34801561046357600080fd5b5061016761047236600461179f565b610fce565b61047f6114c0565b3360009081526018602052604090205460ff166104da5760405162461bcd60e51b815260206004820152601460248201527314195b985b1d1e48199959481b9bdd081c185a5960621b60448201526064015b60405180910390fd5b3360009081526016602052604090205460ff16156105325760405162461bcd60e51b8152602060048201526015602482015274105b1c9958591e4818481c185c9d1a58da5c185b9d605a1b60448201526064016104d1565b6000546001600160a01b0384811691161461055f5760405162461bcd60e51b81526004016104d19061197f565b6001600160a01b038316610692576802b5e3af16b1880000816040015161058691906119bc565b34146105c75760405162461bcd60e51b815260206004820152601060248201526f125b98dbdc9c9958dd08185b5bdd5b9d60821b60448201526064016104d1565b60006802b5e3af16b18800006105de60c8346119ea565b111561061e576106176802b5e3af16b18800007f0000000000000000000000000000000000000000000000000000000000000000610fef565b905061062c565b61062960c8346119ea565b90505b80601a600082825461063e91906119bc565b90915550506040820151601c805460009061065a9084906119bc565b909155505060405130903480156108fc02916000818181858888f1935050505015801561068b573d6000803e3d6000fd5b5050610884565b34156106d65760405162461bcd60e51b8152602060048201526013602482015272496e76616c69642045746865722076616c756560681b60448201526064016104d1565b6000821161071d5760405162461bcd60e51b8152602060048201526014602482015273125b9d985b1a59081d1bdad95b88185b5bdd5b9d60621b60448201526064016104d1565b80516001600160a01b038481169116146107495760405162461bcd60e51b81526004016104d19061197f565b60006802b5e3af16b188000061076060c8856119ea565b111561078d57601454610786906802b5e3af16b1880000906001600160a01b0316610fef565b905061079b565b61079860c8846119ea565b90505b6001600160a01b0384166000908152601b6020526040812080548392906107c39084906119bc565b90915550506040808301516001600160a01b0386166000908152601d6020529182208054919290916107f69084906119bc565b90915550506040516323b872dd60e01b8152336004820152306024820152604481018490526001600160a01b038516906323b872dd90606401602060405180830381600087803b15801561084957600080fd5b505af115801561085d573d6000803e3d6000fd5b505050506040513d601f19601f8201168201806040525081019061088191906119fe565b50505b6017805460018082019092557fc624b66cc0138b8fabc209247f72d758e1cf3343756d543badbf24212bed8c150180546001600160a01b0319163390811790915560008181526016602052604090819020805460ff1916909317909255601954915163329b55b760e21b815260048101919091526001600160a01b039091169063ca6d56dc90602401600060405180830381600087803b15801561092757600080fd5b505af115801561093b573d6000803e3d6000fd5b50506040513392507f6cd71e167cab47cb2ccb763aada102691b585b848adb6395f1da4ac187b9214a9150600090a26017546080820151141561099457600281610120015160038111156109915761099161186a565b50505b505050565b336001600160a01b037f00000000000000000000000000000000000000000000000000000000000000001614610a135760405163073e64fd60e21b81523360048201526001600160a01b037f00000000000000000000000000000000000000000000000000000000000000001660248201526044016104d1565b610a1d8282611025565b5050565b60178181548110610a3157600080fd5b6000918252602090912001546001600160a01b0316905081565b600854600954600154600160a01b90920460ff16916002836003811115610a7457610a7461186a565b148015610a895750610a8681836119bc565b42115b1561099157610991611361565b610a9e6114c0565b3360009081526018602052604090205460ff1615610afe5760405162461bcd60e51b815260206004820152601860248201527f50656e616c74792066656520616c72656164792070616964000000000000000060448201526064016104d1565b6000546001600160a01b03848116911614610b2b5760405162461bcd60e51b81526004016104d19061197f565b6001600160a01b038316151580610b455750806060015134145b610b915760405162461bcd60e51b815260206004820152601c60248201527f496e636f72726563742070656e616c74792066656520616d6f756e740000000060448201526064016104d1565b6001600160a01b038316610c3f5780606001513414610bf25760405162461bcd60e51b815260206004820152601c60248201527f496e636f72726563742070656e616c74792066656520616d6f756e740000000060448201526064016104d1565b8060600151601e6000828254610c0891906119bc565b909155505060405130903480156108fc02916000818181858888f19350505050158015610c39573d6000803e3d6000fd5b50610d5b565b80606001518214610ca15760405162461bcd60e51b815260206004820152602660248201527f496e636f727265637420746f6b656e20616d6f756e7420666f722070656e616c60448201526574792066656560d01b60648201526084016104d1565b60608101516001600160a01b0384166000908152601f602052604081208054909190610cce9084906119bc565b90915550506040516323b872dd60e01b8152336004820152306024820152604481018390526001600160a01b038416906323b872dd90606401602060405180830381600087803b158015610d2157600080fd5b505af1158015610d35573d6000803e3d6000fd5b505050506040513d601f19601f82011682018060405250810190610d5991906119fe565b505b5050336000908152601860205260409020805460ff1916600117905550565b600854600954600154600092606092600160a01b90910460ff16916002836003811115610da957610da961186a565b148015610dbe5750610dbb81836119bc565b42115b15610dcc5760019450610dd1565b600094505b86868080601f016020809104026020016040519081016040528093929190818152602001838380828437600092019190915250979a92995091975050505050505050565b610e1d6114c0565b60408051610160810182526000546001600160a01b03168152600154602082015260025491810191909152600354606082015260045460808201526005805460a083019190610e6b90611a20565b80601f0160208091040260200160405190810160405280929190818152602001828054610e9790611a20565b8015610ee45780601f10610eb957610100808354040283529160200191610ee4565b820191906000526020600020905b815481529060010190602001808311610ec757829003601f168201915b5050505050815260200160006006018054610efe90611a20565b80601f0160208091040260200160405190810160405280929190818152602001828054610f2a90611a20565b8015610f775780601f10610f4c57610100808354040283529160200191610f77565b820191906000526020600020905b815481529060010190602001808311610f5a57829003601f168201915b50505091835250506007546001600160a01b0390811660208301526008549081166040830152606090910190600160a01b900460ff166003811115610fbe57610fbe61186a565b8152600954602090910152919050565b60118181548110610fde57600080fd5b600091825260209091200154905081565b600080610ffb8361142e565b90506000670de0b6b3a76400006110128387611a5b565b61101c91906119ea565b95945050505050565b8051611038906011906020840190611546565b506000601780549050601160008154811061105557611055611a7a565b906000526020600020015461106a9190611a90565b905060006017828154811061108157611081611a7a565b600091825260209091200154601c546001600160a01b0390911691501515806110c15750600080546001600160a01b03168152601d602052604090205415155b61110d5760405162461bcd60e51b815260206004820152601d60248201527f4e6f2062616c616e636520696e2074686520546872696674507572736500000060448201526064016104d1565b601c54156111d057601c5460405160009133918381818185875af1925050503d8060008114611158576040519150601f19603f3d011682016040523d82523d6000602084013e61115d565b606091505b505090508061117f57604051633bdf630f60e11b815260040160405180910390fd5b601c54604080516001600160a01b038516815260208101929092527ff2956657db703b4160a4041a597ea008de026af5e167af02f4be706e475f6bd4910160405180910390a1506000601c55611314565b600080546001600160a01b03168152601d60205260409020541561131457600080546001600160a01b0316808252601d602052604080832054905163a9059cbb60e01b81523360048201526024810191909152909190829063a9059cbb90604401602060405180830381600087803b15801561124b57600080fd5b505af115801561125f573d6000803e3d6000fd5b505050506040513d601f19601f8201168201806040525081019061128391906119fe565b9050806112a357604051633bdf630f60e11b815260040160405180910390fd5b600080546001600160a01b039081168252601d60209081526040928390205483519287168352908201527ff2956657db703b4160a4041a597ea008de026af5e167af02f4be706e475f6bd4910160405180910390a15050600080546001600160a01b03168152601d60205260408120555b600a805490600061132483611aa4565b9091555050600454600a54141561134d576008805460ff60a01b1916600160a01b17905561135b565b6008805460ff60a01b191690555b50505050565b600b54600f546013546010546040516305d3b1d360e41b8152600481019390935267ffffffffffffffff9091166024830152640100000000810461ffff16604483015263ffffffff808216606484015266010000000000009091041660848201526001600160a01b0390911690635d3b1d309060a401602060405180830381600087803b1580156113f157600080fd5b505af1158015611405573d6000803e3d6000fd5b505050506040513d601f19601f820116820180604052508101906114299190611abf565b601255565b600080826001600160a01b031663feaf968c6040518163ffffffff1660e01b815260040160a06040518083038186803b15801561146a57600080fd5b505afa15801561147e573d6000803e3d6000fd5b505050506040513d601f19601f820116820180604052508101906114a29190611af2565b505050915050806402540be4006114b99190611b42565b9392505050565b60405180610160016040528060006001600160a01b0316815260200160008152602001600081526020016000815260200160008152602001606081526020016060815260200160006001600160a01b0316815260200160006001600160a01b03168152602001600060038111156115395761153961186a565b8152602001600081525090565b828054828255906000526020600020908101928215611581579160200282015b82811115611581578251825591602001919060010190611566565b5061158d929150611591565b5090565b5b8082111561158d5760008155600101611592565b80356001600160a01b03811681146115bd57600080fd5b919050565b6000602082840312156115d457600080fd5b6114b9826115a6565b60008083601f8401126115ef57600080fd5b50813567ffffffffffffffff81111561160757600080fd5b60208301915083602082850101111561161f57600080fd5b9250929050565b60008060008060006080868803121561163e57600080fd5b611647866115a6565b9450611655602087016115a6565b935060408601359250606086013567ffffffffffffffff81111561167857600080fd5b611684888289016115dd565b969995985093965092949392505050565b600080604083850312156116a857600080fd5b6116b1836115a6565b946020939093013593505050565b634e487b7160e01b600052604160045260246000fd5b600080604083850312156116e857600080fd5b8235915060208084013567ffffffffffffffff8082111561170857600080fd5b818601915086601f83011261171c57600080fd5b81358181111561172e5761172e6116bf565b8060051b604051601f19603f83011681018181108582111715611753576117536116bf565b60405291825284820192508381018501918983111561177157600080fd5b938501935b8285101561178f57843584529385019392850192611776565b8096505050505050509250929050565b6000602082840312156117b157600080fd5b5035919050565b600080602083850312156117cb57600080fd5b823567ffffffffffffffff8111156117e257600080fd5b6117ee858286016115dd565b90969095509350505050565b6000815180845260005b8181101561182057602081850181015186830182015201611804565b81811115611832576000602083870101525b50601f01601f19169290920160200192915050565b821515815260406020820152600061186260408301846117fa565b949350505050565b634e487b7160e01b600052602160045260246000fd5b6004811061189e57634e487b7160e01b600052602160045260246000fd5b9052565b602081526118bc6020820183516001600160a01b03169052565b602082015160408201526040820151606082015260608201516080820152608082015160a0820152600060a08301516101608060c08501526119026101808501836117fa565b915060c0850151601f198584030160e086015261191f83826117fa565b92505060e085015161010061193e818701836001600160a01b03169052565b860151905061012061195a868201836001600160a01b03169052565b860151905061014061196e86820183611880565b959095015193019290925250919050565b6020808252600d908201526c24b73b30b634b2103a37b5b2b760991b604082015260600190565b634e487b7160e01b600052601160045260246000fd5b600082198211156119cf576119cf6119a6565b500190565b634e487b7160e01b600052601260045260246000fd5b6000826119f9576119f96119d4565b500490565b600060208284031215611a1057600080fd5b815180151581146114b957600080fd5b600181811c90821680611a3457607f821691505b60208210811415611a5557634e487b7160e01b600052602260045260246000fd5b50919050565b6000816000190483118215151615611a7557611a756119a6565b500290565b634e487b7160e01b600052603260045260246000fd5b600082611a9f57611a9f6119d4565b500690565b6000600019821415611ab857611ab86119a6565b5060010190565b600060208284031215611ad157600080fd5b5051919050565b805169ffffffffffffffffffff811681146115bd57600080fd5b600080600080600060a08688031215611b0a57600080fd5b611b1386611ad8565b9450602086015193506040860151925060608601519150611b3660808701611ad8565b90509295509295909350565b60006001600160ff1b0381841382841380821686840486111615611b6857611b686119a6565b600160ff1b6000871282811687830589121615611b8757611b876119a6565b60008712925087820587128484161615611ba357611ba36119a6565b87850587128184161615611bb957611bb96119a6565b50505092909302939250505056fea26469706673582212200760c20a78749194de04b3de52bebd8d02b00dbd02b7ba653673ef3cbb8d395764736f6c63430008090033",
  "linkReferences": {},
  "deployedLinkReferences": {}
}