{
  "_format": "hh-sol-artifact-1",
  "contractName": "ThriftClubFactory",
  "sourceName": "contracts/ThriftClubFactory.sol",
  "abi": [
    {
      "inputs": [],
      "stateMutability": "nonpayable",
      "type": "constructor"
    },
    {
      "anonymous": false,
      "inputs": [
        {
          "indexed": true,
          "internalType": "address",
          "name": "thriftClub",
          "type": "address"
        },
        {
          "indexed": true,
          "internalType": "address",
          "name": "creator",
          "type": "address"
        }
      ],
      "name": "ThriftClubCreated",
      "type": "event"
    },
    {
      "inputs": [
        {
          "internalType": "address",
          "name": "",
          "type": "address"
        }
      ],
      "name": "clubToNFT",
      "outputs": [
        {
          "internalType": "address",
          "name": "",
          "type": "address"
        }
      ],
      "stateMutability": "view",
      "type": "function"
    },
    {
      "inputs": [
        {
          "internalType": "address",
          "name": "",
          "type": "address"
        }
      ],
      "name": "clubtoDAO",
      "outputs": [
        {
          "internalType": "address",
          "name": "",
          "type": "address"
        }
      ],
      "stateMutability": "view",
      "type": "function"
    },
    {
      "inputs": [
        {
          "internalType": "address",
          "name": "_token",
          "type": "address"
        },
        {
          "internalType": "uint256",
          "name": "_cycleDuration",
          "type": "uint256"
        },
        {
          "internalType": "uint256",
          "name": "_contributionAmount",
          "type": "uint256"
        },
        {
          "internalType": "uint256",
          "name": "_penalty",
          "type": "uint256"
        },
        {
          "internalType": "uint256",
          "name": "_maxParticipant",
          "type": "uint256"
        },
        {
          "internalType": "string",
          "name": "_name",
          "type": "string"
        },
        {
          "internalType": "string",
          "name": "_description",
          "type": "string"
        }
      ],
      "name": "createThriftClub",
      "outputs": [],
      "stateMutability": "payable",
      "type": "function"
    },
    {
      "inputs": [
        {
          "internalType": "address",
          "name": "_thriftClub",
          "type": "address"
        }
      ],
      "name": "getDAO",
      "outputs": [
        {
          "internalType": "address",
          "name": "",
          "type": "address"
        }
      ],
      "stateMutability": "view",
      "type": "function"
    },
    {
      "inputs": [
        {
          "internalType": "address",
          "name": "_thriftClub",
          "type": "address"
        }
      ],
      "name": "getNFT",
      "outputs": [
        {
          "internalType": "address",
          "name": "",
          "type": "address"
        }
      ],
      "stateMutability": "view",
      "type": "function"
    },
    {
      "inputs": [
        {
          "internalType": "uint256",
          "name": "_id",
          "type": "uint256"
        }
      ],
      "name": "getThriftClub",
      "outputs": [
        {
          "internalType": "address",
          "name": "",
          "type": "address"
        }
      ],
      "stateMutability": "view",
      "type": "function"
    },
    {
      "inputs": [],
      "name": "getThriftClubs",
      "outputs": [
        {
          "internalType": "address[]",
          "name": "",
          "type": "address[]"
        }
      ],
      "stateMutability": "view",
      "type": "function"
    },
    {
      "inputs": [
        {
          "internalType": "uint256",
          "name": "",
          "type": "uint256"
        }
      ],
      "name": "thriftClubs",
      "outputs": [
        {
          "internalType": "address",
          "name": "",
          "type": "address"
        }
      ],
      "stateMutability": "view",
      "type": "function"
    }
  ],
  "bytecode": "0x608060405234801561001057600080fd5b50600080546001600160a01b03191633179055614cab806100326000396000f3fe608060405260043610620000855760003560e01c80636005dab811620000545780636005dab8146200015257806363609c1c146200018c57806374b0290114620001b1578063d08c7f9614620001ca57600080fd5b8063161a6c1e146200008a578063273b614914620000cc5780632eb54fb214620000f1578063536c59901462000118575b600080fd5b3480156200009757600080fd5b50620000af620000a93660046200075f565b620001ef565b6040516001600160a01b0390911681526020015b60405180910390f35b348015620000d957600080fd5b50620000af620000eb3660046200075f565b6200027d565b348015620000fe57600080fd5b506200010962000307565b604051620000c3919062000784565b3480156200012557600080fd5b50620000af620001373660046200075f565b6001602052600090815260409020546001600160a01b031681565b3480156200015f57600080fd5b50620000af620001713660046200075f565b6002602052600090815260409020546001600160a01b031681565b3480156200019957600080fd5b50620000af620001ab366004620007d3565b6200036b565b620001c8620001c236600462000898565b62000396565b005b348015620001d757600080fd5b50620000af620001e9366004620007d3565b62000519565b6001600160a01b038181166000908152600160205260408120549091166200025e5760405162461bcd60e51b815260206004820152601a60248201527f4e4654206e6f7420666f756e6420666f722074686520636c756200000000000060448201526064015b60405180910390fd5b506001600160a01b039081166000908152600160205260409020541690565b6001600160a01b03818116600090815260026020526040812054909116620002e85760405162461bcd60e51b815260206004820152601a60248201527f4e4654206e6f7420666f756e6420666f722074686520636c7562000000000000604482015260640162000255565b506001600160a01b039081166000908152600260205260409020541690565b606060038054806020026020016040519081016040528092919081815260200182805480156200036157602002820191906000526020600020905b81546001600160a01b0316815260019091019060200180831162000342575b5050505050905090565b600381815481106200037c57600080fd5b6000918252602090912001546001600160a01b0316905081565b6000604051620003a69062000718565b604051809103906000f080158015620003c3573d6000803e3d6000fd5b509050600083620003d8856000600362000592565b86604051620003e79062000726565b620003f5939291906200098c565b604051809103906000f08015801562000412573d6000803e3d6000fd5b5090506000348a8a8a8a8a8a8a898b6040516200042f9062000734565b6200044399989796959493929190620009c6565b6040518091039082f090508015801562000461573d6000803e3d6000fd5b506001600160a01b03818116600081815260016020818152604080842080546001600160a01b03199081168b891617909155600290925280842080548316968b169690961790955560038054928301815583527fc2575a0e9e593c00f959f8c92f12db2869c3395a3b0502d05e2516446f71f85b9091018054909116831790559151929350339290917f9232aea268057a28bf1afabc12d520f0095b1b47ac81cfbd9d0bdd9257515a1f91a350505050505050505050565b6003546000908210620005615760405162461bcd60e51b815260206004820152600f60248201526e125b9d985b1a590818db1d58881251608a1b604482015260640162000255565b6003828154811062000577576200057762000a3c565b6000918252602090912001546001600160a01b031692915050565b60608380518410620005dd5760405162461bcd60e51b8152602060048201526013602482015272092dcecc2d8d2c840e6e8c2e4e840d2dcc8caf606b1b604482015260640162000255565b838310158015620005ee5750805183105b620006305760405162461bcd60e51b8152602060048201526011602482015270092dcecc2d8d2c840cadcc840d2dcc8caf607b1b604482015260640162000255565b60006200063e858562000a68565b6200064b90600162000a82565b67ffffffffffffffff811115620006665762000666620007ed565b6040519080825280601f01601f19166020018201604052801562000691576020820181803683370190505b509050845b8481116200070e57828181518110620006b357620006b362000a3c565b01602001516001600160f81b03191682620006cf888462000a68565b81518110620006e257620006e262000a3c565b60200101906001600160f81b031916908160001a90535080620007058162000a9d565b91505062000696565b5095945050505050565b61041d8062000abc83390190565b6117068062000ed983390190565b61269780620025df83390190565b80356001600160a01b03811681146200075a57600080fd5b919050565b6000602082840312156200077257600080fd5b6200077d8262000742565b9392505050565b6020808252825182820181905260009190848201906040850190845b81811015620007c75783516001600160a01b031683529284019291840191600101620007a0565b50909695505050505050565b600060208284031215620007e657600080fd5b5035919050565b634e487b7160e01b600052604160045260246000fd5b600082601f8301126200081557600080fd5b813567ffffffffffffffff80821115620008335762000833620007ed565b604051601f8301601f19908116603f011681019082821181831017156200085e576200085e620007ed565b816040528381528660208588010111156200087857600080fd5b836020870160208301376000602085830101528094505050505092915050565b600080600080600080600060e0888a031215620008b457600080fd5b620008bf8862000742565b96506020880135955060408801359450606088013593506080880135925060a088013567ffffffffffffffff80821115620008f957600080fd5b620009078b838c0162000803565b935060c08a01359150808211156200091e57600080fd5b506200092d8a828b0162000803565b91505092959891949750929550565b6000815180845260005b81811015620009645760208185018101518683018201520162000946565b8181111562000977576000602083870101525b50601f01601f19169290920160200192915050565b606081526000620009a160608301866200093c565b8281036020840152620009b581866200093c565b915050826040830152949350505050565b600061012060018060a01b03808d1684528b60208501528a60408501528960608501528860808501528160a085015262000a03828501896200093c565b915083820360c085015262000a1982886200093c565b925080861660e085015280851661010085015250509a9950505050505050505050565b634e487b7160e01b600052603260045260246000fd5b634e487b7160e01b600052601160045260246000fd5b60008282101562000a7d5762000a7d62000a52565b500390565b6000821982111562000a985762000a9862000a52565b500190565b600060001982141562000ab45762000ab462000a52565b506001019056fe608060405234801561001057600080fd5b50600280546001600160a01b031916331790556103eb806100326000396000f3fe608060405234801561001057600080fd5b50600436106100625760003560e01c806308ae4b0c146100675780630b1ca49a1461009f5780638da5cb5b146100b4578063adfaa72e146100df578063c9d27afe14610102578063ca6d56dc14610115575b600080fd5b61008a61007536600461030f565b60006020819052908152604090205460ff1681565b60405190151581526020015b60405180910390f35b6100b26100ad36600461030f565b610128565b005b6002546100c7906001600160a01b031681565b6040516001600160a01b039091168152602001610096565b61008a6100ed36600461030f565b60016020526000908152604090205460ff1681565b6100b261011036600461033f565b6101ef565b6100b261012336600461030f565b61024b565b6002546001600160a01b0316331461015b5760405162461bcd60e51b815260040161015290610374565b60405180910390fd5b6001600160a01b03811660009081526020819052604090205460ff166101bb5760405162461bcd60e51b815260206004820152601560248201527413595b58995c88191bd95cc81b9bdd08195e1a5cdd605a1b6044820152606401610152565b6001600160a01b0316600090815260208181526040808320805460ff19908116909155600190925290912080549091169055565b3360009081526001602052604090205460ff166102475760405162461bcd60e51b81526020600482015260166024820152754e6f7420617574686f72697a656420746f20766f746560501b6044820152606401610152565b5050565b6002546001600160a01b031633146102755760405162461bcd60e51b815260040161015290610374565b6001600160a01b03811660009081526020819052604090205460ff16156102d65760405162461bcd60e51b81526020600482015260156024820152744d656d62657220616c72656164792065786973747360581b6044820152606401610152565b6001600160a01b03166000908152602081815260408083208054600160ff19918216811790925592819052922080549091169091179055565b60006020828403121561032157600080fd5b81356001600160a01b038116811461033857600080fd5b9392505050565b6000806040838503121561035257600080fd5b823591506020830135801515811461036957600080fd5b809150509250929050565b60208082526021908201527f4f6e6c79206f776e65722063616e2063616c6c20746869732066756e6374696f6040820152603760f91b60608201526080019056fea2646970667358221220b37f7452248c2e7934325ce46ddf86f90f596e5fb94dd029f2f192f22ebe207c64736f6c6343000809003360806040523480156200001157600080fd5b5060405162001706380380620017068339810160408190526200003491620001ea565b8251839083906200004d90600090602085019062000077565b5080516200006390600190602084019062000077565b5050600060065550600855506200029a9050565b82805462000085906200025d565b90600052602060002090601f016020900481019282620000a95760008555620000f4565b82601f10620000c457805160ff1916838001178555620000f4565b82800160010185558215620000f4579182015b82811115620000f4578251825591602001919060010190620000d7565b506200010292915062000106565b5090565b5b8082111562000102576000815560010162000107565b634e487b7160e01b600052604160045260246000fd5b600082601f8301126200014557600080fd5b81516001600160401b03808211156200016257620001626200011d565b604051601f8301601f19908116603f011681019082821181831017156200018d576200018d6200011d565b81604052838152602092508683858801011115620001aa57600080fd5b600091505b83821015620001ce5785820183015181830184015290820190620001af565b83821115620001e05760008385830101525b9695505050505050565b6000806000606084860312156200020057600080fd5b83516001600160401b03808211156200021857600080fd5b620002268783880162000133565b945060208601519150808211156200023d57600080fd5b506200024c8682870162000133565b925050604084015190509250925092565b600181811c908216806200027257607f821691505b602082108114156200029457634e487b7160e01b600052602260045260246000fd5b50919050565b61145c80620002aa6000396000f3fe608060405234801561001057600080fd5b50600436106100f55760003560e01c80636a62784211610097578063b88d4fde11610066578063b88d4fde146101ff578063c87b56dd14610212578063d5abeb0114610225578063e985e9c51461022e57600080fd5b80636a627842146101b057806370a08231146101c357806395d89b41146101e4578063a22cb465146101ec57600080fd5b8063095ea7b3116100d3578063095ea7b31461016257806323b872dd1461017757806342842e0e1461018a5780636352211e1461019d57600080fd5b806301ffc9a7146100fa57806306fdde0314610122578063081812fc14610137575b600080fd5b61010d610108366004610fb6565b61026a565b60405190151581526020015b60405180910390f35b61012a6102bc565b604051610119919061102b565b61014a61014536600461103e565b61034e565b6040516001600160a01b039091168152602001610119565b610175610170366004611073565b610375565b005b61017561018536600461109d565b610490565b61017561019836600461109d565b6104c1565b61014a6101ab36600461103e565b6104dc565b6101756101be3660046110d9565b61053c565b6101d66101d13660046110d9565b610641565b604051908152602001610119565b61012a6106c7565b6101756101fa3660046110f4565b6106d6565b61017561020d366004611146565b6106e5565b61012a61022036600461103e565b61071d565b6101d660085481565b61010d61023c366004611222565b6001600160a01b03918216600090815260056020908152604080832093909416825291909152205460ff1690565b60006001600160e01b031982166380ac58cd60e01b148061029b57506001600160e01b03198216635b5e139f60e01b145b806102b657506301ffc9a760e01b6001600160e01b03198316145b92915050565b6060600080546102cb90611255565b80601f01602080910402602001604051908101604052809291908181526020018280546102f790611255565b80156103445780601f1061031957610100808354040283529160200191610344565b820191906000526020600020905b81548152906001019060200180831161032757829003601f168201915b5050505050905090565b600061035982610791565b506000908152600460205260409020546001600160a01b031690565b6000610380826104dc565b9050806001600160a01b0316836001600160a01b031614156103f35760405162461bcd60e51b815260206004820152602160248201527f4552433732313a20617070726f76616c20746f2063757272656e74206f776e656044820152603960f91b60648201526084015b60405180910390fd5b336001600160a01b038216148061040f575061040f813361023c565b6104815760405162461bcd60e51b815260206004820152603d60248201527f4552433732313a20617070726f76652063616c6c6572206973206e6f7420746f60448201527f6b656e206f776e6572206f7220617070726f76656420666f7220616c6c00000060648201526084016103ea565b61048b83836107f3565b505050565b61049a3382610861565b6104b65760405162461bcd60e51b81526004016103ea90611290565b61048b8383836108e0565b61048b838383604051806020016040528060008152506106e5565b6000818152600260205260408120546001600160a01b0316806102b65760405162461bcd60e51b8152602060048201526018602482015277115490cdcc8c4e881a5b9d985b1a59081d1bdad95b88125160421b60448201526064016103ea565b6001600160a01b03811660009081526007602052604090205460ff16156105b05760405162461bcd60e51b815260206004820152602260248201527f416c7265616479206d696e746564204e465420666f7220746865206163636f756044820152611b9d60f21b60648201526084016103ea565b600854600654106105fc5760405162461bcd60e51b815260206004820152601660248201527513585e1a5b5d5b481cdd5c1c1b1e481c995858da195960521b60448201526064016103ea565b61060881600654610a44565b60068054906000610618836112dd565b90915550506001600160a01b03166000908152600760205260409020805460ff19166001179055565b60006001600160a01b0382166106ab5760405162461bcd60e51b815260206004820152602960248201527f4552433732313a2061646472657373207a65726f206973206e6f7420612076616044820152683634b21037bbb732b960b91b60648201526084016103ea565b506001600160a01b031660009081526003602052604090205490565b6060600180546102cb90611255565b6106e1338383610a5e565b5050565b6106ef3383610861565b61070b5760405162461bcd60e51b81526004016103ea90611290565b61071784848484610b2d565b50505050565b606061072882610791565b600061073f60408051602081019091526000815290565b9050600081511161075f576040518060200160405280600081525061078a565b8061076984610b60565b60405160200161077a929190611306565b6040516020818303038152906040525b9392505050565b6000818152600260205260409020546001600160a01b03166107f05760405162461bcd60e51b8152602060048201526018602482015277115490cdcc8c4e881a5b9d985b1a59081d1bdad95b88125160421b60448201526064016103ea565b50565b600081815260046020526040902080546001600160a01b0319166001600160a01b0384169081179091558190610828826104dc565b6001600160a01b03167f8c5be1e5ebec7d5bd14f71427d1e84f3dd0314c0f7b2291e5b200ac8c7c3b92560405160405180910390a45050565b60008061086d836104dc565b9050806001600160a01b0316846001600160a01b031614806108b457506001600160a01b0380821660009081526005602090815260408083209388168352929052205460ff165b806108d85750836001600160a01b03166108cd8461034e565b6001600160a01b0316145b949350505050565b826001600160a01b03166108f3826104dc565b6001600160a01b0316146109195760405162461bcd60e51b81526004016103ea90611335565b6001600160a01b03821661097b5760405162461bcd60e51b8152602060048201526024808201527f4552433732313a207472616e7366657220746f20746865207a65726f206164646044820152637265737360e01b60648201526084016103ea565b826001600160a01b031661098e826104dc565b6001600160a01b0316146109b45760405162461bcd60e51b81526004016103ea90611335565b600081815260046020908152604080832080546001600160a01b03199081169091556001600160a01b0387811680865260038552838620805460001901905590871680865283862080546001019055868652600290945282852080549092168417909155905184937fddf252ad1be2c89b69c2b068fc378daa952ba7f163c4a11628f55a4df523b3ef91a4505050565b6106e1828260405180602001604052806000815250610bfd565b816001600160a01b0316836001600160a01b03161415610ac05760405162461bcd60e51b815260206004820152601960248201527f4552433732313a20617070726f766520746f2063616c6c65720000000000000060448201526064016103ea565b6001600160a01b03838116600081815260056020908152604080832094871680845294825291829020805460ff191686151590811790915591519182527f17307eab39ab6107e8899845ad3d59bd9653f200f220920489ca2b5937696c31910160405180910390a3505050565b610b388484846108e0565b610b4484848484610c30565b6107175760405162461bcd60e51b81526004016103ea9061137a565b60606000610b6d83610d3d565b600101905060008167ffffffffffffffff811115610b8d57610b8d611130565b6040519080825280601f01601f191660200182016040528015610bb7576020820181803683370190505b5090508181016020015b600019016f181899199a1a9b1b9c1cb0b131b232b360811b600a86061a8153600a8504945084610bf057610bf5565b610bc1565b509392505050565b610c078383610e15565b610c146000848484610c30565b61048b5760405162461bcd60e51b81526004016103ea9061137a565b60006001600160a01b0384163b15610d3257604051630a85bd0160e11b81526001600160a01b0385169063150b7a0290610c749033908990889088906004016113cc565b602060405180830381600087803b158015610c8e57600080fd5b505af1925050508015610cbe575060408051601f3d908101601f19168201909252610cbb91810190611409565b60015b610d18573d808015610cec576040519150601f19603f3d011682016040523d82523d6000602084013e610cf1565b606091505b508051610d105760405162461bcd60e51b81526004016103ea9061137a565b805181602001fd5b6001600160e01b031916630a85bd0160e11b1490506108d8565b506001949350505050565b60008072184f03e93ff9f4daa797ed6e38ed64bf6a1f0160401b8310610d7c5772184f03e93ff9f4daa797ed6e38ed64bf6a1f0160401b830492506040015b6d04ee2d6d415b85acef81000000008310610da8576d04ee2d6d415b85acef8100000000830492506020015b662386f26fc100008310610dc657662386f26fc10000830492506010015b6305f5e1008310610dde576305f5e100830492506008015b6127108310610df257612710830492506004015b60648310610e04576064830492506002015b600a83106102b65760010192915050565b6001600160a01b038216610e6b5760405162461bcd60e51b815260206004820181905260248201527f4552433732313a206d696e7420746f20746865207a65726f206164647265737360448201526064016103ea565b6000818152600260205260409020546001600160a01b031615610ed05760405162461bcd60e51b815260206004820152601c60248201527f4552433732313a20746f6b656e20616c7265616479206d696e7465640000000060448201526064016103ea565b6000818152600260205260409020546001600160a01b031615610f355760405162461bcd60e51b815260206004820152601c60248201527f4552433732313a20746f6b656e20616c7265616479206d696e7465640000000060448201526064016103ea565b6001600160a01b038216600081815260036020908152604080832080546001019055848352600290915280822080546001600160a01b0319168417905551839291907fddf252ad1be2c89b69c2b068fc378daa952ba7f163c4a11628f55a4df523b3ef908290a45050565b6001600160e01b0319811681146107f057600080fd5b600060208284031215610fc857600080fd5b813561078a81610fa0565b60005b83811015610fee578181015183820152602001610fd6565b838111156107175750506000910152565b60008151808452611017816020860160208601610fd3565b601f01601f19169290920160200192915050565b60208152600061078a6020830184610fff565b60006020828403121561105057600080fd5b5035919050565b80356001600160a01b038116811461106e57600080fd5b919050565b6000806040838503121561108657600080fd5b61108f83611057565b946020939093013593505050565b6000806000606084860312156110b257600080fd5b6110bb84611057565b92506110c960208501611057565b9150604084013590509250925092565b6000602082840312156110eb57600080fd5b61078a82611057565b6000806040838503121561110757600080fd5b61111083611057565b91506020830135801515811461112557600080fd5b809150509250929050565b634e487b7160e01b600052604160045260246000fd5b6000806000806080858703121561115c57600080fd5b61116585611057565b935061117360208601611057565b925060408501359150606085013567ffffffffffffffff8082111561119757600080fd5b818701915087601f8301126111ab57600080fd5b8135818111156111bd576111bd611130565b604051601f8201601f19908116603f011681019083821181831017156111e5576111e5611130565b816040528281528a60208487010111156111fe57600080fd5b82602086016020830137600060208483010152809550505050505092959194509250565b6000806040838503121561123557600080fd5b61123e83611057565b915061124c60208401611057565b90509250929050565b600181811c9082168061126957607f821691505b6020821081141561128a57634e487b7160e01b600052602260045260246000fd5b50919050565b6020808252602d908201527f4552433732313a2063616c6c6572206973206e6f7420746f6b656e206f776e6560408201526c1c881bdc88185c1c1c9bdd9959609a1b606082015260800190565b60006000198214156112ff57634e487b7160e01b600052601160045260246000fd5b5060010190565b60008351611318818460208801610fd3565b83519083019061132c818360208801610fd3565b01949350505050565b60208082526025908201527f4552433732313a207472616e736665722066726f6d20696e636f72726563742060408201526437bbb732b960d91b606082015260800190565b60208082526032908201527f4552433732313a207472616e7366657220746f206e6f6e20455243373231526560408201527131b2b4bb32b91034b6b83632b6b2b73a32b960711b606082015260800190565b6001600160a01b03858116825284166020820152604081018390526080606082018190526000906113ff90830184610fff565b9695505050505050565b60006020828403121561141b57600080fd5b815161078a81610fa056fea26469706673582212209f1f150a5bb62c55e9cad01ff2d086a6dc7220a47c8be20db7a581f47fca52f664736f6c634300080900336101c060408190526000600a55600b805473326c977e6efc84e512bb9c30f76e30c160ed06fb6001600160a01b0319918216179091557f474e34a077df58807dbe9c96d3c009b23b3c6d0cce433e59bbf5b34f823bc56c600c55600d80546001600160501b03191666010003000186a0179055601254601180546001600160a01b039092169183169190911790556017805461080992168217905563fb7cfdd760e01b82529063fb7cfdd7906101c49060209060048186803b158015620000c557600080fd5b505afa158015620000da573d6000803e3d6000fd5b505050506040513d601f19601f8201168201806040525081019062000100919062000577565b601855601980546001600160401b031916620186a09081179091556200012c9064012a05f20062000591565b6001600160401b0316601a55601b805463ffffffff191660021790557f6368616e67652d6d652d746f2d616e797468696e670000000000000000000000601c5560405162002697388190039081908339810160408190526200018e91620006b9565b6018543410156200019e57600080fd5b73d0d5e3db44de05e9f294bb0a3beeaf030de24ada60805273572ddec9087154dc5dfbb1546bb62713147e0ab060a0527392c09849638959196e976289418e5973cc96d64560c052730fcaa9c899ec5a91ebc3d5dd869de833b06fb04660e052727a22900a3b98143368bd5906f8e17e9867581b610100526000610120819052730fa8781a83e46826621b3bc094ea2a0212e71b236101405273a02f6adc7926efebbd59fd43a84f4e0c0c91e83261016052721b3b4d0f3714ca98ba10f6042daebf0b1b7b6f61018052730d787a4a1548f673ed375445535a6c7a1ee561806101a05280546001600160a01b0319166001600160a01b038b1617905560018890556002879055600386905560048590558351620002c3906005906020870190620004d1565b508251620002d9906006906020860190620004d1565b50600780546001600160a01b0319166001600160a01b0384811691909117909155600880546001600160a81b0319169183169190911790554260095581620003218a62000331565b50505050505050505050620007c2565b610140516001600160a01b0316816001600160a01b03161415620003755761014051601280546001600160a01b0319166001600160a01b0390921691909117905550565b610160516001600160a01b0316816001600160a01b03161415620003b95761016051601280546001600160a01b0319166001600160a01b0390921691909117905550565b610180516001600160a01b0316816001600160a01b03161415620003fd5761018051601280546001600160a01b0319166001600160a01b0390921691909117905550565b6101a0516001600160a01b0316816001600160a01b0316141562000441576101a051601280546001600160a01b0319166001600160a01b0390921691909117905550565b610120516001600160a01b0316816001600160a01b03161415620004855761012051601280546001600160a01b0319166001600160a01b0390921691909117905550565b60405162461bcd60e51b815260206004820152601560248201527f496e76616c696420746f6b656e20616464726573730000000000000000000000604482015260640160405180910390fd5b828054620004df9062000785565b90600052602060002090601f0160209004810192826200050357600085556200054e565b82601f106200051e57805160ff19168380011785556200054e565b828001600101855582156200054e579182015b828111156200054e57825182559160200191906001019062000531565b506200055c92915062000560565b5090565b5b808211156200055c576000815560010162000561565b6000602082840312156200058a57600080fd5b5051919050565b60006001600160401b0382811684821681151582840482111615620005c657634e487b7160e01b600052601160045260246000fd5b02949350505050565b80516001600160a01b0381168114620005e757600080fd5b919050565b634e487b7160e01b600052604160045260246000fd5b600082601f8301126200061457600080fd5b81516001600160401b0380821115620006315762000631620005ec565b604051601f8301601f19908116603f011681019082821181831017156200065c576200065c620005ec565b816040528381526020925086838588010111156200067957600080fd5b600091505b838210156200069d57858201830151818301840152908201906200067e565b83821115620006af5760008385830101525b9695505050505050565b60008060008060008060008060006101208a8c031215620006d957600080fd5b620006e48a620005cf565b60208b015160408c015160608d015160808e015160a08f0151949d50929b50909950975095506001600160401b03808211156200072057600080fd5b6200072e8d838e0162000602565b955060c08c01519150808211156200074557600080fd5b50620007548c828d0162000602565b9350506200076560e08b01620005cf565b9150620007766101008b01620005cf565b90509295985092959850929598565b600181811c908216806200079a57607f821691505b60208210811415620007bc57634e487b7160e01b600052602260045260246000fd5b50919050565b60805160a05160c05160e05161010051610120516101405161016051610180516101a051611e7462000823600039600050506000505060005050600050506000505060005050600050506000505060005050600061079e0152611e746000f3fe6080604052600436106101c15760003560e01c80635fa17ec5116100f7578063929066f511610095578063e89e106a11610064578063e89e106a14610565578063f6eaffc81461057b578063f8413b071461059b578063fb7cfdd7146105a357600080fd5b8063929066f5146104d1578063993f507c14610501578063b8d6338d1461052d578063de28c2ec1461054f57600080fd5b806376fe16cb116100d157806376fe16cb1461044c578063774dee891461046c5780637d5a9c5a146104895780638fd2ea4a146104bb57600080fd5b80635fa17ec5146103f65780636adc21ea1461042357806376c7a3c71461043657600080fd5b80632c7eb91d116101645780634a7ffcbc1161013e5780634a7ffcbc146103465780634bca67bf1461036657806351a8e298146103a65780635226e60b146103e057600080fd5b80632c7eb91d146102c157806335c1d349146102ee578063360131891461032657600080fd5b8063150b7a02116101a0578063150b7a021461023357806317a47282146102785780631fbfce1b1461028e5780631fe543e3146102a157600080fd5b80626d6cae146101c65780630a1b0e3c146101ef57806314b859a91461021c575b600080fd5b3480156101d257600080fd5b506101dc601d5481565b6040519081526020015b60405180910390f35b3480156101fb57600080fd5b506101dc61020a366004611832565b60216020526000908152604090205481565b34801561022857600080fd5b506102316105b9565b005b34801561023f57600080fd5b5061025f61024e36600461184d565b630a85bd0160e11b95945050505050565b6040516001600160e01b031990911681526020016101e6565b34801561028457600080fd5b506101dc601c5481565b61023161029c3660046118e8565b610622565b3480156102ad57600080fd5b506102316102bc366004611928565b610b44565b3480156102cd57600080fd5b506101dc6102dc366004611832565b601f6020526000908152604090205481565b3480156102fa57600080fd5b5061030e6103093660046119f2565b610bae565b6040516001600160a01b0390911681526020016101e6565b34801561033257600080fd5b5060175461030e906001600160a01b031681565b34801561035257600080fd5b5060165461030e906001600160a01b031681565b34801561037257600080fd5b50610396610381366004611832565b60156020526000908152604090205460ff1681565b60405190151581526020016101e6565b3480156103b257600080fd5b506019546103c79067ffffffffffffffff1681565b60405167ffffffffffffffff90911681526020016101e6565b3480156103ec57600080fd5b506101dc601e5481565b34801561040257600080fd5b506101dc610411366004611832565b60236020526000908152604090205481565b6102316104313660046118e8565b610bd8565b34801561044257600080fd5b506101dc601a5481565b34801561045857600080fd5b5060125461030e906001600160a01b031681565b34801561047857600080fd5b506101dc6802b5e3af16b188000081565b34801561049557600080fd5b50601b546104a69063ffffffff1681565b60405163ffffffff90911681526020016101e6565b3480156104c757600080fd5b506101dc60225481565b3480156104dd57600080fd5b506103966104ec366004611832565b60136020526000908152604090205460ff1681565b34801561050d57600080fd5b50610516610e56565b6040516101e69b9a99989796959493929190611a90565b34801561053957600080fd5b50610542610fc4565b6040516101e69190611b19565b34801561055b57600080fd5b506101dc60205481565b34801561057157600080fd5b506101dc600f5481565b34801561058757600080fd5b506101dc6105963660046119f2565b61117d565b61023161119e565b3480156105af57600080fd5b506101dc60185481565b601754601d54604051639a91eb0d60e01b81526001600160a01b0390921691639a91eb0d916105ee9160040190815260200190565b600060405180830381600087803b15801561060857600080fd5b505af115801561061c573d6000803e3d6000fd5b50505050565b61062a611730565b3360009081526015602052604090205460ff166106855760405162461bcd60e51b815260206004820152601460248201527314195b985b1d1e48199959481b9bdd081c185a5960621b60448201526064015b60405180910390fd5b3360009081526013602052604090205460ff16156106dd5760405162461bcd60e51b8152602060048201526015602482015274105b1c9958591e4818481c185c9d1a58da5c185b9d605a1b604482015260640161067c565b6000546001600160a01b0384811691161461070a5760405162461bcd60e51b815260040161067c90611bf6565b6001600160a01b03831661083d576802b5e3af16b188000081604001516107319190611c33565b34146107725760405162461bcd60e51b815260206004820152601060248201526f125b98dbdc9c9958dd08185b5bdd5b9d60821b604482015260640161067c565b60006802b5e3af16b188000061078960c834611c61565b11156107c9576107c26802b5e3af16b18800007f00000000000000000000000000000000000000000000000000000000000000006112e5565b90506107d7565b6107d460c834611c61565b90505b80601e60008282546107e99190611c33565b9091555050604082015160208054600090610805908490611c33565b909155505060405130903480156108fc02916000818181858888f19350505050158015610836573d6000803e3d6000fd5b5050610a2f565b34156108815760405162461bcd60e51b8152602060048201526013602482015272496e76616c69642045746865722076616c756560681b604482015260640161067c565b600082116108c85760405162461bcd60e51b8152602060048201526014602482015273125b9d985b1a59081d1bdad95b88185b5bdd5b9d60621b604482015260640161067c565b80516001600160a01b038481169116146108f45760405162461bcd60e51b815260040161067c90611bf6565b60006802b5e3af16b188000061090b60c885611c61565b111561093857601154610931906802b5e3af16b1880000906001600160a01b03166112e5565b9050610946565b61094360c884611c61565b90505b6001600160a01b0384166000908152601f60205260408120805483929061096e908490611c33565b90915550506040808301516001600160a01b038616600090815260216020529182208054919290916109a1908490611c33565b90915550506040516323b872dd60e01b8152336004820152306024820152604481018490526001600160a01b038516906323b872dd90606401602060405180830381600087803b1580156109f457600080fd5b505af1158015610a08573d6000803e3d6000fd5b505050506040513d601f19601f82011682018060405250810190610a2c9190611c75565b50505b6014805460018082019092557fce6d7b5282bd9a3661ae061feed1dbda4e52ab073b1f9285be6e155d9c38d4ec0180546001600160a01b0319163390811790915560008181526013602052604090819020805460ff1916909317909255601654915163329b55b760e21b815260048101919091526001600160a01b039091169063ca6d56dc90602401600060405180830381600087803b158015610ad257600080fd5b505af1158015610ae6573d6000803e3d6000fd5b50506040513392507f6cd71e167cab47cb2ccb763aada102691b585b848adb6395f1da4ac187b9214a9150600090a260145460808201511415610b3f5760028161012001516003811115610b3c57610b3c611a58565b50505b505050565b3361080914610ba05760405162461bcd60e51b815260206004820152602260248201527f4f6e6c7952616e646f6d6e657373507265636f6d70696c6543616e46756c66696044820152611b1b60f21b606482015260840161067c565b610baa828261131b565b5050565b60148181548110610bbe57600080fd5b6000918252602090912001546001600160a01b0316905081565b610be0611730565b3360009081526015602052604090205460ff1615610c405760405162461bcd60e51b815260206004820152601860248201527f50656e616c74792066656520616c726561647920706169640000000000000000604482015260640161067c565b6000546001600160a01b03848116911614610c6d5760405162461bcd60e51b815260040161067c90611bf6565b6001600160a01b038316610d1b5780606001513414610cce5760405162461bcd60e51b815260206004820152601c60248201527f496e636f72726563742070656e616c74792066656520616d6f756e7400000000604482015260640161067c565b806060015160226000828254610ce49190611c33565b909155505060405130903480156108fc02916000818181858888f19350505050158015610d15573d6000803e3d6000fd5b50610e37565b80606001518214610d7d5760405162461bcd60e51b815260206004820152602660248201527f496e636f727265637420746f6b656e20616d6f756e7420666f722070656e616c60448201526574792066656560d01b606482015260840161067c565b60608101516001600160a01b03841660009081526023602052604081208054909190610daa908490611c33565b90915550506040516323b872dd60e01b8152336004820152306024820152604481018390526001600160a01b038416906323b872dd90606401602060405180830381600087803b158015610dfd57600080fd5b505af1158015610e11573d6000803e3d6000fd5b505050506040513d601f19601f82011682018060405250810190610e359190611c75565b505b5050336000908152601560205260409020805460ff1916600117905550565b60008054600154600254600354600454600580546001600160a01b0390961696949593949293919291610e8890611c97565b80601f0160208091040260200160405190810160405280929190818152602001828054610eb490611c97565b8015610f015780601f10610ed657610100808354040283529160200191610f01565b820191906000526020600020905b815481529060010190602001808311610ee457829003601f168201915b505050505090806006018054610f1690611c97565b80601f0160208091040260200160405190810160405280929190818152602001828054610f4290611c97565b8015610f8f5780601f10610f6457610100808354040283529160200191610f8f565b820191906000526020600020905b815481529060010190602001808311610f7257829003601f168201915b505050506007830154600884015460099094015492936001600160a01b03918216939181169250600160a01b900460ff16908b565b610fcc611730565b60408051610160810182526000546001600160a01b03168152600154602082015260025491810191909152600354606082015260045460808201526005805460a08301919061101a90611c97565b80601f016020809104026020016040519081016040528092919081815260200182805461104690611c97565b80156110935780601f1061106857610100808354040283529160200191611093565b820191906000526020600020905b81548152906001019060200180831161107657829003601f168201915b50505050508152602001600060060180546110ad90611c97565b80601f01602080910402602001604051908101604052809291908181526020018280546110d990611c97565b80156111265780601f106110fb57610100808354040283529160200191611126565b820191906000526020600020905b81548152906001019060200180831161110957829003601f168201915b50505091835250506007546001600160a01b0390811660208301526008549081166040830152606090910190600160a01b900460ff16600381111561116d5761116d611a58565b8152600954602090910152919050565b600e818154811061118d57600080fd5b600091825260209091200154905081565b601a543410156111ad57600080fd5b600854600954600154600160a01b90920460ff169160028360038111156111d6576111d6611a58565b1480156111eb57506111e88183611c33565b42115b15610b3f57601754601954601d80546001600160a01b0390931692639478430c923392349267ffffffffffffffff9092169190600061122983611cd2565b90915550601c54601b5460405160e088901b6001600160e01b03191681526001600160a01b039096166004870152602486019490945267ffffffffffffffff90921660448501521860648301526001608483015263ffffffff1660a482015260c401602060405180830381600087803b1580156112a557600080fd5b505af11580156112b9573d6000803e3d6000fd5b505050506040513d601f19601f820116820180604052508101906112dd9190611ced565b601d55505050565b6000806112f18361169e565b90506000670de0b6b3a76400006113088387611d06565b6113129190611c61565b95945050505050565b805161132e90600e9060208401906117b6565b506000601480549050600e60008154811061134b5761134b611d25565b90600052602060002001546113609190611d3b565b905060006014828154811061137757611377611d25565b6000918252602091829020015490546001600160a01b0390911691501515806113b75750600080546001600160a01b031681526021602052604090205415155b6114035760405162461bcd60e51b815260206004820152601d60248201527f4e6f2062616c616e636520696e20746865205468726966745075727365000000604482015260640161067c565b602054156114ea5760205460405160009133918381818185875af1925050503d806000811461144e576040519150601f19603f3d011682016040523d82523d6000602084013e611453565b606091505b50509050806114995760405162461bcd60e51b8152602060048201526012602482015271151c985b9cd858dd1a5bdb8819985a5b195960721b604482015260640161067c565b60208054604080516001600160a01b0386168152928301919091527ff2956657db703b4160a4041a597ea008de026af5e167af02f4be706e475f6bd4910160405180910390a1506000602055611652565b600080546001600160a01b03168152602160205260409020541561165257600080546001600160a01b03168082526021602052604080832054905163a9059cbb60e01b81523360048201526024810191909152909190829063a9059cbb90604401602060405180830381600087803b15801561156557600080fd5b505af1158015611579573d6000803e3d6000fd5b505050506040513d601f19601f8201168201806040525081019061159d9190611c75565b9050806115e15760405162461bcd60e51b8152602060048201526012602482015271151c985b9cd858dd1a5bdb8819985a5b195960721b604482015260640161067c565b600080546001600160a01b039081168252602160209081526040928390205483519287168352908201527ff2956657db703b4160a4041a597ea008de026af5e167af02f4be706e475f6bd4910160405180910390a15050600080546001600160a01b03168152602160205260408120555b600a805490600061166283611cd2565b9091555050600454600a54141561168b576008805460ff60a01b1916600160a01b17905561061c565b50506008805460ff60a01b191690555050565b600080826001600160a01b031663feaf968c6040518163ffffffff1660e01b815260040160a06040518083038186803b1580156116da57600080fd5b505afa1580156116ee573d6000803e3d6000fd5b505050506040513d601f19601f820116820180604052508101906117129190611d69565b505050915050806402540be4006117299190611db9565b9392505050565b60405180610160016040528060006001600160a01b0316815260200160008152602001600081526020016000815260200160008152602001606081526020016060815260200160006001600160a01b0316815260200160006001600160a01b03168152602001600060038111156117a9576117a9611a58565b8152602001600081525090565b8280548282559060005260206000209081019282156117f1579160200282015b828111156117f15782518255916020019190600101906117d6565b506117fd929150611801565b5090565b5b808211156117fd5760008155600101611802565b80356001600160a01b038116811461182d57600080fd5b919050565b60006020828403121561184457600080fd5b61172982611816565b60008060008060006080868803121561186557600080fd5b61186e86611816565b945061187c60208701611816565b935060408601359250606086013567ffffffffffffffff808211156118a057600080fd5b818801915088601f8301126118b457600080fd5b8135818111156118c357600080fd5b8960208285010111156118d557600080fd5b9699959850939650602001949392505050565b600080604083850312156118fb57600080fd5b61190483611816565b946020939093013593505050565b634e487b7160e01b600052604160045260246000fd5b6000806040838503121561193b57600080fd5b8235915060208084013567ffffffffffffffff8082111561195b57600080fd5b818601915086601f83011261196f57600080fd5b81358181111561198157611981611912565b8060051b604051601f19603f830116810181811085821117156119a6576119a6611912565b6040529182528482019250838101850191898311156119c457600080fd5b938501935b828510156119e2578435845293850193928501926119c9565b8096505050505050509250929050565b600060208284031215611a0457600080fd5b5035919050565b6000815180845260005b81811015611a3157602081850181015186830182015201611a15565b81811115611a43576000602083870101525b50601f01601f19169290920160200192915050565b634e487b7160e01b600052602160045260246000fd5b60048110611a8c57634e487b7160e01b600052602160045260246000fd5b9052565b600061016060018060a01b03808f1684528d60208501528c60408501528b60608501528a60808501528160a0850152611acb8285018b611a0b565b915083820360c0850152611adf828a611a0b565b925080881660e08501528087166101008501525050611b02610120830185611a6e565b826101408301529c9b505050505050505050505050565b60208152611b336020820183516001600160a01b03169052565b602082015160408201526040820151606082015260608201516080820152608082015160a0820152600060a08301516101608060c0850152611b79610180850183611a0b565b915060c0850151601f198584030160e0860152611b968382611a0b565b92505060e0850151610100611bb5818701836001600160a01b03169052565b8601519050610120611bd1868201836001600160a01b03169052565b8601519050610140611be586820183611a6e565b959095015193019290925250919050565b6020808252600d908201526c24b73b30b634b2103a37b5b2b760991b604082015260600190565b634e487b7160e01b600052601160045260246000fd5b60008219821115611c4657611c46611c1d565b500190565b634e487b7160e01b600052601260045260246000fd5b600082611c7057611c70611c4b565b500490565b600060208284031215611c8757600080fd5b8151801515811461172957600080fd5b600181811c90821680611cab57607f821691505b60208210811415611ccc57634e487b7160e01b600052602260045260246000fd5b50919050565b6000600019821415611ce657611ce6611c1d565b5060010190565b600060208284031215611cff57600080fd5b5051919050565b6000816000190483118215151615611d2057611d20611c1d565b500290565b634e487b7160e01b600052603260045260246000fd5b600082611d4a57611d4a611c4b565b500690565b805169ffffffffffffffffffff8116811461182d57600080fd5b600080600080600060a08688031215611d8157600080fd5b611d8a86611d4f565b9450602086015193506040860151925060608601519150611dad60808701611d4f565b90509295509295909350565b60006001600160ff1b0381841382841380821686840486111615611ddf57611ddf611c1d565b600160ff1b6000871282811687830589121615611dfe57611dfe611c1d565b60008712925087820587128484161615611e1a57611e1a611c1d565b87850587128184161615611e3057611e30611c1d565b50505092909302939250505056fea2646970667358221220082ecd6858175b9e155d80affc31ad425146ec6e5adf5fd7ea3ea6c258051a1b64736f6c63430008090033a2646970667358221220f8ce71893394ecb736d53b7162be3ed7f754730aa2be72d07b8824ff22abe8fc64736f6c63430008090033",
  "linkReferences": {},
  "deployedLinkReferences": {}
}